:100000000C9454080C9485080C9485080C9485086D
:100010000C9485080C9485080C9485080C9485082C
:100020000C9485080C9485080C9485080C9485081C
:100030000C9485080C9485080C9485080C9485080C
:100040000C9485080C9485080C9485080C948508FC
:100050000C9485080C9485080C9485080C949C8D50
:100060000C9485080C944F540C9425540C948508DA
:100070000C9485080C9485080C9485080C948508CC
:100080000C9485080C9485080C9485080C948508BC
:100090000C94FB530C94D1530C9485080C947F5A08
:1000A0000C9485080C9485080C9485080C9485089C
:1000B0000C9485080C9485080C9485080C9485088C
:1000C0000C9485080C9485080C9485080C94A7530F
:1000D0000C947D530C9485080C9453530C94295321
:1000E0000C94850805A84CCDB2D44EB93836A90277
:1000F0000C50B9918688083CA6AAAA2ABE00000026
:10010000803F07634236B79BD8A71A39685618AEA6
:10011000BAAB558C1D3CB7CC5763BD6DEDFD753E3C
:10012000F6177231BF000000803F08000000BE9249
:100130002449123EABAAAA2ABECDCCCC4C3E00002C
:100140000080BEABAAAAAA3E00000000BF000000CB
:10015000803F0000000000084178D3BB4387D113E3
:100160003D190E3CC3BD4282AD2B3E68EC8276BE8B
:10017000D98FE1A93E4C80EFFFBE01C4FF7F3F0055
:10018000000000000C9403980C9413420C941D9DE5
:100190000C948F9A0C94F8B30C94BB5D0C9418805B
:1001A0000C94C2820C941C990C9446AE0C94EF47AC
:1001B0000C9487A00C94BBAF0C94DD8F0C9412A907
:1001C0000C9488890C94AF480C94D4A50C9491821B
:1001D0000C9469420C94D3A00C940D960C948B80D3
:1001E0000C94EFB10C94A79E0C949C9A0C94EAA5E5
:1001F0000C94A7820C94C09E0C94E0250C94E97F8B
:100200000C94F69D0C94ECAD0C945EAD0C94DB97C5
:100210000C94E2410C9483970C94BAB30C94E69836
:100220000C946D4C0C9446830C944DA70C941C803C
:100230000C94BEA50C94AD7F0C9459B40C947782A9
:100240000C94C45D0C943E480C947D9C0C949E08C8
:100250000C94AC9E0C9441A80C9412B30C9499820B
:100260000C94E4470C94177F0C94C05D0C94319669
:100270000C940F9F0C940D490C9414440C946945F4
:100280000C94F29A0C943BC20C94B8A90C94199853
:100290000C94FF9A0C9426810C9467A70C942A81E5
:1002A0000C94234C0C948CAD0C9481A70C94E247D5
:1002B0000C945B890C94A0960C949A8E0C9499479C
:1002C0000C94289B0C94D39A0C9451A80C94FEA5E2
:1002D0000C94C1470C940B810C9405420C944F97DD
:1002E0000C9415A40C947BB40C949BA70C94D1AFE4
:1002F0000C94A29E0C94B1950C94709C0C94C29F8B
:100300000C94CA9E0C946B820C9439B00C94FC7FB4
:100310000C9466450C947D970C9426830C94970856
:100320000C940E800C94F9A00C945FB10C94B6421E
:100330000C94794A0C9402AD0C941A4A0C9492894C
:100340000C949B820C9417900C94E89D0C947C82E6
:100350000C944CA50C9452810C94E0490C94DC80D4
:100360000C94809F0C9439960C94D3820C9480A0AA
:100370000C94B8260C94E17F0C94269E0C948FB0BC
:100380000C9495980C94D5470C9449810C94254471
:100390000C94B3AA0C94CF480C944B970C94E34F55
:1003A0000C949F820C944F9F0C94249B0C94D345E7
:1003B0000C94F27F0C94FB490C9488B20C942D8918
:1003C0000C9415440C943C250C948A470C94608141
:1003D0000C940A800C94989D0C94E95D0C949AAA54
:1003E0000C94AFA60C94B8820C9470A60C94AF80B9
:1003F0000C9474890C949C890C94BAAD0C94A5AFA0
:100400000C9470490C9495800C940A7F0C9405B060
:100410000C945AA50C948A820C9453B00C94B1B0ED
:100420000C94EBAF0C949CA50C949B800C940AAF9D
:100430000C94D84B0C94C34B0C9403480C949482AA
:100440000C942B980C948CAC0C9473AE0C9463A805
:100450000C940D9E0C946D450C94AF5D0C945EB2A3
:100460000C94C2A40C947CB30C94064C0C9430AD48
:100470000C945AB30C94A0AE0C94DD7F0C9486823D
:100480000C94D1820C94A8AB0C94EC9D0C94ADA070
:100490000C94B69E0C948D820C9419AC0C9416445A
:1004A0000C940E810C94C9970C9407B30C948E96FF
:1004B0000C9487AF0C94C2B40C94F5B00C94134414
:1004C0000C94429A0C94C65D0C9419AE0C94CE47D1
:1004D0000C94F2A50C945D980C94D6420C94D047E1
:1004E0000C9426450C946EAB0C94839C0C94F7955D
:1004F0000C9477970C9465890C94A6890C94E49DD0
:100500000C94D2950C9495970C94ED4A0C947347E7
:100510000C94C59E0C943AB40C94A9820C947980E6
:100520000C941A480C94277F0C9494080C94469AC7
:100530000C94D4AC0C94F1410C94A7B10C94D3B0AE
:100540000C9442A50C94247F0C94FA9E0C9451892F
:100550000C941A830C94E99F0C9469AF0C94178047
:100560000C9411A80C942F480C945AB20C944789FF
:100570000C941FB00C9484B40C940A9A0C941489B3
:100580000C94E57F0C946C4A0C9465970C9481AAAA
:100590000C9456A50C946DB00C94EC7F0C944327EE
:1005A0000C9467A30C944FAA0C94EEA50C94864867
:1005B0000C949D820C9456B20C94D67E0C94BE8200
:1005C0000C94A5820C94A3820C9473260C948FA691
:1005D0000C945EA50C9440810C94D5820C94C0823E
:1005E0000C9453970C9452A40C9412800C944F9832
:1005F0000C943F440C947E890C9417B40C94AB9CDF
:100600000C9472820C9449A00C949BB30C94B797F1
:100610000C94D0800C94AB4B0C946E470C94B19E10
:100620000C94A3B40C94F7820C9450AC0C942E9CB4
:100630000C94D2990C94BC470C9441960C94238949
:100640000C94D49E0C9417B10C94C5800C946682C3
:100650000C94C25D0C94C0A30C9443490C947F800D
:100660000C9400800C94AB470C9468AA0C946E9A7E
:100670000C949AB20C948B4D0C943F890C940D8978
:100680000C9404800C94BC820C94A2970C949B4410
:100690000C9419890C94809C0C9421A70C949A08B2
:1006A0000C94F6A70C94F1970C94079D0C946EACE7
:1006B0000C94BA800C94D9B30C945C990C94FD7E84
:1006C0000C94BD9A0C94A1820C949C410C943D987E
:1006D0000C94E8800C94569C0C94CF9E0C94E1B43E
:1006E0000C94E8B20C9485800C94BA470C94598110
:1006F0000C94D77F0C94F67F0C949C990C94A39F38
:100700000C940CA00C94639C0C9497820C94772509
:100710000C942E810C947EA50C946B450C94BB9E7E
:100720000C944BAF0C944A960C946C440C943789FF
:100730000C94CF4B0C9429A80C94049B0C9475A892
:100740000C9438440C949D27C4DFE9EFF3F6F9FBD1
:10075000FDFE000102030405060708090A32002D08
:10076000280023001E0000190000140000000F00E4
:10077000000000000A000000000000000000056406
:100780005F5A55504B46413C3732002D280023001C
:100790001E0000190000140000000F0000000000FF
:1007A0000A0000000000000000000532373C41460E
:1007B0004B50555A5F645761726E696E673A2043B9
:1007C000616C63756C61746564206D757369632019
:1007D000636F756E742065786365656473206D6101
:1007E00078696D756D20706F737369626C653B20FD
:1007F0005344206361726420636F72727570746910
:100800006F6E206C696B656C7921005761726E693F
:100810006E673A20547261636B20636F756E74204B
:10082000646F6573206E6F74206D617463682066F9
:1008300069726D776172652120506C656173652006
:1008400075706461746520746865206D6963726F8A
:100850005344206361726420736F756E6420656613
:1008600066656374732E0001020304050607080918
:100870000A0B0C0D0E0F1011121314151617181960
:100880001A1B1C1D1E1F2021222324252627280178
:100890000203040506070809000A0B0C0D0E0F10D1
:1008A000111200131415161718191A1B001C1D1EFF
:1008B0001F20212223240001020304050000000060
:1008C00000060708090A00000000000B0C0D0E0FBF
:1008D00000000000001011121314000000000001BD
:1008E00002030000000000000004050600000000F4
:1008F000000000070809000000000000000A0B0CBF
:1009000000000000000000010000000000000000E6
:1009100000020000000000000000000300000000D2
:1009200000000000000400000000000000000000C3
:100930001C120A041F160D02110C07010A070400FD
:100940000A121C040D161F02070C110104070A41AC
:100950007474656E7561746F722053796E6320458F
:100960006E6400417474656E7561746F72205379A2
:100970006E63205374617274207C20436F6E6E2E00
:100980002053746174653A20005468656D65206376
:1009900068616E67656420746F2046726F7A656E59
:1009A00020456D7069726520283230323429005438
:1009B00068656D65206368616E67656420746F208B
:1009C00041667465726C696665202832303231295F
:1009D000005468656D65206368616E6765642074A6
:1009E0006F20474232202831393839290054686550
:1009F0006D65206368616E67656420746F2047428F
:100A0000312028313938342900417474656E75619C
:100A1000746F722053796E6368726F6E697A656461
:100A2000207C20436F6E6E2E2053746174653A20D3
:100A300000417474656E7561746F722070726F74AA
:100A40006F636F6C206D69736D6174636821207CC6
:100A50002052656365697665643A2000207C2045F4
:100A6000787065637465643A2000417474656E75CE
:100A700061746F722070726F746F636F6C206D6938
:100A8000736D6174636821207C20526563656976AB
:100A900065643A2000207C20457870656374656445
:100AA0003A200047657474696E67205061636B205B
:100AB000507265666572656E636573004765747430
:100AC000696E6720536D6F6B652050726566657245
:100AD000656E63657300436F6D706C65746564204B
:100AE000757064617465206F66207061636B20733C
:100AF000657474696E67730052756E6E696E6720F7
:100B00007570646174652066756E6374696F6E7369
:100B10002E2E2E005570646174696E6720706F7799
:100B200065722063656C6C207661726961626C65C8
:100B3000732E2E2E005570646174696E6720696E85
:100B40006E6572206379636C6F74726F6E2076616C
:100B5000726961626C65732E2E2E0055706461742B
:100B6000696E67206F75746572206379636C6F744A
:100B7000726F6E207661726961626C65732E2E2EC3
:100B8000005570646174696E672067656E65726197
:100B90006C207661726961626C65732E2E2E005333
:100BA0006176696E67205061636B2050726566657F
:100BB00072656E6365730057616E642053796E636E
:100BC00020456E640057616E642053796E63205334
:100BD00074617274004E6F20417564696F204465C2
:100BE00076696365005761726E696E673A20525389
:100BF000505F53595354454D5F494E464F206E6FD9
:100C00007420726563656976656421005573696E49
:100C100067205741562054726967676572005573A3
:100C2000696E672047505374617220417564696F23
:100C30002056657273696F6E3A2000C4D5DFE5E90E
:100C4000ECEFF1F3F4F6F7F8F9FAFBFCFDFEFF0028
:100C5000436F6E66696775726520506F77657220A5
:100C60004D6574657200556E61626C6520746F200D
:100C700066696E6420706F776572206D6F6E69743F
:100C80006F72696E6720646576696365206F6E2098
:100C90006932632E20506F776572206D65746572BE
:100CA0002066656174757265732077696C6C20626B
:100CB000652064697361626C65642E00506F7765AE
:100CC00072204D6574657220526573756C743A209C
:100CD00000496E697420706F776572206D65746568
:100CE000722E2E2E004552524F523A204E6F2063E4
:100CF000616C6C6261636B20617661696C61626CCE
:100D00006520666F72207061636B657420494420B2
:100D100000000000006410B71DC8206E3BAC30D945
:100D2000269041DC76F4516B6B5861B24D3C7105F5
:100D3000502083B8ED44930FF0E8A3D6D68CB3616E
:100D4000CBB0C2649BD4D2D38678E20AA01CF2BD99
:100D5000BD57616E642053796E6368726F6E697AF5
:100D600065640057616E642070726F746F636F6C9E
:100D7000206D69736D61746368210057616E642032
:100D800070726F746F636F6C206D69736D617463E3
:100D9000682100526563762E2057616E6420536D82
:100DA0006F6B6520507265667300526563762E2006
:100DB00057616E6420436F6E666967205072656686
:100DC0007300526563762E2057616E64204461740F
:100DD000613A2000526563762E2057616E6420438D
:100DE0006F6D6D616E643A2000207C20436F6E6EE3
:100DF0002E2053746174653A200057616E6420534D
:100E0000796E63696E67207C20436F6E6E2E20536F
:100E1000746174653A200057616E6420446973639D
:100E20006F6E6E6563746564207C20436F6E6E2EFA
:100E30002053746174653A2000417474656E756165
:100E4000746F722053796E63696E67207C20436FE4
:100E50006E6E2E2053746174653A2000417474657F
:100E60006E7561746F7220446973636F6E6E656333
:100E7000746564207C20436F6E6E2E205374617401
:100E8000653A2000536176696E6720536D6F6B651C
:100E900020507265666572656E6365730053617696
:100EA000696E672057616E64205072656665726571
:100EB0006E63657300526563762E20536D6F6B65AC
:100EC00020436F6E66696700526563762E20576116
:100ED0006E6420436F6E66696700526563762E20EC
:100EE0005061636B20436F6E66696700526563767D
:100EF0002E20417474656E7561746F72204D657338
:100F0000736167653A2000526563762E20417474E0
:100F10002E20436F6D6D616E643A2000207C20436B
:100F20006F6E6E2E2053746174653A2000000102CA
:100F3000030405060708090A0B0C0D0E0001020345
:100F40000405060708090A0B0C0E0D0C0B0A09080C
:100F500007060504030201000C0B0A090807060531
:100F60000403020100B80BB80BAC0DAC0DA00F30A0
:100F700075983A10274C1D70173D00640165016695
:100F800001670100002100240027002A002D003005
:100F900000330001010000040107010A01000022E2
:100FA00000250028002B002E003100340002010033
:100FB00000050108010B0100002000230026002984
:100FC000002C002F0032000001000003010601097F
:100FD0000105050505070508080808020202020ABE
:100FE0000A080804040404010101010101010103CC
:100FF00003030303030303040707070C0C0C0C0C87
:101000000C0C0C0202020206060606060606060B79
:101010000B0B0B0B0B0B0B010210202008081020F0
:101020004010204080020102010804020101020474
:101030000810204080804020100804020180040233
:10104000018040201008040201080402010102048A
:101050000810204080010204081020408000000A8F
:101060000B02090C0D0E080703040100000000002C
:101070000000000000000000000000000000000070
:10108000000000000000000000121110000000002D
:101090000000000000000000000000000000000050
:1010A000000000003BC29A8E11241FBECFEFD1E298
:1010B000DEBFCDBF00E00CBF13E0A0E0B2E0E2EB8A
:1010C000FCE901E00BBF02C007900D92A83EB107FA
:1010D000D9F729E1A8EEB3E001C01D92A43BB20705
:1010E000E1F718E0C3E5D8E000E006C02197010968
:1010F000802FFE010E94B1C8C235D10780E00807E9
:10110000A9F70E949E8E0C9447CE0C940000853661
:1011100008F084E62FEF829FC001112464E670E09E
:101120000E949DC8862F089590E080E00895FC01FC
:1011300064870895FC01848590E00895FC0186850C
:101140009785089580919605909197051816190630
:1011500094F480919A0790919B070197039758F414
:101160006091000F062E000C770B809198059091EE
:1011700099050E94468586E090E00C947961FF9283
:101180000F931F93CF93DF93EC01F62E0881198103
:10119000C8010E94F4C7F81621F06F2DC8010E9403
:1011A000FCC7CE01DF91CF911F910F91FF90089561
:1011B000843008F080E09091E802E82FF0E0809120
:1011C0005102882399F0943141F0983261F09C30BB
:1011D00039F4E55BF64F84910895E95BF64FFBCF58
:1011E000ED5BF64FF8CFE15CF64FF5CF943139F077
:1011F000983259F09C3031F4E55CF64FECCFE95C65
:10120000F64FE9CFED5CF64FE6CFE15DF64FE3CF69
:101210008823E9F18091D1028823B9F18091960663
:1012200090918F06992339F1811127C0E0916019BF
:10123000F0E0EB5DFF4E8081811125C080918D062D
:10124000811121C08091D102882311F180919606ED
:1012500090918F069923F1F081111EC0E0916019E1
:10126000F0E0EB5DFF4E808181111CC080918D0606
:10127000811118C00895882309F3E0916019F0E006
:10128000E850FD4FD8CF5F9ADDCF5F98DBCF5F98F6
:1012900044980895882351F3E0916019F0E0E850F4
:1012A000FD4FE1CF449A08958823E9F18091D1025E
:1012B0008823B9F18091960690918F06992339F190
:1012C000811127C0E0916019F0E0EB5DFF4E808155
:1012D000811125C080918D06811121C08091D1029C
:1012E000882311F18091960690918F069923F1F051
:1012F00081111EC0E0916019F0E0EB5DFF4E80812E
:1013000081111CC080918D06811118C00895882319
:1013100009F3E0916019F0E0E850FD4FD8CF429A10
:10132000DDCF4298DBCF4298A2980895882351F3ED
:10133000E0916019F0E0E850FD4FE1CFA29A0895E6
:1013400080914102882349F081E02091CD103091B5
:10135000CE10232B31F080E0089580911D0491E0A0
:1013600089270895982F80912F02882369F0923061
:1013700049F480915602882351F081E09091E8026F
:101380009C3029F480E003C081E09230D9F70895C1
:10139000E82FF0E08091E8028C3089F028F4843066
:1013A00051F0E157F74F09C0843161F08832C9F735
:1013B000E959F74F02C0E95FF64F84910895E15271
:1013C000F74FFBCFE954F74FF8CF8823D1F0809146
:1013D0008F06882341F0E0916019F0E0EB5DFF4E4D
:1013E0008081811108C080919606811104C080918E
:1013F0009506882331F080910B01886080930B0162
:10140000089580910B01877FF9CFE9E4F0E1108620
:1014100011868EE18093000290E080E00C94D988E0
:10142000909165199330B9F09530D9F02091590217
:10143000222389F0882379F0923079F490918F06F5
:10144000992349F090910002891759F08093000286
:1014500090E00C94D9880C94050A9091000298139E
:10146000F5CF0895BF92CF92DF92EF92FF920F9344
:101470001F93CF93DF93EC01809150020E94870865
:10148000B82EF0904119E090421987E399E10E944B
:101490006F5C882309F4A9C1FE188F2D0E94C8092A
:1014A000E82E8091CF02882309F4B1C085E08093B3
:1014B000430287E099E10E94C554882389F0109285
:1014C000CF02D093D502C093D402AE0170E060E0A9
:1014D00087E399E10E949F5C80E4809304021BC033
:1014E00087E099E10E942F559093D5028093D40212
:1014F000AC0170E060E087E399E10E949F5C80911D
:1015000004028F5F8E3108F480C0809304028091C2
:101510000402813408F780918F0681110CC08091FC
:101520009606811108C080919506811104C08091B2
:1015300004020E94100A809146029091E8029431C0
:1015400009F4F9C0983209F4F6C09C3009F4F7C0E8
:10155000823008F4DDC090E08C179D0709F4E8C0E4
:10156000C81BD90B80915D190E94B20981113DC140
:10157000EF2DF0E0EB55FA4F808181111BC0EE207A
:10158000C9F080912F028823A9F029E1F29EC001C1
:1015900011249C01295C3E4E690160E0C9010E9452
:1015A00095579E0150E040E004E110E06B2DC6012C
:1015B0000E94625780915A02882309F420C18091C9
:1015C000E802843109F4C1C0883209F418C190914D
:1015D00097068C3009F4D5C091110DC08091CF02CF
:1015E000811109C080919506811105C080918C06FA
:1015F000882309F40AC137E28BE1F31609F4D7C056
:1016000083E1F812FEC08FE0D2C08EE17ECF8091E0
:1016100097068823B1F185E08093430287E099E142
:101620000E94C554882319F01092970674CF87E062
:1016300099E10E942F559093D5028093D402AC017A
:1016400070E060E087E399E10E949F5C2091D40202
:101650003091D5022932310568F08091040283333C
:1016600020F081508093040205C02536310510F02A
:101670008F31B8F7809104028E3108F04CCF8EE1A3
:101680002CCFD093D502C093D40280914602909182
:10169000E8029C3031F1943121F18230E8F0282FBA
:1016A00030E0AE01421B530B2C173D0711F450E004
:1016B00040E090912F028B5F911101C085E08093F3
:1016C0004302809143028B3018F08AE080934302FA
:1016D0004115510591F013C085E080934302AE019E
:1016E000F0CF95E090934302823080F090E0AE011D
:1016F000481B590B8C179D0711F441E050E070E036
:1017000060E087E399E10E949F5C05CFAE01E0CFE6
:101710008091CF02811109C080919706811105C087
:10172000CE01880F991FC80FD91F209709F01ACF33
:10173000C1E0D0E017CF823008F00DCFF1CF82307A
:1017400008F009CFCC0FDD1FF0CF809197068111F3
:101750000DC08091CF02811109C080919506811141
:1017600005C080918C06882309F44FC092E29F1532
:1017700008F449CF81EF8F0D853008F044C089E02F
:1017800016C091110CC08091CF02811108C08091C8
:101790009506811104C080918C068823B1F120E266
:1017A0002F1568F383EF8F0D873088F585E0209142
:1017B000510290914119222309F454C0E11029C02B
:1017C00020911A04281728F52F5F20931A042091DE
:1017D00041198091E90290E087962817190629F0AF
:1017E00024F08091421980934119DF91CF911F918C
:1017F0000F91FF90EF90DF90CF90BF90089580E021
:10180000D6CF85E1D4CF8BE0D2CF83E0D0CF87E0B5
:10181000CECF10921A04C92FE11020C02091421996
:10182000EC2EF12C822F90E087968E159F057CF28E
:101830008C2F821B0E94C809882319F0C09341197C
:10184000C6CF8091E90290E08796E816F90621F468
:101850008091421980934119CF5FE0CF9F5F9093B1
:101860004119B5CFE11012C020911A04281770F465
:101870002F5F20931A049091411980914219981773
:1018800008F0B3CF8091E902895DADCF10921A04C0
:10189000C92FE11010C0809142198C1760F73C2FBE
:1018A000381B832F0E94C809882319F0C09341195F
:1018B000E2CFC150F0CF915090934119DCCF80918D
:1018C0005C19853059F480912F02811107C09091E5
:1018D0005D1981E0992321F0973011F080E008959F
:1018E000089581E08093CF028093CE028093CD0251
:1018F000089580915C19823020F0843068F0853042
:1019000011F18CE291E09093D5028093D4029093F0
:10191000D3028093D20208956091CA027091CB02E3
:1019200090E080E00E94D5C626E636E646EA5FE310
:101930000E9436C70E94CBC97093D5026093D4022F
:101940008CE291E0E4CF88EC90E09093D502809314
:10195000D402F6CFDF92EF92FF920F931F93CF93B3
:10196000DF9385EAE82E85E0F82E00EF13E0D0E063
:10197000C0E0DD24D394F70111927F0160E0CE0135
:10198000815E9A4E0E94955760E0CE01895C9E4E22
:101990000E949557F801D1928F016996C83EF3E0F5
:1019A000DF0749F7DF91CF911F910F91FF90EF90E3
:1019B000DF90089580914602811103C081E08093F9
:1019C000460280914602853018F084E080934602FA
:1019D00080914502811103C081E08093450280918E
:1019E0004502853018F084E08093450280914402DE
:1019F000811103C081E080934402809144028530CC
:101A000018F084E08093440208950F931F93CF93BE
:101A1000DF9300D000D0CDB7DEB78FEF9FEFDC01B2
:101A200089839A83AB83BC8310E000E01E830D831F
:101A3000BE016B5F7F4FCE0101960E947954BE01BB
:101A40006A5F7F4FCE0101960E9479540F5F1F4F4E
:101A50000533110559F78DE190E09E838D83BE011A
:101A60006B5F7F4FCE0101960E947954BE016A5F81
:101A70007F4FCE0101960E94795488E190E09E83C9
:101A80008D83BE016B5F7F4FCE0101960E9479541A
:101A9000BE016A5F7F4FCE0101960E947954698131
:101AA0007A818B819C816095709580959095269622
:101AB0000FB6F894DEBF0FBECDBFDF91CF911F915F
:101AC0000F910895EF92FF920F931F93CF93DF939F
:101AD00000D000D0CDB7DEB70E94050D69837A83B0
:101AE0008B839C83CE0101967C010CEF1FE01E834B
:101AF0000D83F70161917F01CE0105960E94BF0819
:101B00000F5F1F4F0115F0E11F0789F726960FB6EB
:101B1000F894DEBF0FBECDBFDF91CF911F910F9123
:101B2000FF90EF9008950F931F93CF93DF931F9231
:101B30001F92CDB7DEB708E110E01A8309836FEF7B
:101B4000CE0101960E94BF080F5F1F4F053311059C
:101B5000A1F70E94620D0F900F90DF91CF911F911E
:101B60000F910895EF92FF920F931F93CF93DF93FE
:101B7000CDB7DEB76A970FB6F894DEBF0FBECDBF04
:101B800080918C05E1E0813009F4E2E0809142022D
:101B900093E0813021F094E0823009F092E02091CE
:101BA00054023091550282E02115310529F083E07D
:101BB0002130310509F084E02091CC0261E021114F
:101BC00062E02091240471E0211172E020918E05E1
:101BD00051E0211152E02091910541E0211142E0B4
:101BE0002091560231E0211132E020918B05211124
:101BF00059C021E0F091E902F983F091E802FA83FB
:101C0000F0914C02FB83EC83E091DC02ED83E091E8
:101C1000DA02EE83E091D802EF83E091DD02E887FB
:101C2000E091DB02E987E091D902EA87E0914D0279
:101C3000EB87E0915002EC87E0914F02ED87E09155
:101C40004E02EE87E0912504EF87988B798B8A8B83
:101C50006B8B5C8B4D8B3E8B2F8B80912304888FFD
:101C6000CE0101967C0110E000E01A8F098FF70188
:101C700061917F01CE0149960E94BF080F5F1F4FFF
:101C80000831110591F70E94620D6A960FB6F8941B
:101C9000DEBF0FBECDBFDF91CF911F910F91FF909F
:101CA000EF90089522E0A6CF0F931F93CF93DF9379
:101CB0001F921F92CDB7DEB710E000E01A830983B0
:101CC0006FEFCE0101960E94BF080F5F1F4F0831D2
:101CD0001105A1F70E94620D0F900F90DF91CF9137
:101CE0001F910F910895CF93DF93CDB7DEB764971F
:101CF0000FB6F894DEBF0FBECDBF20919A0730918A
:101D00009B07215031092230310580F4FE013196C4
:101D100094E1DF011D929A95E9F795E0998381118D
:101D20000EC085E18D83CF010E94208064960FB69E
:101D3000F894DEBF0FBECDBFDF91CF91089584E14F
:101D4000F1CFCF93DF93CDB7DEB764970FB6F8949A
:101D5000DEBF0FBECDBF20919A0730919B07215067
:101D600031092230310580F4FE01319694E1DF0122
:101D70001D929A95E9F795E0998381110EC083E150
:101D80008D83CF010E94208064960FB6F894DEBF49
:101D90000FBECDBFDF91CF91089582E1F1CF809347
:101DA0009B052091960530919705121613063CF479
:101DB000682F80919805909199050C9485810895DC
:101DC00080919A0790919B070197039708F0A4C10F
:101DD0006091010F062E000C770B8CE390E00E94BF
:101DE00046856091010F062E000C770B89E491E087
:101DF0000E9446856091010F062E000C770B8BE444
:101E000090E00E9446856091010F062E000C770B32
:101E10008EE790E00E9446856091010F062E000C2F
:101E2000770B8FE790E00E9446856091010F062EA8
:101E3000000C770B83EB90E00E9446856091010FC8
:101E4000062E000C770B82E090E00E944685809180
:101E50008C06882371F06091010F062E000C770B21
:101E600080915C19853009F00BC187E390E00E94F6
:101E700046856091010F062E000C770B80915C194E
:101E8000823009F400C1833009F44AC164517109F8
:101E900080E691E00E94468590915D196091010F66
:101EA00080915C19062E000C770B923009F052C11C
:101EB0006E517109843009F03FC18FE090E00E94BB
:101EC00046856091010F062E000C770B6852710950
:101ED00080E190E00E9446856091010F062E000C83
:101EE000770B6E51710981E090E00E944685609108
:101EF000010F062E000C770B6852710982E190E009
:101F00000E9446856091010F062E000C770B6852E7
:101F1000710983E190E00E9446856091010F062ED1
:101F2000000C770B6852710984E190E00E944685AD
:101F30006091010F062E000C770B6852710985E144
:101F400090E00E9446856091010F062E000C770BF1
:101F50006852710986E190E00E9446856091010F08
:101F6000062E000C770B685271098DE890E00E94F4
:101F700046856091010F062E000C770B685271099F
:101F80008FE890E00E9446856091010F062E000CBC
:101F9000770B6852710983E990E00E944685609151
:101FA000010F062E000C770B685271098EE890E045
:101FB0000E9446856091010F062E000C770B685237
:101FC000710980E990E00E9446856091010F062E1C
:101FD000000C770B6852710982E990E00E944685F7
:101FE0006091010F062E000C770B6852710984E98D
:101FF00090E00E9446856091010F062E000C770B41
:102000006852710981E990E00E9446856091010F54
:10201000062E000C770B80915C19843009F04FC1BB
:102020008CE591E00E9446856091010F062E000C20
:10203000770B83E891E00E9446856091010F062EA0
:10204000000C770B8AE691E00E9446856091010FB3
:10205000062E000C770B89E691E00E944685809160
:102060001C048823E9F06091010F062E000C770B09
:1020700080912204882309F42EC18AEB91E00EC0DE
:102080008BE691E0F4CE8BE791E00E94468560916B
:10209000010F062E000C770B8CE791E00E9446851D
:1020A00080915D19823009F419C1833009F44BC164
:1020B000813009F432C180918F06882369F16091E3
:1020C000010F062E000C770B82E690E00E944685F9
:1020D0006091010F062E000C770B8FE791E00E94B4
:1020E00046856091010F062E000C770B89E891E080
:1020F0000E9446856091010F062E000C770B83E647
:1021000090E00E9446856091010F062E000C770B2F
:1021100088E490E00E94468586E090E00C94796126
:1021200085E290E00E9446856091010F062E000C2A
:10213000770B86E290E0B2CF8DE991E00E94468570
:102140006091010F062E000C770B6852710985E92A
:1021500091E0C0CE843009F0A6C08FE090E00E94EC
:1021600046856091010F062E000C770B80E190E010
:102170000E9446856091010F062E000C770B81E0CE
:1021800090E00E94468580911C046091010F062E0C
:10219000000C770B8111E7CE6451710982E190E068
:1021A0000E9446856091010F062E000C770B64514A
:1021B000710983E190E00E9446856091010F062E2F
:1021C000000C770B6451710984E190E00E94468510
:1021D0006091010F062E000C770B6451710985E1A7
:1021E00090E00E9446856091010F062E000C770B4F
:1021F0006451710986E190E00E9446856091010F6B
:10220000062E000C770B645171098DE890E00E9456
:1022100046856091010F062E000C770B6451710901
:102220008FE890E00E9446856091010F062E000C19
:10223000770B6451710983E990E00E9446856091B3
:10224000010F062E000C770B645171098EE890E0A7
:102250000E9446856091010F062E000C770B645199
:10226000710980E990E00E9446856091010F062E79
:10227000000C770B6451710982E990E00E94468559
:102280006091010F062E000C770B6451710984E9EF
:1022900090E00E9446856091010F062E000C770B9E
:1022A00064517109AFCE8DE991E00E94468560913D
:1022B000010F062E000C770B85E991E059CF82EAD9
:1022C00091E00E9446856091010F062E000C770B6D
:1022D00080E991E0B0CE89EB91E0E0CE6091010F12
:1022E000062E000C770B82E390E00E9446856091F9
:1022F000010F062E000C770B84E591E00E944685C5
:1023000080918F06882309F407CF6091010F062E74
:10231000000C770B84E390E0FDCE6091010F062E58
:10232000000C770B87E390E00E94468580918F0632
:10233000882309F4F1CE6091010F062E000C770B73
:102340008AE390E0E7CE6091010F062E000C770B38
:1023500087E491E0DFCEE82F80911E04882391F07E
:102360001E163CF40E2E000CFF0BE555F84F849121
:102370000895EF3D94F0FF27E1950CF4F095E35AB2
:10238000F84FF5CFE53D4CF01E164CF0FF27E195D8
:102390000CF4F095E158F84FEACF80E0089584E618
:1023A00008952F923F924F925F926F927F928F92F9
:1023B0009F92AF92BF92CF92DF92EF92FF920F93D4
:1023C0001F93CF93DF93CDB7DEB7A2970FB6F894E4
:1023D000DEBF0FBECDBF8091030F0E94AB11282F2F
:1023E0008091220488248394882311F072E0872E40
:1023F0008091510299249394882311F062E0962EE3
:1024000080915302AA24A394882311F052E0A52EB0
:1024100080915A02BB24B394882311F042E0B42E79
:102420008091D102CC24C394882311F032E0C32ED2
:102430008091BF02DD24D394882311F092E0D92E3D
:102440008091D0028111D5C0E1E0E8A38091CE0552
:102450008111D2C0E1E0E9A3E0904802F0905A195E
:1024600080919F0601E0811102E080919E0512E0BB
:10247000811111E08091410231E0811132E08091BF
:10248000210422242394882311F082E0282E8091B5
:102490008A068111B4C0E1E0EAA3809157029091CD
:1024A000580268EE73E00E9489C8762E80911E045F
:1024B00041E0811142E08091C0029091C102E8EEBA
:1024C000F3E0BF010E9489C8362E8091C20290912C
:1024D000C302BF010E9489C8462E8091C402909118
:1024E000C502BF010E9489C8562E8091C6029091F4
:1024F000C702BF010E9489C8662E8091C8029091D0
:10250000C902BF010E9489C88091E102A1E0811146
:10251000A2E08091E20271E0811172E08091E30219
:1025200051E0811152E08091E40291E0811192E04A
:102530008091E502811166C081E0253608F064C013
:102540002F5FE0915202E150E53008F05FC0F0E00B
:10255000EC50FD4FE08189829A82AB82BC82CD82B1
:10256000DE82F8A1FF83F9A1F887E986FA860B8756
:102570001C874D872E873F86488A598A6A8A6B8BCB
:10258000AC8B7D8B5E8B9F8B888FE98F3A8F2B8EE8
:10259000EAA1EC8F7D8ECE0101967C0108E110E06E
:1025A0001F8F0E8FF70161917F01CE014E960E9421
:1025B000BF080F5F1F4F0533110591F70E94620D91
:1025C000A2960FB6F894DEBF0FBECDBFDF91CF91BC
:1025D0001F910F91FF90EF90DF90CF90BF90AF9041
:1025E0009F908F907F906F905F904F903F902F9033
:1025F0000895F2E0F8A32ACFF2E0F9A32DCFF2E09C
:10260000FAA34BCF82E099CF25E69BCFE4E0A3CF9E
:10261000282F853608F024E6822F65E00E947DC8C9
:10262000992361F0822F90E0029665E070E00E94AD
:102630009DC8862F880F880F282F260F822F65E0D0
:102640000E947DC8E82FF0E080911E04882321F0CD
:10265000E85BF84F84910895E55CF34FFBCFAB0145
:1026600020919A0730919B07215031092330310581
:1026700028F421E06AEB7FEF0C94AE8108950F936C
:102680001F93CF93C82F80915C19833019F1853047
:1026900009F448C0823039F568E873E1CC2311F0C1
:1026A00064E670E08CE791E00E942F1380915D1941
:1026B000823009F45CC0833009F466C0813009F0CF
:1026C0006CC068E873E1CC2311F064E670E087E346
:1026D00090E055C068E873E1CC2311F064E670E047
:1026E00086E290E0E1CF08E813E1CC2311F004E6A4
:1026F00010E0B80180E190E00E942F13B8018EE84D
:1027000090E00E942F13B80180E990E00E942F13FF
:10271000B80180E691E00E942F130E94835D109221
:102720008906C4CF0E945F0C882371F08091220437
:102730008823A1F068E873E1CC2311F064E670E02F
:102740008AEB91E00E942F1308E813E1CC2311F0EB
:1027500004E610E0B80185E991E0CECF68E873E1C6
:10276000CC2311F064E670E089EB91E0EBCF68E8F0
:1027700073E1CC2311F064E670E082E390E0CF9146
:102780001F910F910C942F1368E873E1CC2311F083
:1027900064E670E087E491E0F2CFCF911F910F9152
:1027A000089580919A0790919B070197039798F459
:1027B00080919605909197051816190654F480910A
:1027C000980590919905843F21E0920710F00E94AE
:1027D0006C850E94568610929A0510929C0561E0C5
:1027E00070E088E390E00E94085E60919805709127
:1027F000990585E390E00C94535F80919605909144
:102800009705181619060CF072C0809198059091E2
:102810009905843F21E0920708F469C021E02093E4
:102820009C0520919A0730919B072230310509F4CD
:1028300041C02330310519F021303105F9F42091E0
:102840009B0561E0211101C060E00E9485816091DB
:10285000000F062E000C770B80919805909199053A
:102860000E94468561E080919805909199050E94AB
:10287000EF840E94568681E08093730F40E157E217
:1028800060E070E084E09FE00E949F5C80919C0586
:1028900061E070E0882311F062E070E088E390E08E
:1028A0000E94085E609198057091990584E390E01C
:1028B0000C94535F20919B0561E0211101C060E001
:1028C0000E9485816091000F062E000C770B80918D
:1028D0009805909199050E94468550E040E061E09E
:1028E00080919805909199050E941685C2CF089510
:1028F000CF93DF93C0919805D091990580918D0574
:10290000882309F44CC0C45FD140BE0190E080E050
:102910000E9489832091EC033091ED03261737073D
:1029200031F58091EA039091EB039093E903809352
:10293000E8036091E8037091E90390E080E00E9471
:102940003C84C0919605D09197056C177D07B4F033
:102950006091E8037091E903615071097093E90394
:102960006093E80390E080E00E943C84EECF6150E9
:1029700071097093E9036093E803DBCFEB01CC505E
:10298000DE4F80919C058823B1F00E94D113D09333
:102990009905C0939805DF91CF910C94FD13219771
:1029A000C43F81E0D80768F7C0919605D09197059C
:1029B000CD50DE4FE6CFD0939905C0939805BE0168
:1029C00085E390E0DF91CF910C94535FCF93DF9339
:1029D0006091980570919905C0919605D0919705E1
:1029E00080918D05882309F43FC0645F714090E0B9
:1029F00080E00E9489832091EA033091EB0326173F
:102A00003707D1F41092E9031092E8036091E803CC
:102A10007091E90390E080E00E943C846C177D0790
:102A200094F06091E8037091E9036F5F7F4F7093BA
:102A3000E9036093E803EECF6F5F7F4F7093E90384
:102A40006093E803E3CFEB01CC50DE4F80919C050F
:102A50008823B1F00E94D113D0939905C0939805B3
:102A6000DF91CF910C94FD136F5F7F4FCD50DE4F00
:102A7000C617D70710F0EB01E9CFC4EFD1E0E6CFDE
:102A8000D0939905C0939805BE0185E390E0DF914E
:102A9000CF910C94535F20919A0730919B0721505E
:102AA00031092330310518F460E00C9485810895D4
:102AB00020919A0730919B0721503109233031052D
:102AC00010F40C946C85089580915C1982508230CA
:102AD00020F08AE691E00C9458158CE390E0FBCF4F
:102AE0008DE890E00E9458158EE890E00E945815FD
:102AF0008FE890E00E94581580E990E00E945815F8
:102B000081E990E00E94581582E990E00E945815F2
:102B100083E990E00E94581584E990E00E945815DE
:102B200089E491E00E9458158CE491E00C945815CA
:102B300080915C19853061F48FE891E00E9458150E
:102B40008DEB91E00E94581587E390E00C945815A6
:102B50008BE691E00E9458158CE691E0F7CFCF927A
:102B6000DF92EF92FF920F931F93CF93DF936C014D
:102B7000F62EC42F14160CF4C0E0CA3B0CF4CAEBBA
:102B800080919A0790919B078230910591F1833053
:102B9000910519F0019709F048C00C2E000CDD0BCF
:102BA000222381F06AEB7FEFC6010E9446856E2DDD
:102BB000C6010E94EF8420E0A801BE01C6010E9468
:102BC000AE8108C0BE01C6010E9446856E2DC601B9
:102BD0000E94EF8461E0F11001C060E0C601DF9166
:102BE000CF911F910F91FF90EF90DF90CF900C94B9
:102BF00085810C2E000CDD0B222361F06AEB7FEF48
:102C0000C6010E94468550E040E06E2DC6010E943C
:102C10001685D1CFBE01C6010E94468550E040E036
:102C20006E2DC6010E941685D5CFDF91CF911F91E1
:102C30000F91FF90EF90DF90CF900895EF920F9358
:102C40001F9380918906882331F080E691E00E94ED
:102C50005815109289060E945F0C882361F08EE45B
:102C600091E00E94581589EB91E00E9458158AEB7B
:102C700091E00E94581580918A06882359F080912E
:102C8000C00F882339F01092C00F1092C10F81E05D
:102C90000E943F1380915D19823009F478C183301E
:102CA00009F4A9C1813009F48CC180916019815067
:102CB000843008F005C180919D05882309F4ECC09B
:102CC0004091010F80915C19E12C10E000E020E0C0
:102CD00060E08330A9F0853009F4D5C0823009F076
:102CE000C9C08DE791E00E94AF15EE24E3940AEF8E
:102CF00010E021E04091010F61E08FE791E00EC00C
:102D000084E690E00E94AF15EE24E39404E619E116
:102D100021E04091010F61E083E690E00E94AF1551
:102D200081E08093950580919405882309F4C5C0BE
:102D300080915C194091010FE12C10E000E020E04F
:102D400060E0833009F0ABC084E690E00E94AF15EC
:102D5000EE24E39404E619E121E04091010F61E0E3
:102D600088E490E00E94AF1581E080939305809104
:102D70005D19853059F4E12C04E610E021E0409122
:102D8000010F60E083EA91E00E94AF1580915D1928
:102D9000863059F4E12C04E610E021E04091010F67
:102DA00060E084EA91E00E94AF1581E080938F0695
:102DB00084E190E00E9479618091BC028823F9F05F
:102DC0008091BD029091BE020297C9F468E070E064
:102DD00080E090E00E940F53695F7F4F8F4F9F4FBD
:102DE00028EE33E0629FA001639F500D729F500D4B
:102DF000112470E060E086ED9FE00E949F5C80E01F
:102E00000E94540980915D198230A1F0E09160190F
:102E1000E150FF0BEE0FFF1FE159F04F4591549128
:102E200070E060E085E390E10E949F5C10923310B7
:102E30001092341010925110109252108FEF0E9485
:102E4000100A10921A1010921B1042E350E060E03A
:102E500070E088E090E10E949F5C10928E0648E945
:102E60005AE360E070E080EE9FE01F910F91EF90D9
:102E70000C949F5C8BE990E00E94AF15EE24E394E4
:102E800003E111E036CF8FE491E00E94AF15EE240C
:102E9000E39408EC10E02DCF1092950544CF8530D7
:102EA00049F48FE491E00E94AF15EE24E3940CE224
:102EB00011E052CF85E090E0F6CF1092930557CF06
:102EC0004091010F80915C19E12C10E000E020E0BE
:102ED00060E0833009F43FC0853009F442C082309D
:102EE000E9F587E891E00E94AF1580919D05882360
:102EF00009F445C081E08093950580915C1940916B
:102F0000010FEE24E394823079F504EA16E021E023
:102F100061E089E891E00E94AF15809194058823D3
:102F200061F281E08093930580915C194091010FDB
:102F3000EE24E3940CEB12E0833021F10CE211E07B
:102F4000823001F504EA16E021E061E089E891E0D1
:102F50000E94AF150CCF81E690E0C5CF8BE990E0E1
:102F6000C2CF8FE491E0BFCF0CE211E0833011F4C7
:102F70000CEB12E021E061E082E690E0CCCF109211
:102F80009505CBCF21E061E088E490E0E1CF85E3D7
:102F900090E00E945815E12C10E000E020E0409104
:102FA000010F60E083E390E00E94AF15EE24E3940C
:102FB00002E513E021E04091010F61E084E390E03D
:102FC000C7CF8BE390E00E945815E12C10E000E0A1
:102FD00020E04091010F60E089E390E00E94AF158E
:102FE000EE24E39408EE13E021E04091010F61E04C
:102FF0008AE390E0ADCF80919807909199078D3644
:10300000910550F4E12C10E000E020E04091010F28
:1030100060E086E491E09CCF86E491E00E94581540
:10302000809160198330E1F050F4813091F082306A
:1030300009F09DCE6091010F85EF90E00EC08430C5
:10304000A1F0853009F093CE6091010F8DE790E0FB
:1030500004C06091010F83E191E00E94ED8587CE6D
:103060006091010F87ED90E0F8CF6091010F89EB3F
:1030700090E0F3CFEF920F931F9383E591E00E94CE
:10308000581582E390E00E94581588E591E00E946F
:103090005815EE24E39410E000E020E04091010F89
:1030A00060E087E591E00E94AF1580915D19823064
:1030B000D9F420E04091010F60E083E591E00E94A7
:1030C000AF1581E080938D0640E050E0BA018FE3B8
:1030D00090E10E949F5C0E9466758CE190E01F91D8
:1030E0000F91EF900C94796110921A1010921B10AE
:1030F00042E350E060E070E088E090E10E949F5C75
:10310000E0CFEF920F931F934091010F80915D19D3
:10311000EE24E39410E000E020E060E0823039F536
:1031200083E591E00E94AF1581E08093960680913F
:103130005D198230C1F548EB5BE060E070E08FE341
:1031400090E10E949F5C80915C198250823040F433
:103150008CE291E09093D3028093D2020E94AA0C59
:103160008AE190E01F910F91EF900C94796188E6CD
:1031700091E00E94AF1580915C198450823040F438
:1031800020E04091010F61E089E691E00E94AF15D7
:10319000EE24E39410E000E020E04091010F60E0B5
:1031A00085E591E0BFCF40EA5FE060E070E08FE34B
:1031B00090E10E949F5C10921010109211101092DA
:1031C0001A1010921B1042E350E060E070E088E0BB
:1031D00090E1B7CFEF920F931F93CF93C82F81E069
:1031E00090E090939C0680939B0610929906109213
:1031F000980610929A0680918A06882309F47AC06C
:10320000409157025091580270E060E088EB9FE0D7
:103210000E949F5CC11110C00E94A009682F70E03D
:1032200089E290E00E94085E0E94A009682F70E089
:1032300089E290E00E94535F80916519853041F4E6
:1032400080915902882321F08FEF90E00E94D98865
:103250008BE490E00E9458158EE790E00E9458158C
:103260008FE790E00E94581583E290E00E94581585
:103270008CE591E00E94581580E991E00E94581574
:1032800082EA91E00E94581580915C198330B9F16F
:10329000853009F4ACC0823009F046C0EE24E394D6
:1032A00010E000E020E04091010F60E08BE791E04A
:1032B0000E94AF1508ED1EE021E04091010F61E092
:1032C0008CE791E00E94AF1580915D19823009F47E
:1032D00027C1833009F442C1813009F02DC1EE24A9
:1032E000E39404E813E021E04091010F61E087E3FB
:1032F00090E020C11092C00F1092C10F8BCFEE242E
:10330000E39410E000E020E04091010F60E085E2EE
:1033100090E00E94AF1508ED1EE021E04091010F02
:1033200061E086E290E0CECF80915D194091010F7F
:10333000CC2389F18230F9F44E51EE24E39410E06D
:1033400000E020E060E08FE090E00E94AF15409147
:10335000010F485208E91AE321E061E080E190E0C2
:103360000E94AF1548E95AE360E070E08CEC9FE002
:103370000E949F5CA9CFEE24E39410E000E020E0DF
:1033800060E08FE090E00E94AF1508E91AE321E0C9
:103390004091010FE2CF8230D1F44E51EE24E394FC
:1033A00010E000E020E060E081E090E00E94AF15D6
:1033B0004091010F485204EF11E021E061E080E10B
:1033C00090E00E94AF1540E050E0BA01CFCFEE246C
:1033D000E39410E000E020E060E081E090E00E94F3
:1033E000AF1504EF11E021E04091010FE7CF0E94FB
:1033F0005F0C4091010F8823D9F1EE24E39410E093
:1034000000E020E060E081E090E00E94AF1504EF72
:1034100011E021E04091010F61E085E991E00E9417
:10342000AF1580912204882371F000ED17E021E0B0
:103430004091010F61E08AEB91E00E94AF1581E0BD
:1034400080931C04C0CFEE24E39410E000E020E061
:103450004091010F60E08EE491E00E94AF150CEF07
:1034600018E021E04091010F61E089EB91E0E5CFA8
:1034700080915D19CC2369F18230D9F44E51EE244C
:10348000E39410E000E020E060E08DE991E00E942C
:10349000AF154091010F485200E117E221E061E0D1
:1034A00085E991E00E94AF1540E157E260E070E0ED
:1034B0005DCFEE24E39410E000E020E060E08DE9D1
:1034C00091E00E94AF1500E117E221E04091010F69
:1034D000E6CF8230A9F44E51EE24E39410E000E0F0
:1034E00020E060E081E090E00E94AF154091010F84
:1034F000485204EF11E021E061E085E991E061CFFD
:10350000EE24E39410E000E020E060E081E090E051
:103510000E94AF1504EF11E021E04091010FECCFC4
:10352000EE24E39404E813E021E04091010F61E010
:1035300082E390E00E94AF1510922B1910922C1983
:10354000109293068AE090E00E94745E8AE090E018
:10355000CF911F910F91EF900C947961EE24E39439
:1035600004E813E021E04091010F61E087E491E07D
:10357000E1CFEF920F931F9380918A06882309F47D
:1035800079C08091C00F811106C080915C19843090
:1035900079F0853059F1409157025091580270E00E
:1035A00060E088EB9FE01F910F91EF900C949F5C7F
:1035B00080E190E00E94581580915D19823071F48D
:1035C0004091010F4852EE24E39410E000E020E027
:1035D00061E080E190E00E94AF15DDCFEE24E3943E
:1035E00010E000E020E04091010FF2CF85E991E08A
:1035F0000E94581580915D19823029F54091010F84
:103600004852EE24E39410E000E020E061E085E918
:1036100091E00E94AF150E945F0C882309F4BBCF94
:10362000809122048823B9F08AEB91E00E9458151A
:10363000EE24E39410E000E020E04091010F61E00F
:103640008AEB91E0C8CFEE24E39410E000E020E0A4
:103650004091010FDBCF89EB91E00E945815EE24D9
:10366000E39410E000E020E04091010F61E089EB7D
:1036700091E0B1CF1F910F91EF900895EF920F93CA
:103680001F9380915D19823009F472C0833091F1EB
:10369000813009F474C080915C1990916019915047
:1036A000943008F04FC0833069F0853009F447C08A
:1036B000823009F041C08DE791E00E9458158FE7F4
:1036C00091E006C084E690E00E94581583E690E001
:1036D0000E9458158091BC02882321F089E090E077
:1036E0000E94581588E490E00E94581582E690E008
:1036F0000E9458158091BD029091BE02009709F476
:1037000045C0019709F466C0109295051092930583
:1037100080915D19853021F483EA91E00E9458156B
:1037200080915D19863009F071C084EA91E01F91A3
:103730000F91EF900C94581580E690E0BECF8FE487
:1037400091E0BBCF833059F0853079F0823051F46D
:1037500087E891E00E94581589E891E0B9CF81E6A9
:1037600090E0B6CF8BE990E0B3CF8FE491E0B0CF9B
:1037700083E390E00E94581584E390E0B9CF89E399
:1037800090E00E9458158AE390E0B2CF82E090E08A
:103790009093BE028093BD0280919A0790919B07FF
:1037A000039741F48AE490E00E94581589E490E080
:1037B0000E9458158091FC0F8111A6CFE12C10E0DA
:1037C00000E020E04091010F60E089E490E00E9479
:1037D000AF159ACF82E090E09093BE028093BD0235
:1037E0008EE690E00E9458158FE690E00E945815F2
:1037F0008091FC0F811188CFE12C10E000E020E0E7
:103800004091010F60E08FE690E0E1CF1F910F91B2
:10381000EF900895EF920F931F938091DE02853011
:1038200010F51092DE0280E490E00E945815E12C21
:1038300010E000E020E040E060E080E490E00E94E2
:10384000AF158091DE022CE3829FC001112464E653
:1038500070E00E949DC86C536093000F1F910F9100
:10386000EF900C94A20885508093DE02EACFEF928D
:103870000F931F938091DE02803618F184E68093C7
:10388000DE0280E490E00E945815E12C10E000E098
:1038900020E040E060E080E490E00E94AF1580917D
:1038A000DE022CE3829FC001112464E670E00E94D6
:1038B0009DC86C536093000F1F910F91EF900C9473
:1038C000A2088B5F8093DE02EACFEF920F931F93E3
:1038D0008091DF02853010F51092DF0280E490E0E5
:1038E0000E945815E12C10E000E020E040E060E08C
:1038F00080E490E00E94AF158091DF022CE3829F6C
:10390000C001112464E670E00E949DC86C5360936E
:10391000010F1F910F91EF900C94E00E8550809352
:10392000DF02EACFEF920F931F938091DF02803680
:1039300018F184E68093DF0280E490E00E9458153D
:10394000E12C10E000E020E040E060E080E490E066
:103950000E94AF158091DF022CE3829FC0011124E9
:1039600064E670E00E949DC86C536093010F1F9144
:103970000F91EF900C94E00E8B5F8093DF02EACF03
:10398000EF920F931F93CF93C82F80919A07909136
:103990009B070197039738F48091E002082E000CF2
:1039A000990B0E946187C11139C080919B0690914B
:1039B0009C060197F1F08091920681111AC08091C6
:1039C0009C05882321F080919A05882391F08091AD
:1039D00047028233B1F48FE390E00E945815E12C46
:1039E00010E000E020E040E060E08FE390E00E9423
:1039F000AF1586E090E0CF911F910F91EF900C945E
:103A0000796180E490E00E945815E12C10E000E01C
:103A100020E040E060E080E490E0E9CFCF911F91AA
:103A20000F91EF90089580931E049AE0811101C0D8
:103A300090E090938805882339F080914702833382
:103A400018F082E380934702809147020E94081396
:103A50008093E0028093020F81E00C94C01C90914F
:103A6000E0029A3B49F4811110C08091020F8093CB
:103A7000E00280E00C94C01C882339F09093020F80
:103A80008AEB8093E00281E0F5CF08958091E00217
:103A9000843CA9F080914702853068F41092470277
:103AA000809147020E9408138093E0028093020FE6
:103AB00080E00C94C01C855080934702F1CF08959C
:103AC0009091E002809188059817A1F080914702BB
:103AD000803670F084E680934702809147020E940E
:103AE00008138093E0028093020F80E00C94C01CC6
:103AF0008B5FF1CF08950F931F93CF93DF9300D087
:103B000000D0CDB7DEB7122F242F462F682FCE015D
:103B100001960E941B82BE016C5F7F4FCE01019611
:103B20000E94E35C6D817C81111102C06C817D81FA
:103B30008E8126960FB6F894DEBF0FBECDBFDF9103
:103B4000CF911F910F9108952F923F924F925F92C4
:103B50006F927F928F929F92AF92BF92CF92DF929D
:103B6000EF92FF920F931F93CF93DF9300D000D07B
:103B70001F921F92CDB7DEB7809150020E94870836
:103B8000F82E8091560215E0882331F060915D197E
:103B900081E00E94975D182F80E00E94D8089091E4
:103BA0004219890F8D8381E00E94D80890914219B3
:103BB000890F8E8382E00E94D80850904219580ED7
:103BC00083E00E94D80890914219982E990E809116
:103BD0005D192BEF280F223008F410C1843009F44E
:103BE0000DC1E09053023D81232F30E038872F83B1
:103BF0006E81A62EB12CE52DF0E0FC83EB83292D00
:103C000030E03A832983E110FEC000E020E04F2D30
:103C1000612F81E00E947B1D1B01482E20E04F2D6B
:103C2000612F81E00E947B1D3B01882E20E04F2DFB
:103C3000612F81E00E947B1D6B01E82E20E04F2D5B
:103C4000612F81E00E947B1DAB01682FEF81F88519
:103C5000EE0FFF1F8F819885E80FF91FE153FA4F90
:103C6000208231824282F501EE0FFF1FEA0DFB1D1B
:103C7000E153FA4F608271828282EB81FC81EE0F08
:103C8000FF1F2B813C81E20FF31FE153FA4FC082EB
:103C9000D182E282E981FA81EE0FFF1F89819A8148
:103CA000E80FF91FE153FA4F4083518362838091FB
:103CB0008E0581118AC08F8198850196FC01EE0FD7
:103CC000FF1FE80FF91FE153FA4F20823182428231
:103CD000A0914219B0E0EF81F88580915919885080
:103CE000AE17BF0714F48D81815090E09C01220F24
:103CF000331F820F931FFC01E153FA4F2082318260
:103D0000428295012F5F3F4FC901880F991F820F93
:103D1000931FFC01E153FA4F60827182828280918D
:103D200059198850AA15BB0514F48E81815090E072
:103D30009C01220F331F820F931FFC01E153FA4FA6
:103D40006082718282828B819C810196FC01EE0FE0
:103D5000FF1FE80FF91FE153FA4FC082D182E282C0
:103D60002B813C81809159198850A217B30714F414
:103D70008FEF850D90E0FC01EE0FFF1FE80FF91F9C
:103D8000E153FA4FC082D182E28289819A81019601
:103D9000FC01EE0FFF1FE80FF91FE153FA4F4083BC
:103DA0005183628389819A81A817B9074CF1809168
:103DB0005919885090E0FC01EE0FFF1FE80FF91F22
:103DC000E153FA4F40835183628328960FB6F894EB
:103DD000DEBF0FBECDBFDF91CF911F910F91FF903E
:103DE000EF90DF90CF90BF90AF909F908F907F909B
:103DF0006F905F904F903F902F90089515E0F1CE17
:103E00008FEF890DD7CF892F90E0EF81F885E81BE0
:103E1000F90BEB55FA4F20812223D1F0F501E81B75
:103E2000F90BEB55FA4F2081222391F0EB81FC81B5
:103E3000E81BF90BEB55FA4F2081222349F0E98169
:103E4000FA81E81BF90BEB55FA4F80818111F0C123
:103E50000E94AA0C6091CA027091CB0290E080E0AF
:103E60000E94D5C620E030E040EC5FE30E9436C7F8
:103E70000E94CBC99B01AC01809142196F8178856A
:103E8000681B710989E1D82ED69EC001D79E900D7E
:103E9000112401E010E06F2D895C9E4E0E94625754
:103EA0006091CA027091CB0290E080E00E94D5C67A
:103EB00020E030E040EC5FE30E9436C70E94CBC9AF
:103EC0009B01AC0180914219B501681B7109D69E16
:103ED000C001D79E900D11246F2D895C9E4E0E94CB
:103EE00062576091CA027091CB0290E080E00E941C
:103EF000D5C620E030E040EC5FE30E9436C70E9468
:103F0000CBC99B01AC01809142196B817C81681BFC
:103F10007109D69EC001D79E900D11246F2D895C2A
:103F20009E4E0E9462576091CA027091CB0290E04F
:103F300080E00E94D5C620E030E040EC5FE30E94C4
:103F400036C70E94CBC99B01AC018091421969819F
:103F50007A81681B7109D69EC001D79E900D1124ED
:103F60006F2D895C9E4E0E94625780918E05811153
:103F70002CCFEE2031F16091CA027091CB0290E01B
:103F800080E00E94D5C620E030E040EC5FE30E9474
:103F900036C70E94CBC99B01AC01EF81F8853196F1
:103FA00080914219E81BF10969E16E9FC0016F9F82
:103FB000900D112401E010E06F2D895C9E4E0E944F
:103FC0006257F0914219FF832D81F21708F432C134
:103FD0003091591938503D83EE2009F448C0609162
:103FE000CA027091CB0290E080E00E94D5C620E02A
:103FF00030E040EC5FE30E9436C70E94CBC99B01D2
:10400000AC018D81EF818E1B990BBC01F9E1F69F0C
:10401000C001F79F900D112401E010E06F2D895C25
:104020009E4E0E9462576091CA027091CB0290E04E
:1040300080E00E94D5C620E030E040EC5FE30E94C3
:1040400036C70E94CBC99B01AC016FEFA61AB60A16
:1040500080914219A81AB10879E17A9DC0017B9D2F
:10406000900D11246F2D895C9E4E0E9462578091A5
:1040700042198F839E81891708F4E0C0E091591995
:10408000E850ED83EE2009F44AC06091CA027091B5
:10409000CB0290E080E00E94D5C620E030E040EC0A
:1040A0005FE30E9436C70E94CBC99B01AC018D81A2
:1040B000EF818E1B990BBC01F9E1F69FC001F79FC0
:1040C000900D112401E010E06F2D895C9E4E0E943E
:1040D00062576091CA027091CB0290E080E00E942A
:1040E000D5C620E030E040EC5FE30E9436C70E9476
:1040F000CBC94B815C814F5F5F4F20914219421BBE
:10410000510929E1249FF001259FF00D11249B0105
:10411000AC016F2DCF01895C9E4E0E946257309199
:1041200042193B83351508F48DC05090591968EF3A
:10413000560EEE2009F44AC06091CA027091CB027B
:1041400090E080E00E94D5C620E030E040EC5FE3E4
:104150000E9436C70E94CBC99B01AC01852DEB8123
:104160008E1B990BBC01F9E1F69FC001F79F900DE2
:10417000112401E010E06F2D895C9E4E0E94625771
:104180006091CA027091CB0290E080E00E94D5C697
:1041900020E030E040EC5FE30E9436C70E94CBC9CC
:1041A00049815A814F5F5F4F20914219421B51094B
:1041B00029E1249FF001259FF00D11249B01AC0102
:1041C0006F2DCF01895C9E4E0E946257309142193B
:1041D00039833915C8F19090591968EF960EEE2081
:1041E00009F4F3CD6091CA027091CB0290E080E0B7
:1041F0000E94D5C620E030E040EC5FE30E9436C765
:104200000E94CBC9E92D2981E21BFF0BAF0129E1F7
:10421000249FF001259FF00D112401E010E09B0187
:10422000AC016F2DCF01895C9E4E0E946257CDCDAF
:10423000E12C9BCE6D8161506D83CECEFE81F1501D
:10424000FD8320CF5A9475CF9A94C9CF4F925F9235
:104250006F927F92AF92BF92CF92DF92EF92FF92D6
:104260000F931F93CF93DF93C82F809150020E942A
:104270008708F82E0E94DA0CAC2EB12C80915302E4
:10428000811158C06501CC0CDD1CCA0CDB1CC601B9
:1042900081539A4F6C0100E020E04FEF60E081E035
:1042A0000E947B1DF60160837183828380918E055D
:1042B00081112FC0FFEFAF1ABF0A7501EE0CFF1C72
:1042C000EA0CFB1CC70181539A4F7C0120E04FEFA1
:1042D00060E081E00E947B1DF7016083718382832F
:1042E000809142198C1720F1C0915919C850D0E023
:1042F000CE01880F991FC80FD91FC153DA4F00E0B4
:1043000020E04FEF60E081E00E947B1D68837983AD
:104310008A83DF91CF911F910F91FF90EF90DF90F3
:10432000CF90BF90AF907F906F905F904F90089527
:10433000C150DDCF809142199501281B3109F90147
:10434000EB55FA4F80818F113DC0D9E1D29FC0015A
:10435000D39F900D11246F2D815E9A4E0E94955728
:104360006091CA027091CB0290E080E00E94D5C6B5
:1043700020E030E040EC5FE30E9436C72B013C01B7
:104380006091460270E090E080E00E94D7C69B01F9
:10439000AC01C301B2010E9459C90E94CBC99B0163
:1043A000AC0180914219B501681B7109D69FC0010B
:1043B000D79F900D112401E010E060E0815E9A4EDD
:1043C0000E94625780918E058111A3CF6501FFEF96
:1043D000CF1ADF0A809142199601281B3109F90191
:1043E000EB55FA4F80818F113CC0D9E1D29FC001BB
:1043F000D39F900D11246F2D815E9A4E0E94955788
:104400006091CA027091CB0290E080E00E94D5C614
:1044100020E030E040EC5FE30E9436C72B013C0116
:104420006091460270E090E080E00E94D7C69B0158
:10443000AC01C301B2010E9459C90E94CBC99B01C2
:10444000AC0180914219C81AD108DC9DC001DD9DE4
:10445000900D112401E010E060E0815E9A4E0E9410
:1044600062578091421990E0C1508A159B051CF05B
:10447000C0915919C850D0E09E01281B390BF90191
:10448000EB55FA4F80818F1144CF19E1129FC00183
:10449000139F900D11246F2D815E9A4E0E949557A7
:1044A0006091CA027091CB0290E080E00E94D5C674
:1044B00020E030E040EC5FE30E9436C76B017C01F6
:1044C0006091460270E090E080E00E94D7C69B01B8
:1044D000AC01C701B6010E9459C90E94CBC99B011A
:1044E000AC0180914219C81BD1091C9FC0011D9FBE
:1044F000900D112401E010E060E0815E9A4E0E9470
:10450000625707CFCF92DF92EF920F93CF93DF9353
:10451000EC0185E0809343020E94DA0C87E399E185
:104520000E946F5C882309F4BCC06091460270E071
:10453000CE010E9489C8EB018091CF02882309F443
:10454000CBC087E099E10E94C554882309F4B0C02C
:104550001092CF02AE0170E060E087E399E10E9423
:104560009F5CD093D502C093D40286E2809304026C
:1045700080918F0681110CC080919606811108C030
:1045800080919506811104C0809104020E94100A56
:1045900080915D190E94B209811183C0809103024C
:1045A0008111CAC080912F02882321F08091411986
:1045B0000E942621809118048F5F843008F0BFC0CC
:1045C00080931804809118040E94D808C091421961
:1045D000C80FC093411980912F02882309F461C04C
:1045E000809150020E948708D82F8091560288231C
:1045F00009F4A8C060915D1981E00E94975D9091D7
:10460000E8029C3009F480E200E020E04D2F682FA2
:1046100081E00E947B1D6B01E82E4C2F50E0FA01D7
:10462000EE0FFF1FE40FF51FE153FA4FC082D18256
:10463000E2822091421930E0FA01E21BF30BEB55C4
:10464000FA4FD08380918E0581112BC0CA0101964B
:10465000FC01EE0FFF1FE80FF91FE153FA4FC08274
:10466000D182E282821B930BFC01EB55FA4FD0837F
:10467000C150241735071CF0C0915919C8508C2F10
:1046800090E0FC01EE0FFF1FE80FF91FE153FA4F16
:10469000C082D182E282821B930BFC01EB55FA4F60
:1046A000D083DF91CF910F91EF90DF90CF9008955D
:1046B00087E099E10E942F55AC0170E060E087E34C
:1046C00099E10E949F5C87E099E10E942F559093A9
:1046D000D5028093D40249CF80919706882321F197
:1046E00087E099E10E94C554882319F0109297063B
:1046F0003FCF87E099E10E942F55AC0170E060E068
:1047000087E399E10E949F5C87E099E10E942F5521
:104710009093D5028093D4028091040281508E310F
:1047200008F024CF8EE122CFAB0170E060E087E398
:1047300099E10E949F5C1CCF109203023BCF109224
:10474000180440CF85E05BCFDF92EF92FF920F938A
:104750001F93CF93DF938091560215E0882331F0A9
:1047600060915D1981E00E94975D182F8091E802A9
:104770008C3009F410E280915C1982508230B0F1E3
:10478000D0E0C0E08C2F0E94C809882319F1FE01F7
:10479000EB55FA4FD0808C2F0E94C8099091421996
:1047A000292F280F3327331FC90101977C01EE0CF5
:1047B000FF1C8E0D9F1DFC01E153FA4F7F0100E0AD
:1047C00020E04D2D612F81E00E947B1DF701608369
:1047D000718382832196C832D105A1F6DF91CF91F2
:1047E0001F910F91FF90EF90DF900895F12C809131
:1047F000E802F81698F78F2D90E0C0914219C80F83
:10480000D92FD11D9E01220F331FC20FD31FC153B9
:10481000DA4F8B559A4F00E020E0FC014081612F78
:1048200081E00E947B1D688379838A83F394DFCFC4
:10483000EF92FF920F931F93CF93DF93C82F809136
:104840004D020E948708182F80919105D4E188239A
:1048500031F060915D1980E00E94975DD82F8091C2
:104860008B06082E000C990BEC2FF0E08E179F079B
:104870008CF12091E90228171906F9F0F4F08091E3
:10488000CC028823F9F02D30D1F4E85AF04FE491AE
:10489000F0E07F01EE0CFF1CEE0DFF1DCF018153F8
:1048A0009A4F7C0100E020E0412F6D2F80E00E94B4
:1048B0007B1DF701608371838283CF5FD0CFE75B7D
:1048C000F04FE5CF2D3019F4E45CF04FE0CFE35D1D
:1048D000F04FDDCFDF91CF911F910F91FF90EF90BF
:1048E0000895EF92FF920F931F93CF93DF938091E0
:1048F0002F028111D5C180915602D5E0882331F075
:1049000060915D1984E00E94975DD82F80914E02DE
:104910000E948708C82F1091EF0380919506882385
:1049200009F497C0112309F45AC0A59A739A80918B
:10493000020188608093020180910201806180936E
:104940000201809102018062809302018091020144
:1049500080648093020180915402909155020097E7
:1049600009F49EC1D0E00197D1F400E020E04C2F83
:1049700065E084E00E947B1D609326047093270409
:104980008093280420E04C2F65E084E00E947B1D8A
:104990006093290470932A0480932B0489C18D2F7E
:1049A00090E02091E6022150330B821793070CF020
:1049B00077C17C01EE0CFF1CE80EF91EC7018A5D71
:1049C0009B4F7C0100E020E04C2F65E084E00E94DA
:1049D0007B1DF701608371838283DF5FE0CFA59841
:1049E000739880910201877F809302018091020178
:1049F0008F7E80930201809102018F7D809302015E
:104A0000809102018F7B80930201809154029091EA
:104A10005502892B09F444C1812F90E02091E602D0
:104A20002150330B821793070CF03AC1EC01CC0FE5
:104A3000DD1FC80FD91FCA5DDB4F00E020E04FEF3C
:104A400060E084E00E947B1D688379838A831F5F16
:104A5000E3CF183008F024C1E12FF0E08827EC5CA8
:104A6000FA4D8F4F0C94B1C83C257725E02573266D
:104A70007326B82643279D27A59873988091020135
:104A8000877F80930201809102018F7E80930201D3
:104A9000809102018F7D80930201809102018F7BC2
:104AA000809302018091540290915502892B09F460
:104AB000F7C010E0812F90E02091E6022150330BE7
:104AC000821793070CF0ECC0EC01CC0FDD1FC80F70
:104AD000D91FCA5DDB4F00E020E04FEF60E084E0CB
:104AE0000E947B1D688379838A831F5FE3CFA5982B
:104AF000739880910201877F809302018091020167
:104B00008F7E809302018091020180628093020176
:104B100080910201806480930201809154029091FF
:104B20005502892B09F4BCC000E020E04FEF60E0A3
:104B300084E00E947B1D6093260470932704809379
:104B4000280420E04FEF60E084E00E947B1D60932A
:104B5000290470932A0480932B0420E04FEF60E037
:104B600084E00E947B1D60932C0470932D0480933D
:104B70002E0420E04FEF60E084E00E947B1D6093F4
:104B80002F047093300480933104809154029091EB
:104B9000550200E020E04C2F019721F080915D1933
:104BA000811168C06FE084E00E947B1D6093320435
:104BB000709333048093340420E04C2F6FE067C07F
:104BC000A59873988091020188608093020180917A
:104BD00002018061809302018091020180628093D2
:104BE000020180910201806480930201809154024D
:104BF00090915502892B09F453C000E020E04FEF5B
:104C000060E084E00E947B1D60932604709327047B
:104C10008093280420E04FEF60E084E00E947B1D39
:104C20006093290470932A0480932B04809154028A
:104C3000909155020197D9F180915D198823B9F1BE
:104C400020E04C2F6D2F84E00E947B1D60932C048C
:104C500070932D0480932E0420E04C2F6D2F84E060
:104C60000E947B1D60932F04709330048093310465
:104C700020E04C2F6D2F84E00E947B1D6093320456
:104C8000709333048093340420E04C2F6D2F84E024
:104C90000E947B1D60933504709336048093370423
:104CA000DF91CF911F910F91FF90EF90089500E059
:104CB00020E04C2F6DE084E00E947B1D60932C046B
:104CC00070932D0480932E0420E04C2F6DE084E03F
:104CD0000E947B1D60932F047093300480933104F5
:104CE00020E04C2F5FCFA59A739A809102018860D3
:104CF0008093020180910201806180930201809182
:104D0000020180628093020180910201806480939D
:104D100002018091540290915502009709F2019787
:104D200009F423CE80915D1910E0882309F41DCE8B
:104D3000812F90E02091E6022150330B82179307D8
:104D40000CF0AECF7C01EE0CFF1CE80EF91EC70183
:104D50008A5D9B4F7C0100E020E04C2F6D2F84E0AA
:104D60000E947B1DF7016083718382831F5FE0CF08
:104D7000A59A739A809102018860809302018091C4
:104D80000201806180930201809102018F7D8093F6
:104D90000201809102018F7B809302018091540275
:104DA00090915502009709F47BCF00E020E04C2F52
:104DB000019709F442C080915D198823F1F16D2FAC
:104DC00084E00E947B1D60932604709327048093E7
:104DD000280420E04C2F6D2F84E00E947B1D6093FF
:104DE000290470932A0480932B0420E04C2F6D2F0C
:104DF00084E00E947B1D60932C0470932D048093AB
:104E00002E0420E04C2F6D2F84E00E947B1D6093C8
:104E10002F04709330048093310420E04FEF60E062
:104E200084E00E947B1D609332047093330480936E
:104E3000340420E04FEF60E02ACF65E084E00E9478
:104E40007B1D60932604709327048093280420E040
:104E50004C2F65E084E00E947B1D609329047093D1
:104E60002A0480932B0420E04C2F6DE084E00E9404
:104E70007B1D60932C0470932D0480932E0420E0FE
:104E80004C2F6DE0C1CFA59A739A80910201877F64
:104E900080930201809102018F7E809302018091B4
:104EA00002018F7D80930201809102018F7B8093AC
:104EB00002018091540290915502009709F4F0CEBE
:104EC00000E020E04C2F019751F180915D1988237B
:104ED00031F16D2F84E00E947B1D60932604709356
:104EE00027048093280420E04C2F6D2F84E00E943B
:104EF0007B1D6093290470932A0480932B0420E087
:104F00004FEF60E084E00E947B1D60932C0470935F
:104F10002D0480932E0420E04FEF60E075CF65E014
:104F200084E00E947B1D6093260470932704809385
:104F3000280420E04C2F65E0D9CFA5987398809184
:104F40000201877F80930201809102018F7E80930E
:104F50000201809102018F7D809302018091020104
:104F60008F7B809302018091540290915502892B8E
:104F700009F496CE10E0812F90E02091E6022150B6
:104F8000330B821793070CF08BCEEC01CC0FDD1F97
:104F9000C80FD91FCA5DDB4F00E020E04FEF60E093
:104FA00084E00E947B1D688379838A831F5FE3CF3F
:104FB000EF92FF920F93CF93DF9310929406D0E07D
:104FC000C0E07E01EE0CFF1CEC0EFD1EC7018153FC
:104FD0009A4F7C0100E020E04FEF60E080E00E940B
:104FE0007B1DF7016083718382832196C733D105CE
:104FF00041F7F090101180910F118F15A8F08F2DAF
:1050000090E0EC01CC0FDD1FC80FD91FCA5DDB4F4C
:1050100000E020E04FEF60E082E00E947B1D6883AB
:1050200079838A83F394E7CFDF91CF910F91FF903B
:10503000EF9008950F931F93CF93DF93A5987398E4
:1050400080910201877F80930201809102018F7E0F
:1050500080930201809102018F7D809302018091F3
:1050600002018F7B8093020180912F02882311F02F
:105070002C982D981092EF03809154029091550234
:10508000892BD1F180912F0210E081111CC0812F5A
:1050900090E02091E6022150330B8217930764F5CC
:1050A000EC01CC0FDD1FC80FD91FCA5DDB4F00E03C
:1050B00020E04FEF60E082E00E947B1D68837983EF
:1050C0008A831F5FE4CF8091E6028117A8F0812FC9
:1050D00090E0EC01CC0FDD1FC80FD91FCA5DDB4F7C
:1050E00000E020E04FEF60E082E00E947B1D6883DB
:1050F00079838A831F5FE7CFDF91CF911F910F9153
:105100000895EF920F931F93CF93DF9383E091E184
:105110000E946F5C882309F46FC180912F02811176
:10512000DEC00E945F0C90911C04882309F497C094
:1051300080919506811193C08091960681118FC050
:105140008091970681118BC080918C06811187C058
:105150008091FC0F811183C091113EC08091220487
:10516000882309F48EC08AEB91E00E945815EE2442
:10517000E39400ED17E021E04091010F61E08AEB3C
:1051800091E00E94AF150E94B18781E080931C04DA
:1051900080918A06882301F140915702509158026C
:1051A00070E060E088EB9FE00E949F5C80911C04AF
:1051B000811112C00E945F0C882309F47BC080918A
:1051C0009706811109C080919506811105C08091D3
:1051D0008C06882309F46EC00E941A2800910102EF
:1051E000109102026091450270E0C8010E9489C8D6
:1051F000EB0180915C198250823008F4D7C08CECAE
:105200009FE00E94295C2091CF02672B682B692BBD
:1052100009F4BFC0222309F4ACC0C0910102D091AF
:10522000020287E099E10E942F55C45DDE4FC81B42
:10523000D90B80919506882331F0C0910102D0915D
:105240000202CC0FDD1FAE0170E060E083E091E16F
:10525000DF91CF911F910F91EF900C949F5C992358
:1052600009F4A8CF8EE491E00E94581589EB91E0F3
:105270000E9458158AEB91E00E94581510921C0468
:1052800095CF89EB91E00E945815EE24E39410E04D
:1052900000E020E04091010F60E08EE491E00E9488
:1052A000AF150CEF18E021E04091010F61E089EBB0
:1052B00091E067CF8091EF0390919506992359F083
:1052C000882329F01092EF030E94712487CF81E098
:1052D0008093EF03F9CF8730A8F78F5FF9CF0E9453
:1052E0001A2880911C04882309F478CF80918A06BB
:1052F000882351F180919506811126C080919606F0
:10530000811122C08091970681111EC080918C0668
:1053100081111AC085E991E00E945815EE24E394AA
:1053200010E000E020E04091010F61E085E991E0AC
:105330000E94AF15409157025091580270E060E012
:1053400088EB9FE00E949F5C8EE491E00E945815DC
:1053500089EB91E00E9458158AEB91E00E94581564
:1053600010921C040E94E00E8AED90E00E94745E90
:1053700035CF80919706882309F45BCF87E099E1C8
:105380000E942F55C0910102D0910202C80FD91F6F
:1053900050CF222371F3C0910102D091020287E025
:1053A00099E10E942F55CA56DF4F41CF8091CF021D
:1053B000882381F087E099E10E942F5540910102F6
:1053C000509102022091CA023091CB02421B530B32
:1053D000EA01DCCF80919706882309F42ACF87E081
:1053E00099E10E942F55EC01C80166E070E00E942F
:1053F00089C8C60FD71F1DCFDF91CF911F910F9185
:10540000EF9008950F931F93CF93DF9310E0809157
:10541000E9021817A8F4812F90E0EC01CC0FDD1FF2
:10542000C80FD91FC153DA4F00E020E04FEF60E012
:1054300080E00E947B1D688379838A831F5FE7CFAA
:1054400010928B06DF91CF911F910F910895EF92EB
:105450000F931F93CF93DF9383E499E10E946F5CD6
:10546000882309F451C1C0918B068C2F0C2E000C9F
:10547000990B2091E9022817190611F00CF06AC067
:105480000E94022A10928B06D0E0C0E0809196061E
:10549000811118C080919706811114C08091CF02AC
:1054A000811110C08091950681110CC080915C190A
:1054B000853021F480918C06811104C00E945F0C1C
:1054C000882351F080918906882331F080E691E0AD
:1054D0000E944B151092890640914D19042F10E03F
:1054E0009091CF0280915C198250823008F09BC06D
:1054F000911104C080919706882361F087E099E1BB
:105500000E942F552091CA023091CB02021B130B2F
:10551000080F191F80919506882339F085E09801BE
:10552000829F8001839F100D112480914402AE015F
:10553000400F511F823058F0843009F4BEC008F08B
:105540007EC0823009F48EC0833009F4A3C090E09D
:1055500080E093C080915C198530D9F50E945F0C82
:10556000811139C080918C06811135C08091CF02A4
:10557000811131C08091970681112DC080918F06D5
:10558000811129C080919506811125C080919606D0
:10559000811121C08091890681111DC0C1111BC0DC
:1055A00080918A06882321F08091C00F882399F08A
:1055B0004091010F4451EE24E39408E715E021E007
:1055C00061E080E691E00E94AF1581E0809389065A
:1055D00002C0843059F280919005811155CF80919D
:1055E0008B060E94182480918B068F5F80938B0618
:1055F00090915C199450923008F046CF90919506A6
:10560000911142CF082E000C990B2091E902281726
:10561000190611F00CF038CF80914D19CDE4D1E08E
:10562000C81BD10933CF911105C0809197068823FB
:1056300009F470CF87E099E10E942F5569CF85303A
:1056400009F44EC0863009F082CF80915C198450F5
:10565000823008F442C0CA014333510570F082E33E
:1056600090E00BC080915C1984508230C0F4CA0174
:105670004630510510F085E090E0481B590B70E072
:1056800060E083E499E1DF91CF911F910F91EF905A
:105690000C949F5C80915C198450823038F4CA016C
:1056A0004B30510550F38AE090E0E7CFCA01453115
:1056B000510518F384E190E0E0CF80915C198450AB
:1056C000823038F4CA0140315105B8F28FE090E0E1
:1056D000D4CFCA014F31510580F28EE190E0CDCF99
:1056E00080915C198450823038F4CA014A315105E6
:1056F00020F289E190E0C1CFCA014932510508F496
:10570000BCCF88E290E0B9CFDF91CF911F910F918C
:10571000EF9008950F931F93CF93DF93809193069B
:10572000811125C010E08091E8021817D0F4C091D3
:1057300042192C2F210F3327331FC901E901CC0F48
:10574000DD1FC80FD91FC153DA4F00E020E04FEF33
:1057500060E081E00E947B1D688379838A831F5FFC
:10576000E2CFDF91CF911F910F910C94AA0CDF91A2
:10577000CF911F910F910895EF92FF920F93CF93C6
:10578000DF93F82E60915D1985E00E94975DD82F18
:10579000F092CD05C0915819FF2009F457C08091AF
:1057A0002F02882309F452C080918F06882341F08C
:1057B000E0916019F0E0EB5DFF4E9081911104C023
:1057C00090919606992371F080915D19811120C006
:1057D00080916019D3E08230D9F0A0F4813081F05B
:1057E000D1E016C0882341F0E0916019F0E0EB5D54
:1057F000FF4E8081882341F180919506882341F0F6
:10580000D5E006C0DDE0833019F0D3E1843041F704
:1058100080915919C817B0F58C2F90E07C01EE0CDF
:10582000FF1CE80EF91EC70181539A4F7C0100E06E
:1058300020E04FEF6D2F85E00E947B1DF701608314
:1058400071838283CF5FE4CFD0E0E2CF809159199A
:10585000C817C0F48C2F90E07C01EE0CFF1CE80E02
:10586000F91EC70181539A4F7C0100E020E04FEF01
:1058700060E085E00E947B1DF70160837183828375
:10588000CF5FE4CFDF91CF910F91FF90EF9008951C
:105890000F931F93CF93DF93809125048823D9F032
:1058A00010910E1180910D118117A8F0812F90E0B9
:1058B000EC01CC0FDD1FC80FD91FCA5DDB4F00E024
:1058C00020E04FEF60E083E00E947B1D68837983D6
:1058D0008A831F5FE7CFDF91CF911F910F910895CA
:1058E000EF920F931F9380918F06882321F00E94DF
:1058F0003E1B0E94667580915C198330A1F1853052
:1059000009F443C08230B1F58CE791E00E9458154C
:105910008BE791E00E945815EE24E39410E000E03C
:1059200020E04091010F60E082E090E00E94AF151E
:1059300080915C19833009F044C020E04091010F50
:1059400060E087E290E00E94AF1580915D1982309F
:1059500009F442C0833009F472C0813009F040C0BC
:1059600087E390E03BC085E290E00E94581586E214
:1059700090E0D0CF81E090E00E9458158FE090E059
:105980000E94581580E190E0C5CF81E090E00E9430
:10599000581585E991E00E94581580911C048823D0
:1059A00009F4BACF8EE491E00E94581589EB91E09A
:1059B0000E9458158AEB91E00E94581510921C0421
:1059C000ABCFEE24E39410E000E020E04091010F23
:1059D00060E083E290E0B7CF82E390E00E94581548
:1059E0008091960681111CC0EE24E39410E000E043
:1059F00020E04091010F61E08BE490E00E94AF1540
:105A000020E04091010F61E08EE790E00E94AF1529
:105A100020E04091010F60E08FE790E00E94AF1519
:105A200080912F02811102C00E94482C809165193B
:105A3000853041F41F910F91EF900C94050A87E493
:105A400091E0CCCF1F910F91EF9008950F931F938A
:105A5000CF93DF931091101180910F118117A8F04F
:105A6000812F90E0EC01CC0FDD1FC80FD91FCA5D5C
:105A7000DB4F00E020E04FEF60E082E00E947B1D02
:105A8000688379838A831F5FE7CFDF91CF911F916E
:105A90000F91089580E00E94BC2B80E00E94E509F0
:105AA00010923519109236190E948A2B8091D602D5
:105AB000882351F0809142198093411980911011EF
:105AC0008093190410921A0480919B0690919C0671
:105AD000009739F420910302211103C021E02093A3
