:100000000C9446080C9477080C9477080C947708A5
:100010000C9477080C9477080C9477080C94770864
:100020000C9477080C9477080C9477080C94770854
:100030000C9477080C9477080C9477080C94770844
:100040000C9477080C9477080C9477080C94770834
:100050000C9477080C9477080C9477080C94678CB0
:100060000C9477080C94BE100C9494100C947708A0
:100070000C9477080C9477080C9477080C94770804
:100080000C9477080C9477080C9477080C947708F4
:100090000C946A100C9440100C9477080C94E7218F
:1000A0000C9477080C9477080C9477080C947708D4
:1000B0000C9477080C9477080C9477080C947708C4
:1000C0000C9477080C9477080C9477080C9416100D
:1000D0000C94EC0F0C9477080C94C20F0C94980FAE
:1000E0000C94770805A84CCDB2D44EB93836A90285
:1000F0000C50B9918688083CA6AAAA2ABE00000026
:10010000803F07634236B79BD8A71A39685618AEA6
:10011000BAAB558C1D3CB7CC5763BD6DEDFD753E3C
:10012000F6177231BF000000803F08000000BE9249
:100130002449123EABAAAA2ABECDCCCC4C3E00002C
:100140000080BEABAAAAAA3E00000000BF000000CB
:10015000803F0000000000084178D3BB4387D113E3
:100160003D190E3CC3BD4282AD2B3E68EC8276BE8B
:10017000D98FE1A93E4C80EFFFBE01C4FF7F3F0055
:10018000000000000C94C4800C94F78D0C94CFAC4C
:100190000C9430960C946D940C94F60C0C94CC94B6
:1001A0000C947E9D0C9461170C9402800C94E20BCD
:1001B0000C94B87F0C943D0B0C9449880C945E0B06
:1001C0000C94FF970C9444810C9400990C94937FA9
:1001D0000C94BC7F0C94BA940C94EDA30C94AE0DCB
:1001E0000C94EA980C941D520C942D6D0C94D7A984
:1001F0000C94F49C0C9441A70C9448AC0C94E487A8
:100200000C94BEB00C94B3AE0C94AF9A0C941DA495
:100210000C94CDAE0C94521A0C9489A30C94F00853
:100220000C9472AD0C9420800C941C880C9499AEA4
:100230000C9455800C944F800C94AB240C94801932
:100240000C9467810C94AF9E0C94501A0C94016E20
:100250000C9465AE0C94D69C0C9422B30C94BAB159
:100260000C94929A0C94CE800C948DAB0C949D7F40
:100270000C94E7AD0C94FBB10C9407B00C9403A460
:100280000C9451190C9437980C94EE870C94882494
:100290000C9492A60C94A17F0C947BA30C94A20BBB
:1002A0000C948DA30C940B1A0C94289F0C94B0A55D
:1002B0000C94260B0C9402880C94F9180C949295CB
:1002C0000C94F1A20C944FB00C941D190C9439B2FB
:1002D0000C9453880C94E59C0C946D0B0C945780F3
:1002E0000C94DA9A0C9498C10C944E1A0C94E2086F
:1002F0000C9419800C94DCB10C947C950C942C0E0D
:100300000C948A240C9470A60C94740B0C94F380B7
:100310000C9458960C9450A50C9446960C949B986B
:100320000C94230D0C94029F0C94CF950C9413976E
:100330000C9447810C943F880C94A7240C94B9B278
:100340000C9477AF0C94210B0C94FB180C9481A2A5
:100350000C94997F0C94B0950C9422800C9482811B
:100360000C94A4950C946F980C94D87F0C942DA4A5
:100370000C94C79B0C94E2A80C94C9AD0C940A8011
:100380000C941E960C94C00C0C9489970C94FF1737
:100390000C9419A40C9444A20C9431AB0C9496A127
:1003A0000C941BAE0C9405AE0C94C9980C94E4B25A
:1003B0000C9440A60C94F36C0C94DF870C9475ACF1
:1003C0000C944BAE0C9433AF0C94880B0C94CD0D65
:1003D0000C946F0B0C9415810C947FAE0C9411AFA0
:1003E0000C94F99C0C944C9B0C9439AD0C94EFA19B
:1003F0000C94CD0B0C940A190C94CC510C94D48011
:100400000C94CBA30C94CE7F0C94318E0C94C99792
:100410000C9423940C94AA950C9479810C94139CBD
:100420000C94830B0C940D520C943C9C0C94DBB2FA
:100430000C94DC9E0C9421A40C9430880C940480C1
:100440000C94970B0C9408960C9496A50C94AE52B1
:100450000C94B27F0C94950B0C94AF9D0C949981E5
:100460000C948B810C944B1A0C94AE7F0C94C29517
:100470000C94B2800C94A87F0C9452800C94C29679
:100480000C94BE800C9481240C94AD240C947CA517
:100490000C94789E0C9471A30C9479080C943B9E58
:1004A0000C948A960C94D8090C9472B10C9467B190
:1004B0000C94BBAB0C949AB20C9477B20C94008061
:1004C0000C941B9C0C94CE080C94DEA40C94B81ACB
:1004D0000C9416800C9421810C94C07F0C94D37FD3
:1004E0000C94ABAD0C9494C10C940A880C94291C08
:1004F0000C9465940C94FA180C94189E0C947694B1
:100500000C94B69E0C9403AB0C9467880C94820CEC
:100510000C94E7A70C9439940C94BBAA0C94EFAEFE
:100520000C9408800C94176F0C941AB20C94BAB007
:100530000C9406800C94AC9A0C94859A0C94A00EA2
:100540000C9480950C9426880C941C800C94D8876D
:100550000C9455AF0C9497A80C94A2AC0C941A521E
:100560000C94FE800C94F8180C94D19C0C944609C1
:100570000C9448AA0C949DAA0C94C9A80C94F19DC3
:100580000C943D170C94EF9C0C94811E0C9492815A
:100590000C94810B0C94B60B0C94D29D0C943E9D44
:1005A0000C948E6D0C9493090C94259C0C94F3512F
:1005B0000C9458B20C94A4A60C9425800C945D94D1
:1005C0000C941E800C949DA90C94620C0C94BF0892
:1005D0000C9485A30C94AB520C9455990C9480A662
:1005E0000C9431990C94ADA30C945D9A0C946A17F9
:1005F0000C9429800C94369B0C94B2520C94299D37
:100600000C94EA9C0C94CD930C94B29A0C94E495BF
:100610000C94BC980C945F810C9400520C94B51708
:100620000C945FAB0C94E8800C9486240C94BFAFC0
:100630000C94B0A80C9478950C9449970C9458A6F7
:100640000C94E09C0C94F8870C940C800C94BEA441
:100650000C9427800C94FE9C0C94A8520C94E9AB4B
:100660000C94FAB00C9403B30C94A57F0C940981FC
:100670000C947C960C94D47F0C94FF7F0C94930D77
:100680000C9473980C9412880C9414800C946A96B1
:100690000C94CAA50C94390C0C9448B10C94179C7A
:1006A0000C9498170C9455170C9451990C94B8808D
:1006B0000C944C800C9410800C942C990C94DB9C22
:1006C0000C945D880C9431AE0C949FA40C946381BF
:1006D0000C9471880C94CA7F0C94F6950C944A8003
:1006E0000C947FAA0C941F0E0C941BAC0C94039DCD
:1006F0000C944C0B0C9424190C947EA80C9425A6F5
:100700000C9412800C94F6930C94436E0C94C67F58
:100710000C94B6B00C949F9A0C94C36E0C94559C98
:100720000C94F10B0C94E8B00C941F994552524F65
:10073000523A204E6F2063616C6C6261636B206182
:100740007661696C61626C6520666F7220706163AE
:100750006B65742049442000000000006410B71D40
:10076000C8206E3BAC30D9269041DC76F4516B6BDF
:100770005861B24D3C7105502083B8ED44930FF0A1
:10078000E8A3D6D68CB361CBB0C2649BD4D2D38657
:1007900078E20AA01CF2BDBD57616E642053796EE9
:1007A0006368726F6E697A65640057616E64207069
:1007B000726F746F636F6C206D69736D61746368C1
:1007C000210057616E642070726F746F636F6C20CC
:1007D0006D69736D617463682100526563762E20C4
:1007E00057616E6420536D6F6B6520507265667340
:1007F00000526563762E2057616E6420436F6E66EB
:10080000696720507265667300526563762E2057C3
:10081000616E6420446174613A2000526563762EF3
:100820002057616E6420436F6D6D616E643A2000E5
:10083000207C20436F6E6E2E2053746174653A20C5
:100840000057616E642053796E63696E67207C2067
:10085000436F6E6E2E2053746174653A20005761A9
:100860006E6420446973636F6E6E656374656420A3
:100870007C20436F6E6E2E2053746174653A2000A5
:10088000417474656E7561746F722053796E63691B
:100890006E67207C20436F6E6E2E205374617465EA
:1008A0003A2000417474656E7561746F72204469FA
:1008B00073636F6E6E6563746564207C20436F6E36
:1008C0006E2E2053746174653A2000536176696E10
:1008D0006720536D6F6B6520507265666572656E3B
:1008E00063657300536176696E672057616E64209B
:1008F000507265666572656E6365730052656376F6
:100900002E20536D6F6B6520436F6E6669670052D2
:100910006563762E2057616E6420436F6E6669674B
:1009200000526563762E205061636B20436F6E66C4
:10093000696700526563762E20417474656E756137
:10094000746F72204D6573736167653A200052655C
:1009500063762E204174742E20436F6D6D616E643A
:100960003A2000207C20436F6E6E2E2053746174F9
:10097000653A2000000102030405060708090A0B76
:100980000C0D0E000102030405060708090A0B0CF2
:100990000E0D0C0B0A090807060504030201000CE2
:1009A0000B0A09080706050403020100B80BB80B7F
:1009B000AC0DAC0DA00F3075983A10274C1D701778
:1009C0003D006401650166016701417474656E75DF
:1009D00061746F722053796E6320456E64004174B8
:1009E00074656E7561746F722053796E63205374F1
:1009F000617274207C20436F6E6E2E20537461747C
:100A0000653A20005468656D65206368616E6765AE
:100A10006420746F2046726F7A656E20456D706930
:100A2000726520283230323429005468656D6520A3
:100A30006368616E67656420746F204166746572D7
:100A40006C69666520283230323129005468656D42
:100A500065206368616E67656420746F2047423269
:100A600020283139383929005468656D652063685C
:100A7000616E67656420746F2047423120283139E8
:100A800038342900417474656E7561746F72205337
:100A9000796E6368726F6E697A6564207C20436F3B
:100AA0006E6E2E2053746174653A20004174746533
:100AB0006E7561746F722070726F746F636F6C20EB
:100AC0006D69736D6174636821207C205265636574
:100AD000697665643A2000207C20457870656374EF
:100AE00065643A2000417474656E7561746F72209C
:100AF00070726F746F636F6C206D69736D61746376
:100B00006821207C2052656365697665643A20001F
:100B1000207C2045787065637465643A20004765E1
:100B20007474696E67205061636B205072656665EE
:100B300072656E6365730047657474696E672053F0
:100B40006D6F6B6520507265666572656E63657367
:100B500000436F6D706C65746564207570646174BA
:100B600065206F66207061636B2073657474696EB5
:100B700067730052756E6E696E672075706461747C
:100B8000652066756E6374696F6E732E2E2E005528
:100B900070646174696E6720706F77657220636539
:100BA0006C6C207661726961626C65732E2E2E000A
:100BB0005570646174696E6720696E6E657220633A
:100BC00079636C6F74726F6E207661726961626CAA
:100BD00065732E2E2E005570646174696E67206FE8
:100BE00075746572206379636C6F74726F6E2076B2
:100BF00061726961626C65732E2E2E00557064619E
:100C000074696E672067656E6572616C20766172CB
:100C10006961626C65732E2E2E00536176696E6772
:100C2000205061636B20507265666572656E636506
:100C3000730057616E642053796E6320456E6400C3
:100C400057616E642053796E63205374617274002F
:100C50004E6F20417564696F204465766963650055
:100C60005761726E696E673A205253505F53595301
:100C700054454D5F494E464F206E6F742072656338
:100C8000656976656421005573696E672057415622
:100C90002054726967676572005573696E672047F3
:100CA000505374617220417564696F205665727388
:100CB000696F6E3A2000C4D5DFE5E9ECEFF1F3F49B
:100CC000F6F7F8F9FAFBFCFDFEFF00436F6E66696C
:100CD0006775726520506F776572204D6574657217
:100CE00000556E61626C6520746F2066696E6420C9
:100CF000706F776572206D6F6E69746F72696E6761
:100D000020646576696365206F6E206932632E20EA
:100D1000506F776572206D657465722066656174C9
:100D2000757265732077696C6C20626520646973E5
:100D300061626C65642E00506F776572204D65743A
:100D4000657220526573756C743A2000496E69743F
:100D500020706F776572206D657465722E2E2E007F
:100D6000C4DFE9EFF3F6F9FBFDFE00010203040521
:100D7000060708090A32002D280023001E0000196A
:100D80000000140000000F00000000000A00000036
:100D900000000000000005645F5A55504B46413C7E
:100DA0003732002D280023001E0000190000140017
:100DB00000000F00000000000A000000000000001A
:100DC00000000532373C41464B50555A5F6457612D
:100DD000726E696E673A2043616C63756C6174650D
:100DE00064206D7573696320636F756E7420657818
:100DF0006365656473206D6178696D756D20706FD2
:100E0000737369626C653B20534420636172642094
:100E1000636F7272757074696F6E206C696B656C4C
:100E20007921005761726E696E673A20547261636E
:100E30006B20636F756E7420646F6573206E6F74C2
:100E4000206D61746368206669726D7761726521D7
:100E500020506C65617365207570646174652074E1
:100E60006865206D6963726F53442063617264200A
:100E7000736F756E6420656666656374732E00011A
:100E800002030405060708090A0B0C0D0E0F1011CA
:100E900012131415161718191A1B1C1D1E1F2021BA
:100EA0002223242526272801020304050607080912
:100EB000000A0B0C0D0E0F1011120013141516174B
:100EC00018191A1B001C1D1E1F202122232400019B
:100ED000020304050000000000060708090A0000DC
:100EE0000000000B0C0D0E0F00000000001011128E
:100EF00013140000000000010203000000000000C5
:100F000000040506000000000000000708090000BA
:100F100000000000000A0B0C0000000000000001AF
:100F200000000000000000000002000000000000BF
:100F300000000003000000000000000000040000AA
:100F400000000000000000001C120A041F160D0221
:100F5000110C07010A0704000A121C040D161F02D7
:100F6000070C110104070A00002100240027002AB1
:100F7000002D003000330001010000040107010AC8
:100F80000100002200250028002B002E0031003433
:100F90000002010000050108010B010000200023F0
:100FA00000260029002C002F003200000100000361
:100FB00001060109010505050507050808080802DD
:100FC0000202020A0A0808040404040101010101E2
:100FD0000101010303030303030303040707070CD1
:100FE0000C0C0C0C0C0C0C02020202060606060687
:100FF0000606060B0B0B0B0B0B0B0B010210202034
:10100000080810204010204080020102010804025C
:1010100001010204081020408080402010080402D2
:10102000018004020180402010080402010804022B
:101030000101020408102040800102040810204031
:101040008000000A0B02090C0D0E080703040100C2
:101050000000000000000000000000000000000090
:10106000000000000000000000000000001211104D
:101070000000000000000000000000000000000070
:10108000000000000000000098C194C111241FBEA0
:10109000CFEFD1E2DEBFCDBF00E00CBF13E0A0E098
:1010A000B2E0E2EFFDE901E00BBF02C007900D9254
:1010B000A035B107D9F729E1A0E5B3E001C01D9241
:1010C000A137B207E1F718E0C5E4D8E000E006C0B8
:1010D00021970109802FFE010E9451C9C434D10714
:1010E00080E00807A9F70E94B78C0C94E7CE0C9417
:1010F0000000AF92BF92CF92DF92EF92FF920F93D8
:101100001F93CF93DF936C017B018B01040F151F9D
:10111000EB015E01AE18BF08C017D10759F0699105
:10112000D601ED91FC910190F081E02DC601199559
:10113000892B79F7C501DF91CF911F910F91FF9016
:10114000EF90DF90CF90BF90AF900895FC01A08901
:10115000B1898C91A689B78982FD0FC09C91818D40
:101160008F5F8F73228D821749F0A18DAE0FBF2F35
:10117000B11D5D969C93818F08958C910895FC011B
:10118000538D448D252F30E0842F90E0821B930BEC
:10119000541710F0CF96089501970895FC01918D92
:1011A000828D981761F0A28DAE0FBF2FB11D5D9695
:1011B0008C91928D9F5F9F73928F90E008958FEF37
:1011C0009FEF0895FC01918D828D981731F0828DEB
:1011D000E80FF11D858D90E008958FEF9FEF089542
:1011E000FC01918D228D892F90E0805C9F4F821BA6
:1011F00091098F73992708958AE197E00E94F0087A
:1012000021E0892B09F420E0822F089587EB97E0F5
:101210000E94F00821E0892B09F420E0822F089534
:1012200084E598E00E94F00821E0892B09F420E091
:10123000822F089581EF98E00E94F00821E0892B29
:1012400009F420E0822F0895FC01A48DA80FB92F86
:10125000B11DA35ABF4F2C91848D90E001968F73DE
:101260009927848FA689B7892C93A089B1898C91FD
:10127000837080648C93938D848D981306C002884C
:10128000F389E02D80818F7D80830895EF92FF9216
:101290000F931F93CF93DF93EC0181E0888F9B8D99
:1012A0008C8D98131AC0E889F989808185FF15C053
:1012B0009FB7F894EE89FF896083E889F989808176
:1012C0008370806480839FBF81E090E0DF91CF9145
:1012D0001F910F91FF90EF900895F62E0B8D10E067
:1012E0000F5F1F4F0F731127E02E8C8D8E110CC0D6
:1012F0000FB607FCFACFE889F989808185FFF5CF21
:10130000CE010E942409F1CFEB8DEC0FFD2FF11DD2
:10131000E35AFF4FF0829FB7F8940B8FEA89FB895D
:1013200080818062CFCFCF93DF93EC01888D8823BB
:10133000B9F0AA89BB89E889F9898C9185FD03C038
:10134000808186FD0DC00FB607FCF7CF8C9185FF1D
:10135000F2CF808185FFEDCFCE010E942409E9CF35
:10136000DF91CF91089580E090E0892B29F00E94D1
:101370001A0981110E94000080E090E0892B29F079
:101380000E94100981110E94000080E090E0892BEA
:1013900029F00E94060981110E94000080E090E07F
:1013A000892B29F00E94FC0881110C9400000895FB
:1013B0000E94D2CEFB0101900020E9F73197AF01E6
:1013C000461B570BDC01ED91FC910280F381E02D6F
:1013D00019948F929F92AF92BF92EF92FF920F93C8
:1013E0001F93CF93DF93CDB7DEB7A1970FB6F894D5
:1013F000DEBF0FBECDBF7C01FA01CB0119A22230A6
:1014000008F42AE08E010F5D1F4F822E912CB12C23
:10141000A12CBF01A50194010E94DCC8F901CA01F9
:101420006A300CF5605DD8016E938D01232B242B5F
:10143000252B79F790E080E0109721F0BD01C701DE
:101440000E94DA09A1960FB6F894DEBF0FBECDBF99
:10145000DF91CF911F910F91FF90EF90BF90AF90D0
:101460009F908F900895695CDECF0F931F93CF9369
:10147000DF93EC010E94DA098C0164EE72E0CE0188
:101480000E94DA09800F911FDF91CF911F910F9178
:1014900008950F931F93CF93DF93EC018881998177
:1014A000009759F02A813B812617370730F081E0F9
:1014B000DF91CF911F910F9108958B016F5F7F4F47
:1014C0000E94F1CD009759F0998388831B830A838A
:1014D0002C813D81232B59F7FC011082E8CF80E05D
:1014E000E7CFCF93DF93EC0188819981009711F0CA
:1014F0000E9468CD198218821D821C821B821A826A
:10150000DF91CF9108958F929F92AF92BF92CF9229
:10151000DF92EF92FF92CF93C42F9B01AC010E9408
:1015200088C96B017C016C2F70E090E080E00E9424
:1015300075C74B015C0120E030E040E85FE3C70184
:10154000B6010E9470C787FF16C0A5019401C701AC
:10155000B6010E94DECA20E030E040E05FE30E9476
:10156000D6C7CF91FF90EF90DF90CF90BF90AF9014
:101570009F908F900895A701960160E070E080E051
:1015800090E40E9487C9A50194010E94DECA9F775A
:1015900020E030E040E05FE30E94D6C79B01AC0151
:1015A00060E070E080E89FE30E9487C9DACF8F9205
:1015B0009F92AF92BF92CF92DF92EF92FF92CF9322
:1015C000DF936B017C01EA0120E030E0A9010E9479
:1015D00070C7882309F469C120E030E040E85FE388
:1015E000C701B6010E9470C7882309F45EC1FE01DD
:1015F0003297EE31F10508F058C18827ED5FF44FBE
:101600008F4F0C9451C9210B260B3D0B4C0B5E0BDD
:101610006D0B6F0B740B810B830B880B950B970B6A
:10162000A20BB60BCD0BE20BF10B390C620C820C4A
:10163000C00CF60C230D930DAE0DCD0D1F0E2C0E10
:10164000A00EA7019601C701B601A4C0A70196018B
:1016500060E070E080E89FE30E9487C99B01AC01D5
:101660000E94D6C79B01AC0160E070E080E89FE378
:101670000E9487C96B017C0118C142E0C701B60115
:10168000DF91CF91FF90EF90DF90CF90BF90AF9020
:101690009F908F900C94830A20E030E040E450E467
:1016A000C701B601DF91CF91FF90EF90DF90CF900F
:1016B000BF90AF909F908F900C94DECAA7019601C7
:1016C00060E070E080E89FE30E9487C920E030E09E
:1016D00040E450E40E94DECAC5CF43E0CFCF20E013
:1016E00030E040E850E4DCCFA701960160E070E014
:1016F00080E89FE30E9487C920E030E040E850E4A2
:10170000E9CF44E0BBCF20E030E040EA50E4C8CF6E
:10171000A701960160E070E080E89FE30E9487C91E
:1017200020E030E040EA50E4D5CF45E0A7CF2BEDF4
:101730003FE049EC5FE3C701B6010E94D6C70E94B3
:10174000F4C990CF2BED3FE049EC5FE3C701B60150
:101750000E94D6C7DF91CF91FF90EF90DF90CF909E
:10176000BF90AF909F908F900C942ECB2BED3FE0CD
:1017700049E450E4C701B6010E94D6C70E94F4C9EB
:1017800020E030E040E85FE30E9487C920E030E0DD
:1017900040E05FEB0E94D6C76DCF20E030E040E82C
:1017A0005FE3C701B6010E9487C920E030E040E254
:1017B00051E40E94D6C79B01AC0160E070E080E07C
:1017C00090E470CF20E030E040E251ECC701B60178
:1017D0000E94D6C79B01AC0160E070E080E090E41D
:1017E00079CFA7019601C701B6010E9488C94B01B4
:1017F0005C0120E030E040E85FE30E9487C96B01B4
:101800007C0120E030E040E85FE3C501B4010E94C4
:1018100070C787FF15C020E030E040E251E4C70107
:10182000B6010E94D6C79B01AC0160E070E080E089
:1018300090E40E94DECA20E030E040E05FE3AACFFF
:1018400020E030E040E251ECC701B6010E94D6C76B
:101850009B01AC0160E070E080E090E40E94DECA91
:101860009B01AC0160E070E080E090E40E9487C9D9
:10187000E2CFA7019601C701B6010E94D6C79B011E
:10188000AC0160E070E080E89FE30E9487C90E949D
:101890003CCB20E030E040E85FE30E9487C96B0169
:1018A0007C01F7FAF094F7F8F094C701B601DF91E4
:1018B000CF91FF90EF90DF90CF90BF90AF909F902F
:1018C0008F90089520E030E040E85FE3C701B60163
:1018D0000E9487C99B01AC010E94D6C79B01AC0145
:1018E00060E070E080E89FE30E9487C9DF91CF91BC
:1018F000FF90EF90DF90CF90BF90AF909F908F9030
:101900000C943CCBA7019601C701B6010E9488C97F
:101910006B017C0120E030E040E85FE30E9470C78B
:1019200087FF11C0A7019601C701B6010E94D6C763
:101930009B01AC0160E070E080E89FE30E9487C9F2
:101940000E943CCB1DCF20E030E040E050E4C701D6
:10195000B6010E9487C99B01AC010E94D6C79B01BA
:10196000AC0160E070E080E89FE30E9487C90E94BC
:101970003CCB20E030E040E85FE30E9488C95BCFC9
:1019800020E030E040E85FE3C701B6010E9487C96C
:101990004B015C0120E030E040E251E40E94D6C7F8
:1019A0009B01AC0160E070E080E090E40E94DECA40
:1019B0006B017C0127E636E646EE5DE3C501B40126
:1019C0000E9487C92BED3FE049EC50E40E94D6C746
:1019D00027E636E646EE5EE30E94F9C90E942ECB6A
:1019E0009B01AC01C701B6019058D4CE20E030E095
:1019F00040E251ECC701B6010E94D6C79B01AC0181
:101A000060E070E080E090E40E94DECA4B015C017F
:101A10002AE939E949E95DE3C701B6010E9487C9AE
:101A20002BED3FE049EC50E40E94D6C72AE939E9A2
:101A300049E95EE30E94F9C90E942ECB9B01AC01EB
:101A4000C501B40167C0A7019601C701B6010E9494
:101A500088C920E030E040E85FE30E9487C96B015D
:101A60007C0127E636E646EE5DE30E9487C92BED52
:101A70003FE049EC50E40E94D6C727E636E646EE42
:101A80005EE30E94F9C90E942ECB4B015C0120E06D
:101A900030E040E85FE3C701B6010E9488C920E05A
:101AA00030E040E85FE30E9470C787FF19C020E084
:101AB00030E040E251E4C701B6010E94D6C79B0165
:101AC000AC0160E070E080E090E40E94DECA20E0BB
:101AD00030E040E05FEB0E94D6C7A50194015ACEEA
:101AE00020E030E040E251ECC701B6010E94D6C7C9
:101AF0009B01AC0160E070E080E090E40E94DECAEF
:101B00009B01AC01C501B4010E94D6C720E030E0C2
:101B100040E05FE30E94D6C720E030E040E85FE3AA
:101B20000E9488C9A7CD20EB36EE4CE250E4C701F5
:101B3000B6010E94D6C720E63DEC49ED5FE30E9466
:101B400087C94B015C01A7019601C701B6010E943C
:101B5000D6C79B01AC01C501B4011CCE20E030E02A
:101B600040E85FE3C701B6010E9487C96B017C01B1
:101B700020EB36EE4CE250E40E94D6C720E63DEC66
:101B800049ED5FE30E9488C94B015C01A701960102
:101B9000C701B6010E94D6C751CFA7019601C70160
:101BA000B6010E9488C96B017C0120E030E040E86A
:101BB0005FE30E9470C787FF1DC020E030E040E077
:101BC0005FE3C701B6010E94D6C7A70196010E9434
:101BD000D6C74B015C012FEF32E146E650E4C70166
:101BE000B6010E94D6C72FEF32E146E250E40E94D0
:101BF00087C9AFCF20E030E040E050E4C701B60134
:101C00000E9487C96B017C0120E030E040E05FE387
:101C10000E94D6C7A70196010E94D6C74B015C015E
:101C20002FEF32E146E650E4C701B6010E94D6C765
:101C30002FEF32E146E250E40E9488C9FFCEA701AF
:101C4000960160E070E080E89FE30E9487C94EE162
:101C500050E00E94D70A06CD2CE83EE24AEB5EE354
:101C6000C701B6010E9470C787FF0BC020E030E0BB
:101C700042EF50E4C701B6010E94D6C79B01AC01F8
:101C8000E2CC2CE83EE24AE35FE3C701B6010E94E2
:101C900070C787FF19C029EE32EA4BE05FE3C70146
:101CA000B6010E9487C96B017C0120E030E042EF61
:101CB00050E40E94D6C7A70196010E94D6C720E033
:101CC00030E040E45FE32CCF2FE23AEB48E65FE3FD
:101CD000C701B6010E9470C787FF19C02DE534E720
:101CE00041E55FE3C701B6010E9487C96B017C0132
:101CF00020E030E042EF50E40E94D6C7A7019601F1
:101D00000E94D6C720E030E040E75FE309CF27E13B
:101D10003DE544E75FE3C701B6010E9487C96B0157
:101D20007C0120E030E042EF50E40E94D6C7A701DA
:101D300096010E94D6C720E030E04CE75FE3F0CE8A
:101D4000A7019601C701B6010E9488C94B015C0139
:101D500020E030E040E05FE3C701B6010E9470C7B9
:101D600087FF07C04DE150E0C501B4010E94D70ACA
:101D700062CD20E030E040E85FE3C501B4010E949D
:101D800087C94EE150E00E94D70A20E030E040E0F1
:101D90005FE30E94D6C720E030E040E05FE3C0CEC2
:101DA000CF92DF92EF92FF926B017C01C114D104BC
:101DB000E104F10441F00E94D3C6A70196010E94FC
:101DC000AAC86B017C01C701B601FF90EF90DF90BC
:101DD000CF900895EF92FF920F931F93CF93DF93CD
:101DE000EC01FB01E080F180E114F10411F10481C8
:101DF000158101151105A9F08C819D81080F191F0E
:101E0000B801CE010E94490A882399F028813981BE
:101E10008C819D81B701820F931F0E94E0CE1D83AC
:101E20000C83CE01DF91CF911F910F91FF90EF9026
:101E30000895CE010E94710AF4CFEF92FF920F93A2
:101E40001F93CF93DF93EC017B018A01BA010E94BB
:101E5000490A81110BC0CE010E94710ACE01DF91A7
:101E6000CF911F910F91FF90EF9008951D830C83E8
:101E7000B701888199810E94E0CEF0CFFB010190EB
:101E80000020E9F73197AF01461B570B0C941D0F4B
:101E9000FC0180819181009711F00C9468CD089528
:101EA000EF92FF920F931F93CF93DF93EC018B017F
:101EB000198218821B821A821D821C82CB010E9409
:101EC00032C77C01BC01CE010E94490A811109C0C0
:101ED000CE01DF91CF911F910F91FF90EF900C9465
:101EE000710AFD82EC82B80188819981DF91CF91DE
:101EF0001F910F91FF90EF900C942BC7FB01DC0119
:101F000011961C921E9213961C921E921297159671
:101F10001C921E9214978617970749F06081718171
:101F20006115710521F0448155810C941D0F0895B0
:101F30001F920F920FB60F9211240BB60F922F9390
:101F40003F934F935F936F937F938F939F93AF9341
:101F5000BF93EF93FF938AE197E00E942409FF91DA
:101F6000EF91BF91AF919F918F917F916F915F9111
:101F70004F913F912F910F900BBE0F900FBE0F907E
:101F80001F9018951F920F920FB60F9211240BB647
:101F90000F922F933F934F935F936F937F938F9302
:101FA0009F93AF93BF93EF93FF938AE197E00E94D3
:101FB000A608FF91EF91BF91AF919F918F917F9173
:101FC0006F915F914F913F912F910F900BBE0F90AA
:101FD0000FBE0F901F9018951F920F920FB60F9281
:101FE00011240BB60F922F933F934F935F936F93F0
:101FF0007F938F939F93AF93BF93EF93FF9387EB61
:1020000097E00E942409FF91EF91BF91AF919F91BA
:102010008F917F916F915F914F913F912F910F9091
:102020000BBE0F900FBE0F901F9018951F920F922E
:102030000FB60F9211240BB60F922F933F934F932D
:102040005F936F937F938F939F93AF93BF93EF9320
:10205000FF9387EB97E00E94A608FF91EF91BF9155
:10206000AF919F918F917F916F915F914F913F9130
:102070002F910F900BBE0F900FBE0F901F901895D1
:102080001F920F920FB60F9211240BB60F922F933F
:102090003F934F935F936F937F938F939F93AF93F0
:1020A000BF93EF93FF9384E598E00E942409FF918A
:1020B000EF91BF91AF919F918F917F916F915F91C0
:1020C0004F913F912F910F900BBE0F900FBE0F902D
:1020D0001F9018951F920F920FB60F9211240BB6F6
:1020E0000F922F933F934F935F936F937F938F93B1
:1020F0009F93AF93BF93EF93FF9384E598E00E9483
:10210000A608FF91EF91BF91AF919F918F917F9121
:102110006F915F914F913F912F910F900BBE0F9058
:102120000FBE0F901F9018951F920F920FB60F922F
:1021300011240BB60F922F933F934F935F936F939E
:102140007F938F939F93AF93BF93EF93FF9381EF11
:1021500098E00E942409FF91EF91BF91AF919F9168
:102160008F917F916F915F914F913F912F910F9040
:102170000BBE0F900FBE0F901F9018951F920F92DD
:102180000FB60F9211240BB60F922F933F934F93DC
:102190005F936F937F938F939F93AF93BF93EF93CF
:1021A000FF9381EF98E00E94A608FF91EF91BF9105
:1021B000AF919F918F917F916F915F914F913F91DF
:1021C0002F910F900BBE0F900FBE0F901F90189580
:1021D000CF92DF92EF92FF920F931F93CF93DF93F3
:1021E000FC0141812281622F822F442309F45EC0C9
:1021F0003081832F6BE20E941DC9182F55ED5103CA
:10220000B0011124630F711D362F330F360F330FBA
:10221000C22FD0E0042F10E0EFEFF0E0BF01601B11
:10222000710B6C9FD0016D9FB00D7C9FB00D112480
:102230009B2F439FA0011124452F550F550BBF0124
:10224000641B750B6C9FA0016D9F500D7C9F500D02
:102250001124652F6F01C31AD108C09E7001C19E61
:10226000F00CD09EF00C1124EF2CFF0CFF08EE199F
:10227000FF09EC9F8001ED9F100DFC9F100D1124B4
:102280008230F1F040F4882371F0813071F0622FD8
:102290002B2F952F0AC08330B1F08430C1F7922FD5
:1022A0002B2F612F02C0622F212F892F722FDF91D8
:1022B000CF911F910F91FF90EF90DF90CF900895F5
:1022C0006B2F912FF2CF6B2F922F252FEECF0F93E5
:1022D0001F93CF93DF93DC01EB014D915D916D91E5
:1022E0007C911397E881E427EF7084E0E89FF00188
:1022F0001124E85AF84F059115912591349184E005
:1023000076956795579547958A95D1F74027512738
:10231000622773274D935D936D937C931397E881A8
:10232000E295EF70E427EF7084E0E89FF00111245C
:10233000E85AF84F059115912591349194E07695DE
:102340006795579547959A95D1F74027512762276A
:1023500073274D935D936D937C931397DF91CF918A
:102360001F910F9108950F931F93FC01828D938D00
:10237000009781F481E000811181228133814481C1
:10238000558166817781041715072607370769F09D
:1023900080E00BC00197E1F781E0408151816281CB
:1023A0007381452B462B472B99F71F910F91089569
:1023B000CF92DF92EF92FF920F931F93CF93DF9311
:1023C000EC0169017A018E859F85998B888B7B8BC7
:1023D0006A8B198F088FCC82DD82EE82FF820E9489
:1023E0004B8B688779878A879B87CD28CE28CF2813
:1023F00021F48A899B899F878E87188219821A8285
:102400001B821B8E1A8E1F8A1E8A1D8A8E859F85AF
:10241000DF91CF911F910F91FF90EF90DF90CF90C0
:1024200008950F931F9310E000E020E030E0A90131
:102430000E94D8111F910F9108952F923F924F92B1
:102440005F926F927F928F929F92AF92BF92CF9244
:10245000DF92EF92FF920F931F93CF93DF93CDB74D
:10246000DEB762970FB6F894DEBF0FBECDBF9A8B72
:10247000898BDC0154968C9154978111C9C01C96AC
:102480004D905C90712C612C60E070E0CB0121E0FC
:10249000A989BA8958962D903C90599721143104F6
:1024A00009F498C0222309F495C0FD016087718763
:1024B00082879387CD010E94B311882371F0A98987
:1024C000BA8956968D919C918230910509F4C1C0CC
:1024D00008F0B9C0019709F4CDC0E989FA89858966
:1024E000811178C004811581268137810D871E876F
:1024F0002F87388B828D938D009709F4D4C0019774
:1025000009F42AC1E989FA89E288F3880D851E85D4
:102510002F853889012B022B032B09F488C1C08831
:10252000D188CE14DF0409F482C160817181828177
:1025300093810E9475C74B015C016D857E858F85F7
:1025400098890E9475C79B01AC01C501B4010E9426
:10255000F9C9A1010E94D70A4B015C012601712C27
:10256000612CEC14FD0408F43EC1EC18FD08B70121
:1025700090E080E00E9475C7A50194010E94D6C733
:102580006B017C01C301B2010E9475C79B01AC01C4
:10259000C701B6010E9488C96B017C0120E030E0D0
:1025A000A9010E9470C787FD36C120E03FEF4FE7C9
:1025B00057E4C701B6010E94D9CA18160CF42FC1FE
:1025C000C701B6010E946BCAA989BA891F967C937C
:1025D0006E931E97A989BA891E968D919C916296D9
:1025E0000FB6F894DEBF0FBECDBFDF91CF911F9124
:1025F0000F91FF90EF90DF90CF90BF90AF909F90A2
:102600008F907F906F905F904F903F902F900895A4
:102610000E944B8BE989FA89C084D184E284F384D7
:102620002B013C014C185D086E087F08C484D584DA
:10263000F12CE12C21E04C145D046E047F0408F0C1
:1026400027CF20E025CF84309105D9F0059709F0F8
:1026500044CFA989BA895A968D919C910097E1F04F
:10266000019709F03ACFA989BA895B961C921E920C
:102670005A9733CFE989FA89108211821282138224
:102680002CCFE989FA8984819581A681B7818083DD
:102690009183A283B38321CF81E090E0E989FA8915
:1026A000938F828F1ACFA989BA890D911D912D918F
:1026B0003C91139709871A872B873C87A9019A01B8
:1026C0004B833C83530198014B815C8160E070E057
:1026D00080E090E06B82BC825201CB80DC80E12CF8
:1026E000F12C00E010E00E9460C9F9010D851E8503
:1026F0002F85388948015901C12CD12C76019F01C1
:1027000089829A82AB82BC82CD82DE82EF82F88699
:102710005401CB80DC80E12CF12C00E010E00E9421
:1027200072C974F429853A854B855C85420E531E27
:10273000641E751E4D925D926D927C921397E2CE4F
:102740000D851E852F853889A989BA890D931D931A
:102750002D933C931397D6CEA989BA890D911D91DB
:102760002D913C9109871A872B873C87A9019A01F3
:102770004B833C8353014201C12CD12C760198013B
:102780004B815C8160E070E080E090E049829A8259
:102790006B82BC82CD82DE82EF82F8865201CB80D2
:1027A000DC80E12CF12C00E010E00E9469C9A0E07F
:1027B0000E947BC981F07CF089859A85AB85BC85B8
:1027C00084199509A609B709E989FA898083918353
:1027D000A283B38397CEA989BA891D921D921D92B7
:1027E0001C9213978FCEC301B6010E9475C72B01AF
:1027F0003C01CE18DF08B60190E080E00E9475C76A
:10280000A50194010E94D6C79B01AC01C301B2018E
:102810000E9487C9C1CEC12CD12C7601D1CEC12C4A
:10282000DD24DA948FE7E82E87E4F82EC9CEE98913
:10283000FA89F786E686CECE0F931F93FC0187892F
:10284000908D009781F481E0008111812281338194
:10285000448155816681778104171507260737075C
:1028600069F080E00BC00197E1F781E04081518180
:1028700062817381452B462B472B99F71F910F914E
:102880000895CF93DF93EC010E941C14811106C0C0
:102890008A8991E08927DF91CF91089580E0FBCF6D
:1028A000CF92DF92EF92FF920F931F93CF93DF931C
:1028B000EC0169017A018E858F87688B1E8B0D8BE9
:1028C000CC82DD82EE82FF820E944B8B6887798703
:1028D0008A879B87CD28CE28CF2811F488898E87B8
:1028E000188219821A821B82188E1F8A1C8A1B8AE0
:1028F0001A8A8E85DF91CF911F910F91FF90EF90F3
:10290000DF90CF9008950F931F9310E000E020E038
:1029100030E0A9010E9450141F910F9108952F9249
:102920003F924F925F926F927F928F929F92AF925F
:10293000BF92CF92DF92EF92FF920F931F93CF93AC
:10294000DF93CDB7DEB762970FB6F894DEBF0FBE48
:10295000CDBF9A8B898BDC0151968C915197811157
:10296000CAC01C964D905C90712C612C60E070E0A8
:10297000CB0121E0A989BA8955962D903C905697B4
:102980002114310409F49AC0222309F497C0FD01EF
:102990006087718782879387CD010E941C148823EA
:1029A00071F0A989BA8953968D919C9182309105D5
:1029B00009F4C2C008F0BAC0019709F4CEC0E98991
:1029C000FA89828981117AC0048115812681378133
:1029D0000D871E872F87388B8789908D009709F484
:1029E000D5C0019709F42BC1E989FA89D0880D85F2
:1029F0001E852F853889012B022B032B09F48BC1EF
:102A0000C784CD1409F487C160817181828193816B
:102A10000E9475C74B015C016D857E858F85988905
:102A20000E9475C79B01AC01C501B4010E94F9C9A0
:102A3000A1010E94D70A4B015C010C2D10E0ED2C86
:102A4000F12C2801012E000C66087708DC1408F42C
:102A50003DC1B701601B710B072E000C880B990B51
:102A60000E9477C7A50194010E94D6C76B017C0123
:102A7000C301B2010E9477C79B01AC01C701B60137
:102A80000E9488C96B017C0120E030E0A9010E940E
:102A900070C787FD35C120E030E04FE753E4C70140
:102AA000B6010E94D9CA18160CF42EC1C701B6018E
:102AB0000E946BCAA989BA891E966C93A989BA89A2
:102AC0001E968C9162960FB6F894DEBF0FBECDBFF6
:102AD000DF91CF911F910F91FF90EF90DF90CF90FA
:102AE000BF90AF909F908F907F906F905F904F902E
:102AF0003F902F9008950E944B8BE989FA890085B9
:102B00001185228533852B013C01401A510A620A46
:102B1000730AC484D584F12CE12C21E04C145D04AB
:102B20006E047F0408F026CF20E024CF8430910586
:102B3000D9F0059709F043CFA989BA8957968D91A5
:102B40009C910097E1F0019709F039CFA989BA89E2
:102B500058961C921E92579732CFE989FA891082B3
:102B60001182128213822BCFE989FA89848195819F
:102B7000A681B78180839183A283B38320CF81E034
:102B800090E0E989FA89908F878B19CFA989BA8952
:102B90000D911D912D913C91139709871A872B87D1
:102BA0003C87A9019A014B833C83530198014B81D7
:102BB0005C8160E070E080E090E06B82BC8252015A
:102BC000CB80DC80E12CF12C00E010E00E9460C999
:102BD000F9010D851E852F85388948015901C12CC1
:102BE000D12C76019F0189829A82AB82BC82CD82F0
:102BF000DE82EF82F8865401CB80DC80E12CF12C60
:102C000000E010E00E9472C974F429853A854B8572
:102C10005C85420E531E641E751E4D925D926D9230
:102C20007C921397E1CE0D851E852F853889A98961
:102C3000BA890D931D932D933C931397D5CEA989F3
:102C4000BA890D911D912D913C9109871A872B8787
:102C50003C87A9019A014B833C8353014201C12C5B
:102C6000D12C760198014B815C8160E070E080E0BE
:102C700090E049829A826B82BC82CD82DE82EF82B2
:102C8000F8865201CB80DC80E12CF12C00E010E0D2
:102C90000E9469C9A0E00E947BC981F07CF089850F
:102CA0009A85AB85BC8584199509A609B709E98978
:102CB000FA8980839183A283B38396CEA989BA8946
:102CC0001D921D921D921C9213978ECEC301B201CC
:102CD0000E9477C72B013C01B8016E197F09072EAE
:102CE000000C880B990B0E9477C7A50194010E94E4
:102CF000D6C79B01AC01C301B2010E9487C9C2CEF5
:102D0000C12CD12C7601D2CEC12CD12C8FE7E82E4C
:102D100083E4F82ECBCEE989FA89D686CFCE2EEF82
:102D2000DC01E22F1D92EA95E9F7FC01E250FF4F2A
:102D3000DF011D922A95E9F7EC5FFE4F10828F5E4E
:102D40009D4FFC0110821182128213820895FA01B4
:102D500080818150982F9F3FC9F0292F30E0FB01DF
:102D6000E20FF31F40814E3711F09150F4CF8F3FA7
:102D700069F0482F50E0FB01E40FF51F90819E376A
:102D800019F4281B2083282F8150F1CF08958F92AA
:102D90009F92AF92BF92CF92DF92EF92FF920F93EA
:102DA0001F93CF93DF93EC017B018A016C018FEEBF
:102DB000C81A8DEFD80AF60180819181A281B38172
:102DC000892B8A2B8B2B61F4D8018C9181113DC00A
:102DD000FE01EE5FFD4F1082CD5FDD4F81E063C0ED
:102DE0000E944B8BF60180809180A280B38068198D
:102DF00079098A099B09FE01EB5EFD4F8080918075
:102E0000A280B380681579058A059B05E8F23A9798
:102E10008081882339F067EE72E03297808191815A
:102E20000E94350AFE01EE5FFD4F1082329611823C
:102E30001082CD5FDD4F8DEF8883D6011D921D92EC
:102E40001D921C92139780E0CDC08E010C5F1D4F28
:102E5000D801ED91FC911197E730F10508F060C1C0
:102E60008827EA5CF84E8F4F0C9451C93D175517CF
:102E700061176A179817B517FF17F70180818E370A
:102E800059F481E090E08D939C930E944B8BF60166
:102E90006083718382839383FE01EE5FFD4F108216
:102EA000CD5FDD4F83E08883CECFD7018C91FE01CB
:102EB000E25FFD4F808382E090E0F80191838083A0
:102EC000EBCFD7018C91FE01E05FFD4F808383E063
:102ED00090E0F3CFD7018C919FEF980F9E3F48F47D
:102EE000FE01E45FFD4F80833196108284E090E024
:102EF000E4CF7E01F2E0EF0EFF1ED7011C92F80135
:102F0000118210828FEFFE01ED5FFD4F80833896B6
:102F10008081882339F06BEF72E032978081918154
:102F20000E94350ACE010E948F16D7018C915AC09B
:102F3000DE01A35FBD4F8C91FE01E45FFD4F9081E8
:102F4000891708F0A9CFF7012081FE01E80FF11DD4
:102F5000E250FF4F20838F5F8C9398139DCF85E0C5
:102F600090E0D8018D939C9397CFFE01E45FFD4FD5
:102F700020816091E9097091EA09AE0142505F4FEA
:102F8000DA0180E030E0FD01E41BF50BE217F30706
:102F900038F4ED91E827E60FF72FF11D8081F3CF8C
:102FA000F7019081981303C086E090E0DACF7E01AC
:102FB000B2E0EB0EFB1EF7011082D8011D921C92AD
:102FC0003196108238968081882339F060E173E071
:102FD0003297808191810E94350ACE010E948F161E
:102FE000F7018081DF91CF911F910F91FF90EF90BA
:102FF000DF90CF90BF90AF909F908F9008951D92DB
:103000001C92F7018081813809F073C0FE01E05FF6
:10301000FD4F80818F3F79F0AE0142505F4F2EE728
:10302000FA01E80FF11D9081992319F02083890F8F
:10303000F7CF8EE780838E01045F1D4FD8018C91FE
:10304000FE01EE5FFD4F808382E0319680833396F0
:103050002081318121153105A1F07E01B2EFEB1AFB
:10306000BDEFFB0AF701808136979081891780F4C4
:1030700090E0880F991F820F931FDC01ED91FC9166
:103080001995F6011082118212821382D8014ECF57
:10309000FE01E55FFD4F8081882399F35E01B7EF64
:1030A000AB1ABDEFBB0AF50180809180CCE2D7E07E
:1030B000FE016491662359F0D401ED91FC910190D9
:1030C000F081E02DC40119952196892B89F7F5012E
:1030D000C081D181D7014C9150E070E060E02AE0DE
:1030E000CE010E94E90964EE72E0CE010E94DA0985
:1030F000C8CF8E010E5F1D4FF80110828EEF319602
:10310000808338968081882339F061E273E03297BA
:10311000808191810E94350ACE010E948F16B6CF20
:10312000FE01E55FFD4F80818823A1F168E373E034
:103130007E01B7EFEB1ABDEFFB0AF70180819181A9
:103140000E94DA09D701AD90BC90F801C080D1800F
:103150000D2C000CEE08FF082AE0B701A601F7FECF
:1031600011C0D501ED91FC910190F081E02D6DE24F
:10317000C501199544275527BA014C195D096E09F7
:103180007F092AE0C5010E94E90964EE72E0C501E9
:103190000E94DA09CE010E948F16F8011182108276
:1031A0007BCE20916406260F3327331F2132310551
:1031B000ECF42091DF06FC0190E080E0243069F01F
:1031C00082E00895A09164062191AC014E5B594FB5
:1031D000A40FB52FB11D2C930196861798F38091FB
:1031E0006406680F6093640680E0089581E00895A6
:1031F000089508950895E091980680919706E8173C
:1032000030F4F0E0E756F94F808190E008958FEFB9
:103210009FEF089590919806809197062FEF3FEFCA
:10322000981748F4E92FF0E0E756F94F208130E095
:103230009F5F90939806C901089580919706909199
:103240009806891B990B0895CF92DF92EF92FF9217
:103250000F931F93CF93DF937C01CB018A012091C1
:103260000707222389F0EB016B01C40ED51ECC1594
:10327000DD0569F06991D701ED91FC910190F08134
:10328000E02DC7011995F3CF642F0E94D118C80112
:10329000DF91CF911F910F91FF90EF90DF90CF9032
:1032A0000895CF93DF931F92CDB7DEB76983209146
:1032B00007072223F9F020910507203258F021E07A
:1032C00030E0FC013383228390E080E00F90DF91B7
:1032D000CF91089580910607E82FF0E0EB51F94F68
:1032E000998190838F5F809306078093050781E023
:1032F00090E0ECCF61E0CE0101960E94D118F7CFAB
:1033000090E080E00895AF92BF92CF92DF92EF926B
:10331000FF920F931F93CF93DF9300D0CDB7DEB70B
:103320005A0119821A821B82882361F18B01E1E024
:10333000F0E0E82EF12CD8012D918D012223F1F03F
:103340006F01B1E0CB1AD108D501AC0DBD1D4C9178
:103350004423A1F030E02F5F3F4FD7010E94FEC809
:10336000A42FB0E011969B01AC010E94C9C8A1E056
:10337000B0E0AC0FBD1FAC0DBD1D8C933196E43099
:10338000F105C9F669817A818B810F900F900F90BA
:10339000DF91CF911F910F91FF90EF90DF90CF9031
:1033A000BF90AF900895FC018DE992E091838083F6
:1033B000138212828FEF868387838087818782873B
:1033C000838781E0848785871786168680E797E163
:1033D000918B808B83E090E0938B828B158A148A8B
:1033E000158214828091180790911907892B21F476
:1033F000F0931907E0931807A0913F06B09140069B
:10340000109721F01596FC93EE931497F0934006D5
:10341000E0933F06089581E090E008950F931F9395
:10342000CF93DF9320913E062F5F322F377030937A
:103430003E0620FF2BC020E831FD2064347009F0E7
:103440002062205FFC01EC01239600E011E067851B
:10345000662329F070E0C8010E943DC96F5F618753
:10346000822F869F080E80E0811D1124811110C0DB
:103470001682662311F0615061873196EC17FD07C3
:1034800031F7DF91CF911F910F91089520E0D4CFB4
:1034900081508683EECF80E991E00895209A0895C7
:1034A000279A08956F927F928F92CF92DF92EF9238
:1034B000FF920F931F93CF93DF93CDB7DEB7629741
:1034C0000FB6F894DEBF0FBECDBF8C016B017A0141
:1034D000822FA801475F5F4FB8016A5F7F4F0E944C
:1034E00083193B01882ED8011C962C91C701F7FE49
:1034F00004C0882799278E199F09DA82C9829C8384
:103500008B839E838D83688A798A8A8A213049F5E4
:10351000CE0101960E940E1A83E08D871F861E86BB
:10352000F7FE02C08DEF8D87D801ED91FC910088E8
:10353000F189E02DBE016F5F7F4FC801199562963A
:103540000FB6F894DEBF0FBECDBFDF91CF911F91B4
:103550000F91FF90EF90DF90CF908F907F906F90C2
:1035600008951C861B861A86198618861F82D4CF5A
:10357000CF92DF92EF92FF920F931F93CF93DF933F
:10358000CDB7DEB762970FB6F894DEBF0FBECDBFE2
:103590008C016B017A01822FA801475F5F4FB80150
:1035A0006A5F7F4F0E9483199B01482FD8011C96A8
:1035B0008C91DA82C982FC82EB82FE82ED82288BBA
:1035C000398B4A8B813009F5CE0101960E940E1A83
:1035D0001D861F861E86D801ED91FC910088F18919
:1035E000E02DBE016F5F7F4FC801199562960FB63F
:1035F000F894DEBF0FBECDBFDF91CF911F910F9129
:10360000FF90EF90DF90CF9008951C861B861A865E
:10361000198618861F82DCCF0F931F93CF93DF93F9
:10362000EC018C01055E1D4FD8018D919C91DC0150
:10363000ED91FC910084F185E02D1995892B59F0CD
:10364000F80180819181DC01ED91FC910284F38588
:10365000E02D1995E9CFCE010E948F16FE01E65E9E
:10366000FD4FCD5FDD4F88818083DF91CF911F912A
:103670000F910895BF92CF92DF92EF92FF920F9336
:103680001F93CF93DF931F92CDB7DEB78C016B01F1
:10369000B42EDB018D919C91F801E15FFD4F7F011C
:1036A0008F3F910508F475C08FEF80836801F801A2
:1036B00080E091919E3709F067C0D7018C934DEA65
:1036C00052E0B801C8010E94A7164091E909509143
:1036D000EA09980122503F4F80E0D601ED916D013B
:1036E000E827E40FF52FF11D80812A173B07A9F782
:1036F000F801E350FE4FB082F7019081F801E250EB
:10370000FE4F90839EEF31969083319680838EEFAB
:10371000F82E6801B5EECB1ABDEFDB0AF601808109
:103720009181B80164507E4FDC01ED91FC910280E3
:10373000F381E02D44E050E01995F60180819181FC
:103740004F2D50E0DC01ED91FC910280F381E02DE2
:10375000B8011995F60180819181B8017E5FDC0185
:10376000ED91FC910280F381E02D42E050E019954B
:103770008F2D0F90DF91CF911F910F91FF90EF90C0
:10378000DF90CF90BF9008958F5F8E3F09F091CF6B
:1037900096CF982F8FEF8083F80180E0891728F467
:1037A00021912E3719F5F7018083D6018C918983F9
:1037B000AE014F5F5F4FB801C8010E94A716F60126
:1037C000208131814091E9095091EA09D80180E0D6
:1037D0003327BD01601B710B6217730748F4ED912D
:1037E000E827E40FF52FF11D8081F3CF8F5FD6CF4F
:1037F000F801E350FE4FB082D7019C91319690833F
:10380000F6019081F801E150FE4F9083319680835C
:10381000D601FC907ECF1092DF0681E08093DE0619
:103820001092B90661E084E10E943A8761E085E187
:103830000E943A87E9EBF0E080818E7F808380816F
:103840008D7F808388E48093B80085E48093BC00FA
:1038500008954F925F927F928F929F92AF92BF9204
:10386000CF92DF92EF92FF920F931F93CF93DF934C
:103870002C01EB010E947688F20126893789621BB0
:10388000730B6A307105B0F3F8948A819B81181626
:1038900019060CF0CBC1E881F98105B1016075B161
:1038A0007E7F75B9BA848F812B2D281B822F2F83A1
:1038B0004C85042E000C550BAA81BB81E888DF845F
:1038C000C988E394D394C3949E81388599848B846A
:1038D000118120E0F32E622F322F3181112788943D
:1038E0003111380F08F43FEF81958894E0FC130FF5
:1038F00017958894E1FC130F17958894E2FC130F39
:1039000017958894E3FC130F17958894E4FC130F24
:1039100017958894E5FC130F17958894E6FC130F10
:1039200017958894E7FC130F17958894232FE110BF
:10393000212F8B0D122F002C05B900C017FF75B970
:1039400030812227889400C000C0002C75B9311145
:10395000390F00C0002C05B900C016FF75B908F476
:103960003FEF9195889400C000C0002C75B9D0FC41
:10397000230F00C0002C05B900C015FF75B92795AD
:103980008894D1FC230F00C000C0002C75B9279586
:10399000889400C0002C05B900C014FF75B9D2FC92
:1039A000230F2795889400C000C0002C75B9D3FC64
:1039B000230F00C0002C05B900C013FF75B927956F
:1039C0008894D4FC230F00C000C0002C75B9279543
:1039D000889400C0002C05B900C012FF75B9D5FC51
:1039E000230F2795889400C000C0002C75B9D6FC21
:1039F000230F00C0002C05B900C011FF75B9279531
:103A00008894D7FC230F00C000C0002C75B92795FF
:103A1000889400C0002C05B900C010FF75B9132FA1
:103A2000D110122F990D00C000C0002C75B900C034
:103A300000C0002C05B900C017FF75B932812227DC
:103A4000889400C000C0002C75B931113F0D00C032
:103A5000002C05B900C016FF75B908F43FEFE40F5C
:103A6000F51F00C000C0002C75B9C0FC230F00C0BA
:103A7000002C05B900C015FF75B927958894C1FCC5
:103A8000230F00C000C0002C75B92795889400C092
:103A9000002C05B900C014FF75B9C2FC230F27958F
:103AA000889400C000C0002C75B9C3FC230F00C06F
:103AB000002C05B900C013FF75B927958894C4FC84
:103AC000230F00C000C0002C75B92795889400C052
:103AD000002C05B900C012FF75B9C5FC230F27954E
:103AE000889400C000C0002C75B9C6FC230F00C02C
:103AF000002C05B900C011FF75B927958894C7FC43
:103B0000230F00C000C0002C75B92795889400C011
:103B1000002C05B900C010FF75B9132FC110122F6A
:103B2000F19400C000C0002C75B9F80C00C000C0B2
:103B300005B900C017FF75B931812227889400C0EC
:103B400000C0002C75B93111380F00C0002C05B928
:103B500000C016FF75B908F43FEF8195889400C046
:103B600000C0002C75B9E0FC230F00C0002C05B983
:103B700000C015FF75B927958894E1FC230F00C09C
:103B800000C0002C75B92795889400C0002C05B999
:103B900000C014FF75B9E2FC230F2795889400C07C
:103BA00000C0002C75B9E3FC230F00C0002C05B940
:103BB00000C013FF75B927958894E4FC230F00C05B
:103BC00000C0002C75B92795889400C0002C05B959
:103BD00000C012FF75B9E5FC230F2795889400C03B
:103BE00000C0002C75B9E6FC230F00C0002C05B9FD
:103BF00000C011FF75B927958894E7FC230F00C01A
:103C000000C0002C75B92795889400C0002C05B918
:103C100000C010FF75B9132FE110122F8B0D00C0DB
:103C200000C0002C75B9119709F086CEEA81FB819E
:103C30002EE130E0DF010E9459C930E020E0A90107
:103C4000AAE9EA9F0E0E411DFA9F400D511D112455
:103C50004F0F511DDC01CB01840F951FA11DB11D1C
:103C6000893E43E09407A105B10508F434C0885E9D
:103C70009340A109B10942E0B695A795979587951C
:103C80004A95D1F747E0849F080E211D949F200D8F
:103C9000311D1124290F311D60913D0670E0860F02
:103CA000971F820F931F4091930650919406609145
:103CB000950670919606292F3327420F531F611DD9
:103CC000711D4093930650939406609395067093EC
:103CD000960680933D0678940E947688F201778B51
:103CE000668BDF91CF911F910F91FF90EF90DF9046
:103CF000CF90BF90AF909F908F907F905F904F90AC
:103D000008954F925F927F928F929F92AF92BF924F
:103D1000CF92DF92EF92FF920F931F93CF93DF9397
:103D20002C01EB010E947688F20126893789621BFB
:103D3000730B6A307105B0F3F8948A819B81181671
:103D400019060CF0CBC1E881F98105B1006875B1A5
:103D50007F7775B9BA848F812B2D281B822F2F83F3
:103D60004C85042E000C550BAA81BB81E888DF84AA
:103D7000C988E394D394C3949E81388599848B84B5
:103D8000118120E0F32E622F322F31811127889488
:103D90003111380F08F43FEF81958894E0FC130F40
:103DA00017958894E1FC130F17958894E2FC130F84
:103DB00017958894E3FC130F17958894E4FC130F70
:103DC00017958894E5FC130F17958894E6FC130F5C
:103DD00017958894E7FC130F17958894232FE1100B
:103DE000212F8B0D122F002C05B900C017FF75B9BC
:103DF00030812227889400C000C0002C75B9311191
:103E0000390F00C0002C05B900C016FF75B908F4C1
:103E10003FEF9195889400C000C0002C75B9D0FC8C
:103E2000230F00C0002C05B900C015FF75B92795F8
:103E30008894D1FC230F00C000C0002C75B92795D1
:103E4000889400C0002C05B900C014FF75B9D2FCDD
:103E5000230F2795889400C000C0002C75B9D3FCAF
:103E6000230F00C0002C05B900C013FF75B92795BA
:103E70008894D4FC230F00C000C0002C75B927958E
:103E8000889400C0002C05B900C012FF75B9D5FC9C
:103E9000230F2795889400C000C0002C75B9D6FC6C
:103EA000230F00C0002C05B900C011FF75B927957C
:103EB0008894D7FC230F00C000C0002C75B927954B
:103EC000889400C0002C05B900C010FF75B9132FED
:103ED000D110122F990D00C000C0002C75B900C080
:103EE00000C0002C05B900C017FF75B93281222728
:103EF000889400C000C0002C75B931113F0D00C07E
:103F0000002C05B900C016FF75B908F43FEFE40FA7
:103F1000F51F00C000C0002C75B9C0FC230F00C005
:103F2000002C05B900C015FF75B927958894C1FC10
:103F3000230F00C000C0002C75B92795889400C0DD
:103F4000002C05B900C014FF75B9C2FC230F2795DA
:103F5000889400C000C0002C75B9C3FC230F00C0BA
:103F6000002C05B900C013FF75B927958894C4FCCF
:103F7000230F00C000C0002C75B92795889400C09D
:103F8000002C05B900C012FF75B9C5FC230F279599
:103F9000889400C000C0002C75B9C6FC230F00C077
:103FA000002C05B900C011FF75B927958894C7FC8E
:103FB000230F00C000C0002C75B92795889400C05D
:103FC000002C05B900C010FF75B9132FC110122FB6
:103FD000F19400C000C0002C75B9F80C00C000C0FE
:103FE00005B900C017FF75B931812227889400C038
:103FF00000C0002C75B93111380F00C0002C05B974
:1040000000C016FF75B908F43FEF8195889400C091
:1040100000C0002C75B9E0FC230F00C0002C05B9CE
:1040200000C015FF75B927958894E1FC230F00C0E7
:1040300000C0002C75B92795889400C0002C05B9E4
:1040400000C014FF75B9E2FC230F2795889400C0C7
:1040500000C0002C75B9E3FC230F00C0002C05B98B
:1040600000C013FF75B927958894E4FC230F00C0A6
:1040700000C0002C75B92795889400C0002C05B9A4
:1040800000C012FF75B9E5FC230F2795889400C086
:1040900000C0002C75B9E6FC230F00C0002C05B948
:1040A00000C011FF75B927958894E7FC230F00C065
:1040B00000C0002C75B92795889400C0002C05B964
:1040C00000C010FF75B9132FE110122F8B0D00C027
:1040D00000C0002C75B9119709F086CEEA81FB81EA
:1040E0002EE130E0DF010E9459C930E020E0A90153
:1040F000AAE9EA9F0E0E411DFA9F400D511D1124A1
:104100004F0F511DDC01CB01840F951FA11DB11D67
:10411000893E43E09407A105B10508F434C0885EE8
:104120009340A109B10942E0B695A7959795879567
:104130004A95D1F747E0849F080E211D949F200DDA
:10414000311D1124290F311D60913D0670E0860F4D
:10415000971F820F931F4091930650919406609190
:10416000950670919606292F3327420F531F611D24
:10417000711D409393065093940660939506709337
:10418000960680933D0678940E947688F201778B9C
:10419000668BDF91CF911F910F91FF90EF90DF9091
:1041A000CF90BF90AF909F908F907F905F904F90F7
:1041B0000895CF92DF92EF920F931F93CF93DF93E7
:1041C00068EE73E00E9429C9EB016B0184EBC80E15
:1041D000D11CCB018D549F4F0E94EA5EC6010E9404
:1041E000EA5ECE018B549F4F0E94EA5EEE24E39478
:1041F00010E000E020E04091C40E60E0C6010E94A3
:10420000355FDF91CF911F910F91EF90DF90CF90AD
:1042100008958F929F92AF92BF92CF92DF92EF92CA
:10422000FF920F931F93CF93DF931F921F92CDB7EF
:10423000DEB78C0119828FEF8A83680125EEC21ADE
:104240002DEFD20AD6018D919C91DC01ED91FC916C
:104250000084F185E02D1995F801E75EFD4F7F019F
:10426000892B09F449C081E089834801FDEF8F1A49
:104270009F0A580126EEA21A2DEFB20AD6018D919F
:104280009C91DC01ED91FC910084F185E02D199564
:10429000892B09F1F60180819181DC01ED91FC917E
:1042A0000284F385E02D19958A83AE014F5F5F4F3D
:1042B000BE016E5F7F4FC8010E94C716F701808361
:1042C000D4018C91F50180838330C1F218161CF063
:1042D000C8010E940C1BF70180810F900F90DF91A5
:1042E000CF911F910F91FF90EF90DF90CF90BF90F3
:1042F000AF909F908F900895AE014F5F5F4FBE01CA
:104300006E5F7F4FC8010E94C716D7018C93F801DA
:10431000ED5FFD4F808177968083D8CFCF93DF9379
:1043200091E0909341068823B9F0C091B800D091F4
:10433000BA008091BC008A7B8093BC0060E084E17D
:104340000E943A8760E085E10E943A870E940B1C38
:10435000D093BA00C093B800DF91CF91089585ED56
:104360008093BC008091E1069091E206A091E30663
:10437000B091E4060796A11DB11D23E0B695A7955F
:10438000979587952A95D1F72091BC0024FD03C00D
:104390001092DF0608954091E1065091E206609187
:1043A000E3067091E406452B462B472B69F30097F3
:1043B000A105B10541F02AE22A95F1F700C0019765
:1043C000A109B109E1CF8091E0060C948E211F92E2
:1043D0000F920FB60F9211240BB60F922F933F93AB
:1043E0004F935F936F937F938F939F93AF93BF93FD
:1043F000EF93FF938091B900887F803609F44DC018
:1044000008F040C0883209F4A9C028F5803109F4C9
:104410009DC0C8F4882309F4FBC0883009F496C015
:10442000FF91EF91BF91AF919F918F917F916F918C
:104430005F914F913F912F910F900BBE0F900FBE48
:104440000F901F901895883109F488C0803241F789
:104450008093DD0614C0803409F49DC040F480339D
:10446000B9F38833E9F68093DD0685ECB0C080357A
:1044700009F485C0883509F496C0883489F60E940D
:10448000AF21CECF883909F48CC038F5883729F0B0
:1044900050F4883611F0803719F683E08093DF06F8
:1044A0001092880657C0883809F47BC0803919F00B
:1044B000803809F0B5CF80918806803208F071C04D
:1044C000E091880681E08E0F809388068091BB0082
:1044D000F0E0E859F94F80833DC0803B39F0E0F4CB
:1044E000803A09F479C0883A09F09ACF84E0809341
:1044F000DF061092650610926406E0916206F09164
:10450000630619958091640681110FC081E0809344
:1045100064061092420609C0803C09F4A6CF883C8C
:1045200009F4A3CF883B09F07BCFE091650681E0D9
:104530008E0F80936506F0E0EE5BF94F80818093EB
:10454000BB00909165068091640629C08091BA06EF
:104550008093BB0085EC8093BC0062CF9091DC0619
:104560008091DB06981758F5E091DC0681E08E0F0C
:104570008093DC06F0E0E554F94F8081E9CFE091CB
:10458000DC0681E08E0F8093DC068091BB00F0E0BA
:10459000E554F94F80839091DC068091DB069817F3
:1045A000C8F285E8D8CFE091DC0681E08E0F8093D9
:1045B000DC068091BB00F0E0E554F94F80838091E8
:1045C000DE0681115CCF81E08093B90684EA809396
:1045D000BC001092DF0624CF85EC8093BC001092C3
:1045E000DF0680918806803230F4E0918806F0E0A2
:1045F000E859F94F10826091880670E0E0916606F4
:10460000F091670688E696E019951092880608CF23
:104610001092DD0634CFCF92DF92EF92FF920F938C
:104620001F93CF93DF93EC0188810E9411878C0147
:104630000E944B8B2C893D892017310731F06E8BFE
:104640007F8B888F998F1D8B0C8BCE88DF88E88CB1
:10465000F98C6C197D098E099F09CA80DB80EC807A
:10466000FD806C157D058E059F0530F08A899B893C
:10467000998B888B1B8B0A8B288939898A899B891E
:104680002817390781F04A855B8542305105A1F42E
:104690008E819F81A885B9850196A11DB11D8E834C
:1046A0009F83A887B987DF91CF911F910F91FF90CA
:1046B000EF90DF90CF9008954115510531F42130EE
:1046C000310589F7892B21F3EECF4130510559F798
:1046D000232B49F7019739F7DBCFFC01208931897A
:1046E000848595852817390741F481E042895389EB
:1046F000268537854217530709F080E00895FC01AD
:1047000020893189868597852817390741F481E00A
:1047100042895389248535854217530709F080E083
:1047200008958F929F92AF92BF92CF92DF92EF92B5
:10473000FF920F931F93CF93DF93FC0120852111EC
:1047400010C060E070E0CB01DF91CF911F910F911D
:10475000FF90EF90DF90CF90BF90AF909F908F90A1
:104760000895EC010E944B8B29852111EACF8C80A2
:104770009D80AE80BF80088119812A813B816B01B9
:104780007C01C818D908EA08FB08C016D106E20661
:10479000F306B8F6080D191D2A1D3B1D68017901A5
:1047A000C61AD70AE80AF90AC701B601CDCFCF92D7
:1047B000DF92EF92FF921F93CF93DF93FC0110855E
:1047C00011110AC010E0812FDF91CF911F91FF904E
:1047D000EF90DF90CF900895EC018185882319F048
:1047E00018861986F0CF0E944B8BCC80DD80EE803E
:1047F000FF806C197D098E099F09C880D980EA80E5
:10480000FB806C157D058E059F0550F7DBCFCF93A0
:10481000DF93EC01488359836A837B830E944B8B2F
:104820006C837D838E839F8381E088871986DF91E7
:10483000CF9108950F931F93CF93DF93EC010E94C4
:104840004B8B8B019C018C819D81AE81BF81488106
:1048500059816A817B81081B190B2A0B3B0B0417BA
:1048600015072607370738F4CE01DF91CF911F9146
:104870000F910C940724840F951FA61FB71F8C83DC
:104880009D83AE83BF8381E088871986DF91CF91B6
:104890001F910F91089582E190E00E94DD5E83E117
:1048A00090E00E94DD5E84E190E00E94DD5E85E1A3
:1048B00090E00E94DD5E86E190E00C94DD5E982F32
:1048C000E62F603411F4E0912119F0E03197E730E0
:1048D000F10568F48827E059FB4D8F4F0C9451C9BE
:1048E000AB2481248624AD24A72488248A249330F1
:1048F000F1F0953061F1911132C084E108958DE0BD
:10490000089580911F19833061F508958BE0089513
:1049100080E00895923049F020F49923C1F082E0BC
:104920000895933021F09430D1F783E00895809179
:10493000E4058F5F853068F4982F937051F0809371
:10494000E4058091E405813009F38230C1F681E00D
:10495000089581E0F4CF83E1089589E0089585E02A
:1049600008958FE00895CF93DF9300D0CDB7DEB7E1
:1049700070E00E94DC7F69837A838B83CE0101968D
:104980000E94E810962F672F782F892F0F900F9095
:104990000F90DF91CF910895CF93DF9300D0CDB7E3
:1049A000DEB770E00E94DC7F69837A838B83CE015F
:1049B00001960E94E810962F672F792F0F900F9085
:1049C0000F90DF91CF910895CF93DF9300D0CDB7B3
:1049D000DEB770E00E94DC7F69837A838B83CE012F
:1049E00001960E94E8100F900F900F90DF91CF91E9
:1049F000089581E199E10E94D723882391F0809165
:104A0000F7090E94578B4091420250E070E060E04D
:104A100081E199E10E94072480915903811110924C
:104A200059030895CF93DF931F921F92CDB7DEB73E
:104A3000813C910509F1823C910579F18430910521
:104A4000E1F5E6EAF9E0A6E0BAE081918D9389E02C
:104A5000EF3AF807D1F789E090E09A83898346E03E
:104A6000BE016F5F7F4F86E09AE00E943A1B0F9075
:104A70000F90DF91CF910895EBEBF9E0A6E0BAE05B
:104A80008BEC99E021912D938E179F07D9F780E148
:104A900090E09A83898344E0E3CFEFEAF9E0A6E06F
:104AA000BAE081918D9389E0EB3BF807D1F78CE078
:104AB00090E09A83898345E0D3CF22E02093F605E6
:104AC0009093F8058093F7056093F9057093FA05C4
:104AD00094E09093FB052093060A8093070A809147
:104AE000F8058093080A6093090A70930A0A909364
:104AF0000B0A86E090E09A83898341E0B1CF70E0B1
:104B000060E00C941225EF920F931F9384E490E0E1
:104B10000E94EA5EEE24E39410E000E020E0409181
:104B2000C40E60E084E490E00E94355F8091660FDF
:104B30008330C9F1853009F47AC0823009F055C05C
:104B400083E08093660F83E091E00E94EA5E8EE549
:104B500090E00E94EA5E8EE490E00E94EA5E8DE4BE
:104B600090E00E94EA5E20E04091C40E60E08EE496
:104B700090E00E94355F8FE490E00E947F25809155
:104B80005C04811176C08091650490916604019760
:104B900009F46FC080915E0481116BC01F910F9169
:104BA000EF900C94AB7884E08093660F83E091E003
:104BB0000E94EA5E8EE590E00E94EA5E8EE490E05C
:104BC0000E94EA5E8DE490E00E94EA5EEE24E394A7
:104BD00010E000E020E04091C40E60E08EE590E03F
:104BE0000E94355F80E590E0C8CF85E08093660F36
:104BF00083E091E00E94EA5E8EE590E00E94EA5E2A
:104C00008EE490E00E94EA5E8DE490E00E94EA5E0D
:104C1000EE24E39410E000E020E04091C40E60E058
:104C200083E091E00E94355F81E590E0A6CF82E0CD
:104C30008093660F83E091E00E94EA5E8EE590E04B
:104C40000E94EA5E8EE490E00E94EA5E8DE490E0CD
:104C50000E94EA5EEE24E39410E000E020E0409140
:104C6000C40E60E08DE490E00E94355F8EE490E039
:104C700084CF1F910F91EF9008952F923F924F9202
:104C80005F926F927F928F929F92AF92BF92CF92DC
:104C9000DF92EF92FF920F931F93CF93DF93CDB7E5
:104CA000DEB72C970FB6F894DEBF0FBECDBF0E94C3
:104CB000E2649C878B8780E00E94EC5290910519FA
:104CC000890F8B8381E00E94EC5290910519890F26
:104CD0008D8382E00E94EC5290910519890F8F8399
:104CE00083E00E94EC5290910519890F8987809189
:104CF0001C1981508A877090E805809151028C3090
:104D000009F015C181E0898380915202781608F07C
:104D100049C18BE79FE00E94D723882309F442C151
:104D200080915202E72DF0E090912D02992309F431
:104D300004C18D3009F0FEC0E156F64FE491F0E079
:104D40008F01000F111F0E0F1F1F07561C4F4FEF33
:104D500064E18B859C850E94E424F8016083718363
:104D60008283FB812F2F30E08D81C82ED12C9F8133
:104D7000E92EF12CE9858E2E912CFA85AF2EB12CDF
:104D8000872D65E00E941DC98901000F111F3601A2
:104D9000660C771C2701440C551C1401220C331C93
:104DA000020F131F07561C4F4FEF911113C2698159
:104DB0008B859C850E94E424F80160837183828343
:104DC00083010C0D1D1D07561C4F4FEF69818B850C
:104DD0009C850E94E424F8016083718382838201B0
:104DE0000E0D1F1D07561C4F4FEF69818B859C854B
:104DF0000E94E424F8016083718382838101080D9D
:104E0000191D07561C4F4FEF69818B859C850E94A9
:104E1000E424F8016083718382838501000F111FF0
:104E20000A0D1B1D07561C4F4FEF61E08B859C85BB
:104E30000E94E424F80160837183828380911602CA
:104E400090911702892B09F480C04FEF65E08B85A4
:104E50009C850E94E4246093210570932205809331
:104E600023054FEF65E08B859C850E94E4246093C9
:104E7000240570932505809326054FEF6DE08B8503
:104E80009C850E94E42460932705709328058093F5
:104E900029054FEF6DE08B859C850E94E42460938B
:104EA0002A0570932B0580932C054FEF6FE08B85BF
:104EB0009C850E94E42460932D0570932E058093B9
:104EC0002F054FEF6FE08B859C850E94E424609353
:104ED0003005709331058093320500914F020150E7
:104EE000110BC801880F991F080F191F0F5D1A4F6A
:104EF0004FEF6FE08B859C850E94E424F80160836E
:104F00007183828300914F0210E0C801880F991FBE
:104F1000080F191F0F5D1A4F4FEF6DE08B859C85B1
:104F20000E94E424F80160837183828326C095E0A7
:104F30009983EACEE057F64F01CF8D3019F4ED5743
:104F4000F64FFCCEEC58F64FF9CEA59A739A8091A5
:104F50000201886080930201809102018061809348
:104F6000020180910201806280930201809102011E
:104F70008064809302012C9A2D9A8091E8058F5FBE
:104F80008093E805909152028913F5C11092830F26
:104F90001092840F4EE150E060E070E081E79FE006
:104FA0000E9407247090E70580915202781608F05D
:104FB00021C281E79FE00E94D723882309F41AC207
:104FC00000915202E72DF0E080912D02882309F430
:104FD000DCC10D3009F0D6C1E156F64FE491015025
:104FE000110B0E1B1109C801880F991F080F191FFB
:104FF00007561C4F4FEF60E08B859C850E94E42490
:10500000F801608371838283FB812F2F30E08D81D3
:10501000C82ED12C9F81E92EF12CE9858E2E912C62
:10502000FA85AF2EB12C872D65E00E941DC989013C
:10503000000F111F3601660C771C2701440C551C0C
:105040001401220C331C020F131F07561C4F4FEF85
:105050009111A8C369818B859C850E94E424F80185
:1050600060837183828383010C0D1D1D07561C4FC5
:105070004FEF69818B859C850E94E424F801608351
:105080007183828382010E0D1F1D07561C4F4FEF47
:1050900069818B859C850E94E424F801608371837B
:1050A00082838101080D191D07561C4F4FEF69813E
:1050B0008B859C850E94E424F80160837183828340
:1050C0008501000F111F0A0D1B1D07561C4F4FEFC6
:1050D00061E08B859C850E94E424F80160837183E4
:1050E00082838091160290911702892B09F455C191
:1050F0004FEF65E08B859C850E94E4246093210539
:1051000070932205809323054FEF65E08B859C8586
:105110000E94E4246093240570932505809326055E
:105120004FEF6DE08B859C850E94E42460932705FA
:1051300070932805809329054FEF6DE08B859C8542
:105140000E94E42460932A0570932B0580932C051C
:105150004FEF6FE08B859C850E94E42460932D05C2
:1051600070932E0580932F054FEF6FE08B859C8504
:105170000E94E424609330057093310580933205DA
:1051800000914F020150110BC801880F991F080FA1
:10519000191F0F5D1A4F4FEF6FE08B859C850E94A2
:1051A000E424F80160837183828300914F0210E050
:1051B000C801880F991F080F191F0F5D1A4F4FEF75
:1051C0006DE08B859C850E94E424F80160837183E7
:1051D0008283FBC060E08B859C850E94E424F801FB
:1051E00060837183828383010C0D1D1D07561C4F44
:1051F0004FEF60E08B859C850E94E424F80160837A
:105200007183828382010E0D1F1D07561C4F4FEFC5
:1052100060E08B859C850E94E424F80160837183A3
:1052200082838101080D191D07561C4F4FEF60E066
:105230008B859C850E94E424F801608371838283BE
:105240008501000F111F0A0D1B1D07561C4F4FEF44
:1052500060E08B859C850E94E424F8016083718363
:1052600082838091160290911702892B09F46AC0FB
:105270004FEF60E08B859C850E94E42460932105BC
:1052800070932205809323054FEF60E08B859C850A
:105290000E94E424609324057093250580932605DD
:1052A0004FEF60E08B859C850E94E4246093270586
:1052B00070932805809329054FEF60E08B859C85CE
:1052C0000E94E42460932A0570932B0580932C059B
:1052D0004FEF60E08B859C850E94E42460932D0550
:1052E00070932E0580932F054FEF60E08B859C8592
:1052F0000E94E42460933005709331058093320559
:1053000000914F020150110BC801880F991F080F1F
:10531000191F0F5D1A4F4FEF60E08B859C850E942F
:10532000E424F80160837183828300914F0210E0CE
:10533000C801880F991F080F191F0F5D1A4F4FEFF3
:1053400060E0ECCDA598739880910201877F8093EF
:105350000201809102018F7E8093020180910201FF
:105360008F7D80930201809102018F7B80930201E7
:105370002C982D9802CE4EE150E060E070E08BE773
:105380009FE00ECEE057F64F29CE0D3019F4ED57C1
:10539000F64F24CEEC58F64F21CEA59A739A809101
:1053A00002018860809302018091020180618093F4
:1053B00002018091020180628093020180910201CA
:1053C0008064809302012C9A2D9A8091E7058F5F6B
:1053D0008093E705909152028913B5C21092790F1C
:1053E00010927A0F4EE150E060E070E087E69FE0B7
:1053F0000E940724D0903C02DD2009F4B9C187E661
:105400009FE00E94D723882309F4B2C1FB81EF2ECD
:10541000F12C1701220C331C81010E0D1F1D0756A4
:105420001C4F4D2D69818B859C850E94E424F801D9
:10543000608371838283FD81AF2EB12CC501880FFB
:10544000991F9C838B838C010A0D1B1D07561C4FD3
:105450004D2D69818B859C850E94E424F801608331
:1054600071838283FF818F2E912CC401880F991F35
:105470009E838D838C01080D191D07561C4F4D2DE1
:1054800069818B859C850E94E424F8016083718387
:105490008283F9856F2E712CC301880F991F98871D
:1054A0008F838C01060D171D07561C4F4D2D6981EA
:1054B0008B859C850E94E424F8016083718382833C
:1054C000FA854F2E512CC201880F991F9A83898328
:1054D0008C01040D151D07561C4F4D2D61E08B8569
:1054E0009C850E94E424F80160837183828380910B
:1054F000160290911702892B09F471C04D2D65E0B9
:105500008B859C850E94E42460932105709322057D
:10551000809323054D2D65E08B859C850E94E424B6
:105520006093240570932505809326054D2D6DE02D
:105530008B859C850E94E424609327057093280541
:10554000809329054D2D6DE08B859C850E94E42478
:1055500060932A0570932B0580932C054D2D6FE0E9
:105560008B859C850E94E42460932D0570932E0505
:1055700080932F054D2D6FE08B859C850E94E42440
:1055800060933005709331058093320500914F028E
:105590000150110BC801880F991F080F191F0F5DCB
:1055A0001A4F4D2D6FE08B859C850E94E424F801F5
:1055B00060837183828300914F0210E0C801880FDD
:1055C000991F080F191F0F5D1A4F4D2D6DE08B8528
:1055D0009C850E94E424F80160837183828380911A
:1055E0000802893108F0B6C1873108F0B6C165E11B
:1055F0008C3009F067E08091540390911302C090C1
:10560000D310992309F4ABC18111ABC18FEF90E0A6
:105610008D19910970E00E943DC9C60E8091D2108B
:105620008C15C0F08C2D90E0209155038C01000F5B
:10563000111F080F191F0F5D1A4F4FEF65E08B8583
:105640009C85213009F092C10E94CC24F80160832E
:10565000718382838091540390911302992309F4FA
:1056600088C1811188C18091D3108C15D0F48C2D04
:105670008150990BBC018091D210861717068CF0CF
:105680008B01000F111F060F171F0F5D1A4F4FEFF1
:1056900060E08B859C850E94E424F801608371831F
:1056A0008283DA94D0923C02D11074C110926F0FB1
:1056B0001092700F81010E0D1F1D07561C4F4FEFEA
:1056C00060E08B859C850E94E424F80160837183EF
:1056D00082830B811C810A0D1B1D07561C4F4FEF47
:1056E00060E08B859C850E94E424F80160837183CF
:1056F00082830D811E81080D191D07561C4F4FEF27
:1057000060E08B859C850E94E424F80160837183AE
:1057100082830F811885060D171D07561C4F4FEF0A
:1057200060E08B859C850E94E424F801608371838E
:10573000828309811A81040D151D07561C4F4FEFF6
:1057400060E08B859C850E94E424F801608371836E
:1057500082830E940D700E94CA7781E080936A0460
:105760000E94F92465E070E080E090E00E94198BCF
:105770002C960FB6F894DEBF0FBECDBFDF91CF9150
:105780001F910F91FF90EF90DF90CF90BF90AF905F
:105790009F908F907F906F905F904F903F902F9051
:1057A0000C94F92460E08B859C850E94E424F80128
:1057B00060837183828383010C0D1D1D07561C4F6E
:1057C0004FEF60E08B859C850E94E424F8016083A4
:1057D0007183828382010E0D1F1D07561C4F4FEFF0
:1057E00060E08B859C850E94E424F80160837183CE
:1057F00082838101080D191D07561C4F4FEF60E091
:105800008B859C850E94E424F801608371838283E8
:105810008501000F111F0A0D1B1D07561C4F4FEF6E
:1058200060E08B859C850E94E424F801608371838D
:1058300082838091160290911702892B09F46AC025
:105840004FEF60E08B859C850E94E42460932105E6
:1058500070932205809323054FEF60E08B859C8534
:105860000E94E42460932405709325058093260507
:105870004FEF60E08B859C850E94E42460932705B0
:1058800070932805809329054FEF60E08B859C85F8
:105890000E94E42460932A0570932B0580932C05C5
:1058A0004FEF60E08B859C850E94E42460932D057A
:1058B00070932E0580932F054FEF60E08B859C85BC
:1058C0000E94E42460933005709331058093320583
:1058D00000914F020150110BC801880F991F080F4A
:1058E000191F0F5D1A4F4FEF60E08B859C850E945A
:1058F000E424F80160837183828300914F0210E0F9
:10590000C801880F991F080F191F0F5D1A4F4FEF1D
:1059100060E057CCA598739880910201877F8093AF
:105920000201809102018F7E809302018091020129
:105930008F7D80930201809102018F7B8093020111
:105940002C982D9842CD4EE150E060E070E081E768
:105950009FE04ECD8A3109F04DCE69E04CCE8111E9
:1059600055CE8D2D0E941DC9C80E58CE0E94E4242C
:105970006DCE811178CE8091D210C81608F091CEEC
:105980000C2D10E00F5F1F4FC801880F991F080FE3
:10599000191F7BCE45E050E060E070E087E69FE0B5
:1059A0000E940724E5CEE9EEFFE080914E0280835D
:1059B00080914D02818380914C02828380914B02C1
:1059C000838380914A0284830895809151028431B7
:1059D00061F0883221F08C3031F48FE001C087E033
:1059E00080933B02089585E0FBCF8AE0F9CF809158
:1059F000160290911702892B21F088E080933A02D9
:105A0000089510923A0208959091520280915102A5
:105A1000890F27E0280F20931C1990930519809374
:105A20001B19209108028091200540911602509187
:105A30001702452BC9F090913A023FEF390F30938E
:105A40004F029093D310920F2FEF290F2093D21073
:105A50009093D1108150890F891718F08093D0103E
:105A600008959093D010089510924F021092D31081
:105A70009FEF920F9093D2102093D110820F8150FC
:105A8000821760F72093D01008958330B9F198F40D
:105A9000823009F442C08091290290912A02885EE6
:105AA0009340803D27E0920708F446C090932A0275
:105AB0008093290212C0843091F0853061F7809183
:105AC000210290912202885E9340803D27E0920758
:105AD00098F190932202809321020C94D920809116
