:100000000C943C080C946D080C946D080C946D08CD
:100010000C946D080C946D080C946D080C946D088C
:100020000C946D080C946D080C946D080C946D087C
:100030000C946D080C946D080C946D080C946D086C
:100040000C946D080C946D080C946D080C946D085C
:100050000C946D080C946D080C946D080C94ED8450
:100060000C946D080C94306E0C94066E0C946D0814
:100070000C946D080C946D080C946D080C946D082C
:100080000C946D080C946D080C946D080C946D081C
:100090000C94DC6D0C94B26D0C946D080C94B10E44
:1000A0000C946D080C946D080C946D080C946D08FC
:1000B0000C946D080C946D080C946D080C946D08EC
:1000C0000C946D080C946D080C946D080C94886D5C
:1000D0000C945E6D0C946D080C94346D0C940A6D48
:1000E0000C946D0805A84CCDB2D44EB93836A9028F
:1000F0000C50B9918688083CA6AAAA2ABE00000026
:10010000803F07634236B79BD8A71A39685618AEA6
:10011000BAAB558C1D3CB7CC5763BD6DEDFD753E3C
:10012000F6177231BF000000803F08000000BE9249
:100130002449123EABAAAA2ABECDCCCC4C3E00002C
:100140000080BEABAAAAAA3E00000000BF000000CB
:10015000803F0000000000084178D3BB4387D113E3
:100160003D190E3CC3BD4282AD2B3E68EC8276BE8B
:10017000D98FE1A93E4C80EFFFBE01C4FF7F3F0055
:10018000000000000C9466950C944E960C94C98E59
:100190000C94F79F0C94C18E0C94D2A30C943577D9
:1001A0000C94FC780C94D89C0C941E9D0C94CB0958
:1001B0000C94F9680C9433920C94EA680C94B86B24
:1001C0000C9441770C946E810C9403790C949625D1
:1001D0000C94D2A70C94E8930C945C900C9442A8D5
:1001E0000C9492750C943F8F0C94DB8E0C940DAB99
:1001F0000C9458A70C94C58F0C94A0810C9486A8DD
:100200000C94017F0C94F5A50C9475AC0C94E59FAF
:100210000C940B8F0C9484A70C94CE760C94477797
:100220000C94188F0C9498770C94EA770C948CAB00
:100230000C94A6930C94F0A30C9448750C94A8A865
:100240000C94DF810C9498810C942EAC0C941D9727
:100250000C9466BA0C9421960C9470660C9456A477
:100260000C9452790C94F98E0C94A95C0C94F75C64
:100270000C9423690C94789F0C9405790C943F9608
:100280000C9487950C94939F0C940D690C9464A81E
:100290000C9413790C94CA760C9494A00C94BB081B
:1002A0000C94826A0C9435A20C94F8930C940EA5CD
:1002B0000C94CAAB0C9457770C940F690C94FB9375
:1002C0000C9449960C94907E0C943AA70C9419794E
:1002D0000C9412910C943B770C9462950C940979D0
:1002E0000C947A810C94C5AA0C94BC910C94709DCA
:1002F0000C94C9680C94D3760C94D38F0C94077922
:100300000C94D1A10C94B68D0C94809D0C94848196
:100310000C94C49C0C94C4090C941D790C948CA668
:100320000C947F940C9493760C9415780C94518FC4
:100330000C94FA960C94FF780C94D0740C946E691B
:100340000C94A4770C9426790C942C6C0C942AA30E
:100350000C94828D0C949D760C94B2680C94EAA156
:100360000C94A2A90C94F4740C94158E0C94C208ED
:100370000C947D690C940CAC0C94FD810C94569DEE
:100380000C941B790C94FD780C94E5090C94D466BC
:100390000C94B2810C94B2760C9489960C94039FC1
:1003A0000C94AB6B0C94B8760C94A8080C947677EC
:1003B0000C9440870C940B900C9424790C94BC768C
:1003C0000C943A960C949BA30C94319E0C94FC775D
:1003D0000C94CAA80C94E8740C940EA40C94FB68BA
:1003E0000C9497080C941F6B0C94CA770C945AA920
:1003F0000C9406A80C9451770C942E690C94F1245B
:100400000C941CA20C94EF080C94A1760C94EA5C5A
:100410000C943F8D0C94D8760C94A0950C94CE9CA3
:100420000C94749D0C948F8F0C94FD740C94C07676
:100430000C9412950C94EE690C94D4760C94A39EB3
:100440000C949E920C94ABAB0C94009D0C943CA528
:100450000C946EA50C944C790C94409D0C94A8813E
:100460000C949EA70C94B8910C946C8D0C946EA770
:100470000C9484A40C94E9810C94979B0C942D8F7C
:100480000C9412920C9448910C94C7770C940766C4
:100490000C9421690C941E090C941C780C940F790F
:1004A0000C941D9F0C9499080C943F7F0C94C56983
:1004B0000C944C6A0C94EDAB0C9403A20C948C77C6
:1004C0000C9401790C94B8A70C9409980C94E0A4AE
:1004D0000C9456AC0C94107F0C940DAA0C94B38F12
:1004E0000C94C6810C94F29D0C94CD250C947A92B8
:1004F0000C945C660C9422790C9498080C94A0855A
:100500000C9405920C94AE760C9402980C94D290B4
:100510000C9400690C9496080C941C960C942394EB
:100520000C9470950C949BAA0C944EAB0C9412A94D
:100530000C94A5760C94D05C0C9422A60C94429B4F
:100540000C94678F0C94E09C0C94F38E0C94F0A2A6
:100550000C94DB930C94CD090C943C970C9475810E
:100560000C946DAB0C94596B0C94CA7E0C94AB9F9D
:100570000C9459690C94E3090C948E810C94DD7EE3
:100580000C9435960C9411790C945E950C94AF6A8A
:100590000C94AD680C9481770C94038E0C946C9D34
:1005A0000C94ECA70C94C58E0C9449920C94B2A4B4
:1005B0000C9442690C94168D0C94BF8D0C944DAA2A
:1005C0000C94BAAA0C947B980C946B770C94F381DE
:1005D0000C9486970C942F980C94B8090C94C8A589
:1005E0000C94FA5C0C942B960C943BAA0C94119EE0
:1005F0000C947E660C9426960C949A920C94D49B40
:100600000C940D790C94DD5C0C9405780C94C9095C
:100610000C94E99A0C942B750C94C39F0C942FABFB
:100620000C9480910C94F5930C9449790C943E258C
:100630000C94E2770C9437AC0C9492900C94449CFC
:100640000C94E4910C940E780C9411AA0C949BA534
:100650000C9474960C94D5810C94A8760C947A879B
:100660000C94C9960C94FEA60C94E99E0C94CF9E13
:100670000C9444960C9414690C94C5A60C94AE8DFD
:100680000C94C6760C941F790C94E6770C94CE9358
:100690000C94C2240C94D39F0C9409AA0C94DC9C57
:1006A0000C943AA10C94BC810C94ED8E0C942D26E4
:1006B0000C9447790C9421670C941CA70C9420A8E7
:1006C0000C940E6A0C944F790C9499760C94A18F2B
:1006D0000C9471260C9455980C9407820C943096C7
:1006E0000C9463970C944D660C9468920C943A7F2A
:1006F0000C9416790C9475920C94A68D0C94798FA9
:100700000C9454790C94207F0C943A6B0C94D86818
:100710000C9495940C94C797C4DFE9EFF3F6F9FBBA
:10072000FDFE000102030405060708090A32002D38
:10073000280023001E0000190000140000000F0014
:10074000000000000A000000000000000000056436
:100750005F5A55504B46413C3732002D280023004C
:100760001E0000190000140000000F00000000002F
:100770000A0000000000000000000532373C41463E
:100780004B50555A5F645761726E696E673A2043E9
:10079000616C63756C61746564206D757369632049
:1007A000636F756E742065786365656473206D6131
:1007B00078696D756D20706F737369626C653B202D
:1007C0005344206361726420636F72727570746940
:1007D0006F6E206C696B656C7921005761726E6970
:1007E0006E673A20547261636B20636F756E74207C
:1007F000646F6573206E6F74206D6174636820662A
:1008000069726D776172652120506C656173652036
:1008100075706461746520746865206D6963726FBA
:100820005344206361726420736F756E6420656643
:1008300066656374732E0001020304050607080948
:100840000A0B0C0D0E0F1011121314151617181990
:100850001A1B1C1D1E1F20212223242526272801A8
:100860000203040506070809000A0B0C0D0E0F1001
:10087000111200131415161718191A1B001C1D1E2F
:100880001F20212223240001020304050000000090
:1008900000060708090A00000000000B0C0D0E0FEF
:1008A00000000000001011121314000000000001ED
:1008B0000203000000000000000405060000000024
:1008C000000000070809000000000000000A0B0CEF
:1008D0000000000000000001000000000000000017
:1008E0000002000000000000000000030000000003
:1008F00000000000000400000000000000000000F4
:100900001C120A041F160D02110C07010A0704002D
:100910000A121C040D161F02070C110104070A41DC
:100920007474656E7561746F722053796E632045BF
:100930006E6400417474656E7561746F72205379D2
:100940006E63205374617274207C20436F6E6E2E30
:100950002053746174653A20005468656D652063A6
:1009600068616E67656420746F2046726F7A656E89
:1009700020456D7069726520283230323429005468
:1009800068656D65206368616E67656420746F20BB
:1009900041667465726C696665202832303231298F
:1009A000005468656D65206368616E6765642074D6
:1009B0006F20474232202831393839290054686580
:1009C0006D65206368616E67656420746F204742BF
:1009D000312028313938342900417474656E7561CD
:1009E000746F722053796E6368726F6E697A656492
:1009F000207C20436F6E6E2E2053746174653A2004
:100A000000417474656E7561746F722070726F74DA
:100A10006F636F6C206D69736D6174636821207CF6
:100A20002052656365697665643A2000207C204524
:100A3000787065637465643A2000417474656E75FE
:100A400061746F722070726F746F636F6C206D6968
:100A5000736D6174636821207C20526563656976DB
:100A600065643A2000207C20457870656374656475
:100A70003A200047657474696E67205061636B208B
:100A8000507265666572656E636573004765747460
:100A9000696E6720536D6F6B652050726566657275
:100AA000656E63657300436F6D706C65746564207B
:100AB000757064617465206F66207061636B20736C
:100AC000657474696E67730052756E6E696E672027
:100AD0007570646174652066756E6374696F6E739A
:100AE0002E2E2E005570646174696E6720706F77CA
:100AF00065722063656C6C207661726961626C65F9
:100B0000732E2E2E005570646174696E6720696EB5
:100B10006E6572206379636C6F74726F6E2076619C
:100B2000726961626C65732E2E2E0055706461745B
:100B3000696E67206F75746572206379636C6F747A
:100B4000726F6E207661726961626C65732E2E2EF3
:100B5000005570646174696E672067656E657261C7
:100B60006C207661726961626C65732E2E2E005363
:100B70006176696E67205061636B205072656665AF
:100B800072656E6365730057616E642053796E639E
:100B900020456E640057616E642053796E63205364
:100BA00074617274004E6F20417564696F204465F2
:100BB00076696365005761726E696E673A205253B9
:100BC000505F53595354454D5F494E464F206E6F09
:100BD0007420726563656976656421005573696E7A
:100BE00067205741562054726967676572005573D4
:100BF000696E672047505374617220417564696F54
:100C00002056657273696F6E3A2000C4D5DFE5E93E
:100C1000ECEFF1F3F4F6F7F8F9FAFBFCFDFEFF0058
:100C2000436F6E66696775726520506F77657220D5
:100C30004D6574657200556E61626C6520746F203D
:100C400066696E6420706F776572206D6F6E69746F
:100C50006F72696E6720646576696365206F6E20C8
:100C60006932632E20506F776572206D65746572EE
:100C70002066656174757265732077696C6C20629B
:100C8000652064697361626C65642E00506F7765DE
:100C900072204D6574657220526573756C743A20CC
:100CA00000496E697420706F776572206D65746598
:100CB000722E2E2E004552524F523A204E6F206314
:100CC000616C6C6261636B20617661696C61626CFE
:100CD0006520666F72207061636B657420494420E3
:100CE00000000000006410B71DC8206E3BAC30D976
:100CF000269041DC76F4516B6B5861B24D3C710526
:100D0000502083B8ED44930FF0E8A3D6D68CB3619E
:100D1000CBB0C2649BD4D2D38678E20AA01CF2BDC9
:100D2000BD57616E642053796E6368726F6E697A25
:100D300065640057616E642070726F746F636F6CCE
:100D4000206D69736D61746368210057616E642062
:100D500070726F746F636F6C206D69736D61746313
:100D6000682100526563762E2057616E6420536DB2
:100D70006F6B6520507265667300526563762E2036
:100D800057616E6420436F6E6669672050726566B6
:100D90007300526563762E2057616E64204461743F
:100DA000613A2000526563762E2057616E642043BD
:100DB0006F6D6D616E643A2000207C20436F6E6E13
:100DC0002E2053746174653A200057616E6420537D
:100DD000796E63696E67207C20436F6E6E2E2053A0
:100DE000746174653A200057616E642044697363CE
:100DF0006F6E6E6563746564207C20436F6E6E2E2B
:100E00002053746174653A2000417474656E756195
:100E1000746F722053796E63696E67207C20436F14
:100E20006E6E2E2053746174653A200041747465AF
:100E30006E7561746F7220446973636F6E6E656363
:100E4000746564207C20436F6E6E2E205374617431
:100E5000653A2000536176696E6720536D6F6B654C
:100E600020507265666572656E63657300536176C6
:100E7000696E672057616E642050726566657265A1
:100E80006E63657300526563762E20536D6F6B65DC
:100E900020436F6E66696700526563762E20576146
:100EA0006E6420436F6E66696700526563762E201C
:100EB0005061636B20436F6E6669670052656376AD
:100EC0002E20417474656E7561746F72204D657368
:100ED000736167653A2000526563762E2041747411
:100EE0002E20436F6D6D616E643A2000207C20439C
:100EF0006F6E6E2E2053746174653A2000000102FB
:100F0000030405060708090A0B0C0D0E0001020375
:100F10000405060708090A0B0C0E0D0C0B0A09083C
:100F200007060504030201000C0B0A090807060561
:100F30000403020100B80BB80BAC0DAC0DA00F30D0
:100F400075983A10274C1D70173D006401650166C5
:100F500001670100002100240027002A002D003035
:100F600000330001010000040107010A0100002014
:100F7000002300260029002C002F00320000010071
:100F800000030106010901010210202008081020B9
:100F90004010204080020102010804020101020405
:100FA00008102040808040201008040201800402C4
:100FB000018040201008040201080402010102041B
:100FC0000810204080010204081020408000002208
:100FD00000250028002B002E003100340002010003
:100FE00000050108010B01050505050705080808AE
:100FF00008020202020A0A080804040404010101AA
:1010000001010101010303030303030303040707B1
:10101000070C0C0C0C0C0C0C0C020202020606064F
:1010200006060606060B0B0B0B0B0B0B0B00000A40
:101030000B02090C0D0E080703040100000000005C
:1010400000000000000000000000000000000000A0
:10105000000000000000000000121110000000005D
:101060000000000000000000000000000000000080
:101070000000000066BAA08511241FBECFEFD1E2A8
:10108000DEBFCDBF00E00CBF13E0A0E0B2E0E4E0C3
:10109000F2E901E00BBF02C007900D92AA39B10737
:1010A000D9F728E1AAE9B3E001C01D92A235B20741
:1010B000E1F718E0CBE3D8E000E006C02197010992
:1010C000802FFE010E945FC3CA33D10780E008076A
:1010D000A9F70E9403860C94F0C80C94000020919C
:1010E0002104260F3327331F21323105ECF42091E0
:1010F0007105FC0190E080E0243069F082E0089501
:10110000A09121042191AC0141505C4FA40FB52F57
:10111000B11D2C930196861798F380912104680FD6
:101120006093210480E0089581E008950895089572
:101130000895E0912A0580912905E81730F4F0E040
:10114000E55DFA4F808190E008958FEF9FEF08955D
:1011500090912A05809129052FEF3FEF981748F4C9
:10116000E92FF0E0E55DFA4F208130E09F5F90933A
:101170002A05C90108958091290590912A05891BA6
:10118000990B0895CF92DF92EF92FF920F931F93E6
:10119000CF93DF937C01CB018A0120919905222313
:1011A00089F0EB016B01C40ED51ECC15DD0569F08D
:1011B0006991D701ED91FC910190F081E02DC7017B
:1011C0001995F3CF642F0E946F08C801DF91CF916A
:1011D0001F910F91FF90EF90DF90CF900895CF93E4
:1011E000DF931F92CDB7DEB7698320919905222343
:1011F000F9F020919705203258F021E030E0FC0111
:101200003383228390E080E00F90DF91CF910895A7
:1012100080919805E82FF0E0E958FA4F9981908382
:101220008F5F809398058093970581E090E0ECCFE5
:1012300061E0CE0101960E946F08F7CF90E080E058
:101240000895FC01208931898485958528173907FF
:1012500041F481E042895389268537854217530737
:1012600009F080E00895FC01208931898685978501
:101270002817390741F481E042895389248535854F
:101280004217530709F080E008958F929F92AF9222
:10129000BF92CF92DF92EF92FF92CF93DF93FC0148
:1012A0004A01AA24BB24C32ED42EE52EFF24DC2D14
:1012B000C22F8085982D882391F0C82FD0E0C89D3B
:1012C000D001C99DB00DD89DB00D11249B2F8C9DD0
:1012D00060011124DD2D829F90011124C32FA6856A
:1012E000218532858385A81321C0AB01440F551F8A
:1012F000640F751F620F731FA385A60FB72FB11D53
:101300009C93A485A60FB72FB11DDC938585680F2C
:10131000711DFB01C083DF91CF91FF90EF90DF90B3
:10132000CF90BF90AF909F908F900895660F771FDA
:10133000660F771F620F731FA60FB72FB11D1C9288
:10134000DBCF982F603411F460913C186150673006
:1013500088F4E62FF0E08827EF54F64F8F4F0C9477
:101360005FC3B809C409C909E309E509CB09CD0977
:1013700083E10895923019F1953089F0911127C0D9
:1013800084E108958DE0089580913A18833009F53D
:1013900008958BE0089584E608959530E1F48091F6
:1013A000FD038F5F853068F4982F937051F0809320
:1013B000FD038091FD03813061F3823019F781E0F4
:1013C000089581E0F4CF8DE6089585E6089585E0DF
:1013D00008958FE008958EEF0895843008F080E03E
:1013E00090915102E82FF0E080912102882399F03A
:1013F000943141F0983261F09C3039F4E55EF64F5B
:1014000084910895E95EF64FFBCFED5EF64FF8CF7D
:10141000E15FF64FF5CF943139F0983259F09C30B6
:1014200031F4E55FF64FECCFE95FF64FE9CFED5FC2
:10143000F64FE6CFE150F74FE3CF80913A18823074
:1014400020F0843068F0853011F18CE291E09093C7
:101450004402809343029093420280934102089594
:101460006091390270913A0290E080E00E9483C15D
:1014700026E636E646EA5FE30E94E4C10E9472C4B3
:1014800070934402609343028CE291E0E4CF88ECD5
:1014900090E09093440280934302F6CF853608F0A3
:1014A00084E62FEF829FC001112464E670E00E9461
:1014B0004BC3862F0895E82F8091DE03882391F097
:1014C0001E163CF40E2E000CFF0BE558F84F8491CD
:1014D0000895EF3D94F0FF27E1950CF4F095E35D5E
:1014E000F84FF5CFE53D4CF01E164CF0FF27E19587
:1014F0000CF4F095E15BF84FEACF80E0089584E6C4
:101500000895CF93DF93EC01888190911918891782
:1015100098F490E0FC01EE0FFF1F8E0F9F1FE091EB
:101520002418F0912518E80FF91FEB0188819981A3
:10153000AA8180839183A283DF91CF9108950F9335
:101540001F93CF93DF93EC018C01055E1D4FD801F3
:101550008D919C91DC01ED91FC910084F185E02D51
:101560001995892B59F0F80180819181DC01ED9169
:10157000FC910284F385E02D1995E9CFCE010E94FC
:101580002274FE01E65EFD4FCD5FDD4F88818083D2
:10159000DF91CF911F910F910895BF92CF92DF926B
:1015A000EF92FF920F931F93CF93DF931F92CDB7CC
:1015B000DEB78C016B01B42EDB018D919C91F8019B
:1015C000E15FFD4F7F018F3F910508F475C08FEFFC
:1015D00080836801F80180E091919E3709F067C02F
:1015E000D7018C9347E952E0B801C8010E943A74D0
:1015F0004091790850917A08980122503F4F80E03D
:10160000D601ED916D01E827E40FF52FF11D8081E2
:101610002A173B07A9F7F801E350FE4FB082F70104
:101620009081F801E250FE4F90839EEF31969083B7
:10163000319680838EEFF82E6801B5EECB1ABDEFA0
:10164000DB0AF60180819181B80164507E4FDC0194
:10165000ED91FC910280F381E02D44E050E019957A
:10166000F601808191814F2D50E0DC01ED91FC91DC
:101670000280F381E02DB8011995F60180819181F6
:10168000B8017E5FDC01ED91FC910280F381E02DD9
:1016900042E050E019958F2D0F90DF91CF911F916F
:1016A0000F91FF90EF90DF90CF90BF9008958F5FE4
:1016B0008E3F09F091CF96CF982F8FEF8083F8015E
:1016C00080E0891728F421912E3719F5F7018083DE
:1016D000D6018C918983AE014F5F5F4FB801C8017D
:1016E0000E943A74F601208131814091790850912D
:1016F0007A08D80180E03327BD01601B710B6217A7
:10170000730748F4ED91E827E40FF52FF11D808170
:10171000F3CF8F5FD6CFF801E350FE4FB082D701F1
:101720009C9131969083F6019081F801E150FE4F33
:10173000908331968083D601FC907ECF1092710504
:1017400081E08093700510924B0561E084E10E9476
:10175000D08061E085E10E94D080E9EBF0E08081FB
:101760008E7F808380818D7F808388E48093B80022
:1017700085E48093BC000895CF92DF92EF92FF92B0
:101780000F931F93CF93DF93EC0188810E94A78072
:101790008C010E94E1842C893D892017310731F0AA
:1017A0006E8B7F8B888F998F1D8B0C8BCE88DF88FB
:1017B000E88CF98C6C197D098E099F09CA80DB8041
:1017C000EC80FD806C157D058E059F0530F08A89C3
:1017D0009B89998B888B1B8B0A8B288939898A89ED
:1017E0009B892817390781F04A855B85423051056E
:1017F000A1F48E819F81A885B9850196A11DB11D97
:101800008E839F83A887B987DF91CF911F910F9116
:10181000FF90EF90DF90CF9008954115510531F47E
:101820002130310589F7892B21F3EECF4130510565
:1018300059F7232B49F7019739F7DBCFCF92DF9286
:10184000EF92FF920F931F93CF93DF9300D000D0BE
:1018500000D0CDB7DEB78C01DC0119968D919C913B
:10186000892B09F473C00E940C82F801C784D088C8
:10187000E188F2886C157D058E059F0520F4678749
:10188000708B818B928BF801C784D088E188F288B5
:101890006C197D098E099F096C3271408105910593
:1018A00010F3F894D80114968D919C9115979A8312
:1018B00089831996ED91FC917F01BFEFEB1AFB0A2A
:1018C00080818987F80190810388F489E02DD8010F
:1018D00055968C91992309F448C09081982B98874C
:1018E0009081809589238F838F818C8388E08B837F
:1018F00058856F8149853B812C8189819A81D701E7
:10190000508347FD252F3A952083262F39F0441F19
:1019100000C000006083000000C0F2CF38E04D91AD
:1019200060830000019761F7D8015496FC93EE9311
:10193000539749873B832C839A83898378940E94A9
:101940000C82F8016787708B818B928B29960FB67A
:10195000F894DEBF0FBECDBFDF91CF911F910F91E5
:10196000FF90EF90DF90CF9008959081982B98870B
:101970009081809589238F838F818E8388E08D83EA
:1019800058856F8149853D812E8189819A81D70152
:10199000508347FD252F00C000C0208300C000C039
:1019A00000C000C000C060830000262F3A9541F0BF
:1019B000441F000000C000C000C000C000C0E8CF4D
:1019C00038E04D9100C0608300C0019709F7D8014D
:1019D0005496FC93EE93539749873D832E83ACCF67
:1019E0000F931F93CF93DF9300D000D0CDB7DEB716
:1019F0008FEF9FEFDC0189839A83AB83BC8310E078
:101A000000E01E830D83BE016B5F7F4FCE01019608
:101A10000E94FA6EBE016A5F7F4FCE0101960E945E
:101A2000FA6E0F5F1F4F0533110559F78DE190E0F6
:101A30009E838D83BE016B5F7F4FCE0101960E9416
:101A4000FA6EBE016A5F7F4FCE0101960E94FA6E68
:101A500088E190E09E838D83BE016B5F7F4FCE0156
:101A600001960E94FA6EBE016A5F7F4FCE01019619
:101A70000E94FA6E69817A818B819C816095709554
:101A80008095909526960FB6F894DEBF0FBECDBF19
:101A9000DF91CF911F910F9108950F931F93CF93D3
:101AA000DF9300D000D0CDB7DEB78C01862F64362F
:101AB00060F1D8018C910E94567969837A838B8377
:101AC000CE0101960E945A6E6C837D838E83D8016D
:101AD000EC918091191860E0E81740F48091261885
:101AE00090912718E80FF92FF11D6081CE0104961F
:101AF0000E94D96E26960FB6F894DEBF0FBECDBFFA
:101B0000DF91CF911F910F910895642F0E94D77894
:101B1000D4CFFF920F931F93CF93DF93EC01F62E58
:101B200008811981C8010E94A2C2F81621F06F2D08
:101B3000C8010E94AAC2CE01DF91CF911F910F91DF
:101B4000FF900895EF92FF920F931F93CF93DF932F
:101B500000D000D0CDB7DEB70E94F00C69837A8345
:101B60008B839C83CE0101967C010CEF1FE01E83CA
:101B70000D83F70161917F01CE0105960E94890DC9
:101B80000F5F1F4F0115F0E11F0789F726960FB66B
:101B9000F894DEBF0FBECDBFDF91CF911F910F91A3
:101BA000FF90EF9008958F929F92AF92BF92CF9245
:101BB000DF92EF92FF920F931F93CF93DF931F92C9
:101BC0001F92CDB7DEB78C0119828FEF8A8368012F
:101BD00025EEC21A2DEFD20AD6018D919C91DC011F
:101BE000ED91FC910084F185E02D1995F801E75EF7
:101BF000FD4F7F01892B09F449C081E089834801A9
:101C0000FDEF8F1A9F0A580126EEA21A2DEFB20A95
:101C1000D6018D919C91DC01ED91FC910084F185C0
:101C2000E02D1995892B09F1F60180819181DC0164
:101C3000ED91FC910284F385E02D19958A83AE0124
:101C40004F5F5F4FBE016E5F7F4FC8010E945A74A5
:101C5000F7018083D4018C91F50180838330C1F238
:101C600018161CF0C8010E949F0AF70180810F908E
:101C70000F90DF91CF911F910F91FF90EF90DF9028
:101C8000CF90BF90AF909F908F900895AE014F5F1F
:101C90005F4FBE016E5F7F4FC8010E945A74D7012B
:101CA0008C93F801ED5FFD4F808177968083D8CFCC
:101CB000CF93DF9391E09093FE038823B9F0C09116
:101CC000B800D091BA008091BC008A7B8093BC00A0
:101CD00060E084E10E94D08060E085E10E94D080D5
:101CE0000E949E0BD093BA00C093B800DF91CF91B1
:101CF000089585ED8093BC008091730590917405E3
:101D0000A0917505B09176050796A11DB11D23E040
:101D1000B695A795979587952A95D1F72091BC0000
:101D200024FD03C0109271050895409173055091F0
:101D300074056091750570917605452B462B472BF0
:101D400069F30097A105B10541F02AE22A95F1F760
:101D500000C00197A109B109E1CF809172050C94EF
:101D6000580E1F920F920FB60F9211240BB60F92BE
:101D70002F933F934F935F936F937F938F939F9393
:101D8000AF93BF93EF93FF938091B900887F803624
:101D900009F44DC008F040C0883209F4A9C028F504
:101DA000803109F49DC0C8F4882309F4FBC0883051
:101DB00009F496C0FF91EF91BF91AF919F918F91E0
:101DC0007F916F915F914F913F912F910F900BBE3B
:101DD0000F900FBE0F901F901895883109F488C09E
:101DE000803241F780936F0514C0803409F49DC0A0
:101DF00040F48033B9F38833E9F680936F0585ECBE
:101E0000B0C0803509F485C0883509F496C088349F
:101E100089F60E94790ECECF883909F48CC038F546
:101E2000883729F050F4883611F0803719F683E0AE
:101E3000809371051092450457C0883809F47BC01F
:101E4000803919F0803809F0B5CF8091450480328F
:101E500008F071C0E091450481E08E0F8093450445
:101E60008091BB00F0E0EB5DFB4F80833DC0803B89
:101E700039F0E0F4803A09F479C0883A09F09ACF51
:101E800084E0809371051092220410922104E09165
:101E90001F04F091200419958091210481110FC035
:101EA00081E0809321041092FF0309C0803C09F473
:101EB000A6CF883C09F4A3CF883B09F07BCFE09103
:101EC000220481E08E0F80932204F0E0E150FC4F69
:101ED00080818093BB00909122048091210429C0CD
:101EE00080914C058093BB0085EC8093BC0062CF51
:101EF00090916E0580916D05981758F5E0916E05EB
:101F000081E08E0F80936E05F0E0E35BFA4F8081F5
:101F1000E9CFE0916E0581E08E0F80936E05809190
:101F2000BB00F0E0E35BFA4F808390916E058091F7
:101F30006D059817C8F285E8D8CFE0916E0581E06D
:101F40008E0F80936E058091BB00F0E0E35BFA4F4B
:101F500080838091700581115CCF81E080934B0577
:101F600084EA8093BC001092710524CF85EC8093A5
:101F7000BC001092710580914504803230F4E091EC
:101F80004504F0E0EB5DFB4F10826091450470E08A
:101F9000E0912304F091240485E294E019951092D5
:101FA000450408CF10926F0534CF8F929F92AF9265
:101FB000BF92CF92DF92EF92FF920F931F93CF9336
:101FC000DF93FC012085211110C060E070E0CB019F
:101FD000DF91CF911F910F91FF90EF90DF90CF9005
:101FE000BF90AF909F908F900895EC010E94E18484
:101FF00029852111EACF8C809D80AE80BF80088129
:1020000019812A813B816B017C01C818D908EA0833
:10201000FB08C016D106E206F306B8F6080D191D36
:102020002A1D3B1D68017901C61AD70AE80AF90A78
:10203000C701B601CDCFCF92DF92EF92FF921F93EF
:10204000CF93DF93FC01108511110AC010E0812F9E
:10205000DF91CF911F91FF90EF90DF90CF90089587
:10206000EC018185882319F018861986F0CF0E942B
:10207000E184CC80DD80EE80FF806C197D098E09C3
:102080009F09C880D980EA80FB806C157D058E058C
:102090009F0550F7DBCFCF93DF93EC014883598343
:1020A0006A837B830E94E1846C837D838E839F831C
:1020B00081E088871986DF91CF9108950F931F9350
:1020C000CF93DF93EC010E94E1848B019C018C8112
:1020D0009D81AE81BF81488159816A817B81081BC6
:1020E000190B2A0B3B0B041715072607370738F483
:1020F000CE01DF91CF911F910F910C944B10840F63
:10210000951FA61FB71F8C839D83AE83BF8381E07D
:1021100088871986DF91CF911F910F910895E7E687
:10212000F2E09081891307C081819281019749F083
:1021300083E098E10895389692E0E739F90789F746
:10214000F7CF8DEE97E108950F931F93CF93DF9311
:10215000FC0180810E948F10EC018E819F8197FD90
:102160002BC061E00E94FE8060E08E810E94D080E2
:1021700081E089832885222329F109851A85215048
:10218000E9F030E050E040E06FEF7FEF80E090E07A
:102190000E94B8C2F8014C815D81CF01801B910B78
:1021A0008417950770F44081429FC001439F900DB2
:1021B000112490833196EFCF1982DCCF30E020E0FC
:1021C000E9CF1886CE01DF91CF911F910F910C942A
:1021D0001E0CCF93DF931F921F92CDB7DEB7813CC9
:1021E000910509F1823C910579F184309105E1F581
:1021F000E6E3F8E0A9E8B8E081918D9388E0EF3359
:10220000F807D1F789E090E09A83898346E0BE0120
:102210006F5F7F4F89E898E00E94CD0A0F900F9082
:10222000DF91CF910895EBE4F8E0A9E8B8E08BE501
:1022300098E021912D938E179F07D9F780E190E0C8
:102240009A83898344E0E3CFEFE3F8E0A9E8B8E0BC
:1022500081918D9388E0EB34F807D1F78CE090E022
:102260009A83898345E0D3CF22E02093EC039093B7
:10227000EE038093ED036093EF037093F00394E01B
:102280009093F1032093890880938A088091EE034C
:1022900080938B0860938C0870938D0890938E08C0
:1022A00086E090E09A83898341E0B1CF70E060E0FE
:1022B0000C94E910E5ECFEE080914E028083809161
:1022C0004D02818380914C02828380914B028383F3
:1022D00080914A028483089580915102843161F093
:1022E000883221F08C3031F48FE001C087E0809398
:1022F0000602089585E0FBCF8AE0F9CF80912402A1
:1023000090912502892B21F088E0809305020895A1
:102310001092050208959091520280915102890F06
:1023200027E0280F209337189093E11780933618F1
:10233000209116028091F6034091240250912502CB
:10234000452BC9F0909105023FEF390F30934F02B2
:102350009093AF0F920F2FEF290F2093AE0F909312
:10236000AD0F8150890F891718F08093AC0F089535
:102370009093AC0F089510924F021092AF0F9FEF01
:10238000920F9093AE0F2093AD0F820F8150821762
:1023900060F72093AC0F089581E080931002809342
:1023A0000F0280930E0208958823E9F18091400284
:1023B0008823B9F180919C0490919504992339F177
:1023C000811127C0E0913E18F0E0EC53F14F80817D
:1023D000811125C080919304811121C08091400218
:1023E000882311F180919C04909195049923F1F038
:1023F00081111EC0E0913E18F0E0EC53F14F808156
:1024000081111CC080919304811118C00895882304
:1024100009F3E0913E18F0E0EF59FD4FD8CF5F9AF5
:10242000DDCF5F98DBCF5F9844980895882351F300
:10243000E0913E18F0E0EF59FD4FE1CF449A089546
:102440008823E9F1809140028823B9F180919C04AE
:1024500090919504992339F1811127C0E0913E189C
:10246000F0E0EC53F14F8081811125C080919304FD
:10247000811121C080914002882311F180919C0438
:10248000909195049923F1F081111EC0E0913E18BE
:10249000F0E0EC53F14F808181111CC080919304D6
:1024A000811118C00895882309F3E0913E18F0E0E7
:1024B000EF59FD4FD8CF429ADDCF4298DBCF4298FB
:1024C000A2980895882351F3E0913E18F0E0EF5967
:1024D000FD4FE1CFA29A089580910B02882349F025
:1024E00081E020916C0F30916D0F232B31F080E053
:1024F00008958091DD0391E089270895982F8091B8
:102500000802882369F0923049F4809126028823DA
:1025100051F081E0909151029C3029F480E003C099
:1025200081E09230D9F70895E82FF0E080915102D0
:102530008C3089F028F4843051F0E15AF74F09C00B
:10254000843161F08832C9F7E95CF74F02C0E95283
:10255000F74F84910895E155F74FFBCFE957F74FB7
:10256000F8CF8823D1F080919504882341F0E09141
:102570003E18F0E0EC53F14F8081811108C080914A
:102580009C04811104C080919B04882331F08091C8
:102590000B01886080930B01089580910B01877F68
:1025A000F9CFE8EEFEE0108611868EE180930002FE
:1025B00090E080E00C943A81909143189330B9F008
:1025C0009530D9F020912902222389F0882379F0CF
:1025D000923079F490919504992349F090910002FA
:1025E000891759F08093000290E00C943A810C9482
:1025F000D112909100029813F5CF0895BF92CF9217
:10260000DF92EF92FF920F931F93CF93DF93EC0132
:1026100080911A020E944E0AB82EF090E017E090C6
:10262000E11786ED97E10E941B10882309F4A9C1E8
:10263000FE188F2D0E949412E82E80913E0288236E
:1026400009F4B1C086E080930D0286EA97E10E940A
:10265000466F882389F010923E02D0934402C093C3
:102660004302AE0170E060E086ED97E10E944B10FE
:1026700080E4809304021BC086EA97E10E94B06F59
:102680009093440280934302AC0170E060E086EDD9
:1026900097E10E944B10809104028F5F8E3108F405
:1026A00080C08093040280910402813408F78091F5
:1026B000950481110CC080919C04811108C0809107
:1026C0009B04811104C0809104020E94DC1280915D
:1026D000100290915102943109F4F9C0983209F432
:1026E000F6C09C3009F4F7C0823008F4DDC090E0F9
:1026F0008C179D0709F4E8C0C81BD90B80913B18C3
:102700000E947E1281113DC1EF2DF0E0EC59FB4F8C
:10271000808181111BC0EE20C9F0809108028823BE
:10272000A9F029E1F29EC00111249C012A52304FE8
:10273000690160E0C9010E9416729E0150E040E00C
:1027400004E110E06B2DC6010E94E37180912A0222
:10275000882309F420C180915102843109F4C1C059
:10276000883209F418C190919D048C3009F4D5C0C9
:1027700091110DC080913E02811109C080919B048E
:10278000811105C080919204882309F40AC137E2BF
:102790008BE1F31609F4D7C083E1F812FEC08FE095
:1027A000D2C08EE17ECF80919D048823B1F186E076
:1027B00080930D0286EA97E10E94466F882319F004
:1027C00010929D0474CF86EA97E10E94B06F9093B7
:1027D000440280934302AC0170E060E086ED97E133
:1027E0000E944B102091430230914402293231055E
:1027F00068F080910402833320F0815080930402BA
:1028000005C02536310510F08F31B8F780910402EC
:102810008E3108F04CCF8EE12CCFD0934402C09380
:10282000430280911002909151029C3031F1943119
:1028300021F18230E8F0282F30E0AE01421B530B2B
:102840002C173D0711F450E040E0909108028A5F98
:10285000911101C086E080930D0280910D028B30B2
:1028600018F08AE080930D024115510591F013C0D4
:1028700086E080930D02AE01F0CF96E090930D02BA
:10288000823080F090E0AE01481B590B8C179D07F9
:1028900011F441E050E070E060E086ED97E10E94C5
:1028A0004B1005CFAE01E0CF80913E02811109C0EF
:1028B00080919D04811105C0CE01880F991FC80F1A
:1028C000D91F209709F01ACFC1E0D0E017CF82308E
:1028D00008F00DCFF1CF823008F009CFCC0FDD1F0B
:1028E000F0CF80919D0481110DC080913E02811135
:1028F00009C080919B04811105C0809192048823B6
:1029000009F44FC092E29F1508F449CF81EF8F0D73
:10291000853008F044C089E016C091110CC0809148
:102920003E02811108C080919B04811104C08091F6
:1029300092048823B1F120E22F1568F383EF8F0D05
:10294000873088F585E0209121029091E0172223BD
:1029500009F454C0E11029C02091D803281728F5A4
:102960002F5F2093D8032091E0178091520290E0CE
:1029700087962817190629F024F08091E117809393
:10298000E017DF91CF911F910F91FF90EF90DF90B3
:10299000CF90BF90089580E0D6CF85E1D4CF8BE073
:1029A000D2CF83E0D0CF87E0CECF1092D803C92F0B
:1029B000E11020C02091E117EC2EF12C822F90E045
:1029C00087968E159F057CF28C2F821B0E94941295
:1029D000882319F0C093E017C6CF8091520290E08F
:1029E0008796E816F90621F48091E1178093E017A5
:1029F000CF5FE0CF9F5F9093E017B5CFE11012C09B
:102A00002091D803281770F42F5F2093D80390915A
:102A1000E0178091E117981708F0B3CF8091520228
:102A2000895DADCF1092D803C92FE11010C08091FD
:102A3000E1178C1760F73C2F381B832F0E949412EC
:102A4000882319F0C093E017E2CFC150F0CF915026
:102A50009093E017DCCF80913A18853059F480913B
:102A60000802811107C090913B1881E0992321F061
:102A7000973011F080E00895089581E080933E0240
:102A800080933D0280933C020895DF92EF92FF9283
:102A90000F931F93CF93DF9384E6E82E84E0F82E04
:102AA0000EEA13E0D0E0C0E0DD24D394F7011192E8
:102AB0007F0160E0CE0182549C4E0E94167260E05D
:102AC000CE018A52904F0E941672F801D1928F0166
:102AD0006996C83EF3E0DF0749F7DF91CF911F9178
:102AE0000F91FF90EF90DF90089580911002811177
:102AF00003C081E08093100280911002853018F0AD
:102B000084E08093100280910F02811103C081E064
:102B100080930F0280910F02853018F084E080933B
:102B20000F0280910E02811103C081E080930E029A
:102B300080910E02853018F084E080930E02089593
:102B40002F923F924F925F926F927F928F929F92BD
:102B5000AF92BF92CF92DF92EF92FF920F931F93AB
:102B6000CF93DF93CDB7DEB7A2970FB6F894DEBF51
:102B70000FBECDBF8091490D0E945B0A282F809126
:102B80008E0488248394882311F072E0872E80912C
:102B9000210299249394882311F062E0962E80916B
:102BA0002302AA24A394882311F052E0A52E809139
:102BB0002A02BB24B394882311F042E0B42E809102
:102BC0004002CC24C394882311F032E0C32E8091BC
:102BD0002E02DD24D394882311F092E0D92E809127
:102BE0003F028111D5C0E1E0E8A380918D048111FD
:102BF000D2C0E1E0E9A3E0901202F0903818809191
:102C0000A50401E0811102E080915D0412E08111D0
:102C100011E080910B0231E0811132E08091F403E8
:102C200022242394882311F082E0282E809190049E
:102C30008111B4C0E1E0EAA38091270290912802BB
:102C400068EE73E00E9437C3762E8091DE0341E088
:102C5000811142E080912F0290913002E8EEF3E082
:102C6000BF010E9437C3362E80913102909132020B
:102C7000BF010E9437C3462E8091330290913402E7
:102C8000BF010E9437C3562E8091350290913602C3
:102C9000BF010E9437C3662E80913702909138029F
:102CA000BF010E9437C380914A02A1E08111A2E0D6
:102CB00080914B0271E0811172E080914C0251E0F1
:102CC000811152E080914D0291E0811192E080915A
:102CD0004E02811166C081E0253608F064C02F5F86
:102CE000E0912202E150E53008F05FC0F0E0E35AE5
:102CF000FD4FE08189829A82AB82BC82CD82DE82E6
:102D0000F8A1FF83F9A1F887E986FA860B871C876B
:102D10004D872E873F86488A598A6A8A6B8BAC8B8F
:102D20007D8B5E8B9F8B888FE98F3A8F2B8EEAA1EC
:102D3000EC8F7D8ECE0101967C0108E110E01F8FA3
:102D40000E8FF70161917F01CE014E960E94890D91
:102D50000F5F1F4F0533110591F70E94A20DA29638
:102D60000FB6F894DEBF0FBECDBFDF91CF911F919C
:102D70000F91FF90EF90DF90CF90BF90AF909F901A
:102D80008F907F906F905F904F903F902F9008951D
:102D9000F2E0F8A32ACFF2E0F9A32DCFF2E0FAA3F4
:102DA0004BCF82E099CF25E69BCFE4E0A3CF0F93F2
:102DB0001F93CF93DF931F921F92CDB7DEB708E129
:102DC00010E01A8309836FEFCE0101960E94890DEE
:102DD0000F5F1F4F05331105A1F70E94A20D0F9041
:102DE0000F90DF91CF911F910F910895EF92FF9275
:102DF0000F931F93CF93DF93CDB7DEB76A970FB6CC
:102E0000F894DEBF0FBECDBF80914B04F1E081305E
:102E100009F4F2E080910C0293E0813021F094E01B
:102E2000823009F092E0209124023091250282E064
:102E30002115310529F083E02130310509F084E0C6
:102E400020913B0261E0211162E020914A04E1E01F
:102E50002111E2E02091F50371E0211172E020914F
:102E60004D0451E0211152E02091500441E0211124
:102E700042E02091260231E0211132E02091490404
:102E8000211157C021E0A0915202A983A0915102C3
:102E9000AA83A0911602AB83FC83F0911C02FD83F0
:102EA000F0911E02FE83F0912002FF83F0911B023D
:102EB000F887F0911D02F987F0911F02FA87F091CF
:102EC0001702FB87F0911A02FC87F0911902FD8727
:102ED000F0911802FE87EF87E091F603E88B998B5B
:102EE0007A8B8B8B6C8B5D8B4E8B3F8B288FCE01BF
:102EF00001967C0110E000E01A8F098FF7016191C3
:102F00007F01CE0149960E94890D0F5F1F4F083146
:102F1000110591F70E94A20D6A960FB6F894DEBFD4
:102F20000FBECDBFDF91CF911F910F91FF90EF901A
:102F3000089522E0A8CF0F931F93CF93DF931F92A2
:102F40001F92CDB7DEB710E000E01A8309836FEF60
:102F5000CE0101960E94890D0F5F1F4F08311105A8
:102F6000A1F70E94A20D0F900F90DF91CF911F91BA
:102F70000F910895CF93DF93CDB7DEB764970FB667
:102F8000F894DEBF0FBECDBF20919C0530919D050A
:102F9000215031092230310580F4FE01319694E14F
:102FA000DF011D929A95E9F795E0998381110EC092
:102FB00085E18D83CF010E94DC7664960FB6F8948C
:102FC000DEBF0FBECDBFDF91CF91089584E1F1CF79
:102FD000CF93DF93CDB7DEB764970FB6F894DEBF1B
:102FE0000FBECDBF20919C0530919D052150310928
:102FF0002230310580F4FE01319694E1DF011D920B
:103000009A95E9F795E0998381110EC083E18D834C
:10301000CF010E94DC7664960FB6F894DEBF0FBE37
:10302000CDBFDF91CF91089582E1F1CF80935A0413
:103030002091550430915604121613063CF4682F63
:1030400080915704909158040C9441780895282F4A
:10305000853608F024E6822F65E00E942BC3992371
:1030600061F0822F90E0029665E070E00E944BC311
:10307000862F880F880F282F260F822F65E00E9449
:103080002BC3E82FF0E08091DE03882321F0E85E77
:10309000F84F84910895E55FF34FFBCFAB0120918A
:1030A0009C0530919D05215031092330310528F4CC
:1030B00021E06AEB7FEF0C946A78089520919C05DB
:1030C00030919D05215031092330310518F460E01D
:1030D0000C944178089582E190E00E945E1883E1AB
:1030E00090E00E945E1884E190E00E945E1885E105
:1030F00090E00E945E1886E190E00C945E182091AA
:103100009C0530919D05215031092330310510F483
:103110000C94667D089580913A188250823020F098
:103120008AE691E00C947F188CE390E0FBCF8DE869
:1031300090E00E947F188EE890E00E947F188FE850
:1031400090E00E947F1880E990E00E947F1881E95A
:1031500090E00E947F1882E990E00E947F1883E946
:1031600090E00E947F1884E990E00E947F1889E433
:1031700091E00E947F188CE491E00C947F1880917C
:103180003A18853061F48FE891E00E947F188DEB4A
:1031900091E00E947F1887E390E00C947F188BE603
:1031A00091E00E947F188CE691E0F7CFCF92DF92FA
:1031B000EF92FF920F931F93CF93DF936C01F62E44
:1031C000C42F14160CF4C0E0CA3B0CF4CAEB809177
:1031D0009C0590919D058230910591F18330910578
:1031E00019F0019709F048C00C2E000CDD0B2223CA
:1031F00081F06AEB7FEFC6010E94407D6E2DC60113
:103200000E94E97C20E0A801BE01C6010E946A7804
:1032100008C0BE01C6010E94407D6E2DC6010E94FD
:10322000E97C61E0F11001C060E0C601DF91CF915F
:103230001F910F91FF90EF90DF90CF900C94417809
:103240000C2E000CDD0B222361F06AEB7FEFC60130
:103250000E94407D50E040E06E2DC6010E94107D2E
:10326000D1CFBE01C6010E94407D50E040E06E2DEE
:10327000C6010E94107DD5CFDF91CF911F910F9194
:10328000FF90EF90DF90CF900895CF92DF92EF9272
:103290000F931F93CF93DF9368EE73E00E9437C3C1
:1032A000EB016B0184EBC80ED11CCB018D549F4FF9
:1032B0000E947F18C6010E947F18CE018B549F4F39
:1032C0000E947F18EE24E39410E000E020E040919B
:1032D000470D60E0C6010E94D618DF91CF911F9183
:1032E0000F91EF90DF90CF9008958330B9F198F46B
:1032F000823009F442C08091370290913802885E92
:103300009340803D27E0920708F446C0909338022E
:103310008093370212C0843091F0853061F780913C
:103320002F0290913002885E9340803D27E0920703
:1033300098F19093300280932F020C94451980915C
:10334000310290913202885E9340803D27E09207DF
:1033500018F19093320280933102EFCF80913302C3
:1033600090913402885E9340803D27E09207A0F060
:103370009093340280933302E0CF80913502909194
:103380003602885E9340803D27E0920728F09093B4
:10339000360280933502D1CF08958330B9F198F485
:1033A000823009F442C080913702909138028851EE
:1033B0009C4F81362AEE920708F046C0909338025F
:1033C0008093370212C0843091F0853061F780918C
:1033D0002F029091300288519C4F81362AEE92073D
:1033E00098F59093300280932F020C9445198091A8
:1033F00031029091320288519C4F81362AEE920719
:1034000018F59093320280933102EFCF809133020E
:103410009091340288519C4F81362AEE9207A0F495
:103420009093340280933302E0CF809135029091E3
:10343000360288519C4F81362AEE920728F49093E9
:10344000360280933502D1CF0895EF920F931F93E8
:1034500080919004882309F479C08091550E8111E0
:1034600006C080913A18843079F0853059F1409146
:1034700027025091280270E060E08DE49EE01F91E9
:103480000F91EF900C944B1080E190E00E947F1818
:1034900080913B18823071F44091470D4852EE24E0
:1034A000E39410E000E020E061E080E190E00E9421
:1034B000D618DDCFEE24E39410E000E020E0409148
:1034C000470DF2CF85E991E00E947F1880913B186B
:1034D000823029F54091470D4852EE24E39410E0E4
:1034E00000E020E061E085E991E00E94D6180E94AA
:1034F0002B15882309F4BBCF80918E048823B9F063
:103500008AEB91E00E947F18EE24E39410E000E043
:1035100020E04091470D61E08AEB91E0C8CFEE24B6
:10352000E39410E000E020E04091470DDBCF89EB11
:1035300091E00E947F18EE24E39410E000E020E088
:103540004091470D61E089EB91E0B1CF1F910F9160
:10355000EF900895EF920F931F9380913B18823064
:1035600009F472C0833091F1813009F474C0809104
:103570003A1890913E189150943008F04FC0833023
:1035800069F0853009F447C0823009F041C08DE709
:1035900091E00E947F188FE791E006C084E690E0FA
:1035A0000E947F1883E690E00E947F1880912B0292
:1035B000882321F089E090E00E947F1888E490E061
:1035C0000E947F1882E690E00E947F1880912C0272
:1035D00090912D02009709F445C0019709F466C047
:1035E000109254041092520480913B18853021F4BB
:1035F00083EA91E00E947F1880913B18863009F0A1
:1036000071C084EA91E01F910F91EF900C947F18A4
:1036100080E690E0BECF8FE491E0BBCF833059F0DD
:10362000853079F0823051F487E891E00E947F186C
:1036300089E891E0B9CF81E690E0B6CF8BE990E0E0
:10364000B3CF8FE491E0B0CF83E390E00E947F1886
:1036500084E390E0B9CF89E390E00E947F188AE389
:1036600090E0B2CF82E090E090932D0280932C0204
:1036700080919C0590919D05039741F48AE490E028
:103680000E947F1889E490E00E947F188091910E3B
:103690008111A6CFE12C10E000E020E04091470D21
:1036A00060E089E490E00E94D6189ACF82E090E032
:1036B00090932D0280932C028EE690E00E947F185A
:1036C0008FE690E00E947F188091910E811188CF43
:1036D000E12C10E000E020E04091470D60E08FE633
:1036E00090E0E1CF1F910F91EF900895EF92FF923C
:1036F0000F931F93CF93DF93EB01F22E132F042F21
:10370000FC01E0808E2D0E948F1028E0E29EF001E7
:103710001124E959FD4F24813581C217D307C8F41C
:10372000FC0122813381C217D30798F4212F30E0A6
:1037300050E040E0542F432F322F22274F29202BD7
:10374000BE01DF91CF911F910F91FF90EF900C94EC
:103750004509DF91CF911F910F91FF90EF90089550
:103760009F92AF92BF92CF92DF92EF92FF920F9310
:103770001F93CF93DF9300D000D0CDB7DEB75C01AD
:103780008B01D42E922EDC01CC908C2D0E948F10B8
:103790007C01B8E0CB9EF0011124E959FD4F8481F2
:1037A000958108171907D0F5E3E6ED1508F048C034
:1037B000492D6D2D8C2D0E94567969837A838B83D8
:1037C000CE0101960E945A6E6C837D838E83D50153
:1037D000EC918091191860E0E81740F48091261868
:1037E00090912718E80FF92FF11D6081CE01049602
:1037F0000E94D96EF701228133810217130770F4FA
:10380000272F30E050E040E0542F432F322F222763
:10381000462B282BB801C7010E94450926960FB6F2
:10382000F894DEBF0FBECDBFDF91CF911F910F91F6
:10383000FF90EF90DF90CF90BF90AF909F90089552
:10384000692D8D2D0E94D778B8CF4F925F926F92DD
:103850007F928F929F92AF92BF92DF92EF92FF92F0
:10386000CF937B01DC01CC918C2F0E948F10DC0167
:1038700088E0C89FF0011124E959FD4F84819581AA
:10388000E816F90608F0F4C012968D919C911397F2
:10389000E816F90608F0E8C01E968C911E971B9654
:1038A000CC911B9719966D917C911A9718968C90D4
:1038B0001897E82FF0E01C962C911C9730E01D968D
:1038C0004C9150E08C1366C0C701880F991F8E0D74
:1038D0009F1D680F791FE60FF71FE081260F371F26
:1038E000D901FC90640F751FDB01CC91882009F48D
:1038F00046C0912CB12CA12C6E2F70E0762F66273C
:10390000072E000C880B990BA50194010E94EAC2B6
:103910003901552444246F2D70E0762F6627072E39
:10392000000C880B990BA50194010E94EAC2542F48
:10393000432F322F2227422A532A642A752A6C2FBA
:1039400070E0762F6627072E000C880B990BA501D7
:1039500094010E94EAC2D301C201822B932BA42BB3
:103960006A2F792FCF91FF90EF90DF90BF90AF90AB
:103970009F908F907F906F905F904F9008958F2DC4
:1039800090E0B0E0A0E0BA2FA92F982F8827AE2BA7
:103990008C2BE6CFEE0CFF1CEE0CFF1C6E0D7F1D7A
:1039A000E60FF71FD080FB01EC0FF11DF080260F12
:1039B000371FF901C081640F751FDB01EC9088206F
:1039C00009F448C0912CB12CA12C6D2D70E0762FFC
:1039D0006627072E000C880B990BA50194010E9405
:1039E000EAC2722E6624552444246F2D70E0762F8F
:1039F0006627072E000C880B990BA50194010E94E5
:103A0000EAC2A90133272227422A532A642A6E2DAB
:103A100070E0762F6627072E000C880B990BA50106
:103A200094010E94EAC2422A532A642A6C2F70E051
:103A3000762F6627072E000C880B990BA5019401A1
:103A40000E94EAC2B42FA32F922F88278429952998
:103A5000A62986CF8F2D90E0B0E0A0E0DC01992769
:103A600088278E299C2B7CCF80E090E0DC0178CFEA
:103A700060E070E080E076CFEF92FF921F93CF93EB
:103A8000DF93E82EF12CE701CC0FDD1FFE01E65697
:103A9000FC4F20813181232BB1F481E090E00E9422
:103AA000D3C6FC01E08220911918E21638F4E091A7
:103AB0002618F0912718EE0DFF1D1082FE01E65624
:103AC000FC4F91838083C656DC4F88819981DF91BA
:103AD000CF911F91FF90EF9008958CE298E10E94A2
:103AE0001B10882301F180E00E943C1DFC018081B5
:103AF0000E948F100E941E0C84E00E943C1DFC015D
:103B000080810E948F100E941E0C40910D0250E097
:103B100070E060E08CE298E10E944B1080914F04CD
:103B2000811110924F0408952F923F924F926F92FD
:103B30007F928F929F92AF92BF92CF92DF92EF923D
:103B4000FF920F931F93CF93DF9300D000D000D04C
:103B50001F921F92CDB7DEB781E00E943C1D9B876C
:103B60008A878091260215E0882331F060913B1806
:103B700081E00E94A109182F80911A020E944E0A2A
:103B8000E82E80E00E94ED099090E117980E81E008
:103B90000E94ED09A090E117A80E82E00E94ED09B5
:103BA000B090E117B80E83E00E94ED099091E11703
:103BB000F82EF90E80913B182BEF280F223008F4D5
:103BC000E2C0843009F4DFC080902302292D30E068
:103BD0003A8329836A2D70E07C836B838110D8C07F
:103BE0004E2D612F8A859B850E944D0D6D837E83AE
:103BF0008F834E2D612F8A859B850E944D0D1B0161
:103C0000482E4E2D612F8A859B850E944D0D3B01CC
:103C1000882E4E2D612F8A859B850E944D0D6B014C
:103C2000E82E2D813E814F8169817A818A859B852D
:103C30000E94761B442D91016B817C818A859B8536
:103C40000E94761B8B2D90E099878887482D9301E1
:103C5000BC018A859B850E94761B0F2D10E04E2D9E
:103C60009601B8018A859B850E94761B80914D0440
:103C7000811149C169817A816F5F7F4F2D813E81BA
:103C80004F818A859B850E94761B8091E11729814F
:103C90003A816091371868508217130614F46FEF59
:103CA000690D70E02D813E814F818A859B850E9440
:103CB000761B6B817C816F5F7F4F442D91018A85DC
:103CC0009B850E94761B8091E1176B817C81861712
:103CD00017060CF45AC060913718685070E0442DF4
:103CE00091018A859B850E94761B688579856F5F27
:103CF0007F4F482D93018A859B850E94761B80917A
:103D0000E1172885398560913718685082171306A6
:103D100014F46FEF6B0D70E0482D93018A859B853D
:103D20000E94761BB8016F5F7F4F4E2D96018A85EA
:103D30009B850E94761B8091E1176091371868502F
:103D40008017110614F46FEF6F0D70E04E2D960181
:103D50008A859B852B960FB6F894DEBF0FBECDBF2C
:103D6000DF91CF911F910F91FF90EF90DF90CF9057
:103D7000BF90AF909F908F907F906F904F903F90AB
:103D80002F900C94761B15E01FCF6FEF6A0DA6CF16
:103D9000892F90E0CB2CD12C6F2D70E07E836D832A
:103DA000E981FA81E81BF90BEC59FB4F20812223B2
:103DB000C9F0EB81FC81E81BF90BEC59FB4F20812A
:103DC000222381F0F601E81BF90BEC59FB4F20810F
:103DD000222341F0FB01E81BF90BEC59FB4F8081DA
:103DE0008111A9C00E9445156091390270913A0273
:103DF00090E080E00E9483C120E030E040EC5FE38F
:103E00000E94E4C10E9472C49B01AC018091E11741
:103E100069817A81681B7109F9E17F2E769EC00164
:103E2000779E900D112401E010E06E2D8A52904F84
:103E30000E94E3716091390270913A0290E080E053
:103E40000E9483C120E030E040EC5FE30E94E4C1C7
:103E50000E9472C49B01AC018091E1176B817C814F
:103E6000681B7109769EC001779E900D11246E2DFE
:103E70008A52904F0E94E3716091390270913A0228
:103E800090E080E00E9483C120E030E040EC5FE3FE
:103E90000E94E4C10E9472C49B01AC018091E117B1
:103EA000B601681B7109769EC001779E900D1124A2
:103EB0006E2D8A52904F0E94E37160913902709189
:103EC0003A0290E080E00E9483C120E030E040ECC4
:103ED0005FE30E94E4C10E9472C49B01AC01809127
:103EE000E1176D817E81681B7109769EC001779E06
:103EF000900D11246E2D8A52904F0E94E371809193
:103F00004D04882311F12B960FB6F894DEBF0FBE37
:103F1000CDBFDF91CF911F910F91FF90EF90DF9078
:103F2000CF90BF90AF909F908F907F906F904F9069
:103F30003F902F900895812CE2CF9A9438C0AA9494
:103F40008BC0BA94DCC0FA942FC1882041F16091F3
:103F5000390270913A0290E080E00E9483C120E033
:103F600030E040EC5FE30E94E4C10E9472C44981EA
:103F70005A814F5F5F4F2091E117421B510929E1A0
:103F8000249FF001259FF00D112401E010E09B011A
:103F9000AC016E2DCF018A52904F0E94E3711091B7
:103FA000E117191550F29090371878EF970E882086
:103FB00009F449C06091390270913A0290E080E0C2
:103FC0000E9483C120E030E040EC5FE30E94E4C146
:103FD0000E9472C49B01AC01892D811B990BBC010D
:103FE000E9E17E2E769EC001779E900D112401E0BE
:103FF00010E06E2D8A52904F0E94E3716091390259
:1040000070913A0290E080E00E9483C120E030E0AD
:1040100040EC5FE30E94E4C10E9472C44B815C816A
:104020004F5F5F4F2091E117421B5109749EF001D1
:10403000759EF00D11249B01AC016E2DCF018A52AB
:10404000904F0E94E3711091E1171A1508F477CF91
:10405000A090371898EFA90E882009F447C0609106
:10406000390270913A0290E080E00E9483C120E022
:1040700030E040EC5FE30E94E4C10E9472C49B0107
:10408000AC018A2D811B990BBC0199E1A92EA69E3A
:10409000C001A79E900D112401E010E06E2D8A5200
:1040A000904F0E94E3716091390270913A0290E062
:1040B00080E00E9483C120E030E040EC5FE30E949A
:1040C000E4C10E9472C49B01AC019FEFC91AD90AD6
:1040D0008091E117C81AD108AC9CC001AD9C900D2D
:1040E00011246E2D8A52904F0E94E3711091E117B6
:1040F0001B1508F426CFB0903718E8EFBE0E8820C5
:1041000009F448C06091390270913A0290E080E071
:104110000E9483C120E030E040EC5FE30E94E4C1F4
:104120000E9472C49B01AC018B2D811B990BBC01B9
:1041300089E1D82ED69EC001D79E900D112401E0B2
:1041400010E06E2D8A52904F0E94E3716091390207
:1041500070913A0290E080E00E9483C120E030E05C
:1041600040EC5FE30E94E4C10E9472C49B01AC0179
:104170006D817E816F5F7F4F8091E117681B7109B0
:10418000D69EC001D79E900D11246E2D8A52904F5D
:104190000E94E3717091E11779837F1508F4D3CE03
:1041A000F090371888EFF80E882009F4ACCE6091B3
:1041B000390270913A0290E080E00E9483C120E0D1
:1041C00030E040EC5FE30E94E4C10E9472C42F2DF6
:1041D000E9812E1B330BA90129E1249FF001259FC2
:1041E000F00D112401E010E09B01AC016E2DCF0118
:1041F0008A52904F0E94E37186CE8F929F92AF9227
:10420000BF92CF92DF92FF920F931F93CF93DF93D2
:10421000C82F81E00E943C1D8C0180911A020E94EF
:104220004E0AF82E0E94751580912302CC2ED12CB7
:1042300081112DC02FEF40E0B601C8010E94B01BD4
:1042400080914D04811109C1B6016F5F7F4F2FEF3F
:1042500040E0C8010E94B01B8091E117C1508C154D
:104260001D041CF0C0913718C8506C2F70E02FEF60
:1042700040E0C801DF91CF911F910F91FF90DF9037
:10428000CF90BF90AF909F908F900C94B01B809177
:10429000E1179601281B3109F901EC59FB4F808188
:1042A0008F113DC0D9E1D29FC001D39F900D112441
:1042B0006F2D82549C4E0E9416726091390270914B
:1042C0003A0290E080E00E9483C120E030E040ECC0
:1042D0005FE30E94E4C14B015C016091100270E059
:1042E00090E080E00E9485C19B01AC01C501B40152
:1042F0000E9400C40E9472C49B01AC018091E1172E
:10430000B601681B7109D69FC001D79F900D11247B
:1043100001E010E060E082549C4E0E94E3718091C5
:104320004D0481119AC086010F5F1F4F8091E117E4
:104330009801281B3109F901EC59FB4F80818F113D
:104340003CC0D9E1D29FC001D39F900D11246F2DA5
:1043500082549C4E0E9416726091390270913A020A
:1043600090E080E00E9483C120E030E040EC5FE319
:104370000E94E4C14B015C016091100270E090E08A
:1043800080E00E9485C19B01AC01C501B4010E947F
:1043900000C40E9472C49B01AC018091E117081B0C
:1043A0001109D09FC001D19F900D112401E010E0B0
:1043B00060E082549C4E0E94E3718091E11790E08E
:1043C000C1508C159D051CF0C0913718C850D0E025
:1043D0009E01281B390BF901EC59FB4F80818F118D
:1043E0003CC019E1129FC001139F900D11246F2D45
:1043F00082549C4E0E9416726091390270913A026A
:1044000090E080E00E9483C120E030E040EC5FE378
:104410000E94E4C14B015C016091100270E090E0E9
:1044200080E00E9485C19B01AC01C501B4010E94DE
:1044300000C40E9472C49B01AC018091E117C81BAB
:10444000D1091C9FC0011D9F900D112401E010E0B7
:1044500060E082549C4E0E94E371DF91CF911F91E6
:104460000F91FF90DF90CF90BF90AF909F908F9073
:1044700008956F927F928F92AF92BF92CF92DF9208
:10448000FF920F931F93CF93DF93EC0186E080930D
:104490000D020E94751586ED97E10E941B1088237E
:1044A00009F4B4C06091100270E0CE010E9437C3DD
:1044B000EB0180913E02882309F4C9C086EA97E1A6
:1044C0000E94466F882309F4AEC010923E02AE01EE
:1044D00070E060E086ED97E10E944B10D0934402BB
:1044E000C093430286E28093040280919504811177
:1044F0000CC080919C04811108C080919B048111A3
:1045000004C0809104020E94DC1280913B180E943A
:104510007E1281117BC0D09108028091030281112B
:10452000C6C0DD2321F08091E0170E94FD2080911C
:10453000D6038F5F843008F0BDC08093D60380918E
:10454000D6030E94ED09C091E117C80FC093E01790
:10455000DD2309F45BC081E00E943C1D6C01809169
:104560002602D5E0882331F060913B1881E00E945B
:10457000A109D82F80911A020E944E0AF82E80912C
:1045800051028C3009F4D1E04F2D6D2FC6010E94ED
:104590004D0D3B01882EAC2EB12C482F9B01B5014F
:1045A000C6010E94761B8091E117F501E81BF10915
:1045B000EC59FB4FF08280914D04811127C0850199
:1045C0000F5F1F4F482D9301B801C6010E94761B53
:1045D0008091E11790E0081B190BF801EC59FB4F93
:1045E000F082C1508A159B051CF0C0913718C85045
:1045F000D0E0482D9301BE01C6010E94761B809138
:10460000E117C81BD109CC59DB4FF882DF91CF915C
:104610001F910F91FF90DF90CF90BF90AF908F9040
:104620007F906F90089586EA97E10E94B06FAC0189
:1046300070E060E086ED97E10E944B1086EA97E11A
:104640000E94B06F90934402809343024BCF8091BD
:104650009D04882321F186EA97E10E94466F882312
:1046600019F010929D0441CF86EA97E10E94B06F45
:10467000AC0170E060E086ED97E10E944B1086EAA5
:1046800097E10E94B06F909344028093430280911F
:10469000040281508E3108F026CF8EE124CFAB0189
:1046A00070E060E086ED97E10E944B101ECF109203
:1046B00003023DCF1092D60342CFEF92FF920F93A9
:1046C0001F93CF93DF9381E00E943C1D8C0180916A
:1046D00026028823B1F160913B1881E00E94A10974
:1046E000F82E809151028C3011F4FF24F3948091C4
:1046F0003A188250823040F1D0E0C0E08C2F0E9406
:104700009412882399F0FE01EC59FB4FE0808C2F26
:104710000E9494126091E117680F7727771F61500C
:1047200071092E2D4F2DC8010E94B01B2196C83251
:10473000D10521F7DF91CF911F910F91FF90EF905D
:10474000089585E0F82ECDCFC0E080915102C817C2
:1047500060F46091E1176C0F7727771F2FEF40E02F
:10476000C8010E94B01BCF5FF0CFDF91CF911F91A6
:104770000F91FF90EF900C944515FF920F931F93AC
:10478000CF93DF93182F80E00E943C1DEC018091B5
:10479000500404E1882331F060913B1880E00E94CE
:1047A000A109082F809117020E944E0AF82E8091CD
:1047B0009104082E000C990BE12FF0E08E179F0753
:1047C0001CF1209152022817190689F084F080917B
:1047D0003B02882389F02D3061F4E85DF04FE491CD
:1047E0006E2F70E02F2D402FCE010E94B01B1F5F57
:1047F000DECFE75EF04FF3CF2D3019F4E45FF04FDA
:10480000EECFE350F14FEBCFDF91CF911F910F919E
:10481000FF900895FF920F931F93CF93DF9383E050
:104820000E943C1DEC0180910802811187C2809199
:10483000260205E0882331F060913B1883E00E9456
:10484000A109082F809118020E944E0A182FF0909B
:10485000AD0380919B04882309F480C0FF2009F4F4
:104860004FC0A59A739A80910201886080930201DB
:104870008091020180618093020180910201806237
:1048800080930201809102018064809302018091F3
:10489000240290912502009709F450C200E001978C
:1048A000F1F4212F45E070E060E0CE010E94B01BE2
:1048B000212F45E061E070E0CE010E94B01B212F66
:1048C0004DE062E070E0CE010E94B01B212F4DE070
:1048D00063E070E0CE010E94B01B212FC6C0809122
:1048E0004F028150990B602F70E0681779070CF028
:1048F00025C2212F45E0CE010E94B01B0F5FEFCFF4
:10490000A598739880910201877F8093020180911E
:1049100002018F7E80930201809102018F7D80933E
:104920000201809102018F7B809302018091240219
:1049300090912502892B09F401C280914F02815088
:10494000990B6F2D70E0681779070CF0F7C12FEF06
:1049500040E0CE010E94B01BF394EFCF87E08F15AB
:1049600008F4ECC1EF2DF0E08827E654FB4D8F4FA3
:104970000C945FC3C224F1243E2596259625CD25AF
:104980002D267126A598739880910201877F8093C8
:104990000201809102018F7E8093020180910201C9
:1049A0008F7D80930201809102018F7B80930201B1
:1049B0008091240290912502892B09F4BFC110E057
:1049C00080914F028150990B612F70E06817790731
:1049D0000CF0B4C12FEF40E0CE010E94B01B1F5F6E
:1049E000EFCFA598739880910201877F8093020191
:1049F000809102018F7E809302018091020180628A
:104A00008093020180910201806480930201809171
:104A1000240290912502892B09F490C12FEF40E0E8
:104A200070E060E0CE010E94B01B2FEF40E061E03B
:104A300070E0CE010E94B01B2FEF40E062E070E01A
:104A4000CE010E94B01B2FEF40E063E070E0CE018A
:104A50000E94B01B8091240290912502212F019782
:104A600021F080913B1881114FC04FE064E070E06D
:104A7000CE010E94B01B212F4FE04EC0A598739825
:104A8000809102018860809302018091020180611F
:104A900080930201809102018062809302018091E3
:104AA000020180648093020180912402909125028A
:104AB000892B09F443C12FEF40E070E060E0CE01A4
:104AC0000E94B01B2FEF40E061E070E0CE010E9439
:104AD000B01B8091240290912502212F019709F4A7
:104AE000EFCE80913B18882309F4EACE402F62E094
:104AF00070E0CE010E94B01B212F402F63E070E0D8
:104B0000CE010E94B01B212F402F64E070E0CE0147
:104B10000E94B01B212F402F65E070E0CE01DF9195
:104B2000CF911F910F91FF900C94B01BA59A739A8F
:104B3000809102018860809302018091020180616E
:104B40008093020180910201806280930201809132
:104B500002018064809302018091240290912502D9
:104B6000009709F4EBC0019709F49BCE80913B18A4
:104B7000F12C882309F495CE80914F028150990B36
:104B80006F2D70E0681779070CF0D8C0212F402FE7
:104B9000CE010E94B01BF394EFCFA59A739A809137
:104BA00002018860809302018091020180618093FC
:104BB0000201809102018F7D8093020180910201A8
:104BC0008F7B8093020180912402909125020097AF
:104BD00009F4B4C0212F019749F180913B18882333
:104BE00029F1402F70E060E0CE010E94B01B212F20
:104BF000402F61E070E0CE010E94B01B212F402FBA
:104C000062E070E0CE010E94B01B212F402F63E0D4
:104C100070E0CE010E94B01B2FEF40E064E070E036
:104C2000CE010E94B01B2FEF40E076CF45E070E050
:104C300060E0CE010E94B01B212F45E061E070E0F2
:104C4000CE010E94B01B212F4DE062E070E0CE014A
:104C50000E94B01B212F4DE0DACFA59A739A809164
:104C60000201877F80930201809102018F7E8093F1
:104C70000201809102018F7D8093020180910201E7
:104C80008F7B8093020180912402909125020097EE
:104C900009F454C0212F0197D9F080913B18882343
:104CA000B9F0402F70E060E0CE010E94B01B212FD0
:104CB000402F61E070E0CE010E94B01B2FEF40E07A
:104CC00062E070E0CE010E94B01B2FEF40E09FCF6A
:104CD00045E070E060E0CE010E94B01B212F45E06E
:104CE000E8CFA598739880910201877F8093020195
:104CF000809102018F7E80930201809102018F7D5D
:104D000080930201809102018F7B80930201809148
:104D1000240290912502892B89F010E080914F02A6
:104D20008150990B612F70E0681779073CF42FEFE1
:104D300040E0CE010E94B01B1F5FF0CFDF91CF910A
:104D40001F910F91FF90089510929A0480E00E94A5
:104D50003C1DFC0180810E948F10FC014481558123
:104D600070E060E0818592850E94E2C884E00E9444
:104D70003C1DFC0180810E948F10FC014481558103
:104D800070E060E0818592850C94E2C80F931F93D8
:104D9000CF93A598739880910201877F8093020139
:104DA000809102018F7E80930201809102018F7DAC
:104DB00080930201809102018F7B80930201809198
:104DC0000802882311F02C982D981092AD0383E0EF
:104DD0000E943C1D8C018091240290912502892B18
:104DE00011F180910802C0E0882369F080914F02A0
:104DF0008C17C8F06C2F70E02FEF40E0C8010E94C4
:104E0000B01BCF5FF3CF80914F028150990B6C2F75
:104E100070E0681779073CF42FEF40E0C8010E946A
:104E2000B01BCF5FF0CFCF911F910F9108950F93DB
:104E30001F93CF9380E00E943C1D8C01C0E08091C5
:104E40005202C81748F46C2F70E02FEF40E0C80101
:104E50000E94B01BCF5FF3CF10929104CF911F91AE
:104E60000F910895EF920F931F93CF93DF9382EEEC
:104E700097E10E941B10882309F451C1C09191044D
:104E80008C2F0C2E000C990B20915202281719061A
:104E900011F00CF06AC00E94172710929104D0E024
:104EA000C0E080919C04811118C080919D04811103
:104EB00014C080913E02811110C080919B04811129
:104EC0000CC080913A18853021F4809192048111B0
:104ED00004C00E942B15882351F080918F048823F1
:104EE00031F080E691E00E945E1810928F044091AC
:104EF000EC17042F10E090913E0280913A188250F6
:104F0000823008F09BC0911104C080919D048823D9
:104F100061F086EA97E10E94B06F209139023091EA
:104F20003A02021B130B080F191F80919B04882360
:104F300039F085E09801829F8001839F100D112434
:104F400080910E02AE01400F511F823058F0843024
:104F500009F4BEC008F07EC0823009F48EC08330F0
:104F600009F4A3C090E080E093C080913A188530A6
:104F7000D9F50E942B15811139C0809192048111BD
:104F800035C080913E02811131C080919D04811114
:104F90002DC080919504811129C080919B048111BD
:104FA00025C080919C04811121C080918F048111C2
:104FB0001DC0C1111BC080919004882321F08091F5
:104FC000550E882399F04091470D4451EE24E39407
:104FD00008E715E021E061E080E691E00E94D61844
:104FE00081E080938F0402C0843059F280914F0495
:104FF000811155CF809191040E94BD23809191042D
:105000008F5F8093910490913A189450923008F0F9
:1050100046CF90919B04911142CF082E000C990B22
:10502000209152022817190611F00CF038CF809108
:10503000EC17CDE4D1E0C81BD10933CF911105C0E5
:1050400080919D04882309F470CF86EA97E10E943D
:10505000B06F69CF853009F44EC0863009F082CF39
:1050600080913A188450823008F442C0CA01433318
:10507000510570F082E390E00BC080913A188450A3
:105080008230C0F4CA014630510510F085E090E04E
:10509000481B590B70E060E082EE97E1DF91CF9101
:1050A0001F910F91EF900C944B1080913A188450FF
:1050B000823038F4CA014B30510550F38AE090E059
:1050C000E7CFCA014531510518F384E190E0E0CF04
:1050D00080913A188450823038F4CA014031510529
:1050E000B8F28FE090E0D4CFCA014F31510580F281
:1050F0008EE190E0CDCF80913A188450823038F420
:10510000CA014A31510520F289E190E0C1CFCA01BC
:105110004932510508F4BCCF88E290E0B9CFDF9165
:10512000CF911F910F91EF9008950F931F93CF93FD
:105130008091990481111AC081E00E943C1D8C016C
:10514000C0E080915102C81760F46091E1176C0FC4
:105150007727771F2FEF40E0C8010E94B01BCF5F79
:10516000F0CFCF911F910F910C944515CF911F91C6
:105170000F910895FF920F931F93CF93DF93F82E13
:1051800082E00E943C1D8C0160913B1882E00E94ED
:10519000A109D82FF0928C04C0913618FF2009F491
:1051A00048C080910802882309F443C08091950487
:1051B000882341F0E0913E18F0E0EC53F14F9081EC
:1051C000911104C090919C04992371F080913B1837
:1051D000811120C080913E18D3E08230D9F0A0F434
:1051E000813081F0D1E016C0882341F0E0913E1873
:1051F000F0E0EC53F14F80818823C9F080919B044B
:10520000882341F0D5E006C0DDE0833019F0D3E11A
:10521000843041F780913718C817C0F46C2F70E0C4
:105220002FEF4D2FC8010E94B01BCF5FF3CFD0E00E
:10523000F1CF80913718C81748F46C2F70E02FEF2A
:1052400040E0C8010E94B01BCF5FF3CFDF91CF9148
:105250001F910F91FF9008950F931F93CF9380910B
:10526000F603882399F085E00E943C1D8C01C091D3
:10527000AD0F8091AC0F8C1748F06C2F70E02FEFC2
:1052800040E0C8010E94B01BCF5FF3CFCF911F91C8
:105290000F910895BF92CF92DF92EF92FF920F93FA
:1052A0001F93CF93DF93EC0184E00E943C1D8C019F
:1052B0008CEC9FE00E941B10882309F4CBC18091E5
:1052C0003C02882309F48FC080EB9FE00E94466F68
:1052D000882309F4A7C010923C02AE0170E060E0A0
:1052E0008CEC9FE00E944B10D0934202C09341028D
:1052F0008091260225E0D22E882331F060913B1860
:1053000084E00E94A109D82EF09019028F2D0E94EE
:105310004E0AB82E0E942B15882359F080913B1815
:10532000811107C08F2D86950E944E0AB82E9BE0F2
:10533000D92E90914A042091210280910802C090B8
:10534000D703222309F4ABC09111ABC081111AC05D
:10535000EC2C0C2C000CFF082B2D4D2DB701C80197
:105360000E94B01B8091AF0F6091AE0F70E08E1560
:105370001F0419F0B701615071092FEF40E0C80117
:105380000E94B01B81E08C0D8093D703082E000C87
:10539000990B2091AE0F2817190624F48091AF0FB6
:1053A0008093D703E090F603EE2009F453C1809177
:1053B000D70380FD4FC18091960481114BC180912C
:1053C000D903811147C180911002863008F097C03F
:1053D000843008F0A0C0823008F0A9C06E0131E02E
:1053E000C31AD10893C080919604882379F10E9452
:1053F0002C2980EB9FE00E94466F882399F0109241
:1054000096048091910E882309F472CF809108024E
:1054100081116ECF8091D90381116ACF81E0809391
:10542000D90366CF80EB9FE00E94B06FAC0170E0C3
:1054300060E08CEC9FE00E944B1080EB9FE00E94AC
:10544000B06F909342028093410252CFD0934202B8
:10545000C0934102809110028230B8F0853040F054
:10546000CE010497C430D10559F4C1E0D0E00FC09B
:1054700090E08C179D07C9F39E01281B390BC901C9
:10548000C817D90790F3EC0102C0209771F3AE0161
:1054900070E060E08CEC9FE00E944B1029CF9111EE
:1054A00055CF81111BC0EC2C0C2C000CFF082B2DB0
:1054B0004D2DB701C8010E94B01B8091AE0F6091C5
:1054C000AF0F70E08E151F0421F01CF0B7016F5F65
:1054D0007F4F2FEF40E0C8010E94B01B8FEF8C0D73
:1054E0008093D703082E000C990B2091AF0F28173B
:1054F000190609F00CF456CF8091AE0F51CF6E0112
:1055000034E0C31AD1088A3008F068CF82E0C816A8
:10551000D104A8F408C06E0123E0C21AD10832E019
:10552000C316D10460F482E0C82ED12C08C06E01ED
:1055300082E0C81AD10822E0C216D104A0F385E0A7
:105540000E943C1D8C01D091AD0FFF24FA94FD0EFA
:10555000E694FE0C809119020E944E0AE82E2D2F2F
:1055600030E0C9014496CD2FF816190609F01CF455
:10557000DF1508F4CF2D8091AC03082E000C990B99
:105580008217930714F4D093AC03D0913B18F0909A
:10559000AC03D63029F00E942B1540E0882301F19E
:1055A0008F2D0F2C000C990BC817190609F0BCF4AD
:1055B000D63009F45DC09091FD039F5F953008F0EF
:1055C00053C0892F837009F44FC09093FD038091DD
:1055D000FD034BE0813021F0823009F449C04DE0F9
:1055E0008091F50390912102992309F443C0811120
:1055F00043C028E2C216D104E8F480910802811168
:1056000019C0CF2D0F2C000CDD0B2E2DBE01C801B3
:105610000E94B01B8091AD0F6091AC0F70E08C17B1
:105620001D0619F0BE01615071092FEF40E0C8015D
:105630000E94B01B81E08F0D8093AC03082E000CFC
:10564000990B2091AC0F2817190624F48091AD0F07
:105650008093AC03DF91CF911F910F91FF90EF905A
:10566000DF90CF90BF90089581E08093FD03AFCF8E
:1056700041E0B6CF8111BDCF38E2C316D104F0F4BA
:105680008091080281111AC0CF2D0F2C000CDD0B68
:105690002E2DBE01C8010E94B01B8091AC0F6091FD
:1056A000AD0F70E08C171D0621F01CF0BE016F5F7E
:1056B0007F4F2FEF40E0C8010E94B01B8FEF8F0D8E
:1056C0008093AC03082E000C990B2091AD0F281786
:1056D000190609F00CF4BECF8091AC0FB9CFEF9250
:1056E0000F931F9380919504882321F00E94AA1A9A
:1056F0000E94CC1180913A188330A1F1853009F4D1
:1057000043C08230B1F58CE791E00E947F188BE7AF
:1057100091E00E947F18EE24E39410E000E020E086
:105720004091470D60E082E090E00E94D6188091A1
:105730003A18833009F044C020E04091470D60E002
:1057400087E290E00E94D61880913B18823009F4DD
:1057500042C0833009F472C0813009F040C087E351
:1057600090E03BC085E290E00E947F1886E290E0E6
:10577000D0CF81E090E00E947F188FE090E00E94FF
:105780007F1880E190E0C5CF81E090E00E947F1813
:1057900085E991E00E947F188091DA03882309F45B
:1057A000BACF8EE491E00E947F1889EB91E00E94CD
:1057B0007F188AEB91E00E947F181092DA03ABCF3A
:1057C000EE24E39410E000E020E04091470D60E01B
:1057D00083E290E0B7CF82E390E00E947F1880914F
:1057E0009C0481111CC0EE24E39410E000E020E052
:1057F0004091470D61E08BE490E00E94D61820E0D4
:105800004091470D61E08EE790E00E94D61820E0BD
:105810004091470D60E08FE790E00E94D61880919C
:105820000802811102C00E942C2980914318853002
:1058300041F41F910F91EF900C94D11287E491E005
:10584000CCCF1F910F91EF9008950F931F93CF939B
:1058500084E00E943C1D8C01C091AF0F8091AE0F7F
:105860008C1748F06C2F70E02FEF40E0C8010E94C9
:10587000B01BCF5FF3CFCF911F910F9108952F925F
:105880003F924F925F926F927F928F929F92AF92D0
:10589000BF92CF92DF92EF92FF920F931F93CF931D
:1058A000DF9300D000D01F92CDB7DEB780E00E941A
:1058B0003C1D6C0181E00E943C1D8C0183E00E9434
:1058C0003C1D9F838E8384E00E943C1D7C0180E010
:1058D0000E94ED09A090E1178A0D898381E00E9462
:1058E000ED099091E117890F8A8382E00E94ED090A
:1058F0008090E117880D8B8383E00E94ED09609012
:10590000E117860D8C83409037184A944D82209081
:10591000DC0380915102332433948C3011F085E004
:10592000382E80915202281608F0D3C08DE49EE0F4
:105930000E941B10882309F4CCC080915202E22DF2
:10594000F0E090913B02992309F48EC08D3009F06C
:1059500088C0E85DF04FE4916E2F70E02FEF44E1D6
:10596000C6010E94B01B2981E22FF0E08A81882EB7
:10597000912C9B81A92EB12C2C81622E712C8D81B2
:10598000482E512C822D65E00E942BC32FEF9111E0
:1059900044C1432DBF01C8010E94B01B2FEF432D0E
:1059A000B401C8010E94B01B2FEF432DB501C801FF
:1059B0000E94B01B2FEF432DB301C8010E94B01B02
:1059C0002FEF41E0B201C8010E94B01B8091240278
:1059D00090912502892B09F44FC02FEF45E070E02C
:1059E00060E08E819F810E94B01B2FEF45E061E057
:1059F00070E08E819F810E94B01B2FEF4DE062E02E
:105A000070E08E819F810E94B01B2FEF4DE063E01C
:105A100070E08E819F810E94B01B2FEF4FE064E009
:105A200070E08E819F810E94B01B2FEF4FE065E0F8
:105A300070E08E819F810E94B01B60914F02615087
:105A4000770B2FEF4FE08E819F810E94B01B6091FA
:105A50004F0270E02FEF4DE08E819F810E94B01BBE
:105A600023C0E75EF04F77CF8D3019F4E45FF04F3D
:105A700072CFE350F14F6FCFA59A739A80910201D4
:105A8000886080930201809102018061809302010D
:105A90008091020180628093020180910201806402
:105AA000809302012C9A2D9A8091DC038F5F809362
:105AB000DC039091520289132DC11092550E109261
:105AC000560E4EE150E060E070E083E49EE00E94FC
:105AD0004B105090DB0380915202581608F059C1C8
