:100000000C945D080C948E080C948E080C948E0849
:100010000C948E080C948E080C948E080C948E0808
:100020000C948E080C948E080C948E080C948E08F8
:100030000C948E080C948E080C948E080C948E08E8
:100040000C948E080C948E080C948E080C948E08D8
:100050000C948E080C948E080C948E080C94EE8DE3
:100060000C948E080C946D4F0C94434F0C948E0896
:100070000C948E080C948E080C948E080C948E08A8
:100080000C948E080C948E080C948E080C948E0898
:100090000C94194F0C94EF4E0C948E080C94A611EE
:1000A0000C948E080C948E080C948E080C948E0878
:1000B0000C948E080C948E080C948E080C948E0868
:1000C0000C948E080C948E080C948E080C94C54EDB
:1000D0000C949B4E0C948E080C94714E0C94474ECD
:1000E0000C948E0805A84CCDB2D44EB93836A9026E
:1000F0000C50B9918688083CA6AAAA2ABE00000026
:10010000803F07634236B79BD8A71A39685618AEA6
:10011000BAAB558C1D3CB7CC5763BD6DEDFD753E3C
:10012000F6177231BF000000803F08000000BE9249
:100130002449123EABAAAA2ABECDCCCC4C3E00002C
:100140000080BEABAAAAAA3E00000000BF000000CB
:10015000803F0000000000084178D3BB4387D113E3
:100160003D190E3CC3BD4282AD2B3E68EC8276BE8B
:10017000D98FE1A93E4C80EFFFBE01C4FF7F3F0055
:10018000000000000C9438A80C94FBAC0C94649F05
:100190000C945E960C94B19A0C9472AF0C9450A887
:1001A0000C9440800C94DF9E0C94AA970C94F54715
:1001B0000C94EA820C94314B0C947DB20C94464A18
:1001C0000C946BA50C94E89A0C94E8A00C94654AE6
:1001D0000C94B9820C94A4A60C94C2B30C94EE892E
:1001E0000C946F4B0C9452980C94B3800C94E9B41B
:1001F0000C94859C0C9457A50C94B7890C943EB133
:100200000C94CF820C94FFA50C9495AB0C9440AE4B
:100210000C9411800C94E9140C94DFA90C949F4762
:100220000C941CB10C94CCAF0C942CB00C94C4A6C0
:100230000C948A720C94FB490C946E830C94448049
:100240000C94149B0C94C9080C94770A0C941FB45A
:100250000C9436A70C94C2A00C949F820C94A8A76F
:100260000C940FB30C94E6950C94CC970C94DA9EF6
:100270000C942E980C9446B00C94C1820C94C7AE8A
:100280000C9486B10C94DA890C945B460C944F4D17
:100290000C94FAC20C94D59E0C949CA80C94D08912
:1002A0000C944E810C94C2A70C9483B40C9467A454
:1002B0000C9482460C942E730C94EB740C94528123
:1002C0000C94B6B00C940D4A0C94A3B30C9495A066
:1002D0000C94110A0C94AD9D0C9475890C94B496F1
:1002E0000C9493A50C9428470C94E99E0C9410153B
:1002F0000C94DE970C94D6140C9433810C943D9B93
:100300000C943F090C9472980C949A550C943CB33D
:100310000C94E9A50C94E3080C9401570C94609795
:100320000C9493820C9424800C94A2B40C94BA087C
:100330000C94CEB10C944E830C9431B30C94368053
:100340000C94229E0C9461B40C94C1730C94BC9ECA
:100350000C94C3820C94A54B0C941C9D0C94F097A8
:100360000C94A4820C94A49A0C947A810C940A0A9A
:100370000C9442B40C94B89F0C9404810C94FE9F8E
:100380000C94EC490C9485B20C94FB820C94304A8A
:100390000C946B9C0C94DC080C9440980C94D79FA4
:1003A0000C940F0A0C9409800C94CA090C941F9A9F
:1003B0000C94579A0C942F560C9471990C9471814B
:1003C0000C94B1A50C946B890C94C7820C941F906B
:1003D0000C940B960C94F99D0C94DAAA0C941A8048
:1003E0000C94199B0C9439A90C948F460C94C69EBE
:1003F0000C9403A60C9476AA0C9488810C943280F9
:100400000C949C460C94A04A0C9477AC0C947CA35E
:100410000C94E0820C94C5950C94444A0C94959FDE
:100420000C94D7800C94C09C0C9466890C94BD806D
:100430000C947C4A0C945EA00C94A18E0C945B9A54
:100440000C94839A0C94B1990C9431AF0C94B3AD85
:100450000C94B2820C94C3800C94BC820C946FA553
:100460000C9408B50C94E4890C94959C0C9484B37A
:100470000C947C4C0C94019E0C94C8550C9490AF39
:100480000C9406980C947AB00C94AFB20C94CFAB49
:100490000C94989C0C94DB4C0C9464980C94D24B68
:1004A0000C9405800C940B9E0C94AE820C94F982F3
:1004B0000C94FD9D0C94B5820C94EB140C94368135
:1004C0000C94E2AF0C94E1B30C946E470C949897A3
:1004D0000C94B3AC0C94AA980C9455960C94CE4CF6
:1004E0000C94324A0C9494B00C94514A0C9474A716
:1004F0000C94F8AF0C94ED140C9495AC0C94045738
:100500000C94A9460C9413AE0C948EA70C949147AE
:100510000C941DA80C94FAB00C9468A80C9407577E
:100520000C9445960C946D550C9478A80C94F8890D
:100530000C94D0490C94D1820C94249F0C94A180EB
:100540000C9499890C94CAB40C94D09E0C94B9085C
:100550000C9406740C9400B40C94B7970C94E55565
:100560000C9460B00C94AEAF0C94C5720C94C1B2F4
:100570000C94B8080C94D5A30C9442830C949174F9
:100580000C943F800C94E49E0C940F9F0C9481B2C9
:100590000C940D800C9414800C944D960C940EA128
:1005A0000C94B7080C9489890C9473A50C94C5829B
:1005B0000C94A8AA0C9491550C94FB980C946897F1
:1005C0000C94E6820C94CD820C94D7A40C94CB822C
:1005D0000C9485A60C942AA40C94E7990C949297F9
:1005E0000C9468810C94FD820C94AD890C94E88283
:1005F0000C943A800C9461A50C94329D0C94374A6B
:100600000C9407A60C949A820C94D3A50C94100910
:100610000C94F8800C940B570C9413A60C947D4703
:100620000C94914A0C941F830C94170B0C94D5498D
:100630000C9487480C94E58F0C9464970C948FAAC3
:100640000C94929C0C948AA80C9440AC0C94C19E7F
:100650000C9485550C94ED800C948E820C94079B21
:100660000C945D4C0C94A7800C9428800C94C1AA27
:100670000C9421A00C9418980C94789C0C942C80C9
:100680000C94234A0C94E4820C9442480C94E84A5B
:100690000C9431990C946F0D0C94E2140C94424C10
:1006A0000C943B9E0C949CA00C94439C0C9429AD00
:1006B0000C94C6890C94399B0C9421960C94E2807E
:1006C0000C94D8B00C9457AD0C94B79E0C946DAEAE
:1006D0000C94C9820C9410810C9448A70C94E714D4
:1006E0000C9412B00C949AAE0C94AD800C947A9742
:1006F0000C94A3890C94114B0C94A2960C948181B8
:100700000C94FF7F0C941E800C94CB9E0C94AC46F2
:100710000C94D29A0C940D0A0C94ABB40C941C4A11
:100720000C94BF820C9416B20C9456810C9485AD37
:100730000C94E1AD0C9491890C941E4A0C945F8941
:100740000C947F890C948C97417474656E756174F8
:100750006F722053796E6320456E64004174746536
:100760006E7561746F722053796E63205374617279
:1007700074207C20436F6E6E2E2053746174653A32
:1007800020005468656D65206368616E676564204C
:10079000746F2046726F7A656E20456D7069726560
:1007A00020283230323429005468656D6520636832
:1007B000616E67656420746F2041667465726C6950
:1007C000666520283230323129005468656D652015
:1007D0006368616E67656420746F20474232202829
:1007E0003139383929005468656D65206368616E58
:1007F00067656420746F20474231202831393834CE
:100800002900417474656E7561746F722053796E3E
:100810006368726F6E697A6564207C20436F6E6EC8
:100820002E2053746174653A2000417474656E75AE
:1008300061746F722070726F746F636F6C206D697A
:10084000736D6174636821207C20526563656976ED
:1008500065643A2000207C20457870656374656487
:100860003A2000417474656E7561746F7220707205
:100870006F746F636F6C206D69736D617463682151
:10088000207C2052656365697665643A2000207C8F
:100890002045787065637465643A20004765747418
:1008A000696E67205061636B205072656665726582
:1008B0006E6365730047657474696E6720536D6F6E
:1008C0006B6520507265666572656E636573004383
:1008D0006F6D6D616E6420746F2057616E643A2095
:1008E00000436F6D706C657465642075706461742D
:1008F00065206F66207061636B2073657474696E28
:1009000067730052756E6E696E67207570646174EE
:10091000652066756E6374696F6E732E2E2E00559A
:1009200070646174696E6720706F776572206365AB
:100930006C6C207661726961626C65732E2E2E007C
:100940005570646174696E6720696E6E65722063AC
:1009500079636C6F74726F6E207661726961626C1C
:1009600065732E2E2E005570646174696E67206F5A
:1009700075746572206379636C6F74726F6E207624
:1009800061726961626C65732E2E2E005570646110
:1009900074696E672067656E6572616C207661723E
:1009A0006961626C65732E2E2E00536176696E67E5
:1009B000205061636B20507265666572656E636579
:1009C000730057616E642053796E6320456E640036
:1009D00057616E642053796E6320537461727400A2
:1009E0004E6F20417564696F2044657669636500C8
:1009F0005761726E696E673A205253505F53595374
:100A000054454D5F494E464F206E6F7420726563AA
:100A1000656976656421005573696E672057415694
:100A20002054726967676572005573696E67204765
:100A3000505374617220417564696F2056657273FA
:100A4000696F6E3A2000C4D5DFE5E9ECEFF1F3F40D
:100A5000F6F7F8F9FAFBFCFDFEFF00436F6E6669DE
:100A60006775726520506F776572204D6574657289
:100A700000556E61626C6520746F2066696E64203B
:100A8000706F776572206D6F6E69746F72696E67D3
:100A900020646576696365206F6E206932632E205D
:100AA000506F776572206D6574657220666561743C
:100AB000757265732077696C6C2062652064697358
:100AC00061626C65642E00506F776572204D6574AD
:100AD000657220526573756C743A2000496E6974B2
:100AE00020706F776572206D657465722E2E2E00F2
:100AF0004552524F523A204E6F2063616C6C6261D6
:100B0000636B20617661696C61626C6520666F72EF
:100B1000207061636B657420494420000000000070
:100B20006410B71DC8206E3BAC30D9269041DC76EE
:100B3000F4516B6B5861B24D3C7105502083B8ED98
:100B400044930FF0E8A3D6D68CB361CBB0C2649BBC
:100B5000D4D2D38678E20AA01CF2BDBD57616E6480
:100B60002053796E6368726F6E697A6564005761AD
:100B70006E642070726F746F636F6C206D69736D3B
:100B800061746368210057616E642070726F746FC6
:100B9000636F6C206D69736D6174636821005265C9
:100BA00063762E2057616E6420536D6F6B65205005
:100BB0007265667300526563762E2057616E6420FD
:100BC000436F6E6669672050726566730052656395
:100BD000762E2057616E6420446174613A20005281
:100BE0006563762E2057616E6420436F6D6D616E74
:100BF000643A2000207C20436F6E6E2E2053746177
:100C000074653A200057616E642053796E63696E93
:100C100067207C20436F6E6E2E2053746174653A9A
:100C2000200057616E6420446973636F6E6E656364
:100C3000746564207C20436F6E6E2E205374617443
:100C4000653A2000417474656E7561746F7220534B
:100C5000796E63696E67207C20436F6E6E2E205321
:100C6000746174653A2000417474656E7561746FC7
:100C70007220446973636F6E6E6563746564207C73
:100C800020436F6E6E2E2053746174653A200053BA
:100C90006176696E6720536D6F6B65205072656673
:100CA0006572656E63657300536176696E67205780
:100CB000616E6420507265666572656E636573006F
:100CC000526563762E20536D6F6B6520436F6E66A1
:100CD000696700526563762E2057616E6420436F0A
:100CE0006E66696700526563762E205061636B20E3
:100CF000436F6E66696700526563762E2041747497
:100D0000656E7561746F72204D6573736167653AC6
:100D10002000526563762E204174742E20436F6D3F
:100D20006D616E643A2000207C20436F6E6E2E2031
:100D300053746174653A200000010203040506073C
:100D400008090A0B0C0D0E00010203040506070832
:100D5000090A0B0C0E0D0C0B0A0908070605040303
:100D60000201000C0B0A0908070605040302010032
:100D7000B80BB80BAC0DAC0DA00F3075983A10271E
:100D80004C1D70173D006401650166016701C4DFF9
:100D9000E9EFF3F6F9FBFDFE000102030405060787
:100DA00008090A32002D280023001E000019000047
:100DB000140000000F00000000000A000000000006
:100DC0000000000005645F5A55504B46413C3732E5
:100DD000002D280023001E00001900001400000050
:100DE0000F00000000000A000000000000000000EA
:100DF0000532373C41464B50555A5F645761726E1D
:100E0000696E673A2043616C63756C617465642038
:100E10006D7573696320636F756E742065786365A3
:100E2000656473206D6178696D756D20706F737383
:100E300069626C653B205344206361726420636F78
:100E40007272757074696F6E206C696B656C792154
:100E5000005761726E696E673A20547261636B204D
:100E6000636F756E7420646F6573206E6F74206D90
:100E700061746368206669726D77617265212050C4
:100E80006C65617365207570646174652074686554
:100E9000206D6963726F5344206361726420736FC5
:100EA000756E6420656666656374732E00010203C7
:100EB0000405060708090A0B0C0D0E0F101112137A
:100EC0001415161718191A1B1C1D1E1F202122236A
:100ED0002425262728010203040506070809000A1D
:100EE0000B0C0D0E0F1011120013141516171819F4
:100EF0001A1B001C1D1E1F20212223240001020397
:100F000004050000000000060708090A00000000B0
:100F1000000B0C0D0E0F0000000000101112131436
:100F200000000000000102030000000000000004B7
:100F3000050600000000000000070809000000008E
:100F40000000000A0B0C000000000000000100007F
:100F5000000000000000000200000000000000008F
:100F6000000300000000000000000004000000007A
:100F70000000000000001C120A041F160D02110CD4
:100F800007010A0704000A121C040D161F02070CB1
:100F9000110104070A00002100240027002A002D67
:100FA000003000330001010000040107010A0100C4
:100FB000002200250028002B002E00310034000202
:100FC000010000050108010B01000020002300269C
:100FD0000029002C002F0032000001000003010650
:100FE00001090105050505070508080808020202B0
:100FF000020A0A08080404040401010101010101B4
:10100000010303030303030303040707070C0C0C8A
:101010000C0C0C0C0C020202020606060606060662
:10102000060B0B0B0B0B0B0B0B01021020200808FF
:10103000102040102040800201020108040201013A
:101040000204081020408080402010080402018023
:10105000040201804020100804020108040201017A
:101060000204081020408001020408102040800083
:10107000000A0B02090C0D0E080703040100000012
:101080000000000000000000000000000000000060
:10109000000000000000000000000012111000001D
:1010A0000000000000000000000000000000000040
:1010B000000000000000FAC2A18E11241FBECFEF75
:1010C000D1E2DEBFCDBF00E00CBF13E0A0E0B2E094
:1010D000E0E3FEE901E00BBF02C007900D92A83EDD
:1010E000B107D9F729E1A8EEB3E001C01D92A73BF3
:1010F000B207E1F718E0CCE5D8E000E006C02197A0
:101100000109802FFE010E9470C9CB35D10780E014
:101110000807A9F70E94A58E0C9406CF0C94000036
:1011200020915A05260F3327331F21323105ECF465
:1011300020917207FC0190E080E0243069F082E0A9
:101140000895A0915A052191AC01485C5A4FA40F13
:10115000B52FB11D2C930196861798F380915A05EF
:10116000680F60935A0580E0089581E0089508951E
:1011700008950895E0912B0780912A07E81730F42D
:10118000F0E0E45DF84F808190E008958FEF9FEFED
:10119000089590912B0780912A072FEF3FEF981722
:1011A00048F4E92FF0E0E45DF84F208130E09F5FE4
:1011B00090932B07C901089580912A0790912B07DE
:1011C000891B990B0895CF92DF92EF92FF920F93B4
:1011D0001F93CF93DF937C01CB018A0120919A0763
:1011E000222389F0EB016B01C40ED51ECC15DD0561
:1011F00069F06991D701ED91FC910190F081E02DAA
:10120000C7011995F3CF642F0E949008C801DF91A0
:10121000CF911F910F91FF90EF90DF90CF900895A5
:10122000CF93DF931F92CDB7DEB7698320919A07E2
:101230002223F9F020919807203258F021E030E085
:10124000FC013383228390E080E00F90DF91CF9107
:10125000089580919907E82FF0E0E858F84F9981B8
:1012600090838F5F809399078093980781E090E047
:10127000ECCF61E0CE0101960E949008F7CF90E09C
:1012800080E00895AF92BF92CF92DF92EF92FF92EB
:101290000F931F93CF93DF9300D0CDB7DEB75A01E2
:1012A00019821A821B82882361F18B01E1E0F0E050
:1012B000E82EF12CD8012D918D012223F1F06F0140
:1012C000B1E0CB1AD108D501AC0DBD1D4C91442322
:1012D000A1F030E02F5F3F4FD7010E941DC9A42F1E
:1012E000B0E011969B01AC010E94E8C8A1E0B0E01B
:1012F000AC0FBD1FAC0DBD1D8C933196E430F105D4
:10130000C9F669817A818B810F900F900F90DF91E0
:10131000CF911F910F91FF90EF90DF90CF90BF90F2
:10132000AF900895FC0184E293E09183808313825F
:1013300012828FEF86838783808781878287838766
:1013400081E0848785871786168680E797E1918BF1
:10135000808B83E090E0938B828B158A148A1582B0
:1013600014828091B1079091B207892B21F4F093F8
:10137000B207E093B107A0913505B09136051097FB
:1013800021F01596FC93EE931497F0933605E093B5
:101390003505089581E090E008950F931F93CF9352
:1013A000DF93209134052F5F322F3770309334054F
:1013B00020FF2BC020E831FD2064347009F020624A
:1013C000205FFC01EC01239600E011E067856623B5
:1013D00029F070E0C8010E945CC96F5F6187822FAD
:1013E000869F080E80E0811D1124811110C0168295
:1013F000662311F0615061873196EC17FD0731F7D4
:10140000DF91CF911F910F91089520E0D4CF8150AB
:101410008683EECF80E991E00895209A0895279A77
:1014200008956F927F928F92CF92DF92EF92FF9208
:101430000F931F93CF93DF93CDB7DEB762970FB6AD
:10144000F894DEBF0FBECDBF8C016B017A01822FF5
:10145000A801475F5F4FB8016A5F7F4F0E94420952
:101460003B01882ED8011C962C91C701F7FE04C0C1
:10147000882799278E199F09DA82C9829C838B83DA
:101480009E838D83688A798A8A8A213049F5CE01C4
:1014900001960E94CD0983E08D871F861E86F7FE88
:1014A00002C08DEF8D87D801ED91FC910088F18904
:1014B000E02DBE016F5F7F4FC801199562960FB690
:1014C000F894DEBF0FBECDBFDF91CF911F910F917A
:1014D000FF90EF90DF90CF908F907F906F90089566
:1014E0001C861B861A86198618861F82D4CFCF9237
:1014F000DF92EF92FF920F931F93CF93DF93CDB7BD
:10150000DEB762970FB6F894DEBF0FBECDBF8C0179
:101510006B017A01822FA801475F5F4FB8016A5FB4
:101520007F4F0E9442099B01482FD8011C968C9145
:10153000DA82C982FC82EB82FE82ED82288B398BB3
:101540004A8B813009F5CE0101960E94CD091D8696
:101550001F861E86D801ED91FC910088F189E02D4F
:10156000BE016F5F7F4FC801199562960FB6F89460
:10157000DEBF0FBECDBFDF91CF911F910F91FF90C6
:10158000EF90DF90CF9008951C861B861A861986EF
:1015900018861F82DCCF0F931F93CF93DF93EC014C
:1015A0008C01055E1D4FD8018D919C91DC01ED9160
:1015B000FC910084F185E02D1995892B59F0F801F3
:1015C00080819181DC01ED91FC910284F385E02D15
:1015D0001995E9CFCE010E94BF54FE01E65EFD4F92
:1015E000CD5FDD4F88818083DF91CF911F910F9177
:1015F00008951092720781E08093710710924C0752
:1016000061E084E10E94C18861E085E10E94C188B7
:10161000E9EBF0E080818E7F808380818D7F808305
:1016200088E48093B80085E48093BC0008954F92CD
:101630005F927F928F929F92AF92BF92CF92DF92F2
:10164000EF92FF920F931F93CF93DF932C01EB0147
:101650000E94FD89F20126893789621B730B6A306B
:101660007105B0F3F8948A819B81181619060CF065
:10167000CBC1E881F98105B1016075B17E7F75B993
:10168000BA848F812B2D281B822F2F834C85042E0B
:10169000000C550BAA81BB81E888DF84C988E394DC
:1016A000D394C3949E81388599848B84118120E0E2
:1016B000F32E622F322F3181112788943111380F88
:1016C00008F43FEF81958894E0FC130F17958894F8
:1016D000E1FC130F17958894E2FC130F179588947B
:1016E000E3FC130F17958894E4FC130F1795889467
:1016F000E5FC130F17958894E6FC130F1795889453
:10170000E7FC130F17958894232FE110212F8B0DE1
:10171000122F002C05B900C017FF75B930812227A0
:10172000889400C000C0002C75B93111390F00C079
:10173000002C05B900C016FF75B908F43FEF91956C
:10174000889400C000C0002C75B9D0FC230F00C0E5
:10175000002C05B900C015FF75B927958894D1FCF8
:10176000230F00C000C0002C75B92795889400C0D5
:10177000002C05B900C014FF75B9D2FC230F2795C2
:10178000889400C000C0002C75B9D3FC230F00C0A2
:10179000002C05B900C013FF75B927958894D4FCB7
:1017A000230F00C000C0002C75B92795889400C095
:1017B000002C05B900C012FF75B9D5FC230F279581
:1017C000889400C000C0002C75B9D6FC230F00C05F
:1017D000002C05B900C011FF75B927958894D7FC76
:1017E000230F00C000C0002C75B92795889400C055
:1017F000002C05B900C010FF75B9132FD110122F9E
:10180000990D00C000C0002C75B900C000C0002CAC
:1018100005B900C017FF75B932812227889400C02E
:1018200000C0002C75B931113F0D00C0002C05B966
:1018300000C016FF75B908F43FEFE40FF51F00C0B4
:1018400000C0002C75B9C0FC230F00C0002C05B9E6
:1018500000C015FF75B927958894C1FC230F00C0FF
:1018600000C0002C75B92795889400C0002C05B9DC
:1018700000C014FF75B9C2FC230F2795889400C0DF
:1018800000C0002C75B9C3FC230F00C0002C05B9A3
:1018900000C013FF75B927958894C4FC230F00C0BE
:1018A00000C0002C75B92795889400C0002C05B99C
:1018B00000C012FF75B9C5FC230F2795889400C09E
:1018C00000C0002C75B9C6FC230F00C0002C05B960
:1018D00000C011FF75B927958894C7FC230F00C07D
:1018E00000C0002C75B92795889400C0002C05B95C
:1018F00000C010FF75B9132FC110122FF19400C052
:1019000000C0002C75B9F80C00C000C005B900C0BB
:1019100017FF75B931812227889400C000C0002CC0
:1019200075B93111380F00C0002C05B900C016FF81
:1019300075B908F43FEF8195889400C000C0002C71
:1019400075B9E0FC230F00C0002C05B900C015FFDD
:1019500075B927958894E1FC230F00C000C0002CC6
:1019600075B92795889400C0002C05B900C014FFF4
:1019700075B9E2FC230F2795889400C000C0002CA5
:1019800075B9E3FC230F00C0002C05B900C013FF9C
:1019900075B927958894E4FC230F00C000C0002C83
:1019A00075B92795889400C0002C05B900C012FFB6
:1019B00075B9E5FC230F2795889400C000C0002C62
:1019C00075B9E6FC230F00C0002C05B900C011FF5B
:1019D00075B927958894E7FC230F00C000C0002C40
:1019E00075B92795889400C0002C05B900C010FF78
:1019F00075B9132FE110122F8B0D00C000C0002C01
:101A000075B9119709F086CEEA81FB812EE130E0AD
:101A1000DF010E9478C930E020E0A901AAE9EA9F2D
:101A20000E0E411DFA9F400D511D11244F0F511DE7
:101A3000DC01CB01840F951FA11DB11D893E43E040
:101A40009407A105B10508F434C0885E9340A1094C
:101A5000B10942E0B695A795979587954A95D1F734
:101A600047E0849F080E211D949F200D311D1124F5
:101A7000290F311D6091330570E0860F971F820F8B
:101A8000931F409126075091270760912807709176
:101A90002907292F3327420F531F611D711D4093C2
:101AA0002607509327076093280770932907809390
:101AB000330578940E94FD89F201778B668BDF9164
:101AC000CF911F910F91FF90EF90DF90CF90BF903B
:101AD000AF909F908F907F905F904F9008954F921E
:101AE0005F927F928F929F92AF92BF92CF92DF923E
:101AF000EF92FF920F931F93CF93DF932C01EB0193
:101B00000E94FD89F20126893789621B730B6A30B6
:101B10007105B0F3F8948A819B81181619060CF0B0
:101B2000CBC1E881F98105B1006875B17F7775B9DE
:101B3000BA848F812B2D281B822F2F834C85042E56
:101B4000000C550BAA81BB81E888DF84C988E39427
:101B5000D394C3949E81388599848B84118120E02D
:101B6000F32E622F322F3181112788943111380FD3
:101B700008F43FEF81958894E0FC130F1795889443
:101B8000E1FC130F17958894E2FC130F17958894C6
:101B9000E3FC130F17958894E4FC130F17958894B2
:101BA000E5FC130F17958894E6FC130F179588949E
:101BB000E7FC130F17958894232FE110212F8B0D2D
:101BC000122F002C05B900C017FF75B930812227EC
:101BD000889400C000C0002C75B93111390F00C0C5
:101BE000002C05B900C016FF75B908F43FEF9195B8
:101BF000889400C000C0002C75B9D0FC230F00C031
:101C0000002C05B900C015FF75B927958894D1FC43
:101C1000230F00C000C0002C75B92795889400C020
:101C2000002C05B900C014FF75B9D2FC230F27950D
:101C3000889400C000C0002C75B9D3FC230F00C0ED
:101C4000002C05B900C013FF75B927958894D4FC02
:101C5000230F00C000C0002C75B92795889400C0E0
:101C6000002C05B900C012FF75B9D5FC230F2795CC
:101C7000889400C000C0002C75B9D6FC230F00C0AA
:101C8000002C05B900C011FF75B927958894D7FCC1
:101C9000230F00C000C0002C75B92795889400C0A0
:101CA000002C05B900C010FF75B9132FD110122FE9
:101CB000990D00C000C0002C75B900C000C0002CF8
:101CC00005B900C017FF75B932812227889400C07A
:101CD00000C0002C75B931113F0D00C0002C05B9B2
:101CE00000C016FF75B908F43FEFE40FF51F00C000
:101CF00000C0002C75B9C0FC230F00C0002C05B932
:101D000000C015FF75B927958894C1FC230F00C04A
:101D100000C0002C75B92795889400C0002C05B927
:101D200000C014FF75B9C2FC230F2795889400C02A
:101D300000C0002C75B9C3FC230F00C0002C05B9EE
:101D400000C013FF75B927958894C4FC230F00C009
:101D500000C0002C75B92795889400C0002C05B9E7
:101D600000C012FF75B9C5FC230F2795889400C0E9
:101D700000C0002C75B9C6FC230F00C0002C05B9AB
:101D800000C011FF75B927958894C7FC230F00C0C8
:101D900000C0002C75B92795889400C0002C05B9A7
:101DA00000C010FF75B9132FC110122FF19400C09D
:101DB00000C0002C75B9F80C00C000C005B900C007
:101DC00017FF75B931812227889400C000C0002C0C
:101DD00075B93111380F00C0002C05B900C016FFCD
:101DE00075B908F43FEF8195889400C000C0002CBD
:101DF00075B9E0FC230F00C0002C05B900C015FF29
:101E000075B927958894E1FC230F00C000C0002C11
:101E100075B92795889400C0002C05B900C014FF3F
:101E200075B9E2FC230F2795889400C000C0002CF0
:101E300075B9E3FC230F00C0002C05B900C013FFE7
:101E400075B927958894E4FC230F00C000C0002CCE
:101E500075B92795889400C0002C05B900C012FF01
:101E600075B9E5FC230F2795889400C000C0002CAD
:101E700075B9E6FC230F00C0002C05B900C011FFA6
:101E800075B927958894E7FC230F00C000C0002C8B
:101E900075B92795889400C0002C05B900C010FFC3
:101EA00075B9132FE110122F8B0D00C000C0002C4C
:101EB00075B9119709F086CEEA81FB812EE130E0F9
:101EC000DF010E9478C930E020E0A901AAE9EA9F79
:101ED0000E0E411DFA9F400D511D11244F0F511D33
:101EE000DC01CB01840F951FA11DB11D893E43E08C
:101EF0009407A105B10508F434C0885E9340A10998
:101F0000B10942E0B695A795979587954A95D1F77F
:101F100047E0849F080E211D949F200D311D112440
:101F2000290F311D6091330570E0860F971F820FD6
:101F3000931F4091260750912707609128077091C1
:101F40002907292F3327420F531F611D711D40930D
:101F500026075093270760932807709329078093DB
:101F6000330578940E94FD89F201778B668BDF91AF
:101F7000CF911F910F91FF90EF90DF90CF90BF9086
:101F8000AF909F908F907F905F904F900895CF92E9
:101F9000DF92EF920F931F93CF93DF9368EE73E07E
:101FA0000E9448C9EB016B0184EBC80ED11CCB0128
:101FB0008D549F4F0E949661C6010E949661CE018A
:101FC0008B549F4F0E949661EE24E39410E000E052
:101FD00020E04091040F60E0C6010E94E161DF91C2
:101FE000CF911F910F91EF90DF90CF9008958F9236
:101FF0009F92AF92BF92CF92DF92EF92FF920F9398
:102000001F93CF93DF931F921F92CDB7DEB78C0142
:1020100019828FEF8A83680125EEC21A2DEFD20A4A
:10202000D6018D919C91DC01ED91FC910084F185AC
:10203000E02D1995F801E75EFD4F7F01892B09F42A
:1020400049C081E089834801FDEF8F1A9F0A58013A
:1020500026EEA21A2DEFB20AD6018D919C91DC01D9
:10206000ED91FC910084F185E02D1995892B09F102
:10207000F60180819181DC01ED91FC910284F38570
:10208000E02D19958A83AE014F5F5F4FBE016E5FF1
:102090007F4FC8010E94F754F7018083D4018C91CF
:1020A000F50180838330C1F218161CF0C8010E942C
:1020B000CB0AF70180810F900F90DF91CF911F9194
:1020C0000F91FF90EF90DF90CF90BF90AF909F90D7
:1020D0008F900895AE014F5F5F4FBE016E5F7F4FDF
:1020E000C8010E94F754D7018C93F801ED5FFD4FB2
:1020F000808177968083D8CFBF92CF92DF92EF9284
:10210000FF920F931F93CF93DF931F92CDB7DEB74C
:102110008C016B01B42EDB018D919C91F801E15F84
:10212000FD4F7F018F3F910508F475C08FEF8083CD
:102130006801F80180E091919E3709F067C0D701EE
:102140008C9344E353E0B801C8010E94D7544091F6
:102150002B0A50912C0A980122503F4F80E0D60163
:10216000ED916D01E827E40FF52FF11D80812A170D
:102170003B07A9F7F801E350FE4FB082F7019081C9
:10218000F801E250FE4F90839EEF31969083319696
:1021900080838EEFF82E6801B5EECB1ABDEFDB0A17
:1021A000F60180819181B80164507E4FDC01ED9190
:1021B000FC910280F381E02D44E050E01995F60196
:1021C000808191814F2D50E0DC01ED91FC910280E6
:1021D000F381E02DB8011995F60180819181B80154
:1021E0007E5FDC01ED91FC910280F381E02D42E005
:1021F00050E019958F2D0F90DF91CF911F910F9186
:10220000FF90EF90DF90CF90BF9008958F5F8E3F4B
:1022100009F091CF96CF982F8FEF8083F80180E05F
:10222000891728F421912E3719F5F7018083D601FB
:102230008C918983AE014F5F5F4FB801C8010E9446
:10224000D754F6012081318140912B0A50912C0AFC
:10225000D80180E03327BD01601B710B6217730743
:1022600048F4ED91E827E40FF52FF11D8081F3CFBD
:102270008F5FD6CFF801E350FE4FB082D7019C911B
:1022800031969083F6019081F801E150FE4F9083E2
:1022900031968083D601FC907ECFCF93DF9391E07F
:1022A000909337058823B9F0C091B800D091BA0057
:1022B0008091BC008A7B8093BC0060E084E10E9436
:1022C000C18860E085E10E94C1880E94F90AD0932C
:1022D000BA00C093B800DF91CF91089585ED809347
:1022E000BC008091740790917507A0917607B0911A
:1022F00077070796A11DB11D23E0B695A795979581
:1023000087952A95D1F72091BC0024FD03C0109237
:102310007207089540917407509175076091760790
:1023200070917707452B462B472B69F30097A10542
:10233000B10541F02AE22A95F1F700C00197A10901
:10234000B109E1CF809173070C944D111F920F9248
:102350000FB60F9211240BB60F922F933F934F930A
:102360005F936F937F938F939F93AF93BF93EF93FD
:10237000FF938091B900887F803609F44DC008F042
:1023800040C0883209F4A9C028F5803109F49DC005
:10239000C8F4882309F4FBC0883009F496C0FF9183
:1023A000EF91BF91AF919F918F917F916F915F91CD
:1023B0004F913F912F910F900BBE0F900FBE0F903A
:1023C0001F901895883109F488C0803241F78093B6
:1023D000700714C0803409F49DC040F48033B9F311
:1023E0008833E9F68093700785ECB0C0803509F436
:1023F00085C0883509F496C0883489F60E946E112C
:10240000CECF883909F48CC038F5883729F050F4DC
:10241000883611F0803719F683E0809372071092A6
:102420007E0557C0883809F47BC0803919F08038A0
:1024300009F0B5CF80917E05803208F071C0E0913F
:102440007E0581E08E0F80937E058091BB00F0E0D9
:10245000E25AFA4F80833DC0803B39F0E0F4803A85
:1024600009F479C0883A09F09ACF84E08093720722
:1024700010925B0510925A05E0915805F0915905AC
:10248000199580915A0581110FC081E080935A05FA
:102490001092380509C0803C09F4A6CF883C09F4A5
:1024A000A3CF883B09F07BCFE0915B0581E08E0FE5
:1024B00080935B05F0E0E85CFA4F80818093BB007D
:1024C00090915B0580915A0529C080914D078093BA
:1024D000BB0085EC8093BC0062CF90916F07809128
:1024E0006E07981758F5E0916F0781E08E0F809383
:1024F0006F07F0E0E25BF84F8081E9CFE0916F0772
:1025000081E08E0F80936F078091BB00F0E0E25B6B
:10251000F84F808390916F0780916E079817C8F2EB
:1025200085E8D8CFE0916F0781E08E0F80936F0729
:102530008091BB00F0E0E25BF84F808380917107EF
:1025400081115CCF81E080934C0784EA8093BC00CA
:102550001092720724CF85EC8093BC001092720712
:1025600080917E05803230F4E0917E05F0E0E25A01
:10257000FA4F108260917E0570E0E0915C05F09169
:102580005D058EE595E0199510927E0508CF1092B5
:10259000700734CFCF92DF92EF92FF920F931F9389
:1025A000CF93DF93EC0188810E9498888C010E9470
:1025B000D28C2C893D892017310731F06E8B7F8BAF
:1025C000888F998F1D8B0C8BCE88DF88E88CF98CD7
:1025D0006C197D098E099F09CA80DB80EC80FD8023
:1025E0006C157D058E059F0530F08A899B89998B36
:1025F000888B1B8B0A8B288939898A899B892817A4
:10260000390781F04A855B8542305105A1F48E81FE
:102610009F81A885B9850196A11DB11D8E839F83D9
:10262000A887B987DF91CF911F910F91FF90EF900D
:10263000DF90CF9008954115510531F421303105D7
:1026400089F7892B21F3EECF4130510559F7232B20
:1026500049F7019739F7DBCFFC012089318984855F
:1026600095852817390741F481E0428953892685E9
:1026700037854217530709F080E00895FC0120894F
:102680003189868597852817390741F481E0428989
:102690005389248535854217530709F080E0089552
:1026A0008F929F92AF92BF92CF92DF92EF92FF9262
:1026B0000F931F93CF93DF93FC012085211110C04E
:1026C00060E070E0CB01DF91CF911F910F91FF90FF
:1026D000EF90DF90CF90BF90AF909F908F90089534
:1026E000EC010E94D28C29852111EACF8C809D803B
:1026F000AE80BF80088119812A813B816B017C01FA
:10270000C818D908EA08FB08C016D106E206F30685
:10271000B8F6080D191D2A1D3B1D68017901C61A5E
:10272000D70AE80AF90AC701B601CDCFCF92DF92E6
:10273000EF92FF921F93CF93DF93FC01108511114D
:102740000AC010E0812FDF91CF911F91FF90EF9091
:10275000DF90CF900895EC018185882319F01886C9
:102760001986F0CF0E94D28CCC80DD80EE80FF8075
:102770006C197D098E099F09C880D980EA80FB8089
:102780006C157D058E059F0550F7DBCFCF93DF934A
:10279000EC01488359836A837B830E94D28C6C83CB
:1027A0007D838E839F8381E088871986DF91CF9117
:1027B00008950F931F93CF93DF93EC010E94D28C67
:1027C0008B019C018C819D81AE81BF8148815981A3
:1027D0006A817B81081B190B2A0B3B0B0417150719
:1027E0002607370738F4CE01DF91CF911F910F9163
:1027F0000C94C613840F951FA61FB71F8C839D834F
:10280000AE83BF8381E088871986DF91CF911F91C6
:102810000F910895DC01FB016C9111964C91119779
:1028200012967C91262F220F220F220F95E5822FE0
:10283000899F080E80E0811D1124562F5074362F79
:10284000307267FD60C0511149C0311106C0982F28
:102850009095282F892F90E004C025E5280F90E05F
:102860008BEA4F3FF1F0442309F46CC0409530E00F
:10287000442329F0449F312D112441113F5F432F00
:102880004095849F080E80E0811D249F020E20E069
:10289000211D949F090E90E0911D1124830F230F99
:1028A000930F7F3FB9F030E0772321F0779F312DF0
:1028B00009F03F5F332309F449C0839F080E80E08D
:1028C000811D239F020E20E0211D939F090E90E0A1
:1028D000911D1124808321839283089531110DC0AD
:1028E000922F2AEA929F090E90E0911D11242BEA63
:1028F000291B922F2AEA280FADCF90E0282F209590
:10290000982F80E0AECF511111C031110BC0922F22
:102910008AEA989F090E90E0911D11242BEA291B49
:102920009B5AEFCF982F909520E09BCF311106C096
:1029300025E5280F9BEA981B822FF6CF2AEA280F5D
:1029400030E0F9CF9FEF2FEF8FEFABCF90E020E09B
:1029500080E0C0CF82E190E00E94896183E190E055
:102960000E94896184E190E00E94896185E190E0A4
:102970000E94896186E190E00C948961982FE62F8E
:10298000603411F4E0916119F0E03197E730F1051E
:1029900078F48827E153FB4E8F4F0C9470C9D614FE
:1029A000E214E7141015E914EB14ED1483E1089513
:1029B000933011F1953081F1911134C084E1089583
:1029C0008DE0089580915F19833071F508958BE053
:1029D000089589E1089588E10895923049F020F43E
:1029E000992341F08EE10895933031F09430D1F77E
:1029F0008FE108958DE108958091AE078F5F853056
:102A000068F4982F937051F08093AE078091AE07D1
:102A10008130E9F28230A1F681E0089581E0F4CFBF
:102A20008CE1089585E008958FE008952F923F92FC
:102A30004F925F926F927F928F929F92AF92BF92CE
:102A4000CF92DF92EF92FF920F931F93CF93DF937A
:102A500000D000D01F921F92CDB7DEB780913D020B
:102A60000E944B6BF82E8091430215E0882331F0D1
:102A70006091601981E00E94BE14182F80E00E94CE
:102A8000445790914519890F8D8381E00E944457E6
:102A900090914519890F8E8382E00E94445750908F
:102AA0004519580E83E00E94445790914519982E7D
:102AB000990E809160192BEF280F223008F410C175
:102AC000843009F40DC1E09040023D81232F30E0B5
:102AD00038872F836E81A62EB12CE52DF0E0FC8384
:102AE000EB83292D30E03A832983E110FEC000E01A
:102AF00020E04F2D612F81E00E94E0661B01482EEF
:102B000020E04F2D612F81E00E94E0663B01882E7E
:102B100020E04F2D612F81E00E94E0666B01E82EDE
:102B200020E04F2D612F81E00E94E066AB01682F0D
:102B3000EF81F885EE0FFF1F8F819885E80FF91F51
:102B4000E453FA4F208231824282F501EE0FFF1FDB
:102B5000EA0DFB1DE453FA4F608271828282EB81A1
:102B6000FC81EE0FFF1F2B813C81E20FF31FE4532A
:102B7000FA4FC082D182E282E981FA81EE0FFF1F13
:102B800089819A81E80FF91FE453FA4F40835183FA
:102B900062838091850581118AC08F819885019615
:102BA000FC01EE0FFF1FE80FF91FE453FA4F2082DC
:102BB00031824282A0914519B0E0EF81F885809181
:102BC0005C198850AE17BF0714F48D81815090E0D6
:102BD0009C01220F331F820F931FFC01E453FA4F15
:102BE00020823182428295012F5F3F4FC901880FB9
:102BF000991F820F931FFC01E453FA4F6082718288
:102C0000828280915C198850AA15BB0514F48E81CC
:102C1000815090E09C01220F331F820F931FFC0113
:102C2000E453FA4F6082718282828B819C8101968B
:102C3000FC01EE0FFF1FE80FF91FE453FA4FC082AB
:102C4000D182E2822B813C8180915C198850A2174D
:102C5000B30714F48FEF850D90E0FC01EE0FFF1F1A
:102C6000E80FF91FE453FA4FC082D182E2828981D2
:102C70009A810196FC01EE0FFF1FE80FF91FE45344
:102C8000FA4F40835183628389819A81A817B907DB
:102C90004CF180915C19885090E0FC01EE0FFF1F11
:102CA000E80FF91FE453FA4F40835183628328965B
:102CB0000FB6F894DEBF0FBECDBFDF91CF911F914D
:102CC0000F91FF90EF90DF90CF90BF90AF909F90CB
:102CD0008F907F906F905F904F903F902F900895CE
:102CE00015E0F1CE8FEF890DD7CF892F90E0EF81DE
:102CF000F885E81BF90BEE55FA4F20812223D1F01D
:102D0000F501E81BF90BEE55FA4F2081222391F0D3
:102D1000EB81FC81E81BF90BEE55FA4F2081222351
:102D200049F0E981FA81E81BF90BEE55FA4F8081F1
:102D30008111F0C10E94E9586091C6027091C702EA
:102D400090E080E00E9494C720E030E040EC5FE338
:102D50000E94F5C70E948ACA9B01AC018091451967
:102D60006F817885681B710989E1D82ED69EC001D4
:102D7000D79E900D112401E010E06F2D865C9E4ED1
:102D80000E9480526091C6027091C70290E080E07C
:102D90000E9494C720E030E040EC5FE30E94F5C75A
:102DA0000E948ACA9B01AC0180914519B501681B3C
:102DB0007109D69EC001D79E900D11246F2D865C9F
:102DC0009E4E0E9480526091C6027091C70290E0B0
:102DD00080E00E9494C720E030E040EC5FE30E9476
:102DE000F5C70E948ACA9B01AC01809145196B818D
:102DF0007C81681B7109D69EC001D79E900D11245D
:102E00006F2D865C9E4E0E9480526091C60270912A
:102E1000C70290E080E00E9494C720E030E040ECE0
:102E20005FE30E94F5C70E948ACA9B01AC018091B2
:102E3000451969817A81681B7109D69EC001D79EA8
:102E4000900D11246F2D865C9E4E0E9480528091C1
:102E5000850581112CCFEE2031F16091C602709171
:102E6000C70290E080E00E9494C720E030E040EC90
:102E70005FE30E94F5C70E948ACA9B01AC01EF8103
:102E8000F885319680914519E81BF10969E16E9F3B
:102E9000C0016F9F900D112401E010E06F2D865C42
:102EA0009E4E0E948052F0914519FF832D81F217AA
:102EB00008F432C130915C1938503D83EE2009F49A
:102EC00048C06091C6027091C70290E080E00E9405
:102ED00094C720E030E040EC5FE30E94F5C70E9419
:102EE0008ACA9B01AC018D81EF818E1B990BBC01BD
:102EF000F9E1F69FC001F79F900D112401E010E069
:102F00006F2D865C9E4E0E9480526091C602709129
:102F1000C70290E080E00E9494C720E030E040ECDF
:102F20005FE30E94F5C70E948ACA9B01AC016FEF64
:102F3000A61AB60A80914519A81AB10879E17A9DB6
:102F4000C0017B9D900D11246F2D865C9E4E0E94CA
:102F50008052809145198F839E81891708F4E0C0C3
:102F6000E0915C19E850ED83EE2009F44AC06091CD
:102F7000C6027091C70290E080E00E9494C720E0F2
:102F800030E040EC5FE30E94F5C70E948ACA9B01D3
:102F9000AC018D81EF818E1B990BBC01F9E1F69F8D
:102FA000C001F79F900D112401E010E06F2D865CA9
:102FB0009E4E0E9480526091C6027091C70290E0BE
:102FC00080E00E9494C720E030E040EC5FE30E9484
:102FD000F5C70E948ACA4B815C814F5F5F4F209189
:102FE0004519421B510929E1249FF001259FF00D4D
:102FF00011249B01AC016F2DCF01865C9E4E0E9477
:103000008052309145193B83351508F48DC050909E
:103010005C1968EF560EEE2009F44AC06091C602B2
:103020007091C70290E080E00E9494C720E030E0F9
:1030300040EC5FE30E94F5C70E948ACA9B01AC0185
:10304000852DEB818E1B990BBC01F9E1F69FC00128
:10305000F79F900D112401E010E06F2D865C9E4ECD
:103060000E9480526091C6027091C70290E080E099
:103070000E9494C720E030E040EC5FE30E94F5C777
:103080000E948ACA49815A814F5F5F4F209145193A
:10309000421B510929E1249FF001259FF00D1124C5
:1030A0009B01AC016F2DCF01865C9E4E0E94805229
:1030B0003091451939833915C8F190905C1968EF42
:1030C000960EEE2009F4F3CD6091C6027091C7020E
:1030D00090E080E00E9494C720E030E040EC5FE3A5
:1030E0000E94F5C70E948ACAE92D2981E21BFF0BC5
:1030F000AF0129E1249FF001259FF00D112401E08B
:1031000010E09B01AC016F2DCF01865C9E4E0E94AA
:103110008052CDCDE12C9BCE6D8161506D83CECEA2
:10312000FE81F150FD8320CF5A9475CF9A94C9CF78
:1031300081E599E10E949613882391F08091390AE4
:103140000E94DE8C4091300250E070E060E081E54A
:1031500099E10E94C613809187058111109287051D
:103160000895CF93DF931F921F92CDB7DEB7E0EEA5
:10317000F4E01082818392836383748391E095836A
:10318000A7E6BCE01C9211968C931197828112964F
:103190008C93129713966C93139714967C931497B1
:1031A00015969C93159786E090E09A83898341E079
:1031B000BE016F5F7F4FCD010E947C100F900F907A
:1031C000DF91CF91089570E060E00C94B1182F92D8
:1031D0003F924F925F926F927F928F929F92AF92A7
:1031E000BF92CF92DF92EF92FF920F931F93CF93F4
:1031F000DF93CDB7DEB72C970FB6F894DEBF0FBEC6
:10320000CDBF80E00E94445780904519880D898386
:1032100081E00E944457A09045198A0D8B8382E07B
:103220000E944457C09045198C0D8D8383E00E9405
:103230004457E09045198E0D898760905C196A9417
:103240006A862091DF042F838091E80211E08C30A0
:1032500009F015E08091E9023F81381708F069C153
:103260008BEB9FE00E949613882309F462C1809142
:10327000E9024F81E42FF0E09091C802992309F40C
:1032800023C18D3009F01DC1ED59F24FE491F0E0FA
:10329000CF01880F991F8E0F9F1F84539A4F9887D5
:1032A0008F8300E020E04FEF64E180E00E94E06661
:1032B000EF81F885608371838283F9812F2F30E05D
:1032C0004B81842E912C5D81A52EB12C8985C82E31
:1032D000D12C9A85E92EF12C8091DF0465E00E94C3
:1032E0003CC9F901EE0FFF1FFC87EB873401660C28
:1032F000771C2501440C551C1601220C331CA70118
:10330000440F551F58874F8391114DC2E20FF31F91
:10331000E453FA4FFC87EB8720E04FEF612F81E009
:103320000E94E066EB85FC85608371838283930154
:10333000280D391D24533A4F3C872B8720E04FEF4F
:10334000612F81E00E94E066EB85FC8560837183DC
:10335000828392012A0D3B1D24533A4F3C872B87D1
:1033600020E04FEF612F81E00E94E066EB85FC8555
:1033700060837183828391012C0D3D1D24533A4F4C
:103380003C872B8720E04FEF612F81E00E94E066B1
:10339000EB85FC856083718382832F8138852E0DB8
:1033A0003F1D24533A4F38872F8320E04FEF61E0D1
:1033B00081E00E94E066EF81F885608371838283FB
:1033C0008091410290914202892B09F485C020E04E
:1033D0004FEF65E084E00E94E06660931E04709306
:1033E0001F048093200420E04FEF65E084E00E94FA
:1033F000E06660932104709322048093230420E00C
:103400004FEF6DE084E00E94E066609324047093C7
:1034100025048093260420E04FEF6DE084E00E94B5
:10342000E06660932704709328048093290420E0C9
:103430004FEF6FE084E00E94E06660932A0470938F
:103440002B0480932C0420E04FEF6FE084E00E9477
:10345000E06660932D0470932E0480932F04F09106
:10346000E6022F2F2150330BC901880F991F280F17
:10347000391F225E3B4F38872F8320E04FEF6FE0EC
:1034800084E00E94E066EF81F88560837183828327
:10349000F091E6022F2F30E0C901880F991F280F05
:1034A000391F225E3B4F38872F8320E04FEF6DE0BE
:1034B00084E00E94E066EF81F885608371838283F7
:1034C00023C0EC5AF24FE2CE8D3019F4E95BF24F93
:1034D000DDCEE85CF24FDACEA59A739A80910201B4
:1034E00088608093020180910201806180930201D3
:1034F00080910201806280930201809102018064C8
:10350000809302012C9A2D9A8091DF048F5F809323
:10351000DF049091E902891333C21092C30F109215
:10352000C40F4EE150E060E070E081EB9FE00E944C
:10353000C613F091DE04FF838091E902F81708F0CA
:103540005EC281EB9FE00E949613882309F457C264
:103550008091E9022F81E22FF0E09091C802992337
:1035600009F418C28D3009F012C2ED59F24FE491FE
:103570008150990B8E1B9109AC01440F551F480FC8
:10358000591F44535A4F58874F8300E020E04FEFB4
:1035900060E080E00E94E066EF81F88560837183DF
:1035A0008283F9812F2F30E04B81842E912C5D8115
:1035B000A52EB12C8985C82ED12C9A85E92EF12C07
:1035C0008091DE0465E00E943CC9F901EE0FFF1F07
:1035D000FC87EB873401660C771C2501440C551CD5
:1035E0001601220C331CA701440F551F58874F8327
:1035F000911110C4E20FF31FE453FA4FFC87EB87DD
:1036000020E04FEF612F81E00E94E066EB85FC85B2
:103610006083718382839301280D391D24533A4FAF
:103620003C872B8720E04FEF612F81E00E94E0660E
:10363000EB85FC8560837183828392012A0D3B1D9B
:1036400024533A4F3C872B8720E04FEF612F81E0D6
:103650000E94E066EB85FC85608371838283910123
:103660002C0D3D1D24533A4F3C872B8720E04FEF14
:10367000612F81E00E94E066EB85FC8560837183A9
:1036800082832F8138852E0D3F1D24533A4F388772
:103690002F8320E04FEF61E081E00E94E066EF8140
:1036A000F885608371838283809141029091420208
:1036B000892B09F477C120E04FEF65E084E00E9498
:1036C000E06660931E0470931F048093200420E042
:1036D0004FEF65E084E00E94E06660932104709300
:1036E00022048093230420E04FEF6DE084E00E94E9
:1036F000E06660932404709325048093260420E000
:103700004FEF6DE084E00E94E066609327047093C1
:1037100028048093290420E04FEF6FE084E00E94AA
:10372000E06660932A0470932B0480932C0420E0BD
:103730004FEF6FE084E00E94E06660932D04709389
:103740002E0480932F048091E6028150990B9C01F6
:10375000220F331F280F391F225E3B4F38872F83DC
:1037600020E04FEF6FE084E00E94E066EF81F88593
:103770006083718382838091E60290E09C01220F36
:10378000331F280F391F225E3B4F38872F8320E0DD
:103790004FEF6DE084E00E94E066EF81F885608382
:1037A0007183828317C14B855C85420F531F44533D
:1037B0005A4F5C874B8700E020E04FEF60E081E0EC
:1037C0000E94E066EB85FC856083718382839301B0
:1037D000280D391D24533A4F3C872B8720E04FEFAB
:1037E00060E081E00E94E066EB85FC856083718388
:1037F000828392012A0D3B1D24533A4F3C872B872D
:1038000020E04FEF60E081E00E94E066EB85FC8500
:1038100060837183828391012C0D3D1D24533A4FA7
:103820003C872B8720E04FEF60E081E00E94E0665C
:10383000EB85FC856083718382832F8138852E0D13
:103840003F1D24533A4F38872F8320E04FEF60E02D
:1038500081E00E94E066EF81F88560837183828356
:103860008091410290914202892B09F470C020E0BE
:103870004FEF60E084E00E94E06660931E04709366
:103880001F048093200420E04FEF60E084E00E945A
:10389000E06660932104709322048093230420E067
:1038A0004FEF60E084E00E94E06660932404709330
:1038B00025048093260420E04FEF60E084E00E941E
:1038C000E06660932704709328048093290420E025
:1038D0004FEF60E084E00E94E06660932A047093FA
:1038E0002B0480932C0420E04FEF60E084E00E94E2
:1038F000E06660932D0470932E0480932F048091D2
:10390000E6028150990B9C01220F331F280F391FAB
:10391000225E3B4F38872F8320E04FEF60E084E04A
:103920000E94E066EF81F8856083718382838091D5
:10393000E60290E09C01220F331F280F391F225E00
:103940003B4F38872F8320E04FEF60E0B1CDA59843
:10395000739880910201877F809302018091020118
:103960008F7E80930201809102018F7D80930201FE
:10397000809102018F7B809302012C982D98C4CDF9
:103980004EE150E060E070E08BEB9FE0D0CDEC5A70
:10399000F24FEDCD8D3019F4E95BF24FE8CDE85CE4
:1039A000F24FE5CDA59A739A8091020188608093C9
:1039B00002018091020180618093020180910201E5
:1039C00080628093020180910201806480930201F1
:1039D0002C9A2D9A8091DE048F5F8093DE04909163
:1039E000E902891304C31092B90F1092BA0F4EE185
:1039F00050E060E070E087EA9FE00E94C613F0901C
:103A00000302FF2009F4ECC187EA9FE00E949613AD
:103A1000882309F4E5C1F9818F2E912C2401440CEF
:103A2000551C9201280D391D24533A4F3A8329839E
:103A300000E020E04F2D612F81E00E94E066E981E7
:103A4000FA81608371838283FB81AF2EB12C1501D3
:103A5000220C331C91012A0D3B1D24533A4F3A830B
:103A6000298320E040910302612F81E00E94E066FB
:103A7000E981FA81608371838283FD81CF2ED12C0D
:103A80009601220F331F3A8329832C0D3D1D2453A9
:103A90003A4F3C832B8320E040910302612F81E069
:103AA0000E94E066EB81FC81608371838283F985EB
:103AB000EF2EF12C9701220F331F3C832B832E0D09
:103AC0003F1D24533A4F3E832D8320E04091030253
:103AD000612F81E00E94E066ED81FE816083718349
:103AE0008283FA856F2E712C9301220F331F3E8340
:103AF0002D83260D371D24533A4F38872F8320E01E
:103B00004091030261E081E00E94E066EF81F88568
:103B10006083718382838091410290914202892B5C
:103B200009F481C020E04091030265E084E00E9436
:103B3000E06660931E0470931F048093200420E0CD
:103B40004091030265E084E00E94E06660932104F6
:103B5000709322048093230420E0409103026DE0DF
:103B600084E00E94E06660932404709325048093AF
:103B7000260420E0409103026DE084E00E94E066AC
:103B800060932704709328048093290420E04091D7
:103B900003026FE084E00E94E06660932A04709361
:103BA0002B0480932C0420E0409103026FE084E01A
:103BB0000E94E06660932D0470932E0480932F047E
:103BC000F091E6022F2F2150330BC901880F991F66
:103BD000280F391F225E3B4F38872F8320E040910A
:103BE00003026FE084E00E94E066EF81F885608365
:103BF00071838283F091E6022F2F30E0C901880F94
:103C0000991F280F391F225E3B4F38872F8320E0F2
:103C1000409103026DE084E00E94E066EF81F88548
:103C200060837183828380913902893108F0E6C113
:103C3000873108F0E6C165E18C3009F067E08091DA
:103C400003021091131190913E02992309F4DBC1F4
:103C50002FEF30E0A901481B5109CA0170E00E9412
:103C60005CC9160F809112118117E0F0812F90E04E
:103C700020918305FC01EE0FFF1FF887EF832130B1
:103C800009F0C5C1E80FF91FE25EFB4FF887EF832B
:103C90004FEF65E082E00E94C76AEF81F88560839C
:103CA0007183828380913E02882309F4C0C1809190
:103CB00013118117E8F4212F2150330B8091121139
:103CC00082171306ACF0A901440F551F420F531F72
:103CD000425E5B4F58874F8300E020E04FEF60E08B
:103CE00082E00E94E066EF81F885608371838283C1
:103CF000809103028150809303028111ABC1109225
:103D0000AF0F1092B00F9201280D391D24533A4F76
:103D100038872F8300E020E04FEF60E081E00E94D1
:103D2000E066EF81F88560837183828391012A0DBB
:103D30003B1D24533A4F38872F8320E04FEF60E03C
:103D400081E00E94E066EF81F88560837183828361
:103D500029813A812C0D3D1D24533A4F3A83298302
:103D600020E04FEF60E081E00E94E066E981FA81A7
:103D70006083718382832B813C812E0D3F1D2453F0
:103D80003A4F3A83298320E04FEF60E081E00E94C0
:103D9000E066E981FA816083718382832D813E81AF
:103DA000260D371D24533A4F3A83298320E04FEFE5
:103DB00060E081E00E94E066E981FA8160837183BE
:103DC00082830E94BF670E94E76981E080939D061D
:103DD0000E94981865E070E080E090E00E94A08C5E
:103DE0002C960FB6F894DEBF0FBECDBFDF91CF91FA
:103DF0001F910F91FF90EF90DF90CF90BF90AF9009
:103E00009F908F907F906F905F904F903F902F90FA
:103E10000C9498184B855C85420F531F44535A4F9E
:103E20005C874B8700E020E04FEF60E081E00E947C
:103E3000E066EB85FC856083718382839301280DA6
:103E4000391D24533A4F3C872B8720E04FEF60E029
:103E500081E00E94E066EB85FC856083718382834C
:103E600092012A0D3B1D24533A4F3C872B8720E0BB
:103E70004FEF60E081E00E94E066EB85FC856083A7
:103E80007183828391012C0D3D1D24533A4F3C8751
:103E90002B8720E04FEF60E081E00E94E066EB8539
:103EA000FC856083718382832F8138852E0D3F1DB1
:103EB00024533A4F38872F8320E04FEF60E081E0B2
:103EC0000E94E066EF81F885608371838283809130
:103ED000410290914202892B09F470C020E04FEF1B
:103EE00060E084E00E94E06660931E0470931F040B
:103EF0008093200420E04FEF60E084E00E94E066C1
:103F000060932104709322048093230420E04FEFF8
:103F100060E084E00E94E0666093240470932504CE
:103F20008093260420E04FEF60E084E00E94E0668A
:103F300060932704709328048093290420E04FEFB6
:103F400060E084E00E94E06660932A0470932B0492
:103F500080932C0420E04FEF60E084E00E94E06654
:103F600060932D0470932E0480932F048091E602B9
:103F70008150990B9C01220F331F280F391F225E9D
:103F80003B4F38872F8320E04FEF60E084E00E94B2
:103F9000E066EF81F8856083718382838091E60219
:103FA00090E09C01220F331F280F391F225E3B4FE8
:103FB00038872F8320E04FEF60E0ECCBA598739813
:103FC00080910201877F80930201809102018F7EA0
:103FD00080930201809102018F7D80930201809184
:103FE00002018F7B809302012C982D98F3CC4EE137
:103FF00050E060E070E081EB9FE0FFCC8A3109F097
:104000001DCE69E01CCE0E943CC9180F2BCE2F811B
:104010003885280F391F225E3B4F38872F8300E0F9
:1040200020E04FEF65E082E00E94E06636CE8091AE
:104030001211181708F05CCE212F30E02F5F3F4F90
:10404000C901880F991F280F391F225E3B4F3887FF
:104050002F8342CE45E050E060E070E087EA9FE0C9
:104060000E94C613BDCEE9E2F0E18091E5028083B3
:104070008091E40281838091E30282838091E20255
:1040800083838091E102848308958091E8028431E2
:1040900061F0883221F08C3031F48FE001C087E08C
:1040A00080930202089585E0FBCF8AE0F9CF8091EA
:1040B000410290914202892B21F088E08093010215
:1040C00008951092010208959091E9028091E8020A
:1040D000890F27E0280F20935C199093451980934E
:1040E0005B198091390220911D0440914102509149
:1040F0004202452BA9F0909101023FEF390F309316
:10410000E60290931311980F8FEF890F809312118D
:10411000909311118FEF820F890F809310110895E2
:104120001092E602109213119FEF980F90931211C4
:1041300080931111820F8150F0CF8330B9F198F440
:10414000823009F442C08091C4029091C502885E19
:104150009340803D27E0920708F446C09093C50243
:104160008093C40212C0843091F0853061F7809151
:10417000BC029091BD02885E9340803D27E092078B
:1041800098F19093BD028093BC020C94C70F80916C
:10419000BE029091BF02885E9340803D27E0920767
:1041A00018F19093BF028093BE02EFCF8091C002BE
:1041B0009091C102885E9340803D27E09207A0F075
:1041C0009093C1028093C002E0CF8091C20290918F
:1041D000C302885E9340803D27E0920728F09093C9
:1041E000C3028093C202D1CF08958330B9F198F40D
:1041F000823009F442C08091C4029091C502885176
:104200009C4F81362AEE920708F046C09093C50273
:104210008093C40212C0843091F0853061F78091A0
:10422000BC029091BD0288519C4F81362AEE9207C4
:1042300098F59093BD028093BC020C94C70F8091B7
:10424000BE029091BF0288519C4F81362AEE9207A0
:1042500018F59093BF028093BE02EFCF8091C00209
:104260009091C10288519C4F81362AEE9207A0F4AA
:104270009093C1028093C002E0CF8091C2029091DE
:10428000C30288519C4F81362AEE920728F49093FE
:10429000C3028093C202D1CF0895EF920F931F9370
:1042A00080918906882309F4FEC01092FF0F1092B6
:1042B000001040E050E0BA0186E091E10E94C61390
:1042C00010928906109213040E94CA618091980688
:1042D000909199060197D1F580915F198330E9F1AA
:1042E000853009F482C0823009F05CC08BE791E030
:1042F0000E949661EE24E39410E000E020E04091FB
:10430000040F60E08BE791E00E94E16180918706F5
:104310008823E1F08091C30F81110EC08CE791E0FA
:104320000E94966108ED1EE021E04091040F61E0DB
:104330008CE791E00E94E161409144025091450276
:1043400070E060E08BEB9FE00E94C6138EE190E08E
:104350001F910F91EF900C94E31885E290E00E947A
:104360009661EE24E39410E000E020E04091040F19
:1043700060E085E290E00E94E161809187068823F9
:1043800029F38091C30F8111D7CF86E290E00E947C
:10439000966108ED1EE021E04091040F61E086E2A5
:1043A00090E0C8CFEE24E39410E000E020E04091DC
:1043B000040F60E08CE691E00E94E1618091870645
:1043C000882321F28091C30F8111C0CF80E190E05A
:1043D0000E94966104EF11E021E04091040F61E03A
:1043E00080E190E00E94E161B1CF85E991E00E9417
:1043F0009661EE24E39410E000E020E04091040F89
:1044000060E082E691E00E94E16180916019823073
:1044100009F041C04091040F485204EF11E021E03F
:1044200061E085E991E00E94E161109294061092AA
:104430008D060E94B05880916019823041F00E9430
:104440004B680E94E769109238191092391940E0C0
:1044500050E0BA0186E499E10E94C61340E050E0C2
:10446000BA018AE399E10E94C61340E050E0BA0124
:1044700080E391E10E94C61380916819853009F0AC
:1044800065CF80914602882309F460CF8FEF90E0DA
:104490000E942B895BCFEE24E39400ED17E021E02E
:1044A0004091040FBDCF1F910F91EF90089581E0CF
:1044B0008093330280933202809331020895EF9209
:1044C0000F931F9380918606882331F080E691E058
:1044D0000E949661109286060E949E58882361F081
:1044E0008EE491E00E94966189EB91E00E949661D2
:1044F0008AEB91E00E94966180918706882359F0AB
:104500008091C30F882339F01092C30F1092C40F0B
:1045100081E00E947D5F80916019823009F478C14A
:10452000833009F4A9C1813009F48CC180916319E9
:104530008150843008F005C180919A05882309F4E0
:10454000ECC04091040F80915F19E12C10E000E075
:1045500020E060E08330A9F0853009F4D5C08230D6
:1045600009F0C9C08DE791E00E94E161EE24E39477
:104570000AEF10E021E04091040F61E08FE791E045
:104580000EC084E690E00E94E161EE24E39404E62C
:1045900019E121E04091040F61E083E690E00E9480
:1045A000E16181E080938C0580918B05882309F47B
:1045B000C5C080915F194091040FE12C10E000E02C
:1045C00020E060E0833009F0ABC084E690E00E9418
:1045D000E161EE24E39404E619E121E04091040F47
:1045E00061E088E490E00E94E16181E080938A05C7
:1045F00080916019853059F4E12C04E610E021E047
:104600004091040F60E083EA91E00E94E1618091B3
:104610006019863059F4E12C04E610E021E0409165
:10462000040F60E084EA91E00E94E16181E0809300
:104630008C068DE090E00E94E3188091B8028823F8
:10464000F9F08091B9029091BA020297C9F468E03A
:1046500070E080E090E00E947F4D695F7F4F8F4F58
:104660009F4F28EE33E0629FA001639F500D729F21
:10467000500D112470E060E089ED9FE00E94C613A8
:1046800080E00E94C057809160198230A1F0E091D3
:104690006319E150FF0BEE0FFF1FE658F24F4591F3
:1046A000549170E060E088E390E10E94C61310929C
:1046B00036101092371010925410109255108FEF40
:1046C0000E947C5810921D1010921E1042E350E080
:1046D00060E070E08BE090E10E94C61310928B06C0
:1046E00048E95AE360E070E083EE9FE01F910F918C
:1046F000EF900C94C6138BE990E00E94E161EE24E8
:10470000E39403E111E036CF8FE491E00E94E16190
:10471000EE24E39408EC10E02DCF10928C0544CFEA
:10472000853049F48FE491E00E94E161EE24E39446
:104730000CE211E052CF85E090E0F6CF10928A05AE
:1047400057CF4091040F80915F19E12C10E000E0F9
:1047500020E060E0833009F43FC0853009F442C0B6
:104760008230E9F587E891E00E94E16180919A0545
:10477000882309F445C081E080938C0580915F19FE
:104780004091040FEE24E394823079F504EA16E0B8
:1047900021E061E089E891E00E94E16180918B0570
:1047A000882361F281E080938A0580915F194091AE
:1047B000040FEE24E3940CEB12E0833021F10CE2C1
:1047C00011E0823001F504EA16E021E061E089E8B9
:1047D00091E00E94E1610CCF81E690E0C5CF8BE9CA
:1047E00090E0C2CF8FE491E0BFCF0CE211E08330C4
:1047F00011F40CEB12E021E061E082E690E0CCCF16
:1048000010928C05CBCF21E061E088E490E0E1CF0D
:1048100085E390E00E949661E12C10E000E020E04A
:104820004091040F60E083E390E00E94E161EE2498
:10483000E39402E513E021E04091040F61E084E39A
:1048400090E0C7CF8BE390E00E949661E12C10E0EE
:1048500000E020E04091040F60E089E390E00E94D6
:10486000E161EE24E39408EE13E021E04091040FAF
:1048700061E08AE390E0ADCF80919B0790919C0727
:104880008D36910550F4E12C10E000E020E04091DD
:10489000040F60E086E491E09CCF86E491E00E9402
:1048A0009661809163198330E1F050F4813091F08A
:1048B000823009F09DCE6091040F85EF90E00EC02C
:1048C0008430A1F0853009F093CE6091040F8DE71C
:1048D00090E004C06091040F83E191E00E9415868E
:1048E00087CE6091040F87ED90E0F8CF6091040FC0
:1048F00089EB90E0F3CFEF920F931F9383E591E064
:104900000E94966182E390E00E94966188E591E0C2
:104910000E949661EE24E39410E000E020E04091D4
:10492000040F60E087E591E00E94E16180916019E9
:104930008230D9F420E04091040F60E083E591E0FB
:104940000E94E16181E080938A0640E050E0BA0174
:1049500082E490E10E94C6130E94572285E190E014
:104960001F910F91EF900C94E31810921D1010926C
:104970001E1042E350E060E070E08BE090E10E94A6
:10498000C613E0CF80915F198250823020F08AE612
:1049900091E00C9496618CE390E0FBCFEF920F9343
:1049A0001F93CF93C82F80918C06882309F44DC0A4
:1049B000CC2309F442C080916019823009F42DC1E2
:1049C0008330D9F1813009F432C180915F1983308D
:1049D00009F4C4C0853009F41CC1823009F0E5C077
:1049E00080916319853009F48CC083EE9FE00E94AA
:1049F0005013E12C10E000E0683873418105910507
:104A000008F4CCC083EE9FE00E945013E12C10E02C
:104A100000E0603177428105910538F420E0409153
:104A2000040F60E08AE090E006C020E04091040FAF
:104A300060E080E891E00E94E1618091601983303C
:104A400021F486E491E00E9489610E94A46410929E
:104A5000E10F1092E20F10928C0610928B051092CB
:104A60009A058EE090E00E94E318109213101092C5
:104A7000141010921D1010921E1080E00E947D688C
:104A800080E00E94515810928B0680E00E94C0572F
:104A900080E00E9474571092EB0F1092EC0F10926E
:104AA0004010109241101092361010923710109250
:104AB000B90F1092BA0F0E94C224CC23E9F0809162
:104AC0008706811119C00E949E588823A9F0809101
:104AD0001A04882309F4B5C08AEB91E00E9496611C
:104AE000EE24E39410E000E020E04091040F61E048
:104AF0008AEB91E00E94E161CF911F910F91EF90BD
:104B0000089583EE9FE00E94501368387341810539
:104B1000910550F4E12C10E000E020E04091040FFA
:104B200060E088E891E087CF83EE9FE00E94501319
:104B3000E12C10E000E0603177428105910538F406
:104B400020E04091040F60E08BE891E074CF20E01A
:104B50004091040F60E08AE891E06DCF83EE9FE022
:104B60000E945013683873418105910550F4E12C7F
:104B700010E000E020E04091040F60E08BE090E066
:104B80005ACF83EE9FE00E945013E12C10E000E02A
:104B9000603177428105910508F040CF20E04091D7
:104BA000040F60E087E490E046CF83EE9FE00E9430
:104BB0005013683873418105910588F48091870608
:104BC000E12C10E000E020E04091040F60E0882339
:104BD00019F08FEB91E02FCF83E891E02CCF83EE9B
:104BE0009FE00E945013E12C10E000E0603177421A
:104BF0008105910538F420E04091040F60E082E8DF
:104C000091E019CF20E04091040F60E081E891E04D
:104C100012CFE12C10E000E0EECFE12C10E000E03C
:104C200020E04091040F60E085E390E004CFE12CA8
:104C300010E000E020E04091040F60E08BE390E0A2
:104C4000FACE89EB91E00E949661EE24E39410E0A5
:104C500000E020E04091040F61E089EB91E04ACF51
:104C6000EF920F931F93CF93DF9320918906211129
:104C7000A5C020919806309199062130310509F0A0
:104C80009DC0EC01AC0170E060E087EF9FE00E9406
:104C9000C6130E949E58882321F010920E11109284
:104CA0000F1180918C06882319F080E00E94CE2499
:104CB00080916019823009F4AEC0833049F18130AF
:104CC00009F4ACC080915F19833009F488C0853045
:104CD00009F49BC0823009F08DC080916319853042
:104CE00009F472C08AE090E00E94966187E490E047
:104CF0000E94966180E891E00E94966180915F1920
:104D00008250823008F084C089E490E00E9496616D
:104D100081E0809389060E94CA61BE018DE190E026
:104D20000E94B11880915F19853009F047C0EE24C8
:104D3000E39410E000E020E04091040F60E08FE891
:104D400091E00E94E16104EC19E021E04091040F40
:104D500061E087E390E00E94E1610E949E58882311
:104D6000C1F010E000E020E04091040F60E08DEB26
:104D700091E00E94E16189EB91E00E9496618EE4EE
:104D800091E00E9496618AEB91E00E9496611092F8
:104D9000140481E090E00E94966185E991E00E9410
:104DA000966180916819853011F40E94715881E0F4
:104DB0008093940680938E0680938D06DF91CF9129
:104DC0001F910F91EF90089588E891E00E949661FD
:104DD0008BE891E00E9496618AE891E08DCF8BE0AC
:104DE00090E00E94966187E490E00E9496618AE0DC
:104DF00090E082CF81E891E00E94966182E891E0A4
:104E00000E94966183E891E077CF82E891E074CFC9
:104E10008FE690E07BCF85E390E078CF8BE390E066
:104E200075CFEF920F931F934091040F80916019FB
:104E3000EE24E39410E000E020E060E0823039F5F9
:104E400083E591E00E94E16181E080939306809187
:104E500060198230C1F548EB5BE060E070E082E40D
:104E600090E10E94C61380915F198250823040F415
:104E70008CE291E09093CF028093CE020E94E95899
:104E800083E190E01F910F91EF900C94E31888E676
:104E900091E00E94E16180915F198450823040F47A
:104EA00020E04091040F61E089E691E00E94E16119
:104EB000EE24E39410E000E020E04091040F60E075
:104EC00085E591E0BFCF40EA5FE060E070E082E41A
:104ED00090E10E94C61310921310109214101092B9
:104EE0001D1010921E1042E350E060E070E08BE075
:104EF00090E1B7CF8F929F92AF92BF92CF92DF9205
:104F0000EF92FF920F931F93CF93DF93CDB7DEB74E
:104F1000EB970FB6F894DEBF0FBECDBF80910A05A8
:104F2000811111C082EF94E00E949209109209054C
:104F30001092080588EF92E09093F3048093F204B6
:104F400081E080930A0582EF94E00E940D0A8CECC8
:104F500095E09093F5048093F4048EE390E09093B1
:104F60000105809300058FEF8093F80480EB809318
:104F7000F90480EF8093FA0410923C0A10923D0AE3
:104F800010923E0A10923F0A80912A05811111C0A9
:104F900082E195E00E94920910922905109228055D
:104FA0008EE093E0909313058093120581E0809347
:104FB0002A0582E195E00E940F0A8EE194E0909329
:104FC00015058093140580E490E09093210580936B
:104FD000200580913C0A90913D0AA0913E0AB09133
:104FE0003F0A843C29E09207A105B10520F484EC36
:104FF00099E0A0E0B0E080933C0A90933D0AA09332
:105000003E0AB0933F0A8FEF8093180580EB8093A0
:10501000190580EF80931A058091390A0E94DE8C71
:1050200040E855E260E070E08AE899E00E94FF8184
:1050300040E855E260E070E08DEE98E00E94FF816C
:1050400040E855E260E070E080E598E00E94FF8172
:105050008DEE98E09093830E8093820E84E690E02C
:10506000A0E0B0E08093840E9093850EA093860E0E
:10507000B093870E2AE839E03093710E2093700EBA
:105080001092720E80937C0E90937D0EA0937E0EF4
:10509000B0937F0E80E598E09093620C8093610C52
:1050A00082E390E0A0E0B0E08093630C9093640C06
:1050B000A093650CB093660C3093500C20934F0C6A
:1050C0001092510C80935B0C90935C0CA0935D0C40
:1050D000B0935E0C8091340265E00E943CC9E82FD9
:1050E000F0E0EA5BF54FE491E093E002E093060F15
:1050F000E093050F40E051EE60E070E083EB97E055
:105100000E94FF811092720F1092730F1092740F11
:1051100083EB97E090932C0F80932B0F10924E0F00
:1051200010924F0FE0E5FFE08CE69FE02FEF3FEF9E
:10513000219331938E179F07D9F780912B0F909170
:105140002C0FDC01ED91FC910084F185E02D199587
:10515000892B61F080912B0F90912C0FDC01ED9148
:10516000FC910284F385E02D1995E7CF0E94D28C43
:1051700068517C4FFE0131966F014B01B12CA12C7F
:1051800034E1F32E05E011E10E947E868091740FD8
:10519000811118C00E94D28C681579058A059B057B
:1051A00088F4D601EF2D1D92EA95E9F709831D8356
:1051B000C6010E9448806AE070E080E090E00E94B2
:1051C000A08CE2CF0E947E868091740F882309F420
:1051D00014C280916E0F90916F0F90939C078093F3
:1051E0009B07009709F4FCC122E030E030939E0752
:1051F00020939D078D36910518F080E00E94B25AE9
:1052000060916E0F70916F0FC6010E94AD8769E2C9
:105210007AE0CE01C6960E94FF4DBE016A5C7F4FC8
:10522000CE014E960E942D4EB601CE014E960E94A2
:10523000994DCE014E960E94F74DCE01C6960E9422
:10524000F74DC6010E94F74D0E947E8600916C0FBB
:1052500010916D0FC8010E947C7E809182050E9492
:10526000E05A8AEB9FEF0E9489870E9469878091AC
:105270001804811104C080911704882369F00C334D
:10528000110550F0E12C10E000E020E040E060E08B
:105290008CE390E00E94E16110922B0710922A07A4
:1052A00010929907109298070E94F90A87EBA82E8E
:1052B00088E0B82EB0925905A092580508EB18E086
:1052C00010935D0500935C058CE08093B8006CED55
:1052D0007AE0C6010E94FF4DC6010E94F74D80EAA8
:1052E0009FE09093A90E8093A80E10922B07109226
:1052F0002A0710929907109298070E94F90AB09213
:105300005905A092580510935D0500935C056FEF59
:105310007FEF90E080E00E94228A182FEFE1FEE408
:105320003197F1F700C0000081110EC08FE999E3B9
:105330009093FE0E8093FD0E6FE979E390E080E09C
:105340000E94228A0E942A8B612FC6010E94D9875F
:1053500067EC7AE0CE01C6960E94FF4DBE016A5C02
:105360007F4FCE014E960E942D4EB601CE014E9635
:105370000E94994DCE014E960E94F74DCE01C696E1
:105380000E94F74DC6010E94F74D1111EFC181E057
:10539000809332056BE57AE0C6010E94FF4DC6019D
:1053A0000E94F74D87E797E09093FE0E8093FD0EE5
:1053B00067E777E090E080E00E94228A0E942A8BD3
:1053C0000E94D28C6093DE0E7093DF0E8093E00E0D
:1053D0009093E10E4091DC0E5091DD0E70E060E0A4
:1053E00086EE9EE00E94C6134091A80E5091A90E31
:1053F00070E060E082EB9EE00E94C6136C98749AA5
:105400006D98759A0A9A129882E390E0A0E0B0E055
:105410008093DA109093DB10A093DC10B093DD1032
:105420008093C0109093C110A093C210B093C3108A
:105430008093A6109093A710A093A810B093A910E2
:1054400080938C1090938D10A0938E10B0938F103A
:1054500080938E0F90938F0FA093900FB093910F26
:105460008093721090937310A0937410B093751082
:105470008093581090935910A0935A10B0935B10DA
:1054800080912101887F84608093210161E08DE219
:105490000E94EF889A9A3C9A3A9A579A80910A0108
:1054A000886080930A019D9A6B9A809101018860BF
:1054B00080930101809101018061809301018091BD
:1054C00001018062809301018091010180648093D9
:1054D0000101249A259A80919C1090919D10892B0E
:1054E00009F04FC181E0809346028091B6109091FF
:1054F000B710892B09F048C182E080935F19809131
:105500005F198093A60F8CEF9FE00E94B3C88EAB0B
:105510008DEF9FE00E94B3C88FAB8EEF9FE00E949B
:10552000B3C888AF8FEF9FE00E94B3C889AF0E94D5
:1055300044590EA91FA928AD39AD6017710782071C
:10554000930709F03CC48E01025E1F4FD12CC12C81
:10555000C6010E94B3C8D8018D938D01BFEFCB1A4D
:10556000DB0AE8E1CE16D10499F78E8D982F9D7F46
:105570009D3009F00BC18093E9028F3009F00EC114
:1055800088E28093360287E28093E7028F8D8C3029
:1055900039F0843129F0843219F0883209F003C1DE
:1055A0008093E80288A18C3059F099EE980F9230E0
:1055B00038F08A3129F09DED980F923008F007C13C
:1055C00080933902893108F0F5C0873108F0F5C0C1
:1055D0008C3009F4F7C089E08093380286E0F5C08A
:1055E00081E090E090939E0780939D0784E690E091
:1055F00090939C0780939B0703CE8AEB9FEF0E94BA
:1056000089870E94698704E1D601E02F1D92EA95FF
:10561000E9F715E0198381E08D83C6010E94488077
:10562000D6011D920A95E9F7198382E08D83C601A0
:105630000E9448806AE070E080E090E00E94A08CC8
:105640000E947E868091720F882309F471C0A7E7BB
:10565000BFE0F601CE0145962D9121938E179F074D
:10566000D9F70E947E868091730F8E01025E1F4FD4
:10567000882309F46CC080E098E090932D02809319
:105680002C020E947E86A0906C0FB0906D0FC50119
:105690000E947C7EFE01B09682E1DF011D928A9518
:1056A000E9F787E08E8F18A21F8E8CE08AA3C801CD
:1056B0000E94488094E1892EF801282D11922A95A4
:1056C000E9F726E0922E9E8E89E08AA3C8010E9407
:1056D0004880D8011D928A94E9F79E8E8EE08AA3B5
:1056E00081E08CA3C8010E94488083E090E0909301
:1056F0009E0780939D0781E090E090939C078093A4
:105700009B0767E17AE0C8010E94FF4DC8010E9433
:10571000F74D80911804811105C0809117048823EA
:1057200009F4BACDBCE3AB16B10408F4B5CDAACDEB
:1057300010929E0710929D070E94618660EE79E0AC
:10574000C6010E94FF4DC6010E94F74DA5CD60EF36
:1057500079E0C8010E94FF4DC8010E94F74D1092E8
:105760009E0710929D070E94618696CD1092320589
:1057700061E77AE0C6010E94FF4DC6010E94F74D25
:1057800033CE10924602B1CE84E0B7CE809132057E
:10579000882309F4FBCE8DE08093E9028EE28093AA
:1057A00036028DE2F1CE80913205882309F4FACEDB
:1057B0008CE0F6CE8A3109F00ECF8CE0809338026F
:1057C00089E003C09FE090933802809337028CA554
:1057D0009FEF980F943110F480931D048DA59EEFD8
:1057E000980F933040F4833009F458C0843009F4A2
:1057F00059C010922F029EA58FEF890F823030F48E
:1058000081E0923008F480E080931C0498A98FEF27
:10581000890F823030F481E0923008F480E0809388
:10582000C80299A98FEF890F823030F481E092305D
:1058300008F480E0809385058DA9823010F4809370
:105840001B0480911B04813031F48091E8028C307C
:1058500011F4109285059AA98FEF890F823030F4E8
:1058600081E0923008F480E0809388059BA98FEF57
:10587000890F823030F481E0923008F480E0809328
:1058800043028FA59EEF980F933090F4823061F021
:10589000833009F46AC282E090E069C281E08093BB
:1058A0002F02A9CF82E0FBCF109242021092410258
:1058B00099A18FEF890F843030F481E0913009F4A1
:1058C00080E0809383058AA19FEF980F9E3F10F49C
:1058D0008093DC028BA19FEF980F9E3F10F4809382
:1058E000DA028CA19FEF980F9E3F10F48093D802AC
:1058F0008DA19FEF980F9E3F10F48093DD028EA143
:105900009FEF980F9E3F10F48093DB028FA19FEFD3
:10591000980F9E3F10F48093D90288A59CEE980FB3
:10592000913510F480933A0289A59CEE980F913539
:1059300010F480933D028AA59CEE980F913510F4E7
:1059400080933C028BA59CEE980F913510F48093C8
:105950003B029CA98FEF890F823040F481E09230A6
:1059600008F480E0809382050E94E05A0E9445205E
:105970000E9457200E946420CE0101966C0108E12C
:1059800010E0C8010E94B3C8D6018D936D010F5F6E
:105990001F4F05331105A9F799818FEF890F8230C9
:1059A00030F481E0923008F480E080931A049A8108
:1059B0008FEF890F823030F481E0923008F480E07C
:1059C00080933E028B819FEF980F923078F491E0A4
:1059D000823008F490E090934002823009F4CCC108
:1059E0008CE291E09093C7028093C6029C818FEF76
:1059F000890F823030F481E0923008F480E08093A7
:105A000047029D818FEF890F823030F481E0923020
:105A100008F480E08093CD029E818FEF890F823061
:105A200030F481E0923008F480E08093BB029F81E3
:105A30008FEF890F823030F481E0923008F480E0FB
:105A40008093CC0298858FEF890F823030F481E00B
:105A5000923008F480E08093CB0589859EEF980F03
:105A6000943090F4833029F0853019F0823009F0B9
:105A700086C180935F1980915F198093A60F8093F0
:105A8000350281E0809386058A859FEF980F9230DA
:105A900040F4823009F475C181E080935D190E9461
:105AA0005A889B858FEF890F823030F481E09230E5
:105AB00008F480E080939C069C858FEF890F8230EC
:105AC00030F481E0923008F080E080939B059A8D5D
:105AD0008FEF890F823030F481E0923008F480E05B
