:100000000C9487080C94B8080C94B8080C94B808A1
:100010000C94B8080C94B8080C94B8080C94B80860
:100020000C94B8080C94B8080C94B8080C94B80850
:100030000C94B8080C94B8080C94B8080C94B80840
:100040000C94B8080C94B8080C94B8080C94B80830
:100050000C94B8080C94B8080C94B8080C94168842
:100060000C94B8080C94C1720C9497720C94B80854
:100070000C94B8080C94B8080C94B8080C94B80800
:100080000C94B8080C94B8080C94B8080C94B808F0
:100090000C946D720C9443720C94B8080C94A813D1
:1000A0000C94B8080C94B8080C94B8080C94B808D0
:1000B0000C94B8080C94B8080C94B8080C94B808C0
:1000C0000C94B8080C94B8080C94B8080C941972E5
:1000D0000C94EF710C94B8080C94C5710C949B713E
:1000E0000C94B80805A84CCDB2D44EB93836A90244
:1000F0000C50B9918688083CA6AAAA2ABE00000026
:10010000803F07634236B79BD8A71A39685618AEA6
:10011000BAAB558C1D3CB7CC5763BD6DEDFD753E3C
:10012000F6177231BF000000803F08000000BE9249
:100130002449123EABAAAA2ABECDCCCC4C3E00002C
:100140000080BEABAAAAAA3E00000000BF000000CB
:10015000803F0000000000084178D3BB4387D113E3
:100160003D190E3CC3BD4282AD2B3E68EC8276BE8B
:10017000D98FE1A93E4C80EFFFBE01C4FF7F3F0055
:10018000000000000C94475F0C946F7D0C940D9B55
:100190000C94652C0C9468A10C9494940C940DA070
:1001A0000C94E90B0C948E7A0C94CD6E0C94878F82
:1001B0000C94DB6A0C9412990C9446A10C94385B55
:1001C0000C94E1080C9412980C943A980C9452AB4D
:1001D0000C94C36D0C94DA6D0C94816D0C94E4084E
:1001E0000C94F4A60C9427610C945D610C943D7DF5
:1001F0000C94C99F0C94BAAB0C94815E0C94109033
:100200000C94317B0C94EF6D0C9408AB0C94AE7A8B
:100210000C94B37A0C9484AA0C944A0A0C94D9AD29
:100220000C946D5C0C94D6A60C94D79E0C94C67B53
:100230000C94ADAD0C946D0A0C94B18F0C948F9A04
:100240000C943EA70C9440960C94FBA50C94C98882
:100250000C940B9C0C9464AC0C9414A30C94480A5E
:100260000C94345E0C947CA00C94307D0C94CB5F89
:100270000C9439700C94617B0C9434610C94A0AB99
:100280000C94956D0C940E5F0C9425970C941C792E
:100290000C94A46D0C94765E0C94185D0C94D36051
:1002A0000C94AB2C0C94EA990C94DAAC0C94339F1C
:1002B0000C94FB930C9417980C94A06F0C94EA95F3
:1002C0000C9481A80C94787B0C94335C0C948FA9CB
:1002D0000C94BB6F0C94B2990C94457D0C94B58E24
:1002E0000C9487610C9495A20C94C6AA0C94169E4B
:1002F0000C94A67A0C94B87A0C9483AD0C94F22CDE
:100300000C94866A0C94619F0C947BAD0C94E2086B
:100310000C9435A60C946D920C9474990C943F7DBA
:100320000C9491A20C9446A50C947D5D0C943E9384
:100330000C9404A20C947D7A0C941EA20C94AD70C3
:100340000C94E5900C942E6D0C94DE2B0C94549927
:100350000C94F8830C9424A10C941C980C942D7D7F
:100360000C946DAE0C9402A10C9402A30C94857AAB
:100370000C9425A90C940B5F0C945C7D0C94FDA748
:100380000C94137D0C94847B0C944A6D0C94A39272
:100390000C9454970C94927A0C9490940C94BF986B
:1003A0000C94B65D0C94D05C0C945A7D0C94A1A670
:1003B0000C94377D0C9487830C94ADA30C9420ACE3
:1003C0000C9407AA0C9476930C94D48E0C94C27D52
:1003D0000C94B00A0C94BEA10C94717D0C9477AE71
:1003E0000C9405A00C945C8F0C9421900C943F9479
:1003F0000C94A5A70C94377B0C9424610C94A77BD8
:100400000C94987A0C94808A0C9411910C946EAA96
:100410000C942C700C94E59F0C943E610C94C68F48
:100420000C94C8920C9407610C942DA50C946A98B6
:100430000C949CA00C941EAB0C94AA7B0C94C178D9
:100440000C9429940C94036F0C94F6900C94A07A5D
:100450000C94937D0C940D5D0C947C6D0C941D0B91
:100460000C94ADA90C947FAD0C943CBF0C94FA6035
:100470000C94D4900C94AA7A0C94268F0C94EE7859
:100480000C9418970C9406090C94E7A70C94B0A24E
:100490000C94AB9F0C94C27B0C94639A0C9426989A
:1004A0000C94A99E0C94E39A0C94330A0C94F0A239
:1004B0000C9483790C94CBA90C94A26D0C941684A3
:1004C0000C94AA5F0C94CE900C941B7B0C94315E20
:1004D0000C941D910C9457AE0C94B0910C94208404
:1004E0000C9414970C94375E0C94E3080C94FE6DF6
:1004F0000C94EAA10C94F68E0C94BFAD0C94F3AD61
:100500000C94359D0C948E830C94E7950C94267D69
:100510000C9431910C9454A70C94CB830C943A090D
:100520000C94CD950C94587D0C949C7A0C94437D3E
:100530000C946A8F0C94DCAA0C947F980C94FC7B2E
:100540000C94D1900C94ED950C9456960C94EC97D9
:100550000C9414610C94612D0C940E7D0C94DA9320
:100560000C94135E0C942E990C9479910C94F1993F
:100570000C94417D0C94DF5C0C9400910C943F989A
:100580000C94B50A0C949D830C94FEAB0C940D094D
:100590000C94895F0C94817A0C94B70A0C94D978E6
:1005A0000C94459B0C9458AA0C94CE910C94DA951B
:1005B0000C94B30A0C946CAB0C948AA10C946B6DE4
:1005C0000C9429A80C94192C0C94C1910C94A0970C
:1005D0000C94EC0B0C945E940C94C1830C94217BD2
:1005E0000C94F0A80C94EB920C9441AE0C942D5FFB
:1005F0000C94F2AA0C944B7B0C943B7D0C94BBA7FF
:100600000C9438AB0C94DA6F0C94E0A20C94C09567
:100610000C9414960C94F57B0C9468910C9435987A
:100620000C9402840C94397D0C941D920C94906D62
:100630000C94077D0C9493830C94FBA40C94999FC9
:100640000C943B970C94887A0C9409A00C94357DFB
:100650000C946F6E0C94A06B0C9419A00C94306FDA
:100660000C94547D0C942A960C94485C0C94A20C27
:100670000C9453910C94FA0E0C942B980C94EE7BE2
:100680000C94B47A0C9442AC0C9470940C94297D24
:100690000C94336D0C940DAE0C94728F0C94BEA020
:1006A0000C94DC7B0C9415AD0C94C8A20C94E56BF7
:1006B0000C94AAAE0C948DA20C942B610C946AA796
:1006C0000C947A970C94DCAB0C94D5830C94E57B5A
:1006D0000C94466E0C944FA40C94FD6A0C94A78362
:1006E0000C94227D0C9438A20C943D9A0C946BA827
:1006F0000C94E2A40C94179A0C948F2D0C944291B4
:100700000C9439790C94BE5C0C94795E0C943098FE
:100710000C94E27D0C94EB5C0C945E7D0C947A6DF1
:100720000C94337D0C948E910C946C7B0C946B5ECA
:100730000C9428A70C94180A0C94E0A00C94CA7B83
:100740000C94CE960C94F3080C94A39F0C94ACA13B
:100750000C949F910C94027D0C9414A50C94DB9D39
:100760000C9442AA0C94B67D0C9444980C94CC6AD8
:100770000C949C8F0C9421610C9474610C94BBA814
:100780000C943A8F0C9413A80C945AA90C948F6E65
:100790000C94332D0C94187D0C94D1A70C9455A86F
:1007A0000C9498950C94596D0C94157B0C948E6D4B
:1007B0000C94A85C0C94277B0C94797A0C94EE83AF
:1007C0000C948F9F0C9469090C9408940C94FF8FDF
:1007D0000C94685F0C94A79F0C94DF830C94799A17
:1007E0000C943F0A0C941C970C9412A70C94735E03
:1007F0000C94E60B0C949FAC0C948D5C0C94939E23
:100800000C94F0980C94545C0C9433900C94B0AA13
:100810000C949AAA0C94638F0C94E9A90C94EF6A37
:100820000C94AE930C94F00B0C94B1830C943FA8F1
:100830000C94B9830C94737A0C94B2930C94AC5CC2
:100840000C940C840C946F5E0C94C6970C94889D49
:100850000C94E5780C94567B0C9486AB0C94440A6B
:100860000C94059F0C943BA00C946D7D0C945DA0A2
:100870000C9421980C94115F0C947D9E0C94AF6D98
:100880000C946B940C94B99A0C9470610C94FB903A
:100890000C94536B0C94460AC4DFE9EFF3F6F9FBB2
:1008A000FDFE000102030405060708090A32002DB7
:1008B000280023001E0000190000140000000F0093
:1008C000000000000A0000000000000000000564B5
:1008D0005F5A55504B46413C3732002D28002300CB
:1008E0001E0000190000140000000F0000000000AE
:1008F0000A0000000000000000000532373C4146BD
:100900004B50555A5F645761726E696E673A204367
:10091000616C63756C61746564206D7573696320C7
:10092000636F756E742065786365656473206D61AF
:1009300078696D756D20706F737369626C653B20AB
:100940005344206361726420636F727275707469BE
:100950006F6E206C696B656C7921005761726E69EE
:100960006E673A20547261636B20636F756E7420FA
:10097000646F6573206E6F74206D617463682066A8
:1009800069726D776172652120506C6561736520B5
:1009900075706461746520746865206D6963726F39
:1009A0005344206361726420736F756E64206566C2
:1009B00066656374732E00010203040506070809C7
:1009C0000A0B0C0D0E0F101112131415161718190F
:1009D0001A1B1C1D1E1F2021222324252627280127
:1009E0000203040506070809000A0B0C0D0E0F1080
:1009F000111200131415161718191A1B001C1D1EAE
:100A00001F2021222324000102030405000000000E
:100A100000060708090A00000000000B0C0D0E0F6D
:100A2000000000000010111213140000000000016B
:100A300002030000000000000004050600000000A2
:100A4000000000070809000000000000000A0B0C6D
:100A50000000000000000001000000000000000095
:100A60000002000000000000000000030000000081
:100A70000000000000040000000000000000000072
:100A80001C120A041F160D02110C07010A070400AC
:100A90000A121C040D161F02070C110104070A415B
:100AA0007474656E7561746F722053796E6320453E
:100AB0006E6400417474656E7561746F7220537951
:100AC0006E63205374617274005468656D652063B1
:100AD00068616E67656420746F2046726F7A656E18
:100AE00020456D70697265202832303234290054F7
:100AF00068656D65206368616E67656420746F204A
:100B000041667465726C696665202832303231291D
:100B1000005468656D65206368616E676564207464
:100B20006F2047423220283139383929005468650E
:100B30006D65206368616E67656420746F2047424D
:100B4000312028313938342900417474656E75615B
:100B5000746F722053796E6368726F6E697A656420
:100B600000417474656E7561746F722070726F7479
:100B70006F636F6C206D69736D61746368210041F0
:100B80007474656E7561746F722070726F746F63C8
:100B90006F6C206D69736D617463682100476574C3
:100BA00074696E67205061636B2050726566657270
:100BB000656E6365730047657474696E6720536D75
:100BC0006F6B6520507265666572656E6365730054
:100BD000436F6D6D616E6420746F2057616E643A6F
:100BE000200057616E642053796E6320456E640067
:100BF00057616E642053796E632053746172740080
:100C00004E6F20417564696F2044657669636500A5
:100C10005761726E696E673A205253505F53595351
:100C200054454D5F494E464F206E6F742072656388
:100C3000656976656421005573696E672057415672
:100C40002054726967676572005573696E67204743
:100C5000505374617220417564696F2056657273D8
:100C6000696F6E3A2000C4D5DFE5E9ECEFF1F3F4EB
:100C7000F6F7F8F9FAFBFCFDFEFF00436F6E6669BC
:100C80006775726520506F776572204D6574657267
:100C900000556E61626C6520746F2066696E642019
:100CA000706F776572206D6F6E69746F72696E67B1
:100CB00020646576696365206F6E206932632E203B
:100CC000506F776572206D6574657220666561741A
:100CD000757265732077696C6C2062652064697336
:100CE00061626C65642E00506F776572204D65748B
:100CF000657220526573756C743A2000496E697490
:100D000020706F776572206D657465722E2E2E00CF
:100D10004552524F523A204E6F2063616C6C6261B3
:100D2000636B20617661696C61626C6520666F72CD
:100D3000207061636B65742049442000000000004E
:100D40006410B71DC8206E3BAC30D9269041DC76CC
:100D5000F4516B6B5861B24D3C7105502083B8ED76
:100D600044930FF0E8A3D6D68CB361CBB0C2649B9A
:100D7000D4D2D38678E20AA01CF2BDBD57616E645E
:100D80002053796E6368726F6E697A65640057618B
:100D90006E642070726F746F636F6C206D69736D19
:100DA00061746368210057616E642070726F746FA4
:100DB000636F6C206D69736D6174636821005265A7
:100DC00063762E2057616E6420536D6F6B652050E3
:100DD0007265667300526563762E2057616E6420DB
:100DE000436F6E6669672050726566730052656373
:100DF000762E2057616E6420446174613A2000525F
:100E00006563762E2057616E6420436F6D6D616E51
:100E1000643A2000536176696E6720536D6F6B658D
:100E200020507265666572656E6365730053617606
:100E3000696E672057616E642050726566657265E1
:100E40006E63657300436F6D706C657465642075C7
:100E50007064617465206F66207061636B207365D8
:100E60007474696E67730052756E6E696E67207573
:100E700070646174652066756E6374696F6E732E3D
:100E80002E2E005570646174696E6720706F7765EF
:100E9000722063656C6C207661726961626C657347
:100EA0002E2E2E005570646174696E6720696E6E17
:100EB0006572206379636C6F74726F6E20766172F5
:100EC0006961626C65732E2E2E00557064617469C1
:100ED0006E67206F75746572206379636C6F7472CE
:100EE0006F6E207661726961626C65732E2E2E00C2
:100EF0005570646174696E672067656E6572616CB8
:100F0000207661726961626C65732E2E2E005361CA
:100F100076696E67205061636B20507265666572FA
:100F2000656E63657300526563762E20536D6F6B3B
:100F30006520436F6E66696700526563762E2057A1
:100F4000616E6420436F6E66696700526563762E3A
:100F5000205061636B20436F6E6669670052656362
:100F6000762E20417474656E7561746F72204D65C4
:100F700073736167653A2000526563762E20417471
:100F800074656E7561746F7220436F6D6D616E6410
:100F90003A2000000102030405060708090A0B0CA9
:100FA0000D0E000102030405060708090A0B0C0ECA
:100FB0000D0C0B0A090807060504030201000C0BBF
:100FC0000A09080706050403020100B80BB80BACB8
:100FD0000DAC0DA00F3075983A10274C1D70173DC1
:100FE00000640165016601670100002100240027FB
:100FF000002A002D00300033000101000004010729
:10100000010A0100002200250028002B002E0031DB
:1010100000340002010000050108010B010000205E
:10102000002300260029002C002F003200000100C0
:101030000003010601090105050505070508080863
:1010400008020202020A0A08080404040401010159
:101050000101010101030303030303030304070761
:10106000070C0C0C0C0C0C0C0C02020202060606FF
:1010700006060606060B0B0B0B0B0B0B0B010210E7
:1010800020200808102040102040800201020108A2
:101090000402010102040810204080804020100852
:1010A00004020180040201804020100804020108AB
:1010B000040201010204081020408001020408100B
:1010C00020408000000A0B02090C0D0E08070304E3
:1010D000010000000000000000000000000000000F
:1010E00000000000000000000000000000000012EE
:1010F00011100000000000000000000000000000CF
:10110000000000000000000000003CBFC98811245E
:101110001FBECFEFD1E2DEBFCDBF00E00CBF13E0BA
:10112000A0E0B2E0E2E1F7E901E00BBF02C0079006
:101130000D92A63EB107D9F729E1A6EEB3E001C0B2
:101140001D92AF3AB207E1F718E0C6E8D8E000E038
:1011500006C021970109802FFE010E94E1C5C53814
:10116000D10780E00807A9F70E94C7890C9477CBC4
:101170000C94000020915905260F3327331F21328C
:101180003105ECF420916A07FC0190E080E0243006
:1011900069F082E00895A09159052191AC01495C64
:1011A0005A4FA40FB52FB11D2C930196861798F3B3
:1011B00080915905680F6093590580E0089581E09A
:1011C0000895089508950895E091230780912207D6
:1011D000E81730F4F0E0EC5DF84F808190E008957E
:1011E0008FEF9FEF089590912307809122072FEFB3
:1011F0003FEF981748F4E92FF0E0EC5DF84F2081BD
:1012000030E09F5F90932307C901089580912207E2
:1012100090912307891B990B0895CF92DF92EF924B
:10122000FF920F931F93CF93DF937C01CB018A0131
:1012300020919207222389F0EB016B01C40ED51E89
:10124000CC15DD0569F06991D701ED91FC91019014
:10125000F081E02DC7011995F3CF642F0E94BA08E1
:10126000C801DF91CF911F910F91FF90EF90DF9018
:10127000CF900895CF93DF931F92CDB7DEB76983E8
:10128000209192072223F9F020919007203258F004
:1012900021E030E0FC013383228390E080E00F9076
:1012A000DF91CF91089580919107E82FF0E0E05908
:1012B000F84F998190838F5F809391078093900777
:1012C00081E090E0ECCF61E0CE0101960E94BA0887
:1012D000F7CF90E080E00895FC0120893189848572
:1012E00095852817390741F481E04289538926857D
:1012F00037854217530709F080E00895FC012089E3
:101300003189868597852817390741F481E042891C
:101310005389248535854217530709F080E00895E5
:10132000AF92BF92CF92DF92EF92FF920F931F93F3
:10133000CF93DF9300D0CDB7DEB75A0119821A825E
:101340001B82882361F18B01E1E0F0E0E82EF12CB3
:10135000D8012D918D012223F1F06F01B1E0CB1A5C
:10136000D108D501AC0DBD1D4C914423A1F030E056
:101370002F5F3F4FD7010E948EC5A42FB0E011967A
:101380009B01AC010E9459C5A1E0B0E0AC0FBD1FAC
:10139000AC0DBD1D8C933196E430F105C9F6698121
:1013A0007A818B810F900F900F90DF91CF911F91D9
:1013B0000F91FF90EF90DF90CF90BF90AF90089586
:1013C000FC018CE293E091838083138212828FEF81
:1013D00086838783808781878287838781E084876C
:1013E00085871786168680E797E1918B808B83E04F
:1013F00090E0938B828B158A148A158214828091D7
:10140000A9079091AA07892B21F4F093AA07E093EA
:10141000A907A0913405B0913505109721F01596D4
:10142000FC93EE931497F0933505E09334050895FB
:1014300081E090E00895982FE62F603411F4E09158
:101440005919F0E03197E730F10578F48827E45D29
:10145000F54F8F4F0C94E1C5330A3F0A440A6D0AD9
:10146000460A480A4A0A83E10895933011F19530FB
:1014700081F1911134C084E108958DE00895809147
:101480005719833071F508958BE0089589E1089527
:1014900088E10895923049F020F4992341F08EE1DB
:1014A0000895933031F09430D1F78FE108958DE1B4
:1014B00008958091A6078F5F853068F4982F937008
:1014C00051F08093A6078091A6078130E9F282301F
:1014D000A1F681E0089581E0F4CF8CE1089585E0E4
:1014E00008958FE008950F931F93CF93DF9320917A
:1014F00033052F5F322F37703093330520FF2BC019
:1015000020E831FD2064347009F02062205FFC0186
:10151000EC01239600E011E06785662329F070E076
:10152000C8010E94CDC56F5F6187822F869F080E1C
:1015300080E0811D1124811110C01682662311F0F4
:10154000615061873196EC17FD0731F7DF91CF913C
:101550001F910F91089520E0D4CF81508683EECF64
:1015600080E991E00895209A0895279A08956F924E
:101570007F928F92CF92DF92EF92FF920F931F9301
:10158000CF93DF93CDB7DEB762970FB6F894DEBF87
:101590000FBECDBF8C016B017A01822FA801475F7E
:1015A0005F4FB8016A5F7F4F0E9490093B01882E10
:1015B000D8011C962C91C701F7FE04C088279927F3
:1015C0008E199F09DA82C9829C838B839E838D83C7
:1015D000688A798A8A8A213049F5CE0101960E946B
:1015E000730A83E08D871F861E86F7FE02C08DEF8B
:1015F0008D87D801ED91FC910088F189E02DBE0125
:101600006F5F7F4FC801199562960FB6F894DEBFE1
:101610000FBECDBFDF91CF911F910F91FF90EF9043
:10162000DF90CF908F907F906F9008951C861B86DF
:101630001A86198618861F82D4CFCF92DF92EF9236
:10164000FF920F931F93CF93DF93CDB7DEB76297CF
:101650000FB6F894DEBF0FBECDBF8C016B017A01CF
:10166000822FA801475F5F4FB8016A5F7F4F0E94DA
:1016700090099B01482FD8011C968C91DA82C9826F
:10168000FC82EB82FE82ED82288B398B4A8B813083
:1016900009F5CE0101960E94730A1D861F861E86DB
:1016A000D801ED91FC910088F189E02DBE016F5FBA
:1016B0007F4FC801199562960FB6F894DEBF0FBE32
:1016C000CDBFDF91CF911F910F91FF90EF90DF90F1
:1016D000CF9008951C861B861A86198618861F824D
:1016E000DCCF80919305813021F48091E6028C302B
:1016F00041F090915719925081E0923018F080E0BB
:10170000089581E00895843008F080E09091E60229
:10171000E82FF0E080915202882399F0943141F053
:10172000983261F09C3039F4E556F54F8491089574
:10173000E956F54FFBCFED56F54FF8CFE157F54F92
:10174000F5CF943139F0983259F09C3031F4E557A7
:10175000F54FECCFE957F54FE9CFED57F54FE6CF11
:10176000E158F54FE3CFE82F80912304882391F0CF
:101770001E163CF40E2E000CFF0BE550F74F849123
:101780000895EF3D94F0FF27E1950CF4F095E355B3
:10179000F74FF5CFE53D4CF01E164CF0FF27E195D5
:1017A0000CF4F095E153F74FEACF80E0089584E61A
:1017B0000895853608F084E62FEF829FC00111243A
:1017C00064E670E00E94CDC5862F089590E080E029
:1017D0000895FC0164870895FC01848590E00895D4
:1017E000FC018685978508950F931F93CF93DF9310
:1017F000EC018C01055E1D4FD8018D919C91DC019F
:10180000ED91FC910084F185E02D1995892B59F01B
:10181000F80180819181DC01ED91FC910284F385D6
:10182000E02D1995E9CFCE010E941378FE01E65E06
:10183000FD4FCD5FDD4F88818083DF91CF911F9178
:101840000F91089510926A0781E0809369071092C2
:10185000440761E084E10E94E98261E085E10E9441
:10186000E982E9EBF0E080818E7F808380818D7F4B
:10187000808388E48093B80085E48093BC00089559
:10188000CF92DF92EF92FF920F931F93CF93DF934C
:10189000EC0188810E94C0828C010E94FA862C890A
:1018A0003D892017310731F06E8B7F8B888F998FA0
:1018B0001D8B0C8BCE88DF88E88CF98C6C197D0928
:1018C0008E099F09CA80DB80EC80FD806C157D0548
:1018D0008E059F0530F08A899B89998B888B1B8B9D
:1018E0000A8B288939898A899B892817390781F0C9
:1018F0004A855B8542305105A1F48E819F81A88580
:10190000B9850196A11DB11D8E839F83A887B987D4
:10191000DF91CF911F910F91FF90EF90DF90CF90CB
:1019200008954115510531F42130310589F7892B8E
:1019300021F3EECF4130510559F7232B49F7019799
:1019400039F7DBCF4F925F927F928F929F92AF9247
:10195000BF92CF92DF92EF92FF920F931F93CF939C
:10196000DF932C01EB010E942584F201268937893F
:10197000621B730B6A307105B0F3F8948A819B8106
:10198000181619060CF0CBC1E881F98105B1016088
:1019900075B17E7F75B9BA848F812B2D281B822F5C
:1019A0002F834C85042E000C550BAA81BB81E8883F
:1019B000DF84C988E394D394C3949E813885998445
:1019C0008B84118120E0F32E622F322F3181112779
:1019D00088943111380F08F43FEF81958894E0FC2A
:1019E000130F17958894E1FC130F17958894E2FC68
:1019F000130F17958894E3FC130F17958894E4FC54
:101A0000130F17958894E5FC130F17958894E6FC3F
:101A1000130F17958894E7FC130F17958894232FBD
:101A2000E110212F8B0D122F002C05B900C017FFDC
:101A300075B930812227889400C000C0002C75B988
:101A40003111390F00C0002C05B900C016FF75B95F
:101A500008F43FEF9195889400C000C0002C75B940
:101A6000D0FC230F00C0002C05B900C015FF75B9CC
:101A700027958894D1FC230F00C000C0002C75B9B5
:101A80002795889400C0002C05B900C014FF75B9D3
:101A9000D2FC230F2795889400C000C0002C75B994
:101AA000D3FC230F00C0002C05B900C013FF75B98B
:101AB00027958894D4FC230F00C000C0002C75B972
:101AC0002795889400C0002C05B900C012FF75B995
:101AD000D5FC230F2795889400C000C0002C75B951
:101AE000D6FC230F00C0002C05B900C011FF75B94A
:101AF00027958894D7FC230F00C000C0002C75B92F
:101B00002795889400C0002C05B900C010FF75B956
:101B1000132FD110122F990D00C000C0002C75B9E1
:101B200000C000C0002C05B900C017FF75B9328194
:101B30002227889400C000C0002C75B931113F0DD8
:101B400000C0002C05B900C016FF75B908F43FEFBE
:101B5000E40FF51F00C000C0002C75B9C0FC230FB6
:101B600000C0002C05B900C015FF75B927958894F1
:101B7000C1FC230F00C000C0002C75B927958894C4
:101B800000C0002C05B900C014FF75B9C2FC230FBA
:101B90002795889400C000C0002C75B9C3FC230FA2
:101BA00000C0002C05B900C013FF75B927958894B3
:101BB000C4FC230F00C000C0002C75B92795889481
:101BC00000C0002C05B900C012FF75B9C5FC230F79
:101BD0002795889400C000C0002C75B9C6FC230F5F
:101BE00000C0002C05B900C011FF75B92795889475
:101BF000C7FC230F00C000C0002C75B9279588943E
:101C000000C0002C05B900C010FF75B9132FC1101A
:101C1000122FF19400C000C0002C75B9F80C00C060
:101C200000C005B900C017FF75B93181222788941B
:101C300000C000C0002C75B93111380F00C0002C55
:101C400005B900C016FF75B908F43FEF8195889477
:101C500000C000C0002C75B9E0FC230F00C0002CB0
:101C600005B900C015FF75B927958894E1FC230FCD
:101C700000C000C0002C75B92795889400C0002CC6
:101C800005B900C014FF75B9E2FC230F27958894AD
:101C900000C000C0002C75B9E3FC230F00C0002C6D
:101CA00005B900C013FF75B927958894E4FC230F8C
:101CB00000C000C0002C75B92795889400C0002C86
:101CC00005B900C012FF75B9E5FC230F279588946C
:101CD00000C000C0002C75B9E6FC230F00C0002C2A
:101CE00005B900C011FF75B927958894E7FC230F4B
:101CF00000C000C0002C75B92795889400C0002C46
:101D000005B900C010FF75B9132FE110122F8B0D0C
:101D100000C000C0002C75B9119709F086CEEA8189
:101D2000FB812EE130E0DF010E94E9C530E020E0D8
:101D3000A901AAE9EA9F0E0E411DFA9F400D511D0F
:101D400011244F0F511DDC01CB01840F951FA11DE4
:101D5000B11D893E43E09407A105B10508F434C0E4
:101D6000885E9340A109B10942E0B695A795979581
:101D700087954A95D1F747E0849F080E211D949FCF
:101D8000200D311D1124290F311D6091320570E0A5
:101D9000860F971F820F931F40911E0750911F07B8
:101DA0006091200770912107292F3327420F531F7D
:101DB000611D711D40931E0750931F0760932007FC
:101DC000709321078093320578940E942584F20154
:101DD000778B668BDF91CF911F910F91FF90EF90E2
:101DE000DF90CF90BF90AF909F908F907F905F904B
:101DF0004F9008954F925F927F928F929F92AF92F1
:101E0000BF92CF92DF92EF92FF920F931F93CF93E7
:101E1000DF932C01EB010E942584F201268937898A
:101E2000621B730B6A307105B0F3F8948A819B8151
:101E3000181619060CF0CBC1E881F98105B10068CC
:101E400075B17F7775B9BA848F812B2D281B822FAE
:101E50002F834C85042E000C550BAA81BB81E8888A
:101E6000DF84C988E394D394C3949E813885998490
:101E70008B84118120E0F32E622F322F31811127C4
:101E800088943111380F08F43FEF81958894E0FC75
:101E9000130F17958894E1FC130F17958894E2FCB3
:101EA000130F17958894E3FC130F17958894E4FC9F
:101EB000130F17958894E5FC130F17958894E6FC8B
:101EC000130F17958894E7FC130F17958894232F09
:101ED000E110212F8B0D122F002C05B900C017FF28
:101EE00075B930812227889400C000C0002C75B9D4
:101EF0003111390F00C0002C05B900C016FF75B9AB
:101F000008F43FEF9195889400C000C0002C75B98B
:101F1000D0FC230F00C0002C05B900C015FF75B917
:101F200027958894D1FC230F00C000C0002C75B900
:101F30002795889400C0002C05B900C014FF75B91E
:101F4000D2FC230F2795889400C000C0002C75B9DF
:101F5000D3FC230F00C0002C05B900C013FF75B9D6
:101F600027958894D4FC230F00C000C0002C75B9BD
:101F70002795889400C0002C05B900C012FF75B9E0
:101F8000D5FC230F2795889400C000C0002C75B99C
:101F9000D6FC230F00C0002C05B900C011FF75B995
:101FA00027958894D7FC230F00C000C0002C75B97A
:101FB0002795889400C0002C05B900C010FF75B9A2
:101FC000132FD110122F990D00C000C0002C75B92D
:101FD00000C000C0002C05B900C017FF75B93281E0
:101FE0002227889400C000C0002C75B931113F0D24
:101FF00000C0002C05B900C016FF75B908F43FEF0A
:10200000E40FF51F00C000C0002C75B9C0FC230F01
:1020100000C0002C05B900C015FF75B9279588943C
:10202000C1FC230F00C000C0002C75B9279588940F
:1020300000C0002C05B900C014FF75B9C2FC230F05
:102040002795889400C000C0002C75B9C3FC230FED
:1020500000C0002C05B900C013FF75B927958894FE
:10206000C4FC230F00C000C0002C75B927958894CC
:1020700000C0002C05B900C012FF75B9C5FC230FC4
:102080002795889400C000C0002C75B9C6FC230FAA
:1020900000C0002C05B900C011FF75B927958894C0
:1020A000C7FC230F00C000C0002C75B92795889489
:1020B00000C0002C05B900C010FF75B9132FC11066
:1020C000122FF19400C000C0002C75B9F80C00C0AC
:1020D00000C005B900C017FF75B931812227889467
:1020E00000C000C0002C75B93111380F00C0002CA1
:1020F00005B900C016FF75B908F43FEF81958894C3
:1021000000C000C0002C75B9E0FC230F00C0002CFB
:1021100005B900C015FF75B927958894E1FC230F18
:1021200000C000C0002C75B92795889400C0002C11
:1021300005B900C014FF75B9E2FC230F27958894F8
:1021400000C000C0002C75B9E3FC230F00C0002CB8
:1021500005B900C013FF75B927958894E4FC230FD7
:1021600000C000C0002C75B92795889400C0002CD1
:1021700005B900C012FF75B9E5FC230F27958894B7
:1021800000C000C0002C75B9E6FC230F00C0002C75
:1021900005B900C011FF75B927958894E7FC230F96
:1021A00000C000C0002C75B92795889400C0002C91
:1021B00005B900C010FF75B9132FE110122F8B0D58
:1021C00000C000C0002C75B9119709F086CEEA81D5
:1021D000FB812EE130E0DF010E94E9C530E020E024
:1021E000A901AAE9EA9F0E0E411DFA9F400D511D5B
:1021F00011244F0F511DDC01CB01840F951FA11D30
:10220000B11D893E43E09407A105B10508F434C02F
:10221000885E9340A109B10942E0B695A7959795CC
:1022200087954A95D1F747E0849F080E211D949F1A
:10223000200D311D1124290F311D6091320570E0F0
:10224000860F971F820F931F40911E0750911F0703
:102250006091200770912107292F3327420F531FC8
:10226000611D711D40931E0750931F076093200747
:10227000709321078093320578940E942584F2019F
:10228000778B668BDF91CF911F910F91FF90EF902D
:10229000DF90CF90BF90AF909F908F907F905F9096
:1022A0004F9008950F931F93CF93DF9300D000D0EA
:1022B000CDB7DEB78FEF9FEFDC0189839A83AB83C5
:1022C000BC8310E000E01E830D83BE016B5F7F4F77
:1022D000CE0101960E94EB72BE016A5F7F4FCE0174
:1022E00001960E94EB720F5F1F4F0433110559F7DF
:1022F0008DE190E09E838D83BE016B5F7F4FCE01A9
:1023000001960E94EB72BE016A5F7F4FCE0101967B
:102310000E94EB7287E190E09E838D83BE016B5F2C
:102320007F4FCE0101960E94EB72BE016A5F7F4F24
:10233000CE0101960E94EB7269817A818B819C812A
:10234000609570958095909526960FB6F894DEBFAF
:102350000FBECDBFDF91CF911F910F910895FF92D6
:102360000F931F93CF93DF93EC01F62E0881198111
:10237000C8010E9424C5F81621F06F2DC8010E94E3
:102380002CC5CE01DF91CF911F910F91FF90089541
:10239000EF92FF920F931F93CF93DF9300D000D063
:1023A000CDB7DEB70E94521169837A838B839C83F9
:1023B000CE0101967C010CEF1FE01E830D83F70117
:1023C00061917F01CE0105960E94AF110F5F1F4FF3
:1023D0000115F0E11F0789F726960FB6F894DEBFC6
:1023E0000FBECDBFDF91CF911F910F91FF90EF9066
:1023F00008958F929F92AF92BF92CF92DF92EF9209
:10240000FF920F931F93CF93DF931F921F92CDB72D
:10241000DEB78C0119828FEF8A83680125EEC21A1C
:102420002DEFD20AD6018D919C91DC01ED91FC91AA
:102430000084F185E02D1995F801E75EFD4F7F01DD
:10244000892B09F449C081E089834801FDEF8F1A87
:102450009F0A580126EEA21A2DEFB20AD6018D91DD
:102460009C91DC01ED91FC910084F185E02D1995A2
:10247000892B09F1F60180819181DC01ED91FC91BC
:102480000284F385E02D19958A83AE014F5F5F4F7B
:10249000BE016E5F7F4FC8010E944B78F7018083B9
:1024A000D4018C91F50180838330C1F218161CF0A1
:1024B000C8010E94F40BF70180810F900F90DF910B
:1024C000CF911F910F91FF90EF90DF90CF90BF9031
:1024D000AF909F908F900895AE014F5F5F4FBE0108
:1024E0006E5F7F4FC8010E944B78D7018C93F80133
:1024F000ED5FFD4F808177968083D8CFBF92CF92DA
:10250000DF92EF92FF920F931F93CF93DF931F926F
:10251000CDB7DEB78C016B01B42EDB018D919C91A0
:10252000F801E15FFD4F7F018F3F910508F475C011
:102530008FEF80836801F80180E091919E3709F068
:1025400067C0D7018C934CE353E0B801C8010E94E7
:102550002B784091230A5091240A980122503F4F32
:1025600080E0D601ED916D01E827E40FF52FF11D14
:1025700080812A173B07A9F7F801E350FE4FB0828C
:10258000F7019081F801E250FE4F90839EEF319663
:102590009083319680838EEFF82E6801B5EECB1ACA
:1025A000BDEFDB0AF60180819181B80164507E4F56
:1025B000DC01ED91FC910280F381E02D44E050E0DC
:1025C0001995F601808191814F2D50E0DC01ED914C
:1025D000FC910280F381E02DB8011995F60180810C
:1025E0009181B8017E5FDC01ED91FC910280F38165
:1025F000E02D42E050E019958F2D0F90DF91CF91A3
:102600001F910F91FF90EF90DF90CF90BF900895B2
:102610008F5F8E3F09F091CF96CF982F8FEF8083F9
:10262000F80180E0891728F421912E3719F5F70178
:102630008083D6018C918983AE014F5F5F4FB801D3
:10264000C8010E942B78F601208131814091230A34
:102650005091240AD80180E03327BD01601B710B23
:102660006217730748F4ED91E827E40FF52FF11D89
:102670008081F3CF8F5FD6CFF801E350FE4FB08259
:10268000D7019C9131969083F6019081F801E15039
:10269000FE4F908331968083D601FC907ECFCF93FE
:1026A000DF9391E0909336058823B9F0C091B8008C
:1026B000D091BA008091BC008A7B8093BC0060E01E
:1026C00084E10E94E98260E085E10E94E9820E9443
:1026D000220CD093BA00C093B800DF91CF91089537
:1026E00085ED8093BC0080916C0790916D07A0915F
:1026F0006E07B0916F070796A11DB11D23E0B69537
:10270000A795979587952A95D1F72091BC0024FD30
:1027100003C010926A07089540916C0750916D07AD
:1027200060916E0770916F07452B462B472B69F31D
:102730000097A105B10541F02AE22A95F1F700C002
:102740000197A109B109E1CF80916B070C944F1358
:102750001F920F920FB60F9211240BB60F922F9368
:102760003F934F935F936F937F938F939F93AF9319
:10277000BF93EF93FF938091B900887F803609F46F
:102780004DC008F040C0883209F4A9C028F5803156
:1027900009F49DC0C8F4882309F4FBC0883009F40B
:1027A00096C0FF91EF91BF91AF919F918F917F91D3
:1027B0006F915F914F913F912F910F900BBE0F90B2
:1027C0000FBE0F901F901895883109F488C0803291
:1027D00041F78093680714C0803409F49DC040F429
:1027E0008033B9F38833E9F68093680785ECB0C08D
:1027F000803509F485C0883509F496C0883489F697
:102800000E947013CECF883909F48CC038F5883710
:1028100029F050F4883611F0803719F683E0809360
:102820006A0710927D0557C0883809F47BC080394B
:1028300019F0803809F0B5CF80917D05803208F01D
:1028400071C0E0917D0581E08E0F80937D058091C0
:10285000BB00F0E0E35AFA4F80833DC0803B39F083
:10286000E0F4803A09F479C0883A09F09ACF84E01C
:1028700080936A0710925A0510925905E091570506
:10288000F091580519958091590581110FC081E08B
:10289000809359051092370509C0803C09F4A6CFF2
:1028A000883C09F4A3CF883B09F07BCFE0915A051F
:1028B00081E08E0F80935A05F0E0E95CFA4F808149
:1028C0008093BB0090915A058091590529C0809151
:1028D00045078093BB0085EC8093BC0062CF90914C
:1028E000670780916607981758F5E091670781E0C0
:1028F0008E0F80936707F0E0EA5BF84F8081E9CFA5
:10290000E091670781E08E0F809367078091BB009D
:10291000F0E0EA5BF84F808390916707809166074B
:102920009817C8F285E8D8CFE091670781E08E0F4D
:10293000809367078091BB00F0E0EA5BF84F8083EB
:102940008091690781115CCF81E08093440784EA1C
:102950008093BC0010926A0724CF85EC8093BC0062
:1029600010926A0780917D05803230F4E0917D05F8
:10297000F0E0E35AFA4F108260917D0570E0E0913B
:102980005B05F0915C058DE595E0199510927D054C
:1029900008CF1092680734CF8F929F92AF92BF9268
:1029A000CF92DF92EF92FF920F931F93CF93DF931B
:1029B000FC012085211110C060E070E0CB01DF91A7
:1029C000CF911F910F91FF90EF90DF90CF90BF902C
:1029D000AF909F908F900895EC010E94FA86298510
:1029E0002111EACF8C809D80AE80BF800881198143
:1029F0002A813B816B017C01C818D908EA08FB08D1
:102A0000C016D106E206F306B8F6080D191D2A1DF8
:102A10003B1D68017901C61AD70AE80AF90AC701FD
:102A2000B601CDCFCF92DF92EF92FF921F93CF935B
:102A3000DF93FC01108511110AC010E0812FDF9196
:102A4000CF911F91FF90EF90DF90CF900895EC0110
:102A50008185882319F018861986F0CF0E94FA869E
:102A6000CC80DD80EE80FF806C197D098E099F0986
:102A7000C880D980EA80FB806C157D058E059F0596
:102A800050F7DBCFCF93DF93EC01488359836A8300
:102A90007B830E94FA866C837D838E839F8381E093
:102AA00088871986DF91CF9108950F931F93CF9355
:102AB000DF93EC010E94FA868B019C018C819D8141
:102AC000AE81BF81488159816A817B81081B190BC6
:102AD0002A0B3B0B041715072607370738F4CE01DE
:102AE000DF91CF911F910F910C944215840F951F88
:102AF000A61FB71F8C839D83AE83BF8381E0888729
:102B00001986DF91CF911F910F910895DC01FB0190
:102B10006C9111964C91119712967C91262F220F51
:102B2000220F220F95E5822F899F080E80E0811DDC
:102B30001124562F5074362F307267FD60C051112A
:102B400049C0311106C0982F9095282F892F90E009
:102B500004C025E5280F90E08BEA4F3FF1F04423B5
:102B600009F46CC0409530E0442329F0449F312D96
:102B7000112441113F5F432F4095849F080E80E050
:102B8000811D249F020E20E0211D949F090E90E0DC
:102B9000911D1124830F230F930F7F3FB9F030E075
:102BA000772321F0779F312D09F03F5F332309F41C
:102BB00049C0839F080E80E0811D239F020E20E004
:102BC000211D939F090E90E0911D11248083218384
:102BD0009283089531110DC0922F2AEA929F090E17
:102BE00090E0911D11242BEA291B922F2AEA280F2D
:102BF000ADCF90E0282F2095982F80E0AECF5111D7
:102C000011C031110BC0922F8AEA989F090E90E0F3
:102C1000911D11242BEA291B9B5AEFCF982F9095D9
:102C200020E09BCF311106C025E5280F9BEA981BB9
:102C3000822FF6CF2AEA280F30E0F9CF9FEF2FEF4F
:102C40008FEFABCF90E020E080E0C0CF89E499E146
:102C50000E941215882391F08091310A0E94068704
:102C60004091310250E070E060E089E499E10E9417
:102C70004215809182058111109282050895CF93AB
:102C8000DF931F921F92CDB7DEB7EEE1F4E021E0B3
:102C9000208381836283738394E09483EFE5FCE077
:102CA0002083818362837383948385E090E09A8399
:102CB000898341E0BE016F5F7F4FCF010E947E128A
:102CC0000F900F90DF91CF91089570E060E00C9429
:102CD0003F16E1E2F0E18091E30280838091E2021D
:102CE00081838091E10282838091E00283838091DD
:102CF000DF02848308958091E602843161F0883296
:102D000021F08C3031F48FE001C087E0809306021F
:102D1000089585E0FBCF8AE0F9CF80914C02909135
:102D20004D02892B21F088E08093050208951092CE
:102D3000050208959091E7028091E602890F27E04D
:102D4000280F2093541990933D1980935319809123
:102D50004B022091900540914C0250914D02452B21
:102D6000A9F0909105023FEF390F3093E402909360
:102D70000B11980F8FEF890F80930A11909309110F
:102D80008FEF820F890F8093081108951092E4024B
:102D900010920B119FEF980F90930A1180930911D5
:102DA000820F8150F0CF81E0809334028093330210
:102DB0008093320208958823E9F18091CF0288231D
:102DC000B9F18091960690918F06992339F181117E
:102DD00027C0E0915B19F0E0E05EFF4E8081811139
:102DE00025C080918D06811121C08091CF0288235A
:102DF00011F18091960690918F069923F1F081113F
:102E00001EC0E0915B19F0E0E05EFF4E8081811111
:102E10001CC080918D06811118C00895882309F384
:102E2000E0915B19F0E0EA50FD4FD8CF5F9ADDCF1B
:102E30005F98DBCF5F9844980895882351F3E09121
:102E40005B19F0E0EA50FD4FE1CF449A08958823E2
:102E5000E9F18091CF028823B9F180919606909193
:102E60008F06992339F1811127C0E0915B19F0E0B9
:102E7000E05EFF4E8081811125C080918D06811119
:102E800021C08091CF02882311F180919606909104
:102E90008F069923F1F081111EC0E0915B19F0E0DB
:102EA000E05EFF4E808181111CC080918D068111F2
:102EB00018C00895882309F3E0915B19F0E0EA5007
:102EC000FD4FD8CF429ADDCF4298DBCF4298A298EF
:102ED0000895882351F3E0915B19F0E0EA50FD4F2B
:102EE000E1CFA29A089580915402882349F081E0AD
:102EF0002091C8103091C910232B31F080E0089543
:102F000080911D0491E089270895982F80912E02C9
:102F1000882369F0923049F480915002882351F05F
:102F200081E09091E6029C3029F480E003C081E0CA
:102F30009230D9F70895E82FF0E08091E6028C30C6
:102F400089F028F4843051F0E152F64F09C0843101
:102F500061F08832C9F7E954F64F02C0E95AF54FDB
:102F600084910895E15DF54FFBCFE95FF54FF8CF10
:102F70008823D1F080918F06882341F0E0915B197E
:102F8000F0E0E05EFF4E8081811108C080919606DE
:102F9000811104C080919506882331F080910B0146
:102FA000886080930B01089580910B01877FF9CF92
:102FB00010924C1010924D108EE18093000280917F
:102FC0006019853021F460E08DE20C94E98290E094
:102FD00080E00C945383909160199330B9F0953050
:102FE000D9F020915802222389F0882379F0923079
:102FF00079F490918F06992349F0909100028917F6
:1030000059F08093000290E00C9453830C94D817ED
:10301000909100029813F5CF0895BF92CF92DF925E
:10302000EF92FF920F931F93CF93DF93EC01809168
:1030300053020E94D90BB82EF0903C19E0903D1934
:1030400082E399E10E941215882309F4A9C1FE18B0
:103050008F2D0E949B17E82E8091CD02882309F4C2
:10306000B1C085E08093310282E099E10E9437731C
:10307000882389F01092CD02D093D302C093D2025C
:10308000AE0170E060E082E399E10E94421580E4C5
:10309000809304021BC082E099E10E94A173909387
:1030A000D3028093D202AC0170E060E082E399E148
:1030B0000E944215809104028F5F8E3108F480C017
:1030C0008093040280910402813408F780918F0676
:1030D00081110CC080919606811108C080919506DF
:1030E000811104C0809104020E94EB178091340288
:1030F0009091E602943109F4F9C0983209F4F6C0CF
:103100009C3009F4F7C0823008F4DDC090E08C17E1
:103110009D0709F4E8C0C81BD90B809158190E947B
:10312000851781113DC1EF2DF0E0EA55FA4F8081FE
:1031300081111BC0EE20C9F080912E028823A9F0D6
:1031400029E1F29EC00111249C012E5C3E4E6901D2
:1031500060E0C9010E9407769E0150E040E004E172
:1031600010E06B2DC6010E94D47580914F02882318
:1031700009F420C18091E602843109F4C1C088328B
:1031800009F418C1909197068C3009F4D5C09111BB
:103190000DC08091CD02811109C0809195068111E9
:1031A00005C080918C06882309F40AC137E28BE1BF
:1031B000F31609F4D7C083E1F812FEC08FE0D2C045
:1031C0008EE17ECF809197068823B1F185E08093D0
:1031D000310282E099E10E943773882319F010923E
:1031E000970674CF82E099E10E94A1739093D30275
:1031F0008093D202AC0170E060E082E399E10E942A
:1032000042152091D2023091D3022932310568F063
:1032100080910402833320F081508093040205C022
:103220002536310510F08F31B8F7809104028E31C8
:1032300008F04CCF8EE12CCFD093D302C093D202B2
:10324000809134029091E6029C3031F1943121F169
:103250008230E8F0282F30E0AE01421B530B2C17D0
:103260003D0711F450E040E090912E028B5F9111E8
:1032700001C085E080933102809131028B3018F0DB
:103280008AE0809331024115510591F013C085E029
:1032900080933102AE01F0CF95E0909331028230FD
:1032A00080F090E0AE01481B590B8C179D0711F47C
:1032B00041E050E070E060E082E399E10E94421555
:1032C00005CFAE01E0CF8091CD02811109C0809180
:1032D0009706811105C0CE01880F991FC80FD91F0D
:1032E000209709F01ACFC1E0D0E017CF823008F064
:1032F0000DCFF1CF823008F009CFCC0FDD1FF0CF1A
:103300008091970681110DC08091CD02811109C075
:1033100080919506811105C080918C06882309F45F
:103320004FC092E29F1508F449CF81EF8F0D853091
:1033300008F044C089E016C091110CC08091CD0204
:10334000811108C080919506811104C080918C067E
:103350008823B1F120E22F1568F383EF8F0D8730BA
:1033600088F585E02091520290913C19222309F4BE
:1033700054C0E11029C020911804281728F52F5FA8
:103380002093180420913C198091E70290E08796E1
:103390002817190629F024F080913D1980933C19D3
:1033A000DF91CF911F910F91FF90EF90DF90CF9021
:1033B000BF90089580E0D6CF85E1D4CF8BE0D2CF07
:1033C00083E0D0CF87E0CECF10921804C92FE11050
:1033D00020C020913D19EC2EF12C822F90E0879691
:1033E0008E159F057CF28C2F821B0E949B178823D1
:1033F00019F0C0933C19C6CF8091E70290E0879600
:10340000E816F90621F480913D1980933C19CF5FAD
:10341000E0CF9F5F90933C19B5CFE11012C020918F
:103420001804281770F42F5F2093180490913C190A
:1034300080913D19981708F0B3CF8091E702895D1C
:10344000ADCF10921804C92FE11010C080913D1922
:103450008C1760F73C2F381B832F0E949B17882303
:1034600019F0C0933C19E2CFC150F0CF9150909326
:103470003C19DCCF80915719853059F480912E0288
:10348000811107C09091581981E0992321F097305C
:1034900011F080E00895089581E08093CD0280933B
:1034A000CC028093CB02089580915719823020F08E
:1034B000843068F0853011F18CE291E09093D30272
:1034C0008093D2029093D1028093D00208956091AC
:1034D000C8027091C90290E080E00E9405C426E60F
:1034E00036E646EA5FE30E9466C40E94FBC670931C
:1034F000D3026093D2028CE291E0E4CF88EC90E0BA
:103500009093D3028093D202F6CFDF92EF92FF9294
:103510000F931F93CF93DF9386EAE82E85E0F82E72
:103520000EEE13E0D0E0C0E0DD24D394F701119259
:103530007F0160E0CE01865E9A4E0E94077660E0D1
:10354000CE018E5C9E4E0E940776F801D1928F01CB
:103550006996C83EF3E0DF0749F7DF91CF911F91ED
:103560000F91FF90EF90DF900895809134028111C8
:1035700003C081E08093340280913402853018F0DA
:1035800084E08093340280913302811103C081E092
:103590008093330280913302853018F084E0809369
:1035A000330280913202811103C081E080933202A4
:1035B00080913202853018F084E0809332020895C1
:1035C0002F923F924F925F926F927F928F929F9233
:1035D000AF92BF92CF92DF92EF92FF920F931F9321
:1035E000CF93DF93CDB7DEB7A2970FB6F894DEBFC7
:1035F0000FBECDBF8091FE0E0E94B30B282F80918D
:10360000940588248394882311F072E0872E80919A
:10361000520299249394882311F062E0962E8091AF
:103620005102AA24A394882311F052E0A52E809180
:103630004F02BB24B394882311F042E0B42E809152
:10364000CF02CC24C394882311F032E0C32E8091A2
:10365000BD02DD24D394882311F092E0D92E80910D
:10366000CE028111D5C0E1E0E8A38091CF058111A0
:10367000D2C0E1E0E9A3E0905902F09055198091A1
:103680009F0601E0811102E080919F0512E0811107
:1036900011E08091540231E0811132E08091910576
:1036A00022242394882311F082E0282E809195050E
:1036B0008111B4C0E1E0EAA38091550290915602D5
:1036C00068EE73E00E94B9C5762E8091230441E034
:1036D000811142E08091BE029091BF02E8EEF3E0DA
:1036E000BF010E94B9C5362E8091C0029091C102DF
:1036F000BF010E94B9C5462E8091C2029091C302BB
:10370000BF010E94B9C5562E8091C4029091C50296
:10371000BF010E94B9C5662E8091C6029091C70272
:10372000BF010E94B9C58091DF02A1E08111A2E032
:103730008091E00271E0811172E08091E10251E03C
:10374000811152E08091E20291E0811192E080913A
:10375000E302811166C081E0253608F064C02F5F66
:10376000E0915702E150E53008F05FC0F0E0EE5024
:10377000FD4FE08189829A82AB82BC82CD82DE825B
:10378000F8A1FF83F9A1F887E986FA860B871C87E1
:103790004D872E873F86488A598A6A8A6B8BAC8B05
:1037A0007D8B5E8B9F8B888FE98F3A8F2B8EEAA162
:1037B000EC8F7D8ECE0101967C0107E110E01F8F1A
:1037C0000E8FF70161917F01CE014E960E94AF11DD
:1037D0000F5F1F4F0433110591F70E94C811A29685
:1037E0000FB6F894DEBF0FBECDBFDF91CF911F9112
:1037F0000F91FF90EF90DF90CF90BF90AF909F9090
:103800008F907F906F905F904F903F902F90089592
:10381000F2E0F8A32ACFF2E0F9A32DCFF2E0FAA369
:103820004BCF82E099CF25E69BCFE4E0A3CF0F9367
:103830001F93CF93DF931F921F92CDB7DEB707E19F
:1038400010E01A8309836FEFCE0101960E94AF1139
:103850000F5F1F4F04331105A1F70E94C8110F908D
:103860000F90DF91CF911F910F910895EF92FF92EA
:103870000F931F93CF93DF93CDB7DEB769970FB642
:10388000F894DEBF0FBECDBF80918F0571E081300F
:1038900009F472E08091490293E0813021F094E0D4
:1038A000823009F092E020914C0230914D0282E08A
:1038B0002115310529F083E02130310509F084E03C
:1038C0002091CA0261E0211162E02091920551E04D
:1038D000211152E020918E0541E0211142E020911A
:1038E000500231E0211132E020918D05211158C0A4
:1038F00021E0E091E702E983E091E602EA83E091CA
:103900004B02EB837C837091DA027D837091D80245
:103910007E837091D6027F837091DB0278877091ED
:10392000D90279877091D7027A87709148027B8794
:10393000709153027C8770914A027D8770914E028C
:103940007E87709190057F87988B898B6A8B5B8BC4
:103950004C8B3D8B2E8B809193058F8BCE010196E6
:103960007C0110E000E0198F088FF70161917F0161
:10397000CE0148960E94AF110F5F1F4F073111050E
:1039800091F70E94C81169960FB6F894DEBF0FBE7A
:10399000CDBFDF91CF911F910F91FF90EF900895D0
:1039A00022E0A7CF0F931F93CF93DF931F921F9215
:1039B000CDB7DEB710E000E01A8309836FEFCE01C8
:1039C00001960E94AF110F5F1F4F07311105A1F73C
:1039D0000E94C8110F900F90DF91CF911F910F910E
:1039E0000895CF93DF93CDB7DEB764970FB6F89401
:1039F000DEBF0FBECDBF20919507309196072150B5
:103A000031092230310580F4FE01319694E1DF0165
:103A10001D929A95E9F795E0998381110EC085E191
:103A20008D83CF010E94BC7A64960FB6F894DEBFF6
:103A30000FBECDBFDF91CF91089584E1F1CFCF9339
:103A4000DF93CDB7DEB764970FB6F894DEBF0FBE35
:103A5000CDBF209195073091960721503109223032
:103A6000310580F4FE01319694E1DF011D929A95B3
:103A7000E9F795E0998381110EC083E18D83CF0131
:103A80000E94BC7A64960FB6F894DEBF0FBECDBF1D
:103A9000DF91CF91089582E1F1CF80939C05209131
:103AA000970530919805121613063CF4682F809103
:103AB000990590919A050C94217C0895282F8536BC
:103AC00008F024E6822F65E00E94ADC5992361F0DD
:103AD000822F90E0029665E070E00E94CDC5862FAF
:103AE000880F880F282F260F822F65E00E94ADC512
:103AF000E82FF0E080912304882321F0E856F74F67
:103B000084910895EA59F34FFBCFAB0120919507BB
:103B100030919607215031092330310528F421E0F6
:103B20006AEB7FEF0C944A7C0895209195073091C1
:103B30009607215031092330310518F460E00C94C8
:103B4000217C089582E190E00E94951D83E190E040
:103B50000E94951D84E190E00E94951D85E190E012
:103B60000E94951D86E190E00C94951D0F931F9384
:103B7000CF93C82F80915719833019F1853009F4FC
:103B800046C0823039F568E873E1CC2311F064E671
:103B900070E08CE791E00E94851D80915819823079
:103BA00009F45AC0833009F464C0813009F06AC056
:103BB00068E873E1CC2311F064E670E087E390E0FD
:103BC00053C068E873E1CC2311F064E670E086E24C
:103BD00090E0E1CF08E813E1CC2311F004E610E017
:103BE000B80180E190E00E94851DB8018EE890E068
:103BF0000E94851DB80180E990E00E94851DB801F2
:103C000080E691E00E94851D0E94A21DC6CF0E9401
:103C10003A1A882371F0809194058823A1F068E80E
:103C200073E1CC2311F064E670E08AEB91E00E942E
:103C3000851D08E813E1CC2311F004E610E0B8017B
:103C400085E991E0D0CF68E873E1CC2311F064E618
:103C500070E089EB91E0EBCF68E873E1CC2311F0E1
:103C600064E670E082E390E0CF911F910F910C9495
:103C7000851D68E873E1CC2311F064E670E087E409
:103C800091E0F2CFCF911F910F9108952091950768
:103C900030919607215031092330310510F40C94EE
:103CA00008800895809157198250823020F08AE66A
:103CB00091E00C94461E8CE390E0FBCF8DE890E001
:103CC0000E94461E8EE890E00E94461E8FE890E01B
:103CD0000E94461E80E990E00E94461E81E990E025
:103CE0000E94461E82E990E00E94461E83E990E011
:103CF0000E94461E84E990E00E94461E89E491E0FD
:103D00000E94461E8CE491E00C94461E8091571947
:103D1000853061F48FE891E00E94461E8DEB91E0C2
:103D20000E94461E87E390E00C94461E8BE691E0CD
:103D30000E94461E8CE691E0F7CFCF92DF92EF9281
:103D4000FF920F931F93CF93DF936C01F62EC42F36
:103D500014160CF4C0E0CA3B0CF4CAEB8091950732
:103D6000909196078230910591F18330910519F079
:103D7000019709F048C00C2E000CDD0B222381F0C6
:103D80006AEB7FEFC6010E94E27F6E2DC6010E94A2
:103D90008B7F20E0A801BE01C6010E944A7C08C0BA
:103DA000BE01C6010E94E27F6E2DC6010E948B7F7C
:103DB00061E0F11001C060E0C601DF91CF911F9179
:103DC0000F91FF90EF90DF90CF900C94217C0C2E00
:103DD000000CDD0B222361F06AEB7FEFC6010E942D
:103DE000E27F50E040E06E2DC6010E94B27FD1CF4D
:103DF000BE01C6010E94E27F50E040E06E2DC60188
:103E00000E94B27FD5CFDF91CF911F910F91FF908C
:103E1000EF90DF90CF900895CF92DF92EF920F93C3
:103E20001F93CF93DF9368EE73E00E94B9C5EB0157
:103E30006B0184EBC80ED11CCB018D549F4F0E94A7
:103E4000461EC6010E94461ECE018B549F4F0E9403
:103E5000461EEE24E39410E000E020E04091FC0ECA
:103E600060E0C6010E949D1EDF91CF911F910F91CE
:103E7000EF90DF90CF9008958330B9F198F48230BD
:103E800009F442C08091C6029091C702885E9340B7
:103E9000803D27E0920708F446C09093C7028093C4
:103EA000C60212C0843091F0853061F78091BE0265
:103EB0009091BF02885E9340803D27E0920798F181
:103EC0009093BF028093BE020C940C1F8091C0029D
:103ED0009091C102885E9340803D27E0920718F1DF
:103EE0009093C1028093C002EFCF8091C202909163
:103EF000C302885E9340803D27E09207A0F0909334
:103F0000C3028093C202E0CF8091C4029091C502A7
:103F1000885E9340803D27E0920728F09093C50289
:103F20008093C402D1CF08958330B9F198F48230E0
:103F300009F442C08091C6029091C70288519C4FFB
:103F400081362AEE920708F046C09093C70280930C
:103F5000C60212C0843091F0853061F78091BE02B4
:103F60009091BF0288519C4F81362AEE920798F5B6
:103F70009093BF028093BE020C940C1F8091C002EC
:103F80009091C10288519C4F81362AEE920718F514
:103F90009093C1028093C002EFCF8091C2029091B2
:103FA000C30288519C4F81362AEE9207A0F4909369
:103FB000C3028093C202E0CF8091C4029091C502F7
:103FC00088519C4F81362AEE920728F49093C502BF
:103FD0008093C402D1CF0895EF920F931F938091E5
:103FE0008A06882331F080E691E00E94461E1092F6
:103FF0008A060E943A1A882361F08EE491E00E94BA
:10400000461E89EB91E00E94461E8AEB91E00E94D9
:10401000461E80919505882359F08091BB0F882317
:1040200039F01092BB0F1092BC0F81E00E94B61DB8
:1040300080915819823009F477C1833009F4A8C1FE
:10404000813009F48BC180915B198150843008F074
:1040500004C180919E05882309F4EBC04091FC0EB9
:1040600080915719E12C10E000E020E060E08330FF
:10407000A9F0853009F4D4C0823009F0C8C08DE7BA
:1040800091E00E949D1EEE24E3940AEF10E021E0EF
:104090004091FC0E61E08FE791E00EC084E690E075
:1040A0000E949D1EEE24E39404E619E121E0409174
:1040B000FC0E61E083E690E00E949D1E81E080930B
:1040C000860580918505882309F4C4C0809157191D
:1040D0004091FC0EE12C10E000E020E060E0833035
:1040E00009F0AAC084E690E00E949D1EEE24E394AD
:1040F00004E619E121E04091FC0E61E088E490E0E3
:104100000E949D1E81E0809384058091581985301E
:1041100059F4E12C04E610E021E04091FC0E60E04F
:1041200083EA91E00E949D1E80915819863059F4CF
:10413000E12C04E610E021E04091FC0E60E084EA0E
:1041400091E00E949D1E81E080938F0687E00E948F
:1041500065168091BA028823F9F08091BB02909194
:10416000BC020297C9F468E070E080E090E00E9431
:10417000DD70695F7F4F8F4F9F4F28EE33E0629F66
:10418000A001639F500D729F500D112470E060E0FC
:1041900081ED9FE00E94421580E00E9427178091E8
:1041A00058198230A1F0E0915B19E150FF0BEE0F3E
:1041B000FF1FEB52F04F4591549170E060E080E3B7
:1041C00090E10E94421510922E1010922F10109222
:1041D0004C1010924D108FEF0E94EB17109215109B
:1041E0001092161042E350E060E070E083E090E14E
:1041F0000E94421510928E0648E95AE360E070E092
:104200008BED9FE01F910F91EF900C9442158BE97D
:1042100090E00E949D1EEE24E39403E111E037CF6D
:104220008FE491E00E949D1EEE24E39408EC10E0E0
:104230002ECF1092860545CF853049F48FE491E06A
:104240000E949D1EEE24E3940CE211E053CF85E022
:1042500090E0F6CF1092840558CF4091FC0E8091EB
:104260005719E12C10E000E020E060E0833009F411
:104270003FC0853009F442C08230E9F587E891E01B
:104280000E949D1E80919E05882309F445C081E00F
:1042900080938605809157194091FC0EEE24E3949B
:1042A000823079F504EA16E021E061E089E891E0E6
:1042B0000E949D1E80918505882361F281E0809394
:1042C0008405809157194091FC0EEE24E3940CEB89
:1042D00012E0833021F10CE211E0823001F504EAB2
:1042E00016E021E061E089E891E00E949D1E0DCF7B
:1042F00081E690E0C5CF8BE990E0C2CF8FE491E0FA
:10430000BFCF0CE211E0833011F40CEB12E021E09E
:1043100061E082E690E0CCCF10928605CBCF21E021
:1043200061E088E490E0E1CF85E390E00E94461EE2
:10433000E12C10E000E020E04091FC0E60E083E31F
:1043400090E00E949D1EEE24E39402E513E021E03C
:104350004091FC0E61E084E390E0C7CF8BE390E0F6
:104360000E94461EE12C10E000E020E04091FC0E8F
:1043700060E089E390E00E949D1EEE24E39408EE45
:1043800013E021E04091FC0E61E08AE390E0ADCFC4
:1043900080919307909194078D36910550F4E12C0C
:1043A00010E000E020E04091FC0E60E086E491E047
:1043B0009CCF86E491E00E94461E80915B19833079
:1043C000E1F050F4813091F0823009F09ECE60919E
:1043D000FC0E85EF90E00EC08430A1F0853009F02E
:1043E00094CE6091FC0E8DE790E004C06091FC0ECD
:1043F00083E191E00E94898088CE6091FC0E87ED78
:1044000090E0F8CF6091FC0E89EB90E0F3CFEF9253
:104410000F931F9383E591E00E94461E82E390E094
:104420000E94461E88E591E00E94461EEE24E39419
:1044300010E000E020E04091FC0E60E087E591E0B4
:104440000E949D1E809158198230D1F420E0409145
:10445000FC0E60E083E591E00E949D1E81E0809368
:104460008D0640E050E0BA018AE390E10E944215D7
:104470000E94D3168FE01F910F91EF900C94651658
:10448000109215101092161042E350E060E070E0B8
:1044900083E090E10E944215E1CFEF920F931F93CA
:1044A0004091FC0E80915819EE24E39410E000E056
:1044B00020E060E0823029F583E591E00E949D1EB6
:1044C00081E080939606809158198230B1F548EBCF
:1044D0005BE060E070E08AE390E10E9442150E9498
:1044E000710B882341F08CE291E09093D10280938C
:1044F000D0020E94851A81E11F910F91EF900C94D8
:10450000651688E691E00E949D1E8091571984509F
:10451000823040F420E04091FC0E61E089E691E0B9
:104520000E949D1EEE24E39410E000E020E0409104
:10453000FC0E60E085E591E0C1CF40EA5FE060E01D
:1045400070E08AE390E10E94421510920B101092E5
:104550000C10109215101092161042E350E060E01B
:1045600070E083E090E1B9CFEF920F931F938091B9
:104570009505882309F479C08091BB0F811106C08D
:1045800080915719843079F0853059F14091550266
:104590005091560270E060E083EB9FE01F910F9115
:1045A000EF900C94421580E190E00E94461E8091AD
:1045B0005819823071F44091FC0E4852EE24E39475
:1045C00010E000E020E061E080E190E00E949D1EAC
:1045D000DDCFEE24E39410E000E020E04091FC0EFB
:1045E000F2CF85E991E00E94461E809158198230F1
:1045F00029F54091FC0E4852EE24E39410E000E0CF
:1046000020E061E085E991E00E949D1E0E943A1A37
:10461000882309F4BBCF809194058823B9F08AEBF5
:1046200091E00E94461EEE24E39410E000E020E0BA
:104630004091FC0E61E08AEB91E0C8CFEE24E39458
:1046400010E000E020E04091FC0EDBCF89EB91E030
:104650000E94461EEE24E39410E000E020E040912A
:10466000FC0E61E089EB91E0B1CF1F910F91EF90CB
:104670000895EF920F931F9380915819823009F497
:1046800072C0833091F1813009F474C08091571960
:1046900090915B199150943008F04FC0833069F0CD
:1046A000853009F447C0823009F041C08DE791E0C0
:1046B0000E94461E8FE791E006C084E690E00E94CB
:1046C000461E83E690E00E94461E8091BA0288232F
:1046D00021F089E090E00E94461E88E490E00E946C
:1046E000461E82E690E00E94461E8091BB02909199
:1046F000BC02009709F445C0019709F466C0109206
:1047000086051092840580915819853021F483EA3A
:1047100091E00E94461E80915819863009F071C0C0
:1047200084EA91E01F910F91EF900C94461E80E671
:1047300090E0BECF8FE491E0BBCF833059F085305D
:1047400079F0823051F487E891E00E94461E89E8B2
:1047500091E0B9CF81E690E0B6CF8BE990E0B3CF9E
:104760008FE491E0B0CF83E390E00E94461E84E3A3
:1047700090E0B9CF89E390E00E94461E8AE390E082
:10478000B2CF82E090E09093BC028093BB02809114
:10479000950790919607039741F48AE490E00E9470
:1047A000461E89E490E00E94461E8091F70F811119
:1047B000A6CFE12C10E000E020E04091FC0E60E08C
:1047C00089E490E00E949D1E9ACF82E090E0909351
:1047D000BC028093BB028EE690E00E94461E8FE6EC
:1047E00090E00E94461E8091F70F811188CFE12C46
:1047F00010E000E020E04091FC0E60E08FE690E0E9
:10480000E1CF1F910F91EF9008950F931F93CF93D6
:10481000DF9300D000D0CDB7DEB7122F242F462F64
:10482000682FCE0101960E94B77CBE016C5F7F4F5E
:10483000CE0101960E9486156D817C81111102C006
:104840006C817D818E8126960FB6F894DEBF0FBEF7
:10485000CDBFDF91CF911F910F9108952F923F927D
:104860004F925F926F927F928F929F92AF92BF9280
:10487000CF92DF92EF92FF920F931F93CF93DF932C
:1048800000D000D01F921F92CDB7DEB780915302A7
:104890000E94D90BF82E8091500215E0882331F048
:1048A0006091581981E00E941B0A182F80E00E9435
:1048B000830B90913D19890F8D8381E00E94830BBA
:1048C00090913D19890F8E8382E00E94830B509056
:1048D0003D19580E83E00E94830B90913D19982E4C
:1048E000990E809158192BEF280F223008F410C12F
:1048F000843009F40DC1E09051023D81232F30E056
:1049000038872F836E81A62EB12CE52DF0E0FC8335
:10491000EB83292D30E03A832983E110FEC000E0CB
:1049200020E04F2D612F81E00E9405241B01482EBD
:1049300020E04F2D612F81E00E9405243B01882E4D
:1049400020E04F2D612F81E00E9405246B01E82EAD
:1049500020E04F2D612F81E00E940524AB01682FDC
:10496000EF81F885EE0FFF1F8F819885E80FF91F03
:10497000E053FA4F208231824282F501EE0FFF1F91
:10498000EA0DFB1DE053FA4F608271828282EB8157
:10499000FC81EE0FFF1F2B813C81E20FF31FE053E0
:1049A000FA4FC082D182E282E981FA81EE0FFF1FC5
:1049B00089819A81E80FF91FE053FA4F40835183B0
:1049C00062838091920581118AC08F8198850196BA
:1049D000FC01EE0FFF1FE80FF91FE053FA4F208292
:1049E00031824282A0913D19B0E0EF81F88580913B
:1049F00054198850AE17BF0714F48D81815090E090
:104A00009C01220F331F820F931FFC01E053FA4FCA
:104A100020823182428295012F5F3F4FC901880F6A
:104A2000991F820F931FFC01E053FA4F608271823D
:104A30008282809154198850AA15BB0514F48E8186
:104A4000815090E09C01220F331F820F931FFC01C5
:104A5000E053FA4F6082718282828B819C81019641
:104A6000FC01EE0FFF1FE80FF91FE053FA4FC08261
:104A7000D182E2822B813C81809154198850A21707
:104A8000B30714F48FEF850D90E0FC01EE0FFF1FCC
:104A9000E80FF91FE053FA4FC082D182E282898188
:104AA0009A810196FC01EE0FFF1FE80FF91FE053FA
:104AB000FA4F40835183628389819A81A817B9078D
:104AC0004CF180915419885090E0FC01EE0FFF1FCB
:104AD000E80FF91FE053FA4F408351836283289611
:104AE0000FB6F894DEBF0FBECDBFDF91CF911F91FF
:104AF0000F91FF90EF90DF90CF90BF90AF909F907D
:104B00008F907F906F905F904F903F902F9008957F
:104B100015E0F1CE8FEF890DD7CF892F90E0EF818F
:104B2000F885E81BF90BEA55FA4F20812223D1F0D2
:104B3000F501E81BF90BEA55FA4F2081222391F089
:104B4000EB81FC81E81BF90BEA55FA4F2081222307
:104B500049F0E981FA81E81BF90BEA55FA4F8081A7
:104B60008111F0C10E94851A6091C8027091C9023A
:104B700090E080E00E9405C420E030E040EC5FE37C
:104B80000E9466C40E94FBC69B01AC0180913D1946
:104B90006F817885681B710989E1D82ED69EC00186
:104BA000D79E900D112401E010E06F2D8E5C9E4E7B
:104BB0000E94D4756091C8027091C90290E080E0B3
:104BC0000E9405C420E030E040EC5FE30E9466C430
:104BD0000E94FBC69B01AC0180913D19B501681B89
:104BE0007109D69EC001D79E900D11246F2D8E5C49
:104BF0009E4E0E94D4756091C8027091C90290E0E7
:104C000080E00E9405C420E030E040EC5FE30E94B9
:104C100066C40E94FBC69B01AC0180913D196B816B
:104C20007C81681B7109D69EC001D79E900D11240E
:104C30006F2D8E5C9E4E0E94D4756091C80270915B
:104C4000C90290E080E00E9405C420E030E040EC22
:104C50005FE30E9466C40E94FBC69B01AC01809189
:104C60003D1969817A81681B7109D69EC001D79E62
:104C7000900D11246F2D8E5C9E4E0E94D4758091F4
:104C8000920581112CCFEE2031F16091C802709114
:104C9000C90290E080E00E9405C420E030E040ECD2
:104CA0005FE30E9466C40E94FBC69B01AC01EF81DA
:104CB000F885319680913D19E81BF10969E16E9FF5
:104CC000C0016F9F900D112401E010E06F2D8E5CEC
:104CD0009E4E0E94D475F0913D19FF832D81F217ED
:104CE00008F432C13091541938503D83EE2009F454
:104CF00048C06091C8027091C90290E080E00E94B3
:104D000005C420E030E040EC5FE30E9466C40E94EE
:104D1000FBC69B01AC018D81EF818E1B990BBC0101
:104D2000F9E1F69FC001F79F900D112401E010E01A
:104D30006F2D8E5C9E4E0E94D4756091C80270915A
:104D4000C90290E080E00E9405C420E030E040EC21
:104D50005FE30E9466C40E94FBC69B01AC016FEF3B
:104D6000A61AB60A80913D19A81AB10879E17A9D70
:104D7000C0017B9D900D11246F2D8E5C9E4E0E9474
:104D8000D47580913D198F839E81891708F4E0C006
:104D9000E0915419E850ED83EE2009F44AC0609187
:104DA000C8027091C90290E080E00E9405C420E032
:104DB00030E040EC5FE30E9466C40E94FBC69B01AA
:104DC000AC018D81EF818E1B990BBC01F9E1F69F3F
:104DD000C001F79F900D112401E010E06F2D8E5C53
:104DE0009E4E0E94D4756091C8027091C90290E0F5
:104DF00080E00E9405C420E030E040EC5FE30E94C8
:104E000066C40E94FBC64B815C814F5F5F4F20915F
:104E10003D19421B510929E1249FF001259FF00D06
:104E200011249B01AC016F2DCF018E5C9E4E0E9420
:104E3000D47530913D193B83351508F48DC05090E1
:104E4000541968EF560EEE2009F44AC06091C8026A
:104E50007091C90290E080E00E9405C420E030E03B
:104E600040EC5FE30E9466C40E94FBC69B01AC015C
:104E7000852DEB818E1B990BBC01F9E1F69FC001DA
:104E8000F79F900D112401E010E06F2D8E5C9E4E77
:104E90000E94D4756091C8027091C90290E080E0D0
:104EA0000E9405C420E030E040EC5FE30E9466C44D
:104EB0000E94FBC649815A814F5F5F4F20913D1987
:104EC000421B510929E1249FF001259FF00D112477
:104ED0009B01AC016F2DCF018E5C9E4E0E94D4755C
:104EE00030913D1939833915C8F19090541968EF04
:104EF000960EEE2009F4F3CD6091C8027091C902BC
:104F000090E080E00E9405C420E030E040EC5FE3E8
:104F10000E9466C40E94FBC6E92D2981E21BFF0B9B
:104F2000AF0129E1249FF001259FF00D112401E03C
:104F300010E09B01AC016F2DCF018E5C9E4E0E9454
:104F4000D475CDCDE12C9BCE6D8161506D83CECEDD
:104F5000FE81F150FD8320CF5A9475CF9A94C9CF2A
:104F60004F925F926F927F92AF92BF92CF92DF92F9
:104F7000EF92FF920F931F93CF93DF93C82F8091EF
:104F800053020E94D90BF82E0E94B51AAC2EB12CF8
:104F900080915102811158C06501CC0CDD1CCA0CF6
:104FA000DB1CC60180539A4F6C0100E020E04FEFFC
:104FB00060E081E00E940524F601608371838283B2
:104FC0008091920581112FC0FFEFAF1ABF0A7501C2
:104FD000EE0CFF1CEA0CFB1CC70180539A4F7C01AE
:104FE00020E04FEF60E081E00E940524F70160833C
:104FF0007183828380913D198C1720F1C0915419DF
:10500000C850D0E0CE01880F991FC80FD91FC053D8
:10501000DA4F00E020E04FEF60E081E00E940524DD
:10502000688379838A83DF91CF911F910F91FF90DD
:10503000EF90DF90CF90BF90AF907F906F905F9098
:105040004F900895C150DDCF80913D199501281BE7
:105050003109F901EA55FA4F80818F113DC0D9E13C
:10506000D29FC001D39F900D11246F2D865E9A4E62
:105070000E9407766091C8027091C90290E080E0BA
:105080000E9405C420E030E040EC5FE30E9466C46B
:105090002B013C016091340270E090E080E00E94BE
:1050A00007C49B01AC01C301B2010E9489C60E94E2
:1050B000FBC69B01AC0180913D19B501681B7109CC
:1050C000D69FC001D79F900D112401E010E060E051
:1050D000865E9A4E0E94D475809192058111A3CF6D
:1050E0006501FFEFCF1ADF0A80913D199601281B59
:1050F0003109F901EA55FA4F80818F113CC0D9E19D
:10510000D29FC001D39F900D11246F2D865E9A4EC1
:105110000E9407766091C8027091C90290E080E019
:105120000E9405C420E030E040EC5FE30E9466C4CA
:105130002B013C016091340270E090E080E00E941D
:1051400007C49B01AC01C301B2010E9489C60E9441
:10515000FBC69B01AC0180913D19C81AD108DC9DAA
:10516000C001DD9D900D112401E010E060E0865E3D
:105170009A4E0E94D47580913D1990E0C1508A15D5
:105180009B051CF0C0915419C850D0E09E01281B0B
:10519000390BF901EA55FA4F80818F1144CF19E19B
:1051A000129FC001139F900D11246F2D865E9A4EA1
:1051B0000E9407766091C8027091C90290E080E079
:1051C0000E9405C420E030E040EC5FE30E9466C42A
:1051D0006B017C016091340270E090E080E00E94FD
:1051E00007C49B01AC01C701B6010E9489C60E9499
:1051F000FBC69B01AC0180913D19C81BD1091C9FC6
:10520000C0011D9F900D112401E010E060E0865E5A
:105210009A4E0E94D47507CFCF92DF92EF920F93F0
:10522000CF93DF93EC0185E0809331020E94B51AA1
:1052300082E399E10E941215882309F4BAC06091B3
:10524000340270E0CE010E94B9C5EB018091CD021D
:10525000882309F4C9C082E099E10E94377388234A
:1052600009F4AEC01092CD02AE0170E060E082E3BE
:1052700099E10E944215D093D302C093D20286E2F4
:105280008093040280918F0681110CC08091960654
:10529000811108C080919506811104C0809104029B
:1052A0000E94EB17809158190E948517811181C0C7
:1052B000D0912E02809103028111C6C0DD2321F01E
:1052C00080913C190E94B027809116048F5F843032
:1052D00008F0BDC080931604809116040E94830BD1
:1052E000C0913D19C80FC0933C19DD2309F461C07A
:1052F000809153020E94D90BD82F809150028823AD
:1053000009F4A8C06091581981E00E941B0A90918D
:10531000E6029C3009F480E200E020E04D2F682F87
:1053200081E00E9405246B01E82E4C2F50E0FA0129
:10533000EE0FFF1FE40FF51FE053FA4FC082D1823A
:10534000E28220913D1930E0FA01E21BF30BEA55AD
:10535000FA4FD0838091920581112BC0CA0101962A
:10536000FC01EE0FFF1FE80FF91FE053FA4FC08258
:10537000D182E282821B930BFC01EA55FA4FD08363
:10538000C150241735071CF0C0915419C8508C2FF8
:1053900090E0FC01EE0FFF1FE80FF91FE053FA4FFA
:1053A000C082D182E282821B930BFC01EA55FA4F44
:1053B000D083DF91CF910F91EF90DF90CF90089540
:1053C00082E099E10E94A173AC0170E060E082E3A9
:1053D00099E10E94421582E099E10E94A1739093A5
:1053E000D3028093D2024BCF80919706882321F17C
:1053F00082E099E10E943773882319F01092970692
:1054000041CF82E099E10E94A173AC0170E060E0BD
:1054100082E399E10E94421582E099E10E94A17322
:105420009093D3028093D2028091040281508E31F6
:1054300008F026CF8EE124CFAB0170E060E082E37C
:1054400099E10E9442151ECF109203023DCF1092A7
:10545000160442CF85E05BCFDF92EF92FF920F936D
:105460001F93CF93DF938091500215E0882331F092
:105470006091581981E00E941B0A182F8091E60262
:105480008C3009F410E28091571982508230B0F1CB
:10549000D0E0C0E08C2F0E949B17882319F1FE01F9
:1054A000EA55FA4FD0808C2F0E949B1790913D199E
:1054B000292F280F3327331FC90101977C01EE0CD8
:1054C000FF1C8E0D9F1DFC01E053FA4F7F0100E091
:1054D00020E04D2D612F81E00E940524F7016083BB
:1054E000718382832196C832D105A1F6DF91CF91D5
:1054F0001F910F91FF90EF90DF900895F12C809114
:10550000E602F81698F78F2D90E0C0913D19C80F6C
:10551000D92FD11D9E01220F331FC20FD31FC0539D
:10552000DA4F8A559A4F00E020E0FC014081612F5C
:1055300081E00E940524688379838A83F394DFCF16
:10554000EF92FF920F931F93CF93DF93C82F809119
:1055500048020E94D90B182F80918E05D4E1882330
:1055600031F06091581980E00E941B0AD82F809179
:105570008B06082E000C990BEC2FF0E08E179F077E
:105580008CF12091E70228171906F9F0F4F08091C8
:10559000CA028823F9F02D30D1F4E254F04FE4919F
:1055A000F0E07F01EE0CFF1CEE0DFF1DCF018053DC
:1055B0009A4F7C0100E020E0412F6D2F80E00E9497
:1055C0000524F701608371838283CF5FD0CFE155DB
:1055D000F04FE5CF2D3019F4EE55F04FE0CFED56FA
:1055E000F04FDDCFDF91CF911F910F91FF90EF90A2
:1055F0000895EF92FF920F931F93CF93DF938091C3
:105600002E0281115BC180915002D5E0882331F0D8
:105610006091581984E00E941B0AD82F80914E0295
:105620000E94D90BC82F1091ED0380919506882315
:1056300009F4B1C0112309F474C0A59A739A80913A
:105640000201886080930201809102018061809351
:105650000201809102018062809302018091020127
:1056600080648093020180914C0290914D020097DA
:1056700009F424C1D0E00197A1F500E020E04C2F0F
:1056800065E084E00E9405246093720470937304C3
:105690008093740420E04C2F65E084E00E94052490
:1056A00060937504709376048093770420E04C2F08
:1056B0006BE084E00E940524609378047093790481
:1056C00080937A0420E04C2F6BE084E00E94052454
:1056D00060937B0470937C0480937D0420E04C2FC6
:1056E000C9C08D2F90E02091E4022150330B821726
:1056F00093070CF0E3C07C01EE0CFF1CE80EF91ED2
:10570000C7018E589B4F7C0100E020E04C2F65E0E4
:1057100084E00E940524F701608371838283DF5F48
:10572000E0CFA598739880910201877F8093020152
:10573000809102018F7E80930201809102018F7D12
:1057400080930201809102018F7B809302018091FE
:105750004C0290914D02892B09F4B0C0812F90E04A
:105760002091E4022150330B821793070CF0A6C05E
:10577000EC01CC0FDD1FC80FD91FCE58DB4F00E066
:1057800020E04FEF60E084E00E9405246883798385
:105790008A831F5FE3CF183008F090C0E12FF0E05C
:1057A0008827EA52F44D8F4F0C94E1C5DE2B192C5B
:1057B000652CAB2CF22C332D612D8F2DA598739871
:1057C00080910201877F80930201809102018F7E88
:1057D00080930201809102018F7D8093020180916C
:1057E00002018F7B8093020180914C0290914D02C7
:1057F000892B09F463C010E0812F90E02091E4022E
:105800002150330B821793070CF058C0EC01CC0FDA
:10581000DD1FC80FD91FCE58DB4F00E020E04FEF4F
:1058200060E084E00E940524688379838A831F5F97
:10583000E3CFA598739880910201877F809302013E
:10584000809102018F7E809302018091020180622B
:105850008093020180910201806480930201809113
:105860004C0290914D02009749F100E020E04C2F4E
:10587000019771F46FE084E00E94052460937E0438
:1058800070937F048093800420E04C2F6FE00DC064
:105890006D2F84E00E94052460937E0470937F0442
:1058A0008093800420E04C2F6D2F84E00E9405241B
:1058B000609381047093820480938304DF91CF917D
:1058C0001F910F91FF90EF900895A5987398809184
:1058D00002018860809302018091020180618093BF
:1058E0000201809102018062809302018091020195
:1058F00080648093020180914C0290914D02009748
:10590000E9F200E020E04C2F0197B9F46BE084E06D
:105910000E940524609378047093790480937A043C
:1059200020E04C2F6BE084E00E94052460937B0410
:1059300070937C0480937D04C1CF6D2F84E00E941E
:105940000524609378047093790480937A0420E0AE
:105950004C2F6D2FE8CFA59A739A80910201886031
:105960008093020180910201806180930201809105
:105970000201806280930201809102018064809321
:10598000020180914C0290914D02009709F496CF4C
:1059900000E020E04C2F0197B9F465E084E00E941C
:1059A000052460937204709373048093740420E060
:1059B0004C2F65E084E00E94052460937504709389
:1059C0007604809377047ACF6D2F84E00E940524BB
:1059D00060937204709373048093740420E04C2FDE
:1059E0006D2FE8CFA59A739A809102018860809309
:1059F0000201809102018061809302018091020185
:105A00008062809302018091020180648093020190
:105A100080914C0290914D02009709F44FCF10E015
:105A2000019709F42ACE812F90E02091E4022150C1
:105A3000330B821793070CF041CF7C01EE0CFF1C57
:105A4000E80EF91EC7018E589B4F7C0100E020E054
:105A50004C2F6D2F84E00E940524F7016083718331
:105A600082831F5FE0CFA59A739A809102018860BC
:105A700080930201809102018061809302018091F4
:105A800002018F7D80930201809102018F7B8093C0
:105A9000020180914C0290914D02892B09F40ECFA6
:105AA00000E020E04FEF60E084E00E940524609376
:105AB0007E0470937F048093800420E04FEF60E0C9
:105AC000F4CEA59A739A80910201877F8093020198
:105AD000809102018F7E80930201809102018F7D6F
