:100000000C9457080C9488080C9488080C94880861
:100010000C9488080C9488080C9488080C94880820
:100020000C9488080C9488080C9488080C94880810
:100030000C9488080C9488080C9488080C94880800
:100040000C9488080C9488080C9488080C948808F0
:100050000C9488080C9488080C9488080C94E18807
:100060000C9488080C948C730C9462730C9488081C
:100070000C9488080C9488080C9488080C948808C0
:100080000C9488080C9488080C9488080C948808B0
:100090000C9438730C940E730C9488080C946A13A7
:1000A0000C9488080C9488080C9488080C94880890
:1000B0000C9488080C9488080C9488080C94880880
:1000C0000C9488080C9488080C9488080C94E472AA
:1000D0000C94BA720C9488080C9490720C9466720A
:1000E0000C94880805A84CCDB2D44EB93836A90274
:1000F0000C50B9918688083CA6AAAA2ABE00000026
:10010000803F07634236B79BD8A71A39685618AEA6
:10011000BAAB558C1D3CB7CC5763BD6DEDFD753E3C
:10012000F6177231BF000000803F08000000BE9249
:100130002449123EABAAAA2ABECDCCCC4C3E00002C
:100140000080BEABAAAAAA3E00000000BF000000CB
:10015000803F0000000000084178D3BB4387D113E3
:100160003D190E3CC3BD4282AD2B3E68EC8276BE8B
:10017000D98FE1A93E4C80EFFFBE01C4FF7F3F0055
:10018000000000000C94A77C0C946B700C94AF9E44
:100190000C94DD080C949F600C94A2A50C94E809C3
:1001A0000C94B06C0C941B900C941AAA0C94C6A1DD
:1001B0000C94A89A0C94E07B0C94435F0C94D97D2A
:1001C0000C94BE9B0C94BA0E0C9486700C942C9CD0
:1001D0000C94F87D0C94C9A00C942B990C94B99DA7
:1001E0000C941E6C0C949D8E0C946C9B0C94C79577
:1001F0000C940F8F0C941A940C94329B0C944F8D8A
:100200000C945D600C94AE0B0C946CA20C948C84DA
:100210000C944F2D0C948D9D0C94DB8D0C94475FAA
:100220000C9431A60C94217C0C94180A0C945AA5B9
:100230000C94FD8F0C94C3080C94D18C0C944A5FE1
:100240000C94A78C0C94377C0C94298D0C94EC5D49
:100250000C940A090C944C7B0C94BF9E0C94160AC7
:100260000C94727C0C947F9E0C944A9B0C9435A346
:100270000C94DB930C94AA8C0C94AA840C94555F78
:100280000C944B9C0C94830A0C94FE7D0C94066297
:100290000C9450930C94698B0C94257E0C94E093F1
:1002A0000C9413960C94047E0C94B9990C942C7CA9
:1002B0000C947EA50C943E7B0C94596E0C94E861D2
:1002C0000C94837B0C9457620C94798F0C94757CFE
:1002D0000C947F7B0C94B97C0C94469B0C942A90D4
:1002E0000C94E98F0C94CC8C0C94BAA90C946F9458
:1002F0000C94E75E0C94B2A30C9489A60C94D39D45
:100300000C945D7B0C94917C0C94295D0C944C9A1C
:100310000C94D1930C94870A0C94677B0C94027E06
:100320000C9469960C946B9C0C948E910C9473A60F
:100330000C9424AA0C94AA0B0C94EFA70C94548B45
:100340000C94A1950C94CC8B0C94369A0C942D6241
:100350000C94A0840C94CBA60C94EB920C944E9B22
:100360000C94637B0C94516B0C9404710C94FFA659
:100370000C94A18F0C943E8D0C94F38C0C94CE6F46
:100380000C9467A70C94CDA70C94027C0C94B38AB0
:100390000C94DB610C94DC910C944F8A0C942690A5
:1003A0000C94889B0C94209A0C94F96D0C94252C39
:1003B0000C943F8B0C94D98E0C94817E0C94BF8F3F
:1003C0000C94618E0C94D69A0C948A5E0C944C6EAC
:1003D0000C9486A40C94F3A20C944F7C0C94BBA4B4
:1003E0000C944CA80C944E7A0C94366E0C94CC92CF
:1003F0000C946B6C0C947E8B0C94A5700C945E84A6
:100400000C943D0A0C94B3080C9447A60C94A47960
:100410000C94355D0C94D7840C94B9840C94BB8CEB
:100420000C94F32C0C94978D0C94079E0C94487BA1
:100430000C944D5F0C94298B0C942B8E0C94A0A9DA
:100440000C94800A0C945E7E0C94A85D0C9405A616
:100450000C94C86B0C9484840C9490A50C944B90D1
:100460000C94A7610C94DC9B0C940AA40C94D27D90
:100470000C9411A80C94B22C0C94F8610C94FF61AC
:100480000C9486A90C94C07C0C94047A0C94A1A2C0
:100490000C9491BE0C9493960C942F940C9439095F
:1004A0000C947E7B0C94757B0C94B9790C946295BA
:1004B0000C94597B0C94976B0C947A9A0C94378B10
:1004C0000C949FA60C948D7C0C947A6E0C94EB8407
:1004D0000C9430A90C948D9C0C9411A10C94FB7D70
:1004E0000C9419A70C9478710C94456E0C94CC93D1
:1004F0000C94B0790C94C2940C94A48D0C947C9FB1
:100500000C946CA90C941A0A0C94EE8B0C94FB6F4F
:100510000C94A40B0C94140A0C94ABA70C94E39EBB
:100520000C94ED7D0C94078B0C944DA70C94599D65
:100530000C94EEA90C946D6E0C94938B0C942A93EE
:100540000C94237E0C949A950C94609E0C94308BA2
:100550000C94D5920C944D5D0C945A6F0C949B9115
:100560000C94845D0C94D49B0C94A1910C94507BBE
:100570000C94EF930C9406920C941EA00C94E184BE
:100580000C94F17D0C94E25F0C94F4930C947693AC
:100590000C9448900C947E920C94885D0C947E6030
:1005A0000C94049B0C9444620C94C35D0C94BA6E3E
:1005B0000C94ED950C9474910C9459840C94B07C2B
:1005C0000C94007E0C94758D0C94A0940C94A89BB4
:1005D0000C9494890C94E37D0C944D910C940F0A27
:1005E0000C94649E0C94979E0C941BA60C94212D45
:1005F0000C94C77C0C94E1A00C94DEA30C947B9D1E
:100600000C94717B0C94A48C0C94476E0C94DD8B31
:100610000C947E990C9424950C94E55F0C94986F3F
:100620000C94F38A0C94E89B0C94985D0C94B4A5FC
:100630000C94FE6D0C94CB8F0C94379D0C94387EEB
:100640000C94515E0C940C7E0C94E78C0C94D69315
:100650000C9404AA0C9457AA0C947C8F0C94F0A4CC
:100660000C943C9B0C94FC7B0C9409A30C940160AF
:100670000C94C96E0C94A56E0C94B75D0C94F77035
:100680000C94B5A60C945B6E0C94A66B0C9436A4DB
:100690000C94CE610C9487A80C946CA50C9468847F
:1006A0000C94ED0A0C94648D0C9486A30C94D608DB
:1006B0000C949CA30C942CA90C94957C0C94067E11
:1006C0000C9404930C9440620C94600C0C94107E77
:1006D0000C948C790C943A7E0C94537B0C943A6F66
:1006E0000C94FB610C940A7E0C94F27B0C94085FD2
:1006F0000C9496840C94245D0C94CD7D0C945284BF
:100700000C94EC7B0C94868D0C94055F0C94116F0B
:100710000C947C840C94F39C0C94C38A0C94D92B79
:100720000C945DA60C94E35D0C948D7E0C940E628B
:100730000C9425A50C94C7930C94D89B0C94030A95
:100740000C94D8980C946B2C0C94C8920C94A70B16
:100750000C946B7B0C94B2080C946B5D0C94188D0C
:100760000C94EFA50C94297E0C9428A90C941F7E60
:100770000C94E5930C94DE7D0C94156E0C94078D0F
:100780000C94E5A60C94AD7E0C94B1A00C94F4A34B
:100790000C94008C0C940B5F0C94BA6B0C947284C8
:1007A0000C94159D0C94D68C0C94C2A80C94F47DDA
:1007B0000C940A9C0C945C9E0C94C4920C948E6EC7
:1007C0000C94448F0C94437C0C94ED9D0C946F6EB0
:1007D0000C94BB970C94C2930C94167C0C94DF5F22
:1007E0000C94850A0C94EA930C94E7790C94BD96CA
:1007F0000C94B4080C9481910C949E910C945AA979
:100800000C941B600C94DDA20C94DE940C94D19E8D
:100810000C94797B0C94E67B0C9400A20C94C8A3F6
:100820000C94AF9C0C943F5F0C943E5C0C949C9396
:100830000C94C7910C94F9A00C9433A70C94447BAE
:100840000C941FA30C94BA8A0C9420A40C940495C5
:100850000C94C3840C940E7E0C94F5610C94087E69
:100860000C9489A70C94D19C0C943F960C94606EC8
:100870000C949E2B0C944CA40C9429960C94F596F5
:100880000C94F1910C94CD840C9470A30C94246E70
:100890000C943C7E0C94277E0C943C600C94B10824
:1008A0000C94BFA2C4DFE9EFF3F6F9FBFDFE0001F3
:1008B00002030405060708090A32002D2800230058
:1008C0001E0000190000140000000F0000000000CE
:1008D0000A00000000000000000005645F5A555047
:1008E0004B46413C3732002D280023001E000019E2
:1008F0000000140000000F00000000000A000000CB
:100900000000000000000532373C41464B50555A6C
:100910005F645761726E696E673A2043616C6375FC
:100920006C61746564206D7573696320636F756EA7
:10093000742065786365656473206D6178696D7591
:100940006D20706F737369626C653B205344206344
:1009500061726420636F7272757074696F6E206C5F
:10096000696B656C7921005761726E696E673A2018
:10097000547261636B20636F756E7420646F65736E
:10098000206E6F74206D61746368206669726D7784
:100990006172652120506C656173652075706461BA
:1009A000746520746865206D6963726F53442063B9
:1009B00061726420736F756E64206566666563742A
:1009C000732E000102030405060708090A0B0C0D2B
:1009D0000E0F101112131415161718191A1B1C1DBF
:1009E0001E1F202122232425262728010203040577
:1009F00006070809000A0B0C0D0E0F101112001348
:100A00001415161718191A1B001C1D1E1F20212251
:100A1000232400010203040500000000000607086B
:100A2000090A00000000000B0C0D0E0F0000000072
:100A30000010111213140000000000010203000056
:100A40000000000000040506000000000000000790
:100A50000809000000000000000A0B0C0000000064
:100A60000000000100000000000000000002000083
:100A70000000000000000003000000000000000073
:100A80000004000000000000000000001C120A0426
:100A90001F160D02110C07010A0704000A121C049C
:100AA0000D161F02070C110104070A417474656ECC
:100AB0007561746F722053796E6320456E640041D6
:100AC0007474656E7561746F722053796E63205310
:100AD00074617274005468656D65206368616E6747
:100AE000656420746F2046726F7A656E20456D7064
:100AF00069726520283230323429005468656D658A
:100B0000206368616E67656420746F204166746558
:100B1000726C69666520283230323129005468656C
:100B20006D65206368616E67656420746F2047425D
:100B30003220283139383929005468656D652063C1
:100B400068616E67656420746F20474231202831E8
:100B50003938342900417474656E7561746F722080
:100B600053796E6368726F6E697A65640047657465
:100B700074696E67205061636B20507265666572A0
:100B8000656E6365730047657474696E6720536DA5
:100B90006F6B6520507265666572656E6365730084
:100BA000436F6D6D616E6420746F2057616E643A9F
:100BB000200057616E642053796E6320456E640097
:100BC00057616E642053796E6320537461727400B0
:100BD0004E6F20417564696F2044657669636500D6
:100BE0005761726E696E673A205253505F53595382
:100BF00054454D5F494E464F206E6F7420726563B9
:100C0000656976656421005573696E6720574156A2
:100C10002054726967676572005573696E67204773
:100C2000505374617220417564696F205665727308
:100C3000696F6E3A2000C4D5DFE5E9ECEFF1F3F41B
:100C4000F6F7F8F9FAFBFCFDFEFF00436F6E6669EC
:100C50006775726520506F776572204D6574657297
:100C600000556E61626C6520746F2066696E642049
:100C7000706F776572206D6F6E69746F72696E67E1
:100C800020646576696365206F6E206932632E206B
:100C9000506F776572206D6574657220666561744A
:100CA000757265732077696C6C2062652064697366
:100CB00061626C65642E00506F776572204D6574BB
:100CC000657220526573756C743A2000496E6974C0
:100CD00020706F776572206D657465722E2E2E0000
:100CE0004552524F523A204E6F2063616C6C6261E4
:100CF000636B20617661696C61626C6520666F72FE
:100D0000207061636B65742049442000000000007E
:100D10006410B71DC8206E3BAC30D9269041DC76FC
:100D2000F4516B6B5861B24D3C7105502083B8EDA6
:100D300044930FF0E8A3D6D68CB361CBB0C2649BCA
:100D4000D4D2D38678E20AA01CF2BDBD57616E648E
:100D50002053796E6368726F6E697A6564005265BC
:100D600063762E2057616E6420536D6F6B65205043
:100D70007265667300526563762E2057616E64203B
:100D8000436F6E66696720507265667300526563D3
:100D9000762E2057616E6420446174613A200052BF
:100DA0006563762E2057616E6420436F6D6D616EB2
:100DB000643A2000536176696E6720536D6F6B65EE
:100DC00020507265666572656E6365730053617667
:100DD000696E672057616E64205072656665726542
:100DE0006E63657300436F6D706C65746564207528
:100DF0007064617465206F66207061636B20736539
:100E00007474696E67730052756E6E696E672075D3
:100E100070646174652066756E6374696F6E732E9D
:100E20002E2E005570646174696E6720706F77654F
:100E3000722063656C6C207661726961626C6573A7
:100E40002E2E2E005570646174696E6720696E6E77
:100E50006572206379636C6F74726F6E2076617255
:100E60006961626C65732E2E2E0055706461746921
:100E70006E67206F75746572206379636C6F74722E
:100E80006F6E207661726961626C65732E2E2E0022
:100E90005570646174696E672067656E6572616C18
:100EA000207661726961626C65732E2E2E0053612B
:100EB00076696E67205061636B205072656665725B
:100EC000656E63657300526563762E20536D6F6B9C
:100ED0006520436F6E66696700526563762E205702
:100EE000616E6420436F6E66696700526563762E9B
:100EF000205061636B20436F6E66696700526563C3
:100F0000762E20417474656E7561746F72204D6524
:100F100073736167653A2000526563762E204174D1
:100F200074656E7561746F7220436F6D6D616E6470
:100F30003A2000000102030405060708090A0B0C09
:100F40000D0E000102030405060708090A0B0C0E2A
:100F50000D0C0B0A090807060504030201000C0B1F
:100F60000A09080706050403020100B80BB80BAC18
:100F70000DAC0DA00F3075983A10274C1D70173D21
:100F8000006401650166016701000021002400275B
:100F9000002A002D00300033000101000004010789
:100FA000010A0100002200250028002B002E00313C
:100FB00000340002010000050108010B01000020BF
:100FC000002300260029002C002F00320000010021
:100FD00000030106010901050505050705080808C4
:100FE00008020202020A0A080804040404010101BA
:100FF00001010101010303030303030303040707C2
:10100000070C0C0C0C0C0C0C0C020202020606065F
:1010100006060606060B0B0B0B0B0B0B0B01021047
:101020002020080810204010204080020102010802
:1010300004020101020408102040808040201008B2
:10104000040201800402018040201008040201080B
:10105000040201010204081020408001020408106B
:1010600020408000000A0B02090C0D0E0807030443
:10107000010000000000000000000000000000006F
:10108000000000000000000000000000000000124E
:10109000111000000000000000000000000000002F
:1010A0000000000000000000000091BE948911249F
:1010B0001FBECFEFD1E2DEBFCDBF00E00CBF13E01B
:1010C000A0E0B2E0ECEBF5E901E00BBF02C0079055
:1010D0000D92A63EB107D9F729E1A6EEB3E001C013
:1010E0001D92AE3AB207E1F718E0C6E5D8E000E09D
:1010F00006C021970109802FFE010E9436C5C53523
:10110000D10780E00807A9F70E9498890C94CCCAFF
:101110000C94000020915905260F3327331F2132EC
:101120003105ECF420916907FC0190E080E0243067
:1011300069F082E00895A09159052191AC01495CC4
:101140005A4FA40FB52FB11D2C930196861798F313
:1011500080915905680F6093590580E0089581E0FA
:101160000895089508950895E09122078091210738
:10117000E81730F4F0E0ED5DF84F808190E00895DD
:101180008FEF9FEF089590912207809121072FEF15
:101190003FEF981748F4E92FF0E0ED5DF84F20811C
:1011A00030E09F5F90932207C90108958091210745
:1011B00090912207891B990B0895CF92DF92EF92AD
:1011C000FF920F931F93CF93DF937C01CB018A0192
:1011D00020919107222389F0EB016B01C40ED51EEB
:1011E000CC15DD0569F06991D701ED91FC91019075
:1011F000F081E02DC7011995F3CF642F0E948A0872
:10120000C801DF91CF911F910F91FF90EF90DF9078
:10121000CF900895CF93DF931F92CDB7DEB7698348
:10122000209191072223F9F020918F07203258F066
:1012300021E030E0FC013383228390E080E00F90D6
:10124000DF91CF91089580919007E82FF0E0E15968
:10125000F84F998190838F5F8093900780938F07D9
:1012600081E090E0ECCF61E0CE0101960E948A0817
:10127000F7CF90E080E00895FC01208931898485D2
:1012800095852817390741F481E0428953892685DD
:1012900037854217530709F080E00895FC01208943
:1012A0003189868597852817390741F481E042897D
:1012B0005389248535854217530709F080E0089546
:1012C000AF92BF92CF92DF92EF92FF920F931F9354
:1012D000CF93DF9300D0CDB7DEB75A0119821A82BF
:1012E0001B82882361F18B01E1E0F0E0E82EF12C14
:1012F000D8012D918D012223F1F06F01B1E0CB1ABD
:10130000D108D501AC0DBD1D4C914423A1F030E0B6
:101310002F5F3F4FD7010E94E3C4A42FB0E0119686
:101320009B01AC010E94AEC4A1E0B0E0AC0FBD1FB8
:10133000AC0DBD1D8C933196E430F105C9F6698181
:101340007A818B810F900F900F90DF91CF911F9139
:101350000F91FF90EF90DF90CF90BF90AF900895E6
:10136000FC018DE293E091838083138212828FEFE0
:1013700086838783808781878287838781E08487CC
:1013800085871786168680E797E1918B808B83E0AF
:1013900090E0938B828B158A148A15821482809137
:1013A000A8079091A907892B21F4F093A907E0934E
:1013B000A807A0913405B0913505109721F0159636
:1013C000FC93EE931497F0933505E093340508955C
:1013D00081E090E00895982FE62F603411F4E091B9
:1013E0005819F0E03197E730F10578F48827E45098
:1013F000F64F8F4F0C9436C5030A0F0A140A3D0AA4
:10140000160A180A1A0A83E10895933011F19530EB
:1014100081F1911134C084E108958DE008958091A7
:101420005619833071F508958BE0089589E1089588
:1014300088E10895923049F020F4992341F08EE13B
:101440000895933031F09430D1F78FE108958DE114
:1014500008958091A5078F5F853068F4982F937069
:1014600051F08093A5078091A5078130E9F2823081
:10147000A1F681E0089581E0F4CF8CE1089585E044
:1014800008958FE008950F931F93CF93DF932091DA
:1014900033052F5F322F37703093330520FF2BC079
:1014A00020E831FD2064347009F02062205FFC01E7
:1014B000EC01239600E011E06785662329F070E0D7
:1014C000C8010E9422C56F5F6187822F869F080E28
:1014D00080E0811D1124811110C01682662311F055
:1014E000615061873196EC17FD0731F7DF91CF919D
:1014F0001F910F91089520E0D4CF81508683EECFC5
:1015000080E991E00895209A0895279A08956F92AE
:101510007F928F92CF92DF92EF92FF920F931F9361
:10152000CF93DF93CDB7DEB762970FB6F894DEBFE7
:101530000FBECDBF8C016B017A01822FA801475FDE
:101540005F4FB8016A5F7F4F0E9460093B01882EA0
:10155000D8011C962C91C701F7FE04C08827992753
:101560008E199F09DA82C9829C838B839E838D8327
:10157000688A798A8A8A213049F5CE0101960E94CB
:10158000430A83E08D871F861E86F7FE02C08DEF1B
:101590008D87D801ED91FC910088F189E02DBE0185
:1015A0006F5F7F4FC801199562960FB6F894DEBF42
:1015B0000FBECDBFDF91CF911F910F91FF90EF90A4
:1015C000DF90CF908F907F906F9008951C861B8640
:1015D0001A86198618861F82D4CFCF92DF92EF9297
:1015E000FF920F931F93CF93DF93CDB7DEB7629730
:1015F0000FB6F894DEBF0FBECDBF8C016B017A0130
:10160000822FA801475F5F4FB8016A5F7F4F0E943A
:1016100060099B01482FD8011C968C91DA82C982FF
:10162000FC82EB82FE82ED82288B398B4A8B8130E3
:1016300009F5CE0101960E94430A1D861F861E866B
:10164000D801ED91FC910088F189E02DBE016F5F1A
:101650007F4FC801199562960FB6F894DEBF0FBE92
:10166000CDBFDF91CF911F910F91FF90EF90DF9051
:10167000CF9008951C861B861A86198618861F82AD
:10168000DCCF843008F080E09091E702E82FF0E0B2
:1016900080915302882399F0943141F0983261F09F
:1016A0009C3039F4E955F54F84910895ED55F54F87
:1016B000FBCFE156F54FF8CFE556F54FF5CF943116
:1016C00039F0983259F09C3031F4E956F54FECCFAF
:1016D000ED56F54FE9CFE157F54FE6CFE557F54F1A
:1016E000E3CFE82F80912304882391F01E163CF469
:1016F0000E2E000CFF0BE95FF64F84910895EF3D2D
:1017000094F0FF27E1950CF4F095E754F74FF5CFEF
:10171000E53D4CF01E164CF0FF27E1950CF4F095DA
:10172000E552F74FEACF80E0089584E608958536C4
:1017300008F084E62FEF829FC001112464E670E078
:101740000E9422C5862F089590E080E00895FC0154
:1017500064870895FC01848590E00895FC018685E6
:10176000978508950F931F93CF93DF93EC018C011E
:10177000055E1D4FD8018D919C91DC01ED91FC918E
:101780000084F185E02D1995892B59F0F8018081AD
:101790009181DC01ED91FC910284F385E02D199596
:1017A000E9CFCE010E94DE78FE01E65EFD4FCD5FFF
:1017B000DD4F88818083DF91CF911F910F91089534
:1017C0001092690781E0809368071092430761E0F7
:1017D00084E10E94B48361E085E10E94B483E9EB77
:1017E000F0E080818E7F808380818D7F808388E49C
:1017F0008093B80085E48093BC000895CF92DF9277
:10180000EF92FF920F931F93CF93DF93EC018881A8
:101810000E948B838C010E94C5872C893D892017EB
:10182000310731F06E8B7F8B888F998F1D8B0C8BDE
:10183000CE88DF88E88CF98C6C197D098E099F09A8
:10184000CA80DB80EC80FD806C157D058E059F05D0
:1018500030F08A899B89998B888B1B8B0A8B28890E
:1018600039898A899B892817390781F04A855B85E0
:1018700042305105A1F48E819F81A885B9850196DA
:10188000A11DB11D8E839F83A887B987DF91CF915A
:101890001F910F91FF90EF90DF90CF900895411529
:1018A000510531F42130310589F7892B21F3EECF31
:1018B0004130510559F7232B49F7019739F7DBCF11
:1018C0004F925F927F928F929F92AF92BF92CF92F0
:1018D000DF92EF92FF920F931F93CF93DF932C0130
:1018E000EB010E94F084F20126893789621B730B99
:1018F0006A307105B0F3F8948A819B811816190635
:101900000CF0CDC1E881F98165B1862E689487F825
:1019100035B13F7735B9DA848F812D2D281B822F81
:101920002F834C85042E000C550BAA81BB8178892E
:10193000FF84E9887F5FF394E3949E819884B9845F
:10194000AB841181C12C6C2D0C2D2C2D21811127E4
:1019500088942111280F08F42FEF8195889470FD49
:10196000120F1795889471FD120F1795889472FDC8
:10197000120F1795889473FD120F1795889474FDB4
:10198000120F1795889475FD120F1795889476FDA0
:10199000120F1795889477FD120F17958894622F70
:1019A0007111612F8D0D162F002C85B800C017FF07
:1019B00035B920816627889400C000C0002C35B955
:1019C0002111290F00C0002C85B800C016FF35B9C1
:1019D00008F42FEF9195889400C000C0002C35B911
:1019E000F0FC620F00C0002C85B800C015FF35B9AF
:1019F00067958894F1FC620F00C000C0002C35B9D7
:101A00006795889400C0002C85B800C014FF35B9D4
:101A1000F2FC620F6795889400C000C0002C35B9B5
:101A2000F3FC620F00C0002C85B800C013FF35B96D
:101A300067958894F4FC620F00C000C0002C35B993
:101A40006795889400C0002C85B800C012FF35B996
:101A5000F5FC620F6795889400C000C0002C35B972
:101A6000F6FC620F00C0002C85B800C011FF35B92C
:101A700067958894F7FC620F00C000C0002C35B950
:101A80006795889400C0002C85B800C010FF35B958
:101A9000122FF110162F9B0D00C000C0002C35B97D
:101AA00000C000C0002C85B800C017FF35B92281E6
:101AB0006627889400C000C0002C35B92111290D7B
:101AC00000C0002C85B800C016FF35B908F42FEF10
:101AD000E40FF51F00C000C0002C35B9E0FC620F18
:101AE00000C0002C85B800C015FF35B967958894F3
:101AF000E1FC620F00C000C0002C35B967958894E6
:101B000000C0002C85B800C014FF35B9E2FC620F9C
:101B10006795889400C000C0002C35B9E3FC620FC3
:101B200000C0002C85B800C013FF35B967958894B4
:101B3000E4FC620F00C000C0002C35B967958894A2
:101B400000C0002C85B800C012FF35B9E5FC620F5B
:101B50006795889400C000C0002C35B9E6FC620F80
:101B600000C0002C85B800C011FF35B96795889476
:101B7000E7FC620F00C000C0002C35B9679588945F
:101B800000C0002C85B800C010FF35B9122FE1103D
:101B9000162F919400C000C0002C35B99A0C00C0DB
:101BA00000C085B800C017FF35B921816627889429
:101BB00000C000C0002C35B92111280F00C0002C36
:101BC00085B800C016FF35B908F42FEF81958894C9
:101BD00000C000C0002C35B970FD620F00C0002CA1
:101BE00085B800C015FF35B96795889471FD620FFF
:101BF00000C000C0002C35B96795889400C0002C47
:101C000085B800C014FF35B972FD620F67958894DE
:101C100000C000C0002C35B973FD620F00C0002C5D
:101C200085B800C013FF35B96795889474FD620FBD
:101C300000C000C0002C35B96795889400C0002C06
:101C400085B800C012FF35B975FD620F679588949D
:101C500000C000C0002C35B976FD620F00C0002C1A
:101C600085B800C011FF35B96795889477FD620F7C
:101C700000C000C0002C35B96795889400C0002CC6
:101C800085B800C010FF35B9122F7111162F8D0DB8
:101C900000C000C0002C35B9119709F086CEEA814A
:101CA000FB812EE130E0DF010E943EC530E020E004
:101CB000A901AAE9EA9F0E0E411DFA9F400D511D90
:101CC00011244F0F511DDC01CB01840F951FA11D65
:101CD000B11D893E43E09407A105B10508F434C065
:101CE000885E9340A109B10942E0B695A795979502
:101CF00087954A95D1F747E0849F080E211D949F50
:101D0000200D311D1124290F311D6091320570E025
:101D1000860F971F820F931F40911D0750911E073A
:101D200060911F0770912007292F3327420F531FFF
:101D3000611D711D40931D0750931E0760931F077F
:101D4000709320078093320578940E94F084F2010A
:101D5000778B668BDF91CF911F910F91FF90EF9062
:101D6000DF90CF90BF90AF909F908F907F905F90CB
:101D70004F9008954F925F927F928F929F92AF9271
:101D8000BF92CF92DF92EF92FF920F931F93CF9368
:101D9000DF932C01EB010E94F084F2012689378940
:101DA000621B730B6A307105B0F3F8948A819B81D2
:101DB000181619060CF0CDC1E881F98165B1862E9F
:101DC000689480F835B13E7F35B9DA848F812D2D46
:101DD000281B822F2F834C85042E000C550BAA81C3
:101DE000BB817889FF84E9887F5FF394E3949E81C7
:101DF0009884B984AB841181C12C6C2D0C2D2C2DB1
:101E00002181112788942111280F08F42FEF819543
:101E1000889470FD120F1795889471FD120F179515
:101E2000889472FD120F1795889473FD120F179501
:101E3000889474FD120F1795889475FD120F1795ED
:101E4000889476FD120F1795889477FD120F1795D9
:101E50008894622F7111612F8D0D162F002C85B87B
:101E600000C017FF35B920816627889400C000C0E4
:101E7000002C35B92111290F00C0002C85B800C0F5
:101E800016FF35B908F42FEF9195889400C000C073
:101E9000002C35B9F0FC620F00C0002C85B800C0E2
:101EA00015FF35B967958894F1FC620F00C000C03A
:101EB000002C35B96795889400C0002C85B800C007
:101EC00014FF35B9F2FC620F6795889400C000C01A
:101ED000002C35B9F3FC620F00C0002C85B800C09F
:101EE00013FF35B967958894F4FC620F00C000C0F9
:101EF000002C35B96795889400C0002C85B800C0C7
:101F000012FF35B9F5FC620F6795889400C000C0D8
:101F1000002C35B9F6FC620F00C0002C85B800C05B
:101F200011FF35B967958894F7FC620F00C000C0B7
:101F3000002C35B96795889400C0002C85B800C086
:101F400010FF35B9122FF110162F9B0D00C000C0E5
:101F5000002C35B900C000C0002C85B800C017FFA8
:101F600035B922816627889400C000C0002C35B99D
:101F70002111290D00C0002C85B800C016FF35B90D
:101F800008F42FEFE40FF51F00C000C0002C35B996
:101F9000E0FC620F00C0002C85B800C015FF35B909
:101FA00067958894E1FC620F00C000C0002C35B931
:101FB0006795889400C0002C85B800C014FF35B91F
:101FC000E2FC620F6795889400C000C0002C35B910
:101FD000E3FC620F00C0002C85B800C013FF35B9C8
:101FE00067958894E4FC620F00C000C0002C35B9EE
:101FF0006795889400C0002C85B800C012FF35B9E1
:10200000E5FC620F6795889400C000C0002C35B9CC
:10201000E6FC620F00C0002C85B800C011FF35B986
:1020200067958894E7FC620F00C000C0002C35B9AA
:102030006795889400C0002C85B800C010FF35B9A2
:10204000122FE110162F919400C000C0002C35B95A
:102050009A0C00C000C085B800C017FF35B92181B7
:102060006627889400C000C0002C35B92111280FC4
:1020700000C0002C85B800C016FF35B908F42FEF5A
:102080008195889400C000C0002C35B970FD620FA6
:1020900000C0002C85B800C015FF35B9679588943D
:1020A00071FD620F00C000C0002C35B9679588949F
:1020B00000C0002C85B800C014FF35B972FD620F56
:1020C0006795889400C000C0002C35B973FD620F7D
:1020D00000C0002C85B800C013FF35B967958894FF
:1020E00074FD620F00C000C0002C35B9679588945C
:1020F00000C0002C85B800C012FF35B975FD620F15
:102100006795889400C000C0002C35B976FD620F39
:1021100000C0002C85B800C011FF35B967958894C0
:1021200077FD620F00C000C0002C35B96795889418
:1021300000C0002C85B800C010FF35B9122F7111F6
:10214000162F8D0D00C000C0002C35B9119709F075
:1021500086CEEA81FB812EE130E0DF010E943EC5A0
:1021600030E020E0A901AAE9EA9F0E0E411DFA9F86
:10217000400D511D11244F0F511DDC01CB01840F67
:10218000951FA11DB11D893E43E09407A105B1052E
:1021900008F434C0885E9340A109B10942E0B695C5
:1021A000A795979587954A95D1F747E0849F080EA4
:1021B000211D949F200D311D1124290F311D609187
:1021C000320570E0860F971F820F931F40911D0705
:1021D00050911E0760911F0770912007292F332708
:1021E000420F531F611D711D40931D0750931E0721
:1021F00060931F07709320078093320578940E94A4
:10220000F084F201778B668BDF91CF911F910F9154
:10221000FF90EF90DF90CF90BF90AF909F908F9006
:102220007F905F904F9008950F931F93CF93DF930C
:1022300000D000D0CDB7DEB78FEF9FEFDC018983F0
:102240009A83AB83BC8310E000E01E830D83BE0144
:102250006B5F7F4FCE0101960E94B673BE016A5F2D
:102260007F4FCE0101960E94B6730F5F1F4F04335C
:10227000110559F78DE190E09E838D83BE016B5F60
:102280007F4FCE0101960E94B673BE016A5F7F4FF9
:10229000CE0101960E94B67387E190E09E838D8304
:1022A000BE016B5F7F4FCE0101960E94B673BE01E7
:1022B0006A5F7F4FCE0101960E94B67369817A8171
:1022C0008B819C81609570958095909526960FB630
:1022D000F894DEBF0FBECDBFDF91CF911F910F915C
:1022E0000895FF920F931F93CF93DF93EC01F62E87
:1022F00008811981C8010E9479C4F81621F06F2D58
:10230000C8010E9481C4CE01DF91CF911F910F912E
:10231000FF900895EF92FF920F931F93CF93DF9357
:1023200000D000D0CDB7DEB70E94141169837A8344
:102330008B839C83CE0101967C010CEF1FE01E83F2
:102340000D83F70161917F01CE0105960E94711105
:102350000F5F1F4F0115F0E11F0789F726960FB693
:10236000F894DEBF0FBECDBFDF91CF911F910F91CB
:10237000FF90EF9008958F929F92AF92BF92CF926D
:10238000DF92EF92FF920F931F93CF93DF931F92F1
:102390001F92CDB7DEB78C0119828FEF8A83680157
:1023A00025EEC21A2DEFD20AD6018D919C91DC0147
:1023B000ED91FC910084F185E02D1995F801E75E1F
:1023C000FD4F7F01892B09F449C081E089834801D1
:1023D000FDEF8F1A9F0A580126EEA21A2DEFB20ABE
:1023E000D6018D919C91DC01ED91FC910084F185E9
:1023F000E02D1995892B09F1F60180819181DC018D
:10240000ED91FC910284F385E02D19958A83AE014C
:102410004F5F5F4FBE016E5F7F4FC8010E9416790C
:10242000F7018083D4018C91F50180838330C1F260
:1024300018161CF0C8010E94B20BF70180810F90A2
:102440000F90DF91CF911F910F91FF90EF90DF9050
:10245000CF90BF90AF909F908F900895AE014F5F47
:102460005F4FBE016E5F7F4FC8010E941679D70192
:102470008C93F801ED5FFD4F808177968083D8CFF4
:10248000BF92CF92DF92EF92FF920F931F93CF9361
:10249000DF931F92CDB7DEB78C016B01B42EDB0149
:1024A0008D919C91F801E15FFD4F7F018F3F910578
:1024B00008F475C08FEF80836801F80180E0919186
:1024C0009E3709F067C0D7018C934DE353E0B80104
:1024D000C8010E94F6784091220A5091230A98017F
:1024E00022503F4F80E0D601ED916D01E827E40FC7
:1024F000F52FF11D80812A173B07A9F7F801E3505A
:10250000FE4FB082F7019081F801E250FE4F9083B8
:102510009EEF31969083319680838EEFF82E68017E
:10252000B5EECB1ABDEFDB0AF60180819181B801CF
:1025300064507E4FDC01ED91FC910280F381E02D2F
:1025400044E050E01995F601808191814F2D50E0D3
:10255000DC01ED91FC910280F381E02DB801199529
:10256000F60180819181B8017E5FDC01ED91FC91E3
:102570000280F381E02D42E050E019958F2D0F90FD
:10258000DF91CF911F910F91FF90EF90DF90CF904F
:10259000BF9008958F5F8E3F09F091CF96CF982F0F
:1025A0008FEF8083F80180E0891728F421912E377E
:1025B00019F5F7018083D6018C918983AE014F5FB5
:1025C0005F4FB801C8010E94F678F6012081318181
:1025D0004091220A5091230AD80180E03327BD019F
:1025E000601B710B6217730748F4ED91E827E40F45
:1025F000F52FF11D8081F3CF8F5FD6CFF801E35027
:10260000FE4FB082D7019C9131969083F601908164
:10261000F801E150FE4F908331968083D601FC9003
:102620007ECFCF93DF9391E0909336058823B9F066
:10263000C091B800D091BA008091BC008A7B809391
:10264000BC0060E084E10E94B48360E085E10E9408
:10265000B4830E94E00BD093BA00C093B800DF911E
:10266000CF91089585ED8093BC0080916B07909188
:102670006C07A0916D07B0916E070796A11DB11D63
:1026800023E0B695A795979587952A95D1F7209140
:10269000BC0024FD03C010926907089540916B07A8
:1026A00050916C0760916D0770916E07452B462B1A
:1026B000472B69F30097A105B10541F02AE22A955D
:1026C000F1F700C00197A109B109E1CF80916A0734
:1026D0000C9411131F920F920FB60F9211240BB688
:1026E0000F922F933F934F935F936F937F938F93AB
:1026F0009F93AF93BF93EF93FF938091B900887F2F
:10270000803609F44DC008F040C0883209F4A9C0F1
:1027100028F5803109F49DC0C8F4882309F4FBC072
:10272000883009F496C0FF91EF91BF91AF919F91CE
:102730008F917F916F915F914F913F912F910F906A
:102740000BBE0F900FBE0F901F901895883109F4A3
:1027500088C0803241F78093670714C0803409F441
:102760009DC040F48033B9F38833E9F6809367075E
:1027700085ECB0C0803509F485C0883509F496C071
:10278000883489F60E943213CECF883909F48CC080
:1027900038F5883729F050F4883611F0803719F66B
:1027A00083E08093690710927D0557C0883809F44B
:1027B0007BC0803919F0803809F0B5CF80917D0554
:1027C000803208F071C0E0917D0581E08E0F80932A
:1027D0007D058091BB00F0E0E35AFA4F80833DC055
:1027E000803B39F0E0F4803A09F479C0883A09F086
:1027F0009ACF84E08093690710925A051092590588
:10280000E0915705F091580519958091590581116E
:102810000FC081E0809359051092370509C0803CB4
:1028200009F4A6CF883C09F4A3CF883B09F07BCFFD
:10283000E0915A0581E08E0F80935A05F0E0E95C43
:10284000FA4F80818093BB0090915A058091590581
:1028500029C0809144078093BB0085EC8093BC0025
:1028600062CF9091660780916507981758F5E091BF
:10287000660781E08E0F80936607F0E0EB5BF84F10
:102880008081E9CFE091660781E08E0F8093660733
:102890008091BB00F0E0EB5BF84F8083909166077E
:1028A000809165079817C8F285E8D8CFE091660750
:1028B00081E08E0F809366078091BB00F0E0EB5BB8
:1028C000F84F80838091680781115CCF81E080930D
:1028D000430784EA8093BC001092690724CF85ECFB
:1028E0008093BC001092690780917D05803230F49E
:1028F000E0917D05F0E0E35AFA4F108260917D058A
:1029000070E0E0915B05F0915C058DE595E019952F
:1029100010927D0508CF1092670734CF8F929F9257
:10292000AF92BF92CF92DF92EF92FF920F931F93DD
:10293000CF93DF93FC012085211110C060E070E08F
:10294000CB01DF91CF911F910F91FF90EF90DF901E
:10295000CF90BF90AF909F908F900895EC010E9410
:10296000C58729852111EACF8C809D80AE80BF80EC
:10297000088119812A813B816B017C01C818D90823
:10298000EA08FB08C016D106E206F306B8F6080D01
:10299000191D2A1D3B1D68017901C61AD70AE80ACC
:1029A000F90AC701B601CDCFCF92DF92EF92FF9225
:1029B0001F93CF93DF93FC01108511110AC010E023
:1029C000812FDF91CF911F91FF90EF90DF90CF90FB
:1029D0000895EC018185882319F018861986F0CFB7
:1029E0000E94C587CC80DD80EE80FF806C197D0958
:1029F0008E099F09C880D980EA80FB806C157D050F
:102A00008E059F0550F7DBCFCF93DF93EC01488312
:102A100059836A837B830E94C5876C837D838E8301
:102A20009F8381E088871986DF91CF9108950F9366
:102A30001F93CF93DF93EC010E94C5878B019C010C
:102A40008C819D81AE81BF81488159816A817B8162
:102A5000081B190B2A0B3B0B041715072607370712
:102A600038F4CE01DF91CF911F910F910C94041592
:102A7000840F951FA61FB71F8C839D83AE83BF83D2
:102A800081E088871986DF91CF911F910F9108957A
:102A9000DC01FB016C9111964C91119712967C917F
:102AA000262F220F220F220F95E5822F899F080ED5
:102AB00080E0811D1124562F5074362F307267FD2F
:102AC00060C0511149C0311106C0982F9095282F30
:102AD000892F90E004C025E5280F90E08BEA4F3F56
:102AE000F1F0442309F46CC0409530E0442329F010
:102AF000449F312D112441113F5F432F4095849F06
:102B0000080E80E0811D249F020E20E0211D949F6D
:102B1000090E90E0911D1124830F230F930F7F3F27
:102B2000B9F030E0772321F0779F312D09F03F5F36
:102B3000332309F449C0839F080E80E0811D239F41
:102B4000020E20E0211D939F090E90E0911D11249B
:102B5000808321839283089531110DC0922F2AEA38
:102B6000929F090E90E0911D11242BEA291B922FB0
:102B70002AEA280FADCF90E0282F2095982F80E0EB
:102B8000AECF511111C031110BC0922F8AEA989F1C
:102B9000090E90E0911D11242BEA291B9B5AEFCFBF
:102BA000982F909520E09BCF311106C025E5280F86
:102BB0009BEA981B822FF6CF2AEA280F30E0F9CF44
:102BC0009FEF2FEF8FEFABCF90E020E080E0C0CF02
:102BD00088E499E10E94D414882391F08091300A0E
:102BE0000E94D1874091310250E070E060E088E4BB
:102BF00099E10E940415809182058111109282054D
:102C00000895CF93DF931F921F92CDB7DEB7EEE109
:102C1000F4E021E0208381836283738394E09483D2
:102C2000EEE5FCE02083818362837383948385E0F7
:102C300090E09A83898341E0BE016F5F7F4FCF01AF
:102C40000E9440120F900F90DF91CF91089570E095
:102C500060E00C940116E0E2F0E18091E4028083F0
:102C60008091E30281838091E20282838091E1027C
:102C700083838091E002848308958091E702843108
:102C800061F0883221F08C3031F48FE001C087E0B0
:102C900080930602089585E0FBCF8AE0F9CF80910A
:102CA0004C0290914D02892B21F088E0809305021F
:102CB00008951092050208959091E8028091E7022C
:102CC000890F27E0280F2093531990933C19809384
:102CD000521980914B022091920540914C025091E3
:102CE0004D02452BA9F0909105023FEF390F30932B
:102CF000E50290930A11980F8FEF890F80930911C5
:102D0000909308118FEF820F890F80930711089518
:102D10001092E50210920A119FEF980F90930911FB
:102D200080930811820F8150F0CF81E080933402AC
:102D3000809333028093320208958823E9F18091D1
:102D4000D0028823B9F18091950690918E0699233F
:102D500039F1811127C0E0915A19F0E0E15EFF4E90
:102D60008081811125C080918C06811121C08091C4
:102D7000D002882311F18091950690918E069923B7
:102D8000F1F081111EC0E0915A19F0E0E15EFF4EB2
:102D9000808181111CC080918C06811118C008951A
:102DA000882309F3E0915A19F0E0E950FD4FD8CF9C
:102DB0005F9ADDCF5F98DBCF5F98449808958823B2
:102DC00051F3E0915A19F0E0E950FD4FE1CF449AF8
:102DD00008958823E9F18091D0028823B9F1809188
:102DE000950690918E06992339F1811127C0E091C3
:102DF0005A19F0E0E15EFF4E8081811125C080917B
:102E00008C06811121C08091D002882311F180911C
:102E1000950690918E069923F1F081111EC0E091E4
:102E20005A19F0E0E15EFF4E808181111CC0809153
:102E30008C06811118C00895882309F3E0915A196E
:102E4000F0E0E950FD4FD8CF429ADDCF4298DBCF7A
:102E50004298A2980895882351F3E0915A19F0E01E
:102E6000E950FD4FE1CFA29A089580915502882341
:102E700049F081E02091C7103091C810232B31F028
:102E800080E0089580911D0491E089270895982F8E
:102E900080912E02882369F0923049F4809150028B
:102EA000882351F081E09091E7029C3029F480E082
:102EB00003C081E09230D9F70895E82FF0E08091C7
:102EC000E7028C3089F028F4843051F0E551F64F58
:102ED00009C0843161F08832C9F7ED53F64F02C062
:102EE000ED59F54F84910895E55CF54FFBCFED5E0C
:102EF000F54FF8CF8823D1F080918E06882341F0DA
:102F0000E0915A19F0E0E15EFF4E8081811108C026
:102F100080919506811104C080919406882331F038
:102F200080910B01886080930B01089580910B01C3
:102F3000877FF9CFE3E4F0E1108611868EE180937C
:102F4000000290E080E00C941E8490915F19933011
:102F5000B9F09530D9F020915902222389F08823C5
:102F600079F0923079F490918E06992349F09091FE
:102F70000002891759F08093000290E00C941E849F
:102F80000C949A17909100029813F5CF0895BF9270
:102F9000CF92DF92EF92FF920F931F93CF93DF9325
:102FA000EC01809154020E94970BB82EF0903B19CF
:102FB000E0903C1981E399E10E94D414882309F43C
:102FC000A9C1FE188F2D0E945D17E82E8091CE02B8
:102FD000882309F4B1C085E08093310281E099E152
:102FE0000E940274882389F01092CE02D093D402FA
:102FF000C093D302AE0170E060E081E399E10E94EA
:10300000041580E4809304021BC081E099E10E94D2
:103010006C749093D4028093D302AC0170E060E0B2
:1030200081E399E10E940415809104028F5F8E3143
:1030300008F480C08093040280910402813408F770
:1030400080918E0681110CC080919506811108C077
:1030500080919406811104C0809104020E94A517FA
:10306000809134029091E702943109F4F9C09832CA
:1030700009F4F6C09C3009F4F7C0823008F4DDC0D2
:1030800090E08C179D0709F4E8C0C81BD90B80910C
:1030900057190E94471781113DC1EF2DF0E0EC5503
:1030A000FA4F808181111BC0EE20C9F080912E0261
:1030B0008823A9F029E1F29EC00111249C012F5C14
:1030C0003E4E690160E0C9010E94D2769E0150E047
:1030D00040E004E110E06B2DC6010E949F768091D4
:1030E0004F02882309F420C18091E702843109F45A
:1030F000C1C0883209F418C1909196068C3009F449
:10310000D5C091110DC08091CE02811109C080916E
:103110009406811105C080918B06882309F40AC1A9
:1031200037E28BE1F31609F4D7C083E1F812FEC051
:103130008FE0D2C08EE17ECF809196068823B1F1D8
:1031400085E08093310281E099E10E940274882336
:1031500019F01092960674CF81E099E10E946C7488
:103160009093D4028093D302AC0170E060E081E3DD
:1031700099E10E9404152091D3023091D4022932A2
:10318000310568F080910402833320F081508093F0
:10319000040205C02536310510F08F31B8F7809153
:1031A00004028E3108F04CCF8EE12CCFD093D402A4
:1031B000C093D302809134029091E7029C3031F1A8
:1031C000943121F18230E8F0282F30E0AE01421B2B
:1031D000530B2C173D0711F450E040E090912E0264
:1031E0008B5F911101C085E08093310280913102A3
:1031F0008B3018F08AE0809331024115510591F02F
:1032000013C085E080933102AE01F0CF95E090933A
:103210003102823080F090E0AE01481B590B8C17D0
:103220009D0711F441E050E070E060E081E399E136
:103230000E94041505CFAE01E0CF8091CE0281112E
:1032400009C080919606811105C0CE01880F991F93
:10325000C80FD91F209709F01ACFC1E0D0E017CFCF
:10326000823008F00DCFF1CF823008F009CFCC0FBB
:10327000DD1FF0CF8091960681110DC08091CE02A6
:10328000811109C080919406811105C080918B063F
:10329000882309F44FC092E29F1508F449CF81EFCB
:1032A0008F0D853008F044C089E016C091110CC024
:1032B0008091CE02811108C080919406811104C0D2
:1032C00080918B068823B1F120E22F1568F383EFFC
:1032D0008F0D873088F585E02091530290913B193E
:1032E000222309F454C0E11029C0209118042817A2
:1032F00028F52F5F2093180420913B198091E80254
:1033000090E087962817190629F024F080913C193F
:1033100080933B19DF91CF911F910F91FF90EF9018
:10332000DF90CF90BF90089580E0D6CF85E1D4CFD5
:103330008BE0D2CF83E0D0CF87E0CECF10921804BD
:10334000C92FE11020C020913C19EC2EF12C822FC6
:1033500090E087968E159F057CF28C2F821B0E9431
:103360005D17882319F0C0933B19C6CF8091E802FE
:1033700090E08796E816F90621F480913C19809335
:103380003B19CF5FE0CF9F5F90933B19B5CFE11022
:1033900012C020911804281770F42F5F209318048E
:1033A00090913B1980913C19981708F0B3CF809108
:1033B000E802895DADCF10921804C92FE11010C04A
:1033C00080913C198C1760F73C2F381B832F0E948B
:1033D0005D17882319F0C0933B19E2CFC150F0CF9D
:1033E000915090933B19DCCF80915619853059F458
:1033F00080912E02811107C09091571981E0992385
:1034000021F0973011F080E00895089581E08093D5
:10341000CE028093CD028093CC02089580915619FC
:10342000823020F0843068F0853011F18CE291E038
:103430009093D4028093D3029093D2028093D102CE
:1034400008956091C9027091CA0290E080E00E94E4
:103450005AC326E636E646EA5FE30E94BBC30E94F3
:1034600050C67093D4026093D3028CE291E0E4CF13
:1034700088EC90E09093D4028093D302F6CFDF9251
:10348000EF92FF920F931F93CF93DF9384EAE82E7E
:1034900085E0F82E0EEE13E0D0E0C0E0DD24D394FA
:1034A000F70111927F0160E0CE01875E9A4E0E9483
:1034B000D27660E0CE018F5C9E4E0E94D276F801FB
:1034C000D1928F016996C83EF3E0DF0749F7DF919B
:1034D000CF911F910F91FF90EF90DF900895809111
:1034E0003402811103C081E0809334028091340260
:1034F000853018F084E0809334028091330281118A
:1035000003C081E08093330280913302853018F04C
:1035100084E08093330280913202811103C081E004
:103520008093320280913202853018F084E08093DB
:10353000320208952F923F924F925F926F927F9244
:103540008F929F92AF92BF92CF92DF92EF92FF92B3
:103550000F931F93CF93DF93CDB7DEB7A2970FB62C
:10356000F894DEBF0FBECDBF8091FD0E0E94710B9F
:10357000282F8091940588248394882311F072E089
:10358000872E8091530299249394882311F062E04E
:10359000962E80915102AA24A394882311F052E020
:1035A000A52E80914F02BB24B394882311F042E0F2
:1035B000B42E8091D002CC24C394882311F032E041
:1035C000C32E8091BE02DD24D394882311F092E0B3
:1035D000D92E8091CF028111D5C0E1E0E8A380917E
:1035E000CD058111D2C0E1E0E9A3E0905A02F0904C
:1035F000541980919E0601E0811102E080919E05A0
:1036000012E0811111E08091550231E0811132E028
:103610008091930522242394882311F082E0282EA0
:10362000809189068111B4C0E1E0EAA3809156023D
:103630009091570268EE73E00E940EC5762E80913D
:10364000230441E0811142E08091BF029091C002C9
:10365000E8EEF3E0BF010E940EC5362E8091C10254
:103660009091C202BF010E940EC5462E8091C302F6
:103670009091C402BF010E940EC5562E8091C502D2
:103680009091C602BF010E940EC5662E8091C702AE
:103690009091C802BF010E940EC58091E002A1E096
:1036A0008111A2E08091E10271E0811172E08091CC
:1036B000E20251E0811152E08091E30291E0811138
:1036C00092E08091E402811166C081E0253608F025
:1036D00064C02F5FE0915802E150E53008F05FC010
:1036E000F0E0ED50FD4FE08189829A82AB82BC828E
:1036F000CD82DE82F8A1FF83F9A1F887E986FA86F8
:103700000B871C874D872E873F86488A598A6A8A8D
:103710006B8BAC8B7D8B5E8B9F8B888FE98F3A8F09
:103720002B8EEAA1EC8F7D8ECE0101967C0107E104
:1037300010E01F8F0E8FF70161917F01CE014E9631
:103740000E9471110F5F1F4F0433110591F70E9402
:103750008A11A2960FB6F894DEBF0FBECDBFDF91DF
:10376000CF911F910F91FF90EF90DF90CF90BF907E
:10377000AF909F908F907F906F905F904F903F9011
:103780002F900895F2E0F8A32ACFF2E0F9A32DCF0D
:10379000F2E0FAA34BCF82E099CF25E69BCFE4E09D
:1037A000A3CF0F931F93CF93DF931F921F92CDB799
:1037B000DEB707E110E01A8309836FEFCE010196AF
:1037C0000E9471110F5F1F4F04331105A1F70E9472
:1037D0008A110F900F90DF91CF911F910F91089553
:1037E000EF92FF920F931F93CF93DF93CDB7DEB786
:1037F00069970FB6F894DEBF0FBECDBF80919005DC
:10380000E1E0813009F4E2E08091490293E0813007
:1038100021F094E0823009F092E020914C02309146
:103820004D0282E02115310529F083E02130310578
:1038300009F084E02091CB0261E0211162E0209147
:10384000910571E0211172E02091520251E02111A5
:1038500052E020918F0541E0211142E02091500279
:1038600031E0211132E020918E05211156C021E076
:10387000F091E802F983F091E702FA83F0914B02AC
:10388000FB83EC83E091DB02ED83E091D902EE83D0
:10389000E091D702EF83E091DC02E887E091DA0261
:1038A000E987E091D802EA87E0914802EB87E0914E
:1038B0005402EC87E0914A02ED87E0914E02EE87D8
:1038C000E0919205EF87988B798B8A8B6B8B5C8B61
:1038D0004D8B3E8B2F8BCE0101967C0110E000E0DA
:1038E000198F088FF70161917F01CE0148960E94E0
:1038F00071110F5F1F4F0731110591F70E948A1157
:1039000069960FB6F894DEBF0FBECDBFDF91CF91A1
:103910001F910F91FF90EF90089522E0A9CF0F9390
:103920001F93CF93DF931F921F92CDB7DEB710E0A6
:1039300000E01A8309836FEFCE0101960E94711196
:103940000F5F1F4F07311105A1F70E948A110F90D9
:103950000F90DF91CF911F910F910895CF93DF9337
:10396000CDB7DEB764970FB6F894DEBF0FBECDBFFC
:10397000209194073091950721503109223031056B
:1039800080F4FE01319694E1DF011D929A95E9F7EA
:1039900095E0998381110EC085E18D83CF010E944E
:1039A000877B64960FB6F894DEBF0FBECDBFDF9164
:1039B000CF91089584E1F1CFCF93DF93CDB7DEB7F8
:1039C00064970FB6F894DEBF0FBECDBF2091940769
:1039D00030919507215031092230310580F4FE01E4
:1039E000319694E1DF011D929A95E9F795E099836C
:1039F00081110EC083E18D83CF010E94877B649685
:103A00000FB6F894DEBF0FBECDBFDF91CF91089502
:103A100082E1F1CF80939B05209196053091970527
:103A2000121613063CF4682F809198059091990521
:103A30000C94EC7C0895282F853608F024E6822F1C
:103A400065E00E9402C5992361F0822F90E0029602
:103A500065E070E00E9422C5862F880F880F282F0E
:103A6000260F822F65E00E9402C5E82FF0E08091CA
:103A70002304882321F0EC55F74F84910895EA5CE4
:103A8000F34FFBCFAB012091940730919507215064
:103A900031092330310528F421E06AEB7FEF0C94E3
:103AA000157D089520919407309195072150310993
:103AB0002330310518F460E00C94EC7C089582E129
:103AC00090E00E94521D83E190E00E94521D84E12B
:103AD00090E00E94521D85E190E00E94521D86E117
:103AE00090E00C94521D0F931F93CF93C82F809199
:103AF0005619833019F1853009F448C0823039F500
:103B000068E873E1CC2311F064E670E08CE791E0A3
:103B10000E94421D80915719823009F45CC08330A5
:103B200009F466C0813009F06CC068E873E1CC2309
:103B300011F064E670E087E390E055C068E873E157
:103B4000CC2311F064E670E086E290E0E1CF08E873
:103B500013E1CC2311F004E610E0B80180E190E01D
:103B60000E94421DB8018EE890E00E94421DB801FB
:103B700080E990E00E94421DB80180E691E00E9439
:103B8000421D0E945F1D10928806C4CF0E94F41946
:103B9000882371F0809194058823A1F068E873E18F
:103BA000CC2311F064E670E08AEB91E00E94421DA4
:103BB00008E813E1CC2311F004E610E0B80185E930
:103BC00091E0CECF68E873E1CC2311F064E670E0B9
:103BD00089EB91E0EBCF68E873E1CC2311F064E668
:103BE00070E082E390E0CF911F910F910C94421D01
:103BF00068E873E1CC2311F064E670E087E491E0BB
:103C0000F2CFCF911F910F91089520919407309199
:103C10009507215031092330310510F40C94D380DD
:103C20000895809156198250823020F08AE691E002
:103C30000C94051E8CE390E0FBCF8DE890E00E9491
:103C4000051E8EE890E00E94051E8FE890E00E941D
:103C5000051E80E990E00E94051E81E990E00E9427
:103C6000051E82E990E00E94051E83E990E00E9413
:103C7000051E84E990E00E94051E89E491E00E94FF
:103C8000051E8CE491E00C94051E80915619853038
:103C900061F48FE891E00E94051E8DEB91E00E9497
:103CA000051E87E390E00C94051E8BE691E00E94D0
:103CB000051E8CE691E0F7CFCF92DF92EF92FF9254
:103CC0000F931F93CF93DF936C01F62EC42F14161E
:103CD0000CF4C0E0CA3B0CF4CAEB809194079091BD
:103CE00095078230910591F18330910519F0019784
:103CF00009F048C00C2E000CDD0B222381F06AEB8A
:103D00007FEFC6010E94AD806E2DC6010E945680D5
:103D100020E0A801BE01C6010E94157D08C0BE01B9
:103D2000C6010E94AD806E2DC6010E94568061E0E2
:103D3000F11001C060E0C601DF91CF911F910F919A
:103D4000FF90EF90DF90CF900C94EC7C0C2E000C49
:103D5000DD0B222361F06AEB7FEFC6010E94AD808C
:103D600050E040E06E2DC6010E947D80D1CFBE01A3
:103D7000C6010E94AD8050E040E06E2DC6010E9459
:103D80007D80D5CFDF91CF911F910F91FF90EF9064
:103D9000DF90CF900895CF92DF92EF920F931F9311
:103DA000CF93DF9368EE73E00E940EC5EB016B01C9
:103DB00084EBC80ED11CCB018D549F4F0E94051E71
:103DC000C6010E94051ECE018B549F4F0E94051E06
:103DD000EE24E39410E000E020E04091FB0E60E070
:103DE000C6010E945C1EDF91CF911F910F91EF9051
:103DF000DF90CF9008958330B9F198F4823009F4C0
:103E000042C08091C7029091C802885E9340803D75
:103E100027E0920708F446C09093C8028093C70237
:103E200012C0843091F0853061F78091BF0290918B
:103E3000C002885E9340803D27E0920798F19093FE
:103E4000C0028093BF020C94CB1E8091C10290915E
:103E5000C202885E9340803D27E0920718F190935C
:103E6000C2028093C102EFCF8091C3029091C4023D
:103E7000885E9340803D27E09207A0F09093C402B3
:103E80008093C302E0CF8091C5029091C602885E04
:103E90009340803D27E0920728F09093C6028093DC
:103EA000C502D1CF08958330B9F198F4823009F476
:103EB00042C08091C7029091C80288519C4F8136C0
:103EC0002AEE920708F046C09093C8028093C7027A
:103ED00012C0843091F0853061F78091BF029091DB
:103EE000C00288519C4F81362AEE920798F5909334
:103EF000C0028093BF020C94CB1E8091C1029091AE
:103F0000C20288519C4F81362AEE920718F5909391
:103F1000C2028093C102EFCF8091C3029091C4028C
:103F200088519C4F81362AEE9207A0F49093C402E8
:103F30008093C302E0CF8091C5029091C602885160
:103F40009C4F81362AEE920728F49093C602809304
:103F5000C502D1CF0895EF920F931F9380918806E9
:103F6000882331F080E691E00E94051E10928806B9
:103F70000E94F419882361F08EE491E00E94051EEE
:103F800089EB91E00E94051E8AEB91E00E94051EDC
:103F900080918906882359F08091BA0F882339F0DF
:103FA0001092BA0F1092BB0F81E00E94731D809196
:103FB0005719823009F477C1833009F4A8C18130E0
:103FC00009F48BC180915A198150843008F004C1E2
:103FD00080919D05882309F4EBC04091FB0E8091F0
:103FE0005619E12C10E000E020E060E08330A9F0F9
:103FF000853009F4D4C0823009F0C8C08DE791E063
:104000000E945C1EEE24E3940AEF10E021E0409150
:10401000FB0E61E08FE791E00EC084E690E00E9425
:104020005C1EEE24E39404E619E121E04091FB0ECE
:1040300061E083E690E00E945C1E81E0809386054B
:1040400080918505882309F4C4C080915619409158
:10405000FB0EE12C10E000E020E060E0833009F08E
:10406000AAC084E690E00E945C1EEE24E39404E67D
:1040700019E121E04091FB0E61E088E490E00E94AC
:104080005C1E81E08093840580915719853059F436
:10409000E12C04E610E021E04091FB0E60E083EAB1
:1040A00091E00E945C1E80915719863059F4E12CF2
:1040B00004E610E021E04091FB0E60E084EA91E02C
:1040C0000E945C1E81E080938E0687E00E94271686
:1040D0008091BB028823F9F08091BC029091BD02CF
:1040E0000297C9F468E070E080E090E00E94A87157
:1040F000695F7F4F8F4F9F4F28EE33E0629FA00193
:10410000639F500D729F500D112470E060E080EDB0
:104110009FE00E94041580E00E94E91680915719E3
:104120008230A1F0E0915A19E150FF0BEE0FFF1F12
:10413000EB58F04F4591549170E060E08FE290E1D0
:104140000E94041510922D1010922E1010924B10F8
:1041500010924C108FEF0E94A5171092141010921D
:10416000151042E350E060E070E082E090E10E94D0
:10417000041510928D0648E95AE360E070E08AED7C
:104180009FE01F910F91EF900C9404158BE990E044
:104190000E945C1EEE24E39403E111E037CF8FE42C
:1041A00091E00E945C1EEE24E39408EC10E02ECF18
:1041B0001092860545CF853049F48FE491E00E9446
:1041C0005C1EEE24E3940CE211E053CF85E090E016
:1041D000F6CF1092840558CF4091FB0E809156196E
:1041E000E12C10E000E020E060E0833009F43FC003
:1041F000853009F442C08230E9F587E891E00E94F9
:104200005C1E80919D05882309F445C081E0809360
:104210008605809156194091FB0EEE24E39482307E
:1042200079F504EA16E021E061E089E891E00E9476
:104230005C1E80918505882361F281E0809384056E
:10424000809156194091FB0EEE24E3940CEB12E0A2
:10425000833021F10CE211E0823001F504EA16E02E
:1042600021E061E089E891E00E945C1E0DCF81E6CB
:1042700090E0C5CF8BE990E0C2CF8FE491E0BFCF53
:104280000CE211E0833011F40CEB12E021E061E06C
:1042900082E690E0CCCF10928605CBCF21E061E0A2
:1042A00088E490E0E1CF85E390E00E94051EE12CD8
:1042B00010E000E020E04091FB0E60E083E390E03E
:1042C0000E945C1EEE24E39402E513E021E040919D
:1042D000FB0E61E084E390E0C7CF8BE390E00E94A7
:1042E000051EE12C10E000E020E04091FB0E60E0B4
:1042F00089E390E00E945C1EEE24E39408EE13E054
:1043000021E04091FB0E61E08AE390E0ADCF809127
:104310009207909193078D36910550F4E12C10E0AF
:1043200000E020E04091FB0E60E086E491E09CCF4D
:1043300086E491E00E94051E80915A198330E1F0D5
:1043400050F4813091F0823009F09ECE6091FB0EE6
:1043500085EF90E00EC08430A1F0853009F094CE56
:104360006091FB0E8DE790E004C06091FB0E83E14D
:1043700091E00E94548188CE6091FB0E87ED90E021
:10438000F8CF6091FB0E89EB90E0F3CFEF920F93A3
:104390001F9383E591E00E94051E82E390E00E9456
:1043A000051E88E591E00E94051EEE24E39410E0CE
:1043B00000E020E04091FB0E60E087E591E00E9484
:1043C0005C1E809157198230D1F420E04091FB0EA1
:1043D00060E083E591E00E945C1E81E080938C06A2
:1043E00040E050E0BA0189E390E10E9404150E9488
:1043F00095168FE01F910F91EF900C942716109255
:1044000014101092151042E350E060E070E082E07A
:1044100090E10E940415E1CFEF920F931F9340911A
:10442000FB0E80915719EE24E39410E000E020E0A9
:1044300060E0823031F583E591E00E945C1E81E00E
:1044400080939506809157198230B9F548EB5BE06F
:1044500060E070E089E390E10E94041580915619B4
:104460008250823040F48CE291E09093D2028093AB
:10447000D1020E943F1A81E11F910F91EF900C949D
:10448000271688E691E00E945C1E809156198450A0
:10449000823040F420E04091FB0E61E089E691E03B
:1044A0000E945C1EEE24E39410E000E020E04091C6
:1044B000FB0E60E085E591E0C0CF40EA5FE060E0A0
:1044C00070E089E390E10E94041510920A101092A6
:1044D0000B10109214101092151042E350E060E09F
:1044E00070E082E090E1B8CFEF920F931F9380913C
:1044F0008906882309F479C08091BA0F811106C01A
:1045000080915619843079F0853059F140915602E6
:104510005091570270E060E082EB9FE01F910F9195
:10452000EF900C94041580E190E00E94051E8091AC
:104530005719823071F44091FB0E4852EE24E394F7
:1045400010E000E020E061E080E190E00E945C1E6D
:10455000DDCFEE24E39410E000E020E04091FB0E7C
:10456000F2CF85E991E00E94051E809157198230B3
:1045700029F54091FB0E4852EE24E39410E000E050
:1045800020E061E085E991E00E945C1E0E94F41940
:10459000882309F4BBCF809194058823B9F08AEB76
:1045A00091E00E94051EEE24E39410E000E020E07C
:1045B0004091FB0E61E08AEB91E0C8CFEE24E394DA
:1045C00010E000E020E04091FB0EDBCF89EB91E0B2
:1045D0000E94051EEE24E39410E000E020E04091EC
:1045E000FB0E61E089EB91E0B1CF1F910F91EF904D
:1045F0000895EF920F931F9380915719823009F419
:1046000072C0833091F1813009F474C080915619E1
:1046100090915A199150943008F04FC0833069F04E
:10462000853009F447C0823009F041C08DE791E040
:104630000E94051E8FE791E006C084E690E00E948C
:10464000051E83E690E00E94051E8091BB02882330
:1046500021F089E090E00E94051E88E490E00E942D
:10466000051E82E690E00E94051E8091BC0290919A
:10467000BD02009709F445C0019709F466C0109285
:1046800086051092840580915719853021F483EABC
:1046900091E00E94051E80915719863009F071C083
:1046A00084EA91E01F910F91EF900C94051E80E633
:1046B00090E0BECF8FE491E0BBCF833059F08530DE
:1046C00079F0823051F487E891E00E94051E89E874
:1046D00091E0B9CF81E690E0B6CF8BE990E0B3CF1F
:1046E0008FE491E0B0CF83E390E00E94051E84E365
:1046F00090E0B9CF89E390E00E94051E8AE390E044
:10470000B2CF82E090E09093BD028093BC02809192
:10471000940790919507039741F48AE490E00E94F2
:10472000051E89E490E00E94051E8091F60F81111C
:10473000A6CFE12C10E000E020E04091FB0E60E00D
:1047400089E490E00E945C1E9ACF82E090E0909312
:10475000BD028093BC028EE690E00E94051E8FE6AB
:1047600090E00E94051E8091F60F811188CFE12C08
:1047700010E000E020E04091FB0E60E08FE690E06A
:10478000E1CF1F910F91EF9008950F931F93CF9357
:10479000DF9300D000D0CDB7DEB7122F242F462FE5
:1047A000682FCE0101960E94827DBE016C5F7F4F13
:1047B000CE0101960E9448156D817C81111102C0C5
:1047C0006C817D818E8126960FB6F894DEBF0FBE78
:1047D000CDBFDF91CF911F910F9108952F923F92FE
:1047E0004F925F926F927F928F929F92AF92BF9201
:1047F000CF92DF92EF92FF920F931F93CF93DF93AD
:1048000000D000D01F921F92CDB7DEB78091540226
:104810000E94970BF82E8091500215E0882331F00A
:104820006091571981E00E94EB09182F80E00E94E7
:10483000410B90913C19890F8D8381E00E94410BBF
:1048400090913C19890F8E8382E00E94410B509019
:104850003C19580E83E00E94410B90913C19982E10
:10486000990E809157192BEF280F223008F410C1B0
:10487000843009F40DC1E09051023D81232F30E0D6
:1048800038872F836E81A62EB12CE52DF0E0FC83B6
:10489000EB83292D30E03A832983E110FEC000E04C
:1048A00020E04F2D612F81E00E94C5231B01482E7F
:1048B00020E04F2D612F81E00E94C5233B01882E0F
:1048C00020E04F2D612F81E00E94C5236B01E82E6F
:1048D00020E04F2D612F81E00E94C523AB01682F9E
:1048E000EF81F885EE0FFF1F8F819885E80FF91F84
:1048F000E253FA4F208231824282F501EE0FFF1F10
:10490000EA0DFB1DE253FA4F608271828282EB81D5
:10491000FC81EE0FFF1F2B813C81E20FF31FE2535E
:10492000FA4FC082D182E282E981FA81EE0FFF1F45
:1049300089819A81E80FF91FE253FA4F408351832E
:1049400062838091520281118AC08F81988501967D
:10495000FC01EE0FFF1FE80FF91FE253FA4F208210
:1049600031824282A0913C19B0E0EF81F8858091BC
:1049700053198850AE17BF0714F48D81815090E011
:104980009C01220F331F820F931FFC01E253FA4F49
:1049900020823182428295012F5F3F4FC901880FEB
:1049A000991F820F931FFC01E253FA4F60827182BC
:1049B0008282809153198850AA15BB0514F48E8108
:1049C000815090E09C01220F331F820F931FFC0146
:1049D000E253FA4F6082718282828B819C810196C0
:1049E000FC01EE0FFF1FE80FF91FE253FA4FC082E0
:1049F000D182E2822B813C81809153198850A21789
:104A0000B30714F48FEF850D90E0FC01EE0FFF1F4C
:104A1000E80FF91FE253FA4FC082D182E282898106
:104A20009A810196FC01EE0FFF1FE80FF91FE25378
:104A3000FA4F40835183628389819A81A817B9070D
:104A40004CF180915319885090E0FC01EE0FFF1F4C
:104A5000E80FF91FE253FA4F40835183628328968F
:104A60000FB6F894DEBF0FBECDBFDF91CF911F917F
:104A70000F91FF90EF90DF90CF90BF90AF909F90FD
:104A80008F907F906F905F904F903F902F90089500
:104A900015E0F1CE8FEF890DD7CF892F90E0EF8110
:104AA000F885E81BF90BEC55FA4F20812223D1F051
:104AB000F501E81BF90BEC55FA4F2081222391F008
:104AC000EB81FC81E81BF90BEC55FA4F2081222386
:104AD00049F0E981FA81E81BF90BEC55FA4F808126
:104AE0008111F0C10E943F1A6091C9027091CA02FF
:104AF00090E080E00E945AC320E030E040EC5FE3A9
:104B00000E94BBC30E9450C69B01AC0180913C191E
:104B10006F817885681B710989E1D82ED69EC00106
:104B2000D79E900D112401E010E06F2D8F5C9E4EFA
:104B30000E949F766091C9027091CA0290E080E065
:104B40000E945AC320E030E040EC5FE30E94BBC308
:104B50000E9450C69B01AC0180913C19B501681BB5
:104B60007109D69EC001D79E900D11246F2D8F5CC8
:104B70009E4E0E949F766091C9027091CA0290E099
:104B800080E00E945AC320E030E040EC5FE30E94E6
:104B9000BBC30E9450C69B01AC0180913C196B8144
:104BA0007C81681B7109D69EC001D79E900D11248F
:104BB0006F2D8F5C9E4E0E949F766091C90270910E
:104BC000CA0290E080E00E945AC320E030E040EC4E
:104BD0005FE30E94BBC30E9450C69B01AC01809161
:104BE0003C1969817A81681B7109D69EC001D79EE4
:104BF000900D11246F2D8F5C9E4E0E949F768091A8
:104C0000520281112CCFEE2031F16091C9027091D6
:104C1000CA0290E080E00E945AC320E030E040ECFD
:104C20005FE30E94BBC30E9450C69B01AC01EF81B1
:104C3000F885319680913C19E81BF10969E16E9F76
:104C4000C0016F9F900D112401E010E06F2D8F5C6B
:104C50009E4E0E949F76F0913C19FF832D81F217A2
:104C600008F432C13091531938503D83EE2009F4D5
:104C700048C06091C9027091CA0290E080E00E9431
:104C80005AC320E030E040EC5FE30E94BBC30E94C7
:104C900050C69B01AC018D81EF818E1B990BBC012D
:104CA000F9E1F69FC001F79F900D112401E010E09B
:104CB0006F2D8F5C9E4E0E949F766091C90270910D
:104CC000CA0290E080E00E945AC320E030E040EC4D
:104CD0005FE30E94BBC30E9450C69B01AC016FEF13
:104CE000A61AB60A80913C19A81AB10879E17A9DF2
:104CF000C0017B9D900D11246F2D8F5C9E4E0E94F4
:104D00009F7680913C198F839E81891708F4E0C0BB
:104D1000E0915319E850ED83EE2009F44AC0609108
:104D2000C9027091CA0290E080E00E945AC320E05C
:104D300030E040EC5FE30E94BBC30E9450C69B0181
:104D4000AC018D81EF818E1B990BBC01F9E1F69FBF
:104D5000C001F79F900D112401E010E06F2D8F5CD2
:104D60009E4E0E949F766091C9027091CA0290E0A7
:104D700080E00E945AC320E030E040EC5FE30E94F4
:104D8000BBC30E9450C64B815C814F5F5F4F209137
:104D90003C19421B510929E1249FF001259FF00D88
:104DA00011249B01AC016F2DCF018F5C9E4E0E94A0
:104DB0009F7630913C193B83351508F48DC0509097
:104DC000531968EF560EEE2009F44AC06091C902EB
:104DD0007091CA0290E080E00E945AC320E030E067
:104DE00040EC5FE30E94BBC30E9450C69B01AC0134
:104DF000852DEB818E1B990BBC01F9E1F69FC0015B
:104E0000F79F900D112401E010E06F2D8F5C9E4EF6
:104E10000E949F766091C9027091CA0290E080E082
:104E20000E945AC320E030E040EC5FE30E94BBC325
:104E30000E9450C649815A814F5F5F4F20913C19B3
:104E4000421B510929E1249FF001259FF00D1124F7
:104E50009B01AC016F2DCF018F5C9E4E0E949F760F
:104E600030913C1939833915C8F19090531968EF86
:104E7000960EEE2009F4F3CD6091C9027091CA023A
:104E800090E080E00E945AC320E030E040EC5FE315
:104E90000E94BBC30E9450C6E92D2981E21BFF0B73
:104EA000AF0129E1249FF001259FF00D112401E0BD
:104EB00010E09B01AC016F2DCF018F5C9E4E0E94D4
:104EC0009F76CDCDE12C9BCE6D8161506D83CECE92
:104ED000FE81F150FD8320CF5A9475CF9A94C9CFAB
:104EE0004F925F926F927F92AF92BF92CF92DF927A
:104EF000EF92FF920F931F93CF93DF93C82F809170
:104F000054020E94970BF82E0E946F1AAC2EB12CFF
:104F100080915102811158C06501CC0CDD1CCA0C76
:104F2000DB1CC60182539A4F6C0100E020E04FEF7A
:104F300060E081E00E94C523F60160837183828373
:104F40008091520281112FC0FFEFAF1ABF0A750185
:104F5000EE0CFF1CEA0CFB1CC70182539A4F7C012C
:104F600020E04FEF60E081E00E94C523F7016083FD
:104F70007183828380913C198C1720F1C091531961
:104F8000C850D0E0CE01880F991FC80FD91FC25357
:104F9000DA4F00E020E04FEF60E081E00E94C5239F
:104FA000688379838A83DF91CF911F910F91FF905E
:104FB000EF90DF90CF90BF90AF907F906F905F9019
:104FC0004F900895C150DDCF80913C199501281B69
:104FD0003109F901EC55FA4F80818F113DC0D9E1BB
:104FE000D29FC001D39F900D11246F2D875E9A4EE2
:104FF0000E94D2766091C9027091CA0290E080E06E
:105000000E945AC320E030E040EC5FE30E94BBC343
:105010002B013C016091340270E090E080E00E943E
:105020005CC39B01AC01C301B2010E94DEC50E94BA
:1050300050C69B01AC0180913C19B501681B7109F8
:10504000D69FC001D79F900D112401E010E060E0D1
:10505000875E9A4E0E949F76809152028111A3CF63
:105060006501FFEFCF1ADF0A80913C199601281BDA
:105070003109F901EC55FA4F80818F113CC0D9E11B
:10508000D29FC001D39F900D11246F2D875E9A4E41
:105090000E94D2766091C9027091CA0290E080E0CD
:1050A0000E945AC320E030E040EC5FE30E94BBC3A3
:1050B0002B013C016091340270E090E080E00E949E
:1050C0005CC39B01AC01C301B2010E94DEC50E941A
:1050D00050C69B01AC0180913C19C81AD108DC9DD7
:1050E000C001DD9D900D112401E010E060E0875EBD
:1050F0009A4E0E949F7680913C1990E0C1508A158B
:105100009B051CF0C0915319C850D0E09E01281B8C
:10511000390BF901EC55FA4F80818F1144CF19E119
:10512000129FC001139F900D11246F2D875E9A4E20
:105130000E94D2766091C9027091CA0290E080E02C
:105140000E945AC320E030E040EC5FE30E94BBC302
:105150006B017C016091340270E090E080E00E947D
:105160005CC39B01AC01C701B6010E94DEC50E9471
:1051700050C69B01AC0180913C19C81BD1091C9FF2
:10518000C0011D9F900D112401E010E060E0875EDA
:105190009A4E0E949F7607CFCF92DF92EF920F93A5
:1051A000CF93DF93EC0185E0809331020E946F1A68
:1051B00081E399E10E94D414882309F4BAC0609174
:1051C000340270E0CE010E940EC5EB018091CE0248
:1051D000882309F4C9C081E099E10E940274882300
:1051E00009F4AEC01092CE02AE0170E060E081E33F
:1051F00099E10E940415D093D402C093D30286E2B1
:105200008093040280918E0681110CC080919506D6
:10521000811108C080919406811104C0809104021C
:105220000E94A517809157190E944717811181C0CC
:10523000D0912E02809103028111C6C0DD2321F09E
:1052400080913B190E947027809116048F5F8430F3
:1052500008F0BDC080931604809116040E94410B93
:10526000C0913C19C80FC0933B19DD2309F461C0FC
:10527000809154020E94970BD82F8091500288236E
:1052800009F4A8C06091571981E00E94EB09909140
:10529000E7029C3009F480E200E020E04D2F682F07
:1052A00081E00E94C5236B01E82E4C2F50E0FA01EB
:1052B000EE0FFF1FE40FF51FE253FA4FC082D182B9
:1052C000E28220913C1930E0FA01E21BF30BEC552D
:1052D000FA4FD0838091520281112BC0CA010196EE
:1052E000FC01EE0FFF1FE80FF91FE253FA4FC082D7
:1052F000D182E282821B930BFC01EC55FA4FD083E2
:10530000C150241735071CF0C0915319C8508C2F79
:1053100090E0FC01EE0FFF1FE80FF91FE253FA4F78
:10532000C082D182E282821B930BFC01EC55FA4FC2
:10533000D083DF91CF910F91EF90DF90CF900895C0
:1053400081E099E10E946C74AC0170E060E081E35F
:1053500099E10E94041581E099E10E946C74909398
:10536000D4028093D3024BCF80919606882321F1FB
:1053700081E099E10E940274882319F01092960648
:1053800041CF81E099E10E946C74AC0170E060E073
:1053900081E399E10E94041581E099E10E946C7417
:1053A0009093D4028093D3028091040281508E3175
:1053B00008F026CF8EE124CFAB0170E060E081E3FE
:1053C00099E10E9404151ECF109203023DCF109266
:1053D000160442CF85E05BCFDF92EF92FF920F93EE
:1053E0001F93CF93DF938091500215E0882331F013
:1053F0006091571981E00E94EB09182F8091E70214
:105400008C3009F410E28091561982508230B0F14C
:10541000D0E0C0E08C2F0E945D17882319F1FE01B7
:10542000EC55FA4FD0808C2F0E945D1790913C195B
:10543000292F280F3327331FC90101977C01EE0C58
:10544000FF1C8E0D9F1DFC01E253FA4F7F0100E00F
:1054500020E04D2D612F81E00E94C523F70160837C
:10546000718382832196C832D105A1F6DF91CF9155
:105470001F910F91FF90EF90DF900895F12C809194
:10548000E702F81698F78F2D90E0C0913C19C80FED
:10549000D92FD11D9E01220F331FC20FD31FC2531C
:1054A000DA4F8C559A4F00E020E0FC014081612FDB
:1054B00081E00E94C523688379838A83F394DFCFD8
:1054C000EF92FF920F931F93CF93DF93C82F80919A
:1054D00048020E94970B182F80918F05D4E18823F2
:1054E00031F06091571980E00E94EB09D82F80912C
:1054F0008A06082E000C990BEC2FF0E08E179F0700
:105500008CF12091E80228171906F9F0F4F0809147
:10551000CB028823F9F02D30D1F4E25AF04FE49118
:10552000F0E07F01EE0CFF1CEE0DFF1DCF0182535A
:105530009A4F7C0100E020E0412F6D2F80E00E9417
:10554000C523F701608371838283CF5FD0CFE15B96
:10555000F04FE5CF2D3019F4EE5BF04FE0CFED5C6E
:10556000F04FDDCFDF91CF911F910F91FF90EF9022
:105570000895EF92FF920F931F93CF93DF93809143
:105580002E0281115BC180915002D5E0882331F059
:105590006091571984E00E94EB09D82F80914E0248
:1055A0000E94970BC82F1091ED03809194068823D9
:1055B00009F4B1C0112309F474C0A59A739A8091BB
:1055C00002018860809302018091020180618093D2
:1055D00002018091020180628093020180910201A8
:1055E00080648093020180914C0290914D0200975B
:1055F00009F424C1D0E00197A1F500E020E04C2F90
:1056000065E084E00E94C523609372047093730484
:105610008093740420E04C2F65E084E00E94C52351
:1056200060937504709376048093770420E04C2F88
:105630006BE084E00E94C523609378047093790442
:1056400080937A0420E04C2F6BE084E00E94C52315
:1056500060937B0470937C0480937D0420E04C2F46
:10566000C9C08D2F90E02091E5022150330B8217A5
:1056700093070CF0E3C07C01EE0CFF1CE80EF91E52
:10568000C7018E589B4F7C0100E020E04C2F65E065
:1056900084E00E94C523F701608371838283DF5F0A
:1056A000E0CFA598739880910201877F80930201D3
:1056B000809102018F7E80930201809102018F7D93
:1056C00080930201809102018F7B8093020180917F
:1056D0004C0290914D02892B09F4B0C0812F90E0CB
:1056E0002091E5022150330B821793070CF0A6C0DE
:1056F000EC01CC0FDD1FC80FD91FCE58DB4F00E0E7
:1057000020E04FEF60E084E00E94C5236883798346
:105710008A831F5FE3CF183008F090C0E12FF0E0DC
:105720008827EA56F44D8F4F0C9436C59E2BD92B03
:10573000252C6B2CB22CF32C212D4F2DA598739872
:1057400080910201877F80930201809102018F7E08
:1057500080930201809102018F7D809302018091EC
:1057600002018F7B8093020180914C0290914D0247
:10577000892B09F463C010E0812F90E02091E502AD
:105780002150330B821793070CF058C0EC01CC0F5B
:10579000DD1FC80FD91FCE58DB4F00E020E04FEFD0
:1057A00060E084E00E94C523688379838A831F5F59
:1057B000E3CFA598739880910201877F80930201BF
:1057C000809102018F7E80930201809102018062AC
:1057D0008093020180910201806480930201809194
:1057E0004C0290914D02009749F100E020E04C2FCF
:1057F000019771F46FE084E00E94C52360937E04FA
:1058000070937F048093800420E04C2F6FE00DC0E4
:105810006D2F84E00E94C52360937E0470937F0403
:105820008093800420E04C2F6D2F84E00E94C523DC
:10583000609381047093820480938304DF91CF91FD
:105840001F910F91FF90EF900895A5987398809104
:10585000020188608093020180910201806180933F
:105860000201809102018062809302018091020115
:1058700080648093020180914C0290914D020097C8
:10588000E9F200E020E04C2F0197B9F46BE084E0EE
:105890000E94C523609378047093790480937A04FE
:1058A00020E04C2F6BE084E00E94C52360937B04D2
:1058B00070937C0480937D04C1CF6D2F84E00E949F
:1058C000C523609378047093790480937A0420E070
:1058D0004C2F6D2FE8CFA59A739A809102018860B2
:1058E0008093020180910201806180930201809186
:1058F00002018062809302018091020180648093A2
:10590000020180914C0290914D02009709F496CFCC
:1059100000E020E04C2F0197B9F465E084E00E949C
:10592000C52360937204709373048093740420E021
:105930004C2F65E084E00E94C5236093750470934A
:105940007604809377047ACF6D2F84E00E94C5237C
:1059500060937204709373048093740420E04C2F5E
:105960006D2FE8CFA59A739A809102018860809389
:105970000201809102018061809302018091020105
:105980008062809302018091020180648093020111
:1059900080914C0290914D02009709F44FCF10E096
:1059A000019709F42ACE812F90E02091E502215041
:1059B000330B821793070CF041CF7C01EE0CFF1CD8
:1059C000E80EF91EC7018E589B4F7C0100E020E0D5
:1059D0004C2F6D2F84E00E94C523F70160837183F3
:1059E00082831F5FE0CFA59A739A8091020188603D
:1059F0008093020180910201806180930201809175
:105A000002018F7D80930201809102018F7B809340
:105A1000020180914C0290914D02892B09F40ECF26
:105A200000E020E04FEF60E084E00E94C523609337
:105A30007E0470937F048093800420E04FEF60E049
:105A4000F4CEA59A739A80910201877F8093020118
:105A5000809102018F7E80930201809102018F7DEF
:105A600080930201809102018F7B809302018091DB
:105A70004C0290914D02892B09F4E0CE00E020E029
:105A80004FEF60E084E00E94C52360937804709338
:105A9000790480937A0420E04FEF60E004CFA5986A
:105AA000739880910201877F8093020180910201A7
:105AB0008F7E80930201809102018F7D809302018D
:105AC000809102018F7B8093020180914C02909122
:105AD0004D02892B09F4B2CE00E020E04FEF60E0E8
