:100000000C9456080C9487080C9487080C94870865
:100010000C9487080C9487080C9487080C94870824
:100020000C9487080C9487080C9487080C94870814
:100030000C9487080C9487080C9487080C94870804
:100040000C9487080C9487080C9487080C948708F4
:100050000C9487080C9487080C9487080C941191D1
:100060000C9487080C94864F0C945C4F0C94870872
:100070000C9487080C9487080C9487080C948708C4
:100080000C9487080C9487080C9487080C948708B4
:100090000C94324F0C94084F0C9487080C949F11C9
:1000A0000C9487080C9487080C9487080C94870894
:1000B0000C9487080C9487080C9487080C94870884
:1000C0000C9487080C9487080C9487080C94DE4ED7
:1000D0000C94B44E0C9487080C948A4E0C94604E89
:1000E0000C94870805A84CCDB2D44EB93836A90275
:1000F0000C50B9918688083CA6AAAA2ABE00000026
:10010000803F07634236B79BD8A71A39685618AEA6
:10011000BAAB558C1D3CB7CC5763BD6DEDFD753E3C
:10012000F6177231BF000000803F08000000BE9249
:100130002449123EABAAAA2ABECDCCCC4C3E00002C
:100140000080BEABAAAAAA3E00000000BF000000CB
:10015000803F0000000000084178D3BB4387D113E3
:100160003D190E3CC3BD4282AD2B3E68EC8276BE8B
:10017000D98FE1A93E4C80EFFFBE01C4FF7F3F0055
:10018000000000000C94169D0C9400B10C94D380D8
:100190000C9458AC0C94F3B60C944B830C94700AEA
:1001A0000C9401A20C948D890C941CB30C9419A48A
:1001B0000C9486830C94A99A0C9465460C945C1458
:1001C0000C94D5A90C94B94A0C943FA40C944B56AA
:1001D0000C9444140C94FCA10C9476B00C94E10B98
:1001E0000C94C69F0C942E820C94F7A10C948C4610
:1001F0000C94F3A30C94E9A20C9441830C940A0A86
:100200000C9440A20C94FBB70C9476830C944B4A4C
:100210000C9494700C941AA90C94ADAA0C94F76EDB
:100220000C94B1080C9483810C944D830C94AEAD66
:100230000C9439830C94B6460C94A0A80C94B8572F
:100240000C9400810C94DA8C0C94CAB30C94A28C9C
:100250000C94E6B10C942F830C9479810C946A4A27
:100260000C946C9E0C945D4A0C94C6A20C94D0B76E
:100270000C9495A20C94E3990C94369E0C947CB348
:100280000C9496B30C94E1AA0C9457AB0C948A9DF1
:100290000C9406B40C94AC8C0C9479830C9431B708
:1002A0000C94AA4A0C9446830C9473810C94B6A9BE
:1002B0000C944E820C94D7800C945FB60C94D1B6FB
:1002C0000C94E4800C9493AA0C94BB9A0C94FC803C
:1002D0000C94F5A90C94EE490C94A6460C94C30911
:1002E0000C94684D0C9406A70C94E74C0C941E5685
:1002F0000C9437820C94E2A80C94E9490C94C68CB7
:100300000C94B3080C94F38C0C940D9B0C94A99F43
:100310000C94F9810C940D990C94E8A10C94E09C38
:100320000C940BA20C94884B0C9442140C94979A46
:100330000C94869D0C94566E0C94B4AE0C947E83F3
:100340000C948EB70C9499460C9412B70C9432B35B
:100350000C94939B0C94BBAB0C94C2B20C94E09D98
:100360000C941B8D0C9487470C94390E0C940681C9
:100370000C941D8A0C943A990C94F8800C9436567F
:100380000C943C700C9452830C9411B60C94EEAE09
:100390000C94B69F0C944DA00C941AB80C94A19B8D
:1003A0000C94BE4B0C94374A0C94954A0C94014B18
:1003B0000C9492A80C9454830C94C79A0C947C9936
:1003C0000C9479560C94E0AD0C94CA810C94019E67
:1003D0000C942F140C94749F0C94F2B70C948CB161
:1003E0000C94FE890C9456830C94CA910C945B482F
:1003F0000C94E0B20C94EE800C94C2080C9432A1E0
:100400000C94439E0C942A9C0C9489B20C943CA1AD
:100410000C9428B40C942EA10C94C4A80C943CAB5E
:100420000C94FFB50C94B3460C94D39D0C94489354
:100430000C9440820C9437830C94489E0C94B36FB8
:100440000C940E480C9435830C9474990C94D1B58B
:100450000C948F9A0C9496560C94A4B00C94898C9E
:100460000C9408A80C94B2570C94378A0C943383DC
:100470000C9466B50C94A8810C94D2AF0C947E4A6F
:100480000C94939A0C94B4AF0C9487AB0C94118D8C
:100490000C941EB50C94C6A30C94F2A10C945FB1FD
:1004A0000C943F830C9440140C94B29D0C9439B876
:1004B0000C9450B20C94FEB20C945F4A0C946F9B57
:1004C0000C94C19A0C94B9B10C94B3810C94188219
:1004D0000C94CDA30C9404A90C9441470C94054AA8
:1004E0000C94D5B50C94B8470C9489B60C94828CB6
:1004F0000C9467810C942AA10C945B4C0C94DA89BF
:100500000C9489810C941AA20C94E69A0C94D2B0A3
:100510000C94080A0C94144A0C949CA80C949647CA
:100520000C9484830C9467AA0C94609C0C9430A95E
:100530000C94FB9A0C94CB800C945A140C940D8A56
:100540000C9438090C946CB40C94264A0C94E080FA
:100550000C94C7890C94B48C0C94B0080C94916ED4
:100560000C94078D0C94F19F0C949C9F0C94AA47BB
:100570000C94479B0C9414820C94D1990C9462B304
:100580000C949D810C948E8C0C946D810C9498A786
:100590000C94BE810C947C830C944AB40C9455A2A8
:1005A0000C946FAB0C94060A0C94EA800C94F280C5
:1005B0000C9449830C9448B00C944A4B0C94A9AB0E
:1005C0000C947EB60C94E4980C94DC080C94C7AAA6
:1005D0000C94689E0C9431830C9443830C945D9B23
:1005E0000C9434A90C94F9AD0C94706F0C94A09CED
:1005F0000C94A0480C94EDA10C94FD8C0C9410A2CA
:100600000C9406A20C943D830C9495AD0C94D6B436
:100610000C94C99F0C94EB4B0C941AB00C9438A911
:100620000C9432B10C941C820C943C4A0C94849926
:100630000C94E98C0C94CF800C945FAF0C946FB742
:100640000C94C39F0C94504A0C944E9D0C94FC81C6
:100650000C942FA30C94954C0C9442560C9453A1DB
:100660000C9444A90C94A4A80C942A4B0C940A81D1
:100670000C94C7AD0C94B2080C9463A00C94D508EC
:100680000C94BC570C94B0B30C94FEAC0C94ADA677
:100690000C94E0560C943B140C94988C0C9415A27A
:1006A0000C94D6810C9496AF0C944F830C940E93BB
:1006B0000C94D99A0C9445C60C94D99B0C948EB486
:1006C0000C9405810C948FA30C946CA10C9452A3F0
:1006D0000C94C5800C9447820C94764C0C941F9B10
:1006E0000C94494A0C9497AB0C94DA800C94030A4E
:1006F0000C948D990C942C830C94819B0C94DEA00B
:100700000C945BA70C94E4B30C9450990C94F44CA7
:100710000C9488A80C94CDB50C94B1B70C94B55733
:100720000C9409090C94359B0C9448B30C94D08C10
:100730000C94179E0C9481830C9408A30C943C8A0F
:100740000C9450B70C94BC8C0C94354A417474656D
:100750006E7561746F722053796E6320456E64000C
:10076000417474656E7561746F722053796E632085
:100770005374617274207C20436F6E6E2E2053740C
:100780006174653A20005468656D65206368616E28
:1007900067656420746F2046726F7A656E20456DC0
:1007A0007069726520283230323429005468656DD2
:1007B00065206368616E67656420746F20416674AC
:1007C00065726C69666520283230323129005468C0
:1007D000656D65206368616E67656420746F20478E
:1007E000423220283139383929005468656D652036
:1007F0006368616E67656420746F2047423120280A
:10080000313938342900417474656E7561746F72C2
:100810002053796E6368726F6E697A6564207C20FC
:10082000436F6E6E2E2053746174653A20004174DC
:1008300074656E7561746F722070726F746F636F20
:100840006C206D69736D6174636821207C20526532
:100850006365697665643A2000207C204578706580
:10086000637465643A2000417474656E7561746FD9
:10087000722070726F746F636F6C206D69736D613D
:1008800074636821207C2052656365697665643AEB
:100890002000207C2045787065637465643A2000F0
:1008A00047657474696E67205061636B2050726590
:1008B000666572656E6365730047657474696E671B
:1008C00020536D6F6B6520507265666572656E634F
:1008D000657300436F6D706C65746564207570643A
:1008E000617465206F66207061636B20736574743A
:1008F000696E67730052756E6E696E6720757064FD
:100900006174652066756E6374696F6E732E2E2E2A
:10091000005570646174696E6720706F776572202E
:1009200063656C6C207661726961626C65732E2EF2
:100930002E005570646174696E6720696E6E657211
:10094000206379636C6F74726F6E20766172696177
:10095000626C65732E2E2E005570646174696E672B
:10096000206F75746572206379636C6F74726F6E3B
:10097000207661726961626C65732E2E2E0055704F
:10098000646174696E672067656E6572616C20765C
:1009900061726961626C65732E2E2E0053617669F7
:1009A0006E67205061636B20507265666572656E7C
:1009B0006365730057616E642053796E6320456EE2
:1009C000640057616E642053796E632053746172C2
:1009D00074004E6F20417564696F204465766963C9
:1009E00065005761726E696E673A205253505F53CB
:1009F000595354454D5F494E464F206E6F742072D7
:100A00006563656976656421005573696E67205773
:100A100041562054726967676572005573696E6745
:100A20002047505374617220417564696F20566588
:100A30007273696F6E3A2000C4D5DFE5E9ECEFF11F
:100A4000F3F4F6F7F8F9FAFBFCFDFEFF00436F6ED6
:100A500066696775726520506F776572204D6574A1
:100A6000657200556E61626C6520746F2066696EF8
:100A70006420706F776572206D6F6E69746F726934
:100A80006E6720646576696365206F6E20693263E6
:100A90002E20506F776572206D65746572206665D3
:100AA0006174757265732077696C6C20626520646F
:100AB000697361626C65642E00506F776572204DBA
:100AC0006574657220526573756C743A2000496EC6
:100AD000697420706F776572206D657465722E2E53
:100AE0002E004552524F523A204E6F2063616C6C7B
:100AF0006261636B20617661696C61626C6520661E
:100B00006F72207061636B6574204944200000009F
:100B100000006410B71DC8206E3BAC30D926904150
:100B2000DC76F4516B6B5861B24D3C7105502083FB
:100B3000B8ED44930FF0E8A3D6D68CB361CBB0C226
:100B4000649BD4D2D38678E20AA01CF2BDBD576163
:100B50006E642053796E6368726F6E697A656400A3
:100B600057616E642070726F746F636F6C206D6973
:100B7000736D61746368210057616E642070726FD9
:100B8000746F636F6C206D69736D617463682100AD
:100B9000526563762E2057616E6420536D6F6B65CE
:100BA00020507265667300526563762E2057616E21
:100BB0006420436F6E6669672050726566730052E9
:100BC0006563762E2057616E6420446174613A201B
:100BD00000526563762E2057616E6420436F6D6D01
:100BE000616E643A2000207C20436F6E6E2E20538D
:100BF000746174653A200057616E642053796E63A6
:100C0000696E67207C20436F6E6E2E205374617472
:100C1000653A200057616E6420446973636F6E6E9D
:100C20006563746564207C20436F6E6E2E20537460
:100C30006174653A2000417474656E7561746F72F9
:100C40002053796E63696E67207C20436F6E6E2E31
:100C50002053746174653A2000417474656E756147
:100C6000746F7220446973636F6E6E65637465643C
:100C7000207C20436F6E6E2E2053746174653A2081
:100C800000536176696E6720536D6F6B65205072FB
:100C900065666572656E63657300536176696E673C
:100CA0002057616E6420507265666572656E63657B
:100CB0007300526563762E20536D6F6B6520436F12
:100CC0006E66696700526563762E2057616E6420F8
:100CD000436F6E66696700526563762E20506163CC
:100CE0006B20436F6E66696700526563762E204104
:100CF0007474656E7561746F72204D65737361678E
:100D0000653A2000526563762E204174742E20438C
:100D10006F6D6D616E643A2000207C20436F6E6EB3
:100D20002E2053746174653A20000001020304050B
:100D3000060708090A0B0C0D0E0001020304050644
:100D40000708090A0B0C0E0D0C0B0A09080706050B
:100D500004030201000C0B0A09080706050403023C
:100D60000100B80BB80BAC0DAC0DA00F3075983A64
:100D700010274C1D70173D00640165016601670175
:100D8000C4DFE9EFF3F6F9FBFDFE00010203040501
:100D9000060708090A32002D280023001E0000194A
:100DA0000000140000000F00000000000A00000016
:100DB00000000000000005645F5A55504B46413C5E
:100DC0003732002D280023001E00001900001400F7
:100DD00000000F00000000000A00000000000000FA
:100DE00000000532373C41464B50555A5F6457610D
:100DF000726E696E673A2043616C63756C617465ED
:100E000064206D7573696320636F756E74206578F7
:100E10006365656473206D6178696D756D20706FB1
:100E2000737369626C653B20534420636172642074
:100E3000636F7272757074696F6E206C696B656C2C
:100E40007921005761726E696E673A20547261634E
:100E50006B20636F756E7420646F6573206E6F74A2
:100E6000206D61746368206669726D7761726521B7
:100E700020506C65617365207570646174652074C1
:100E80006865206D6963726F5344206361726420EA
:100E9000736F756E6420656666656374732E0001FA
:100EA00002030405060708090A0B0C0D0E0F1011AA
:100EB00012131415161718191A1B1C1D1E1F20219A
:100EC00022232425262728010203040506070809F2
:100ED000000A0B0C0D0E0F1011120013141516172B
:100EE00018191A1B001C1D1E1F202122232400017B
:100EF000020304050000000000060708090A0000BC
:100F00000000000B0C0D0E0F00000000001011126D
:100F100013140000000000010203000000000000A4
:100F2000000405060000000000000007080900009A
:100F300000000000000A0B0C00000000000000018F
:100F4000000000000000000000020000000000009F
:100F5000000000030000000000000000000400008A
:100F600000000000000000001C120A041F160D0201
:100F7000110C07010A0704000A121C040D161F02B7
:100F8000070C110104070A00002100240027002A91
:100F9000002D003000330001010000040107010AA8
:100FA0000100002200250028002B002E0031003413
:100FB0000002010000050108010B010000200023D0
:100FC00000260029002C002F003200000100000341
:100FD00001060109010505050507050808080802BD
:100FE0000202020A0A0808040404040101010101C2
:100FF0000101010303030303030303040707070CB1
:101000000C0C0C0C0C0C0C02020202060606060666
:101010000606060B0B0B0B0B0B0B0B010210202013
:10102000080810204010204080020102010804023C
:1010300001010204081020408080402010080402B2
:10104000018004020180402010080402010804020B
:101050000101020408102040800102040810204011
:101060008000000A0B02090C0D0E080703040100A2
:101070000000000000000000000000000000000070
:10108000000000000000000000000000001211102D
:101090000000000000000000000000000000000050
:1010A000000000000000000045C6CA9111241FBEC8
:1010B000CFEFD1E2DEBFCDBF00E00CBF13E0A0E078
:1010C000B2E0E6EEF7EA01E00BBF02C007900D9236
:1010D000AA35B107D9F729E1AAE5B3E001C01D920D
:1010E000A03CB207E1F718E0C5E5D8E000E006C093
:1010F00021970109802FFE010E944BCEC435D107F4
:1011000080E00807A9F70E94CE910C94E1D30C94DB
:1011100000002091D104260F3327331F21323105DF
:10112000ECF42091E906FC0190E080E0243069F0C5
:1011300082E00895A091D1042191AC0141555B4F0B
:10114000A40FB52FB11D2C930196861798F38091AB
:10115000D104680F6093D10480E0089581E0089580
:10116000089508950895E091A2068091A106E817D8
:1011700030F4F0E0ED55F94F808190E008958FEF65
:101180009FEF08959091A2068091A1062FEF3FEF67
:10119000981748F4E92FF0E0ED55F94F208130E041
:1011A0009F5F9093A206C90108958091A106909136
:1011B000A206891B990B0895CF92DF92EF92FF92BE
:1011C0000F931F93CF93DF937C01CB018A01209172
:1011D0001107222389F0EB016B01C40ED51ECC153B
:1011E000DD0569F06991D701ED91FC910190F081E5
:1011F000E02DC7011995F3CF642F0E948908C8011B
:10120000DF91CF911F910F91FF90EF90DF90CF90E2
:101210000895CF93DF931F92CDB7DEB769832091F6
:1012200011072223F9F020910F07203258F021E016
:1012300030E0FC013383228390E080E00F90DF9167
:10124000CF91089580911007E82FF0E0E151F94F18
:10125000998190838F5F8093100780930F0781E0BF
:1012600090E0ECCF61E0CE0101960E948908F7CFB3
:1012700090E080E00895AF92BF92CF92DF92EF921C
:10128000FF920F931F93CF93DF9300D0CDB7DEB7BC
:101290005A0119821A821B82882361F18B01E1E0D5
:1012A000F0E0E82EF12CD8012D918D012223F1F0F0
:1012B0006F01B1E0CB1AD108D501AC0DBD1D4C9129
:1012C0004423A1F030E02F5F3F4FD7010E94F8CDBB
:1012D000A42FB0E011969B01AC010E94C3CDA1E008
:1012E000B0E0AC0FBD1FAC0DBD1D8C933196E4304A
:1012F000F105C9F669817A818B810F900F900F906B
:10130000DF91CF911F910F91FF90EF90DF90CF90E1
:10131000BF90AF900895FC018DE892E091838083A7
:10132000138212828FEF86838783808781878287EB
:10133000838781E0848785871786168680E797E113
:10134000918B808B83E090E0938B828B158A148A3B
:10135000158214828091220790912307892B21F412
:10136000F0932307E0932207A091AC04B091AD0461
:10137000109721F01596FC93EE931497F093AD041B
:10138000E093AC04089581E090E008950F931F93DB
:10139000CF93DF932091AB042F5F322F37703093C0
:1013A000AB0420FF2BC020E831FD2064347009F02D
:1013B0002062205FFC01EC01239600E011E06785CC
:1013C000662329F070E0C8010E9437CE6F5F618705
:1013D000822F869F080E80E0811D1124811110C08C
:1013E0001682662311F0615061873196EC17FD0774
:1013F00031F7DF91CF911F910F91089520E0D4CF65
:1014000081508683EECF80E991E00895209A089577
:10141000279A08956F927F928F92CF92DF92EF92E8
:10142000FF920F931F93CF93DF93CDB7DEB76297F1
:101430000FB6F894DEBF0FBECDBF8C016B017A01F1
:10144000822FA801475F5F4FB8016A5F7F4F0E94FC
:101450003B093B01882ED8011C962C91C701F7FE51
:1014600004C0882799278E199F09DA82C9829C8334
:101470008B839E838D83688A798A8A8A213049F595
:10148000CE0101960E94C60983E08D871F861E86C5
:10149000F7FE02C08DEF8D87D801ED91FC91008899
:1014A000F189E02DBE016F5F7F4FC80119956296EB
:1014B0000FB6F894DEBF0FBECDBFDF91CF911F9165
:1014C0000F91FF90EF90DF90CF908F907F906F9073
:1014D00008951C861B861A86198618861F82D4CF0B
:1014E000CF92DF92EF92FF920F931F93CF93DF93F0
:1014F000CDB7DEB762970FB6F894DEBF0FBECDBF93
:101500008C016B017A01822FA801475F5F4FB80100
:101510006A5F7F4F0E943B099B01482FD8011C96B0
:101520008C91DA82C982FC82EB82FE82ED82288B6A
:10153000398B4A8B813009F5CE0101960E94C6098C
:101540001D861F861E86D801ED91FC910088F189C9
:10155000E02DBE016F5F7F4FC801199562960FB6EF
:10156000F894DEBF0FBECDBFDF91CF911F910F91D9
:10157000FF90EF90DF90CF9008951C861B861A860F
:10158000198618861F82DCCF0F931F93CF93DF93AA
:10159000EC018C01055E1D4FD8018D919C91DC0101
:1015A000ED91FC910084F185E02D1995892B59F07E
:1015B000F80180819181DC01ED91FC910284F38539
:1015C000E02D1995E9CFCE010E947055FE01E65E2F
:1015D000FD4FCD5FDD4F88818083DF91CF911F91DB
:1015E0000F910895BF92CF92DF92EF92FF920F93E7
:1015F0001F93CF93DF931F92CDB7DEB78C016B01A2
:10160000B42EDB018D919C91F801E15FFD4F7F01CC
:101610008F3F910508F475C08FEF80836801F80152
:1016200080E091919E3709F067C0D7018C934DE916
:1016300052E0B801C8010E9488554091F3095091C9
:10164000F409980122503F4F80E0D601ED916D01E1
:10165000E827E40FF52FF11D80812A173B07A9F732
:10166000F801E350FE4FB082F7019081F801E2509B
:10167000FE4F90839EEF31969083319680838EEF5C
:10168000F82E6801B5EECB1ABDEFDB0AF6018081BA
:101690009181B80164507E4FDC01ED91FC91028094
:1016A000F381E02D44E050E01995F60180819181AD
:1016B0004F2D50E0DC01ED91FC910280F381E02D93
:1016C000B8011995F60180819181B8017E5FDC0136
:1016D000ED91FC910280F381E02D42E050E01995FC
:1016E0008F2D0F90DF91CF911F910F91FF90EF9071
:1016F000DF90CF90BF9008958F5F8E3F09F091CF1C
:1017000096CF982F8FEF8083F80180E0891728F417
:1017100021912E3719F5F7018083D6018C918983A9
:10172000AE014F5F5F4FB801C8010E948855F601B6
:10173000208131814091F3095091F409D80180E072
:101740003327BD01601B710B6217730748F4ED91DD
:10175000E827E40FF52FF11D8081F3CF8F5FD6CFFF
:10176000F801E350FE4FB082D7019C9131969083EF
:10177000F6019081F801E150FE4F9083319680830D
:10178000D601FC907ECF1092E90681E08093E806B6
:101790001092C30661E084E10E94E48B61E085E180
:1017A0000E94E48BE9EBF0E080818E7F8083808172
:1017B0008D7F808388E48093B80085E48093BC00AB
:1017C00008954F925F927F928F929F92AF92BF92B5
:1017D000CF92DF92EF92FF920F931F93CF93DF93FD
:1017E0002C01EB010E94208DF20126893789621BB2
:1017F000730B6A307105B0F3F8948A819B811816D7
:1018000019060CF0CBC1E881F98105B1006875B10A
:101810007F7775B9BA848F812B2D281B822F2F8358
:101820004C85042E000C550BAA81BB81E888DF840F
:10183000C988E394D394C3949E81388599848B841A
:10184000118120E0F32E622F322F318111278894ED
:101850003111380F08F43FEF81958894E0FC130FA5
:1018600017958894E1FC130F17958894E2FC130FE9
:1018700017958894E3FC130F17958894E4FC130FD5
:1018800017958894E5FC130F17958894E6FC130FC1
:1018900017958894E7FC130F17958894232FE11070
:1018A000212F8B0D122F002C05B900C017FF75B921
:1018B00030812227889400C000C0002C75B93111F6
:1018C000390F00C0002C05B900C016FF75B908F427
:1018D0003FEF9195889400C000C0002C75B9D0FCF2
:1018E000230F00C0002C05B900C015FF75B927955E
:1018F0008894D1FC230F00C000C0002C75B9279537
:10190000889400C0002C05B900C014FF75B9D2FC42
:10191000230F2795889400C000C0002C75B9D3FC14
:10192000230F00C0002C05B900C013FF75B927951F
:101930008894D4FC230F00C000C0002C75B92795F3
:10194000889400C0002C05B900C012FF75B9D5FC01
:10195000230F2795889400C000C0002C75B9D6FCD1
:10196000230F00C0002C05B900C011FF75B92795E1
:101970008894D7FC230F00C000C0002C75B92795B0
:10198000889400C0002C05B900C010FF75B9132F52
:10199000D110122F990D00C000C0002C75B900C0E5
:1019A00000C0002C05B900C017FF75B9328122278D
:1019B000889400C000C0002C75B931113F0D00C0E3
:1019C000002C05B900C016FF75B908F43FEFE40F0D
:1019D000F51F00C000C0002C75B9C0FC230F00C06B
:1019E000002C05B900C015FF75B927958894C1FC76
:1019F000230F00C000C0002C75B92795889400C043
:101A0000002C05B900C014FF75B9C2FC230F27953F
:101A1000889400C000C0002C75B9C3FC230F00C01F
:101A2000002C05B900C013FF75B927958894C4FC34
:101A3000230F00C000C0002C75B92795889400C002
:101A4000002C05B900C012FF75B9C5FC230F2795FE
:101A5000889400C000C0002C75B9C6FC230F00C0DC
:101A6000002C05B900C011FF75B927958894C7FCF3
:101A7000230F00C000C0002C75B92795889400C0C2
:101A8000002C05B900C010FF75B9132FC110122F1B
:101A9000F19400C000C0002C75B9F80C00C000C063
:101AA00005B900C017FF75B931812227889400C09D
:101AB00000C0002C75B93111380F00C0002C05B9D9
:101AC00000C016FF75B908F43FEF8195889400C0F7
:101AD00000C0002C75B9E0FC230F00C0002C05B934
:101AE00000C015FF75B927958894E1FC230F00C04D
:101AF00000C0002C75B92795889400C0002C05B94A
:101B000000C014FF75B9E2FC230F2795889400C02C
:101B100000C0002C75B9E3FC230F00C0002C05B9F0
:101B200000C013FF75B927958894E4FC230F00C00B
:101B300000C0002C75B92795889400C0002C05B909
:101B400000C012FF75B9E5FC230F2795889400C0EB
:101B500000C0002C75B9E6FC230F00C0002C05B9AD
:101B600000C011FF75B927958894E7FC230F00C0CA
:101B700000C0002C75B92795889400C0002C05B9C9
:101B800000C010FF75B9132FE110122F8B0D00C08C
:101B900000C0002C75B9119709F086CEEA81FB814F
:101BA0002EE130E0DF010E9453CE30E020E0A901B9
:101BB000AAE9EA9F0E0E411DFA9F400D511D112406
:101BC0004F0F511DDC01CB01840F951FA11DB11DCD
:101BD000893E43E09407A105B10508F434C0885E4E
:101BE0009340A109B10942E0B695A79597958795CD
:101BF0004A95D1F747E0849F080E211D949F200D40
:101C0000311D1124290F311D6091AA0470E0860F47
:101C1000971F820F931F40919D0650919E066091E1
:101C20009F067091A006292F3327420F531F611D75
:101C3000711D40939D0650939E0660939F0670937E
:101C4000A0068093AA0478940E94208DF201778BDD
:101C5000668BDF91CF911F910F91FF90EF90DF90F6
:101C6000CF90BF90AF909F908F907F905F904F905C
:101C700008954F925F927F928F929F92AF92BF9200
:101C8000CF92DF92EF92FF920F931F93CF93DF9348
:101C90002C01EB010E94208DF20126893789621BFD
:101CA000730B6A307105B0F3F8948A819B81181622
:101CB00019060CF0CBC1E881F98105B1016075B15D
:101CC0007E7F75B9BA848F812B2D281B822F2F839D
:101CD0004C85042E000C550BAA81BB81E888DF845B
:101CE000C988E394D394C3949E81388599848B8466
:101CF000118120E0F32E622F322F31811127889439
:101D00003111380F08F43FEF81958894E0FC130FF0
:101D100017958894E1FC130F17958894E2FC130F34
:101D200017958894E3FC130F17958894E4FC130F20
:101D300017958894E5FC130F17958894E6FC130F0C
:101D400017958894E7FC130F17958894232FE110BB
:101D5000212F8B0D122F002C05B900C017FF75B96C
:101D600030812227889400C000C0002C75B9311141
:101D7000390F00C0002C05B900C016FF75B908F472
:101D80003FEF9195889400C000C0002C75B9D0FC3D
:101D9000230F00C0002C05B900C015FF75B92795A9
:101DA0008894D1FC230F00C000C0002C75B9279582
:101DB000889400C0002C05B900C014FF75B9D2FC8E
:101DC000230F2795889400C000C0002C75B9D3FC60
:101DD000230F00C0002C05B900C013FF75B927956B
:101DE0008894D4FC230F00C000C0002C75B927953F
:101DF000889400C0002C05B900C012FF75B9D5FC4D
:101E0000230F2795889400C000C0002C75B9D6FC1C
:101E1000230F00C0002C05B900C011FF75B927952C
:101E20008894D7FC230F00C000C0002C75B92795FB
:101E3000889400C0002C05B900C010FF75B9132F9D
:101E4000D110122F990D00C000C0002C75B900C030
:101E500000C0002C05B900C017FF75B932812227D8
:101E6000889400C000C0002C75B931113F0D00C02E
:101E7000002C05B900C016FF75B908F43FEFE40F58
:101E8000F51F00C000C0002C75B9C0FC230F00C0B6
:101E9000002C05B900C015FF75B927958894C1FCC1
:101EA000230F00C000C0002C75B92795889400C08E
:101EB000002C05B900C014FF75B9C2FC230F27958B
:101EC000889400C000C0002C75B9C3FC230F00C06B
:101ED000002C05B900C013FF75B927958894C4FC80
:101EE000230F00C000C0002C75B92795889400C04E
:101EF000002C05B900C012FF75B9C5FC230F27954A
:101F0000889400C000C0002C75B9C6FC230F00C027
:101F1000002C05B900C011FF75B927958894C7FC3E
:101F2000230F00C000C0002C75B92795889400C00D
:101F3000002C05B900C010FF75B9132FC110122F66
:101F4000F19400C000C0002C75B9F80C00C000C0AE
:101F500005B900C017FF75B931812227889400C0E8
:101F600000C0002C75B93111380F00C0002C05B924
:101F700000C016FF75B908F43FEF8195889400C042
:101F800000C0002C75B9E0FC230F00C0002C05B97F
:101F900000C015FF75B927958894E1FC230F00C098
:101FA00000C0002C75B92795889400C0002C05B995
:101FB00000C014FF75B9E2FC230F2795889400C078
:101FC00000C0002C75B9E3FC230F00C0002C05B93C
:101FD00000C013FF75B927958894E4FC230F00C057
:101FE00000C0002C75B92795889400C0002C05B955
:101FF00000C012FF75B9E5FC230F2795889400C037
:1020000000C0002C75B9E6FC230F00C0002C05B9F8
:1020100000C011FF75B927958894E7FC230F00C015
:1020200000C0002C75B92795889400C0002C05B914
:1020300000C010FF75B9132FE110122F8B0D00C0D7
:1020400000C0002C75B9119709F086CEEA81FB819A
:102050002EE130E0DF010E9453CE30E020E0A90104
:10206000AAE9EA9F0E0E411DFA9F400D511D112451
:102070004F0F511DDC01CB01840F951FA11DB11D18
:10208000893E43E09407A105B10508F434C0885E99
:102090009340A109B10942E0B695A7959795879518
:1020A0004A95D1F747E0849F080E211D949F200D8B
:1020B000311D1124290F311D6091AA0470E0860F93
:1020C000971F820F931F40919D0650919E0660912D
:1020D0009F067091A006292F3327420F531F611DC1
:1020E000711D40939D0650939E0660939F067093CA
:1020F000A0068093AA0478940E94208DF201778B29
:10210000668BDF91CF911F910F91FF90EF90DF9041
:10211000CF90BF90AF909F908F907F905F904F90A7
:102120000895CF92DF92EF920F931F93CF93DF9397
:1021300068EE73E00E9423CEEB016B0184EBC80EC6
:10214000D11CCB018D549F4F0E94F463C6010E94A5
:10215000F463CE018B549F4F0E94F463EE24E3940A
:1021600010E000E020E04091CE0E60E0C6010E9449
:102170003F64DF91CF911F910F91EF90DF90CF904F
:1021800008958F929F92AF92BF92CF92DF92EF927B
:10219000FF920F931F93CF93DF931F921F92CDB7A0
:1021A000DEB78C0119828FEF8A83680125EEC21A8F
:1021B0002DEFD20AD6018D919C91DC01ED91FC911D
:1021C0000084F185E02D1995F801E75EFD4F7F0150
:1021D000892B09F449C081E089834801FDEF8F1AFA
:1021E0009F0A580126EEA21A2DEFB20AD6018D9150
:1021F0009C91DC01ED91FC910084F185E02D199515
:10220000892B09F1F60180819181DC01ED91FC912E
:102210000284F385E02D19958A83AE014F5F5F4FED
:10222000BE016E5F7F4FC8010E94A855F7018083F1
:10223000D4018C91F50180838330C1F218161CF013
:10224000C8010E94C40AF70180810F900F90DF91AE
:10225000CF911F910F91FF90EF90DF90CF90BF90A3
:10226000AF909F908F900895AE014F5F5F4FBE017A
:102270006E5F7F4FC8010E94A855D7018C93F8016B
:10228000ED5FFD4F808177968083D8CFCF93DF932A
:1022900091E09093AE048823B9F0C091B800D0913A
:1022A000BA008091BC008A7B8093BC0060E084E12E
:1022B0000E94E48B60E085E10E94E48B0E94C30BE6
:1022C000D093BA00C093B800DF91CF91089585ED07
:1022D0008093BC008091EB069091EC06A091ED06F6
:1022E000B091EE060796A11DB11D23E0B695A79506
:1022F000979587952A95D1F72091BC0024FD03C0BE
:102300001092E90608954091EB065091EC06609119
:10231000ED067091EE06452B462B472B69F300978F
:10232000A105B10541F02AE22A95F1F700C0019715
:10233000A109B109E1CF8091EA060C9446111F92E0
:102340000F920FB60F9211240BB60F922F933F935B
:102350004F935F936F937F938F939F93AF93BF93AD
:10236000EF93FF938091B900887F803609F44DC0C8
:1023700008F040C0883209F4A9C028F5803109F47A
:102380009DC0C8F4882309F4FBC0883009F496C0C6
:10239000FF91EF91BF91AF919F918F917F916F913D
:1023A0005F914F913F912F910F900BBE0F900FBEF9
:1023B0000F901F901895883109F488C0803241F73A
:1023C0008093E70614C0803409F49DC040F4803344
:1023D000B9F38833E9F68093E70685ECB0C0803521
:1023E00009F485C0883509F496C0883489F60E94BE
:1023F0006711CECF883909F48CC038F5883729F0B9
:1024000050F4883611F0803719F683E08093E9069E
:102410001092F50457C0883809F47BC0803919F050
:10242000803809F0B5CF8091F504803208F071C092
:10243000E091F50481E08E0F8093F5048091BB005C
:10244000F0E0EB52FB4F80833DC0803B39F0E0F47D
:10245000803A09F479C0883A09F09ACF84E08093F1
:10246000E9061092D2041092D104E091CF04F091C9
:10247000D00419958091D10481110FC081E080931F
:10248000D1041092AF0409C0803C09F4A6CF883C67
:1024900009F4A3CF883B09F07BCFE091D20481E01F
:1024A0008E0F8093D204F0E0E155FB4F8081809342
:1024B000BB009091D2048091D10429C08091C406C0
:1024C0008093BB0085EC8093BC0062CF9091E606C0
:1024D0008091E506981758F5E091E60681E08E0FA9
:1024E0008093E606F0E0EB53F94F8081E9CFE0916D
:1024F000E60681E08E0F8093E6068091BB00F0E057
:10250000EB53F94F80839091E6068091E50698178A
:10251000C8F285E8D8CFE091E60681E08E0F80937F
:10252000E6068091BB00F0E0EB53F94F8083809189
:10253000E80681115CCF81E08093C30684EA809332
:10254000BC001092E90624CF85EC8093BC00109269
:10255000E9068091F504803230F4E091F504F0E072
:10256000EB52FB4F10826091F50470E0E091D304D0
:10257000F091D40485ED94E019951092F50408CFFC
:102580001092E70634CFCF92DF92EF92FF920F9333
:102590001F93CF93DF93EC0188810E94BB8B8C014A
:1025A0000E94F58F2C893D892017310731F06E8B01
:1025B0007F8B888F998F1D8B0C8BCE88DF88E88C62
:1025C000F98C6C197D098E099F09CA80DB80EC802B
:1025D000FD806C157D058E059F0530F08A899B89ED
:1025E000998B888B1B8B0A8B288939898A899B89CF
:1025F0002817390781F04A855B8542305105A1F4DF
:102600008E819F81A885B9850196A11DB11D8E83FC
:102610009F83A887B987DF91CF911F910F91FF907A
:10262000EF90DF90CF9008954115510531F421309E
:10263000310589F7892B21F3EECF4130510559F748
:10264000232B49F7019739F7DBCFFC01208931892A
:10265000848595852817390741F481E0428953899B
:10266000268537854217530709F080E00895FC015D
:1026700020893189868597852817390741F481E0BB
:1026800042895389248535854217530709F080E034
:1026900008958F929F92AF92BF92CF92DF92EF9266
:1026A000FF920F931F93CF93DF93FC01208521119D
:1026B00010C060E070E0CB01DF91CF911F910F91CE
:1026C000FF90EF90DF90CF90BF90AF909F908F9052
:1026D0000895EC010E94F58F29852111EACF8C80A5
:1026E0009D80AE80BF80088119812A813B816B016A
:1026F0007C01C818D908EA08FB08C016D106E20612
:10270000F306B8F6080D191D2A1D3B1D6801790155
:10271000C61AD70AE80AF90AC701B601CDCFCF9287
:10272000DF92EF92FF921F93CF93DF93FC0110850E
:1027300011110AC010E0812FDF91CF911F91FF90FE
:10274000EF90DF90CF900895EC018185882319F0F8
:1027500018861986F0CF0E94F58FCC80DD80EE8040
:10276000FF806C197D098E099F09C880D980EA8095
:10277000FB806C157D058E059F0550F7DBCFCF9351
:10278000DF93EC01488359836A837B830E94F58F32
:102790006C837D838E839F8381E088871986DF9198
:1027A000CF9108950F931F93CF93DF93EC010E9475
:1027B000F58F8B019C018C819D81AE81BF81488109
:1027C00059816A817B81081B190B2A0B3B0B04176B
:1027D00015072607370738F4CE01DF91CF911F91F7
:1027E0000F910C94BF13840F951FA61FB71F8C83E6
:1027F0009D83AE83BF8381E088871986DF91CF9167
:102800001F910F91089582E190E00E94E76383E1B8
:1028100090E00E94E76384E190E00E94E76385E135
:1028200090E00E94E76386E190E00C94E763982FC4
:10283000E62F603411F4E0917019F0E03197E73041
:10284000F10578F48827E85DFB4E8F4F0C944BCE52
:102850002F143B1440145A145C144214441483E1A2
:102860000895933099F0953009F1911127C084E1D2
:1028700008958DE0089580916E19833009F50895CB
:102880008BE0089584E608959330E1F4809151043B
:102890008F5F853068F4982F937051F080935104C6
:1028A00080915104813061F3823019F781E00895FD
:1028B00081E0F4CF8DE6089585E6089585E00895DA
:1028C0008FE008958EEF08952F923F924F925F927E
:1028D0006F927F928F929F92AF92BF92CF92DF9230
:1028E000EF92FF920F931F93CF93DF9300D000D00E
:1028F00000D0CDB7DEB70E94BE698C018091160270
:102900000E94F659F82E8091220235E0932E8823FA
:1029100031F060916F1981E00E941714982E80E0C9
:102920000E94F65790915419890F8D8381E00E947F
:10293000F65790915419890F8E8382E00E94F657C2
:1029400090915419890F8F8383E00E94F6579091DC
:102950005419582E590E80916F192BEF280F2230E1
:1029600008F410C1843009F40DC1E0901F023D81CC
:10297000232F30E0398728876E81A62EB12CFF8166
:10298000EF2FF0E0FC83EB83252D30E03A832983A1
:10299000E110FEC02F2D492D61E0C8010E94A269FF
:1029A0001B01482E2F2D492D61E0C8010E94A2690C
:1029B0003B01882E2F2D492D61E0C8010E94A2699C
:1029C0006B01E82E2F2D492D61E0C8010E94A269FC
:1029D000AB01682FE885F985EE0FFF1F8885998583
:1029E000E80FF91FE15CFA4F208231824282F50143
:1029F000EE0FFF1FEA0DFB1DE15CFA4F6082718252
:102A00008282EB81FC81EE0FFF1F2B813C81E20F64
:102A1000F31FE15CFA4FC082D182E282E981FA8140
:102A2000EE0FFF1F89819A81E80FF91FE15CFA4FD1
:102A30004083518362838091FD0481118AC088851F
:102A400099850196FC01EE0FFF1FE80FF91FE15C6D
:102A5000FA4F208231824282A0915419B0E0E88579
:102A6000F98580916B198850AE17BF0714F48D81DA
:102A7000815090E09C01220F331F820F931FFC01B5
:102A8000E15CFA4F20823182428295012F5F3F4FF5
:102A9000C901880F991F820F931FFC01E15CFA4F57
:102AA00060827182828280916B198850AA15BB0561
:102AB00014F48E81815090E09C01220F331F820F0D
:102AC000931FFC01E15CFA4F6082718282828B81EC
:102AD0009C810196FC01EE0FFF1FE80FF91FE15CDE
:102AE000FA4FC082D182E2822B813C8180916B19A6
:102AF0008850A217B30714F48F81815090E0FC0135
:102B0000EE0FFF1FE80FF91FE15CFA4FC082D18280
:102B1000E28289819A810196FC01EE0FFF1FE80F86
:102B2000F91FE15CFA4F40835183628389819A8166
:102B3000A817B90754F180916B19885090E0FC01F7
:102B4000EE0FFF1FE80FF91FE15CFA4F408351833E
:102B5000628329960FB6F894DEBF0FBECDBFDF911A
:102B6000CF911F910F91FF90EF90DF90CF90BF908A
:102B7000AF909F908F907F906F905F904F903F901D
:102B80002F90089525E0922EF0CE8FEF850DD6CFB1
:102B9000892F90E0E885F985E81BF90BEC5EFA4F88
:102BA00020812223D1F0F501E81BF90BEC5EFA4FEE
:102BB0002081222391F0EB81FC81E81BF90BEC5E74
:102BC000FA4F2081222349F0E981FA81E81BF90BB1
:102BD000EC5EFA4F80818111F1C10E949B59609196
:102BE00035027091360290E080E00E946FCC20E0C8
:102BF00030E040EC5FE30E94D0CC0E9465CF9B01A7
:102C0000AC018091541968857985681B710989E147
:102C1000D82ED69EC001D79E900D112401E010E061
:102C20006F2D875B9E4E0E943153609135027091EB
:102C3000360290E080E00E946FCC20E030E040EC73
:102C40005FE30E94D0CC0E9465CF9B01AC018091D4
:102C50005419B501681B7109D69EC001D79E900D0D
:102C600011246F2D875B9E4E0E9431536091350277
:102C70007091360290E080E00E946FCC20E030E05E
:102C800040EC5FE30E94D0CC0E9465CF9B01AC0179
:102C9000809154196B817C81681B7109D69EC0019B
:102CA000D79E900D11246F2D875B9E4E0E9431534D
:102CB000609135027091360290E080E00E946FCC06
:102CC00020E030E040EC5FE30E94D0CC0E9465CF72
:102CD0009B01AC018091541969817A81681B71094B
:102CE000D69EC001D79E900D11246F2D875B9E4EFE
:102CF0000E9431538091FD0481112BCFEE2031F1E0
:102D0000609135027091360290E080E00E946FCCB5
:102D100020E030E040EC5FE30E94D0CC0E9465CF21
:102D20009B01AC01E885F985319680915419E81B27
:102D3000F10969E16E9FC0016F9F900D112401E0C0
:102D400010E06F2D875B9E4E0E943153F091541915
:102D5000F8872D81F21708F433C130916B19385080
:102D60003D83EE2009F448C060913502709136022F
:102D700090E080E00E946FCC20E030E040EC5FE328
:102D80000E94D0CC0E9465CF9B01AC018D81E8856B
:102D90008E1B990BBC01F9E1F69FC001F79F900DC6
:102DA000112401E010E06F2D875B9E4E0E9431538D
:102DB000609135027091360290E080E00E946FCC05
:102DC00020E030E040EC5FE30E94D0CC0E9465CF71
:102DD0009B01AC016FEFA61AB60A80915419A81A8C
:102DE000B10879E17A9DC0017B9D900D11246F2D72
:102DF000875B9E4E0E9431538091541988879E8133
:102E0000891708F4E1C0E0916B19E850ED83EE20DA
:102E100009F44AC0609135027091360290E080E07A
:102E20000E946FCC20E030E040EC5FE30E94D0CC09
:102E30000E9465CF9B01AC018D81E8858E1B990BAB
:102E4000BC01F9E1F69FC001F79F900D112401E04C
:102E500010E06F2D875B9E4E0E94315360913502CA
:102E60007091360290E080E00E946FCC20E030E06C
:102E700040EC5FE30E94D0CC0E9465CF4B815C8127
:102E80004F5F5F4F20915419421B510929E1249F44
:102E9000F001259FF00D11249B01AC016F2DCF0196
:102EA000875B9E4E0E943153309154193D836F8150
:102EB000361708F48DC070916B1978507B83EE2023
:102EC00009F44AC0609135027091360290E080E0CA
:102ED0000E946FCC20E030E040EC5FE30E94D0CC59
:102EE0000E9465CF9B01AC01EB818D81E81BFF0B3C
:102EF000BF01E9E1E69FC001E79F900D112401E0C9
:102F000010E06F2D875B9E4E0E9431536091350219
:102F10007091360290E080E00E946FCC20E030E0BB
:102F200040EC5FE30E94D0CC0E9465CF49815A817A
:102F30004F5F5F4F20915419421B510929E1249F93
:102F4000F001259FF00D11249B01AC016F2DCF01E5
:102F5000875B9E4E0E943153309154193983351549
:102F6000D8F150906B1968EF560EEE2009F4F1CDB0
:102F7000609135027091360290E080E00E946FCC43
:102F800020E030E040EC5FE30E94D0CC0E9465CFAF
:102F9000E52D2981E21BFF0BAF0129E1249FF00100
:102FA000259FF00D112401E010E09B01AC016F2D75
:102FB000CF01875B9E4E0E943153CBCDE12C9ACE40
:102FC0006D8161506D83CDCEFE81F150FD831FCFA9
:102FD0008F8181508B8373CF5A94C7CF80E699E15C
:102FE0000E948F138823A1F00E94BE698091010A7C
:102FF0000E9401904091090250E070E060E080E69C
:1030000099E10E94BF138091FF0481111092FF0487
:103010000895CF93DF931F921F92CDB7DEB7813C07
:10302000910509F1823C910579F184309105E1F532
:10303000E0EBF9E0A0E1BAE081918D9389E0E93B12
:10304000F807D1F789E090E09A83898346E0BE01D2
:103050006F5F7F4F80E19AE00E94F20A0F900F901D
:10306000DF91CF910895E5ECF9E0A0E1BAE085EDBC
:1030700099E021912D938E179F07D9F780E190E079
:103080009A83898344E0E3CFE9EBF9E0A0E1BAE079
:1030900081918D9389E0E53CF807D1F78CE090E0D1
:1030A0009A83898345E0D3CF22E0209363049093F1
:1030B000650480936404609366047093670494E0ED
:1030C000909368042093100A8093110A80916504FC
:1030D0008093120A6093130A7093140A9093150A4E
:1030E00086E090E09A83898341E0B1CF70E060E0B0
:1030F0000C940918EF920F931F9384E490E00E94C0
:10310000F463EE24E39410E000E020E04091CE0E62
:1031100060E084E490E00E943F648091B50F8330CA
:10312000C9F1853009F47AC0823009F055C083E0D6
:103130008093B50F83E091E00E94F4638EE590E008
:103140000E94F4638EE490E00E94F4638DE490E0CA
:103150000E94F46320E04091CE0E60E08EE490E0A7
:103160000E943F648FE490E00E94761880910206EE
:10317000811176C080910B0690910C06019709F49D
:103180006FC08091040681116BC01F910F91EF9069
:103190000C94C67984E08093B50F83E091E00E949F
:1031A000F4638EE590E00E94F4638EE490E00E9468
:1031B000F4638DE490E00E94F463EE24E39410E065
:1031C00000E020E04091CE0E60E08EE590E00E94AD
:1031D0003F6480E590E0C8CF85E08093B50F83E041
:1031E00091E00E94F4638EE590E00E94F4638EE427
:1031F00090E00E94F4638DE490E00E94F463EE247A
:10320000E39410E000E020E04091CE0E60E083E027
:1032100091E00E943F6481E590E0A6CF82E0809338
:10322000B50F83E091E00E94F4638EE590E00E9488
:10323000F4638EE490E00E94F4638DE490E00E94D9
:10324000F463EE24E39410E000E020E04091CE0E21
:1032500060E08DE490E00E943F648EE490E084CFD3
:103260001F910F91EF9008952F923F924F925F928E
:103270006F927F928F929F92AF92BF92CF92DF9286
:10328000EF92FF920F931F93CF93DF93CDB7DEB7EB
:103290002C970FB6F894DEBF0FBECDBF0E94BE695B
:1032A0009C878B8780E00E94F657A09054198A0D66
:1032B000898381E00E94F657C09054198C0D8B834E
:1032C00082E00E94F657E09054198E0D8D8383E0C2
:1032D0000E94F65700915419800F8F8380916B19CB
:1032E00066246A94680E10915504809151027724E7
:1032F00073948C3011F065E0762E8091520218178D
:1033000008F057C18AEC9FE00E948F13882309F4CC
:1033100050C180915202E12FF0E090913702992341
:1033200009F412C18D3009F00CC1EB5AF24FE4914F
:10333000F0E08F01000F111F0E0F1F1F015C1A4FCD
:103340002FEF44E160E08B859C850E94A269F80123
:10335000608371838283F9812F2F30E04B81A42E0B
:10336000B12C5D81C52ED12C8F81E82EF12C862CBD
:10337000912C8091550465E00E9417CE8901000FC1
:10338000111F2501440C551C1601220C331CF7019A
:10339000EE0FFF1FFA87E987020F131F015C1A4F18
:1033A0002FEF91112FC2472D61E08B859C850E94E4
:1033B000A269F80160837183828382010A0D1B1D5B
:1033C000015C1A4F2FEF472D61E08B859C850E9491
:1033D000A269F80160837183828381010C0D1D1D38
:1033E000015C1A4F2FEF472D61E08B859C850E9471
:1033F000A269F80160837183828309851A850E0DA5
:103400001F1D015C1A4F2FEF472D61E08B859C85B6
:103410000E94A269F8016083718382838401000F96
:10342000111F080D191D015C1A4F2FEF41E061E0DB
:103430008B859C850E94A269F801608371838283D9
:103440008091200290912102892B09F485C02FEFF1
:1034500045E064E08B859C850E94A26960938903A6
:1034600070938A0380938B032FEF45E064E08B8594
:103470009C850E94A26960938C0370938D03809356
:103480008E032FEF4DE064E08B859C850E94A2693E
:1034900060938F0370939003809391032FEF4DE01F
:1034A00064E08B859C850E94A2696093920370936F
:1034B0009303809394032FEF4FE064E08B859C850A
:1034C0000E94A2696093950370939603809397037B
:1034D0002FEF4FE064E08B859C850E94A26960938A
:1034E00098037093990380939A0300914F020150BF
:1034F000110BC801880F991F080F191F07571C4F80
:103500002FEF4FE064E08B859C850E94A269F80153
:1035100060837183828300914F0210E0C801880F9D
:10352000991F080F191F07571C4F2FEF4DE064E03C
:103530008B859C850E94A269F801608371838283D8
:1035400023C0EA5BF24FF3CE8D3019F4E75CF24F03
:10355000EECEE65DF24FEBCEA59A739A8091020112
:103560008860809302018091020180618093020152
:103570008091020180628093020180910201806447
:10358000809302012C9A2D9A809155048F5F80932D
:10359000550490915202891313C21092D20F1092C7
:1035A000D30F4EE150E060E070E080EC9FE00E94BD
:1035B000BF131091540480915202181708F03FC2B3
:1035C00080EC9FE00E948F13882309F438C2809119
:1035D0005202E12FF0E090913702992309F4FAC1E9
:1035E0008D3009F0F4C1EB5AF24FE4918150990B00
:1035F0008E1B91098C01000F111F080F191F015C10
:103600001A4F2FEF40E060E08B859C850E94A269F5
:10361000F801608371838283F9812F2F30E04B8121
:10362000C42ED12C5D81E52EF12C8F81882E912C1A
:10363000A62CB12C8091540465E00E9417CE89011C
:10364000000F111F2601440C551C1701220C331CBE
:10365000F401EE0FFF1FFA87E987020F131F015CC9
:103660001A4F2FEF9111F8C3472D61E08B859C8590
:103670000E94A269F80160837183828382010C0D2C
:103680001D1D015C1A4F2FEF472D61E08B859C8536
:103690000E94A269F80160837183828381010E0D0B
:1036A0001F1D015C1A4F2FEF472D61E08B859C8514
:1036B0000E94A269F80160837183828309851A855B
:1036C000080D191D015C1A4F2FEF472D61E08B8506
:1036D0009C850E94A269F8016083718382838501C1
:1036E000000F111F0A0D1B1D015C1A4F2FEF41E047
:1036F00061E08B859C850E94A269F80160837183DB
:1037000082838091200290912102892B09F46AC161
:103710002FEF45E064E08B859C850E94A269609351
:10372000890370938A0380938B032FEF45E064E055
:103730008B859C850E94A26960938C0370938D0396
:1037400080938E032FEF4DE064E08B859C850E9473
:10375000A26960938F0370939003809391032FEF7E
:103760004DE064E08B859C850E94A2696093920382
:1037700070939303809394032FEF4FE064E08B8565
:103780009C850E94A2696093950370939603809331
:1037900097032FEF4FE064E08B859C850E94A26920
:1037A000609398037093990380939A0300914F025A
:1037B0000150110BC801880F991F080F191F0757D7
:1037C0001C4F2FEF4FE064E08B859C850E94A2691F
:1037D000F80160837183828300914F0210E0C80179
:1037E000880F991F080F191F07571C4F2FEF4DE027
:1037F00064E08B859C850E94A269F80160837183D7
:10380000828308C140E061E08B859C850E94A269AB
:10381000F80160837183828382010A0D1B1D015CA4
:103820001A4F2FEF40E061E08B859C850E94A269D2
:10383000F80160837183828381010C0D1D1D015C81
:103840001A4F2FEF40E061E08B859C850E94A269B2
:10385000F80160837183828309851A850E0D1F1D0F
:10386000015C1A4F2FEF40E061E08B859C850E9440
:10387000A269F8016083718382838401000F111FA4
:10388000080D191D015C1A4F2FEF40E061E08B8598
:103890009C850E94A269F801608371838283809174
:1038A000200290912102892B09F471C02FEF40E092
:1038B00064E08B859C850E94A26960938903709364
:1038C0008A0380938B032FEF40E064E08B859C8517
:1038D0000E94A26960938C0370938D0380938E0382
:1038E0002FEF40E064E08B859C850E94A269609385
:1038F0008F0370939003809391032FEF40E064E077
:103900008B859C850E94A2696093920370939303B8
:10391000809394032FEF40E064E08B859C850E94A8
:10392000A2696093950370939603809397032FEF9A
:1039300040E064E08B859C850E94A26960939803B7
:103940007093990380939A0300914F020150110BD9
:10395000C801880F991F080F191F07571C4F2FEF19
:1039600040E064E08B859C850E94A269F801608339
:103970007183828300914F0210E0C801880F991F64
:10398000080F191F07571C4F2FEF40E0D0CDA59807
:10399000739880910201877F8093020180910201D8
:1039A0008F7E80930201809102018F7D80930201BE
:1039B000809102018F7B809302012C982D98E4CD99
:1039C0004EE150E060E070E08AEC9FE0F0CDEA5B11
:1039D000F24F0BCE8D3019F4E75CF24F06CEE65D68
:1039E000F24F03CEA59A739A80910201886080936A
:1039F00002018091020180618093020180910201A5
:103A000080628093020180910201806480930201B0
:103A10002C9A2D9A809154048F5F80935404909136
:103A200052028913F7C21092C80F1092C90F4EE1CB
:103A300050E060E070E086EB9FE00E94BF13F090E2
:103A40000302FF2009F4EEC186EB9FE00E948F1372
:103A5000882309F4E7C1F981AF2EB12C1501220C9E
:103A6000331C81010A0D1B1D015C1A4F2F2D472DA0
:103A700061E08B859C850E94A269F8016083718357
:103A80008283FB81CF2ED12C9601220F331F3A83E4
:103A9000298389010C0D1D1D015C1A4F2091030221
:103AA000472D61E08B859C850E94A269F8016083A7
:103AB00071838283FD81EF2EF12C9701220F331F3A
:103AC0003C832B8389010E0D1F1D015C1A4F209131
:103AD0000302472D61E08B859C850E94A269F80155
:103AE000608371838283FF810F2F10E09801220F82
:103AF000331F3E832D83C901800F911FAC01415CB0
:103B00005A4F4A0120910302472D61E08B859C8525
:103B10000E94A269F401608371838283712C9301F6
:103B2000220F331F38872F83C901860D971DAC01E3
:103B3000415C5A4F4A012091030241E061E08B85CC
:103B40009C850E94A269F4016083718382838091C5
:103B5000200290912102892B09F485C02091030253
:103B600045E064E08B859C850E94A269609389038F
:103B700070938A0380938B032091030245E064E0F5
:103B80008B859C850E94A26960938C0370938D0342
:103B900080938E03209103024DE064E08B859C8529
:103BA0000E94A26960938F037093900380939103A6
:103BB000209103024DE064E08B859C850E94A26900
:103BC0006093920370939303809394032091030274
:103BD0004FE064E08B859C850E94A2696093950309
:103BE0007093960380939703209103024FE064E063
:103BF0008B859C850E94A2696093980370939903BA
:103C000080939A0380914F028150990B4C01880C4C
:103C1000991C880D991D9C0127573C4F4901209103
:103C200003024FE064E08B859C850E94A269F40149
:103C300060837183828380904F02912CC401880F2E
:103C4000991F880E991E940127573C4F49012091D6
:103C500003024DE064E08B859C850E94A269F4011B
:103C600060837183828380911202893108F0D9C107
:103C7000873108F0D9C165E18C3009F067E0909197
:103C8000FA0420911D0280910302509022112223F8
:103C900009F4CCC19111CCC12FEF30E0A901481B30
:103CA0005109CA0170E00E9437CE560E8091211151
:103CB0008515D8F0852D90E02091FB044C01880CEF
:103CC000991C880E991E213009F0B6C1C40187578E
:103CD0009C4F4C012FEF45E062E08B859C850E9454
:103CE0008369F4016083718382838091FA049091E7
:103CF0001D02992309F4ACC18111ACC1809122113C
:103D00008515E8F4252D2150330BB901809121113F
:103D100082171306A4F04901880C991C860E971E81
:103D2000A40147575C4F4A012FEF40E062E08B85CA
:103D30009C850E94A269F4016083718382838091D3
:103D40000302815080930302811198C11092BE0F2B
:103D50001092BF0FA20CB31C9501215C3A4F590180
:103D60002FEF40E061E08B859C850E94A269F50100
:103D700060837183828329813A81C20ED31EA6019A
:103D8000415C5A4F6A012FEF40E061E08B859C85D2
:103D90000E94A269F6016083718382832B813C813A
:103DA000E20EF31EA701415C5A4F7A012FEF40E06B
:103DB00061E08B859C850E94A269F7016083718315
:103DC00082832D813E81020F131F015C1A4F2FEF5A
:103DD00040E061E08B859C850E94A269F8016083C8
:103DE000718382830F811885060D171D015C1A4FA0
:103DF0002FEF40E061E08B859C850E94A269F8016D
:103E00006083718382830E9492710E946D7981E048
:103E1000809310060E94EE1765E070E080E090E06D
:103E20000E94C38F2C960FB6F894DEBF0FBECDBF95
:103E3000DF91CF911F910F91FF90EF90DF90CF9086
:103E4000BF90AF909F908F907F906F905F904F90BA
:103E50003F902F900C94EE1740E061E08B859C859D
:103E60000E94A269F80160837183828382010C0D34
:103E70001D1D015C1A4F2FEF40E061E08B859C8592
:103E80000E94A269F80160837183828381010E0D13
:103E90001F1D015C1A4F2FEF40E061E08B859C8570
:103EA0000E94A269F80160837183828309851A8563
:103EB000080D191D015C1A4F2FEF40E061E08B8562
:103EC0009C850E94A269F8016083718382838501C9
:103ED000000F111F0A0D1B1D015C1A4F2FEF40E050
:103EE00061E08B859C850E94A269F80160837183E3
:103EF00082838091200290912102892B09F471C064
:103F00002FEF40E064E08B859C850E94A26960935E
:103F1000890370938A0380938B032FEF40E064E062
:103F20008B859C850E94A26960938C0370938D039E
:103F300080938E032FEF40E064E08B859C850E9488
:103F4000A26960938F0370939003809391032FEF86
:103F500040E064E08B859C850E94A2696093920397
:103F600070939303809394032FEF40E064E08B857C
:103F70009C850E94A2696093950370939603809339
:103F800097032FEF40E064E08B859C850E94A26937
:103F9000609398037093990380939A0300914F0262
:103FA0000150110BC801880F991F080F191F0757DF
:103FB0001C4F2FEF40E064E08B859C850E94A26936
:103FC000F80160837183828300914F0210E0C80181
:103FD000880F991F080F191F07571C4F2FEF40E03C
:103FE00007CCA598739880910201877F8093020186
:103FF000809102018F7E80930201809102018F7D6A
:1040000080930201809102018F7B809302012C98A2
:104010002D9800CD4EE150E060E070E080EC9FE034
:104020000CCD8A3109F02ACE69E029CE911134CE27
:104030000E9417CE580E3ACE940127573C4F4901A3
:104040002FEF45E062E08B859C850E94A26949CEF6
:10405000811154CE80912111581608F070CE852C14
:10406000912CFFEF8F1A9F0AC401880F991F880EA9
:10407000991E940127573C4F490156CE45E050E028
:1040800060E070E086EB9FE00E94BF13CBCEE8E3D8
:10409000F0E180914E02808380914D028183809176
:1040A0004C02828380914B02838380914A028483F5
:1040B000089580915102843161F0883221F08C3072
:1040C00031F48FE001C087E080930202089585E01B
:1040D000FBCF8AE0F9CF8091200290912102892BB9
:1040E00021F088E080930102089510920102089562
:1040F0009091520280915102890F27E0280F20935E
:104100006B199093541980936A192091120280912F
:104110004D044091200250912102452BC9F090910D
:1041200001023FEF390F30934F0290932211920F0B
:104130002FEF290F20932111909320118150890F87
:10414000891718F080931F11089590931F110895F7
:1041500010924F02109222119FEF920F9093211113
:1041600020932011820F8150821760F720931F1136
:1041700008958330B9F198F4823009F442C08091F7
:10418000330290913402885E9340803D27E092078D
:1041900008F446C0909334028093330212C08430F6
:1041A00091F0853061F780912B0290912C02885E0E
:1041B0009340803D27E0920798F190932C028093E2
:1041C0002B020C94911080912D0290912E02885E0A
:1041D0009340803D27E0920718F190932E02809340
:1041E0002D02EFCF80912F0290913002885E934094
:1041F000803D27E09207A0F09093300280932F0239
:10420000E0CF8091310290913202885E9340803DF0
:1042100027E0920728F09093320280933102D1CFA9
:1042200008958330B9F198F4823009F442C0809146
:1042300033029091340288519C4F81362AEE9207C6
:1042400008F046C0909334028093330212C0843049
:1042500091F0853061F780912B0290912C0288516A
:104260009C4F81362AEE920798F590932C0280930A
:104270002B020C94911080912D0290912E02885166
:104280009C4F81362AEE920718F590932E02809368
:104290002D02EFCF80912F029091300288519C4FD8
:1042A00081362AEE9207A0F49093300280932F0279
:1042B000E0CF809131029091320288519C4F81363B
:1042C0002AEE920728F49093320280933102D1CFE4
:1042D000089581E080930C0280930B0280930A0280
:1042E000089580916E198250823020F08AE691E024
:1042F0000C94F4638CE390E0FBCF8F929F92AF928B
:10430000BF92CF92DF92EF92FF920F931F93CF93C2
:10431000DF93CDB7DEB7EB970FB6F894DEBF0FBED5
:10432000CDBF0E94BE6900916B1910E0809181049D
:10433000811111C089E694E00E948B0910928004DB
:1043400010927F0481E692E090936A04809369045E
:1043500081E08093810489E694E00E94060A8FE35D
:1043600095E090936C0480936B0410937804009311
:1043700077048091040A9091050AA091060AB091F1
:10438000070A843C29E09207A105B10520F484ECDA
:1043900099E0A0E0B0E08093040A9093050AA0930E
:1043A000060AB093070A8FEF80936F0480EB809327
:1043B000700480EF809371048091A104811111C079
:1043C00089E894E00E948B091092A00410929F0447
:1043D00087E792E090938A048093890481E0809338
:1043E000A10489E894E00E94080A89E893E0909388
:1043F0008C0480938B0480E490E0909398048093E5
:1044000097048FEF80938F0490EB9093900490EF3C
:10441000909391041092040A1092050A1092060AD1
:104420001092070A8093010A0E94019040E855E229
:1044300060E070E08BEF98E00E94C58240E855E2B2
:1044400060E070E08EE598E00E94C58240E855E2A9
:1044500060E070E081EC97E00E94C5828EE598E014
:1044600090934D0E80934C0E84E690E0A0E0B0E077
:1044700080934E0E90934F0EA093500EB093510E1A
:104480002BEF38E030933B0E20933A0E10923C0E07
:104490008093460E9093470EA093480EB093490E1A
:1044A00081EC97E090932C0C80932B0C82E390E0AE
:1044B000A0E0B0E080932D0C90932E0CA0932F0CD5
:1044C000B093300C30931A0C2093190C10921B0CE3
:1044D0008093250C9093260CA093270CB093280C66
:1044E00080910D0265E00E9417CEE82FF0E0E85CB5
:1044F000F54FE491E0934902E093D00EE093CF0EA4
:1045000040E051EE60E070E084E297E00E94C582F6
:104510001092810F1092820F1092830F84E297E025
:104520009093F60E8093F50E1092380F1092390F7B
:10453000EAE3FFE086E59FE02FEF3FEF2193319321
:104540008E179F07D9F78091F50E9091F60EDC013A
:10455000ED91FC910084F185E02D1995892B61F096
:104560008091F50E9091F60EDC01ED91FC910284A4
:10457000F385E02D1995E7CF0E94F58F68517C4FA8
:10458000FE0131966F014B01B12CA12C34E1F32EC9
:1045900005E011E10E944D898091830F811118C0BF
:1045A0000E94F58F681579058A059B0588F4D60168
:1045B000EF2D1D92EA95E9F709831D83C6010E943C
:1045C0000E816AE070E080E090E00E94C38FE2CF4D
:1045D0000E944D898091830F882309F421C2809124
:1045E000580F9091590F90931307809312070097DB
:1045F00009F409C222E030E0309315072093140734
:104600008D36910518F080E00E94A15D6091580FF1
:104610007091590FC6010E94FA8A6BE17AE0CE01CF
:10462000C6960E94184EBE016A5C7F4FCE014E9620
:104630000E94464EB601CE014E960E94B24DCE016A
:104640004E960E94104ECE01C6960E94104EC60194
:104650000E94104E0E944D890091560F1091570FE5
:10466000C8010E94317F8091F9040E94CF5D8AEBDE
:104670009FEF0E94D68A0E94B68A80914A048111D7
:1046800004C080914904882369F00C33110550F06F
:10469000E12C10E000E020E040E060E08CE390E0FE
:1046A0000E943F641092A2061092A1061092100779
:1046B00010920F070E94C30B80EBA82E88E0B82E43
:1046C000B092D004A092CF0401EB18E01093D40470
:1046D0000093D3048CE08093B8006EEC7AE0C601BE
:1046E0000E94184EC6010E94104E80EA9FE09093EF
:1046F000730E8093720E1092A2061092A106109271
:10470000100710920F070E94C30BB092D004A09222
:10471000CF041093D4040093D3046FEF7FEF90E0A5
:1047200080E00E94458D182FEFE1FEE43197F1F70C
:1047300000C0000081110EC08FE999E39093C80E6C
:104740008093C70E6FE979E390E080E00E94458D89
:104750000E944D8E1F8E1E8E19A218A21BA21AA295
:104760004AE0B601812F90E00E9440CCB601CE0114
:104770004E960E94064E69EB7AE0CE01C6960E94E4
:10478000184EBE016A5C7F4FC6010E94464EBE01B4
:10479000625E7F4FC6010E94B24DC6010E94104E5C
:1047A000CE01C6960E94104ECE014E960E94104E2B
:1047B0001111EFC181E08093A9046DE47AE0C60194
:1047C0000E94184EC6010E94104E87E797E0909312
:1047D000C80E8093C70E67E777E090E080E00E9404
:1047E000458D0E944D8E0E94F58F6093A80E7093A8
:1047F000A90E8093AA0E9093AB0E4091A60E5091F5
:10480000A70E70E060E080EB9EE00E94BF13409135
:10481000720E5091730E70E060E08CE79EE00E9493
:10482000BF136C98749A6D98759A0A9A129882E3DD
:1048300090E0A0E0B0E08093E9109093EA10A0939C
:10484000EB10B093EC108093CF109093D010A09306
:10485000D110B093D2108093B5109093B610A0935E
:10486000B710B093B81080939B1090939C10A093B6
:104870009D10B0939E1080939D0F90939E0FA093D8
:104880009F0FB093A00F8093811090938210A093FC
:104890008310B09384108093671090936810A09356
:1048A0006910B0936A1080912101887F84608093A1
:1048B000210161E08DE20E94128C9A9A3C9A3A9A08
:1048C000579A80910A01886080930A019D9A6B9A99
:1048D00080910101886080930101809101018061D4
:1048E0008093010180910101806280930101809198
:1048F0000101806480930101249A259A8091AB1074
:104900009091AC10892B09F04FC181E08093250272
:104910008091C5109091C610892B09F048C182E0A2
:1049200080936E1980916E198093B50F8CEF9FE084
:104930000E948ECD8EAB8DEF9FE00E948ECD8FAB0F
:104940008EEF9FE00E948ECD88AF8FEF9FE00E9498
:104950008ECD89AF0E94305C0EA91FA928AD39AD5C
:10496000601771078207930709F038C48E01025E51
:104970001F4FD12CC12CC6010E948ECDD8018D9322
:104980008D01BFEFCB1ADB0AE8E1CE16D10499F70F
:104990008E8D982F9D7F9D3009F00BC18093520220
:1049A0008F3009F00EC188E280930F0287E2809376
:1049B00050028F8D8C3039F0843129F0843219F017
:1049C000883209F003C18093510288A18C3059F0DC
:1049D00099EE980F923038F08A3129F09DED980FBA
:1049E000923008F007C180931202893108F0F5C0B7
:1049F000873108F0F5C08C3009F4F7C089E0809366
:104A0000110286E0F5C081E090E090931507809355
:104A1000140784E690E09093130780931207F6CD75
:104A20008AEB9FEF0E94D68A0E94B68A04E1D601E3
:104A3000E02F1D92EA95E9F715E0198381E08D8357
:104A4000C6010E940E81D6011D920A95E9F71983CD
:104A500082E08D83C6010E940E816AE070E080E0F2
:104A600090E00E94C38F0E944D898091810F88231E
:104A700009F471C0A6E8BFE0F601CE0145962D917C
:104A800021938E179F07D9F70E944D898091820F3D
:104A90008E01025E1F4F882309F46CC080E098E00D
:104AA00090930602809305020E944D89A090560FB4
:104AB000B090570FC5010E94317FFE01B09682E190
:104AC000DF011D928A95E9F787E08E8F18A21F8E6D
:104AD0008CE08AA3C8010E940E8194E1892EF8011E
:104AE000282D11922A95E9F726E0922E9E8E89E0D4
:104AF0008AA3C8010E940E81D8011D928A94E9F709
:104B00009E8E8EE08AA381E08CA3C8010E940E8154
:104B100083E090E0909315078093140781E090E084
:104B2000909313078093120769E07AE0C8010E940E
:104B3000184EC8010E94104E80914A04811105C090
:104B400080914904882309F4ADCDBCE3AB16B104D0
:104B500008F4A8CD9DCD10921507109214070E945D
:104B6000308962ED79E0C6010E94184EC6010E94AC
:104B7000104E98CD62EE79E0C8010E94184EC8012F
:104B80000E94104E10921507109214070E9430894F
:104B900089CD1092A90463E67AE0C6010E94184EFE
:104BA000C6010E94104E33CE10922502B1CE84E091
:104BB000B7CE8091A904882309F4FBCE8DE08093C1
:104BC00052028EE280930F028DE2F1CE8091A90411
:104BD000882309F4FACE8CE0F6CE8A3109F00ECFA4
:104BE0008CE08093110289E003C09FE09093110252
:104BF000809310028DA59FEF980F943110F480934D
:104C00004D048EA59EEF980F933040F4833009F445
:104C100054C0843009F455C0109208029CA58FEF4F
:104C2000890F823030F481E0923008F480E0809384
:104C3000FA049FA58FEF890F823030F481E0923023
:104C400008F480E080934C0499A98FEF890F82309B
:104C500030F481E0923008F480E0809337029AA922
:104C60008FEF890F823030F481E0923008F480E0D9
:104C70008093FD049BA98FEF890F823030F481E08F
:104C8000923008F480E0809300059CA98FEF890F93
:104C9000823030F481E0923008F480E08093220288
:104CA00088A99EEF980F933090F4823061F08330A2
:104CB00009F46AC282E090E069C281E08093080250
:104CC000ADCF82E0FBCF109221021092200299A179
:104CD0008FEF890F843030F481E0913009F480E067
:104CE0008093FB048AA19FEF980F9E3F10F480935E
:104CF00018028BA19FEF980F9E3F10F480931A0229
:104D00008CA19FEF980F9E3F10F480931C028DA101
:104D10009FEF980F9E3F10F4809317028EA19FEF94
:104D2000980F9E3F10F4809319028FA19FEF980F68
:104D30009E3F10F480931B0288A59CEE980F91353E
:104D400010F48093130289A59CEE980F913510F40E
:104D5000809316028AA59CEE980F913510F48093EB
:104D600015028BA59CEE980F913510F480931402D8
:104D70009DA98FEF890F823040F481E0923008F4D2
:104D800080E08093F9040E94CF5D0E9459200E9428
:104D90006B200E947820CE0101966C0108E110E0A2
:104DA000C8010E948ECDD6018D936D010F5F1F4FFC
:104DB00005331105A9F799818FEF890F823030F4FF
:104DC00081E0923008F480E080933E059A818FEF75
:104DD000890F823030F481E0923008F480E08093D3
:104DE0001D028B819FEF980F923078F491E0823012
:104DF00008F490E090931F02823009F4CCC18CE259
:104E000091E090933602809335029C818FEF890F59
:104E1000823030F481E0923008F480E08093260202
:104E20009D818FEF890F823030F481E0923008F459
:104E300080E080933C029E818FEF890F823030F4B6
:104E400081E0923008F480E080932A029F818FEF06
:104E5000890F823030F481E0923008F480E0809352
:104E60003B0298858FEF890F823030F481E09230D9
:104E700008F480E080933D0589859EEF980F94307B
:104E800090F4833029F0853019F0823009F086C122
:104E900080936E1980916E198093B50F80930E02E6
:104EA00081E08093FE048A859FEF980F923040F452
:104EB000823009F475C181E080936C190E947D8B6A
:104EC0009B858FEF890F823030F481E0923008F4B7
:104ED00080E080930F069C858FEF890F823030F43D
:104EE00081E0923008F080E080930D059A8D8FEF7D
:104EF000890F823030F481E0923008F480E08093B2
:104F000007029B8D8FEF890F823030F481E0923061
:104F100008F480E080934B049C8D8FEF890F8230E2
:104F200030F481E0923008F480E08093FA058D8DB2
:104F30009CEE980F993258F448EE53E0849F90010C
:104F4000859F300D112430932402209323029D85E8
:104F50008FEF890F823030F481E0923008F480E0E6
:104F60000E941B698E858150853650F480930D0216
:104F70000E9436628093D00E8093CF0E80934902B8
:104F80008F859FEF980F9C3358F448EE53E0849F31
:104F90009001859F300D112430932C0220932B0219
:104FA00088899FEF980F9C3358F448EE53E0849F14
:104FB0009001859F300D112430932E0220932D02F5
:104FC00089899FEF980F9C3358F448EE53E0849FF3
:104FD0009001859F300D11243093300220932F02D1
:104FE0008A899FEF980F9C3358F448EE53E0849FD2
:104FF0009001859F300D11243093320220933102AD
:105000008B899FEF980F9C3358F448EE53E0849FB0
:105010009001859F300D1124309334022093330288
:105020009C898FEF890F823030F481E0923008F450
:1050300080E080934A029D898FEF890F823030F49F
:1050400081E0923008F480E080934B029E898FEFDC
:10505000890F823030F481E0923008F480E0809350
:105060004C029F898FEF890F823030F481E09230BB
:1050700008F480E080934D02988D8FEF890F823085
:1050800030F481E0923008F480E080934E02898D04
:105090009FEF980F953058F4823009F494C008F0CF
:1050A0008DC0813009F497C084E080931E020E9475
:1050B000472081E00E94C8680E946B200E947820EF
:1050C00080911302853618F084E680931302809154
:1050D0001602853618F084E6809316028091150238
:1050E000853618F084E6809315020E946A590E9462
:1050F000C6794091090250E070E060E080E699E1F5
:105100000E94BF1340ED57E060E070E085EE9EE046
:105110000E94BF1340E45FE160E070E08CEF9FE02D
:105120000E94BF1348EE53E060E070E08BE091E135
:105130000E94BF1380910F06811161C0EE24E39499
:1051400010E000E020E04091CE0E60E086E791E0C4
:105150000E943F6440E050E0BA018AEC9FE00E9468
:10516000BF13EB960FB6F894DEBF0FBECDBFDF9135
:10517000CF911F910F91FF90EF90DF90CF90BF9054
:10518000AF909F908F90089581E090E090932102DE
:10519000809320029CCD84EF91E033CE84E078CEE2
:1051A00080936C1910926D1910926F198091741977
:1051B000811186CE81E08093741982CE833031F0E4
:1051C000853009F071CF91E09093250280931E0203
:1051D000809377196CCF80932502F8CFEE24E39467
:1051E00010E000E020E04091CE0E60E08FE591E01D
:1051F0000E943F640E94BE5C0E94825D5ACF8091F3
:105200006C19813031F482E090E09093090680932C
:10521000080640EA5FE060E070E080E190E10E9413
:10522000BF1381E0809310069CCFCF93DF9300D013
:1052300000D01F921F92CDB7DEB718861F8286302E
:10524000910509F41EC150F58430910509F4D8C0C8
:105250008530910509F4F4C022E020935604909320
:105260005804809357046093590470935A0494E04F
:1052700090935B042093310C8093320C80915804FE
:105280008093330C6093340C7093350C9093360CF0
:1052900086E090E098878F8341E0C2C08E3B910505
:1052A00009F47AC18F3B910509F486C18D3B9105C4
:1052B00099F660EA78E0CE0101960E94184ECE0180
:1052C00001960E94104E8091D00E0E94D9602091CC
:1052D000EC093091EE0990916C199093D509909159
:1052E0000E029093D60990916E199093D7098093EE
:1052F000D9092E7F8091FA0580FB21F98091230244
:105300009091240268EE73E00E9423CE6093DA0944
:1053100080913E0580FB26F980912A0280FB27F9C7
:105320008091ED0990913B0290FB81F990913D05B0
:1053300090FB80F98093ED0980910F0680FB25F9A1
:105340008091070280FB22F980910D05277F80FF65
:1053500028602093EC09832F8F799091880390FB2C
:1053600083F99091F90490FB84F98093EE09809180
:105370001E0281118093D809809151028093DB092C
:1053800080911A028093DC09809119028093DD09D3
:10539000809116028093DE098091EC0990911D02A4
:1053A00090FB84F98093EC098091FD048093DF09E0
:1053B0008091ED0990911F0290FB82F99091EE0986
:1053C0002091220220FB90F99093EE099091260201
:1053D00090FB83F990914B0490FB84F98093ED0945
:1053E000809114028093E109809120029091210222
:1053F000009709F467C0019709F4C8C083E063C04F
:10540000E8E9F9E0A1E3BCE080EB99E021912D937C
:105410008E179F07D9F788E190E098878F8346E041
:10542000BE01695F7F4F81E39CE00E94F20A2896EB
:105430000FB6F894DEBF0FBECDBFDF91CF910895B8
:1054400022E020935C0490935E0480935D0484E0EA
:105450008093620480911A0280935F04109260042A
:10546000ECE5F4E0A1E3BCE083E694E021912D9328
:105470008E179F07D9F787E090E098878F8342E0E7
:10548000CFCF22E020935C0490935E0480935D0470
:1054900084E08093620480910D0280935F04809188
:1054A0004802809360048091470280936104ECE598
:1054B000F4E0A1E3BCE081918D9384E0E336F8074A
:1054C000D1F7D9CF81E08093E009809112028093D7
:1054D000E20980911C028093E30980911B02809372
:1054E000E409809115028093E50991E08091FB0425
:1054F000813009F090E08091ED0990FB85F9909161
:10550000FA0490FB86F98093ED0980914D04809315
:10551000E609809108028130D9F18230D9F181E029
:105520008093E7098091ED0990914C0490FB87F9F5
:105530008093ED09809152028093E8098091EE09F1
:105540009091370290FB81F9909118029093E909AC
:10555000909117029093EA09909113029093EB09AE
:105560009091000590FB82F98093EE09E5EDF9E05A
:10557000A1E3BCE081918D9389E0EF3EF807D1F77C
:105580008AE190E098878F8343E04ACF82E09BCF07
:1055900082E0C6CF83E0C4CFE5ECF9E0A1E3BCE054
:1055A00081918D9389E0E53DF807D1F780E190E0A6
:1055B00098878F8344E034CF69EB78E0CE01019681
:1055C0000E94184ECE0101960E94104E8091C30990
:1055D00090914A0290FB81F990914B0290FB82F9E5
:1055E00090914C0290FB83F990914D0290FB84F9CD
:1055F000282F80914E0280FB25F980912B029091FB
:105600002C02E8EEF3E0BF010E9423CE6093B909BB
:1056100080912D0290912E02BF010E9423CE6093B3
:10562000BA0980912F0290913002BF010E9423CECF
:105630006093BB098091310290913202BF010E94B8
:1056400023CE6093BC098091330290913402BF0154
:105650000E9423CE6093BD09822F90913C0290FB63
:1056600080F98093C30920910D0630910E062330F6
:105670003105C9F080648F778093C3098091C40994
:105680008C7F8B7F8093C4098EE18093BE0983E277
:105690008093BF0988E28093C00982E38093C109A7
:1056A0008CE38093C209E9EBF9E0A1E3BCE08191CE
:1056B0008D9389E0E53CF807D1F78CE090E098877E
:1056C0008F8345E0ADCE70E060E00C941529EF9239
:1056D0000F931F93CF93DF93CDB7DEB72F970FB6FE
:1056E000F894DEBF0FBECDBF6CE979E0CE01019624
:1056F0000E94184ECE0101960E94104E8091D5094D
:105700008230B1F081E080936C190E947D8B8BE830
:1057100090E00E9476188BE890E00E94632B8091C5
:10572000D6098330A9F180F5823091F181E030C053
:1057300080936C1910926D1910926F1980917419E1
:10574000811103C081E08093741984E890E00E9485
:10575000761884E890E00E94632B80910D0690916A
:105760000E060397E1F280916F198823C1F280E061
:105770000E94958B882399F260916F1970E080E107
:1057800091E00E941529CBCF843011F0853071F65D
:1057900080930E028091D709833009F4DBC08530F5
:1057A00009F4F5C0823009F0E3C080936E1980934C
:1057B000B50F81E08093FE0482E590E00E947618A8
:1057C00082E590E00E94632B8091D809823009F431
:1057D000F1C008F0EAC0813009F4F0C084E08093A1
:1057E0001E0282E0809377198091AB109091AC10EB
:1057F000892B09F0EAC081E0809325026EE779E009
:10580000CE0101960E94184ECE0101960E94104EC4
:105810008091EC0981FB992790F99093FA0590917A
:10582000DA0948EE53E0949F9001959F300D1124C2
:10583000309324022093230286FB992790F99093BA
:105840003E0587FB992790F990932A029091ED09E4
:1058500091FB222720F920933B02917090933D0504
:1058600085FB992790F990930F0682FB992790F971
:105870009093070283FB882780F991E08927809322
:105880000D058091DB09843229F0883219F08431CA
:1058900009F09EC08093510268E579E0CE0101963F
:1058A0000E94184ECE0101960E94104E2091DC09F4
:1058B00020931A029091DD09909319028091DE09DC
:1058C000809316028091EC098295817080931D026D
:1058D00081E03091DF09311101C080E08093FD0447
:1058E0008FEF89872F8398870E94BE6941E0BE01B0
:1058F000695F7F4F0E94B04F8091ED0982FB2227A4
:1059000020F920931F029091EE099170909322024A
:1059100083FB992790F9909326028295817080935A
:105920004B0484EF91E0211102C08CE291E090934E
:105930003602809335028091E109809314028091B0
:10594000E009813009F446C0823009F40FC182E0D9
:1059500090E00EC180936E198093B50F81E0809323
:10596000FE0483E590E00E94761883E590E02ACF5C
:1059700084E080936E198093B50F81E08093FE04DC
:1059800084E590E00E94761884E590E01BCF809338
:105990006E198093B50F81E08093FE0485E590E059
:1059A0000E94761885E590E00DCF833049F0853070
:1059B00009F014CF91E09093250202C08093250254
:1059C00080931E028093771919CF1092250216CF6B
:1059D0008CE060CF109221021092200262E379E005
:1059E000CE0101960E94184ECE0101960E94104EE3
:1059F0008091E209809312022091E30920931C0216
:105A00009091E40990931B028091E509809315021F
:105A10008091ED0986FB332730F93093FA043091F9
:105A2000E60930934D0487FB332730F930934C045B
:105A300085FB882780F98093FB048FEF8C872A876A
:105A40009B870E94BE6942E0BE01665F7F4F0E9455
:105A5000B04F8091E709823009F48FC0833009F498
:105A600090C01092080261E179E0CE0101960E9497
:105A7000184ECE0101960E94104E8091E809809345
:105A800052028091EE0981FB992790F99093370299
:105A90002091E909209318029091EA099093170246
:105AA0003091EB093093130282FB882780F98093B1
:105AB00000058FEF8F872D879E870E94BE6940E08B
:105AC000BE01635F7F4F0E94B04F8091EE098295C7
:105AD00081708093F90465EF78E0CE0101960E9411
