:100000000C9451080C9482080C9482080C94820879
:100010000C9482080C9482080C9482080C94820838
:100020000C9482080C9482080C9482080C94820828
:100030000C9482080C9482080C9482080C94820818
:100040000C9482080C9482080C9482080C94820808
:100050000C9482080C9482080C9482080C947E887C
:100060000C9482080C9429730C94FF720C948208EF
:100070000C9482080C9482080C9482080C948208D8
:100080000C9482080C9482080C9482080C948208C8
:100090000C94D5720C94AB720C9482080C9464137B
:1000A0000C9482080C9482080C9482080C948208A8
:1000B0000C9482080C9482080C9482080C94820898
:1000C0000C9482080C9482080C9482080C9481721F
:1000D0000C9457720C9482080C942D720C94037239
:1000E0000C94820805A84CCDB2D44EB93836A9027A
:1000F0000C50B9918688083CA6AAAA2ABE00000026
:10010000803F07634236B79BD8A71A39685618AEA6
:10011000BAAB558C1D3CB7CC5763BD6DEDFD753E3C
:10012000F6177231BF000000803F08000000BE9249
:100130002449123EABAAAA2ABECDCCCC4C3E00002C
:100140000080BEABAAAAAA3E00000000BF000000CB
:10015000803F0000000000084178D3BB4387D113E3
:100160003D190E3CC3BD4282AD2B3E68EC8276BE8B
:10017000D98FE1A93E4C80EFFFBE01C4FF7F3F0055
:10018000000000000C946BA60C94090A0C94AE5E5F
:100190000C94436B0C94D3A60C94E07B0C9461A05C
:1001A0000C9425A60C94412D0C94E29A0C94986F13
:1001B0000C94E0A80C94508A0C94E26D0C94BC7DD5
:1001C0000C9449A00C94F6940C94656B0C9445A285
:1001D0000C944A7E0C94538F0C94DF8F0C94315DF9
:1001E0000C9435950C9491610C9485A60C942E7CFE
:1001F0000C94DB7A0C94179C0C94ED610C947B8C22
:100200000C94A10B0C94E96D0C94FA5D0C94AD0860
:100210000C94AB080C9484610C94B26D0C9451A6B0
:100220000C9409A20C9423700C94335E0C9448A88F
:100230000C94E38C0C94D88E0C94E57A0C946A9A06
:100240000C94C07D0C94EE6A0C948B5F0C9421840A
:100250000C949E610C94A4610C94E49E0C9474A97B
:100260000C942D5D0C94E46D0C94608A0C94229196
:100270000C94608C0C9441790C94A0A90C948C5D26
:100280000C940E9A0C9468A10C946A930C94356F9C
:100290000C9442700C94AF610C943C9B0C94CC9DDC
:1002A0000C94140A0C94B2A80C94399E0C94A86176
:1002B0000C94CD8A0C94A38E0C94605D0C94878D65
:1002C0000C940F7C0C94578A0C9447840C94D4A102
:1002D0000C9451960C94219D0C94AB7D0C94A170C0
:1002E0000C948DA40C9498920C94E85E0C94918FCD
:1002F0000C94B8940C94515D0C94C97B0C94A1A5FA
:100300000C94007B0C945F8F0C94127C0C945B918A
:100310000C943C9A0C946A8C0C94BE920C94EF83CF
:100320000C94989A0C94FE5E0C94F76E0C94388D95
:100330000C94318E0C942B6E0C94509B0C940E7B71
:100340000C9434940C942EA10C94905E0C94370A67
:100350000C9498940C94902B0C94AEA80C942A7C3A
:100360000C94E39C0C945A0C0C9430930C94DA9AF1
:100370000C94CDA50C94698B0C9408700C949DA2E0
:100380000C9404A30C940FBE0C9488A30C94729B41
:100390000C944F970C94D0080C94D8A20C94E9615B
:1003A0000C943B9D0C94E52C0C948BA50C94E209C9
:1003B0000C94086C0C94308B0C940D8F0C94129947
:1003C0000C94EC890C9450610C9423A40C94AE937F
:1003D0000C94AE6E0C945C920C947A8B0C94F2A8F4
:1003E0000C947D8F0C949E0B0C94A48A0C94897BA6
:1003F0000C94A17D0C94108F0C947D9C0C94BD9555
:100400000C94C68A0C947E930C94FD950C94A7953D
:100410000C94997B0C94EDA60C94DE9A0C944D7977
:100420000C94D36D0C9431A70C9406600C945B9CD7
:100430000C94559D0C949D8B0C94AC080C94AE08B8
:100440000C94837B0C94908A0C945BA20C949FA6D2
:100450000C941B7B0C94098D0C94B4990C94D25C75
:100460000C94D57D0C94DC8A0C94658C0C94576E9E
:100470000C94D76E0C9477610C94D48A0C946C5DB8
:100480000C9400620C94388C0C94C45F0C9485918D
:100490000C946A840C94D97D0C94F35E0C949B8C20
:1004A0000C94E0A40C94179E0C94207B0C94AF8FBA
:1004B0000C94767D0C948E5F0C94C19C0C94987D6A
:1004C0000C94172C0C94D47B0C941C7B0C941A8DDC
:1004D0000C94C67D0C9474930C94647C0C945D2CE9
:1004E0000C9460920C949F7B0C94B9A60C94F65ECD
:1004F0000C940A6E0C9456790C94A40B0C94068BF5
:100500000C9456840C94AAA90C94F65C0C94F9A54E
:100510000C94949B0C94B39B0C94327C0C943AA551
:100520000C94BE8F0C945B950C9494700C94EEA379
:100530000C94C27D0C94AD7D0C94100A0C94279EF3
:100540000C94EB790C94B45E0C9404090C947F9297
:100550000C949A910C94FA7A0C945D7C0C94885FBC
:100560000C94F6830C94145D0C9427960C947F0ADB
:100570000C94FEA40C947D0A0C94BA8F0C94426ED9
:100580000C94D3950C9408910C948E7D0C94E55F9B
:100590000C949F9C0C94D7080C94A57D0C94FD6D35
:1005A0000C94120A0C9456930C941C9B0C948996F0
:1005B0000C94A1790C9497A70C9426A90C945CA395
:1005C0000C94A97D0C94AC8C0C94415D0C94D28C51
:1005D0000C9415910C94878C0C94666E0C943E8C44
:1005E0000C9403940C947B7D0C942A7E0C9471A241
:1005F0000C94E3A50C944D6C0C94FD090C9474843C
:100600000C94FB830C9432910C943B8C0C94087BDF
:100610000C94D77D0C94C3930C948B8B0C94E79D16
:100620000C947D7B0C941E7E0C942F910C94D09A8C
:100630000C9430A30C94A1610C949EA30C94F67AB4
:100640000C94449B0C94B7610C945B930C94F59BB5
:100650000C94C2A40C9405840C9458A40C94447C6F
:100660000C94957D0C940E0A0C94807D0C944B9EFA
:100670000C9412920C94A77D0C94E75B0C9460840C
:100680000C94E0990C94AA5F0C9433090C94B40E6A
:100690000C943BA60C94966D0C9431A00C94F86DC0
:1006A0000C947E840C94BE7B0C94ED7A0C941571A2
:1006B0000C941CA50C94B7A50C9483930C94399CB2
:1006C0000C940F840C94BB6B0C94B6A80C94BF983C
:1006D0000C9427600C9456940C94CD5C0C948884F4
:1006E0000C9479A00C946F7D0C9475A70C94B4A312
:1006F0000C94E4920C94C69A0C9487A20C949B7D63
:100700000C940FA60C9475A50C94869F0C949D7D5B
:100710000C9431890C94B37B0C94955D0C94659387
:100720000C94C47D0C940C6E0C94EC5E0C94EC7BDD
:100730000C94D6610C9488930C9429790C94576B83
:100740000C9479930C944D7C0C94D2A70C94810A50
:100750000C94DDA90C94A37D0C9429840C94E17A6B
:100760000C94127B0C94D78D0C94A42C0C94C16D1A
:100770000C94F59C0C9472A30C94DE5C0C946A7D32
:100780000C944D990C94047B0C946C980C9460938D
:100790000C94F66D0C948AA90C94567C0C94C89D0C
:1007A0000C9458920C94F18A0C94409B0C9484798C
:1007B0000C94DC8F0C94C49D0C94132D0C943591E7
:1007C0000C940FA70C9427A20C948F7B0C94198483
:1007D0000C94D39B0C94EEA20C940DA80C94CB2BF0
:1007E0000C94167B0C9470910C94538E0C9446A32D
:1007F0000C9469920C94B15E0C94176E0C94346B4B
:100800000C940CA90C94917D0C94BD8C0C944860B4
:100810000C94E97A0C942B8D0C94E1900C94009B31
:100820000C9419A00C94FB7D0C940D8E0C947A0AF8
:100830000C94A80B0C94E70A0C942E950C948A7DCA
:100840000C9440A90C9433840C94FF9D0C941AA32F
:100850000C9472940C944F8C0C9453A70C94F07AD3
:100860000C94F05E0C94358F0C941B8B0C94F88CCC
:100870000C94BD080C940A930C949F7D0C946B6FA0
:100880000C9481950C949B6D0C94CA990C946F9365
:100890000C946F9D0C943D84C4DFE9EFF3F6F9FBF3
:1008A000FDFE000102030405060708090A32002DB7
:1008B000280023001E0000190000140000000F0093
:1008C000000000000A0000000000000000000564B5
:1008D0005F5A55504B46413C3732002D28002300CB
:1008E0001E0000190000140000000F0000000000AE
:1008F0000A0000000000000000000532373C4146BD
:100900004B50555A5F645761726E696E673A204367
:10091000616C63756C61746564206D7573696320C7
:10092000636F756E742065786365656473206D61AF
:1009300078696D756D20706F737369626C653B20AB
:100940005344206361726420636F727275707469BE
:100950006F6E206C696B656C7921005761726E69EE
:100960006E673A20547261636B20636F756E7420FA
:10097000646F6573206E6F74206D617463682066A8
:1009800069726D776172652120506C6561736520B5
:1009900075706461746520746865206D6963726F39
:1009A0005344206361726420736F756E64206566C2
:1009B00066656374732E00010203040506070809C7
:1009C0000A0B0C0D0E0F101112131415161718190F
:1009D0001A1B1C1D1E1F2021222324252627280127
:1009E0000203040506070809000A0B0C0D0E0F1080
:1009F000111200131415161718191A1B001C1D1EAE
:100A00001F2021222324000102030405000000000E
:100A100000060708090A00000000000B0C0D0E0F6D
:100A2000000000000010111213140000000000016B
:100A300002030000000000000004050600000000A2
:100A4000000000070809000000000000000A0B0C6D
:100A50000000000000000001000000000000000095
:100A60000002000000000000000000030000000081
:100A70000000000000040000000000000000000072
:100A80001C120A041F160D02110C07010A070400AC
:100A90000A121C040D161F02070C110104070A415B
:100AA0007474656E7561746F722053796E6320453E
:100AB0006E6400417474656E7561746F7220537951
:100AC0006E63205374617274005468656D652063B1
:100AD00068616E67656420746F2046726F7A656E18
:100AE00020456D70697265202832303234290054F7
:100AF00068656D65206368616E67656420746F204A
:100B000041667465726C696665202832303231291D
:100B1000005468656D65206368616E676564207464
:100B20006F2047423220283139383929005468650E
:100B30006D65206368616E67656420746F2047424D
:100B4000312028313938342900417474656E75615B
:100B5000746F722053796E6368726F6E697A656420
:100B60000047657474696E67205061636B20507232
:100B700065666572656E6365730047657474696E5A
:100B80006720536D6F6B6520507265666572656E88
:100B900063657300436F6D6D616E6420746F2057E1
:100BA000616E643A200057616E642053796E632051
:100BB000456E640057616E642053796E63205374F0
:100BC000617274004E6F20417564696F20446576D0
:100BD000696365005761726E696E673A20525350BF
:100BE0005F53595354454D5F494E464F206E6F74C5
:100BF00020726563656976656421005573696E6767
:100C000020574156205472696767657200557369B1
:100C10006E672047505374617220417564696F207C
:100C200056657273696F6E3A2000C4D5DFE5E9EC52
:100C3000EFF1F3F4F6F7F8F9FAFBFCFDFEFF0043E1
:100C40006F6E66696775726520506F776572204DAB
:100C50006574657200556E61626C6520746F206604
:100C6000696E6420706F776572206D6F6E69746F46
:100C700072696E6720646576696365206F6E2069AE
:100C800032632E20506F776572206D657465722017
:100C900066656174757265732077696C6C20626536
:100CA0002064697361626C65642E00506F776572B1
:100CB000204D6574657220526573756C743A20001E
:100CC000496E697420706F776572206D6574657206
:100CD0002E2E2E004552524F523A204E6F20636105
:100CE0006C6C6261636B20617661696C61626C65DA
:100CF00020666F72207061636B6574204944200028
:100D0000000000006410B71DC8206E3BAC30D9262F
:100D10009041DC76F4516B6B5861B24D3C710550DB
:100D20002083B8ED44930FF0E8A3D6D68CB361CB03
:100D3000B0C2649BD4D2D38678E20AA01CF2BDBDB7
:100D400057616E642053796E6368726F6E697A655D
:100D50006400526563762E2057616E6420536D6F78
:100D60006B6520507265667300526563762E20575E
:100D7000616E6420436F6E666967205072656673AA
:100D800000526563762E2057616E64204461746161
:100D90003A2000526563762E2057616E6420436FBF
:100DA0006D6D616E643A2000536176696E67205301
:100DB0006D6F6B6520507265666572656E636573F5
:100DC00000536176696E672057616E6420507265CA
:100DD000666572656E63657300436F6D706C6574F4
:100DE000656420757064617465206F66207061634E
:100DF0006B2073657474696E67730052756E6E69EB
:100E00006E67207570646174652066756E637469C1
:100E10006F6E732E2E2E005570646174696E67209C
:100E2000706F7765722063656C6C207661726961A2
:100E3000626C65732E2E2E005570646174696E6746
:100E400020696E6E6572206379636C6F74726F6E69
:100E5000207661726961626C65732E2E2E0055706A
:100E6000646174696E67206F75746572206379635D
:100E70006C6F74726F6E207661726961626C6573FB
:100E80002E2E2E005570646174696E672067656E42
:100E90006572616C207661726961626C65732E2E79
:100EA0002E00536176696E67205061636B2050722B
:100EB00065666572656E63657300526563762E20A4
:100EC000536D6F6B6520436F6E6669670052656393
:100ED000762E2057616E6420436F6E6669670052FC
:100EE0006563762E205061636B20436F6E66696781
:100EF00000526563762E20417474656E7561746F5F
:100F000072204D6573736167653A200052656376A0
:100F10002E20417474656E7561746F7220436F6D1D
:100F20006D616E643A2000000102030405060708A3
:100F3000090A0B0C0D0E000102030405060708093F
:100F40000A0B0C0E0D0C0B0A090807060504030218
:100F500001000C0B0A09080706050403020100B88A
:100F60000BB80BAC0DAC0DA00F3075983A10274C98
:100F70001D70173D006401650166016701000021D5
:100F800000240027002A002D00300033000101005A
:100F900000040107010A0100002200250028002B9F
:100FA000002E003100340002010000050108010B91
:100FB00001000020002300260029002C002F003211
:100FC00000000100000301060109010505050507F0
:100FD0000508080808020202020A0A0808040404B4
:100FE00004010101010101010103030303030303E0
:100FF00003040707070C0C0C0C0C0C0C0C0202026F
:101000000206060606060606060B0B0B0B0B0B0B61
:101010000B01021020200808102040102040800200
:10102000010201080402010102040810204080802E
:1010300040201008040201800402018040201008B2
:10104000040201080402010102040810204080018A
:101050000204081020408000000A0B02090C0D0E4B
:101060000807030401000000000000000000000069
:101070000000000000000000000000000000000070
:10108000000000121110000000000000000000002D
:1010900000000000000000000000000000000FBE83
:1010A000318911241FBECFEFD1E2DEBFCDBF00E0FA
:1010B0000CBF13E0A0E0B2E0E8EBF4E901E00BBF05
:1010C00002C007900D92A63EB107D9F729E1A6EE1E
:1010D000B3E001C01D92AD3AB207E1F718E0C0E5F8
:1010E000D8E000E006C021970109802FFE010E9490
:1010F000B4C4CF34D10780E00807A9F70E9435892E
:101100000C944ACA0C94000020915905260F3327ED
:10111000331F21323105ECF420916807FC0190E087
:1011200080E0243069F082E00895A0915905219172
:10113000AC01495C5A4FA40FB52FB11D2C930196F9
:10114000861798F380915905680F6093590580E0E0
:10115000089581E00895089508950895E091210784
:1011600080912007E81730F4F0E0EE5DF84F8081C1
:1011700090E008958FEF9FEF08959091210780915F
:1011800020072FEF3FEF981748F4E92FF0E0EE5DCE
:10119000F84F208130E09F5F90932107C9010895A7
:1011A0008091200790912107891B990B0895CF9278
:1011B000DF92EF92FF920F931F93CF93DF937C0107
:1011C000CB018A0120919007222389F0EB016B016A
:1011D000C40ED51ECC15DD0569F06991D701ED91DE
:1011E000FC910190F081E02DC7011995F3CF642F98
:1011F0000E948408C801DF91CF911F910F91FF9049
:10120000EF90DF90CF900895CF93DF931F92CDB7EB
:10121000DEB76983209190072223F9F020918E0791
:10122000203258F021E030E0FC013383228390E04B
:1012300080E00F90DF91CF91089580918F07E82F84
:10124000F0E0E259F84F998190838F5F80938F0788
:1012500080938E0781E090E0ECCF61E0CE010196B3
:101260000E948408F7CF90E080E00895FC01208977
:101270003189848595852817390741F481E04289B1
:101280005389268537854217530709F080E0089572
:10129000FC0120893189868597852817390741F413
:1012A00081E042895389248535854217530709F027
:1012B00080E00895AF92BF92CF92DF92EF92FF92BB
:1012C0000F931F93CF93DF9300D0CDB7DEB75A01B2
:1012D00019821A821B82882361F18B01E1E0F0E020
:1012E000E82EF12CD8012D918D012223F1F06F0110
:1012F000B1E0CB1AD108D501AC0DBD1D4C914423F2
:10130000A1F030E02F5F3F4FD7010E9461C4A42FAE
:10131000B0E011969B01AC010E942CC4A1E0B0E0AA
:10132000AC0FBD1FAC0DBD1D8C933196E430F105A3
:10133000C9F669817A818B810F900F900F90DF91B0
:10134000CF911F910F91FF90EF90DF90CF90BF90C2
:10135000AF900895FC018CE293E091838083138227
:1013600012828FEF86838783808781878287838736
:1013700081E0848785871786168680E797E1918BC1
:10138000808B83E090E0938B828B158A148A158280
:1013900014828091A7079091A807892B21F4F093DC
:1013A000A807E093A707A0913405B09135051097E1
:1013B00021F01596FC93EE931497F0933505E09386
:1013C0003405089581E090E00895982FE62F603469
:1013D00011F4E0915719F0E03197E730F10578F416
:1013E0008827EA50F64F8F4F0C94B4C4FD09090AC0
:1013F0000E0A370A100A120A140A83E1089593307C
:1014000011F1953081F1911134C084E108958DE09E
:10141000089580915519833071F508958BE00895F2
:1014200089E1089588E10895923049F020F49923E4
:1014300041F08EE10895933031F09430D1F78FE18F
:1014400008958DE108958091A4078F5F853068F439
:10145000982F937051F08093A4078091A407813056
:10146000E9F28230A1F681E0089581E0F4CF8CE1C9
:10147000089585E008958FE008950F931F93CF930B
:10148000DF93209133052F5F322F37703093330570
:1014900020FF2BC020E831FD2064347009F0206269
:1014A000205FFC01EC01239600E011E067856623D4
:1014B00029F070E0C8010E94A0C46F5F6187822F8D
:1014C000869F080E80E0811D1124811110C01682B4
:1014D000662311F0615061873196EC17FD0731F7F3
:1014E000DF91CF911F910F91089520E0D4CF8150CB
:1014F0008683EECF80E991E00895209A0895279A97
:1015000008956F927F928F92CF92DF92EF92FF9227
:101510000F931F93CF93DF93CDB7DEB762970FB6CC
:10152000F894DEBF0FBECDBF8C016B017A01822F14
:10153000A801475F5F4FB8016A5F7F4F0E945A0959
:101540003B01882ED8011C962C91C701F7FE04C0E0
:10155000882799278E199F09DA82C9829C838B83F9
:101560009E838D83688A798A8A8A213049F5CE01E3
:1015700001960E943D0A83E08D871F861E86F7FE36
:1015800002C08DEF8D87D801ED91FC910088F18923
:10159000E02DBE016F5F7F4FC801199562960FB6AF
:1015A000F894DEBF0FBECDBFDF91CF911F910F9199
:1015B000FF90EF90DF90CF908F907F906F90089585
:1015C0001C861B861A86198618861F82D4CFCF9256
:1015D000DF92EF92FF920F931F93CF93DF93CDB7DC
:1015E000DEB762970FB6F894DEBF0FBECDBF8C0199
:1015F0006B017A01822FA801475F5F4FB8016A5FD4
:101600007F4F0E945A099B01482FD8011C968C914C
:10161000DA82C982FC82EB82FE82ED82288B398BD2
:101620004A8B813009F5CE0101960E943D0A1D8644
:101630001F861E86D801ED91FC910088F189E02D6E
:10164000BE016F5F7F4FC801199562960FB6F8947F
:10165000DEBF0FBECDBFDF91CF911F910F91FF90E5
:10166000EF90DF90CF9008951C861B861A8619860E
:1016700018861F82DCCF843008F080E09091E6026B
:10168000E82FF0E080915302882399F0943141F0E3
:10169000983261F09C3039F4E556F54F8491089505
:1016A000E956F54FFBCFED56F54FF8CFE157F54F23
:1016B000F5CF943139F0983259F09C3031F4E55738
:1016C000F54FECCFE957F54FE9CFED57F54FE6CFA2
:1016D000E158F54FE3CFE82F80912304882391F060
:1016E0001E163CF40E2E000CFF0BE550F74F8491B4
:1016F0000895EF3D94F0FF27E1950CF4F095E35544
:10170000F74FF5CFE53D4CF01E164CF0FF27E19565
:101710000CF4F095E153F74FEACF80E0089584E6AA
:101720000895853608F084E62FEF829FC0011124CA
:1017300064E670E00E94A0C4862F089590E080E0E7
:101740000895FC0164870895FC01848590E0089564
:10175000FC018685978508950F931F93CF93DF93A0
:10176000EC018C01055E1D4FD8018D919C91DC012F
:10177000ED91FC910084F185E02D1995892B59F0AC
:10178000F80180819181DC01ED91FC910284F38567
:10179000E02D1995E9CFCE010E947B78FE01E65E2F
:1017A000FD4FCD5FDD4F88818083DF91CF911F9109
:1017B0000F9108951092680781E080936707109257
:1017C000420761E084E10E94518361E085E10E946B
:1017D0005183E9EBF0E080818E7F808380818D7F73
:1017E000808388E48093B80085E48093BC000895EA
:1017F000CF92DF92EF92FF920F931F93CF93DF93DD
:10180000EC0188810E9428838C010E9462872C89C8
:101810003D892017310731F06E8B7F8B888F998F30
:101820001D8B0C8BCE88DF88E88CF98C6C197D09B8
:101830008E099F09CA80DB80EC80FD806C157D05D8
:101840008E059F0530F08A899B89998B888B1B8B2D
:101850000A8B288939898A899B892817390781F059
:101860004A855B8542305105A1F48E819F81A88510
:10187000B9850196A11DB11D8E839F83A887B98765
:10188000DF91CF911F910F91FF90EF90DF90CF905C
:1018900008954115510531F42130310589F7892B1F
:1018A00021F3EECF4130510559F7232B49F701972A
:1018B00039F7DBCF4F925F927F928F929F92AF92D8
:1018C000BF92CF92DF92EF92FF920F931F93CF932D
:1018D000DF932C01EB010E948D84F2012689378968
:1018E000621B730B6A307105B0F3F8948A819B8197
:1018F000181619060CF0CDC1E881F98165B1862E64
:10190000689480F835B13E7F35B9DA848F812D2D0A
:10191000281B822F2F834C85042E000C550BAA8187
:10192000BB817889FF84E9887F5FF394E3949E818B
:101930009884B984AB841181C12C6C2D0C2D2C2D75
:101940002181112788942111280F08F42FEF819508
:10195000889470FD120F1795889471FD120F1795DA
:10196000889472FD120F1795889473FD120F1795C6
:10197000889474FD120F1795889475FD120F1795B2
:10198000889476FD120F1795889477FD120F17959E
:101990008894622F7111612F8D0D162F002C85B840
:1019A00000C017FF35B920816627889400C000C0A9
:1019B000002C35B92111290F00C0002C85B800C0BA
:1019C00016FF35B908F42FEF9195889400C000C038
:1019D000002C35B9F0FC620F00C0002C85B800C0A7
:1019E00015FF35B967958894F1FC620F00C000C0FF
:1019F000002C35B96795889400C0002C85B800C0CC
:101A000014FF35B9F2FC620F6795889400C000C0DE
:101A1000002C35B9F3FC620F00C0002C85B800C063
:101A200013FF35B967958894F4FC620F00C000C0BD
:101A3000002C35B96795889400C0002C85B800C08B
:101A400012FF35B9F5FC620F6795889400C000C09D
:101A5000002C35B9F6FC620F00C0002C85B800C020
:101A600011FF35B967958894F7FC620F00C000C07C
:101A7000002C35B96795889400C0002C85B800C04B
:101A800010FF35B9122FF110162F9B0D00C000C0AA
:101A9000002C35B900C000C0002C85B800C017FF6D
:101AA00035B922816627889400C000C0002C35B962
:101AB0002111290D00C0002C85B800C016FF35B9D2
:101AC00008F42FEFE40FF51F00C000C0002C35B95B
:101AD000E0FC620F00C0002C85B800C015FF35B9CE
:101AE00067958894E1FC620F00C000C0002C35B9F6
:101AF0006795889400C0002C85B800C014FF35B9E4
:101B0000E2FC620F6795889400C000C0002C35B9D4
:101B1000E3FC620F00C0002C85B800C013FF35B98C
:101B200067958894E4FC620F00C000C0002C35B9B2
:101B30006795889400C0002C85B800C012FF35B9A5
:101B4000E5FC620F6795889400C000C0002C35B991
:101B5000E6FC620F00C0002C85B800C011FF35B94B
:101B600067958894E7FC620F00C000C0002C35B96F
:101B70006795889400C0002C85B800C010FF35B967
:101B8000122FE110162F919400C000C0002C35B91F
:101B90009A0C00C000C085B800C017FF35B921817C
:101BA0006627889400C000C0002C35B92111280F89
:101BB00000C0002C85B800C016FF35B908F42FEF1F
:101BC0008195889400C000C0002C35B970FD620F6B
:101BD00000C0002C85B800C015FF35B96795889402
:101BE00071FD620F00C000C0002C35B96795889464
:101BF00000C0002C85B800C014FF35B972FD620F1B
:101C00006795889400C000C0002C35B973FD620F41
:101C100000C0002C85B800C013FF35B967958894C3
:101C200074FD620F00C000C0002C35B96795889420
:101C300000C0002C85B800C012FF35B975FD620FD9
:101C40006795889400C000C0002C35B976FD620FFE
:101C500000C0002C85B800C011FF35B96795889485
:101C600077FD620F00C000C0002C35B967958894DD
:101C700000C0002C85B800C010FF35B9122F7111BB
:101C8000162F8D0D00C000C0002C35B9119709F03A
:101C900086CEEA81FB812EE130E0DF010E94BCC4E8
:101CA00030E020E0A901AAE9EA9F0E0E411DFA9F4B
:101CB000400D511D11244F0F511DDC01CB01840F2C
:101CC000951FA11DB11D893E43E09407A105B105F3
:101CD00008F434C0885E9340A109B10942E0B6958A
:101CE000A795979587954A95D1F747E0849F080E69
:101CF000211D949F200D311D1124290F311D60914C
:101D0000320570E0860F971F820F931F40911C07CA
:101D100050911D0760911E0770911F07292F3327CF
:101D2000420F531F611D711D40931C0750931D07E7
:101D300060931E0770931F078093320578940E946A
:101D40008D84F201778B668BDF91CF911F910F917C
:101D5000FF90EF90DF90CF90BF90AF909F908F90CB
:101D60007F905F904F9008954F925F927F928F92F5
:101D70009F92AF92BF92CF92DF92EF92FF920F931A
:101D80001F93CF93DF932C01EB010E948D84F2010E
:101D900026893789621B730B6A307105B0F3F8949A
:101DA0008A819B81181619060CF0CDC1E881F98152
:101DB00065B1862E689487F835B13F7735B9DA84F6
:101DC0008F812D2D281B822F2F834C85042E000CF4
:101DD000550BAA81BB817889FF84E9887F5FF394E2
:101DE000E3949E819884B984AB841181C12C6C2DBD
:101DF0000C2D2C2D2181112788942111280F08F4F6
:101E00002FEF8195889470FD120F1795889471FDBE
:101E1000120F1795889472FD120F1795889473FD11
:101E2000120F1795889474FD120F1795889475FDFD
:101E3000120F1795889476FD120F1795889477FDE9
:101E4000120F17958894622F7111612F8D0D162F27
:101E5000002C85B800C017FF35B92081662788940B
:101E600000C000C0002C35B92111290F00C0002C82
:101E700085B800C016FF35B908F42FEF9195889406
:101E800000C000C0002C35B9F0FC620F00C0002C6F
:101E900085B800C015FF35B967958894F1FC620FCD
:101EA00000C000C0002C35B96795889400C0002C94
:101EB00085B800C014FF35B9F2FC620F67958894AD
:101EC00000C000C0002C35B9F3FC620F00C0002C2C
:101ED00085B800C013FF35B967958894F4FC620F8C
:101EE00000C000C0002C35B96795889400C0002C54
:101EF00085B800C012FF35B9F5FC620F679588946C
:101F000000C000C0002C35B9F6FC620F00C0002CE8
:101F100085B800C011FF35B967958894F7FC620F4A
:101F200000C000C0002C35B96795889400C0002C13
:101F300085B800C010FF35B9122FF110162F9B0D78
:101F400000C000C0002C35B900C000C0002C85B80E
:101F500000C017FF35B922816627889400C000C0F1
:101F6000002C35B92111290D00C0002C85B800C006
:101F700016FF35B908F42FEFE40FF51F00C000C0BD
:101F8000002C35B9E0FC620F00C0002C85B800C001
:101F900015FF35B967958894E1FC620F00C000C059
:101FA000002C35B96795889400C0002C85B800C016
:101FB00014FF35B9E2FC620F6795889400C000C039
:101FC000002C35B9E3FC620F00C0002C85B800C0BE
:101FD00013FF35B967958894E4FC620F00C000C018
:101FE000002C35B96795889400C0002C85B800C0D6
:101FF00012FF35B9E5FC620F6795889400C000C0F8
:10200000002C35B9E6FC620F00C0002C85B800C07A
:1020100011FF35B967958894E7FC620F00C000C0D6
:10202000002C35B96795889400C0002C85B800C095
:1020300010FF35B9122FE110162F919400C000C087
:10204000002C35B99A0C00C000C085B800C017FF3D
:1020500035B921816627889400C000C0002C35B9AD
:102060002111280F00C0002C85B800C016FF35B91B
:1020700008F42FEF8195889400C000C0002C35B97A
:1020800070FD620F00C0002C85B800C015FF35B987
:102090006795889471FD620F00C000C0002C35B9AF
:1020A0006795889400C0002C85B800C014FF35B92E
:1020B00072FD620F6795889400C000C0002C35B98E
:1020C00073FD620F00C0002C85B800C013FF35B946
:1020D0006795889474FD620F00C000C0002C35B96C
:1020E0006795889400C0002C85B800C012FF35B9F0
:1020F00075FD620F6795889400C000C0002C35B94B
:1021000076FD620F00C0002C85B800C011FF35B904
:102110006795889477FD620F00C000C0002C35B928
:102120006795889400C0002C85B800C010FF35B9B1
:10213000122F7111162F8D0D00C000C0002C35B963
:10214000119709F086CEEA81FB812EE130E0DF01B4
:102150000E94BCC430E020E0A901AAE9EA9F0E0E6B
:10216000411DFA9F400D511D11244F0F511DDC01DF
:10217000CB01840F951FA11DB11D893E43E094073B
:10218000A105B10508F434C0885E9340A109B109E6
:1021900042E0B695A795979587954A95D1F747E080
:1021A000849F080E211D949F200D311D1124290F9D
:1021B000311D6091320570E0860F971F820F931FCB
:1021C00040911C0750911D0760911E0770911F07D9
:1021D000292F3327420F531F611D711D40931C0788
:1021E00050931D0760931E0770931F07809332055D
:1021F00078940E948D84F201778B668BDF91CF916A
:102200001F910F91FF90EF90DF90CF90BF90AF9014
:102210009F908F907F905F904F9008950F931F93A2
:10222000CF93DF9300D000D0CDB7DEB78FEF9FEF15
:10223000DC0189839A83AB83BC8310E000E01E83BA
:102240000D83BE016B5F7F4FCE0101960E945373D9
:10225000BE016A5F7F4FCE0101960E9453730F5FEC
:102260001F4F0333110559F78DE190E09E838D8355
:10227000BE016B5F7F4FCE0101960E945373BE017A
:102280006A5F7F4FCE0101960E94537386E190E012
:102290009E838D83BE016B5F7F4FCE0101960E94AE
:1022A0005373BE016A5F7F4FCE0101960E94537344
:1022B00069817A818B819C816095709580959095DC
:1022C00026960FB6F894DEBF0FBECDBFDF91CF913B
:1022D0001F910F910895FF920F931F93CF93DF9358
:1022E000EC01F62E08811981C8010E94F7C3F81687
:1022F00021F06F2DC8010E94FFC3CE01DF91CF9165
:102300001F910F91FF900895EF92FF920F931F93EB
:10231000CF93DF9300D000D0CDB7DEB70E940E116F
:1023200069837A838B839C83CE0101967C010CEFB9
:102330001FE01E830D83F70161917F01CE01059699
:102340000E946B110F5F1F4F0115F0E11F0789F706
:1023500026960FB6F894DEBF0FBECDBFDF91CF91AA
:102360001F910F91FF90EF9008958F929F92AF92DF
:10237000BF92CF92DF92EF92FF920F931F93CF9372
:10238000DF931F921F92CDB7DEB78C0119828FEFBA
:102390008A83680125EEC21A2DEFD20AD6018D91EB
:1023A0009C91DC01ED91FC910084F185E02D199563
:1023B000F801E75EFD4F7F01892B09F449C081E0F8
:1023C00089834801FDEF8F1A9F0A580126EEA21A51
:1023D0002DEFB20AD6018D919C91DC01ED91FC911B
:1023E0000084F185E02D1995892B09F1F601808192
:1023F0009181DC01ED91FC910284F385E02D19952A
:102400008A83AE014F5F5F4FBE016E5F7F4FC80191
:102410000E94B378F7018083D4018C91F501808309
:102420008330C1F218161CF0C8010E94AC0BF701F2
:1024300080810F900F90DF91CF911F910F91FF90AE
:10244000EF90DF90CF90BF90AF909F908F900895C6
:10245000AE014F5F5F4FBE016E5F7F4FC8010E94AC
:10246000B378D7018C93F801ED5FFD4F80817796AB
:102470008083D8CFBF92CF92DF92EF92FF920F93DB
:102480001F93CF93DF931F92CDB7DEB78C016B0103
:10249000B42EDB018D919C91F801E15FFD4F7F012E
:1024A0008F3F910508F475C08FEF80836801F801B4
:1024B00080E091919E3709F067C0D7018C934CE37F
:1024C00053E0B801C8010E9493784091210A5091CD
:1024D000220A980122503F4F80E0D601ED916D0114
:1024E000E827E40FF52FF11D80812A173B07A9F794
:1024F000F801E350FE4FB082F7019081F801E250FD
:10250000FE4F90839EEF31969083319680838EEFBD
:10251000F82E6801B5EECB1ABDEFDB0AF60180811B
:102520009181B80164507E4FDC01ED91FC910280F5
:10253000F381E02D44E050E01995F601808191810E
:102540004F2D50E0DC01ED91FC910280F381E02DF4
:10255000B8011995F60180819181B8017E5FDC0197
:10256000ED91FC910280F381E02D42E050E019955D
:102570008F2D0F90DF91CF911F910F91FF90EF90D2
:10258000DF90CF90BF9008958F5F8E3F09F091CF7D
:1025900096CF982F8FEF8083F80180E0891728F479
:1025A00021912E3719F5F7018083D6018C9189830B
:1025B000AE014F5F5F4FB801C8010E949378F601EA
:1025C000208131814091210A5091220AD80180E076
:1025D0003327BD01601B710B6217730748F4ED913F
:1025E000E827E40FF52FF11D8081F3CF8F5FD6CF61
:1025F000F801E350FE4FB082D7019C913196908351
:10260000F6019081F801E150FE4F9083319680836E
:10261000D601FC907ECFCF93DF9391E09093360567
:102620008823B9F0C091B800D091BA008091BC0065
:102630008A7B8093BC0060E084E10E94518360E06B
:1026400085E10E9451830E94DA0BD093BA00C093B7
:10265000B800DF91CF91089585ED8093BC00809103
:102660006A0790916B07A0916C07B0916D07079670
:10267000A11DB11D23E0B695A795979587952A953D
:10268000D1F72091BC0024FD03C010926807089583
:1026900040916A0750916B0760916C0770916D07CC
:1026A000452B462B472B69F30097A105B10541F057
:1026B0002AE22A95F1F700C00197A109B109E1CFFB
:1026C000809169070C940B131F920F920FB60F9213
:1026D00011240BB60F922F933F934F935F936F93F9
:1026E0007F938F939F93AF93BF93EF93FF938091CB
:1026F000B900887F803609F44DC008F040C08832A8
:1027000009F4A9C028F5803109F49DC0C8F48823D4
:1027100009F4FBC0883009F496C0FF91EF91BF9196
:10272000AF919F918F917F916F915F914F913F9169
:102730002F910F900BBE0F900FBE0F901F9018950A
:10274000883109F488C0803241F78093660714C04D
:10275000803409F49DC040F48033B9F38833E9F63E
:102760008093660785ECB0C0803509F485C0883554
:1027700009F496C0883489F60E942C13CECF88398C
:1027800009F48CC038F5883729F050F4883611F0F8
:10279000803719F683E08093680710927D0557C053
:1027A000883809F47BC0803919F0803809F0B5CF3A
:1027B00080917D05803208F071C0E0917D0581E057
:1027C0008E0F80937D058091BB00F0E0E35AFA4FB5
:1027D00080833DC0803B39F0E0F4803A09F479C051
:1027E000883A09F09ACF84E08093680710925A05DE
:1027F00010925905E0915705F0915805199580916F
:10280000590581110FC081E0809359051092370559
:1028100009C0803C09F4A6CF883C09F4A3CF883BCB
:1028200009F07BCFE0915A0581E08E0F80935A0525
:10283000F0E0E95CFA4F80818093BB0090915A05EB
:102840008091590529C0809143078093BB0085EC96
:102850008093BC0062CF90916507809164079817C0
:1028600058F5E091650781E08E0F80936507F0E0F1
:10287000EC5BF84F8081E9CFE091650781E08E0F36
:10288000809365078091BB00F0E0EC5BF84F80839C
:1028900090916507809164079817C8F285E8D8CFB2
:1028A000E091650781E08E0F809365078091BB0002
:1028B000F0E0EC5BF84F80838091670781115CCF7B
:1028C00081E08093420784EA8093BC0010926807FD
:1028D00024CF85EC8093BC001092680780917D0521
:1028E000803230F4E0917D05F0E0E35AFA4F108237
:1028F00060917D0570E0E0915B05F0915C058DE5F0
:1029000095E0199510927D0508CF1092660734CF97
:102910008F929F92AF92BF92CF92DF92EF92FF92EF
:102920000F931F93CF93DF93FC012085211110C0DB
:1029300060E070E0CB01DF91CF911F910F91FF908C
:10294000EF90DF90CF90BF90AF909F908F900895C1
:10295000EC010E94628729852111EACF8C809D803D
:10296000AE80BF80088119812A813B816B017C0187
:10297000C818D908EA08FB08C016D106E206F30613
:10298000B8F6080D191D2A1D3B1D68017901C61AEC
:10299000D70AE80AF90AC701B601CDCFCF92DF9274
:1029A000EF92FF921F93CF93DF93FC0110851111DB
:1029B0000AC010E0812FDF91CF911F91FF90EF901F
:1029C000DF90CF900895EC018185882319F0188657
:1029D0001986F0CF0E946287CC80DD80EE80FF8078
:1029E0006C197D098E099F09C880D980EA80FB8017
:1029F0006C157D058E059F0550F7DBCFCF93DF93D8
:102A0000EC01488359836A837B830E9462876C83CD
:102A10007D838E839F8381E088871986DF91CF91A4
:102A200008950F931F93CF93DF93EC010E94628769
:102A30008B019C018C819D81AE81BF814881598130
:102A40006A817B81081B190B2A0B3B0B04171507A6
:102A50002607370738F4CE01DF91CF911F910F91F0
:102A60000C94FE14840F951FA61FB71F8C839D83A3
:102A7000AE83BF8381E088871986DF91CF911F9154
:102A80000F910895DC01FB016C9111964C91119707
:102A900012967C91262F220F220F220F95E5822F6E
:102AA000899F080E80E0811D1124562F5074362F07
:102AB000307267FD60C0511149C0311106C0982FB6
:102AC0009095282F892F90E004C025E5280F90E0ED
:102AD0008BEA4F3FF1F0442309F46CC0409530E09D
:102AE000442329F0449F312D112441113F5F432F8E
:102AF0004095849F080E80E0811D249F020E20E0F7
:102B0000211D949F090E90E0911D1124830F230F26
:102B1000930F7F3FB9F030E0772321F0779F312D7D
:102B200009F03F5F332309F449C0839F080E80E01A
:102B3000811D239F020E20E0211D939F090E90E02E
:102B4000911D1124808321839283089531110DC03A
:102B5000922F2AEA929F090E90E0911D11242BEAF0
:102B6000291B922F2AEA280FADCF90E0282F20951D
:102B7000982F80E0AECF511111C031110BC0922FB0
:102B80008AEA989F090E90E0911D11242BEA291BD7
:102B90009B5AEFCF982F909520E09BCF311106C024
:102BA00025E5280F9BEA981B822FF6CF2AEA280FEB
:102BB00030E0F9CF9FEF2FEF8FEFABCF90E020E029
:102BC00080E0C0CF87E499E10E94CE14882391F081
:102BD00080912F0A0E946E874091310250E070E090
:102BE00060E087E499E10E94FE14809182058111E2
:102BF000109282050895CF93DF931F921F92CDB755
:102C0000DEB7EEE1F4E021E0208381836283738309
:102C100094E09483EDE5FCE02083818362837383F9
:102C2000948385E090E09A83898341E0BE016F5FE1
:102C30007F4FCF010E943A120F900F90DF91CF91FA
:102C4000089570E060E00C94FB15EFE1F0E18091F5
:102C5000E30280838091E20281838091E10282839A
:102C60008091E00283838091DF02848308958091C4
:102C7000E602843161F0883221F08C3031F48FE04B
:102C800001C087E080930602089585E0FBCF8AE0CB
:102C9000F9CF80914C0290914D02892B21F088E070
:102CA0008093050208951092050208959091E7021D
:102CB0008091E602890F27E0280F20935219909304
:102CC0003B198093511980914B02209191054091BD
:102CD0004C0250914D02452BA9F0909105023FEF17
:102CE000390F3093E40290930911980F8FEF890FF9
:102CF00080930811909307118FEF820F890F8093B3
:102D0000061108951092E402109209119FEF980F96
:102D10009093081180930711820F8150F0CF81E0CA
:102D20008093340280933302809332020895882383
:102D3000E9F18091CF028823B9F1809194069091B6
:102D40008D06992339F1811127C0E0915919F0E0DE
:102D5000E25EFF4E8081811125C080918B0681113A
:102D600021C08091CF02882311F180919406909127
:102D70008D069923F1F081111EC0E0915919F0E000
:102D8000E25EFF4E808181111CC080918B06811113
:102D900018C00895882309F3E0915919F0E0EA502A
:102DA000FD4FD8CF5F9ADDCF5F98DBCF5F98449817
:102DB0000895882351F3E0915919F0E0EA50FD4F4E
:102DC000E1CF449A08958823E9F18091CF028823C6
:102DD000B9F18091940690918D06992339F1811172
:102DE00027C0E0915919F0E0E25EFF4E8081811129
:102DF00025C080918B06811121C08091CF0288234C
:102E000011F18091940690918D069923F1F0811132
:102E10001EC0E0915919F0E0E25EFF4E8081811101
:102E20001CC080918B06811118C00895882309F376
:102E3000E0915919F0E0EA50FD4FD8CF429ADDCF2A
:102E40004298DBCF4298A2980895882351F3E091ED
:102E50005919F0E0EA50FD4FE1CFA29A0895809110
:102E60005502882349F081E02091C6103091C710A7
:102E7000232B31F080E0089580911D0491E0892793
:102E80000895982F80912E02882369F0923049F49A
:102E900080915002882351F081E09091E6029C30AD
:102EA00029F480E003C081E09230D9F70895E82F3B
:102EB000F0E08091E6028C3089F028F4843051F003
:102EC000E152F64F09C0843161F08832C9F7E95404
:102ED000F64F02C0E95AF54F84910895E15DF54F30
:102EE000FBCFE95FF54FF8CF8823D1F080918D06B5
:102EF000882341F0E0915919F0E0E25EFF4E8081B5
:102F0000811108C080919406811104C080919306BC
:102F1000882331F080910B01886080930B01089524
:102F200080910B01877FF9CFE2E4F0E110861186F2
:102F30008EE18093000290E080E00C94BB8390913E
:102F40005E199330B9F09530D9F0209159022223BF
:102F500089F0882379F0923079F490918D06992345
:102F600049F090910002891759F08093000290E097
:102F70000C94BB830C949417909100029813F5CF96
:102F80000895BF92CF92DF92EF92FF920F931F931B
:102F9000CF93DF93EC01809154020E94910BB82EE5
:102FA000F0903A19E0903B1980E399E10E94CE1429
:102FB000882309F4A9C1FE188F2D0E945717E82E07
:102FC0008091CD02882309F4B1C085E0809331025D
:102FD00080E099E10E949F73882389F01092CD02CE
:102FE000D093D302C093D202AE0170E060E080E3E0
:102FF00099E10E94FE1480E4809304021BC080E0EB
:1030000099E10E9409749093D3028093D202AC019B
:1030100070E060E080E399E10E94FE148091040278
:103020008F5F8E3108F480C0809304028091040287
:10303000813408F780918D0681110CC0809194062F
:10304000811108C080919306811104C0809104020F
:103050000E949F17809134029091E602943109F406
:10306000F9C0983209F4F6C09C3009F4F7C08230F8
:1030700008F4DDC090E08C179D0709F4E8C0C81B78
:10308000D90B809156190E94411781113DC1EF2D36
:10309000F0E0ED55FA4F808181111BC0EE20C9F0A0
:1030A00080912E028823A9F029E1F29EC00111240B
:1030B0009C01205D3E4E690160E0C9010E946F766F
:1030C0009E0150E040E004E110E06B2DC6010E943B
:1030D0003C7680914F02882309F420C18091E6025A
:1030E000843109F4C1C0883209F418C19091950661
:1030F0008C3009F4D5C091110DC08091CD028111A1
:1031000009C080919306811105C080918A068823A9
:1031100009F40AC137E28BE1F31609F4D7C083E161
:10312000F812FEC08FE0D2C08EE17ECF809195066E
:103130008823B1F185E08093310280E099E10E941B
:103140009F73882319F01092950674CF80E099E15F
:103150000E9409749093D3028093D202AC0170E074
:1031600060E080E399E10E94FE142091D202309148
:10317000D3022932310568F080910402833320F0B4
:1031800081508093040205C02536310510F08F313F
:10319000B8F7809104028E3108F04CCF8EE12CCF2D
:1031A000D093D302C093D202809134029091E60270
:1031B0009C3031F1943121F18230E8F0282F30E059
:1031C000AE01421B530B2C173D0711F450E040E0B9
:1031D00090912E028B5F911101C085E080933102A6
:1031E000809131028B3018F08AE0809331024115D2
:1031F000510591F013C085E080933102AE01F0CF0C
:1032000095E090933102823080F090E0AE01481B4F
:10321000590B8C179D0711F441E050E070E060E01D
:1032200080E399E10E94FE1405CFAE01E0CF8091CA
:10323000CD02811109C080919506811105C0CE0192
:10324000880F991FC80FD91F209709F01ACFC1E026
:10325000D0E017CF823008F00DCFF1CF823008F0E8
:1032600009CFCC0FDD1FF0CF8091950681110DC0E5
:103270008091CD02811109C080919306811105C012
:1032800080918A06882309F44FC092E29F1508F4C2
:1032900049CF81EF8F0D853008F044C089E016C01A
:1032A00091110CC08091CD02811108C080919306CC
:1032B000811104C080918A068823B1F120E22F1584
:1032C00068F383EF8F0D873088F585E020915302F6
:1032D00090913A19222309F454C0E11029C0209199
:1032E0001804281728F52F5F2093180420913A1905
:1032F0008091E70290E087962817190629F024F0BC
:1033000080913B1980933A19DF91CF911F910F91D2
:10331000FF90EF90DF90CF90BF90089580E0D6CFE0
:1033200085E1D4CF8BE0D2CF83E0D0CF87E0CECF82
:1033300010921804C92FE11020C020913B19EC2EE7
:10334000F12C822F90E087968E159F057CF28C2FB2
:10335000821B0E945717882319F0C0933A19C6CFD1
:103360008091E70290E08796E816F90621F48091B3
:103370003B1980933A19CF5FE0CF9F5F90933A1942
:10338000B5CFE11012C020911804281770F42F5FF8
:103390002093180490913A1980913B19981708F0DE
:1033A000B3CF8091E702895DADCF10921804C92F89
:1033B000E11010C080913B198C1760F73C2F381B2F
:1033C000832F0E945717882319F0C0933A19E2CF30
:1033D000C150F0CF915090933A19DCCF809155199C
:1033E000853059F480912E02811107C090915619B1
:1033F00081E0992321F0973011F080E0089508953D
:1034000081E08093CD028093CC028093CB0208951B
:1034100080915519823020F0843068F0853011F1A8
:103420008CE291E09093D3028093D2029093D102E8
:103430008093D00208956091C8027091C90290E013
:1034400080E00E94D8C226E636E646EA5FE30E94A4
:1034500039C30E94CEC57093D3026093D2028CE22E
:1034600091E0E4CF88EC90E09093D3028093D20275
:10347000F6CFDF92EF92FF920F931F93CF93DF93DC
:1034800083EAE82E85E0F82E0EEE13E0D0E0C0E0EF
:10349000DD24D394F70111927F0160E0CE01885EB4
:1034A0009A4E0E946F7660E0CE01805D9E4E0E9433
:1034B0006F76F801D1928F016996C83EF3E0DF077D
:1034C00049F7DF91CF911F910F91FF90EF90DF901F
:1034D000089580913402811103C081E08093340209
:1034E00080913402853018F084E08093340280911A
:1034F0003302811103C081E0809333028091330253
:10350000853018F084E0809333028091320281117B
:1035100003C081E08093320280913202853018F03E
:1035200084E08093320208952F923F924F925F92EF
:103530006F927F928F929F92AF92BF92CF92DF92C3
:10354000EF92FF920F931F93CF93DF93CDB7DEB728
:10355000A2970FB6F894DEBF0FBECDBF8091FC0ED0
:103560000E946B0B282F80919305882483948823D5
:1035700011F072E0872E809153029924939488234E
:1035800011F062E0962E80915102AA24A394882320
:1035900011F052E0A52E80914F02BB24B3948823F2
:1035A00011F042E0B42E8091CF02CC24C394882342
:1035B00011F032E0C32E8091BD02DD24D394882324
:1035C00011F092E0D92E8091CE028111D5C0E1E0B8
:1035D000E8A38091CC058111D2C0E1E0E9A3E0909D
:1035E0005A02F090531980919D0601E0811102E08A
:1035F00080919D0512E0811111E08091550231E02A
:10360000811132E08091920522242394882311F0C5
:1036100082E0282E809188068111B4C0E1E0EAA3FF
:10362000809156029091570268EE73E00E948CC41C
:10363000762E8091230441E0811142E08091BE0208
:103640009091BF02E8EEF3E0BF010E948CC4362ED9
:103650008091C0029091C102BF010E948CC4462E8D
:103660008091C2029091C302BF010E948CC4562E69
:103670008091C4029091C502BF010E948CC4662E45
:103680008091C6029091C702BF010E948CC48091B4
:10369000DF02A1E08111A2E08091E00271E08111DE
:1036A00072E08091E10251E0811152E08091E202EA
:1036B00091E0811192E08091E302811166C081E086
:1036C000253608F064C02F5FE0915802E150E530E4
:1036D00008F05FC0F0E0EE50FD4FE08189829A82F1
:1036E000AB82BC82CD82DE82F8A1FF83F9A1F8878C
:1036F000E986FA860B871C874D872E873F86488A86
:10370000598A6A8A6B8BAC8B7D8B5E8B9F8B888F83
:10371000E98F3A8F2B8EEAA1EC8F7D8ECE01019638
:103720007C0106E110E01F8F0E8FF70161917F0190
:10373000CE014E960E946B110F5F1F4F0333110590
:1037400091F70E948411A2960FB6F894DEBF0FBEC7
:10375000CDBFDF91CF911F910F91FF90EF90DF9040
:10376000CF90BF90AF909F908F907F906F905F9021
:103770004F903F902F900895F2E0F8A32ACFF2E007
:10378000F9A32DCFF2E0FAA34BCF82E099CF25E643
:103790009BCFE4E0A3CF0F931F93CF93DF931F92B0
:1037A0001F92CDB7DEB706E110E01A8309836FEFF1
:1037B000CE0101960E946B110F5F1F4F033311055D
:1037C000A1F70E9484110F900F90DF91CF911F916C
:1037D0000F910895EF92FF920F931F93CF93DF9372
:1037E000CDB7DEB768970FB6F894DEBF0FBECDBF7A
:1037F0008091900571E0813009F472E08091490276
:1038000093E0813021F094E0823009F092E0209141
:103810004C0230914D0282E02115310529F083E000
:103820002130310509F084E02091CA0261E02111C4
:1038300062E02091520251E0211152E020918F0567
:1038400041E0211142E02091500231E0211132E0AB
:1038500020918E05211155C021E0E091E702E98316
:10386000E091E602EA83E0914B02EB837C83709166
:10387000DA027D837091D8027E837091D6027F83B5
:103880007091DB0278877091D90279877091D702A5
:103890007A87709148027B87709154027C8770917F
:1038A0004A027D8770914E027E87709191057F87D5
:1038B000988B898B6A8B5B8B4C8B3D8B2E8BCE01CF
:1038C00001967C0110E000E0188F0F8BF7016191E9
:1038D0007F01CE0147960E946B110F5F1F4F06318B
:1038E000110591F70E94841168960FB6F894DEBF17
:1038F0000FBECDBFDF91CF911F910F91FF90EF9041
:10390000089522E0AACF0F931F93CF93DF931F92C6
:103910001F92CDB7DEB710E000E01A8309836FEF86
:10392000CE0101960E946B110F5F1F4F06311105EA
:10393000A1F70E9484110F900F90DF91CF911F91FA
:103940000F910895CF93DF93CDB7DEB764970FB68D
:10395000F894DEBF0FBECDBF20919307309194073E
:10396000215031092230310580F4FE01319694E175
:10397000DF011D929A95E9F795E0998381110EC0B8
:1039800085E18D83CF010E94247B64960FB6F89465
:10399000DEBF0FBECDBFDF91CF91089584E1F1CF9F
:1039A000CF93DF93CDB7DEB764970FB6F894DEBF41
:1039B0000FBECDBF2091930730919407215031095C
:1039C0002230310580F4FE01319694E1DF011D9231
:1039D0009A95E9F795E0998381110EC083E18D8373
:1039E000CF010E94247B64960FB6F894DEBF0FBE11
:1039F000CDBFDF91CF91089582E1F1CF80939A05F9
:103A00002091950530919605121613063CF4682F07
:103A100080919705909198050C94897C0895282FA2
:103A2000853608F024E6822F65E00E9480C4992341
:103A300061F0822F90E0029665E070E00E94A0C4E1
:103A4000862F880F880F282F260F822F65E00E946F
:103A500080C4E82FF0E080912304882321F0E85609
:103A6000F74F84910895E65DF34FFBCFAB012091B2
:103A7000930730919407215031092330310528F400
:103A800021E06AEB7FEF0C94B27C089520919307BC
:103A900030919407215031092330310518F460E04A
:103AA0000C94897C089582E190E00E94461D83E198
:103AB00090E00E94461D84E190E00E94461D85E151
:103AC00090E00E94461D86E190E00C94461D0F9305
:103AD0001F93CF93C82F80915519833019F18530EA
:103AE00009F446C0823039F568E873E1CC2311F05F
:103AF00064E670E08CE791E00E94361D80915619D3
:103B0000823009F45AC0833009F464C0813009F06E
:103B10006AC068E873E1CC2311F064E670E087E3E3
:103B200090E053C068E873E1CC2311F064E670E0E4
:103B300086E290E0E1CF08E813E1CC2311F004E63F
:103B400010E0B80180E190E00E94361DB8018EE8D7
:103B500090E00E94361DB80180E990E00E94361D79
:103B6000B80180E691E00E94361D0E94531DC6CF29
:103B70000E94EE19882371F0809193058823A1F0AB
:103B800068E873E1CC2311F064E670E08AEB91E021
:103B90000E94361D08E813E1CC2311F004E610E082
:103BA000B80185E991E0D0CF68E873E1CC2311F04A
:103BB00064E670E089EB91E0EBCF68E873E1CC2339
:103BC00011F064E670E082E390E0CF911F910F91D5
:103BD0000C94361D68E873E1CC2311F064E670E0C4
:103BE00087E491E0F2CFCF911F910F91089520913A
:103BF000930730919407215031092330310510F497
:103C00000C9470800895809155198250823020F074
:103C10008AE691E00C94F71D8CE390E0FBCF8DE8F1
:103C200090E00E94F71D8EE890E00E94F71D8FE85B
:103C300090E00E94F71D80E990E00E94F71D81E965
:103C400090E00E94F71D82E990E00E94F71D83E951
:103C500090E00E94F71D84E990E00E94F71D89E43E
:103C600091E00E94F71D8CE491E00C94F71D809187
:103C70005519853061F48FE891E00E94F71D8DEBB6
:103C800091E00E94F71D87E390E00C94F71D8BE60E
:103C900091E00E94F71D8CE691E0F7CFCF92DF9282
:103CA000EF92FF920F931F93CF93DF936C01F62E49
:103CB000C42F14160CF4C0E0CA3B0CF4CAEB80917C
:103CC0009307909194078230910591F1833091058B
:103CD00019F0019709F048C00C2E000CDD0B2223CF
:103CE00081F06AEB7FEFC6010E944A806E2DC6010B
:103CF0000E94F37F20E0A801BE01C6010E94B27CB1
:103D000008C0BE01C6010E944A806E2DC6010E94F5
:103D1000F37F61E0F11001C060E0C601DF91CF9157
:103D20001F910F91FF90EF90DF90CF900C94897CC2
:103D30000C2E000CDD0B222361F06AEB7FEFC60135
:103D40000E944A8050E040E06E2DC6010E941A8019
:103D5000D1CFBE01C6010E944A8050E040E06E2DE6
:103D6000C6010E941A80D5CFDF91CF911F910F918C
:103D7000FF90EF90DF90CF900895CF92DF92EF9277
:103D80000F931F93CF93DF9368EE73E00E948CC470
:103D9000EB016B0184EBC80ED11CCB018D549F4FFE
:103DA0000E94F71DC6010E94F71DCE018B549F4F44
:103DB0000E94F71DEE24E39410E000E020E0409123
:103DC000FA0E60E0C6010E944E1EDF91CF911F9156
:103DD0000F91EF90DF90CF9008958330B9F198F470
:103DE000823009F442C08091C6029091C702885E79
:103DF0009340803D27E0920708F446C09093C702A5
:103E00008093C60212C0843091F0853061F78091B2
:103E1000BE029091BF02885E9340803D27E09207EA
:103E200098F19093BF028093BE020C94BD1E8091C6
:103E3000C0029091C102885E9340803D27E09207C6
:103E400018F19093C1028093C002EFCF8091C2021B
:103E50009091C302885E9340803D27E09207A0F0D6
:103E60009093C3028093C202E0CF8091C4029091EC
:103E7000C502885E9340803D27E0920728F090932A
:103E8000C5028093C402D1CF08958330B9F198F46C
:103E9000823009F442C08091C6029091C7028851D5
:103EA0009C4F81362AEE920708F046C09093C702D5
:103EB0008093C60212C0843091F0853061F7809102
:103EC000BE029091BF0288519C4F81362AEE920724
:103ED00098F59093BF028093BE020C94BD1E809112
:103EE000C0029091C10288519C4F81362AEE920700
:103EF00018F59093C1028093C002EFCF8091C20267
:103F00009091C30288519C4F81362AEE9207A0F40B
:103F10009093C3028093C202E0CF8091C40290913B
:103F2000C50288519C4F81362AEE920728F490935F
:103F3000C5028093C402D1CF0895EF920F931F93CF
:103F400080918706882331F080E691E00E94F71D7A
:103F5000109287060E94EE19882361F08EE491E0AA
:103F60000E94F71D89EB91E00E94F71D8AEB91E01A
:103F70000E94F71D80918806882359F08091B90F1F
:103F8000882339F01092B90F1092BA0F81E00E9485
:103F9000671D80915619823009F477C1833009F486
:103FA000A8C1813009F48BC18091591981508430A6
:103FB00008F004C180919C05882309F4EBC040916E
:103FC000FA0E80915519E12C10E000E020E060E04D
:103FD0008330A9F0853009F4D4C0823009F0C8C01C
:103FE0008DE791E00E944E1EEE24E3940AEF10E06C
:103FF00021E04091FA0E61E08FE791E00EC084E687
:1040000090E00E944E1EEE24E39404E619E121E0C4
:104010004091FA0E61E083E690E00E944E1E81E03E
:104020008093860580918505882309F4C4C080911A
:1040300055194091FA0EE12C10E000E020E060E01C
:10404000833009F0AAC084E690E00E944E1EEE2460
:10405000E39404E619E121E04091FA0E61E088E47E
:1040600090E00E944E1E81E0809384058091561955
:10407000853059F4E12C04E610E021E04091FA0E7D
:1040800060E083EA91E00E944E1E809156198630CE
:1040900059F4E12C04E610E021E04091FA0E60E0D2
:1040A00084EA91E00E944E1E81E080938D0687E0B5
:1040B0000E9421168091BA028823F9F08091BB02F8
:1040C0009091BC020297C9F468E070E080E090E053
:1040D0000E944571695F7F4F8F4F9F4F28EE33E0FD
:1040E000629FA001639F500D729F500D112470E0DC
:1040F00060E08FEC9FE00E94FE1480E00E94E316D7
:10410000809156198230A1F0E0915919E150FF0BCE
:10411000EE0FFF1FE759F04F4591549170E060E0BA
:104120008EE290E10E94FE1410922C1010922D103D
:1041300010924A1010924B108FEF0E949F1710920E
:1041400013101092141042E350E060E070E081E040
:1041500090E10E94FE1410928C0648E95AE360E058
:1041600070E089ED9FE01F910F91EF900C94FE1489
:104170008BE990E00E944E1EEE24E39403E111E0EF
:1041800037CF8FE491E00E944E1EEE24E39408ECBA
:1041900010E02ECF1092860545CF853049F48FE48C
:1041A00091E00E944E1EEE24E3940CE211E053CF06
:1041B00085E090E0F6CF1092840558CF4091FA0E3A
:1041C00080915519E12C10E000E020E060E08330A0
:1041D00009F43FC0853009F442C08230E9F587E830
:1041E00091E00E944E1E80919C05882309F445C0F1
:1041F00081E080938605809155194091FA0EEE2456
:10420000E394823079F504EA16E021E061E089E880
:1042100091E00E944E1E80918505882361F281E025
:1042200080938405809155194091FA0EEE24E39411
:104230000CEB12E0833021F10CE211E0823001F549
:1042400004EA16E021E061E089E891E00E944E1E58
:104250000DCF81E690E0C5CF8BE990E0C2CF8FE42F
:1042600091E0BFCF0CE211E0833011F40CEB12E0CF
:1042700021E061E082E690E0CCCF10928605CBCFC2
:1042800021E061E088E490E0E1CF85E390E00E94E6
:10429000F71DE12C10E000E020E04091FA0E60E014
:1042A00083E390E00E944E1EEE24E39402E513E0C7
:1042B00021E04091FA0E61E084E390E0C7CF8BE308
:1042C00090E00E94F71DE12C10E000E020E040911A
:1042D000FA0E60E089E390E00E944E1EEE24E39423
:1042E00008EE13E021E04091FA0E61E08AE390E0ED
:1042F000ADCF80919107909192078D36910550F442
:10430000E12C10E000E020E04091FA0E60E086E44D
:1043100091E09CCF86E491E00E94F71D80915919AD
:104320008330E1F050F4813091F0823009F09ECE7C
:104330006091FA0E85EF90E00EC08430A1F08530D8
:1043400009F094CE6091FA0E8DE790E004C0609180
:10435000FA0E83E191E00E94F18088CE6091FA0E1E
:1043600087ED90E0F8CF6091FA0E89EB90E0F3CF03
:10437000EF920F931F9383E591E00E94F71D82E374
:1043800090E00E94F71D88E591E00E94F71DEE2461
:10439000E39410E000E020E04091FA0E60E087E551
:1043A00091E00E944E1E809156198230D1F420E097
:1043B0004091FA0E60E083E591E00E944E1E81E09C
:1043C00080938B0640E050E0BA0188E390E10E94C0
:1043D000FE140E948F168FE01F910F91EF900C94A6
:1043E0002116109213101092141042E350E060E076
:1043F00070E081E090E10E94FE14E1CFEF920F9314
:104400001F934091FA0E80915619EE24E39410E028
:1044100000E020E060E0823031F583E591E00E9429
:104420004E1E81E080939406809156198230B9F532
:1044300048EB5BE060E070E088E390E10E94FE14EE
:10444000809155198250823040F48CE291E0909333
:10445000D1028093D0020E94391A81E11F910F91FD
:10446000EF900C94211688E691E00E944E1E8091F8
:1044700055198450823040F420E04091FA0E61E0FA
:1044800089E691E00E944E1EEE24E39410E000E0E5
:1044900020E04091FA0E60E085E591E0C0CF40EA6F
:1044A0005FE060E070E088E390E10E94FE1410920B
:1044B000091010920A10109213101092141042E377
:1044C00050E060E070E081E090E1B8CFEF920F93B0
:1044D0001F9380918806882309F479C08091B90FD1
:1044E000811106C080915519843079F0853059F1D9
:1044F000409156025091570270E060E081EB9FE0DE
:104500001F910F91EF900C94FE1480E190E00E94B7
:10451000F71D80915619823071F44091FA0E48527D
:10452000EE24E39410E000E020E061E080E190E020
:104530000E944E1EDDCFEE24E39410E000E020E068
:104540004091FA0EF2CF85E991E00E94F71D80912B
:104550005619823029F54091FA0E4852EE24E39420
:1045600010E000E020E061E085E991E00E944E1E4D
:104570000E94EE19882309F4BBCF8091930588230C
:10458000B9F08AEB91E00E94F71DEE24E39410E06D
:1045900000E020E04091FA0E61E08AEB91E0C8CFA4
:1045A000EE24E39410E000E020E04091FA0EDBCF2F
:1045B00089EB91E00E94F71DEE24E39410E000E007
:1045C00020E04091FA0E61E089EB91E0B1CF1F91BC
:1045D0000F91EF900895EF920F931F9380915619CA
:1045E000823009F472C0833091F1813009F474C0D3
:1045F00080915519909159199150943008F04FC0FD
:10460000833069F0853009F447C0823009F041C039
:104610008DE791E00E94F71D8FE791E006C084E6E8
:1046200090E00E94F71D83E690E00E94F71D8091C4
:10463000BA02882321F089E090E00E94F71D88E407
:1046400090E00E94F71D82E690E00E94F71D8091A5
:10465000BB029091BC02009709F445C0019709F490
:1046600066C0109286051092840580915619853097
:1046700021F483EA91E00E94F71D8091561986305B
:1046800009F071C084EA91E01F910F91EF900C94B2
:10469000F71D80E690E0BECF8FE491E0BBCF833082
:1046A00059F0853079F0823051F487E891E00E942A
:1046B000F71D89E891E0B9CF81E690E0B6CF8BE9AC
:1046C00090E0B3CF8FE491E0B0CF83E390E00E941D
:1046D000F71D84E390E0B9CF89E390E00E94F71DD5
:1046E0008AE390E0B2CF82E090E09093BC028093A6
:1046F000BB028091930790919407039741F48AE459
:1047000090E00E94F71D89E490E00E94F71D8091DF
:10471000F50F8111A6CFE12C10E000E020E04091E0
:10472000FA0E60E089E490E00E944E1E9ACF82E08B
:1047300090E09093BC028093BB028EE690E00E94D2
:10474000F71D8FE690E00E94F71D8091F50F811113
:1047500088CFE12C10E000E020E04091FA0E60E00C
:104760008FE690E0E1CF1F910F91EF9008950F93A6
:104770001F93CF93DF9300D000D0CDB7DEB7122FB9
:10478000242F462F682FCE0101960E941F7DBE0167
:104790006C5F7F4FCE0101960E9442156D817C8136
:1047A000111102C06C817D818E8126960FB6F8941E
:1047B000DEBF0FBECDBFDF91CF911F910F91089546
:1047C0002F923F924F925F926F927F928F929F9221
:1047D000AF92BF92CF92DF92EF92FF920F931F930F
:1047E000CF93DF9300D000D01F921F92CDB7DEB7DA
:1047F000809154020E94910BF82E8091500215E096
:10480000882331F06091561981E00E94E509182F44
:1048100080E00E943B0B90913B19890F8D8381E0D2
:104820000E943B0B90913B19890F8E8382E00E947E
:104830003B0B50903B19580E83E00E943B0B90912C
:104840003B19982E990E809156192BEF280F223084
:1048500008F410C1843009F40DC1E09051023D818B
:10486000232F30E038872F836E81A62EB12CE52DC3
:10487000F0E0FC83EB83292D30E03A832983E110BB
:10488000FEC000E020E04F2D612F81E00E94B723A1
:104890001B01482E20E04F2D612F81E00E94B7239D
:1048A0003B01882E20E04F2D612F81E00E94B7232D
:1048B0006B01E82E20E04F2D612F81E00E94B7238D
:1048C000AB01682FEF81F885EE0FFF1F8F81988570
:1048D000E80FF91FE353FA4F208231824282F5013B
:1048E000EE0FFF1FEA0DFB1DE353FA4F608271824A
:1048F0008282EB81FC81EE0FFF1F2B813C81E20F56
:10490000F31FE353FA4FC082D182E282E981FA8138
:10491000EE0FFF1F89819A81E80FF91FE353FA4FC9
:104920004083518362838091520281118AC08F81BA
:1049300098850196FC01EE0FFF1FE80FF91FE35366
:10494000FA4F208231824282A0913B19B0E0EF8180
:10495000F885809152198850AE17BF0714F48D81E5
:10496000815090E09C01220F331F820F931FFC01A6
:10497000E353FA4F20823182428295012F5F3F4FED
:10498000C901880F991F820F931FFC01E353FA4F4F
:10499000608271828282809152198850AA15BB056B
:1049A00014F48E81815090E09C01220F331F820FFE
:1049B000931FFC01E353FA4F6082718282828B81E4
:1049C0009C810196FC01EE0FFF1FE80FF91FE353D6
:1049D000FA4FC082D182E2822B813C8180915219B0
:1049E0008850A217B30714F48FEF850D90E0FC01F7
:1049F000EE0FFF1FE80FF91FE353FA4FC082D18279
:104A0000E28289819A810196FC01EE0FFF1FE80F77
:104A1000F91FE353FA4F40835183628389819A815E
:104A2000A817B9074CF180915219885090E0FC0109
:104A3000EE0FFF1FE80FF91FE353FA4F4083518336
:104A4000628328960FB6F894DEBF0FBECDBFDF910C
:104A5000CF911F910F91FF90EF90DF90CF90BF907B
:104A6000AF909F908F907F906F905F904F903F900E
:104A70002F90089515E0F1CE8FEF890DD7CF892FB4
:104A800090E0EF81F885E81BF90BED55FA4F208196
:104A90002223D1F0F501E81BF90BED55FA4F2081E7
:104AA000222391F0EB81FC81E81BF90BED55FA4FC5
:104AB0002081222349F0E981FA81E81BF90BED55A9
:104AC000FA4F80818111F0C10E94391A6091C802A9
:104AD0007091C90290E080E00E94D8C220E030E0EE
:104AE00040EC5FE30E9439C30E94CEC59B01AC013C
:104AF00080913B196F817885681B710989E1D82EF7
:104B0000D69EC001D79E900D112401E010E06F2DBC
:104B1000805D9E4E0E943C766091C8027091C902F1
:104B200090E080E00E94D8C220E030E040EC5FE3FB
:104B30000E9439C30E94CEC59B01AC0180913B19F4
:104B4000B501681B7109D69EC001D79E900D112436
:104B50006F2D805D9E4E0E943C766091C8027091E0
:104B6000C90290E080E00E94D8C220E030E040EC32
:104B70005FE30E9439C30E94CEC59B01AC018091C6
:104B80003B196B817C81681B7109D69EC001D79E41
:104B9000900D11246F2D805D9E4E0E943C76609199
:104BA000C8027091C90290E080E00E94D8C220E063
:104BB00030E040EC5FE30E9439C30E94CEC59B0108
:104BC000AC0180913B1969817A81681B7109D69E7D
:104BD000C001D79E900D11246F2D805D9E4E0E94C6
:104BE0003C768091520281112CCFEE2031F1609100
:104BF000C8027091C90290E080E00E94D8C220E013
:104C000030E040EC5FE30E9439C30E94CEC59B01B7
:104C1000AC01EF81F885319680913B19E81BF109D1
:104C200069E16E9FC0016F9F900D112401E010E0BB
:104C30006F2D805D9E4E0E943C76F0913B19FF8364
:104C40002D81F21708F432C13091521938503D834A
:104C5000EE2009F448C06091C8027091C90290E04A
:104C600080E00E94D8C220E030E040EC5FE30E9488
:104C700039C30E94CEC59B01AC018D81EF818E1B93
:104C8000990BBC01F9E1F69FC001F79F900D11242B
:104C900001E010E06F2D805D9E4E0E943C76609199
:104CA000C8027091C90290E080E00E94D8C220E062
:104CB00030E040EC5FE30E9439C30E94CEC59B0107
:104CC000AC016FEFA61AB60A80913B19A81AB10879
:104CD00079E17A9DC0017B9D900D11246F2D805D3F
:104CE0009E4E0E943C7680913B198F839E8189174E
:104CF00008F4E0C0E0915219E850ED83EE2009F489
:104D00004AC06091C8027091C90290E080E00E94A0
:104D1000D8C220E030E040EC5FE30E9439C30E943B
:104D2000CEC59B01AC018D81EF818E1B990BBC011F
:104D3000F9E1F69FC001F79F900D112401E010E00A
:104D40006F2D805D9E4E0E943C766091C8027091EE
:104D5000C90290E080E00E94D8C220E030E040EC40
:104D60005FE30E9439C30E94CEC54B815C814F5FD7
:104D70005F4F20913B19421B510929E1249FF0010B
:104D8000259FF00D11249B01AC016F2DCF01805D9B
:104D90009E4E0E943C7630913B193B83351508F4BA
:104DA0008DC05090521968EF560EEE2009F44AC09B
:104DB0006091C8027091C90290E080E00E94D8C260
:104DC00020E030E040EC5FE30E9439C30E94CEC592
:104DD0009B01AC01852DEB818E1B990BBC01F9E188
:104DE000F69FC001F79F900D112401E010E06F2D98
:104DF000805D9E4E0E943C766091C8027091C9020F
:104E000090E080E00E94D8C220E030E040EC5FE318
:104E10000E9439C30E94CEC549815A814F5F5F4FBE
:104E200020913B19421B510929E1249FF001259F44
:104E3000F00D11249B01AC016F2DCF01805D9E4EC2
:104E40000E943C7630913B1939833915C8F1909016
:104E5000521968EF960EEE2009F4F3CD6091C80266
:104E60007091C90290E080E00E94D8C220E030E05A
:104E700040EC5FE30E9439C30E94CEC5E92D298131
:104E8000E21BFF0BAF0129E1249FF001259FF00DEC
:104E9000112401E010E09B01AC016F2DCF01805D7A
:104EA0009E4E0E943C76CDCDE12C9BCE6D81615013
:104EB0006D83CECEFE81F150FD8320CF5A9475CF05
:104EC0009A94C9CF4F925F926F927F92AF92BF92A6
:104ED000CF92DF92EF92FF920F931F93CF93DF93C6
:104EE000C82F809154020E94910BF82E0E94691ADB
:104EF000AC2EB12C80915102811158C06501CC0CAF
:104F0000DD1CCA0CDB1CC60183539A4F6C0100E008
:104F100020E04FEF60E081E00E94B723F60160835C
:104F2000718382838091520281112FC0FFEFAF1AEB
:104F3000BF0A7501EE0CFF1CEA0CFB1CC701835372
:104F40009A4F7C0120E04FEF60E081E00E94B723A0
:104F5000F70160837183828380913B198C1720F164
:104F6000C0915219C850D0E0CE01880F991FC80FC8
:104F7000D91FC353DA4F00E020E04FEF60E081E03B
:104F80000E94B723688379838A83DF91CF911F9131
:104F90000F91FF90EF90DF90CF90BF90AF907F90F8
:104FA0006F905F904F900895C150DDCF80913B1975
:104FB0009501281B3109F901ED55FA4F80818F11B8
:104FC0003DC0D9E1D29FC001D39F900D11246F2D18
:104FD000885E9A4E0E946F766091C8027091C902F5
:104FE00090E080E00E94D8C220E030E040EC5FE337
:104FF0000E9439C32B013C016091340270E090E0C3
:1050000080E00E94DAC29B01AC01C301B2010E94A0
:105010005CC50E94CEC59B01AC0180913B19B501D6
:10502000681B7109D69FC001D79F900D112401E024
:1050300010E060E0885E9A4E0E943C7680915202B9
:105040008111A3CF6501FFEFCF1ADF0A80913B19D1
:105050009601281B3109F901ED55FA4F80818F1116
:105060003CC0D9E1D29FC001D39F900D11246F2D78
:10507000885E9A4E0E946F766091C8027091C90254
:1050800090E080E00E94D8C220E030E040EC5FE396
:105090000E9439C32B013C016091340270E090E022
:1050A00080E00E94DAC29B01AC01C301B2010E9400
:1050B0005CC50E94CEC59B01AC0180913B19C81A0A
:1050C000D108DC9DC001DD9D900D112401E010E0B0
:1050D00060E0885E9A4E0E943C7680913B1990E099
:1050E000C1508A159B051CF0C0915219C850D0E0E0
:1050F0009E01281B390BF901ED55FA4F80818F1164
:1051000044CF19E1129FC001139F900D11246F2D00
:10511000885E9A4E0E946F766091C8027091C902B3
:1051200090E080E00E94D8C220E030E040EC5FE3F5
:105130000E9439C36B017C016091340270E090E001
:1051400080E00E94DAC29B01AC01C701B6010E9457
:105150005CC50E94CEC59B01AC0180913B19C81B68
:10516000D1091C9FC0011D9F900D112401E010E08A
:1051700060E0885E9A4E0E943C7607CFCF92DF9225
:10518000EF920F93CF93DF93EC0185E08093310290
:105190000E94691A80E399E10E94CE14882309F4E1
:1051A000BAC06091340270E0CE010E948CC4EB0161
:1051B0008091CD02882309F4C9C080E099E10E9462
:1051C0009F73882309F4AEC01092CD02AE0170E047
:1051D00060E080E399E10E94FE14D093D302C09373
:1051E000D20286E28093040280918D0681110CC068
:1051F00080919406811108C080919306811104C0AA
:10520000809104020E949F17809156190E944117B5
:10521000811181C0D0912E02809103028111C6C0FC
:10522000DD2321F080913A190E94622780911604B3
:105230008F5F843008F0BDC08093160480911604FF
:105240000E943B0BC0913B19C80FC0933A19DD2354
:1052500009F461C0809154020E94910BD82F809173
:105260005002882309F4A8C06091561981E00E9479
:10527000E5099091E6029C3009F480E200E020E02C
:105280004D2F682F81E00E94B7236B01E82E4C2F31
:1052900050E0FA01EE0FFF1FE40FF51FE353FA4F42
:1052A000C082D182E28220913B1930E0FA01E21BF8
:1052B000F30BED55FA4FD0838091520281112BC030
:1052C000CA010196FC01EE0FFF1FE80FF91FE3531F
:1052D000FA4FC082D182E282821B930BFC01ED5512
:1052E000FA4FD083C150241735071CF0C0915219D2
:1052F000C8508C2F90E0FC01EE0FFF1FE80FF91F44
:10530000E353FA4FC082D182E282821B930BFC01ED
:10531000ED55FA4FD083DF91CF910F91EF90DF9051
:10532000CF90089580E099E10E940974AC0170E08B
:1053300060E080E399E10E94FE1480E099E10E9420
:1053400009749093D3028093D2024BCF809195063B
:10535000882321F180E099E10E949F73882319F04E
:105360001092950641CF80E099E10E940974AC014A
:1053700070E060E080E399E10E94FE1480E099E132
:105380000E9409749093D3028093D2028091040208
:1053900081508E3108F026CF8EE124CFAB0170E032
:1053A00060E080E399E10E94FE141ECF1092030298
:1053B0003DCF1092160442CF85E05BCFDF92EF9293
:1053C000FF920F931F93CF93DF938091500215E0CC
:1053D000882331F06091561981E00E94E509182F69
:1053E0008091E6028C3009F410E2809155198250C8
:1053F0008230B0F1D0E0C0E08C2F0E945717882394
:1054000019F1FE01ED55FA4FD0808C2F0E945717ED
:1054100090913B19292F280F3327331FC90101977A
:105420007C01EE0CFF1C8E0D9F1DFC01E353FA4F17
:105430007F0100E020E04D2D612F81E00E94B72325
:10544000F7016083718382832196C832D105A1F66A
:10545000DF91CF911F910F91FF90EF90DF90089512
:10546000F12C8091E602F81698F78F2D90E0C0910C
:105470003B19C80FD92FD11D9E01220F331FC20F18
:10548000D31FC353DA4F8D559A4F00E020E0FC0143
:105490004081612F81E00E94B723688379838A83EA
:1054A000F394DFCFEF92FF920F931F93CF93DF938D
:1054B000C82F809148020E94910B182F80918F0570
:1054C000D4E1882331F06091561980E00E94E5090B
:1054D000D82F80918906082E000C990BEC2FF0E054
:1054E0008E179F078CF12091E70228171906F9F013
:1054F000F4F08091CA028823F9F02D30D1F4EE5AED
:10550000F04FE491F0E07F01EE0CFF1CEE0DFF1D6B
:10551000CF0183539A4F7C0100E020E0412F6D2F93
:1055200080E00E94B723F701608371838283CF5F9D
:10553000D0CFED5BF04FE5CF2D3019F4EA5CF04FA2
:10554000E0CFE95DF04FDDCFDF91CF911F910F915B
:10555000FF90EF900895EF92FF920F931F93CF93D8
:10556000DF9380912E0281115BC180915002D5E0C2
:10557000882331F06091561984E00E94E509D82F04
:1055800080914E020E94910BC82F1091ED038091E3
:105590009306882309F4B1C0112309F474C0A59AB5
:1055A000739A8091020188608093020180910201C8
:1055B00080618093020180910201806280930201E8
:1055C0008091020180648093020180914C0290914D
:1055D0004D02009709F424C1D0E00197A1F500E045
:1055E00020E04C2F65E084E00E94B72360937204B2
:1055F000709373048093740420E04C2F65E084E082
:105600000E94B723609375047093760480937704A7
:1056100020E04C2F6BE084E00E94B7236093780475
:105620007093790480937A0420E04C2F6BE084E03F
:105630000E94B72360937B0470937C0480937D0465
:1056400020E04C2FC9C08D2F90E02091E402215022
:10565000330B821793070CF0E3C07C01EE0CFF1CA8
:10566000E80EF91EC7018E589B4F7C0100E020E038
:105670004C2F65E084E00E94B723F70160837183BB
:105680008283DF5FE0CFA598739880910201877FC6
:1056900080930201809102018F7E809302018091AC
:1056A00002018F7D80930201809102018F7B8093A4
:1056B000020180914C0290914D02892B09F4B0C0F7
:1056C000812F90E02091E4022150330B8217930741
:1056D0000CF0A6C0EC01CC0FDD1FC80FD91FCE58AF
:1056E000DB4F00E020E04FEF60E084E00E94B72352
:1056F000688379838A831F5FE3CF183008F090C0F6
:10570000E12FF0E08827E857F44D8F4F0C94B4C494
:10571000902BCB2B172C5D2CA42CE52C132D412D7D
:10572000A598739880910201877F809302018091F0
:1057300002018F7E80930201809102018F7D809310
:105740000201809102018F7B8093020180914C02C3
:1057500090914D02892B09F463C010E0812F90E0F5
:105760002091E4022150330B821793070CF058C0AC
:10577000EC01CC0FDD1FC80FD91FCE58DB4F00E066
:1057800020E04FEF60E084E00E94B72368837983D4
:105790008A831F5FE3CFA598739880910201877F6A
:1057A00080930201809102018F7E8093020180919B
:1057B00002018062809302018091020180648093E3
:1057C000020180914C0290914D02009749F100E056
:1057D00020E04C2F019771F46FE084E00E94B72322
:1057E00060937E0470937F048093800420E04C2FAC
:1057F0006FE00DC06D2F84E00E94B72360937E049C
:1058000070937F048093800420E04C2F6D2F84E000
:105810000E94B72360938104709382048093830471
:10582000DF91CF911F910F91FF90EF900895A59870
:105830007398809102018860809302018091020137
:105840008061809302018091020180628093020155
:105850008091020180648093020180914C029091BA
:105860004D020097E9F200E020E04C2F0197B9F4D7
:105870006BE084E00E94B72360937804709379040E
:1058800080937A0420E04C2F6BE084E00E94B723E1
:1058900060937B0470937C0480937D04C1CF6D2F53
:1058A00084E00E94B7236093780470937904809316
:1058B0007A0420E04C2F6D2FE8CFA59A739A80913F
:1058C00002018860809302018091020180618093CF
:1058D00002018091020180628093020180910201A5
:1058E00080648093020180914C0290914D02009758
:1058F00009F496CF00E020E04C2F0197B9F465E061
:1059000084E00E94B72360937204709373048093C1
:10591000740420E04C2F65E084E00E94B72360937C
:10592000750470937604809377047ACF6D2F84E0AA
:105930000E94B7236093720470937304809374047D
:1059400020E04C2F6D2FE8CFA59A739A8091020129
:10595000886080930201809102018061809302013E
:105960008091020180628093020180910201806433
:105970008093020180914C0290914D02009709F4AE
:105980004FCF10E0019709F42ACE812F90E02091AB
:10599000E4022150330B821793070CF041CF7C01B6
:1059A000EE0CFF1CE80EF91EC7018E589B4F7C01C0
:1059B00000E020E04C2F6D2F84E00E94B723F70118
:1059C0006083718382831F5FE0CFA59A739A809171
:1059D00002018860809302018091020180618093BE
:1059E0000201809102018F7D80930201809102016A
:1059F0008F7B8093020180914C0290914D02892B04
:105A000009F40ECF00E020E04FEF60E084E00E9458
:105A1000B72360937E0470937F048093800420E01A
:105A20004FEF60E0F4CEA59A739A80910201877FD0
:105A300080930201809102018F7E80930201809108
:105A400002018F7D80930201809102018F7B809300
:105A5000020180914C0290914D02892B09F4E0CE15
:105A600000E020E04FEF60E084E00E94B723609305
:105A700078047093790480937A0420E04FEF60E01B
:105A800004CFA598739880910201877F80930201CB
:105A9000809102018F7E80930201809102018F7DAF
:105AA00080930201809102018F7B8093020180919B
:105AB0004C0290914D02892B09F4B2CE00E020E017
:105AC0004FEF60E084E00E94B7236093720470930C
:105AD00073048093740420E04FEF60E01DCFEF92D9
