:100000000C943C080C946D080C946D080C946D08CD
:100010000C946D080C946D080C946D080C946D088C
:100020000C946D080C946D080C946D080C946D087C
:100030000C946D080C946D080C946D080C946D086C
:100040000C946D080C946D080C946D080C946D085C
:100050000C946D080C946D080C946D080C94FD853F
:100060000C946D080C94046E0C94DA6D0C946D086D
:100070000C946D080C946D080C946D080C946D082C
:100080000C946D080C946D080C946D080C946D081C
:100090000C94B06D0C94866D0C946D080C94930EBA
:1000A0000C946D080C946D080C946D080C946D08FC
:1000B0000C946D080C946D080C946D080C946D08EC
:1000C0000C946D080C946D080C946D080C945C6D88
:1000D0000C94326D0C946D080C94086D0C94DE6CCD
:1000E0000C946D0805A84CCDB2D44EB93836A9028F
:1000F0000C50B9918688083CA6AAAA2ABE00000026
:10010000803F07634236B79BD8A71A39685618AEA6
:10011000BAAB558C1D3CB7CC5763BD6DEDFD753E3C
:10012000F6177231BF000000803F08000000BE9249
:100130002449123EABAAAA2ABECDCCCC4C3E00002C
:100140000080BEABAAAAAA3E00000000BF000000CB
:10015000803F0000000000084178D3BB4387D113E3
:100160003D190E3CC3BD4282AD2B3E68EC8276BE8B
:10017000D98FE1A93E4C80EFFFBE01C4FF7F3F0055
:10018000000000000C94E8760C9486A10C94917603
:100190000C94F7760C948DAB0C94206A0C94BB8F66
:1001A0000C94E5090C949D680C94907F0C946076F7
:1001B0000C9471950C94AAA80C9400A60C94EB8F47
:1001C0000C9434A90C94DB650C9499690C948168A7
:1001D0000C94E37A0C9492820C94B7AB0C94BB977A
:1001E0000C9490A80C94B7A70C944AA80C948190F6
:1001F0000C944E910C948D760C941CA40C94BB081A
:100200000C9448AD0C9437820C94078F0C94F0A793
:100210000C94349C0C94CD680C94A08E0C94F476C1
:100220000C9422970C944A230C941D970C94C4A808
:100230000C94FC760C9442690C946D990C94F4988F
:100240000C9499080C942CA20C9412A90C94157B74
:100250000C947EAC0C94B15C0C946C880C94A57AD4
:100260000C941E7B0C946A7A0C9453820C94607AE2
:100270000C94FB980C94F0760C94EA940C94729283
:100280000C9490930C943B930C94ACAB0C94BA826A
:100290000C947F6B0C9418970C94FD8F0C94629EB9
:1002A0000C9407770C940A900C94006C0C94AB742B
:1002B0000C9467AD0C94707A0C94FFAB0C94E49E94
:1002C0000C94F59F0C94FF7A0C949C820C94C3A21E
:1002D0000C94F9240C94ED940C94D2A50C94E27631
:1002E0000C946B900C94DF8F0C94B17A0C942A7759
:1002F0000C94FFAA0C949DAC0C94A8080C94C59087
:100300000C94B8090C94E2A40C9494AA0C94BCA983
:100310000C9421820C947B970C944E7A0C94F27F6F
:100320000C94A6820C9444660C9440970C94EA7644
:100330000C94FD900C9404930C940F980C94277BD0
:100340000C94C4090C9479820C942E7B0C94BD7A85
:100350000C9483760C9479230C94C2690C94599074
:100360000C942CA80C94C5A00C94088E0C94C69CDC
:100370000C94DA940C942D690C94D29D0C94F29DFB
:100380000C945E8E0C9414A70C946B760C9492963D
:100390000C94899C0C942C970C948DA60C94970823
:1003A0000C94437F0C9404AA0C9416690C94A45CDE
:1003B0000C9431900C9402690C94988E0C94679371
:1003C0000C94AC680C94B5240C94318E0C94B69DAE
:1003D0000C9448A50C943FAB0C94E7940C94566A8B
:1003E0000C945C760C947B760C9415950C949AA9DD
:1003F0000C94CA9D0C94B47F0C94B7900C94847A9E
:100400000C945E9E0C940E970C9447990C949776DE
:100410000C9493900C942D6B0C9440AC0C94C37F73
:100420000C9498940C94FA760C94F58E0C949B761C
:100430000C94729E0C9464760C943B970C94E7A6F3
:100440000C9425930C94836A0C9476A80C94DEA8E3
:100450000C94F5660C9465820C94BCAC0C9460A66C
:100460000C947F760C94E1680C94E3090C94D468A6
:100470000C9456A90C94D6920C947EA70C94629678
:100480000C941E090C94DE760C944CAA0C943288C1
:100490000C9456760C9452660C94E9A00C946697D2
:1004A0000C94CB090C947D7F0C94DFAC0C946AA067
:1004B0000C9496760C942DAB0C948DA40C94CE9D3C
:1004C0000C94DCA20C945A930C9455980C9488824A
:1004D0000C940E6B0C9478A90C94FB7A0C94FBAAE8
:1004E0000C940EA30C9441820C942D820C94748E67
:1004F0000C94329E0C9484910C94B18E0C94CD8FFC
:100500000C948C930C94BE5C0C942E980C948BBB26
:100510000C94EF080C94D7A00C94C0740C9405773D
:100520000C94037B0C94E2A30C94DB9F0C94369701
:100530000C94C09D0C940EA80C94A4A50C949DA0A2
:100540000C94B0860C9475760C9433770C94C19F00
:100550000C94E0760C94C0940C949A7A0C942EA689
:100560000C94109E0C94E6760C94BAA60C94C208D7
:100570000C9450960C94AA920C9460A80C94EE746F
:100580000C94F36A0C94AE920C9428820C94E58F30
:100590000C9431970C94039F0C94FEAC0C94CD9466
:1005A0000C9404960C94357B0C945A7A0C94959F79
:1005B0000C94F7920C9400A50C941E240C94CD0975
:1005C0000C9403AB0C94F5680C9493740C94CE5C6F
:1005D0000C9413970C94B5A00C948F7A0C94DD7640
:1005E0000C94C4910C94669E0C94B9980C94A866D3
:1005F0000C9496080C94369D0C94C4A40C94ED7F36
:100600000C941F900C94DB9B0C9485A00C944B8253
:100610000C94C6230C9421660C9476A50C94219915
:100620000C9429AD0C9404920C94E4760C94897685
:100630000C947D5C0C940FA00C94EC970C946F823E
:100640000C9458960C9498080C945B820C9427A3F5
:100650000C946C930C943A920C94489E0C942877CA
:100660000C9471760C940B750C9435770C94279739
:100670000C94F2760C9403770C9400770C9420ADD4
:100680000C94A88E0C94E07A0C94A5900C94439052
:100690000C94CF680C94547A0C94CB5C0C948668C0
:1006A0000C942D770C94D37F0C94E3680C945FAC7E
:1006B0000C9478980C94C9090C94B0820C94BE6880
:1006C0000C94B38F0C9454960C94FE760C9421AC3D
:1006D0000C9430770C9479960C94EE760C943066EA
:1006E0000C948C6B0C94F8A80C94B78F0C94E8685D
:1006F0000C9451690C9455750C94F7680C946876B9
:100700000C9487950C94B7740C94239F0C94F5A2C9
:100710000C94E2690C945524C4DFE9EFF3F6F9FB7D
:10072000FDFE000102030405060708090A32002D38
:10073000280023001E0000190000140000000F0014
:10074000000000000A000000000000000000056436
:100750005F5A55504B46413C3732002D280023004C
:100760001E0000190000140000000F00000000002F
:100770000A0000000000000000000532373C41463E
:100780004B50555A5F645761726E696E673A2043E9
:10079000616C63756C61746564206D757369632049
:1007A000636F756E742065786365656473206D6131
:1007B00078696D756D20706F737369626C653B202D
:1007C0005344206361726420636F72727570746940
:1007D0006F6E206C696B656C7921005761726E6970
:1007E0006E673A20547261636B20636F756E74207C
:1007F000646F6573206E6F74206D6174636820662A
:1008000069726D776172652120506C656173652036
:1008100075706461746520746865206D6963726FBA
:100820005344206361726420736F756E6420656643
:1008300066656374732E0001020304050607080948
:100840000A0B0C0D0E0F1011121314151617181990
:100850001A1B1C1D1E1F20212223242526272801A8
:100860000203040506070809000A0B0C0D0E0F1001
:10087000111200131415161718191A1B001C1D1E2F
:100880001F20212223240001020304050000000090
:1008900000060708090A00000000000B0C0D0E0FEF
:1008A00000000000001011121314000000000001ED
:1008B0000203000000000000000405060000000024
:1008C000000000070809000000000000000A0B0CEF
:1008D0000000000000000001000000000000000017
:1008E0000002000000000000000000030000000003
:1008F00000000000000400000000000000000000F4
:100900001C120A041F160D02110C07010A0704002D
:100910000A121C040D161F02070C110104070A41DC
:100920007474656E7561746F722053796E632045BF
:100930006E6400417474656E7561746F72205379D2
:100940006E63205374617274207C20436F6E6E2E30
:100950002053746174653A20005468656D652063A6
:1009600068616E67656420746F2046726F7A656E89
:1009700020456D7069726520283230323429005468
:1009800068656D65206368616E67656420746F20BB
:1009900041667465726C696665202832303231298F
:1009A000005468656D65206368616E6765642074D6
:1009B0006F20474232202831393839290054686580
:1009C0006D65206368616E67656420746F204742BF
:1009D000312028313938342900417474656E7561CD
:1009E000746F722053796E6368726F6E697A656492
:1009F000207C20436F6E6E2E2053746174653A2004
:100A000000417474656E7561746F722070726F74DA
:100A10006F636F6C206D69736D6174636821207CF6
:100A20002052656365697665643A2000207C204524
:100A3000787065637465643A2000417474656E75FE
:100A400061746F722070726F746F636F6C206D6968
:100A5000736D6174636821207C20526563656976DB
:100A600065643A2000207C20457870656374656475
:100A70003A200047657474696E67205061636B208B
:100A8000507265666572656E636573004765747460
:100A9000696E6720536D6F6B652050726566657275
:100AA000656E63657300436F6D706C65746564207B
:100AB000757064617465206F66207061636B20736C
:100AC000657474696E67730052756E6E696E672027
:100AD0007570646174652066756E6374696F6E739A
:100AE0002E2E2E005570646174696E6720706F77CA
:100AF00065722063656C6C207661726961626C65F9
:100B0000732E2E2E005570646174696E6720696EB5
:100B10006E6572206379636C6F74726F6E2076619C
:100B2000726961626C65732E2E2E0055706461745B
:100B3000696E67206F75746572206379636C6F747A
:100B4000726F6E207661726961626C65732E2E2EF3
:100B5000005570646174696E672067656E657261C7
:100B60006C207661726961626C65732E2E2E005363
:100B70006176696E67205061636B205072656665AF
:100B800072656E6365730057616E642053796E639E
:100B900020456E640057616E642053796E63205364
:100BA00074617274004E6F20417564696F204465F2
:100BB00076696365005761726E696E673A205253B9
:100BC000505F53595354454D5F494E464F206E6F09
:100BD0007420726563656976656421005573696E7A
:100BE00067205741562054726967676572005573D4
:100BF000696E672047505374617220417564696F54
:100C00002056657273696F6E3A2000C4D5DFE5E93E
:100C1000ECEFF1F3F4F6F7F8F9FAFBFCFDFEFF0058
:100C2000436F6E66696775726520506F77657220D5
:100C30004D6574657200556E61626C6520746F203D
:100C400066696E6420706F776572206D6F6E69746F
:100C50006F72696E6720646576696365206F6E20C8
:100C60006932632E20506F776572206D65746572EE
:100C70002066656174757265732077696C6C20629B
:100C8000652064697361626C65642E00506F7765DE
:100C900072204D6574657220526573756C743A20CC
:100CA00000496E697420706F776572206D65746598
:100CB000722E2E2E004552524F523A204E6F206314
:100CC000616C6C6261636B20617661696C61626CFE
:100CD0006520666F72207061636B657420494420E3
:100CE00000000000006410B71DC8206E3BAC30D976
:100CF000269041DC76F4516B6B5861B24D3C710526
:100D0000502083B8ED44930FF0E8A3D6D68CB3619E
:100D1000CBB0C2649BD4D2D38678E20AA01CF2BDC9
:100D2000BD57616E642053796E6368726F6E697A25
:100D300065640057616E642070726F746F636F6CCE
:100D4000206D69736D61746368210057616E642062
:100D500070726F746F636F6C206D69736D61746313
:100D6000682100526563762E2057616E6420536DB2
:100D70006F6B6520507265667300526563762E2036
:100D800057616E6420436F6E6669672050726566B6
:100D90007300526563762E2057616E64204461743F
:100DA000613A2000526563762E2057616E642043BD
:100DB0006F6D6D616E643A2000207C20436F6E6E13
:100DC0002E2053746174653A200057616E6420537D
:100DD000796E63696E67207C20436F6E6E2E2053A0
:100DE000746174653A200057616E642044697363CE
:100DF0006F6E6E6563746564207C20436F6E6E2E2B
:100E00002053746174653A2000417474656E756195
:100E1000746F722053796E63696E67207C20436F14
:100E20006E6E2E2053746174653A200041747465AF
:100E30006E7561746F7220446973636F6E6E656363
:100E4000746564207C20436F6E6E2E205374617431
:100E5000653A2000536176696E6720536D6F6B654C
:100E600020507265666572656E63657300536176C6
:100E7000696E672057616E642050726566657265A1
:100E80006E63657300526563762E20536D6F6B65DC
:100E900020436F6E66696700526563762E20576146
:100EA0006E6420436F6E66696700526563762E201C
:100EB0005061636B20436F6E6669670052656376AD
:100EC0002E20417474656E7561746F72204D657368
:100ED000736167653A2000526563762E2041747411
:100EE0002E20436F6D6D616E643A2000207C20439C
:100EF0006F6E6E2E2053746174653A2000000102FB
:100F0000030405060708090A0B0C0D0E0001020375
:100F10000405060708090A0B0C0E0D0C0B0A09083C
:100F200007060504030201000C0B0A090807060561
:100F30000403020100B80BB80BAC0DAC0DA00F30D0
:100F400075983A10274C1D70173D006401650166C5
:100F500001670100002100240027002A002D003035
:100F600000330001010000040107010A0100002014
:100F7000002300260029002C002F00320000010071
:100F800000030106010901010210202008081020B9
:100F90004010204080020102010804020101020405
:100FA00008102040808040201008040201800402C4
:100FB000018040201008040201080402010102041B
:100FC0000810204080010204081020408000002208
:100FD00000250028002B002E003100340002010003
:100FE00000050108010B01050505050705080808AE
:100FF00008020202020A0A080804040404010101AA
:1010000001010101010303030303030303040707B1
:10101000070C0C0C0C0C0C0C0C020202020606064F
:1010200006060606060B0B0B0B0B0B0B0B00000A40
:101030000B02090C0D0E080703040100000000005C
:1010400000000000000000000000000000000000A0
:10105000000000000000000000121110000000005D
:101060000000000000000000000000000000000080
:10107000000000008BBBB08611241FBECFEFD1E271
:10108000DEBFCDBF00E00CBF13E0A0E0B2E0E4E7BC
:10109000F3E901E00BBF02C007900D92A233B10744
:1010A000D9F727E1A2E3B3E001C01D92AE3BB2073E
:1010B000E1F718E0CBE3D8E000E006C02197010992
:1010C000802FFE010E9417C4CA33D10780E00807B1
:1010D000A9F70E94F5860C94A8C90C9400002091F1
:1010E000B903260F3327331F21323105ECF4209149
:1010F0000905FC0190E080E0243069F082E0089569
:10110000A091B9032191AC0149565C4FA40FB52FB2
:10111000B11D2C930196861798F38091B903680F3F
:101120006093B90380E0089581E0089508950895DB
:101130000895E091C2048091C104E81730F4F0E012
:10114000ED53FB4F808190E008958FEF9FEF08955E
:101150009091C2048091C1042FEF3FEF981748F49B
:10116000E92FF0E0ED53FB4F208130E09F5F90933B
:10117000C204C90108958091C1049091C204891BE1
:10118000990B0895CF92DF92EF92FF920F931F93E6
:10119000CF93DF937C01CB018A012091310522237B
:1011A00089F0EB016B01C40ED51ECC15DD0569F08D
:1011B0006991D701ED91FC910190F081E02DC7017B
:1011C0001995F3CF642F0E946F08C801DF91CF916A
:1011D0001F910F91FF90EF90DF90CF900895CF93E4
:1011E000DF931F92CDB7DEB76983209131052223AB
:1011F000F9F020912F05203258F021E030E0FC0179
:101200003383228390E080E00F90DF91CF910895A7
:1012100080913005E82FF0E0E15FFA4F99819083EB
:101220008F5F8093300580932F0581E090E0ECCFB5
:1012300061E0CE0101960E946F08F7CF90E080E058
:101240000895FC01208931898485958528173907FF
:1012500041F481E042895389268537854217530737
:1012600009F080E00895FC01208931898685978501
:101270002817390741F481E042895389248535854F
:101280004217530709F080E008958F929F92AF9222
:10129000BF92CF92DF92EF92FF92CF93DF93FC0148
:1012A0004A01AA24BB24C32ED42EE52EFF24DC2D14
:1012B000C22F8085982D882391F0C82FD0E0C89D3B
:1012C000D001C99DB00DD89DB00D11249B2F8C9DD0
:1012D00060011124DD2D829F90011124C32FA6856A
:1012E000218532858385A81321C0AB01440F551F8A
:1012F000640F751F620F731FA385A60FB72FB11D53
:101300009C93A485A60FB72FB11DDC938585680F2C
:10131000711DFB01C083DF91CF91FF90EF90DF90B3
:10132000CF90BF90AF909F908F900895660F771FDA
:10133000660F771F620F731FA60FB72FB11D1C9288
:10134000DBCF982F603411F46091A817615067309B
:1013500088F4E62FF0E08827EF54F64F8F4F0C9477
:1013600017C4B809C409C909E309E509CB09CD09BE
:1013700083E10895923019F1953089F0911127C0D9
:1013800084E108958DE008958091A617833009F5D2
:1013900008958BE0089584E608959530E1F48091F6
:1013A00095038F5F853068F4982F937051F0809388
:1013B000950380919503813061F3823019F781E0C4
:1013C000089581E0F4CF8DE6089585E6089585E0DF
:1013D00008958FE008958EEF0895843008F080E03E
:1013E00090915102E82FF0E080912102882399F03A
:1013F000943141F0983261F09C3039F4E55EF64F5B
:1014000084910895E95EF64FFBCFED5EF64FF8CF7D
:10141000E15FF64FF5CF943139F0983259F09C30B6
:1014200031F4E55FF64FECCFE95FF64FE9CFED5FC2
:10143000F64FE6CFE150F74FE3CF8091A617823009
:1014400020F0843068F0853011F18CE291E09093C7
:101450004402809343029093420280934102089594
:101460006091390270913A0290E080E00E943BC2A4
:1014700026E636E646EA5FE30E949CC20E942AC541
:1014800070934402609343028CE291E0E4CF88ECD5
:1014900090E09093440280934302F6CF853608F0A3
:1014A00084E62FEF829FC001112464E670E00E9461
:1014B00003C4862F0895E82F80917603882391F046
:1014C0001E163CF40E2E000CFF0BE558F84F8491CD
:1014D0000895EF3D94F0FF27E1950CF4F095E35D5E
:1014E000F84FF5CFE53D4CF01E164CF0FF27E19587
:1014F0000CF4F095E15BF84FEACF80E0089584E6C4
:1015000008950F931F93CF93DF93EC018C01055E39
:101510001D4FD8018D919C91DC01ED91FC910084CF
:10152000F185E02D1995892B59F0F8018081918181
:10153000DC01ED91FC910284F385E02D1995E9CF52
:10154000CE010E94E573FE01E65EFD4FCD5FDD4FEB
:1015500088818083DF91CF911F910F910895BF9271
:10156000CF92DF92EF92FF920F931F93CF93DF936F
:101570001F92CDB7DEB78C016B01B42EDB018D91CC
:101580009C91F801E15FFD4F7F018F3F910508F4C9
:1015900075C08FEF80836801F80180E091919E37DC
:1015A00009F067C0D7018C934FE752E0B801C8013A
:1015B0000E94FD7340911108509112089801225029
:1015C0003F4F80E0D601ED916D01E827E40FF52F44
:1015D000F11D80812A173B07A9F7F801E350FE4F60
:1015E000B082F7019081F801E250FE4F90839EEFA8
:1015F00031969083319680838EEFF82E6801B5EE98
:10160000CB1ABDEFDB0AF60180819181B8016450ED
:101610007E4FDC01ED91FC910280F381E02D44E0EE
:1016200050E01995F601808191814F2D50E0DC0149
:10163000ED91FC910280F381E02DB8011995F6013E
:1016400080819181B8017E5FDC01ED91FC91028087
:10165000F381E02D42E050E019958F2D0F90DF913E
:10166000CF911F910F91FF90EF90DF90CF90BF909F
:1016700008958F5F8E3F09F091CF96CF982F8FEF0F
:101680008083F80180E0891728F421912E3719F51D
:10169000F7018083D6018C918983AE014F5F5F4F44
:1016A000B801C8010E94FD73F6012081318140918B
:1016B000110850911208D80180E03327BD01601B4A
:1016C000710B6217730748F4ED91E827E40FF52FCB
:1016D000F11D8081F3CF8F5FD6CFF801E350FE4F2D
:1016E000B082D7019C9131969083F6019081F801E8
:1016F000E150FE4F908331968083D601FC907ECFDF
:101700001092090581E0809308051092E30461E0DE
:1017100084E10E94838161E085E10E948381E9EB9D
:10172000F0E080818E7F808380818D7F808388E45C
:101730008093B80085E48093BC000895CF92DF9237
:10174000EF92FF920F931F93CF93DF93EC01888169
:101750000E945A818C010E94F1852C893D892017B5
:10176000310731F06E8B7F8B888F998F1D8B0C8B9F
:10177000CE88DF88E88CF98C6C197D098E099F0969
:10178000CA80DB80EC80FD806C157D058E059F0591
:1017900030F08A899B89998B888B1B8B0A8B2889CF
:1017A00039898A899B892817390781F04A855B85A1
:1017B00042305105A1F48E819F81A885B98501969B
:1017C000A11DB11D8E839F83A887B987DF91CF911B
:1017D0001F910F91FF90EF90DF90CF9008954115EA
:1017E000510531F42130310589F7892B21F3EECFF2
:1017F0004130510559F7232B49F7019739F7DBCFD2
:10180000CF92DF92EF92FF920F931F93CF93DF93CC
:1018100000D000D000D0CDB7DEB78C01DC01199626
:101820008D919C91892B09F473C00E941C83F8014F
:10183000C784D088E188F2886C157D058E059F05E8
:1018400020F46787708B818B928BF801C784D088D6
:10185000E188F2886C197D098E099F096C3271400C
:101860008105910510F3F894D80114968D919C91FF
:1018700015979A8389831996ED91FC917F01BFEFAB
:10188000EB1AFB0A80818987F80190810388F4892B
:10189000E02DD80155968C91992309F448C0908188
:1018A000982B98879081809589238F838F818C8353
:1018B00088E08B8358856F8149853B812C818981A4
:1018C0009A81D701508347FD252F3A952083262FF3
:1018D00039F0441F00C000006083000000C0F2CF58
:1018E00038E04D9160830000019761F7D80154966C
:1018F000FC93EE93539749873B832C839A83898388
:1019000078940E941C83F8016787708B818B928B7F
:1019100029960FB6F894DEBF0FBECDBFDF91CF91F1
:101920001F910F91FF90EF90DF90CF9008959081DD
:10193000982B98879081809589238F838F818E83C0
:1019400088E08D8358856F8149853D812E8189810D
:101950009A81D701508347FD252F00C000C0208306
:1019600000C000C000C000C000C060830000262F7F
:101970003A9541F0441F000000C000C000C000C004
:1019800000C0E8CF38E04D9100C0608300C00197EF
:1019900009F7D8015496FC93EE93539749873D83FA
:1019A0002E83ACCF0F931F93CF93DF9300D000D043
:1019B000CDB7DEB78C01862F643660F1D8018C91EB
:1019C0000E94377769837A838B83CE0101960E94C8
:1019D0002E6E6C837D838E83D801EC918091851768
:1019E00060E0E81740F48091921790919317E80F08
:1019F000F92FF11D6081CE0104960E94AD6E2696EE
:101A00000FB6F894DEBF0FBECDBFDF91CF911F910F
:101A10000F910895642F0E94B876D4CF0F931F932F
:101A2000CF93DF9300D000D0CDB7DEB78FEF9FEF1D
:101A3000DC0189839A83AB83BC8310E000E01E83C2
:101A40000D83BE016B5F7F4FCE0101960E94BD6E7C
:101A5000BE016A5F7F4FCE0101960E94BD6E0F5F8F
:101A60001F4F0533110559F78DE190E09E838D835B
:101A7000BE016B5F7F4FCE0101960E94BD6EBE011D
:101A80006A5F7F4FCE0101960E94BD6E88E190E0B3
:101A90009E838D83BE016B5F7F4FCE0101960E94B6
:101AA000BD6EBE016A5F7F4FCE0101960E94BD6E82
:101AB00069817A818B819C816095709580959095E4
:101AC00026960FB6F894DEBF0FBECDBFDF91CF9143
:101AD0001F910F910895FF920F931F93CF93DF9360
:101AE000EC01F62E08811981C8010E945AC3F8162C
:101AF00021F06F2DC8010E9462C3CE01DF91CF910A
:101B00001F910F91FF900895EF92FF920F931F93F3
:101B1000CF93DF9300D000D0CDB7DEB70E940E0D7B
:101B200069837A838B839C83CE0101967C010CEFC1
:101B30001FE01E830D83F70161917F01CE010596A1
:101B40000E946B0D0F5F1F4F0115F0E11F0789F712
:101B500026960FB6F894DEBF0FBECDBFDF91CF91B2
:101B60001F910F91FF90EF9008958F929F92AF92E7
:101B7000BF92CF92DF92EF92FF920F931F93CF937A
:101B8000DF931F921F92CDB7DEB78C0119828FEFC2
:101B90008A83680125EEC21A2DEFD20AD6018D91F3
:101BA0009C91DC01ED91FC910084F185E02D19956B
:101BB000F801E75EFD4F7F01892B09F449C081E000
:101BC00089834801FDEF8F1A9F0A580126EEA21A59
:101BD0002DEFB20AD6018D919C91DC01ED91FC9123
:101BE0000084F185E02D1995892B09F1F60180819A
:101BF0009181DC01ED91FC910284F385E02D199532
:101C00008A83AE014F5F5F4FBE016E5F7F4FC80199
:101C10000E941D74F7018083D4018C91F5018083AB
:101C20008330C1F218161CF0C8010E94810AF70126
:101C300080810F900F90DF91CF911F910F91FF90B6
:101C4000EF90DF90CF90BF90AF909F908F900895CE
:101C5000AE014F5F5F4FBE016E5F7F4FC8010E94B4
:101C60001D74D7018C93F801ED5FFD4F808177964D
:101C70008083D8CFCF93DF9391E09093960388230E
:101C8000B9F0C091B800D091BA008091BC008A7BB5
:101C90008093BC0060E084E10E94838160E085E184
:101CA0000E9483810E94800BD093BA00C093B80039
:101CB000DF91CF91089585ED8093BC0080910B0555
:101CC00090910C05A0910D05B0910E050796A11DF0
:101CD000B11D23E0B695A795979587952A95D1F7DD
:101CE0002091BC0024FD03C0109209050895409185
:101CF0000B0550910C0560910D0570910E05452B5B
:101D0000462B472B69F30097A105B10541F02AE264
:101D10002A95F1F700C00197A109B109E1CF80919F
:101D20000A050C943A0E1F920F920FB60F921124CF
:101D30000BB60F922F933F934F935F936F937F93C5
:101D40008F939F93AF93BF93EF93FF938091B900CD
:101D5000887F803609F44DC008F040C0883209F40D
:101D6000A9C028F5803109F49DC0C8F4882309F47E
:101D7000FBC0883009F496C0FF91EF91BF91AF91FD
:101D80009F918F917F916F915F914F913F912F9193
:101D90000F900BBE0F900FBE0F901F9018958831BB
:101DA00009F488C0803241F78093070514C080345D
:101DB00009F49DC040F48033B9F38833E9F6809389
:101DC000070585ECB0C0803509F485C0883509F475
:101DD00096C0883489F60E945B0ECECF883909F40C
:101DE0008CC038F5883729F050F4883611F08037E8
:101DF00019F683E0809309051092DD0357C08838F7
:101E000009F47BC0803919F0803809F0B5CF809192
:101E1000DD03803208F071C0E091DD0381E08E0FB8
:101E20008093DD038091BB00F0E0E354FC4F80839E
:101E30003DC0803B39F0E0F4803A09F479C0883A3B
:101E400009F09ACF84E0809309051092BA031092AA
:101E5000B903E091B703F091B80319958091B903E4
:101E600081110FC081E08093B9031092970309C0DC
:101E7000803C09F4A6CF883C09F4A3CF883B09F045
:101E80007BCFE091BA0381E08E0F8093BA03F0E03C
:101E9000E956FC4F80818093BB009091BA038091FA
:101EA000B90329C08091E4048093BB0085EC809342
:101EB000BC0062CF9091060580910505981758F5F2
:101EC000E091060581E08E0F80930605F0E0EB516E
:101ED000FB4F8081E9CFE091060581E08E0F809372
:101EE00006058091BB00F0E0EB51FB4F80839091A1
:101EF0000605809105059817C8F285E8D8CFE091CE
:101F0000060581E08E0F809306058091BB00F0E00E
:101F1000EB51FB4F80838091080581115CCF81E0FC
:101F20008093E30484EA8093BC001092090524CFD7
:101F300085EC8093BC00109209058091DD0380320E
:101F400030F4E091DD03F0E0E354FC4F1082609147
:101F5000DD0370E0E091BB03F091BC038DEB93E0F7
:101F600019951092DD0308CF1092070534CF8F9298
:101F70009F92AF92BF92CF92DF92EF92FF920F9318
:101F80001F93CF93DF93FC012085211110C060E0E7
:101F900070E0CB01DF91CF911F910F91FF90EF90F7
:101FA000DF90CF90BF90AF909F908F900895EC01FD
:101FB0000E94F18529852111EACF8C809D80AE8019
:101FC000BF80088119812A813B816B017C01C8187F
:101FD000D908EA08FB08C016D106E206F306B8F6EF
:101FE000080D191D2A1D3B1D68017901C61AD70A63
:101FF000E80AF90AC701B601CDCFCF92DF92EF927E
:10200000FF921F93CF93DF93FC01108511110AC03B
:1020100010E0812FDF91CF911F91FF90EF90DF9023
:10202000CF900895EC018185882319F018861986D0
:10203000F0CF0E94F185CC80DD80EE80FF806C19AE
:102040007D098E099F09C880D980EA80FB806C15C4
:102050007D058E059F0550F7DBCFCF93DF93EC0115
:10206000488359836A837B830E94F1856C837D83D7
:102070008E839F8381E088871986DF91CF910895B1
:102080000F931F93CF93DF93EC010E94F1858B0197
:102090009C018C819D81AE81BF81488159816A817B
:1020A0007B81081B190B2A0B3B0B0417150726070E
:1020B000370738F4CE01DF91CF911F910F910C9427
:1020C0002D10840F951FA61FB71F8C839D83AE8391
:1020D000BF8381E088871986DF91CF911F910F918F
:1020E0000895CF93DF931F921F92CDB7DEB7813C47
:1020F000910509F1823C910579F184309105E1F572
:10210000EEECF7E0A1E2B8E081918D9387E0E73D46
:10211000F807D1F789E090E09A83898346E0BE0111
:102120006F5F7F4F81E298E00E94AF0A0F900F909F
:10213000DF91CF910895E3EEF7E0A1E2B8E083EFFD
:1021400097E021912D938E179F07D9F780E190E0BA
:102150009A83898344E0E3CFE7EDF7E0A1E2B8E0BA
:1021600081918D9387E0E33EF807D1F78CE090E012
:102170009A83898345E0D3CF22E020938403909310
:10218000860380938503609387037093880394E0AC
:1021900090938903209321088093220880918603DD
:1021A0008093230860932408709325089093260851
:1021B00086E090E09A83898341E0B1CF70E060E0EF
:1021C0000C947110EDE5FEE080914E0280838091C9
:1021D0004D02818380914C02828380914B028383E4
:1021E00080914A028483089580915102843161F084
:1021F000883221F08C3031F48FE001C087E0809389
:102200000602089585E0FBCF8AE0F9CF8091240291
:1022100090912502892B21F088E080930502089592
:102220001092050208959091520280915102890FF7
:1022300027E0280F2093A317909379178093A21774
:102240002091160280918E03409124025091250224
:10225000452BC9F0909105023FEF390F30934F02A3
:102260009093470F920F2FEF290F2093460F9093D3
:10227000450F8150890F891718F08093440F0895F6
:102280009093440F089510924F021092470F9FEFC2
:10229000920F9093460F2093450F820F8150821723
:1022A00060F72093440F089581E08093100280939B
:1022B0000F0280930E0208958823E9F18091400275
:1022C0008823B9F18091340490912D04992339F138
:1022D000811127C0E091AA17F0E0E45AF14F808104
:1022E000811125C080912B04811121C08091400271
:1022F000882311F18091340490912D049923F1F0F9
:1023000081111EC0E091AA17F0E0E45AF14F8081DC
:1023100081111CC080912B04811118C0089588235D
:1023200009F3E091AA17F0E0E758FD4FD8CF5F9A84
:10233000DDCF5F98DBCF5F9844980895882351F3F1
:10234000E091AA17F0E0E758FD4FE1CF449A0895D5
:102350008823E9F1809140028823B9F18091340407
:1023600090912D04992339F1811127C0E091AA178A
:10237000F0E0E45AF14F8081811125C080912B0457
:10238000811121C080914002882311F18091340491
:1023900090912D049923F1F081111EC0E091AA17AC
:1023A000F0E0E45AF14F808181111CC080912B0430
:1023B000811118C00895882309F3E091AA17F0E06D
:1023C000E758FD4FD8CF429ADDCF4298DBCF4298F5
:1023D000A2980895882351F3E091AA17F0E0E758F6
:1023E000FD4FE1CFA29A089580910B02882349F016
:1023F00081E02091040F3091050F232B31F080E014
:1024000008958091750391E089270895982F809110
:102410000802882369F0923049F4809126028823CB
:1024200051F081E0909151029C3029F480E003C08A
:1024300081E09230D9F70895E82FF0E080915102C1
:102440008C3089F028F4843051F0E15AF74F09C0FC
:10245000843161F08832C9F7E95CF74F02C0E95274
:10246000F74F84910895E155F74FFBCFE957F74FA8
:10247000F8CF8823D1F080912D04882341F0E0919A
:10248000AA17F0E0E45AF14F8081811108C08091D1
:102490003404811104C080913304882331F0809189
:1024A0000B01886080930B01089580910B01877F59
:1024B000F9CFE0E8FEE0108611868EE180930002FD
:1024C00090E080E00C94ED819091AF179330B9F0DB
:1024D0009530D9F020912902222389F0882379F0C0
:1024E000923079F490912D04992349F09091000253
:1024F000891759F08093000290E00C94ED810C94C0
:102500005912909100029813F5CF0895BF92CF927F
:10251000DF92EF92FF920F931F93CF93DF93EC0123
:1025200080911A020E944E0AB82EF0907817E0901F
:1025300079178EE697E10E94FD0F882309F4A9C15F
:10254000FE188F2D0E941C12E82E80913E028823D7
:1025500009F4B1C085E080930D028EE397E10E94FB
:10256000096F882389F010923E02D0934402C093F1
:102570004302AE0170E060E08EE697E10E942D100C
:1025800080E4809304021BC08EE397E10E94736F86
:102590009093440280934302AC0170E060E08EE6C9
:1025A00097E10E942D10809104028F5F8E3108F414
:1025B00080C08093040280910402813408F78091E6
:1025C0002D0481110CC080913404811108C08091C8
:1025D0003304811104C0809104020E94641280912E
:1025E000100290915102943109F4F9C0983209F423
:1025F000F6C09C3009F4F7C0823008F4DDC090E0EA
:102600008C179D0709F4E8C0C81BD90B8091A71748
:102610000E94061281113DC1EF2DF0E0E450FC4F05
:10262000808181111BC0EE20C9F0809108028823AF
:10263000A9F029E1F29EC00111249C012259304FDA
:10264000690160E0C9010E94D9719E0150E040E03B
:1026500004E110E06B2DC6010E94A67180912A0250
:10266000882309F420C180915102843109F4C1C04A
:10267000883209F418C1909135048C3009F4D5C022
:1026800091110DC080913E02811109C080913304E7
:10269000811105C080912A04882309F40AC137E218
:1026A0008BE1F31609F4D7C083E1F812FEC08FE086
:1026B000D2C08EE17ECF809135048823B1F185E0D0
:1026C00080930D028EE397E10E94096F882319F031
:1026D0001092350474CF8EE397E10E94736F90934C
:1026E000440280934302AC0170E060E08EE697E123
:1026F0000E942D102091430230914402293231056D
:1027000068F080910402833320F0815080930402AA
:1027100005C02536310510F08F31B8F780910402DD
:102720008E3108F04CCF8EE12CCFD0934402C09371
:10273000430280911002909151029C3031F194310A
:1027400021F18230E8F0282F30E0AE01421B530B1C
:102750002C173D0711F450E040E0909108028B5F88
:10276000911101C085E080930D0280910D028B30A4
:1027700018F08AE080930D024115510591F013C0C5
:1027800085E080930D02AE01F0CF95E090930D02AD
:10279000823080F090E0AE01481B590B8C179D07EA
:1027A00011F441E050E070E060E08EE697E10E94B5
:1027B0002D1005CFAE01E0CF80913E02811109C0FE
:1027C00080913504811105C0CE01880F991FC80F73
:1027D000D91F209709F01ACFC1E0D0E017CF82307F
:1027E00008F00DCFF1CF823008F009CFCC0FDD1FFC
:1027F000F0CF8091350481110DC080913E0281118E
:1028000009C080913304811105C080912A04882376
:1028100009F44FC092E29F1508F449CF81EF8F0D64
:10282000853008F044C089E016C091110CC0809139
:102830003E02811108C080913304811104C080914F
:102840002A048823B1F120E22F1568F383EF8F0D5E
:10285000873088F585E02091210290917817222316
:1028600009F454C0E11029C020917003281728F5FD
:102870002F5F20937003209178178091520290E08F
:1028800087962817190629F024F0809179178093EC
:102890007817DF91CF911F910F91FF90EF90DF900C
:1028A000CF90BF90089580E0D6CF85E1D4CF8BE064
:1028B000D2CF83E0D0CF87E0CECF10927003C92F64
:1028C000E11020C020917917EC2EF12C822F90E09E
:1028D00087968E159F057CF28C2F821B0E941C12FE
:1028E000882319F0C0937817C6CF8091520290E0E8
:1028F0008796E816F90621F4809179178093781766
:10290000CF5FE0CF9F5F90937817B5CFE11012C0F3
:1029100020917003281770F42F5F2093700390911B
:10292000781780917917981708F0B3CF80915202E9
:10293000895DADCF10927003C92FE11010C0809156
:1029400079178C1760F73C2F381B832F0E941C12BD
:10295000882319F0C0937817E2CFC150F0CF91507F
:1029600090937817DCCF8091A617853059F4809129
:102970000802811107C09091A71781E0992321F0E7
:10298000973011F080E00895089581E080933E0231
:1029900080933D0280933C020895DF92EF92FF9274
:1029A0000F931F93CF93DF938CEFE82E83E0F82EE5
:1029B00006E413E0D0E0C0E0DD24D394F7011192E7
:1029C0007F0160E0CE018A5A9C4E0E94D97160E07E
:1029D000CE018259904F0E94D971F801D1928F0196
:1029E0006996C83EF3E0DF0749F7DF91CF911F9169
:1029F0000F91FF90EF90DF90089580911002811168
:102A000003C081E08093100280911002853018F09D
:102A100084E08093100280910F02811103C081E055
:102A200080930F0280910F02853018F084E080932C
:102A30000F0280910E02811103C081E080930E028B
:102A400080910E02853018F084E080930E02089584
:102A50002F923F924F925F926F927F928F929F92AE
:102A6000AF92BF92CF92DF92EF92FF920F931F939C
:102A7000CF93DF93CDB7DEB7A2970FB6F894DEBF42
:102A80000FBECDBF8091E10C0E945B0A282F809180
:102A9000260488248394882311F072E0872E809185
:102AA000210299249394882311F062E0962E80915C
:102AB0002302AA24A394882311F052E0A52E80912A
:102AC0002A02BB24B394882311F042E0B42E8091F3
:102AD0004002CC24C394882311F032E0C32E8091AD
:102AE0002E02DD24D394882311F092E0D92E809118
:102AF0003F028111D5C0E1E0E8A380912504811156
:102B0000D2C0E1E0E9A3E0901202F090A417809116
:102B10003D0401E0811102E08091F50312E0811192
:102B200011E080910B0231E0811132E080918C0341
:102B300022242394882311F082E0282E80912804F7
:102B40008111B4C0E1E0EAA38091270290912802AC
:102B500068EE73E00E94EFC3762E8091760341E029
:102B6000811142E080912F0290913002E8EEF3E073
:102B7000BF010E94EFC3362E809131029091320244
:102B8000BF010E94EFC3462E809133029091340220
:102B9000BF010E94EFC3562E8091350290913602FC
:102BA000BF010E94EFC3662E8091370290913802D8
:102BB000BF010E94EFC380914A02A1E08111A2E00F
:102BC00080914B0271E0811172E080914C0251E0E2
:102BD000811152E080914D0291E0811192E080914B
:102BE0004E02811166C081E0253608F064C02F5F77
:102BF000E0912202E150E53008F05FC0F0E0EB58D0
:102C0000FD4FE08189829A82AB82BC82CD82DE82D6
:102C1000F8A1FF83F9A1F887E986FA860B871C875C
:102C20004D872E873F86488A598A6A8A6B8BAC8B80
:102C30007D8B5E8B9F8B888FE98F3A8F2B8EEAA1DD
:102C4000EC8F7D8ECE0101967C0108E110E01F8F94
:102C50000E8FF70161917F01CE014E960E946B0DA0
:102C60000F5F1F4F0533110591F70E94840DA29647
:102C70000FB6F894DEBF0FBECDBFDF91CF911F918D
:102C80000F91FF90EF90DF90CF90BF90AF909F900B
:102C90008F907F906F905F904F903F902F9008950E
:102CA000F2E0F8A32ACFF2E0F9A32DCFF2E0FAA3E5
:102CB0004BCF82E099CF25E69BCFE4E0A3CF0F93E3
:102CC0001F93CF93DF931F921F92CDB7DEB708E11A
:102CD00010E01A8309836FEFCE0101960E946B0DFD
:102CE0000F5F1F4F05331105A1F70E94840D0F9050
:102CF0000F90DF91CF911F910F910895EF92FF9266
:102D00000F931F93CF93DF93CDB7DEB76A970FB6BC
:102D1000F894DEBF0FBECDBF8091E303F1E08130B8
:102D200009F4F2E080910C0293E0813021F094E00C
:102D3000823009F092E0209124023091250282E055
:102D40002115310529F083E02130310509F084E0B7
:102D500020913B0261E0211162E02091E203E1E079
:102D60002111E2E020918D0371E0211172E02091A8
:102D7000E50351E0211152E02091E80341E02111E7
:102D800042E02091260231E0211132E02091E1035E
:102D9000211157C021E0A0915202A983A0915102B4
:102DA000AA83A0911602AB83FC83F0911C02FD83E1
:102DB000F0911E02FE83F0912002FF83F0911B022E
:102DC000F887F0911D02F987F0911F02FA87F091C0
:102DD0001702FB87F0911A02FC87F0911902FD8718
:102DE000F0911802FE87EF87E0918E03E88B998BB4
:102DF0007A8B8B8B6C8B5D8B4E8B3F8B288FCE01B0
:102E000001967C0110E000E01A8F098FF7016191B3
:102E10007F01CE0149960E946B0D0F5F1F4F083155
:102E2000110591F70E94840D6A960FB6F894DEBFE3
:102E30000FBECDBFDF91CF911F910F91FF90EF900B
:102E4000089522E0A8CF0F931F93CF93DF931F9293
:102E50001F92CDB7DEB710E000E01A8309836FEF51
:102E6000CE0101960E946B0D0F5F1F4F08311105B7
:102E7000A1F70E94840D0F900F90DF91CF911F91C9
:102E80000F910895CF93DF93CDB7DEB764970FB658
:102E9000F894DEBF0FBECDBF2091340530913505CB
:102EA000215031092230310580F4FE01319694E140
:102EB000DF011D929A95E9F795E0998381110EC083
:102EC00085E18D83CF010E94F57964960FB6F89461
:102ED000DEBF0FBECDBFDF91CF91089584E1F1CF6A
:102EE000CF93DF93CDB7DEB764970FB6F894DEBF0C
:102EF0000FBECDBF209134053091350521503109E9
:102F00002230310580F4FE01319694E1DF011D92FB
:102F10009A95E9F795E0998381110EC083E18D833D
:102F2000CF010E94F57964960FB6F894DEBF0FBE0C
:102F3000CDBFDF91CF91089582E1F1CF8093F2036D
:102F40002091ED033091EE03121613063CF4682F26
:102F50008091EF039091F0030C945A7B0895282FF1
:102F6000853608F024E6822F65E00E94E3C39923AA
:102F700061F0822F90E0029665E070E00E9403C449
:102F8000862F880F880F282F260F822F65E00E943A
:102F9000E3C3E82FF0E080917603882321F0E85E18
:102FA000F84F84910895E55FF34FFBCFAB0120917B
:102FB000340530913505215031092330310528F48D
:102FC00021E06AEB7FEF0C94837B08952091340518
:102FD00030913505215031092330310518F460E076
:102FE0000C945A7B089582E190E00E94E61783E1F9
:102FF00090E00E94E61784E190E00E94E61785E1E8
:1030000090E00E94E61786E190E00C94E61720918C
:10301000340530913505215031092330310510F444
:103020000C94197E08958091A6178250823020F06A
:103030008AE691E00C9407188CE390E0FBCF8DE8D2
:1030400090E00E9407188EE890E00E9407188FE831
:1030500090E00E94071880E990E00E94071881E93B
:1030600090E00E94071882E990E00E94071883E927
:1030700090E00E94071884E990E00E94071889E414
:1030800091E00E9407188CE491E00C94071880915D
:10309000A617853061F48FE891E00E9407188DEB48
:1030A00091E00E94071887E390E00C9407188BE6E4
:1030B00091E00E9407188CE691E0F7CFCF92DF9263
:1030C000EF92FF920F931F93CF93DF936C01F62E35
:1030D000C42F14160CF4C0E0CA3B0CF4CAEB809168
:1030E0003405909135058230910591F18330910539
:1030F00019F0019709F048C00C2E000CDD0B2223BB
:1031000081F06AEB7FEFC6010E94F37D6E2DC60150
:103110000E949C7D20E0A801BE01C6010E94837B25
:1031200008C0BE01C6010E94F37D6E2DC6010E943B
:103130009C7D61E0F11001C060E0C601DF91CF919C
:103140001F910F91FF90EF90DF90CF900C945A7BDE
:103150000C2E000CDD0B222361F06AEB7FEFC60121
:103160000E94F37D50E040E06E2DC6010E94C37DB9
:10317000D1CFBE01C6010E94F37D50E040E06E2D2C
:10318000C6010E94C37DD5CFDF91CF911F910F91D2
:10319000FF90EF90DF90CF900895CF92DF92EF9263
:1031A0000F931F93CF93DF9368EE73E00E94EFC3FA
:1031B000EB016B0184EBC80ED11CCB018D549F4FEA
:1031C0000E940718C6010E940718CE018B549F4F1A
:1031D0000E940718EE24E39410E000E020E0409104
:1031E000DF0C60E0C6010E945E18DF91CF911F9155
:1031F0000F91EF90DF90CF9008958330B9F198F45C
:10320000823009F442C08091370290913802885E82
:103210009340803D27E0920708F446C0909338021F
:103220008093370212C0843091F0853061F780912D
:103230002F0290913002885E9340803D27E09207F4
:1032400098F19093300280932F020C94CD188091C6
:10325000310290913202885E9340803D27E09207D0
:1032600018F19093320280933102EFCF80913302B4
:1032700090913402885E9340803D27E09207A0F051
:103280009093340280933302E0CF80913502909185
:103290003602885E9340803D27E0920728F09093A5
:1032A000360280933502D1CF08958330B9F198F476
:1032B000823009F442C080913702909138028851DF
:1032C0009C4F81362AEE920708F046C09093380250
:1032D0008093370212C0843091F0853061F780917D
:1032E0002F029091300288519C4F81362AEE92072E
:1032F00098F59093300280932F020C94CD18809112
:1033000031029091320288519C4F81362AEE920709
:1033100018F59093320280933102EFCF80913302FF
:103320009091340288519C4F81362AEE9207A0F486
:103330009093340280933302E0CF809135029091D4
:10334000360288519C4F81362AEE920728F49093DA
:10335000360280933502D1CF0895EF920F931F93D9
:1033600080912804882309F479C08091ED0D8111A2
:1033700006C08091A617843079F0853059F14091CC
:1033800027025091280270E060E085EE9DE01F91D9
:103390000F91EF900C942D1080E190E00E9407189F
:1033A0008091A717823071F44091DF0C4852EE24CF
:1033B000E39410E000E020E061E080E190E00E9412
:1033C0005E18DDCFEE24E39410E000E020E04091B1
:1033D000DF0CF2CF85E991E00E9407188091A717D2
:1033E000823029F54091DF0C4852EE24E39410E03E
:1033F00000E020E061E085E991E00E945E180E9413
:10340000B314882309F4BBCF809126048823B9F034
:103410008AEB91E00E940718EE24E39410E000E0AC
:1034200020E04091DF0C61E08AEB91E0C8CFEE2410
:10343000E39410E000E020E04091DF0CDBCF89EB6B
:1034400091E00E940718EE24E39410E000E020E0F1
:103450004091DF0C61E089EB91E0B1CF1F910F91BA
:10346000EF900895EF920F931F938091A7178230EA
:1034700009F472C0833091F1813009F474C08091F5
:10348000A6179091AA179150943008F04FC083303E
:1034900069F0853009F447C0823009F041C08DE7FA
:1034A00091E00E9407188FE791E006C084E690E063
:1034B0000E94071883E690E00E94071880912B0273
:1034C000882321F089E090E00E94071888E490E0CA
:1034D0000E94071882E690E00E94071880912C0253
:1034E00090912D02009709F445C0019709F466C038
:1034F0001092EC031092EA038091A717853021F413
:1035000083EA91E00E9407188091A717863009F09E
:1035100071C084EA91E01F910F91EF900C9407180D
:1035200080E690E0BECF8FE491E0BBCF833059F0CE
:10353000853079F0823051F487E891E00E940718D5
:1035400089E891E0B9CF81E690E0B6CF8BE990E0D1
:10355000B3CF8FE491E0B0CF83E390E00E940718EF
:1035600084E390E0B9CF89E390E00E9407188AE3F2
:1035700090E0B2CF82E090E090932D0280932C02F5
:103580008091340590913505039741F48AE490E0E9
:103590000E94071889E490E00E9407188091290E84
:1035A0008111A6CFE12C10E000E020E04091DF0C7B
:1035B00060E089E490E00E945E189ACF82E090E09B
:1035C00090932D0280932C028EE690E00E940718C3
:1035D0008FE690E00E9407188091290E811188CF14
:1035E000E12C10E000E020E04091DF0C60E08FE68D
:1035F00090E0E1CF1F910F91EF900895CF92DF926D
:10360000EF92FF921F93CF93DF93C82ED12CE60148
:10361000CC0FDD1FFE01EE5CFC4F20813181232B9E
:1036200029F58DE290E00E948BC77C0145E350E0D4
:103630006EE370E00E94BF824DE050E060E470E015
:10364000C70146960E94BF82F701C4A680918517E4
:10365000C81638F4E0919217F0919317EC0DFD1D08
:103660001082FE01EE5CFC4FF182E082CE5CDC4F0A
:1036700088819981DF91CF911F91FF90EF90DF902A
:10368000CF900895EDE5F2E02081621306C021811C
:1036900032812130310539F00895349622E0E53742
:1036A000F20791F708954696089588E997E10E94F8
:1036B000FD0F882301F180E00E94FE1AFC0164A541
:1036C0000E94421B0E94000C84E00E94FE1AFC0132
:1036D00064A50E94421B0E94000C40910D0250E024
:1036E00070E060E088E997E10E942D108091E70387
:1036F00081111092E7030895FF920F931F93CF93C8
:10370000DF93EB01F22E132F042FFC0164A50E941E
:10371000421BFC0122813381C217D30790F4212F71
:1037200030E050E040E0542F432F322F22274F2922
:10373000202BBE01DF91CF911F910F91FF900C9430
:103740004509DF91CF911F910F91FF9008952F921E
:103750003F924F925F926F927F928F929F92AF9221
:10376000BF92CF92DF92EF92FF920F931F93CF936E
:10377000DF93CDB7DEB72C970FB6F894DEBF0FBE40
:10378000CDBF81E00E94FE1A9C878B878091260224
:10379000B5E05B2E882331F06091A71781E00E948D
:1037A000A109582E80911A020E944E0AA82E80E08C
:1037B0000E94ED0960917917860F888781E00E9449
:1037C000ED0990907917980E82E00E94ED09B09073
:1037D0007917B80E83E00E94ED0990917917F82EC1
:1037E000F90E8091A7172BEF280F223008F4E4C0C0
:1037F000843009F4E1C0E09023023885232F30E0C3
:103800003A832983692D70E07C836B83E110DAC0F1
:103810004A2D652D0B851C85045D1F4FC8010E9434
:10382000D20C1B01482E4A2D652DC8010E94D20CD6
:103830003B01882E4A2D652DC8010E94D20C6B01D8
:10384000E82E4A2D652DC8010E94D20C6D837E831F
:103850008F83442D910169817A818B859C850E949B
:103860007C1B482D93016B817C818B859C850E94FC
:103870007C1B8B2D90E09A8789874E2D9601BC0189
:103880008B859C850E947C1B0F2D10E02D813E8135
:103890004F81B8018B859C850E947C1B8091E5033C
:1038A00081114BC169817A816F5F7F4F442D9101F6
:1038B0008B859C850E947C1B8091791729813A8198
:1038C0006091A31768508217130614F4688561503D
:1038D00070E0442D91018B859C850E947C1B6B813F
:1038E0007C816F5F7F4F482D93018B859C850E9463
:1038F0007C1B809179176B817C81861717060CF4ED
:103900005EC06091A317685070E0482D93018B85CD
:103910009C850E947C1B69857A856F5F7F4F4E2D49
:1039200096018B859C850E947C1B80917917298547
:103930003A856091A31768508217130614F46FEF4D
:103940006B0D70E04E2D96018B859C850E947C1B33
:10395000B8016F5F7F4F2D813E814F818B859C85A4
:103960000E947C1B809179176091A3176850801783
:10397000110614F46FEF6F0D70E02D813E814F81C1
:103980008B859C852C960FB6F894DEBF0FBECDBFFD
:10399000DF91CF911F910F91FF90EF90DF90CF902B
:1039A000BF90AF909F908F907F906F905F904F905F
:1039B0003F902F900C947C1BA5E05A2E1CCF6FEFEC
:1039C000690DA2CF892F90E0CB2CD12C6F2D70E008
:1039D0007E836D83E981FA81E81BF90BE450FC4F8B
:1039E00020812223C9F0EB81FC81E81BF90BE45014
:1039F000FC4F2081222381F0F601E81BF90BE450F3
:103A0000FC4F2081222341F0FB01E81BF90BE4501D
:103A1000FC4F80818111AAC00E94CD1460913902AF
:103A200070913A0290E080E00E943BC220E030E0DA
:103A300040EC5FE30E949CC20E942AC59B01AC013E
:103A40008091791769817A81681B7109F9E18F2E5C
:103A5000869EC001879E900D112401E010E06A2D22
:103A60008259904F0E94A6716091390270913A027A
:103A700090E080E00E943BC220E030E040EC5FE359
:103A80000E949CC20E942AC59B01AC0180917917BB
:103A90006B817C81681B7109869EC001879E900D99
:103AA00011246A2D8259904F0E94A67160913902AB
:103AB00070913A0290E080E00E943BC220E030E04A
:103AC00040EC5FE30E949CC20E942AC59B01AC01AE
:103AD00080917917B601681B7109869EC001879E87
:103AE000900D11246A2D8259904F0E94A671609109
:103AF000390270913A0290E080E00E943BC220E0DF
:103B000030E040EC5FE30E949CC20E942AC59B010A
:103B1000AC01809179176D817E81681B7109869E49
:103B2000C001879E900D11246A2D8259904F0E94EA
:103B3000A6718091E503882309F12C960FB6F894BD
:103B4000DEBF0FBECDBFDF91CF911F910F91FF90D0
:103B5000EF90DF90CF90BF90AF909F908F907F902D
:103B60006F905F904F903F902F900895E12CE1CFA0
:103B70009A948DC0BA94DEC0FA9431C1EE2041F11E
:103B80006091390270913A0290E080E00E943BC25D
:103B900020E030E040EC5FE30E949CC20E942AC516
:103BA00049815A814F5F5F4F20917917421B51091C
:103BB00029E1249FF001259FF00D112401E010E080
:103BC0009B01AC016A2DCF018259904F0E94A671D2
:103BD0000091791778851091A3171850071710F4E2
:103BE00018851150EE2009F449C060913902709196
:103BF0003A0290E080E00E943BC220E030E040ECDE
:103C00005FE30E949CC20E942AC59B01AC01812FE8
:103C1000801B990BBC01E9E18E2E869EC001879E18
:103C2000900D112401E010E06A2D8259904F0E94FE
:103C3000A6716091390270913A0290E080E00E9492
:103C40003BC220E030E040EC5FE30E949CC20E9457
:103C50002AC54B815C814F5F5F4F20917917421BD2
:103C60005109849EF001859EF00D11249B01AC0149
:103C70006A2DCF018259904F0E94A6711091791739
:103C8000191508F475CF9090A31798EF990EEE20B0
:103C900009F447C06091390270913A0290E080E0E7
:103CA0000E943BC220E030E040EC5FE30E949CC2F7
:103CB0000E942AC59B01AC01892D811B990BBC0177
:103CC00099E1992E969EC001979E900D112401E0D6
:103CD00010E06A2D8259904F0E94A67160913902BE
:103CE00070913A0290E080E00E943BC220E030E018
:103CF00040EC5FE30E949CC20E942AC59B01AC017C
:103D00009FEFC91AD90A80917917C81AD1089C9CCB
:103D1000C0019D9C900D11246A2D8259904F0E94E4
:103D2000A671109179171B1508F424CFB090A31732
:103D3000E8EFBE0EEE2009F448C0609139027091A0
:103D40003A0290E080E00E943BC220E030E040EC8C
:103D50005FE30E949CC20E942AC59B01AC018B2D8F
:103D6000811B990BBC0189E1D82ED69EC001D79E3C
:103D7000900D112401E010E06A2D8259904F0E94AD
:103D8000A6716091390270913A0290E080E00E9441
:103D90003BC220E030E040EC5FE30E949CC20E9406
:103DA0002AC59B01AC016D817E816F5F7F4F809141
:103DB0007917681B7109D69EC001D79E900D1124FA
:103DC0006A2D8259904F0E94A6717091791779835C
:103DD0007F1508F4D1CEF090A31788EFF80EEE20EF
:103DE00009F4ABCE6091390270913A0290E080E024
:103DF0000E943BC220E030E040EC5FE30E949CC2A6
:103E00000E942AC52F2DE9812E1B330BA90129E120
:103E1000249FF001259FF00D112401E010E09B018B
:103E2000AC016A2DCF018259904F0E94A67185CEB8
:103E30009F92AF92BF92CF92DF92EF92FF920F9339
:103E40001F93CF93DF9300D000D0CDB7DEB76C01C6
:103E50007B01B42EA22EDC019C969C90692D0E94C1
:103E6000421B8C01FC0182819381E816F906D8F58A
:103E7000F3E6FB1508F049C04A2D6B2D892D0E94F1
:103E8000377769837A838B83CE0101960E942E6EE9
:103E90006C837D838E83D6019C96EC9180918517EF
:103EA00060E0E81740F48091921790919317E80F23
:103EB000F92FF11D6081CE0104960E94AD6EF801CC
:103EC00022813381E216F30670F4272F30E050E0B0
:103ED00040E0542F432F322F2227462B282BB701A7
:103EE000C8010E94450926960FB6F894DEBF0FBEA2
:103EF000CDBFDF91CF911F910F91FF90EF90DF9099
:103F0000CF90BF90AF909F9008956A2D8B2D0E9407
:103F1000B876B7CF8F929F92AF92BF92CF92DF9237
:103F2000FF920F931F93CF93DF93C82F81E00E94DE
:103F3000FE1A8C0180911A020E944E0AF82E0E94ED
:103F4000FD1480912302CC2ED12C81112DC02FEF96
:103F500040E0B601C8010E94181F8091E50381115D
:103F600009C1B6016F5F7F4F2FEF40E0C8010E948B
:103F7000181F80917917C1508C151D041CF0C09139
:103F8000A317C8506C2F70E02FEF40E0C801DF91FD
:103F9000CF911F910F91FF90DF90CF90BF90AF9086
:103FA0009F908F900C94181F809179179601281B71
:103FB0003109F901E450FC4F80818F113DC0D9E1F6
:103FC000D29FC001D39F900D11246F2D8A5A9C4E11
:103FD0000E94D9716091390270913A0290E080E0BC
:103FE0000E943BC220E030E040EC5FE30E949CC2B4
:103FF0004B015C016091100270E090E080E00E9453
:104000003DC29B01AC01C501B4010E94B8C40E942D
:104010002AC59B01AC0180917917B601681B710913
:10402000D69FC001D79F900D112401E010E060E001
:104030008A5A9C4E0E94A6718091E50381119AC014
:1040400086010F5F1F4F809179179801281B310956
:10405000F901E450FC4F80818F113CC0D9E1D29F1F
:10406000C001D39F900D11246F2D8A5A9C4E0E943F
:10407000D9716091390270913A0290E080E00E941B
:104080003BC220E030E040EC5FE30E949CC24B0169
:104090005C016091100270E090E080E00E943DC2FF
:1040A0009B01AC01C501B4010E94B8C40E942AC59D
:1040B0009B01AC0180917917081B1109D09FC001A9
:1040C000D19F900D112401E010E060E08A5A9C4ECF
:1040D0000E94A6718091791790E0C1508C159D05C2
:1040E0001CF0C091A317C850D0E09E01281B390BCB
:1040F000F901E450FC4F80818F113CC019E1129FFF
:10410000C001139F900D11246F2D8A5A9C4E0E945E
:10411000D9716091390270913A0290E080E00E947A
:104120003BC220E030E040EC5FE30E949CC24B01C8
:104130005C016091100270E090E080E00E943DC25E
:104140009B01AC01C501B4010E94B8C40E942AC5FC
:104150009B01AC0180917917C81BD1091C9FC0013C
:104160001D9F900D112401E010E060E08A5A9C4EE2
:104170000E94A671DF91CF911F910F91FF90DF9068
:10418000CF90BF90AF909F908F9008956F927F9245
:104190008F92AF92BF92CF92DF92FF920F931F93B5
:1041A000CF93DF93EC0185E080930D020E94FD1414
:1041B0008EE697E10E94FD0F882309F4B5C0609157
:1041C000100270E0CE010E94EFC3EB0180913E022D
:1041D000882309F4CAC08EE397E10E94096F8823FF
:1041E00009F4AFC010923E02AE0170E060E08EE6CE
:1041F00097E10E942D10D0934402C093430286E2BF
:104200008093040280912D0481110CC080913404AC
:10421000811108C080913304811104C0809104028F
:104220000E9464128091A7170E94061281117CC01F
:10423000D0910802809103028111C7C0DD2321F0D3
:10424000809178170E948A1F80916E038F5F84305F
:1042500008F0BEC080936E0380916E030E94ED094A
:10426000C0917917C80FC0937817DD2309F45CC09B
:1042700081E00E94FE1A6C0180912602D5E088231D
:1042800031F06091A71781E00E94A109D82F809199
:104290001A020E944E0AF82E809151028C3009F4C5
:1042A000D1E04F2D6D2FC6018C960E94D20C3B01A0
:1042B000882EAC2EB12C482F9B01B501C6010E945F
:1042C0007C1B80917917F501E81BF109E450FC4F44
:1042D000F0828091E503811127C085010F5F1F4F98
:1042E000482D9301B801C6010E947C1B809179176B
:1042F00090E0081B190BF801E450FC4FF082C1500C
:104300008A159B051CF0C091A317C850D0E0482D1A
:104310009301BE01C6010E947C1B80917917C81BC6
:10432000D109C450DC4FF882DF91CF911F910F91DA
:10433000FF90DF90CF90BF90AF908F907F906F9065
:1043400008958EE397E10E94736FAC0170E060E026
:104350008EE697E10E942D108EE397E10E94736F25
:1043600090934402809343024ACF8091350488237E
:1043700021F18EE397E10E94096F882319F01092D2
:10438000350440CF8EE397E10E94736FAC0170E07B
:1043900060E08EE697E10E942D108EE397E10E9487
:1043A000736F909344028093430280910402815082
:1043B0008E3108F025CF8EE123CFAB0170E060E0B5
:1043C0008EE697E10E942D101DCF109203023CCF84
:1043D00010926E0341CFEF92FF920F931F93CF93F2
:1043E000DF9381E00E94FE1A7C018091260215E095
:1043F000882331F06091A71781E00E94A109182F4E
:10440000809151028C3009F411E08091A6178250FE
:10441000823028F1D0E0C0E08C2F0E941C1288234B
:1044200099F0FE01E450FC4F00818C2F0E941C1279
:1044300060917917680F7727771F61507109202FD6
:10444000412FC7010E94181F2196C832D10521F7BC
:10445000DF91CF911F910F91FF90EF900895C0E0F1
:1044600080915102C817A0F78C2F90E0FC01E45016
:10447000FC4F60917917680F792F711D2081412FB2
:10448000C7010E94181FCF5FEBCFFF920F931F93BE
:10449000CF93DF93182F80E00E94FE1AEC018091E9
:1044A000E80304E1882331F06091A71780E00E94BF
:1044B000A109082F809117020E944E0AF82E8091C0
:1044C0002904082E000C990BE12FF0E08E179F07AE
:1044D0001CF1209152022817190689F084F080916E
:1044E0003B02882389F02D3061F4E85DF04FE491C0
:1044F0006E2F70E02F2D402FCE010E94181F1F5FDE
:10450000DECFE75EF04FF3CF2D3019F4E45FF04FCC
:10451000EECFE350F14FEBCFDF91CF911F910F9191
:10452000FF900895FF920F931F93CF93DF9383E043
:104530000E94FE1AEC0180910802811187C28091CD
:10454000260205E0882331F06091A71783E00E94DE
:10455000A109082F809118020E944E0A182FF0908E
:10456000450380913304882309F480C0FF2009F4B7
:104570004FC0A59A739A80910201886080930201CE
:10458000809102018061809302018091020180622A
:1045900080930201809102018064809302018091E6
:1045A000240290912502009709F450C200E001977F
:1045B000F1F4212F45E070E060E0CE010E94181F69
:1045C000212F45E061E070E0CE010E94181F212FED
:1045D0004DE062E070E0CE010E94181F212F4DE0F7
:1045E00063E070E0CE010E94181F212FC6C08091A9
:1045F0004F028150990B602F70E0681779070CF01B
:1046000025C2212F45E0CE010E94181F0F5FEFCF7A
:10461000A598739880910201877F80930201809111
:1046200002018F7E80930201809102018F7D809331
:104630000201809102018F7B80930201809124020C
:1046400090912502892B09F401C280914F0281507B
:10465000990B6F2D70E0681779070CF0F7C12FEFF9
:1046600040E0CE010E94181FF394EFCF87E08F1532
:1046700008F4ECC1EF2DF0E08827EE5BFC4D8F4F86
:104680000C9417C44A237923C6231E241E245524C0
:10469000B524F924A598739880910201877F8093AF
:1046A0000201809102018F7E8093020180910201BC
:1046B0008F7D80930201809102018F7B80930201A4
:1046C0008091240290912502892B09F4BFC110E04A
:1046D00080914F028150990B612F70E06817790724
:1046E0000CF0B4C12FEF40E0CE010E94181F1F5FF5
:1046F000EFCFA598739880910201877F8093020184
:10470000809102018F7E809302018091020180627C
:104710008093020180910201806480930201809164
:10472000240290912502892B09F490C12FEF40E0DB
:1047300070E060E0CE010E94181F2FEF40E061E0C2
:1047400070E0CE010E94181F2FEF40E062E070E0A1
:10475000CE010E94181F2FEF40E063E070E0CE0111
:104760000E94181F8091240290912502212F019709
:1047700021F08091A71781114FC04FE064E070E0F5
:10478000CE010E94181F212F4FE04EC0A5987398AC
:104790008091020188608093020180910201806112
:1047A00080930201809102018062809302018091D6
:1047B000020180648093020180912402909125027D
:1047C000892B09F443C12FEF40E070E060E0CE0197
:1047D0000E94181F2FEF40E061E070E0CE010E94C0
:1047E000181F8091240290912502212F019709F42E
:1047F000EFCE8091A717882309F4EACE402F62E01C
:1048000070E0CE010E94181F212F402F63E070E05E
:10481000CE010E94181F212F402F64E070E0CE01CE
:104820000E94181F212F402F65E070E0CE01DF911C
:10483000CF911F910F91FF900C94181FA59A739A16
:104840008091020188608093020180910201806161
:104850008093020180910201806280930201809125
:1048600002018064809302018091240290912502CC
:10487000009709F4EBC0019709F49BCE8091A7172C
:10488000F12C882309F495CE80914F028150990B29
:104890006F2D70E0681779070CF0D8C0212F402FDA
:1048A000CE010E94181FF394EFCFA59A739A8091BE
:1048B00002018860809302018091020180618093EF
:1048C0000201809102018F7D80930201809102019B
:1048D0008F7B8093020180912402909125020097A2
:1048E00009F4B4C0212F019749F18091A7178823BB
:1048F00029F1402F70E060E0CE010E94181F212FA7
:10490000402F61E070E0CE010E94181F212F402F40
:1049100062E070E0CE010E94181F212F402F63E05B
:1049200070E0CE010E94181F2FEF40E064E070E0BD
:10493000CE010E94181F2FEF40E076CF45E070E0D7
:1049400060E0CE010E94181F212F45E061E070E079
:10495000CE010E94181F212F4DE062E070E0CE01D1
:104960000E94181F212F4DE0DACFA59A739A8091EB
:104970000201877F80930201809102018F7E8093E4
:104980000201809102018F7D8093020180910201DA
:104990008F7B8093020180912402909125020097E1
:1049A00009F454C0212F0197D9F08091A7178823CB
:1049B000B9F0402F70E060E0CE010E94181F212F57
:1049C000402F61E070E0CE010E94181F2FEF40E001
:1049D00062E070E0CE010E94181F2FEF40E09FCFF1
:1049E00045E070E060E0CE010E94181F212F45E0F5
:1049F000E8CFA598739880910201877F8093020188
:104A0000809102018F7E80930201809102018F7D4F
:104A100080930201809102018F7B8093020180913B
:104A2000240290912502892B89F010E080914F0299
:104A30008150990B612F70E0681779073CF42FEFD4
:104A400040E0CE010E94181F1F5FF0CFDF91CF9191
:104A50001F910F91FF9008950F931F93CF93DF93B2
:104A60001092320480E00E94FE1A8C01D0E0C0E077
:104A70002FEF40E0BE01C8010E94181F2196C733E6
:104A8000D105B1F784E00E94FE1A8C01C091470F56
:104A90008091460F8C1748F06C2F70E02FEF40E0AC
:104AA000C8010E94181FCF5FF3CFDF91CF911F91F4
:104AB0000F9108950F931F93CF93A59873988091AA
:104AC0000201877F80930201809102018F7E809393
:104AD0000201809102018F7D809302018091020189
:104AE0008F7B8093020180910802882311F02C981B
:104AF0002D981092450383E00E94FE1A8C0180914C
:104B0000240290912502892B11F180910802C0E0C6
:104B1000882369F080914F028C17C8F06C2F70E0E9
:104B20002FEF40E0C8010E94181FCF5FF3CF8091A4
:104B30004F028150990B6C2F70E0681779073CF495
:104B40002FEF40E0C8010E94181FCF5FF0CFCF9138
:104B50001F910F9108950F931F93CF9380E00E94B0
:104B6000FE1A8C01C0E080915202C81748F46C2FE5
:104B700070E02FEF40E0C8010E94181FCF5FF3CF15
:104B800010922904CF911F910F910895EF920F93E6
:104B90001F93CF93DF938AE797E10E94FD0F88234D
:104BA00009F451C1C09129048C2F0C2E000C990BD3
:104BB000209152022817190611F00CF06AC00E94C9
:104BC000AB2510922904D0E0C0E08091340481111B
:104BD00018C080913504811114C080913E0281116A
:104BE00010C08091330481110CC08091A6178530CC
:104BF00021F480912A04811104C00E94B3148823F7
:104C000051F080912704882331F080E691E00E94E2
:104C1000E6171092270440918417042F10E090911A
:104C20003E028091A6178250823008F09BC09111FD
:104C300004C080913504882361F08EE397E10E94DF
:104C4000736F2091390230913A02021B130B080F47
:104C5000191F80913304882339F085E09801829FE1
:104C60008001839F100D112480910E02AE01400F30
:104C7000511F823058F0843009F4BEC008F07EC065
:104C8000823009F48EC0833009F4A3C090E080E044
:104C900093C08091A6178530D9F50E94B314811175
:104CA00039C080912A04811135C080913E02811162
:104CB00031C08091350481112DC080912D04811166
:104CC00029C080913304811125C080913404811161
:104CD00021C08091270481111DC0C1111BC080918A
:104CE0002804882321F08091ED0D882399F04091CC
:104CF000DF0C4451EE24E39408E715E021E061E085
:104D000080E691E00E945E1881E08093270402C053
:104D1000843059F28091E703811155CF80912904A5
:104D20000E944522809129048F5F809329049091ED
:104D3000A6179450923008F046CF90913304911109
:104D400042CF082E000C990B209152022817190609
:104D500011F00CF038CF80918417CDE4D1E0C81B5E
:104D6000D10933CF911105C080913504882309F40E
:104D700070CF8EE397E10E94736F69CF853009F49D
:104D80004EC0863009F082CF8091A61784508230C1
:104D900008F442C0CA014333510570F082E390E049
:104DA0000BC08091A61784508230C0F4CA014630EF
:104DB000510510F085E090E0481B590B70E060E071
:104DC0008AE797E1DF91CF911F910F91EF900C94BB
:104DD0002D108091A6178450823038F4CA014B30D0
:104DE000510550F38AE090E0E7CFCA014531510503
:104DF00018F384E190E0E0CF8091A61784508230D0
:104E000038F4CA0140315105B8F28FE090E0D4CFB8
:104E1000CA014F31510580F28EE190E0CDCF8091F3
:104E2000A6178450823038F4CA014A31510520F265
:104E300089E190E0C1CFCA014932510508F4BCCFE5
:104E400088E290E0B9CFDF91CF911F910F91EF9061
:104E500008950F931F93CF938091310481111AC04D
:104E600081E00E94FE1A8C01C0E080915102C817B7
:104E700060F4609179176C0F7727771F2FEF40E070
:104E8000C8010E94181FCF5FF0CFCF911F910F91E3
:104E90000C94CD14CF911F910F910895FF920F9311
:104EA0001F93CF93DF93F82E82E00E94FE1A8C01AD
:104EB0006091A71782E00E94A109D82FF0922404E4
:104EC000C091A217FF2009F448C0809108028823EE
:104ED00009F443C080912D04882341F0E091AA1782
:104EE000F0E0E45AF14F9081911104C090913404A4
:104EF000992371F08091A717811120C08091AA1782
:104F0000D3E08230D9F0A0F4813081F0D1E016C036
:104F1000882341F0E091AA17F0E0E45AF14F808134
:104F20008823C9F080913304882341F0D5E006C07E
:104F3000DDE0833019F0D3E1843041F78091A3178D
:104F4000C817C0F46C2F70E02FEF4D2FC8010E94DE
:104F5000181FCF5FF3CFD0E0F1CF8091A317C81710
:104F600048F46C2F70E02FEF40E0C8010E94181F3A
:104F7000CF5FF3CFDF91CF911F910F91FF900895F5
:104F80000F931F93CF9380918E03882399F085E030
:104F90000E94FE1A8C01C091450F8091440F8C171E
:104FA00048F06C2F70E02FEF40E0C8010E94181FFE
:104FB000CF5FF3CFCF911F910F910895BF92CF9202
:104FC000DF92EF92FF920F931F93CF93DF93EC0149
:104FD00084E00E94FE1A8C0184E69FE00E94FD0F8F
:104FE000882309F4CBC180913C02882309F48FC047
:104FF00088E49FE00E94096F882309F4A7C01092FB
:105000003C02AE0170E060E084E69FE00E942D105B
:10501000D0934202C09341028091260225E0D22E15
:10502000882331F06091A71784E00E94A109D82E4F
:10503000F09019028F2D0E944E0AB82E0E94B314D0
:10504000882359F08091A717811107C08F2D86956D
:105050000E944E0AB82E9BE0D92E9091E203209137
:10506000210280910802C0906F03222309F4ABC093
:105070009111ABC081111AC0EC2C0C2C000CFF0854
:105080002B2D4D2DB701C8010E94181F8091470F8D
:105090006091460F70E08E151F0419F0B701615042
:1050A00071092FEF40E0C8010E94181F81E08C0DAC
:1050B00080936F03082E000C990B2091460F281740
:1050C000190624F48091470F80936F03E0908E03BC
:1050D000EE2009F453C180916F0380FD4FC1809190
:1050E0002E0481114BC180917103811147C18091C0
:1050F0001002863008F097C0843008F0A0C08230DB
:1051000008F0A9C06E0131E0C31AD10893C08091A4
:105110002E04882379F10E94C02788E49FE00E9432
:10512000096F882399F010922E048091290E88230C
:1051300009F472CF8091080281116ECF80917103C2
:1051400081116ACF81E08093710366CF88E49FE08C
:105150000E94736FAC0170E060E084E69FE00E9403
:105160002D1088E49FE00E94736F90934202809319
:10517000410252CFD0934202C0934102809110026B
:105180008230B8F0853040F0CE010497C430D105AC
:1051900059F4C1E0D0E00FC090E08C179D07C9F32F
:1051A0009E01281B390BC901C817D90790F3EC01E0
:1051B00002C0209771F3AE0170E060E084E69FE0EA
:1051C0000E942D1029CF911155CF81111BC0EC2CBD
:1051D0000C2C000CFF082B2D4D2DB701C8010E948F
:1051E000181F8091460F6091470F70E08E151F04C5
:1051F00021F01CF0B7016F5F7F4F2FEF40E0C80137
:105200000E94181F8FEF8C0D80936F03082E000CE7
:10521000990B2091470F2817190609F00CF456CF67
:105220008091460F51CF6E0134E0C31AD1088A3005
:1052300008F068CF82E0C816D104A8F408C06E0157
:1052400023E0C21AD10832E0C316D10460F482E030
:10525000C82ED12C08C06E0182E0C81AD10822E005
:10526000C216D104A0F385E00E94FE1A8C01D091F1
:10527000450FFF24FA94FD0EE694FE0C809119026E
:105280000E944E0AE82E2D2F30E0C9014496CD2F02
:10529000F816190609F01CF4DF1508F4CF2D8091DB
:1052A0004403082E000C990B8217930714F4D09333
:1052B0004403D091A717F0904403D63029F00E9400
:1052C000B31440E0882301F18F2D0F2C000C990BB3
:1052D000C817190609F0BCF4D63009F45DC09091E6
:1052E00095039F5F953008F053C0892F837009F4B0
:1052F0004FC090939503809195034BE0813021F04E
:10530000823009F449C04DE080918D0390912102D3
:10531000992309F443C0811143C028E2C216D10485
:10532000E8F480910802811119C0CF2D0F2C000CD8
:10533000DD0B2E2DBE01C8010E94181F8091450F64
:105340006091440F70E08C171D0619F0BE0161508A
:1053500071092FEF40E0C8010E94181F81E08F0DF6
:1053600080934403082E000C990B2091440F2817BA
:10537000190624F48091450F80934403DF91CF9167
:105380001F910F91FF90EF90DF90CF90BF90089505
:1053900081E080939503AFCF41E0B6CF8111BDCFBF
:1053A00038E2C316D104F0F48091080281111AC0CA
:1053B000CF2D0F2C000CDD0B2E2DBE01C8010E943D
:1053C000181F8091440F6091450F70E08C171D06E7
:1053D00021F01CF0BE016F5F7F4F2FEF40E0C8014E
:1053E0000E94181F8FEF8F0D80934403082E000C2E
:1053F000990B2091450F2817190609F00CF4BECF20
:105400008091440FB9CFEF920F931F9380912D0499
:10541000882321F00E94321A0E9454118091A6170D
:105420008330A1F1853009F443C08230B1F58CE7B7
:1054300091E00E9407188BE791E00E940718EE2484
:10544000E39410E000E020E04091DF0C60E082E0B7
:1054500090E00E945E188091A617833009F044C046
:1054600020E04091DF0C60E087E290E00E945E184F
:105470008091A717823009F442C0833009F472C0CA
:10548000813009F040C087E390E03BC085E290E0C6
:105490000E94071886E290E0D0CF81E090E00E9461
:1054A00007188FE090E00E94071880E190E0C5CFD8
:1054B00081E090E00E94071885E991E00E940718BA
:1054C00080917203882309F4BACF8EE491E00E94A0
:1054D000071889EB91E00E9407188AEB91E00E947F
:1054E000071810927203ABCFEE24E39410E000E0B3
:1054F00020E04091DF0C60E083E290E0B7CF82E3F0
:1055000090E00E9407188091340481111CC0EE24A1
:10551000E39410E000E020E04091DF0C61E08BE4D8
:1055200090E00E945E1820E04091DF0C61E08EE781
:1055300090E00E945E1820E04091DF0C60E08FE771
:1055400090E00E945E1880910802811102C00E94C2
:10555000C0278091AF17853041F41F910F91EF90D4
:105560000C94591287E491E0CCCF1F910F91EF90EA
:1055700008950F931F93CF9384E00E94FE1A8C012D
:10558000C091470F8091460F8C1748F06C2F70E048
:105590002FEF40E0C8010E94181FCF5FF3CFCF91DB
:1055A0001F910F9108952F923F924F925F926F92A9
:1055B0007F928F929F92AF92BF92CF92DF92EF92A3
:1055C000FF920F931F93CF93DF9300D000D01F92D1
:1055D000CDB7DEB780E00E94FE1A6C0181E00E9428
:1055E000FE1A8C0183E00E94FE1A9F838E8384E062
:1055F0000E94FE1A7C0180E00E94ED09A0907917BC
:105600008A0D898381E00E94ED0990917917890FB5
:105610008A8382E00E94ED0980907917880D8B8340
:1056200083E00E94ED0960907917860D8C8340908D
:10563000A3174A944D822090740380915102332421
:1056400033948C3011F085E0382E80915202281668
:1056500008F0D3C085EE9DE00E94FD0F882309F479
:10566000CCC080915202E22DF0E090913B02992350
:1056700009F48EC08D3009F088C0E85DF04FE491E8
:105680006E2F70E02FEF44E1C6010E94181F2981A0
:10569000E22FF0E08A81882E912C9B81A92EB12CDB
:1056A0002C81622E712C8D81482E512C822D65E02B
:1056B0000E94E3C32FEF911144C1432DBF01C801E4
:1056C0000E94181F2FEF432DB401C8010E94181F1C
:1056D0002FEF432DB501C8010E94181F2FEF432D56
:1056E000B301C8010E94181F2FEF41E0B201C801A9
:1056F0000E94181F8091240290912502892B09F4A1
:105700004FC02FEF45E070E060E08E819F810E94E6
:10571000181F2FEF45E061E070E08E819F810E94AD
:10572000181F2FEF4DE062E070E08E819F810E9494
:10573000181F2FEF4DE063E070E08E819F810E9483
:10574000181F2FEF4FE064E070E08E819F810E9470
:10575000181F2FEF4FE065E070E08E819F810E945F
:10576000181F60914F026150770B2FEF4FE08E8131
:105770009F810E94181F60914F0270E02FEF4DE053
:105780008E819F810E94181F23C0E75EF04F77CF64
:105790008D3019F4E45FF04F72CFE350F14F6FCFCB
:1057A000A59A739A8091020188608093020180918A
:1057B00002018061809302018091020180628093E6
:1057C0000201809102018064809302012C9A2D9A3B
:1057D000809174038F5F80937403909152028913B8
:1057E0002DC11092ED0D1092EE0D4EE150E060E0F3
:1057F00070E08BED9DE00E942D105090730380911E
:105800005202581608F059C18BED9DE00E94FD0F21
:10581000882309F452C160915202E52DF0E0809195
:105820003B02882309F414C16D3009F00EC1E85D14
:10583000F04FE4916150770B6E1B71092FEF40E040
:10584000C6010E94181F9981E92FF0E02A81A22E3B
:10585000B12C8B81C82ED12C9C81892E912C2D812D
:10586000622E712C852D65E00E94E3C32FEF91110C
:1058700041C2432DBF01C8010E94181F2FEF432DC5
:10588000B501C8010E94181F2FEF432DB601C801B2
:105890000E94181F2FEF432DB401C8010E94181F4A
:1058A0002FEF41E0B301C8010E94181F809124022C
:1058B00090912502892B09F4D3C02FEF45E070E0C9
:1058C00060E08E819F810E94181F2FEF45E061E00C
:1058D00070E08E819F810E94181F2FEF4DE062E0E3
:1058E00070E08E819F810E94181F2FEF4DE063E0D2
:1058F00070E08E819F810E94181F2FEF4FE064E0BF
:1059000070E08E819F810E94181F2FEF4FE065E0AD
:1059100070E08E819F810E94181F60914F0261503C
:10592000770B2FEF4FE08E819F810E94181F6091AF
:105930004F0270E02FEF4DE08E819F810E94181F73
:10594000A7C040E0BF01C8010E94181F2FEF40E030
:10595000B401C8010E94181F2FEF40E0B501C80133
:105960000E94181F2FEF40E0B301C8010E94181FCA
:105970002FEF40E0B201C8010E94181F809124025D
:1059800090912502892B09F440C02FEF40E070E090
:1059900060E08E819F810E94181F2FEF40E061E040
:1059A00070E08E819F810E94181F2FEF40E062E01F
:1059B00070E08E819F810E94181F2FEF40E063E00E
:1059C00070E08E819F810E94181F2FEF40E064E0FD
:1059D00070E08E819F810E94181F2FEF40E065E0EC
:1059E00070E08E819F810E94181F60914F0261506C
:1059F000770B2FEF40E08E819F810E94181F6091EE
:105A00004F0270E02FEF40E0BBCEA59873988091D5
:105A10000201877F80930201809102018F7E809333
:105A20000201809102018F7D809302018091020129
:105A30008F7B809302012C982D98CACE4EE150E0C6
:105A400060E070E085EE9DE0D6CEE75EF04FF1CEEF
:105A50006D3019F4E45FF04FECCEE350F14FE9CE36
:105A6000A59A739A809102018860809302018091C7
:105A70000201806180930201809102018062809323
:105A80000201809102018064809302012C9A2D9A78
:105A9000809173038F5F80937303909152028913F7
:105AA000A6C11092E30D1092E40D4EE150E060E0CB
:105AB00070E081ED9DE00E942D10209007022220D1
:105AC00009F4FEC081ED9DE00E94FD0F882309F4DA
:105AD000F7C08981A82EB12C222D432DB501C80114
