:100000000C9484080C94B5080C94B5080C94B508AD
:100010000C94B5080C94B5080C94B5080C94B5086C
:100020000C94B5080C94B5080C94B5080C94B5085C
:100030000C94B5080C94B5080C94B5080C94B5084C
:100040000C94B5080C94B5080C94B5080C94B5083C
:100050000C94B5080C94B5080C94B5080C94FC8766
:100060000C94B5080C94594D0C942F4D0C94B50874
:100070000C94B5080C94B5080C94B5080C94B5080C
:100080000C94B5080C94B5080C94B5080C94B508FC
:100090000C94054D0C94DB4C0C94B5080C9429542D
:1000A0000C94B5080C94B5080C94B5080C94B508DC
:1000B0000C94B5080C94B5080C94B5080C94B508CC
:1000C0000C94B5080C94B5080C94B5080C94B14C7C
:1000D0000C94874C0C94B5080C945D4C0C94334CE8
:1000E0000C94B50805A84CCDB2D44EB93836A90247
:1000F0000C50B9918688083CA6AAAA2ABE00000026
:10010000803F07634236B79BD8A71A39685618AEA6
:10011000BAAB558C1D3CB7CC5763BD6DEDFD753E3C
:10012000F6177231BF000000803F08000000BE9249
:100130002449123EABAAAA2ABECDCCCC4C3E00002C
:100140000080BEABAAAAAA3E00000000BF000000CB
:10015000803F0000000000084178D3BB4387D113E3
:100160003D190E3CC3BD4282AD2B3E68EC8276BE8B
:10017000D98FE1A93E4C80EFFFBE01C4FF7F3F0055
:10018000000000000C944C410C9408900C940C82DC
:100190000C9420290C9473910C94117B0C9456A20E
:1001A0000C94E2430C94EF9E0C94F2930C94A29660
:1001B0000C94D0790C941BA00C94D2780C940285EA
:1001C0000C94AF940C9474990C941E460C947D84FA
:1001D0000C94B7840C94C2440C94727A0C94537AA5
:1001E0000C94BDAB0C94CC980C94C37A0C94BD4485
:1001F0000C94037C0C940D7C0C945C430C94195669
:100200000C94F87B0C94A5990C941A980C942A944D
:100210000C9484840C94377A0C94AEA10C94F2ACB8
:100220000C94C7A40C94D7580C94197C0C94457C5E
:100230000C94E5A90C94A68F0C94EDAE0C94C7AD6C
:100240000C94D6980C9485910C94EB9F0C940E9A78
:100250000C94317A0C9448950C94B0410C94AA7982
:100260000C9484780C940C980C946F910C947FAD42
:100270000C94C7A90C94A1790C9458900C9401A7E4
:100280000C942F470C94E67A0C9463AA0C943B824E
:100290000C9406930C9417A00C94D38F0C94103FDD
:1002A0000C947CA40C94B2BE0C94B49A0C94A02729
:1002B0000C9424AE0C9470A90C9446900C94EF9876
:1002C0000C94E3400C94E5980C948F790C94AA5804
:1002D0000C94B8790C942FA70C9443AE0C94D9814C
:1002E0000C947D7A0C9495A40C941F990C94437AE9
:1002F0000C9401A00C94C6790C94A7840C94BC9324
:100300000C9424450C94AB780C949BA60C94859685
:100310000C9446A60C94E6AD0C947F430C94368264
:100320000C94B9A60C9439920C9493840C945DA708
:100330000C94AD9A0C94F3940C94729A0C94F97BEF
:100340000C946F920C9453AB0C94E4840C94CEAE4A
:100350000C94057C0C9475AB0C941FBF0C943198D5
:100360000C941B7C0C94E8440C9462940C94B5920D
:100370000C944F900C941D450C9478960C947D8FA2
:100380000C94D7910C94E0A40C94C7980C94D57855
:100390000C9415AF0C94949D0C943C930C94A391E5
:1003A0000C943F970C946EA20C94BB580C941F9520
:1003B0000C94BB900C94CDA80C941D420C949F9669
:1003C0000C941E7C0C9445280C943FA30C947DAA9D
:1003D0000C94C2790C94A0A80C94D5580C94BCA091
:1003E0000C941F900C94F4980C9449AA0C94507C93
:1003F0000C945D920C9462900C940F7C0C94E27AB5
:100400000C9404AD0C94FE450C94D14A0C94924685
:100410000C94269B0C94B4790C94FB910C94144B83
:100420000C94207C0C9486AE0C9434990C940FABF5
:100430000C94C1840C9405AE0C9446A80C949BA516
:100440000C9429410C945B430C94BB470C9431AB46
:100450000C9434AF0C94C99F0C94D5A50C94C54A48
:100460000C9419AA0C94E0980C944A470C945245A9
:100470000C94A4790C945C460C94017B0C948984B4
:100480000C947D920C948E940C94314B0C946B9143
:100490000C94CF790C9444950C941F450C94B9A7F7
:1004A0000C94B3430C943EA20C9497AA0C94677AD4
:1004B0000C94FF7B0C94C4080C94AEA40C948B9FFA
:1004C0000C94BD580C94B4AC0C943E450C947AA199
:1004D0000C94E5A30C9409450C94187B0C943C48AF
:1004E0000C94C8A10C940C850C94F8840C9494A1E1
:1004F0000C94DC280C94BCAC0C944B7C0C94DCA0CD
:100500000C94DA4A0C94B6580C948BA70C944B922A
:100510000C945D430C941FA00C9405AC0C94669451
:100520000C945A410C94DA9A0C94B1AA0C94097C5C
:100530000C947C280C9490A20C94C5780C94DE7AD0
:100540000C94FC880C940B7C0C94663F0C946F9F6D
:100550000C946C430C94E7A70C944EA10C94BC979C
:100560000C94C8990C948D450C94429E0C949D91CA
:100570000C94B8780C94C2910C9424950C944DACC6
:100580000C94157C0C9433450C94AD4A0C94D545D1
:100590000C94D1980C9410450C94947A0C94C67ACF
:1005A0000C9492960C9450960C946F4B0C94BC79CE
:1005B0000C94799F0C94D4790C94CB840C94F99876
:1005C0000C94AF840C9412950C94ED270C944E7CF3
:1005D0000C94FD410C94AE790C94319A0C941098C3
:1005E0000C9438410C9486430C9419A80C949DA04B
:1005F0000C94EA980C94FA440C9423A20C94FD8178
:100600000C94437C0C9462AE0C94AB9F0C94C6810A
:100610000C94CBAA0C9497910C94A7900C94A9A934
:100620000C941C820C94ABAE0C9416850C944D7AF1
:100630000C94A2A20C9431450C94177C0C94BC949D
:100640000C948C810C94A5960C94879F0C94DB9849
:100650000C9452AD0C94BF580C94A07A0C94BF46E5
:100660000C94227C0C94EDAA0C94887A0C947F9EB6
:100670000C94FB7B0C940A7B0C94E9910C94CA7942
:100680000C9429970C94ED9D0C94B5910C947DA637
:100690000C947EA20C94EE840C94E7990C947E4505
:1006A0000C949D840C942BA00C942FAA0C94089865
:1006B0000C94009B0C94D5840C94DD940C946945A7
:1006C0000C94F87A0C94127C0C94FD7B0C9423927D
:1006D0000C9437A90C9469470C947C930C94839FD9
:1006E0000C949D790C9403AA0C9411920C9474AD03
:1006F0000C9471270C94487C0C94CD960C944A98D9
:100700000C9499790C94B8AC0C9495790C94017C68
:100710000C9473A80C940B450C94D9440C94F6AE2D
:100720000C94C8470C945A430C943D7AC4DFE9EF0B
:10073000F3F6F9FBFDFE00010203040506070809B4
:100740000A32002D280023001E00001900001400AA
:1007500000000F00000000000A0000000000000080
:10076000000005645F5A55504B46413C3732002D1E
:10077000280023001E0000190000140000000F00D4
:10078000000000000A000000000000000000053228
:10079000373C41464B50555A5F645761726E696EE3
:1007A000673A2043616C63756C61746564206D7594
:1007B00073696320636F756E742065786365656423
:1007C00073206D6178696D756D20706F73736962E8
:1007D0006C653B205344206361726420636F7272C6
:1007E000757074696F6E206C696B656C7921005748
:1007F00061726E696E673A20547261636B20636F39
:10080000756E7420646F6573206E6F74206D6174F3
:100810006368206669726D776172652120506C652E
:100820006173652075706461746520746865206DFE
:100830006963726F5344206361726420736F756ED5
:100840006420656666656374732E00010203040507
:10085000060708090A0B0C0D0E0F101112131415C0
:10086000161718191A1B1C1D1E1F202122232425B0
:10087000262728010203040506070809000A0B0CB5
:100880000D0E0F10111200131415161718191A1B3C
:10089000001C1D1E1F202122232400010203040529
:1008A0000000000000060708090A00000000000B15
:1008B0000C0D0E0F000000000010111213140000A8
:1008C0000000000102030000000000000004050613
:1008D0000000000000000007080900000000000000
:1008E000000A0B0C000000000000000100000000E6
:1008F00000000000000200000000000000000003F3
:1009000000000000000000000004000000000000E3
:10091000000000001C120A041F160D02110C070132
:100920000A0704000A121C040D161F02070C11010D
:1009300004070A57616E642053796E6368726F6EA4
:10094000697A65640057616E642070726F746F63BA
:100950006F6C206D69736D61746368210057616EFF
:10096000642070726F746F636F6C206D69736D615A
:10097000746368210057616E6420646973636F6EED
:100980006E65637465642100526563762E2057613D
:100990006E6420536D6F6B652050726566730052F4
:1009A0006563762E2057616E6420436F6E666967BB
:1009B00020507265667300526563762E2057616E13
:1009C0006420446174613A2000526563762E20579A
:1009D000616E6420436F6D6D616E643A2000207C0F
:1009E00020436F6E6E2E2053746174653A20005759
:1009F000616E642053796E63696E67207C20436F5B
:100A00006E6E2E2053746174653A200057616E64D7
:100A100020446973636F6E6E6563746564207C2027
:100A2000436F6E6E2E2053746174653A20004174DA
:100A300074656E7561746F722053796E63696E6749
:100A4000207C20436F6E6E2E2053746174653A20B3
:100A500000417474656E7561746F722044697363CC
:100A60006F6E6E6563746564207C20436F6E6E2EBE
:100A70002053746174653A2000536176696E672073
:100A8000536D6F6B6520507265666572656E636548
:100A90007300536176696E672057616E64205072EF
:100AA00065666572656E63657300526563762E20B8
:100AB000536D6F6B6520436F6E66696700526563A7
:100AC000762E2057616E6420436F6E666967005210
:100AD0006563762E205061636B20436F6E66696795
:100AE00000526563762E20417474656E7561746F73
:100AF00072204D6573736167653A200052656376B5
:100B00002E204174742E20436F6D6D616E643A2007
:100B100000207C20436F6E6E2E2053746174653A02
:100B20002000000102030405060708090A0B0C0D4A
:100B30000E000102030405060708090A0B0C0E0D3E
:100B40000C0B0A090807060504030201000C0B0A36
:100B500009080706050403020100B80BB80BAC0D29
:100B6000AC0DA00F3075983A10274C1D70173D0042
:100B70006401650166016701417474656E75617495
:100B80006F722053796E6320456E64004174746502
:100B90006E7561746F722053796E63205374617245
:100BA00074207C20436F6E6E2E2053746174653AFE
:100BB00020005468656D65206368616E6765642018
:100BC000746F2046726F7A656E20456D706972652C
:100BD00020283230323429005468656D65206368FE
:100BE000616E67656420746F2041667465726C691C
:100BF000666520283230323129005468656D6520E1
:100C00006368616E67656420746F204742322028F4
:100C10003139383929005468656D65206368616E23
:100C200067656420746F2047423120283139383499
:100C30002900417474656E7561746F722053796E0A
:100C40006368726F6E697A6564207C20436F6E6E94
:100C50002E2053746174653A2000417474656E757A
:100C600061746F722070726F746F636F6C206D6946
:100C7000736D6174636821207C20526563656976B9
:100C800065643A2000207C20457870656374656453
:100C90003A2000417474656E7561746F72207072D1
:100CA0006F746F636F6C206D69736D61746368211D
:100CB000207C2052656365697665643A2000207C5B
:100CC0002045787065637465643A200047657474E4
:100CD000696E67205061636B20507265666572654E
:100CE0006E6365730047657474696E6720536D6F3A
:100CF0006B6520507265666572656E636573002072
:100D000056414C20005B5041434B2D54585D2043CD
:100D10004D4420005B5041434B2D54585D205341BE
:100D200056455F505245464552454E4345535F53E5
:100D30004D4F4B45005B5041434B2D54585D205364
:100D40004156455F505245464552454E4345535FD7
:100D500057414E44005B5041434B2D54585D205346
:100D6000594E435F4441544100436F6D706C65744C
:100D7000656420757064617465206F6620706163BE
:100D80006B2073657474696E67730052756E6E695B
:100D90006E67207570646174652066756E63746932
:100DA0006F6E732E2E2E005570646174696E67200D
:100DB000706F7765722063656C6C20766172696113
:100DC000626C65732E2E2E005570646174696E67B7
:100DD00020696E6E6572206379636C6F74726F6EDA
:100DE000207661726961626C65732E2E2E005570DB
:100DF000646174696E67206F7574657220637963CE
:100E00006C6F74726F6E207661726961626C65736B
:100E10002E2E2E005570646174696E672067656EB2
:100E20006572616C207661726961626C65732E2EE9
:100E30002E00536176696E67205061636B2050729B
:100E400065666572656E6365730057616E642053F5
:100E5000796E6320456E640057616E642053796E2D
:100E600063205374617274004E6F20417564696F22
:100E700020446576696365005761726E696E673AF2
:100E8000205253505F53595354454D5F494E464F7E
:100E9000206E6F7420726563656976656421005504
:100EA00073696E672057415620547269676765728F
:100EB000005573696E672047505374617220417505
:100EC00064696F2056657273696F6E3A2000C4D5ED
:100ED000DFE5E9ECEFF1F3F4F6F7F8F9FAFBFCFDE6
:100EE000FEFF00436F6E66696775726520506F770D
:100EF0006572204D6574657200556E61626C652087
:100F0000746F2066696E6420706F776572206D6FF4
:100F10006E69746F72696E672064657669636520B7
:100F20006F6E206932632E20506F776572206D6579
:100F30007465722066656174757265732077696C7B
:100F40006C2062652064697361626C65642E005078
:100F50006F776572204D6574657220526573756C8C
:100F6000743A2000496E697420706F776572206D45
:100F7000657465722E2E2E004552524F523A204E05
:100F80006F2063616C6C6261636B20617661696C78
:100F900061626C6520666F72207061636B6574209E
:100FA00049442000000000006410B71DC8206E3BBB
:100FB000AC30D9269041DC76F4516B6B5861B24D60
:100FC0003C7105502083B8ED44930FF0E8A3D6D6CA
:100FD0008CB361CBB0C2649BD4D2D38678E20AA032
:100FE0001CF2BDBD00002100240027002A002D00B6
:100FF0003000330001010000040107010A01000074
:1010000020002300260029002C002F0032000001C0
:101010000000030106010901010210202008081048
:101020002040102040800201020108040201010258
:101030000408102040808040201008040201800431
:10104000020180402010080402010804020101028C
:101050000408102040800102040810204080000095
:101060002200250028002B002E0031003400020150
:101070000000050108010B01050505050705080825
:101080000808020202020A0A080804040404010112
:101090000101010101010303030303030303040727
:1010A00007070C0C0C0C0C0C0C0C020202020606BE
:1010B0000606060606060B0B0B0B0B0B0B0B0000B4
:1010C0000A0B02090C0D0E080703040100000000C2
:1010D0000000000000000000000000000000000010
:1010E00000000000000000000000121110000000CD
:1010F00000000000000000000000000000000000F0
:10110000000000001FBFB2BE11241FBECFEFD1E20E
:10111000DEBFCDBF00E00CBF13E0A0E0B2E0EEE523
:10112000FDE901E00BBF02C007900D92A23AB107A2
:10113000D9F728E1A2EAB3E001C01D92AE3AB207A6
:10114000E1F718E0C3E8D8E000E006C02197010904
:10115000802FFE010E940CC9C238D10780E0080729
:10116000A9F70E9446880C949DCE0C940000853609
:1011700008F084E62FEF829FC001112464E670E03E
:101180000E94F8C8862F089583B7817F83BF83B7F5
:10119000816083BF83B7816083BF889583B78E7F6B
:1011A00083BF83B78E7F83BF08958091F2039091B0
:1011B000F3031816190694F48091A6059091A705DB
:1011C0000197039758F46091850D062E000C770B5C
:1011D0008091F4039091F5030E943C8086E090E0BA
:1011E0000C94F05C0F931F93CF93DF9300D000D04B
:1011F000CDB7DEB78C01862F643660F1D8018C91B3
:101200000E94527C69837A838B83CE0101960E946F
:10121000834D6C837D838E83D801EC918091581827
:1012200060E0E81740F48091651890916618E80F27
:10123000F92FF11D6081CE0104960E94024E269680
:101240000FB6F894DEBF0FBECDBFDF91CF911F91D7
:101250000F910895642F0E94D37BD4CFFF920F93F8
:101260001F93CF93DF93EC01F62E08811981C801FB
:101270000E944FC8F81621F06F2DC8010E9457C870
:10128000CE01DF91CF911F910F91FF90089584308F
:1012900008F080E090915002E82FF0E08091180271
:1012A000882399F0943141F0983261F09C3039F400
:1012B000E15DF64F84910895E55DF64FFBCFE95D62
:1012C000F64FF8CFED5DF64FF5CF943139F0983207
:1012D00059F09C3031F4E15EF64FECCFE55EF64F0D
:1012E000E9CFE95EF64FE6CFED5EF64FE3CF882318
:1012F000E9F1809137028823B9F180913904909106
:101300003204992339F1811127C0E0917318F0E07C
:10131000ED5FF04F8081811125C0809130048111F3
:1013200021C080913702882311F180913904909176
:1013300032049923F1F081111EC0E0917318F0E09E
:10134000ED5FF04F808181111CC0809130048111CC
:1013500018C00895882309F3E0917318F0E0E05A6B
:10136000FD4FD8CF5F9ADDCF5F98DBCF5F98449871
:101370000895882351F3E0917318F0E0E05AFD4F8F
:10138000E1CF449A08958823E9F1809137028823B8
:10139000B9F18091390490913204992339F1811186
:1013A00027C0E0917318F0E0ED5FF04F808181116C
:1013B00025C080913004811121C08091370288239B
:1013C00011F180913904909132049923F1F0811147
:1013D0001EC0E0917318F0E0ED5FF04F8081811145
:1013E0001CC080913004811118C00895882309F32E
:1013F000E0917318F0E0E05AFD4FD8CF429ADDCF6C
:101400004298DBCF4298A2980895882351F3E09147
:101410007318F0E0E05AFD4FE1CFA29A0895809151
:101420004402882349F081E02091AB0F3091AC0F4A
:10143000232B31F080E008958091C60491E0892744
:101440000895982F80914102882369F0923049F4E1
:1014500080911D02882351F081E0909150029C30D0
:1014600029F480E003C081E09230D9F70895E82F95
:10147000F0E0809150028C3089F028F4843051F0F3
:10148000ED58F74F09C0843161F08832C9F7E55B48
:10149000F74F02C0E551F74F84910895ED53F74F90
:1014A000FBCFE556F74FF8CF8823D1F08091320477
:1014B000882341F0E0917318F0E0ED5FF04F8081F8
:1014C000811108C080913904811104C080913804D1
:1014D000882331F080910B01886080930B0108957F
:1014E00080910B01877FF9CFE7E2FFE0108611863C
:1014F0008EE18093000290E080E00C94498490910A
:1015000078189330B9F09530D9F020912002222339
:1015100089F0882379F0923079F4909132049923FC
:1015200049F090910002891759F08093000290E0F1
:101530000C9449840C94740A909100029813F5CF8E
:101540000895BF92CF92DF92EF92FF920F931F9375
:10155000CF93DF93EC01809111020E94B708B82E5F
:10156000F0901F18E090201885E198E10E944956FC
:10157000882309F478C1FE188F2D0E94370AE82EBF
:1015800080913502882309F4AEC085EE97E10E9470
:101590006F4E882389F010923502D0933B02C0939E
:1015A0003A02AE0170E060E085E198E10E94795670
:1015B00080E4809304021BC085EE97E10E94D94E1F
:1015C00090933B0280933A02AC0170E060E085E1C9
:1015D00098E10E947956809104028F5F8E3108F461
:1015E00080C08093040280910402813408F78091C6
:1015F000320481110CC080913904811108C080919E
:101600003804811104C0809104020E947F0A8091F5
:10161000070290915002943109F4CBC0983209F43A
:10162000C8C09C3009F4C9C0823008F4AFC090E053
:101630008C179D0709F4BAC0C81BD90B809170188C
:101640000E94210A81110FC1EF2DF0E0EF5FFB4FE7
:10165000808181111BC0EE20C9F080914102882356
:10166000A9F029E1F29EC00111249C012B5E3F4E9E
:10167000690160E0C9010E943F519E0150E040E0D5
:1016800004E110E06B2DC6010E940C5180912102F3
:10169000882309F4F2C080915002843109F493C088
:1016A000883209F4EAC090913A048C3009F4A7C05A
:1016B00091110DC080913502811109C080913804CB
:1016C000811105C080912F04882309F4DCC037E222
:1016D0008BE1F31609F4A9C083E1F812D0C08FE0C2
:1016E000A4C08EE17ECF80913A04882399F185EEE3
:1016F00097E10E946F4E882319F010923A0477CF39
:1017000085EE97E10E94D94E90933B0280933A0276
:10171000AC0170E060E085E198E10E94795620918B
:101720003A0230913B022932310568F0809104027F
:10173000833320F081508093040205C025363105A3
:1017400010F08F31B8F7809104028E3108F04FCF3E
:101750008EE12FCFD0933B02C0933A0280910702D3
:10176000823050F090E0AE01481B590B8C179D075A
:1017700031F441E050E003C0AE012097D1F370E0B6
:1017800060E085E198E10E94795631CF8091350281
:10179000811109C080913A04811105C0CE01880FE2
:1017A000991FC80FD91F209709F048CFC1E0D0E09A
:1017B00045CF823008F03BCFF1CF823008F037CFF1
:1017C000CC0FDD1FF0CF80913A0481110DC08091C4
:1017D0003502811109C080913804811105C08091C2
:1017E0002F04882309F44FC092E29F1508F477CFA5
:1017F00081EF8F0D853008F044C089E016C091114B
:101800000CC080913502811108C08091380481118B
:1018100004C080912F048823B1F120E22F1568F3D2
:1018200083EF8F0D873088F585E020911802909125
:101830001F18222309F454C0E11029C02091E203AB
:10184000281728F52F5F2093E20320911F1880911D
:10185000510290E087962817190629F024F080910C
:10186000201880931F18DF91CF911F910F91FF9047
:10187000EF90DF90CF90BF90089580E0D6CF85E1C4
:10188000D4CF8BE0D2CF83E0D0CF87E0CECF109201
:10189000E203C92FE11020C020912018EC2EF12C7A
:1018A000822F90E087968E159F057CF28C2F821BED
:1018B0000E94370A882319F0C0931F18C6CF809161
:1018C000510290E08796E816F90621F480912018DD
:1018D00080931F18CF5FE0CF9F5F90931F18B5CF05
:1018E000E11012C02091E203281770F42F5F2093BB
:1018F000E20390911F1880912018981708F0B3CF39
:1019000080915102895DADCF1092E203C92FE110A1
:1019100010C0809120188C1760F73C2F381B832F44
:101920000E94370A882319F0C0931F18E2CFC150D4
:10193000F0CF915090931F18DCCF80916F188530B5
:1019400059F480914102811107C09091701881E093
:10195000992321F0973011F080E00895089581E0F7
:1019600080933502809334028093330208958091EE
:101970006F18823020F0843068F0853011F18CE2ED
:1019800091E090933B0280933A02909339028093C6
:1019900038020895609130027091310290E080E049
:1019A0000E9430C726E636E646EA5FE30E9491C70A
:1019B0000E941FCA70933B0260933A028CE291E04E
:1019C000E4CF88EC90E090933B0280933A02F6CF0C
:1019D000DF92EF92FF920F931F93CF93DF9381E0FB
:1019E000E82E84E0F82E08EB13E0D0E0C0E0DD2420
:1019F000D394F70111927F0160E0CE0183509C4E99
:101A00000E943F5160E0CE018B5E9F4E0E943F518D
:101A1000F801D1928F016996C83EF3E0DF0749F7DC
:101A2000DF91CF911F910F91FF90EF90DF9008957C
:101A300080910702811103C081E0809307028091A9
:101A40000702853018F084E0809307028091060237
:101A5000811103C081E080930602809106028530E7
:101A600018F084E08093060280910502811103C082
:101A700081E08093050280910502853018F084E0B2
:101A80008093050208950F931F93CF93DF9300D0A7
:101A900000D0CDB7DEB78FEF9FEFDC0189839A834B
:101AA000AB83BC8310E000E01E830D83BE016B5F3F
:101AB0007F4FCE0101960E94234EBE016A5F7F4F89
:101AC000CE0101960E94234E0F5F1F4F0533110573
:101AD00059F78DE190E09E838D83BE016B5F7F4F50
:101AE000CE0101960E94234EBE016A5F7F4FCE0158
:101AF00001960E94234E88E190E09E838D83BE0173
:101B00006B5F7F4FCE0101960E94234EBE016A5F3C
:101B10007F4FCE0101960E94234E69817A818B818D
:101B20009C81609570958095909526960FB6F89457
:101B3000DEBF0FBECDBFDF91CF911F910F910895F2
:101B4000EF92FF920F931F93CF93DF9300D000D0BB
:101B5000CDB7DEB70E94430D69837A838B839C8364
:101B6000CE0101967C010CEF1FE01E830D83F7016F
:101B700061917F01CE0105960E942E090F5F1F4FD4
:101B80000115F0E11F0789F726960FB6F894DEBF1E
:101B90000FBECDBFDF91CF911F910F91FF90EF90BE
:101BA00008950F931F93CF93DF931F921F92CDB78A
:101BB000DEB708E110E01A8309836FEFCE010196CA
:101BC0000E942E090F5F1F4F05331105A1F70E94D8
:101BD000A00D0F900F90DF91CF911F910F9108955D
:101BE000EF92FF920F931F93CF93DF93CDB7DEB7A2
:101BF0006A970FB6F894DEBF0FBECDBF8091E803A1
:101C0000F1E0813009F4F2E08091450293E0813007
:101C100021F094E0823009F092E020911B02309193
:101C20001C0282E02115310529F083E021303105C5
:101C300009F084E02091320261E0211162E02091FC
:101C4000E703E1E02111E2E02091CB0471E02111F2
:101C500072E02091EA0351E0211152E02091ED035E
:101C600041E0211142E020911D0231E0211132E0DA
:101C70002091E603211157C021E0A0915102A983D0
:101C8000A0915002AA83A0910D02AB83FC83F09136
:101C90001302FD83F0911502FE83F0911702FF837A
:101CA000F0911202F887F0911402F987F091160270
:101CB000FA87F0910E02FB87F0911102FC87F091F8
:101CC0001002FD87F0910F02FE87EF87E091CC04B0
:101CD000E88B998B7A8B8B8B6C8B5D8B4E8B3F8BD0
:101CE000288FCE0101967C0110E000E01A8F098F49
:101CF000F70161917F01CE0149960E942E090F5F85
:101D00001F4F0831110591F70E94A00D6A960FB67A
:101D1000F894DEBF0FBECDBFDF91CF911F910F9121
:101D2000FF90EF90089522E0A8CF0F931F93CF93D9
:101D3000DF931F921F92CDB7DEB710E000E01A8349
:101D400009836FEFCE0101960E942E090F5F1F4F8E
:101D500008311105A1F70E94A00D0F900F90DF919F
:101D6000CF911F910F910895CF93DF93CDB7DEB739
:101D700064970FB6F894DEBF0FBECDBF2091A605C5
:101D80003091A705215031092230310580F4FE0140
:101D9000319694E1DF011D929A95E9F795E09983D8
:101DA00081110EC085E18D83CF010E94D8796496A0
:101DB0000FB6F894DEBF0FBECDBFDF91CF9108956F
:101DC00084E1F1CFCF93DF93CDB7DEB764970FB641
:101DD000F894DEBF0FBECDBF2091A6053091A705B8
:101DE000215031092230310580F4FE01319694E111
:101DF000DF011D929A95E9F795E0998381110EC054
:101E000083E18D83CF010E94D87964960FB6F89450
:101E1000DEBF0FBECDBFDF91CF91089582E1F1CF3C
:101E20008093F7032091F2033091F3031216130607
:101E30003CF4682F8091F4039091F5030C943D7B62
:101E400008958091A6059091A7050197039708F042
:101E5000A4C16091860D062E000C770B8CE390E0F8
:101E60000E943C806091860D062E000C770B89E461
:101E700091E00E943C806091860D062E000C770B4D
:101E80008BE490E00E943C806091860D062E000C51
:101E9000770B8EE790E00E943C806091860D062EC5
:101EA000000C770B8FE790E00E943C806091860DDC
:101EB000062E000C770B83EB90E00E943C80609133
:101EC000860D062E000C770B82E090E00E943C808D
:101ED00080912F04882371F06091860D062E000CEE
:101EE000770B80916F18853009F00BC187E390E084
:101EF0000E943C806091860D062E000C770B80912D
:101F00006F18823009F400C1833009F44AC164516A
:101F1000710980E691E00E943C8090917018609178
:101F2000860D80916F18062E000C770B923009F009
:101F300052C16E517109843009F03FC18FE090E0C9
:101F40000E943C806091860D062E000C770B685233
:101F5000710980E190E00E943C806091860D062E20
:101F6000000C770B6E51710981E090E00E943C807B
:101F70006091860D062E000C770B6852710982E184
:101F800090E00E943C806091860D062E000C770B3D
:101F90006852710983E190E00E943C806091860D57
:101FA000062E000C770B6852710984E190E00E94C4
:101FB0003C806091860D062E000C770B68527109EB
:101FC00085E190E00E943C806091860D062E000C19
:101FD000770B6852710986E190E00E943C80609125
:101FE000860D062E000C770B685271098DE890E083
:101FF0000E943C806091860D062E000C770B685283
:1020000071098FE890E00E943C806091860D062E59
:10201000000C770B6852710983E990E00E943C80C4
:102020006091860D062E000C770B685271098EE8C0
:1020300090E00E943C806091860D062E000C770B8C
:102040006852710980E990E00E943C806091860DA1
:10205000062E000C770B6852710982E990E00E940D
:102060003C806091860D062E000C770B685271093A
:1020700084E990E00E943C806091860D062E000C61
:10208000770B6852710981E990E00E943C80609171
:10209000860D062E000C770B80916F18843009F0A6
:1020A0004FC18CE591E00E943C806091860D062E28
:1020B000000C770B83E891E00E943C806091860DD4
:1020C000062E000C770B8AE691E00E943C8060911E
:1020D000860D062E000C770B89E691E00E943C806D
:1020E0008091C5048823E9F06091860D062E000CCE
:1020F000770B80912B04882309F42EC18AEB91E0A1
:102100000EC08BE691E0F4CE8BE791E00E943C801C
:102110006091860D062E000C770B8CE791E00E94F3
:102120003C8080917018823009F419C1833009F421
:102130004BC1813009F432C180913204882369F1A6
:102140006091860D062E000C770B82E690E00E94CF
:102150003C806091860D062E000C770B8FE791E096
:102160000E943C806091860D062E000C770B89E85A
:1021700091E00E943C806091860D062E000C770B4A
:1021800083E690E00E943C806091860D062E000C54
:10219000770B88E490E00E943C8086E090E00C940D
:1021A000F05C85E290E00E943C806091860D062EF6
:1021B000000C770B86E290E0B2CF8DE991E00E94AF
:1021C0003C806091860D062E000C770B68527109D9
:1021D00085E991E0C0CE843009F0A6C08FE090E0A0
:1021E0000E943C806091860D062E000C770B80E1EA
:1021F00090E00E943C806091860D062E000C770BCB
:1022000081E090E00E943C808091C5046091860D41
:10221000062E000C770B8111E7CE6451710982E123
:1022200090E00E943C806091860D062E000C770B9A
:102230006451710983E190E00E943C806091860DB9
:10224000062E000C770B6451710984E190E00E9426
:102250003C806091860D062E000C770B645171094D
:1022600085E190E00E943C806091860D062E000C76
:10227000770B6451710986E190E00E943C80609187
:10228000860D062E000C770B645171098DE890E0E5
:102290000E943C806091860D062E000C770B6451E5
:1022A00071098FE890E00E943C806091860D062EB7
:1022B000000C770B6451710983E990E00E943C8027
:1022C0006091860D062E000C770B645171098EE823
:1022D00090E00E943C806091860D062E000C770BEA
:1022E0006451710980E990E00E943C806091860D04
:1022F000062E000C770B6451710982E990E00E9470
:102300003C806091860D062E000C770B645171099C
:1023100084E990E00E943C806091860D062E000CBE
:10232000770B64517109AFCE8DE991E00E943C803A
:102330006091860D062E000C770B85E991E059CF50
:1023400082EA91E00E943C806091860D062E000C8E
:10235000770B80E991E0B0CE89EB91E0E0CE60911F
:10236000860D062E000C770B82E390E00E943C80E5
:102370006091860D062E000C770B84E591E00E949B
:102380003C8080913204882309F407CF6091860D48
:10239000062E000C770B84E390E0FDCE6091860D55
:1023A000062E000C770B87E390E00E943C80809122
:1023B0003204882309F4F1CE6091860D062E000CBC
:1023C000770B8AE390E0E7CE6091860D062E000C35
:1023D000770B87E491E0DFCEE82F8091C704882354
:1023E00091F01E163CF40E2E000CFF0BE157F84F37
:1023F00084910895EF3D94F0FF27E1950CF4F0955A
:10240000EF5BF84FF5CFE53D4CF01E164CF0FF2783
:10241000E1950CF4F095ED59F84FEACF80E008957E
:1024200084E608952F923F924F925F926F927F922F
:102430008F929F92AF92BF92CF92DF92EF92FF92D4
:102440000F931F93CF93DF93CDB7DEB7A2970FB64D
:10245000F894DEBF0FBECDBF8091880D0E94EC11B5
:10246000282F80912B0488248394882311F072E014
:10247000872E8091180299249394882311F062E0AA
:10248000962E80911A02AA24A394882311F052E078
:10249000A52E80912102BB24B394882311F042E041
:1024A000B42E80913702CC24C394882311F032E0FB
:1024B000C32E80912502DD24D394882311F092E06D
:1024C000D92E809136028111D5C0E1E0E8A3809138
:1024D0002A048111D2C0E1E0E9A3E0900902F09062
:1024E0006D188091420401E0811102E08091FA03AD
:1024F00012E0811111E08091440231E0811132E05B
:102500008091CA0422242394882311F082E0282E8B
:1025100080912D048111B4C0E1E0EAA380911E02F4
:1025200090911F0268EE73E00E94E4C8762E8091BD
:10253000C70441E0811142E0809126029091270278
:10254000E8EEF3E0BF010E94E4C8362E8091280235
:1025500090912902BF010E94E4C8462E80912A0270
:1025600090912B02BF010E94E4C8562E80912C024C
:1025700090912D02BF010E94E4C8662E80912E0228
:1025800090912F02BF010E94E4C880914902A1E00E
:102590008111A2E080914A0271E0811172E0809184
:1025A0004B0251E0811152E080914C0291E0811187
:1025B00092E080914D02811166C081E0253608F0DD
:1025C00064C02F5FE0911902E150E53008F05FC070
:1025D000F0E0E45AFD4FE08189829A82AB82BC82AE
:1025E000CD82DE82F8A1FF83F9A1F887E986FA8619
:1025F0000B871C874D872E873F86488A598A6A8AAF
:102600006B8BAC8B7D8B5E8B9F8B888FE98F3A8F2A
:102610002B8EEAA1EC8F7D8ECE0101967C0108E124
:1026200010E01F8F0E8FF70161917F01CE014E9652
:102630000E942E090F5F1F4F0533110591F70E946D
:10264000A00DA2960FB6F894DEBF0FBECDBFDF91EE
:10265000CF911F910F91FF90EF90DF90CF90BF909F
:10266000AF909F908F907F906F905F904F903F9032
:102670002F900895F2E0F8A32ACFF2E0F9A32DCF2E
:10268000F2E0FAA34BCF82E099CF25E69BCFE4E0BE
:10269000A3CF282F853608F024E6822F65E00E941C
:1026A000D8C8992361F0822F90E0029665E070E02F
:1026B0000E94F8C8862F880F880F282F260F822F98
:1026C00065E00E94D8C8E82FF0E08091C704882315
:1026D00021F0E45DF84F84910895E253F14FFBCF70
:1026E000AB012091A6053091A70521503109233077
:1026F000310528F421E06AEB7FEF0C94667B0895A6
:102700008091A6059091A7050197039798F4809171
:10271000F2039091F3031816190654F48091F40310
:102720009091F503843F21E0920710F00E946280AF
:102730000E944C811092F6031092F80361E070E061
:1027400088E390E00E94F4586091F4037091F503DF
:1027500085E390E00C94A25A8091F2039091F303E8
:10276000181619060CF072C08091F4039091F503CD
:10277000843F21E0920708F469C021E02093F80328
:102780002091A6053091A7052230310509F441C0FA
:102790002330310519F021303105F9F42091F70388
:1027A00061E0211101C060E00E943D7B6091850DD8
:1027B000062E000C770B8091F4039091F5030E9494
:1027C0003C8061E08091F4039091F5030E94E57FE5
:1027D0000E944C8181E080933D0E40E157E260E031
:1027E00070E089E89DE00E9479568091F80361E0ED
:1027F00070E0882311F062E070E088E390E00E94CE
:10280000F4586091F4037091F50384E390E00C9424
:10281000A25A2091F70361E0211101C060E00E94FB
:102820003D7B6091850D062E000C770B8091F403A3
:102830009091F5030E943C8050E040E061E080917F
:10284000F4039091F5030E940C80C2CF0895CF93BA
:10285000DF93C091F403D091F5038091E9038823BD
:1028600009F44CC0C45FD140BE0190E080E00E94FA
:102870007F7E2091B4033091B5032617370731F5D9
:102880008091B2039091B3039093B1038093B0030E
:102890006091B0037091B10390E080E00E94327FBC
:1028A000C091F203D091F3036C177D07B4F06091EF
:1028B000B0037091B103615071097093B1036093DB
:1028C000B00390E080E00E94327FEECF615071094A
:1028D0007093B1036093B003DBCFEB01CC50DE4FBC
:1028E0008091F8038823B1F00E948013D093F50300
:1028F000C093F403DF91CF910C94AC132197C43FA4
:1029000081E0D80768F7C091F203D091F303CD506E
:10291000DE4FE6CFD093F503C093F403BE0185E309
:1029200090E0DF91CF910C94A25ACF93DF93609106
:10293000F4037091F503C091F203D091F3038091F9
:10294000E903882309F43FC0645F714090E080E0B0
:102950000E947F7E2091B2033091B3032617370780
:10296000D1F41092B1031092B0036091B003709152
:10297000B10390E080E00E94327F6C177D0794F0F5
:102980006091B0037091B1036F5F7F4F7093B1039B
:102990006093B003EECF6F5F7F4F7093B10360938E
:1029A000B003E3CFEB01CC50DE4F8091F8038823D6
:1029B000B1F00E948013D093F503C093F403DF912C
:1029C000CF910C94AC136F5F7F4FCD50DE4FC61785
:1029D000D70710F0EB01E9CFC4EFD1E0E6CFD093F9
:1029E000F503C093F403BE0185E390E0DF91CF913E
:1029F0000C94A25A2091A6053091A70521503109C7
:102A00002330310518F460E00C943D7B089520914B
:102A1000A6053091A705215031092330310510F466
:102A20000C946280089580916F188250823020F05B
:102A30008AE691E00C9407158CE390E0FBCF8DE8DB
:102A400090E00E9407158EE890E00E9407158FE83D
:102A500090E00E94071580E990E00E94071581E947
:102A600090E00E94071582E990E00E94071583E933
:102A700090E00E94071584E990E00E94071589E420
:102A800091E00E9407158CE491E00C940715809169
:102A90006F18853061F48FE891E00E9407158DEB87
:102AA00091E00E94071587E390E00C9407158BE6F0
:102AB00091E00E9407158CE691E0F7CFCF92DF926C
:102AC000EF92FF920F931F93CF93DF936C01F62E3B
:102AD000C42F14160CF4C0E0CA3B0CF4CAEB80916E
:102AE000A6059091A7058230910591F1833091055B
:102AF00019F0019709F048C00C2E000CDD0B2223C1
:102B000081F06AEB7FEFC6010E943C806E2DC6010A
:102B10000E94E57F20E0A801BE01C6010E94667BFD
:102B200008C0BE01C6010E943C806E2DC6010E94F5
:102B3000E57F61E0F11001C060E0C601DF91CF9157
:102B40001F910F91FF90EF90DF90CF900C943D7B01
:102B50000C2E000CDD0B222361F06AEB7FEFC60127
:102B60000E943C8050E040E06E2DC6010E940C8027
:102B7000D1CFBE01C6010E943C8050E040E06E2DE6
:102B8000C6010E940C80D5CFDF91CF911F910F918C
:102B9000FF90EF90DF90CF900895EF920F931F93E7
:102BA00080912C04882331F080E691E00E94071583
:102BB00010922C040E949D0C882361F08EE491E019
:102BC0000E94071589EB91E00E9407158AEB91E0BE
:102BD0000E94071580912D04882309F44FC080912D
:102BE000940E882309F44AC01092940E1092950E08
:102BF00080916F188330A1F0853051F1823099F4C3
:102C00008CE791E00E94071580917018823091F155
:102C1000833009F469C0813089F587E390E02CC0E6
:102C200086E290E0EFCF80E190E00E9407158EE809
:102C300090E00E94071580E990E00E94071580E669
:102C400091E00E9407150E947F5810922C04DCCF5F
:102C50000E949D0C882341F080912B04882339F039
:102C60008AEB91E00E94071585E991E0DECF89EBC0
:102C700091E0F8CF82E390E00E94071580917018F0
:102C8000823009F47DC1833009F4AEC1813009F48A
:102C900091C1809173188150843008F00AC18091ED
:102CA000F903882309F4F1C04091860D80916F18D3
:102CB000E12C10E000E020E060E08330C1F08530DE
:102CC00009F4DAC0823009F0CEC08DE791E00E94AD
:102CD0005E15EE24E3940AEF10E021E04091860DAA
:102CE00061E08FE791E011C087E491E0C5CF84E611
:102CF00090E00E945E15EE24E39404E619E121E0E1
:102D00004091860D61E083E690E00E945E1581E0CF
:102D10008093F1038091F003882309F4C7C0809168
:102D20006F184091860DE12C10E000E020E060E09B
:102D3000833009F0ADC084E690E00E945E15EE2479
:102D4000E39404E619E121E04091860D61E088E416
:102D500090E00E945E1581E08093EF0380917018EF
:102D6000853059F4E12C04E610E021E04091860D15
:102D700060E083EA91E00E945E15809170188630D1
:102D800059F4E12C04E610E021E04091860D60E06A
:102D900084EA91E00E945E1581E08093320484E130
:102DA00090E00E94F05C80912202882309F18091DA
:102DB0002302909124020297D9F40E948EC628E043
:102DC00030E040E050E00E9465C8695F7F4F8F4F60
:102DD0009F4F28EE33E0629FA001639F500D729FCA
:102DE000500D112470E060E08AEA9EE00E9479565E
:102DF00080E00E94C309809170188230A1F0E091B8
:102E00007318E150FF0BEE0FFF1FEC59F44F459183
:102E1000549170E060E083E19FE00E947956109247
:102E2000110F1092120F10922F0F1092300F8FEF80
:102E30000E947F0A1092F80E1092F90E42E350E0C1
:102E400060E070E086EE9EE00E94795610923104B8
:102E500048E95AE360E070E084EB9EE01F910F9137
:102E6000EF900C9479568BE990E00E945E15EE2469
:102E7000E39403E111E031CF8FE491E00E945E150D
:102E8000EE24E39408EC10E028CF1092F10342CF37
:102E9000853049F48FE491E00E945E15EE24E394BE
:102EA0000CE211E050CF85E090E0F6CF1092EF03F6
:102EB00055CF4091860D80916F18E12C10E000E015
:102EC00020E060E0833009F43FC0853009F442C05F
:102ED0008230E9F587E891E00E945E158091F90360
:102EE000882309F445C081E08093F10380916F1835
:102EF0004091860DEE24E394823079F504EA16E0E1
:102F000021E061E089E891E00E945E158091F00384
:102F1000882361F281E08093EF0380916F184091E4
:102F2000860DEE24E3940CEB12E0833021F10CE2E9
:102F300011E0823001F504EA16E021E061E089E861
:102F400091E00E945E150ACF81E690E0C5CF8BE943
:102F500090E0C2CF8FE491E0BFCF0CE211E083306C
:102F600011F40CEB12E021E061E082E690E0CCCFBE
:102F70001092F103CBCF21E061E088E490E0E1CF53
:102F800085E390E00E940715E12C10E000E020E0CE
:102F90004091860D60E083E390E00E945E15EE2490
:102FA000E39402E513E021E04091860D61E084E3C3
:102FB00090E0C7CF8BE390E00E940715E12C10E072
:102FC00000E020E04091860D60E089E390E00E94FF
:102FD0005E15EE24E39408EE13E021E04091860DA7
:102FE00061E08AE390E0ADCF8091A4059091A505C2
:102FF0008D36910550F4E12C10E000E020E0409186
:10300000860D60E086E491E09CCF86E491E00E942A
:103010000715809173188330E1F050F4813091F0FE
:10302000823009F09BCE6091860D85EF90E00EC056
:103030008430A1F0853009F091CE6091860D8DE746
:1030400090E004C06091860D83E191E00E94E380EE
:1030500085CE6091860D87ED90E0F8CF6091860D6A
:1030600089EB90E0F3CFEF920F931F9383E591E00C
:103070000E94071582E390E00E94071588E591E021
:103080000E940715EE24E39410E000E020E0409158
:10309000860D60E087E591E00E945E1580917018D2
:1030A0008230D9F420E04091860D60E083E591E024
:1030B0000E945E1581E08093300440E050E0BA0148
:1030C0008DE19FE00E9479560E94C26E8CE190E0F3
:1030D0001F910F91EF900C94F05C1092F80E1092EB
:1030E000F90E42E350E060E070E086EE9EE00E9460
:1030F0007956E0CFEF920F931F934091860D809108
:103100007018EE24E39410E000E020E060E08230EC
:1031100039F583E591E00E945E1581E080933904E2
:10312000809170188230C1F548EB5BE060E070E0A0
:103130008DE19FE00E94795680916F188250823015
:1031400040F48CE291E090933902809338020E941F
:10315000E80C8AE190E01F910F91EF900C94F05CE5
:1031600088E691E00E945E1580916F18845082304D
:1031700040F420E04091860D61E089E691E00E94F4
:103180005E15EE24E39410E000E020E04091860D0F
:1031900060E085E591E0BFCF40EA5FE060E070E08D
:1031A0008DE19FE00E9479561092EE0E1092EF0E84
:1031B0001092F80E1092F90E42E350E060E070E0D9
:1031C00086EE9EE0B7CFEF920F931F93CF93C82F59
:1031D00081E090E090933F0480933E0410923C0481
:1031E00010923B0410923D0480912D04882309F431
:1031F00083C040911E0250911F0270E060E08CE895
:103200009EE00E947956C11110C00E940F0A682FDB
:1032100070E089E290E00E94F4580E940F0A682F43
:1032200070E089E290E00E94A25A8091781885307F
:1032300041F480912002882321F08FEF90E00E94DA
:1032400049848BE490E00E9407158EE790E00E948D
:1032500007158FE790E00E94071583E290E00E9437
:1032600007158CE591E00E94071580E991E00E9426
:10327000071582EA91E00E94071580916F1883304C
:1032800009F43FC0853009F4CAC0823009F056C045
:103290008BE791E00E9407158CE791E00E940715EB
:1032A000EE24E39410E000E020E04091860D60E021
:1032B0008BE791E00E945E1508ED1EE021E0409151
:1032C000860D61E08CE791E00E945E158091701898
:1032D000823009F462C1833009F47DC1813009F084
:1032E00068C1EE24E39404E813E021E04091860DE8
:1032F00061E087E390E05BC11092940E1092950E0E
:1033000082CF85E290E00E94071586E290E00E945D
:103310000715EE24E39410E000E020E04091860DD4
:1033200060E085E290E00E945E1508ED1EE021E07D
:103330004091860D61E086E290E0C6CF80E190E0AA
:103340000E940715CC23D9F18FE090E00E94071569
:1033500080917018823009F54091860D4E51EE240F
:10336000E39410E000E020E060E08FE090E00E9455
:103370005E154091860D485208E91AE321E061E0AC
:1033800080E190E00E945E1548E95AE360E070E059
:1033900080EA9EE00E94795699CFEE24E39410E0F3
:1033A00000E020E04091860D60E08FE090E00E9418
:1033B0005E1508E91AE321E04091860DE0CF4091C7
:1033C000860D809170188230D1F44E51EE24E39432
:1033D00010E000E020E060E081E090E00E945E15F7
:1033E0004091860D485204EF11E021E061E080E158
:1033F00090E00E945E1540E050E0BA01C9CFEE2493
:10340000E39410E000E020E060E081E090E00E94C2
:103410005E1504EF11E021E04091860DE7CF85E9CC
:1034200091E00E9407150E949D0C882309F44DC06D
:1034300081E090E00E940715EE24E39410E000E0A4
:1034400020E04091860D60E081E090E00E945E15F2
:1034500004EF11E021E04091860D61E085E991E003
:103460000E945E1580912B04882391F08AEB91E0F5
:103470000E94071500ED17E021E04091860D61E004
:103480008AEB91E00E945E1581E08093C504B3CF82
:103490008EE491E00E94071589EB91E00E940715E8
:1034A000EE24E39410E000E020E04091860D60E01F
:1034B0008EE491E00E945E150CEF18E021E040914F
:1034C000860D61E089EB91E0DDCF8DE991E00E940E
:1034D0000715CC2389F14091860D809170188230B8
:1034E000D9F44E51EE24E39410E000E020E060E0D7
:1034F0008DE991E00E945E154091860D485200E1F1
:1035000017E221E061E085E991E00E945E1540E16B
:1035100057E260E070E03CCFEE24E39410E000E07E
:1035200020E060E08DE991E00E945E1500E117E285
:1035300021E04091860DE6CF81E090E00E940715E2
:10354000809170188230B9F44091860D4E51EE246E
:10355000E39410E000E020E060E081E090E00E9471
:103560005E154091860D485204EF11E021E061E0C4
:1035700085E991E03ECFEE24E39410E000E020E006
:103580004091860D60E081E090E00E945E1504EFBE
:1035900011E021E04091860DEACFEE24E39404E8A7
:1035A00013E021E04091860D61E082E390E00E940B
:1035B0005E151092091810920A18109236048AE0CB
:1035C00090E00E94AD598AE090E0CF911F910F9159
:1035D000EF900C94F05CEE24E39404E813E021E017
:1035E0004091860D61E087E491E0E1CFEF920F9387
:1035F0001F9380912D04882309F479C08091940E43
:10360000811106C080916F18843079F0853059F1AE
:1036100040911E0250911F0270E060E08CE89EE035
:103620001F910F91EF900C94795680E190E00E94E9
:10363000071580917018823071F44091860D4852C0
:10364000EE24E39410E000E020E061E080E190E00F
:103650000E945E15DDCFEE24E39410E000E020E050
:103660004091860DF2CF85E991E00E940715809187
:103670007018823029F54091860D4852EE24E3946B
:1036800010E000E020E061E085E991E00E945E1535
:103690000E949D0C882309F4BBCF80912B048823C2
:1036A000B9F08AEB91E00E940715EE24E39410E054
:1036B00000E020E04091860D61E08AEB91E0C8CF08
:1036C000EE24E39410E000E020E04091860DDBCF93
:1036D00089EB91E00E940715EE24E39410E000E0EE
:1036E00020E04091860D61E089EB91E0B1CF1F9120
:1036F0000F91EF900895EF920F931F9380917018A0
:10370000823009F472C0833091F1813009F474C0C1
:1037100080916F18909173189150943008F04FC0B9
:10372000833069F0853009F447C0823009F041C028
:103730008DE791E00E9407158FE791E006C084E6CF
:1037400090E00E94071583E690E00E9407158091A3
:103750002202882321F089E090E00E94071588E486
:1037600090E00E94071582E690E00E940715809184
:10377000230290912402009709F445C0019709F4AF
:1037800066C01092F1031092EF038091701885309B
:1037900021F483EA91E00E94071580917018863029
:1037A00009F071C084EA91E01F910F91EF900C94A1
:1037B000071580E690E0BECF8FE491E0BBCF833069
:1037C00059F0853079F0823051F487E891E00E9419
:1037D000071589E891E0B9CF81E690E0B6CF8BE993
:1037E00090E0B3CF8FE491E0B0CF83E390E00E940C
:1037F000071584E390E0B9CF89E390E00E940715B4
:103800008AE390E0B2CF82E090E09093240280932C
:1038100023028091A6059091A705039741F48AE4BD
:1038200090E00E94071589E490E00E9407158091BE
:10383000D00E8111A6CFE12C10E000E020E04091F5
:10384000860D60E089E490E00E945E159ACF82E0E8
:1038500090E090932402809323028EE690E00E94F1
:1038600007158FE690E00E9407158091D00E811118
:1038700088CFE12C10E000E020E04091860D60E070
:103880008FE690E0E1CF1F910F91EF900895EF92B6
:103890000F931F9380914602853010F510924602D7
:1038A00080E490E00E940715E12C10E000E020E0A9
:1038B00040E060E080E490E00E945E158091460266
:1038C0002CE3829FC001112464E670E00E94F8C8D6
:1038D0006C536093850D1F910F91EF900C94D50858
:1038E000855080934602EACFEF920F931F93809109
:1038F0004602803618F184E68093460280E490E028
:103900000E940715E12C10E000E020E040E060E0BC
:1039100080E490E00E945E15809146022CE3829F35
:10392000C001112464E670E00E94F8C86C536093F3
:10393000850D1F910F91EF900C94D5088B5F8093AC
:103940004602EACFEF920F931F9380914702853092
:1039500010F51092470280E490E00E940715E12CD8
:1039600010E000E020E040E060E080E490E00E94B1
:103970005E15809147022CE3829FC001112464E60A
:1039800070E00E94F8C86C536093860D1F910F91F0
:10399000EF900C94210F855080934702EACFEF926D
:1039A0000F931F9380914702803618F184E680932D
:1039B000470280E490E00E940715E12C10E000E04F
:1039C00020E040E060E080E490E00E945E1580919D
:1039D00047022CE3829FC001112464E670E00E943C
:1039E000F8C86C536093860D1F910F91EF900C9463
:1039F000210F8B5F80934702EACFEF920F931F93C3
:103A0000CF93C82F8091A6059091A70501970397A2
:103A100038F480914802082E000C990B0E94D58240
:103A2000C1113EC0809148020E94EC1180930802AF
:103A300020913E0430913F0421303105E1F0909116
:103A40003504911118C09091F803992321F09091B9
:103A5000F603992381F08233B1F48FE390E00E9462
:103A60000715E12C10E000E020E040E060E08FE38B
:103A700090E00E945E1586E090E0CF911F910F913B
:103A8000EF900C94F05C80E490E00E940715E12C2C
:103A900010E000E020E040E060E080E490E0E9CF6A
:103AA000CF911F910F91EF9008958093C7049AE0F2
:103AB000811101C090E09093E303882339F0809155
:103AC0000802833318F082E3809308028091080291
:103AD0000E944913809348028093870D81E00C94E3
:103AE000FD1C909148029A3B49F4811112C08091CB
:103AF000870D8093480280E00C94FD1C882349F0D8
:103B00009093870D8AEB809348021092080281E01F
:103B1000F3CF089580914802843CA9F08091080277
:103B2000853068F410920802809108020E944913BF
:103B3000809348028093870D80E00C94FD1C855093
:103B400080930802F1CF0895909148028091E30399
:103B50009817A1F080910802803670F084E6809377
:103B60000802809108020E944913809348028093C2
:103B7000870D80E00C94FD1C8B5FF1CF0895EF92D0
:103B8000FF920F931F93CF93DF93EB01F22E132F2E
:103B9000042FFC01E0808E2D0E94DF5828E0E29E79
:103BA000F0011124EA58FD4F24813581C217D30753
:103BB000C8F4FC0122813381C217D30798F4212F66
:103BC00030E050E040E0542F432F322F22274F297E
:103BD000202BBE01DF91CF911F910F91FF90EF90AD
:103BE0000C94BD56DF91CF911F910F91FF90EF90F4
:103BF00008959F92AF92BF92CF92DF92EF92FF9281
:103C00000F931F93CF93DF9300D000D0CDB7DEB7D3
:103C10005C018B01D42E922EDC01CC908C2D0E9465
:103C2000DF587C01B8E0CB9EF0011124EA58FD4F2B
:103C30008481958108171907D0F5E3E6ED1508F0A2
:103C400048C0492D6D2D8C2D0E94527C69837A834A
:103C50008B83CE0101960E94834D6C837D838E837E
:103C6000D501EC918091581860E0E81740F48091FC
:103C7000651890916618E80FF92FF11D6081CE014B
:103C800004960E94024EF701228133810217130726
:103C900070F4272F30E050E040E0542F432F322FB4
:103CA0002227462B282BB801C7010E94BD56269615
:103CB0000FB6F894DEBF0FBECDBFDF91CF911F913D
:103CC0000F91FF90EF90DF90CF90BF90AF909F90BB
:103CD0000895692D8D2D0E94D37BB8CF4F925F92AE
:103CE0006F927F928F929F92AF92BF92DF92EF92EC
:103CF000FF92CF937B01DC01CC918C2F0E94DF5887
:103D0000DC0188E0C89FF0011124EA58FD4F84814E
:103D10009581E816F90608F0F4C012968D919C91F1
:103D20001397E816F90608F0E8C01E968C911E97C6
:103D30001B96CC911B9719966D917C911A971896AA
:103D40008C901897E82FF0E01C962C911C9730E08F
:103D50001D964C9150E08C1366C0C701880F991FC7
:103D60008E0D9F1D680F791FE60FF71FE081260F4C
:103D7000371FD901FC90640F751FDB01CC9188209F
:103D800009F446C0912CB12CA12C6E2F70E0762F37
:103D90006627072E000C880B990BA50194010E9441
:103DA00097C83901552444246F2D70E0762F66277B
:103DB000072E000C880B990BA50194010E9497C84F
:103DC000542F432F322F2227422A532A642A752A3E
:103DD0006C2F70E0762F6627072E000C880B990B4E
:103DE000A50194010E9497C8D301C201822B932B95
:103DF000A42B6A2F792FCF91FF90EF90DF90BF9087
:103E0000AF909F908F907F906F905F904F900895AC
:103E10008F2D90E0B0E0A0E0BA2FA92F982F88272F
:103E2000AE2B8C2BE6CFEE0CFF1CEE0CFF1C6E0DA8
:103E30007F1DE60FF71FD080FB01EC0FF11DF08016
:103E4000260F371FF901C081640F751FDB01EC904D
:103E5000882009F448C0912CB12CA12C6D2D70E064
:103E6000762F6627072E000C880B990BA50194016D
:103E70000E9497C8722E6624552444246F2D70E04A
:103E8000762F6627072E000C880B990BA50194014D
:103E90000E9497C8A90133272227422A532A642A5D
:103EA0006E2D70E0762F6627072E000C880B990B7D
:103EB000A50194010E9497C8422A532A642A6C2FB4
:103EC00070E0762F6627072E000C880B990BA50152
:103ED00094010E9497C8B42FA32F922F882784297A
:103EE0009529A62986CF8F2D90E0B0E0A0E0DC01D7
:103EF000992788278E299C2B7CCF80E090E0DC01DD
:103F000078CF60E070E080E076CFFC0180810E9495
:103F1000DF58FC0121853285232B11F00C941957B1
:103F20000895CF93DF93EC018881909158188917F9
:103F300098F490E0FC01EE0FFF1F8E0F9F1FE091A1
:103F40006318F0916418E80FF91FEB0188819981DB
:103F5000AA8180839183A283DF91CF9108950F93EB
:103F60001F93CF93DF93FC018081E6E7F2E026EA1E
:103F700032E0908189133AC00181128102551C4FB1
:103F8000F801908191114AC00E94DF58EC018E81A6
:103F90009F8197FD33C061E00E940D8460E08E81B7
:103FA0000E94DF8381E089832885222369F12150E3
:103FB00039F130E050E040E06FEF7FEF80E090E0DB
:103FC0000E9465C849855A85FA016C817D81CF01BF
:103FD000841B950B86179707B0F46081629FC00120
:103FE000639F900D112490833196EFCF38962E1752
:103FF0003F0709F0BECF10E000E0C0CF1982D4CF58
:1040000030E020E0DFCF188689859A85892B19F06A
:10401000CE010E94195781E0F8018083DF91CF9192
:104020001F910F910895EF92FF921F93CF93DF930B
:10403000E82EF12CE701CC0FDD1FFE01EE55FC4F01
:1040400020813181232BB1F481E090E00E9480CC6B
:10405000FC01E08220915818E21638F4E0916518CE
:10406000F0916618EE0DFF1D1082FE01EE55FC4F1B
:1040700091838083CE55DC4F88819981DF91CF91E8
:104080001F91FF90EF9008952F923F924F926F9261
:104090007F928F929F92AF92BF92CF92DF92EF92D8
:1040A000FF920F931F93CF93DF9300D000D000D0E7
:1040B0001F921F92CDB7DEB781E00E9413209B872D
:1040C0008A8780911D0215E0882331F06091701875
:1040D00081E00E949358182F809111020E94B70826
:1040E000E82E80E00E94470990902018980E81E009
:1040F0000E944709A0902018A80E82E00E9447095C
:10410000B0902018B80E83E00E94470990912018C3
:10411000F82EF90E809170182BEF280F223008F43A
:10412000E2C0843009F4DFC080901A02292D30E00B
:104130003A8329836A2D70E07C836B838110D8C019
:104140004E2D612F8A859B850E94F2086D837E83A8
:104150008F834E2D612F8A859B850E94F2081B015B
:10416000482E4E2D612F8A859B850E94F2083B01C7
:10417000882E4E2D612F8A859B850E94F2086B0147
:10418000E82E2D813E814F8169817A818A859B85C8
:104190000E94BF1D442D91016B817C818A859B8586
:1041A0000E94BF1D8B2D90E099878887482D930131
:1041B000BC018A859B850E94BF1D0F2D10E04E2DEE
:1041C0009601B8018A859B850E94BF1D8091EA03F4
:1041D000811149C169817A816F5F7F4F2D813E8155
:1041E0004F818A859B850E94BF1D8091201829815F
:1041F0003A8160916C1868508217130614F46FEFBF
:10420000690D70E02D813E814F818A859B850E94DA
:10421000BF1D6B817C816F5F7F4F442D91018A852B
:104220009B850E94BF1D809120186B817C81861721
:1042300017060CF45AC060916C18685070E0442D59
:1042400091018A859B850E94BF1D688579856F5F76
:104250007F4F482D93018A859B850E94BF1D8091C9
:1042600020182885398560916C18685082171306CC
:1042700014F46FEF6B0D70E0482D93018A859B85D8
:104280000E94BF1DB8016F5F7F4F4E2D96018A853A
:104290009B850E94BF1D8091201860916C1868500A
:1042A0008017110614F46FEF6F0D70E04E2D96011C
:1042B0008A859B852B960FB6F894DEBF0FBECDBFC7
:1042C000DF91CF911F910F91FF90EF90DF90CF90F2
:1042D000BF90AF909F908F907F906F904F903F9046
:1042E0002F900C94BF1D15E01FCF6FEF6A0DA6CF66
:1042F000892F90E0CB2CD12C6F2D70E07E836D83C5
:10430000E981FA81E81BF90BEF5FFB4F2081222343
:10431000C9F0EB81FC81E81BF90BEF5FFB4F2081BB
:10432000222381F0F601E81BF90BEF5FFB4F2081A0
:10433000222341F0FB01E81BF90BEF5FFB4F80816B
:104340008111A9C00E94E80C609130027091310285
:1043500090E080E00E9430C720E030E040EC5FE376
:104360000E9491C70E941FCA9B01AC018091201836
:1043700069817A81681B7109F9E17F2E769EC001FF
:10438000779E900D112401E010E06E2D8B5E9F4E04
:104390000E940C51609130027091310290E080E0F7
:1043A0000E9430C720E030E040EC5FE30E9491C7FC
:1043B0000E941FCA9B01AC01809120186B817C81F7
:1043C000681B7109769EC001779E900D11246E2D99
:1043D0008B5E9F4E0E940C516091300270913102B1
:1043E00090E080E00E9430C720E030E040EC5FE3E6
:1043F0000E9491C70E941FCA9B01AC0180912018A6
:10440000B601681B7109769EC001779E900D11243C
:104410006E2D8B5E9F4E0E940C5160913002709108
:10442000310290E080E00E9430C720E030E040ECB4
:104430005FE30E9491C70E941FCA9B01AC0180915B
:1044400020186D817E81681B7109769EC001779E60
:10445000900D11246E2D8B5E9F4E0E940C51809109
:10446000EA03882311F12B960FB6F894DEBF0FBE36
:10447000CDBFDF91CF911F910F91FF90EF90DF9013
:10448000CF90BF90AF909F908F907F906F904F9004
:104490003F902F900895812CE2CF9A9438C0AA942F
:1044A0008BC0BA94DCC0FA942FC1882041F160918E
:1044B00030027091310290E080E00E9430C720E02D
:1044C00030E040EC5FE30E9491C70E941FCA49811F
:1044D0005A814F5F5F4F20912018421B510929E1FB
:1044E000249FF001259FF00D112401E010E09B01B5
:1044F000AC016E2DCF018B5E9F4E0E940C5110912E
:104500002018191550F290906C1878EF970E8820AB
:1045100009F449C0609130027091310290E080E06E
:104520000E9430C720E030E040EC5FE30E9491C77A
:104530000E941FCA9B01AC01892D811B990BBC01F4
:10454000E9E17E2E769EC001779E900D112401E058
:1045500010E06E2D8B5E9F4E0E940C5160913002D8
:104560007091310290E080E00E9430C720E030E09E
:1045700040EC5FE30E9491C70E941FCA4B815C819F
:104580004F5F5F4F20912018421B5109749EF0012C
:10459000759EF00D11249B01AC016E2DCF018B5E39
:1045A0009F4E0E940C51109120181A1508F477CFD5
:1045B000A0906C1898EFA90E882009F447C060916C
:1045C00030027091310290E080E00E9430C720E01C
:1045D00030E040EC5FE30E9491C70E941FCA9B013C
:1045E000AC018A2D811B990BBC0199E1A92EA69ED5
:1045F000C001A79E900D112401E010E06E2D8B5E8E
:104600009F4E0E940C51609130027091310290E0F7
:1046100080E00E9430C720E030E040EC5FE30E9481
:1046200091C70E941FCA9B01AC019FEFC91AD90A0A
:1046300080912018C81AD108AC9CC001AD9C900D87
:1046400011246E2D8B5E9F4E0E940C5110912018EC
:104650001B1508F426CFB0906C18E8EFBE0E88202A
:1046600009F448C0609130027091310290E080E01E
:104670000E9430C720E030E040EC5FE30E9491C729
:104680000E941FCA9B01AC018B2D811B990BBC01A1
:1046900089E1D82ED69EC001D79E900D112401E04D
:1046A00010E06E2D8B5E9F4E0E940C516091300287
:1046B0007091310290E080E00E9430C720E030E04D
:1046C00040EC5FE30E9491C70E941FCA9B01AC01AE
:1046D0006D817E816F5F7F4F80912018681B71090B
:1046E000D69EC001D79E900D11246E2D8B5E9F4EDD
:1046F0000E940C517091201879837F1508F4D3CE55
:10470000F0906C1888EFF80E882009F4ACCE609118
:1047100030027091310290E080E00E9430C720E0CA
:1047200030E040EC5FE30E9491C70E941FCA2F2D2A
:10473000E9812E1B330BA90129E1249FF001259F5C
:10474000F00D112401E010E09B01AC016E2DCF01B2
:104750008B5E9F4E0E940C5186CE8F929F92AF929D
:10476000BF92CF92DF92FF920F931F93CF93DF936D
:10477000C82F81E00E9413208C01809111020E94B9
:10478000B708F82E0E94180D80911A02CC2ED12C59
:1047900081112DC02FEF40E0B601C8010E94F91D24
:1047A0008091EA03811109C1B6016F5F7F4F2FEF3E
:1047B00040E0C8010E94F91D80912018C1508C155D
:1047C0001D041CF0C0916C18C8506C2F70E02FEFC6
:1047D00040E0C801DF91CF911F910F91FF90DF90D2
:1047E000CF90BF90AF909F908F900C94F91D8091C7
:1047F00020189601281B3109F901EF5FFB4F8081DA
:104800008F113DC0D9E1D29FC001D39F900D1124DB
:104810006F2D83509C4E0E943F51609130027091E9
:10482000310290E080E00E9430C720E030E040ECB0
:104830005FE30E9491C74B015C016091070270E049
:1048400090E080E00E9432C79B01AC01C501B40139
:104850000E94ADC90E941FCA9B01AC018091201823
:10486000B601681B7109D69FC001D79F900D112416
:1048700001E010E060E083509C4E0E940C5180915A
:10488000EA0381119AC086010F5F1F4F80912018A3
:104890009801281B3109F901EF5FFB4F80818F11CF
:1048A0003CC0D9E1D29FC001D39F900D11246F2D40
:1048B00083509C4E0E943F516091300270913102B2
:1048C00090E080E00E9430C720E030E040EC5FE301
:1048D0000E9491C74B015C016091070270E090E07B
:1048E00080E00E9432C79B01AC01C501B4010E9467
:1048F000ADC90E941FCA9B01AC0180912018081B02
:104900001109D09FC001D19F900D112401E010E04A
:1049100060E083509C4E0E940C518091201890E0E2
:10492000C1508C159D051CF0C0916C18C850D0E08A
:104930009E01281B390BF901EF5FFB4F80818F111E
:104940003CC019E1129FC001139F900D11246F2DDF
:1049500083509C4E0E943F51609130027091310211
:1049600090E080E00E9430C720E030E040EC5FE360
:104970000E9491C74B015C016091070270E090E0DA
:1049800080E00E9432C79B01AC01C501B4010E94C6
:10499000ADC90E941FCA9B01AC0180912018C81BA1
:1049A000D1091C9FC0011D9F900D112401E010E052
:1049B00060E083509C4E0E940C51DF91CF911F917B
:1049C0000F91FF90DF90CF90BF90AF909F908F900E
:1049D00008956F927F928F92AF92BF92CF92DF92A3
:1049E000FF920F931F93CF93DF93EC010E94180D5A
:1049F00085E198E10E944956882309F4B6C0609188
:104A0000070270E0CE010E94E4C8EB0180913502FC
:104A1000882309F4CBC085EE97E10E946F4E88236E
:104A200009F4B0C010923502AE0170E060E085E19B
:104A300098E10E947956D0933B02C0933A0286E2F5
:104A4000809304028091320481110CC0809139045A
:104A5000811108C080913804811104C08091040242
:104A60000E947F0A809170180E94210A81117DC0E6
:104A7000809103028111CAC080914102882321F0F4
:104A800080911F180E94AD238091E0038F5F8430D6
:104A900008F0BFC08093E0038091E0030E944709C3
:104AA000C0912018C80FC0931F188091410288231D
:104AB00009F45BC081E00E9413206C0180911D020B
:104AC000D5E0882331F06091701881E00E949358FE
:104AD000D82F809111020E94B708F82E80915002C1
:104AE0008C3009F4D1E04F2D6D2FC6010E94F208E1
:104AF0003B01882EAC2EB12C482F9B01B501C6017D
:104B00000E94BF1D80912018F501E81BF109EF5F9D
:104B1000FB4FF0828091EA03811127C085010F5F6E
:104B20001F4F482D9301B801C6010E94BF1D8091FF
:104B3000201890E0081B190BF801EF5FFB4FF08283
:104B4000C1508A159B051CF0C0916C18C850D0E06C
:104B5000482D9301BE01C6010E94BF1D80912018FF
:104B6000C81BD109CF5FDB4FF882DF91CF911F9136
:104B70000F91FF90DF90CF90BF90AF908F907F907C
:104B80006F90089585EE97E10E94D94EAC0170E0D8
:104B900060E085E198E10E94795685EE97E10E94F8
:104BA000D94E90933B0280933A0249CF80913A04C8
:104BB000882321F185EE97E10E946F4E882319F03A
:104BC00010923A043FCF85EE97E10E94D94EAC0196
:104BD00070E060E085E198E10E94795685EE97E10A
:104BE0000E94D94E90933B0280933A028091040236
:104BF00081508E3108F024CF8EE122CFAB0170E0DE
:104C000060E085E198E10E9479561CCF1092030282
:104C10003BCF1092E00340CFEF92FF920F931F9390
:104C2000CF93DF9381E00E9413208C0180911D02BD
:104C30008823B1F16091701881E00E949358F82E9A
:104C4000809150028C3011F4FF24F39480916F18FE
:104C50008250823040F1D0E0C0E08C2F0E94370AB1
:104C6000882399F0FE01EF5FFB4FE0808C2F0E94BC
:104C7000370A60912018680F7727771F61507109F4
:104C80002E2D4F2DC8010E94F91D2196C832D10545
:104C900021F7DF91CF911F910F91FF90EF90089531
:104CA00085E0F82ECDCFC0E080915002C81760F4A7
:104CB000609120186C0F7727771F2FEF40E0C80115
:104CC0000E94F91DCF5FF0CFDF91CF911F910F911F
:104CD000FF90EF900C94E80CFF920F931F93CF93EB
:104CE000DF93182F80E00E941320EC018091ED03E8
:104CF00004E1882331F06091701880E00E9493589D
:104D0000082F80910E020E94B708F82E80912E0481
:104D1000082E000C990BE12FF0E08E179F071CF175
:104D2000209151022817190689F084F080913202EF
:104D3000882389F02D3061F4E35BF44FE4916E2F0A
:104D400070E02F2D402FCE010E94F91D1F5FDECF96
:104D5000E25CF44FF3CF2D3019F4EF5CF44FEECF5B
:104D6000EE5DF44FEBCFDF91CF911F910F91FF904C
:104D70000895FF920F931F93CF93DF9383E00E94D8
:104D80001320EC0180914102811187C280911D02A4
:104D900005E0882331F06091701883E00E949358F9
:104DA000082F80910F020E94B708182FF090B703C8
:104DB00080913804882309F480C0FF2009F44FC093
:104DC000A59A739A80910201886080930201809174
:104DD00002018061809302018091020180628093D0
:104DE00002018091020180648093020180911B0284
:104DF00090911C02009709F450C200E00197F1F471
:104E0000212F45E070E060E0CE010E94F91D212FC6
:104E100045E061E070E0CE010E94F91D212F4DE0D8
:104E200062E070E0CE010E94F91D212F4DE063E0A9
:104E300070E0CE010E94F91D212FC6C080914E0264
:104E40008150990B602F70E0681779070CF025C22C
:104E5000212F45E0CE010E94F91D0F5FEFCFA598ED
:104E6000739880910201877F8093020180910201F3
:104E70008F7E80930201809102018F7D80930201D9
:104E8000809102018F7B8093020180911B0290919F
:104E90001C02892B09F401C280914E028150990BAA
:104EA0006F2D70E0681779070CF0F7C12FEF40E025
:104EB000CE010E94F91DF394EFCF87E08F1508F41F
:104EC000ECC1EF2DF0E08827E759F84D8F4F0C9497
:104ED0000CC97127A027ED27452845287C28DC2808
:104EE0002029A598739880910201877F8093020101
:104EF000809102018F7E80930201809102018F7D5B
:104F000080930201809102018F7B80930201809146
:104F10001B0290911C02892B09F4BFC110E0809103
:104F20004E028150990B612F70E0681779070CF0E1
:104F3000B4C12FEF40E0CE010E94F91D1F5FEFCFFB
:104F4000A598739880910201877F809302018091D8
:104F500002018F7E80930201809102018062809322
:104F600002018091020180648093020180911B0202
:104F700090911C02892B09F490C12FEF40E070E062
:104F800060E0CE010E94F91D2FEF40E061E070E08B
:104F9000CE010E94F91D2FEF40E062E070E0CE01EB
:104FA0000E94F91D2FEF40E063E070E0CE010E9407
:104FB000F91D80911B0290911C02212F019721F075
:104FC0008091701881114FC04FE064E070E0CE0115
:104FD0000E94F91D212F4FE04EC0A5987398809133
:104FE00002018860809302018091020180618093B8
:104FF000020180910201806280930201809102018E
:1050000080648093020180911B0290911C02892B85
:1050100009F443C12FEF40E070E060E0CE010E9450
:10502000F91D2FEF40E061E070E0CE010E94F91D14
:1050300080911B0290911C02212F019709F4EFCE61
:1050400080917018882309F4EACE402F62E070E066
:10505000CE010E94F91D212F402F63E070E0CE01A8
:105060000E94F91D212F402F64E070E0CE010E94C4
:10507000F91D212F402F65E070E0CE01DF91CF9127
:105080001F910F91FF900C94F91DA59A739A80912E
:105090000201886080930201809102018061809307
:1050A00002018091020180628093020180910201DD
:1050B00080648093020180911B0290911C020097F2
:1050C00009F4EBC0019709F49BCE80917018F12C84
:1050D000882309F495CE80914E028150990B6F2D53
:1050E00070E0681779070CF0D8C0212F402FCE014F
:1050F0000E94F91DF394EFCFA59A739A8091020153
:105100008860809302018091020180618093020196
:10511000809102018F7D80930201809102018F7B3B
:105120008093020180911B0290911C02009709F468
:10513000B4C0212F019749F180917018882329F17B
:10514000402F70E060E0CE010E94F91D212F402F1A
:1051500061E070E0CE010E94F91D212F402F62E036
:1051600070E0CE010E94F91D212F402F63E070E016
:10517000CE010E94F91D2FEF40E064E070E0CE0107
:105180000E94F91D2FEF40E076CF45E070E060E02F
:10519000CE010E94F91D212F45E061E070E0CE01B3
:1051A0000E94F91D212F4DE062E070E0CE010E94C7
:1051B000F91D212F4DE0DACFA59A739A8091020153
:1051C000877F80930201809102018F7E809302018C
:1051D000809102018F7D80930201809102018F7B7B
:1051E0008093020180911B0290911C02009709F4A8
:1051F00054C0212F0197D9F0809170188823B9F0FD
:10520000402F70E060E0CE010E94F91D212F402F59
:1052100061E070E0CE010E94F91D2FEF40E062E0F6
:1052200070E0CE010E94F91D2FEF40E09FCF45E0D6
:1052300070E060E0CE010E94F91D212F45E0E8CF2B
:10524000A598739880910201877F809302018091D5
:1052500002018F7E80930201809102018F7D8093F5
:105260000201809102018F7B8093020180911B02D9
:1052700090911C02892B89F010E080914E028150A0
:10528000990B612F70E0681779073CF42FEF40E02D
:10529000CE010E94F91D1F5FF0CFDF91CF911F91CA
:1052A0000F91FF9008950F931F93CF93DF9381E0A9
:1052B0008093370480E00E9413208C0167E080E037
:1052C0000E949358D82FC0E080915102C81748F42B
:1052D0006C2F70E02FEF4D2FC8010E94F91DCF5F9A
:1052E000F3CF81E00E9413208C0167E081E00E94EF
:1052F0009358D82FC0E080915002C81760F4609195
:1053000020186C0F7727771F2FEF4D2FC8010E94B1
:10531000F91DCF5FF0CF84E00E9413208C0167E07D
:1053200084E00E949358D82FC091EE0F8091ED0F2A
:105330008C1748F06C2F70E02FEF4D2FC8010E94A2
:10534000F91DCF5FF3CF85E090E0DF91CF911F9102
:105350000F910C94F05C1092370480E00E941320AF
:10536000FC0180810E94DF58FC014481558170E07E
:1053700060E0818592850E948FCE84E00E94132098
:10538000FC0180810E94DF58FC014481558170E05E
:1053900060E0818592850C948FCE0F931F93CF93FD
:1053A000A598739880910201877F80930201809174
:1053B00002018F7E80930201809102018F7D809394
:1053C0000201809102018F7B809302018091410252
:1053D000882311F02C982D981092B70383E00E9437
:1053E00013208C0180911B0290911C02892B11F1DA
:1053F00080914102C0E0882369F080914E028C17B1
:10540000C8F06C2F70E02FEF40E0C8010E94F91D3A
:10541000CF5FF3CF80914E028150990B6C2F70E0DB
:10542000681779073CF42FEF40E0C8010E94F91D8E
:10543000CF5FF0CFCF911F910F910895EF920F930F
:105440001F93CF93DF9381EE9FE00E9449568823FC
:1054500009F46FC1809141028111DEC00E949D0C50
:105460009091C504882309F497C080913804811174
:1054700093C08091390481118FC080913A048111C9
:105480008BC080912F04811187C08091D00E811133
:1054900083C091113EC080912B04882309F48EC0F3
:1054A0008AEB91E00E940715EE24E39400ED17E0EB
:1054B00021E04091860D61E08AEB91E00E945E154B
:1054C0000E94258381E08093C50480912D04882368
:1054D00001F140911E0250911F0270E060E08CE8E3
:1054E0009EE00E9479568091C504811112C00E94ED
:1054F0009D0C882309F47BC080913A04811109C076
:1055000080913804811105C080912F04882309F40B
:105510006EC00E94CD29009101021091020260919B
:10552000060270E0C8010E94E4C8EB0180916F1888
:105530008250823008F4D7C080EA9EE00E94D355A2
:1055400020913502672B682B692B09F4BFC02223F9
:1055500009F4ACC0C0910102D091020285EE97E13E
:105560000E94D94EC45DDE4FC81BD90B8091380410
:10557000882331F0C0910102D0910202CC0FDD1FCF
:10558000AE0170E060E081EE9FE0DF91CF911F916E
:105590000F91EF900C947956992309F4A8CF8EE4DB
:1055A00091E00E94071589EB91E00E9407158AEBB4
:1055B00091E00E9407151092C50495CF89EB91E008
:1055C0000E940715EE24E39410E000E020E04091F3
:1055D000860D60E08EE491E00E945E150CEF18E00D
:1055E00021E04091860D61E089EB91E067CF8091E9
:1055F000B70390913804992359F0882329F0109229
:10560000B7030E94B92687CF81E08093B703F9CF13
:105610008730A8F78F5FF9CF0E94CD298091C5040C
:10562000882309F478CF80912D04882351F180914B
:105630003804811126C080913904811122C08091E3
:105640003A0481111EC080912F0481111AC085E98E
:1056500091E00E940715EE24E39410E000E020E0C2
:105660004091860D61E085E991E00E945E154091D0
:105670001E0250911F0270E060E08CE89EE00E94E4
:1056800079568EE491E00E94071589EB91E00E9423
:1056900007158AEB91E00E9407151092C5040E943D
:1056A000210F8BED90E00E94AD5935CF80913A04E7
:1056B000882309F45BCF85EE97E10E94D94EC09113
:1056C0000102D0910202C80FD91F50CF222371F3DB
:1056D000C0910102D091020285EE97E10E94D94E5D
:1056E000CA56DF4F41CF80913502882381F085EE85
:1056F00097E10E94D94E40910102509102022091FF
:10570000300230913102421B530BEA01DCCF809111
:105710003A04882309F42ACF85EE97E10E94D94EF6
:10572000EC01C80166E070E00E94E4C8C60FD71F14
:105730001DCFDF91CF911F910F91EF9008950F939F
:105740001F93CF9380E00E9413208C01C0E08091D2
:105750005102C81748F46C2F70E02FEF40E0C801E9
:105760000E94F91DCF5FF3CF10922E04CF911F91AD
:105770000F910895EF920F931F93CF93DF9381E2E0
:1057800098E10E944956882309F451C1C0912E0422
:105790008C2F0C2E000C990B209151022817190602
:1057A00011F00CF06AC00E949F2B10922E04D0E0E2
:1057B000C0E080913904811118C080913A048111B0
:1057C00014C080913502811110C08091380481117C
:1057D0000CC080916F18853021F480912F048111C5
:1057E00004C00E949D0C882351F080912C048823D2
:1057F00031F080E691E00E94FA1410922C0440915E
:105800002B18042F10E09091350280916F18825070
:10581000823008F09BC0911104C080913A04882323
:1058200061F085EE97E10E94D94E209130023091CF
:105830003102021B130B080F191F809138048823B3
:1058400039F085E09801829F8001839F100D11241B
:1058500080910502AE01400F511F823058F0843014
:1058600009F4BEC008F07EC0823009F48EC08330D7
:1058700009F4A3C090E080E093C080916F18853058
:10588000D9F50E949D0C811139C080912F0481119E
:1058900035C080913502811131C080913A04811167
:1058A0002DC080913204811129C08091380481116A
:1058B00025C080913904811121C080912C0481116F
:1058C0001DC0C1111BC080912D04882321F080913F
:1058D000940E882399F04091860D4451EE24E39470
:1058E00008E715E021E061E080E691E00E945E15A6
:1058F00081E080932C0402C0843059F28091EC0343
:10590000811155CF80912E040E946C2680912E0427
:105910008F5F80932E0490916F189450923008F00E
:1059200046CF90913804911142CF082E000C990B6C
:10593000209151022817190611F00CF038CF8091F0
:105940002B18CDE4D1E0C81BD10933CF911105C08C
:1059500080913A04882309F470CF85EE97E10E9484
:10596000D94E69CF853009F44EC0863009F082CF18
:1059700080916F188450823008F442C0CA014333CA
:10598000510570F082E390E00BC080916F18845055
:105990008230C0F4CA014630510510F085E090E035
:1059A000481B590B70E060E081E298E1DF91CF91F4
:1059B0001F910F91EF900C94795680916F1884503D
:1059C000823038F4CA014B30510550F38AE090E040
:1059D000E7CFCA014531510518F384E190E0E0CFEB
:1059E00080916F188450823038F4CA0140315105DB
:1059F000B8F28FE090E0D4CFCA014F31510580F268
:105A00008EE190E0CDCF80916F188450823038F4D1
:105A1000CA014A31510520F289E190E0C1CFCA01A3
:105A20004932510508F4BCCF88E290E0B9CFDF914C
:105A3000CF911F910F91EF9008950F931F93CF93E4
:105A40008091360481111AC081E00E9413208C01DC
:105A5000C0E080915002C81760F4609120186C0F6C
:105A60007727771F2FEF40E0C8010E94F91DCF5F15
:105A7000F0CFCF911F910F910C94E80CCF911F9113
:105A80000F910895FF920F931F93CF93DF93F82EFA
:105A900082E00E9413208C016091701882E00E94C5
:105AA0009358D82FF0922904C0916B18FF2009F465
:105AB00048C080914102882309F443C08091320498
:105AC000882341F0E0917318F0E0ED5FF04F908192
:105AD000911104C090913904992371F0809170184C
