:100000000C94A0060C94D1060C94D1060C94D10645
:100010000C94D1060C94D1060C94D1060C94D10604
:100020000C94D1060C94D1060C94D1060C94D106F4
:100030000C94D1060C94D1060C94D1060C94D106E4
:100040000C94D1060C94D1060C94D1060C94D106D4
:100050000C94D1060C94D1060C94D1060C94849F78
:100060000C94D1060C94B2A10C9488A10C94D106E6
:100070000C94D1060C94D1060C94D1060C94D106A4
:100080000C94D1060C94D1060C94D1060C94D10694
:100090000C945EA10C9434A10C94D1060C944FA83E
:1000A0000C94D1060C94D1060C94D1060C94D10674
:1000B0000C94D1060C94D1060C94D1060C94D10664
:1000C0000C94D1060C94D1060C94D1060C94D10654
:1000D0000C94D1060C94D1060C940AA10C94E0A0C7
:1000E0000C94D10605A84CCDB2D44EB93836A9022D
:1000F0000C50B9918688083CA6AAAA2ABE00000026
:10010000803F07634236B79BD8A71A39685618AEA6
:10011000BAAB558C1D3CB7CC5763BD6DEDFD753E3C
:10012000F6177231BF000000803F08000000BE9249
:100130002449123EABAAAA2ABECDCCCC4C3E00002C
:100140000080BEABAAAAAA3E00000000BF000000CB
:10015000803F0000000000084178D3BB4387D113E3
:100160003D190E3CC3BD4282AD2B3E68EC8276BE8B
:10017000D98FE1A93E4C80EFFFBE01C4FF7F3F0055
:10018000000000000C94BE930C94A5930C94B886C8
:100190000C9408810C9495880C94DE850C94CC8E7C
:1001A0000C945C0E0C94729B0C94BB200C94EA9201
:1001B0000C94FF770C948C860C94418C0C94CB2B74
:1001C0000C94AD8E0C943C870C94C69E0C94D2A2D9
:1001D0000C948AA30C94C22E0C94E8A20C94CD8AA1
:1001E0000C9474200C9471770C9400910C94269BC1
:1001F0000C94278F0C94E7670C94E9670C9411A476
:100200000C94D0560C94C28E0C94CF700C94C59361
:100210000C94AA900C94BD6B0C94B96B0C94C0A276
:100220000C94E48E0C949F9B0C944B490C943B884B
:100230000C9454850C945A2D0C94218C0C94992078
:100240000C9474A40C9410870C9403890C949280E1
:100250000C94EE670C9464810C94F57C0C94222D24
:100260000C94A9900C942A790C941EA30C941A86D1
:100270000C94AB880C9453880C94F3890C941F83D2
:100280000C9404880C94132C0C949D0E0C94689B75
:100290000C94B39B0C948F930C94199B0C94BD807D
:1002A0000C94CB830C9439800C942A3B0C948B4691
:1002B0000C94589E0C94CB200C94F8830C94928F41
:1002C0000C946A210C94450E0C946E840C9447A4F3
:1002D0000C948B930C94AC200C94248D0C94C5A29C
:1002E0000C943B8C0C9468870C9453790C944D8C33
:1002F0000C9439900C947D530C94522E0C94A78935
:100300000C94E22D0C9425840C94CC900C94E492E3
:100310000C94A3200C94D1200C94D4200C9414930E
:100320000C9473930C94819B0C94AF770C942C8D4C
:100330000C94558C0C94929E0C9412210C9472A2E5
:100340000C94D9A20C94A9800C944C9B0C94A08F73
:100350000C946E530C94C0850C9435930C94A92086
:100360000C949DA20C946A530C94DE2E0C94C084C1
:100370000C94F2090C94FA920C94ED7C0C94AA70F3
:100380000C9435210C9418070C943F890C944A86E0
:100390000C94D4770C949A7B0C9415070C94940EBF
:1003A0000C94458C0C947F880C94B9900C94198A09
:1003B0000C9433800C94C1880C94C62D0C94DD678A
:1003C0000C94CD700C94962C0C9442A30C94EE8259
:1003D0000C9491890C9445840C94AA780C94B22CBA
:1003E0000C9470A50C94B7930C942A930C941481DC
:1003F0000C94C5200C942F910C94388D0C941EA550
:100400000C9471830C9417810C94658A0C94E120F0
:100410000C943D840C94D4780C94BB8E0C94448D35
:100420000C949D6B0C945A0E0C94D4A20C945E9B6D
:100430000C94959B0C94B9630C94240A0C94DA5692
:100440000C94C9700C94E9840C94AE930C945E2CBB
:100450000C94EA2C0C94E88E0C942C3B0C94B56B09
:100460000C9494850C948A2E0C941B070C94E567CD
:100470000C9494870C94A99B0C94062D0C94E687FD
:100480000C946F8F0C94E5480C9493930C944E9EAF
:100490000C9426870C94273B0C94422C0C94D390FC
:1004A0000C942D840C9449920C9452870C94298FAF
:1004B0000C94EF800C94BB6B0C94359E0C94B8207C
:1004C0000C9421890C94B80E0C949E830C9491206A
:1004D0000C94E6A20C9407A30C9469850C94966B7B
:1004E0000C9441930C94FE780C94CE200C94AF2085
:1004F0000C948B0E0C94498C0C946A910C94518C36
:100500000C9409070C946F800C94D3A30C94F6669A
:100510000C94E4200C94FE2D0C94CA810C947678F3
:100520000C94902D0C946E2E0C94FA860C94B17051
:100530000C94F4820C942A850C947DA50C94C8200C
:100540000C948B810C94307D0C94F72B0C94417996
:100550000C948B9B0C94A18A0C9499770C943D7805
:100560000C94810E0C947F560C94E4A40C947E9E03
:100570000C9484800C9496200C941E8B0C94158201
:100580000C94E07C0C94DA8E0C947E850C94CE86D0
:100590000C9400930C94DE920C940F070C94EC8F47
:1005A0000C94BF8E0C94088B0C94FB7D0C94A62E9F
:1005B0000C94600E0C94B78A0C940A850C94C8872E
:1005C0000C94FC850C94F1A50C947E8F0C94D17046
:1005D0000C94549B0C94328D0C94B2590C94D78883
:1005E0000C9433A30C9470930C94B2200C94F1826D
:1005F0000C94AA850C94A1200C94E08E0C944F21AD
:100600000C94A72B0C94AA2D0C9460860C9447ABE9
:100610000C94E77C0C9444830C94B3800C94449B1E
:100620000C94EE8E0C94309B0C949C200C94E38ADA
:100630000C945A800C94B5200C948EA20C9438869D
:100640000C94F28E0C945D890C94ED8E0C945E0EDD
:100650000C941F930C943E8D0C941F0A0C94288FBD
:100660000C9431440C94B78E0C94CE2C0C94D28EF6
:100670000C94F3A20C94C88E0C9477A20C94E367AC
:100680000C94D68E0C94AA870C944D930C94B38E34
:100690000C9476860C941F070C947E870C94BEA253
:1006A0000C94ED880C9497840C9435840C945E9E85
:1006B0000C9469880C941A2E0C94ED090C941585F1
:1006C0000C94A2860C943E2D0C94E4860C94B3A357
:1006D0000C947A2C0C9422880C9413AE0C94AFA238
:1006E0000C94DF820C94F8810C94B76B0C94DD565B
:1006F0000C940C810C943A9B0C943F8A0C94A62089
:100700000C94EA7C0C943F850C94CB700C949E2046
:100710000C94F0920C94219B0C9481820C945C7943
:100720000C94FA2E0C94CD890C94D6800C94362E11
:100730000C947B890C9410810C948B8A0C94FFA4EC
:100740000C94E6810C94E7205761726E696E673AEB
:100750002043616C63756C61746564206D757369A9
:100760006320636F756E74206578636565647320BC
:100770006D6178696D756D20706F737369626C65FA
:100780003B205344206361726420636F7272757002
:1007900074696F6E206C696B656C792100576172AA
:1007A0006E696E673A20547261636B20636F756E79
:1007B0007420646F6573206E6F74206D617463685C
:1007C000206669726D776172652120506C65617376
:1007D000652075706461746520746865206D696357
:1007E000726F5344206361726420736F756E64206E
:1007F000656666656374732E005761726E696E6715
:100800003A2043616C63756C61746564206D757327
:10081000696320636F756E742065786365656473C2
:10082000206D6178696D756D20706F737369626C8E
:10083000653B205344206361726420636F7272755C
:100840007074696F6E206C696B656C7921005761FB
:10085000726E696E673A20547261636B20636F75C4
:100860006E7420646F6573206E6F74206D617463A5
:1008700068206669726D776172652120506C6561D0
:1008800073652075706461746520746865206D6996
:1008900063726F5344206361726420736F756E647A
:1008A00020656666656374732E004E6F2041756423
:1008B000696F20446576696365005761726E696E81
:1008C000673A205253505F53595354454D5F494E38
:1008D000464F206E6F74207265636569766564218A
:1008E000005573696E6720574156205472696767D7
:1008F0006572005573696E672047505374617220AA
:10090000417564696F2056657273696F6E3A200095
:1009100045051525354434241404433323130302B9
:10092000122232424131211101001020304040306A
:1009300020100001112131414232221202031323FF
:100940003343041424344435251505453738393AE2
:100950003B3B3A3938370010203001112131021267
:1009600022320313233304142434051525350616C7
:100970002636362616063525150534241404332369
:100980001303322212023121110130201000000520
:100990000B11171D00040B10161B00191830011A3B
:1009A000172F021B162E031C152D041D142C051EBB
:1009B000132B061F122A07201129082110280922AB
:1009C0000F270A230E260B240D2500010203040520
:1009D000060708090A0B0C0D0E0F1011121314153F
:1009E000161718191A1B1C1D1E1F20212223313017
:1009F0002F2E2D2C2B2A292827260000000000004E
:100A000000000000000001010101010101010202DA
:100A1000020202020303030304040404050505059E
:100A20000606060707070808080909090A0A0B0B42
:100A30000B0C0C0D0D0E0E0F0F10101111121213C6
:100A400013141415151617171818191A1A1B1C1C2D
:100A50001D1E1E1F20202122232324252626272871
:100A6000292A2A2B2C2D2E2F2F3031323334353694
:100A7000373838393A3B3C3D3E3F4041424344459C
:100A80004647494A4B4C4D4E4F505152545556577C
:100A900058595B5C5D5E5F61626364666768696B41
:100AA0006C6D6F70717374757778797B7C7E7F80E5
:100AB0008283858688898B8C8E8F91929495979866
:100AC0009A9B9D9EA0A2A3A5A6A8AAABADAFB0B2CB
:100AD000B4B5B7B9BABCBEC0C1C3C5C7C8CACCCE0D
:100AE000CFD1D3D5D7D9DADCDEE0E2E4E6E8E9EB32
:100AF000EDEFF1F3F5F7F9FBFDFF47657474696EEF
:100B0000672057616E6420507265666572656E631A
:100B10006573004461746120746F205061636B3AA7
:100B20002000536176696E672057616E64205072B1
:100B300065666572656E636573005061636B205313
:100B4000796E6320456E64005061636B2053796E4B
:100B50006320537461727400526563762E2053795A
:100B60006E63205061796C6F616400526563762E0C
:100B700020536D6F6B6520436F6E66696700526529
:100B800063762E2057616E6420436F6E666967003E
:100B9000526563762E204D6573736167653A200058
:100BA000526563762E20436F6D6D616E643A20004E
:100BB000000000006410B71DC8206E3BAC30D92681
:100BC0009041DC76F4516B6B5861B24D3C7105502D
:100BD0002083B8ED44930FF0E8A3D6D68CB361CB55
:100BE000B0C2649BD4D2D38678E20AA01CF2BDBD09
:100BF00000002100240027002A002D0030003300CF
:100C000001010000040107010A0100002200250083
:100C100028002B002E0031003400020100000501E5
:100C200008010B01000020002300260029002C00F1
:100C30002F00320000010000030106010901050533
:100C40000505070508080808020202020A0A080842
:100C50000404040401010101010101010303030370
:100C600003030303040707070C0C0C0C0C0C0C0CFF
:100C70000202020206060606060606060B0B0B0B10
:100C80000B0B0B0B01021020200808102040102035
:100C90004080020102010804020101020408102040
:100CA000408080402010080402018004020180403E
:100CB00020100804020108040201010204081020A7
:100CC0004080010204081020408000000A0B020945
:100CD0000C0D0E08070304010000000000000000D6
:100CE0000000000000000000000000000000000004
:100CF00000000000000012111000000000000000C1
:100D000000000000000000000000000000000000E3
:100D10004552524F523A204E6F2063616C6C6261B3
:100D2000636B20617661696C61626C6520666F72CD
:100D3000207061636B6574204944200013AE47AB9B
:100D400011241FBECFEFD1E2DEBFCDBF00E00CBF4C
:100D500013E0A0E0B2E0E2E1FDE701E00BBF02C07A
:100D600007900D92AE37B107D9F72DE0AEE7B3E0AB
:100D700001C01D92AE3BB207E1F716E0CFE9D6E025
:100D800000E006C021970109802FFE010E94E1B812
:100D9000CE39D10780E00807A9F70E945FB10C9413
:100DA00077BE0C9400009091DE039C3131F4E82F63
:100DB000F0E0EC56F64F849108959E3129F4E82F27
:100DC000F0E0E257F64FF7CF81E008952091DE037F
:100DD00090919E03E82FF0E02C3149F4992321F003
:100DE000EE58F64F84910895EA5AF64FFBCF2E3114
:100DF00041F4992319F0E25DF64FF4CFE05FF64F2E
:100E0000F1CF992319F0EF5AF64FECCFE45BF64F90
:100E1000E9CF8091A7038F5F8093A7030895809106
:100E2000A6038F5F8093A603089590E080E0089565
:100E3000FC0164870895FC01848590E00895FC011D
:100E40008685978508951092B90384E680931502EC
:100E50001092BA0345E050E060E070E085E898E069
:100E60000C940BA80F931F93CF93DF9300D000D067
:100E7000CDB7DEB78FEF9FEFDC0189839A83AB8319
:100E8000BC8310E000E01E830D83BE016B5F7F4FCB
:100E9000CE0101960E94DCA1BE016A5F7F4FCE01A8
:100EA00001960E94DCA10F5F1F4F0632110559F712
:100EB0008EE190E09E838D83BE016B5F7F4FCE01FC
:100EC00001960E94DCA1BE016A5F7F4FCE010196B0
:100ED0000E94DCA188E090E09E838D83BE016B5F61
:100EE0007F4FCE0101960E94DCA1BE016A5F7F4F59
:100EF000CE0101960E94DCA169817A818B819C815F
:100F0000609570958095909526960FB6F894DEBF03
:100F10000FBECDBFDF91CF911F910F91089520910A
:100F20008E0430918F04215031092330310518F49B
:100F300060E00C94EA930895FF920F931F93CF9370
:100F4000DF93EC01F62E08811981C8010E9416B8C2
:100F5000F81621F06F2DC8010E941EB8CE01DF9156
:100F6000CF911F910F91FF900895EF92FF920F93F1
:100F70001F93CF93DF9300D000D0CDB7DEB70E9490
:100F8000320769837A838B839C83CE0101967C012F
:100F90000CEF1FE01E830D83F70161917F01CE01ED
:100FA00005960E949C070F5F1F4F0115F0E11F0778
:100FB00089F726960FB6F894DEBF0FBECDBFDF913E
:100FC000CF911F910F91FF90EF900895E2E0F1E033
:100FD00080818F7D808380818F7B808310981198A2
:100FE00080E00E94A06D80E00E94246DEBEDF7E0B0
:100FF0001086118608952091DA033091DB03A90150
:10100000435051094230510518F02630310511F492
:10101000882399F19091100B2091110B291303C093
:10102000811118C008952917A8F481E080938A03DC
:101030004EE150E060E070E09230D9F070F449E1A8
:1010400050E060E070E09130A1F04CE350E060E0EF
:1010500070E00FC010928A03EBCF44E250E060E0F2
:1010600070E0933031F04DE250E060E070E0943099
:1010700061F78DEA98E00C940BA808958091100B0D
:10108000823071F028F4813069F084E10C94F86CBE
:10109000833021F08430C9F783E1F8CF82E1F6CFC5
:1010A00081E1F4CF80E1F2CFCF93C82F84E0C53047
:1010B000F0F00E94E60660E00E943C9A83E00E9405
:1010C000E60660E00E943C9A82E00E94E60660E04C
:1010D0000E943C9A81E00E94E60660E00E943C9AF1
:1010E00080E00E94E60660E0CF910C943C9A0E945A
:1010F000E60661E00E943C9AC43001F383E00E945E
:10110000E60661E00E943C9AC330F1F282E00E9460
:10111000E60661E00E943C9AC230E1F281E00E9462
:10112000E60661E00E943C9AC111DACF80E00E949D
:10113000E60661E0D9CFEF92FF920F931F93CF9312
:10114000DF9383E098E00E94DBA7882341F040E929
:1011500051E060E070E083E098E00E940BA880918D
:10116000DE0310E08E3109F012E083E098E00E9487
:1011700095A7683C71058105910508F0DFC0C09115
:101180007B04CC2391F08091DA039091DB030697E6
:1011900059F480911402853039F4C1E08091AF0395
:1011A0009091B003892B09F0C0E08091120B8D7FE4
:1011B000813089F48091DA039091DB03069759F42A
:1011C00080911402853039F48091AF039091B0037F
:1011D000019709F4C1E080915E078A3B69F4809130
:1011E000DA039091DB03069739F4D1E08091AF03E5
:1011F0009091B003892B09F0D0E08091950388236A
:1012000079F02091DA033091DB032630310541F487
:101210002091AF033091B0032130310509F4D82F6C
:101220008091DE038C3169F105E08E3159F180E067
:10123000DD2309F47BC00E94E60660E00E943C9A30
:1012400081E00E94E60661E00E943C9A82E00E94F2
:10125000E60661E00E943C9A83E00E94E60661E0B7
:101260000E943C9A84E0CC2309F464C00E94E60604
:1012700060E0DF91CF911F910F91FF90EF900C9460
:101280003C9A04E0CC2379F1C0E08EE190E07C014F
:10129000E11AF108CE151F04ACF4CC2369F0DD236C
:1012A00011F0C01710F0C93138F08C2F0E94E606FB
:1012B0000E949298CF5FEECF8C2F0E94E6060E948C
:1012C0007498F8CF8091DE038E3129F48DE10E946D
:1012D000E6060E947498DF91CF911F910F91FF90C5
:1012E000EF900C94FE9CDD23C9F0C0E08EE190E00D
:1012F0007C01E11AF108CE151F046CF78C2FCC236A
:1013000041F0C01730F40E94E6060E949298CF5F29
:10131000F2CF0E94E6060E947498F9CFDF91CF9138
:101320001F910F91FF90EF900C94F49C0E94E606A1
:1013300061E084CF0E94E60661E09BCF80911402B9
:10134000833009F4BDC068F4813009F40BC18230E8
:1013500009F4E3C0DF91CF911F910F91FF90EF90BF
:101360000895843009F47BC08530A1F78091DE03B5
:101370008C3109F439C08E3109F068C0C1E08EE1CA
:1013800090E09C01211B31098901C01711060CF066
:10139000A2CFEBEFEC0FE93100F5F0E08827EC523B
:1013A000F64F8F4F0C94E1B8F209F209ED09ED09FF
:1013B000ED09ED09F209F209ED09ED09ED09ED0973
:1013C000F209F209ED09ED09ED09ED09F209F20959
:1013D000ED09ED09ED09ED09F2098C2F0E94E606F1
:1013E0000E949298CF5FD1CFC1E08EE190E09C0146
:1013F000211B31098901C01711060CF06CCFECEFED
:10140000EC0FE531E0F4F0E08827E65FF54F8F4F11
:101410000C94E1B8240A240A240A1F0A1F0A1F0A8E
:10142000240A240A240A1F0A1F0A1F0A240A240A5B
:10143000240A1F0A1F0A1F0A240A240A240A8C2FBE
:101440000E94E6060E949298CF5FD5CF85E0DF919B
:10145000CF911F910F91FF90EF900C9454088091C1
:10146000DE038C3149F18E3149F5C1E0CD3038F4DD
:101470008BEFCB3028F0CF5FC731C1F72CCF8FEE89
:101480008C0F8230C0F38C2F0E94E6060E94929847
:10149000F2CFCD3038F48CEFCA3028F0CF5FC631B0
:1014A000C1F719CF80EF8C0F8330C0F38C2F0E94CF
:1014B000E6060E949298F2CFC1E0F8CF84E0C7CF51
:1014C0008091DE038C3129F18E3129F5C1E0C530E0
:1014D00030F0C73048F085EF8C0F823028F08C2F29
:1014E0000E94E6060E949298CF5FC13181F7F3CE49
:1014F000C43030F0C73048F086EF8C0F833028F0CE
:101500008C2F0E94E6060E949298CF5FC03181F72F
:10151000E2CEC1E0F5CF83E09ACF8091DE038C313B
:10152000E9F08E31E9F4C1E08BEF8C0F823028F0C6
:101530008C2F0E94E6060E949298CF5FCB30A1F7D5
:10154000CACE8CEF8C0F833028F08C2F0E94E606D9
:101550000E949298CF5FCA30A1F7BDCEC1E0F5CF0F
:1015600082E075CF8091DE038C3161F08E31A1F481
:10157000C1E08C2F0E94E6060E949298CF5FC53092
:10158000C1F7A9CEC1E08C2F0E94E6060E94929876
:10159000CF5FC430C1F79FCE81E059CFEF92FF9269
:1015A0000F931F93CF93DF9300D01F921F92CDB75D
:1015B000DEB78091DE038D7F8C3109F0EAC08DEAC1
:1015C00098E00E94DBA7882309F455C08091DE03D0
:1015D000F12C8E3111F082E0F82E85E0E5E7F2E0A3
:1015E000DE01119601900D928A95E1F7809110022B
:1015F00090911102019731F48AE089838A838B8369
:101600008C838D8380918B03282F30E00EE110E0D6
:101610000F19110990918A03992309F45CC02017CE
:10162000310724F40E94E6060E94099D8091100B68
:101630009FEF980F9430F0F50E94D30690918B03A2
:10164000981728F110928A0380911002909111024C
:101650004AE550E060E070E0019739F51092B50876
:101660001092B60880918A03882329F080918B0319
:101670008F5F80938B030F900F900F900F900F90C0
:10168000DF91CF911F910F91FF90EF900895E0911E
:10169000100BEC0FFD2FF11D408184E0489FA0014D
:1016A0001124052E000C660B770B8DEA98E00E9442
:1016B0000BA8D8CF90918B039017110641F03CF006
:1016C00010928A038EE18F1980938B03BDCFFE01A8
:1016D000E80FF11DE1CF2017310724F40E94E60640
:1016E0000E94029DF0908B03F11016C081E0809360
:1016F0008A034AE550E060E070E08DEA98E00F90E0
:101700000F900F900F900F90DF91CF911F910F913D
:10171000FF90EF900C940BA8FA94F0928B03EE24B8
:10172000E3948091DE038E3109F4E12C8091100B5B
:1017300020911002309111029FEF980F9430F8F42D
:101740002130310569F40E94D3068E0D9927991F27
:10175000F81619062CF41092B5081092B6088BCF23
:10176000E091100BEC0FFD2FF11D408184E0489FAC
:10177000A0011124052E000C660B770BBECF213083
:10178000310519F4F016110634F3FE01E80FF11DCE
:10179000ECCF8091100B8230C9F020F4813041F001
:1017A00085E007C08330A1F08430D1F784E001C028
:1017B00081E00F900F900F900F900F90DF91CF91DD
:1017C0001F910F91FF90EF900C94540882E0F1CF9D
:1017D00083E0EFCF0F931F93CF93DF939091DE03BE
:1017E0008091100B9C3169F0D0E09E3159F082302D
:1017F00009F452C008F042C0813009F446C085E0C7
:1018000045C0D2E081502D2F30E0C0E00EE110E065
:10181000021B130B843018F5C01711069CF480913D
:10182000100B0E94D3068C1738F08C2F0E94E6060E
:101830000E949298CF5FF0CF8C2F0E94E6060E9404
:101840007498F8CF0E94FE9C8091100B0E94D306E2
:1018500080938B03DF91CF911F910F910895C01753
:1018600011063CF48C2F0E94E6060E949298CF5FEE
:10187000F6CF0E94FE9C8EE18D1BEACF833071F083
:10188000843009F0BCCF84E001C081E0DF91CF91CA
:101890001F910F910C94540882E0F8CF83E0F6CFAB
:1018A0008091100290911102019739F480E190E04B
:1018B0009093170280931602089583E090E090932E
:1018C0001702809316028091DA039091DB0304974C
:1018D00051F080910A0B823079F78091DC0390916E
:1018E000DD03892B49F786E090E0E2CFCF9380912A
:1018F000DE038C3109F0E5C080918B038C3118F147
:10190000883308F040C097E3981B892F2091DA03B1
:101910003091DB032430310521F09091AD03992300
:10192000A1F10E94E6060E94029D80918B038733FD
:1019300009F0E8C01092E4081092E50810928A03BA
:1019400010928B0320C00E94E6060E94099D8091A0
:101950008B038F5F80938B038C3109F0EDC04AE5D8
:1019600050E060E070E08CED98E00E940BA8809160
:10197000100290911102019731F488E090E0909369
:10198000170280931602CF91089520911002309192
:1019900011029091100B953018F42130310511F09F
:1019A000232B21F40E94E6060E94029D80911002E2
:1019B000909111020097E9F0019729F780918B032C
:1019C0009091100B923009F45EC058F5913009F4F3
:1019D00067C08733B1F51092B5081092B60810921F
:1019E000E4081092E50810928A038BE180938B0340
:1019F00015C080918B038733D9F544E050E060E057
:101A000070E08DEA98E00E940BA81092E408109212
:101A1000E50881E080938A0310928B03CF910C94A8
:101A2000500C9330C9F09430A1F6803241F41092FA
:101A3000E4081092E50810928A0386E1D7CF81323C
:101A4000B8F01092E4081092E50891E090938A03B0
:101A500097E3981B892FCACF863241F41092E4088D
:101A60001092E50810928A0380E1C0CF873248F7D0
:101A70004091160250911702440F551F440F551FF5
:101A800070E060E043C08B3241F41092E4081092A1
:101A9000E50810928A038BE0A9CF8C3248F3D1CFAE
:101AA000823341F41092E4081092E50810928A0300
:101AB00084E09CCF8333E0F21092E4081092E508B2
:101AC000C5CF8E3109F0C0C080918B038E3140F1BB
:101AD0008C3308F058CF9BE3981B892F2091DA03B1
:101AE0003091DB032430310521F09091AD0399232F
:101AF00091F10E94E6060E94029D80918B038B3338
:101B000009F418CF40E550E060E070E08CED98E01B
:101B10000E940BA880918B038F5F80938B0333CF40
:101B20000E94E6060E94099D80918B038F5F80933F
:101B30008B038E3109F413CF409116025091170296
:101B4000440F551F440F551F70E060E08CED98E086
:101B5000CF910C940BA8209110023091110290911A
:101B6000100B953018F42130310511F0232B21F49E
:101B70000E94E6060E94029D80911002909111023F
:101B80000097E1F0019709F0FECE80918B039091D0
:101B9000100B923009F440C0B8F4913009F442C0FF
:101BA0008B3319F51092B5081092B6081092E4081C
:101BB0001092E50810928A038DE118CF80918B0373
:101BC0008B3309F055CF19CF9330C1F0943041F7E2
:101BD000833241F41092E4081092E50810928A03CF
:101BE00087E104CF843208F443CF1092E4081092C6
:101BF000E50891E090938A039BE32BCF893241F46F
:101C00001092E4081092E50810928A0381E1EECE6A
:101C10008A3208F42DCFE9CF8F3209F436CF08F499
:101C200027CFE3CF853341F41092E4081092E50802
:101C300010928A0385E0DACE863308F419CF109229
:101C4000E4081092E508D6CF8091DA039091DB0387
:101C5000049721F08091AD03C1E08111C2E0E091D1
:101C60008D03EA3008F08FCEF0E08827E55CF14F75
:101C70008F4F0C94E1B8450E5A0E5C0E5E0E600E4E
:101C8000810E8B0E940E9D0EB80E81E00E945408BA
:101C900088E7C89FA0011124052E000C660B770B66
:101CA0008CED98E00E940BA880918D038F5F80934C
:101CB0008D0369CE82E0EACF83E0E8CF84E0E6CF0F
:101CC00085E00E94540880918D03282F30E02F5F1B
:101CD0003F4F9091100B9217130639F42091DA03BD
:101CE0003091DB0324303105E1F58F5F80938D0364
:101CF00088E7C89FA0011124052E000C660B770B06
:101D000025CF84E00E94540880918D03482F4150D4
:101D1000550B9A01DECF83E00E94540880918D0319
:101D2000482F4350550BF5CF82E00E945408809114
:101D30008D03482F4550550BECCF81E00E9454088D
:101D400080918D038750990B2091100B281719064D
:101D500009F09ECF8091DA039091DB03049709F498
:101D600097CF1092E4081092E50810928D030BCEE5
:101D700080E00E945408F5CF0F931F93CF9380917A
:101D8000DE0390E08E3109F092E02EE1291B2093D2
:101D90008B0325E020938D038D7F8C31F1F4C0E01F
:101DA0000EE110E0091B1109C01711063CF48C2F3D
:101DB0000E94E6060E949298CF5FF6CF0E94FE9C9A
:101DC00048E750E060E070E08CED98E00E940BA8DE
:101DD000CF911F910F910C94760C85E00E945408CE
:101DE000EFCF8091DE038D7F8C3121F40E94F49C33
:101DF00010928B0308950E94F10E10920B0810921E
:101E00000C088091A203811114C00E94500C809193
:101E1000DE038D7F8C3149F4809110029091110284
:101E2000019719F480E00E94FB070E943E080C9481
:101E3000760C0895EFEBFAE0108611861092860377
:101E400070E060E08BE00C94E19A4091150B433018
:101E5000F1F0909107029923D1F02091DA033091AB
:101E6000DB032430310599F09091AD0391110FC03F
:101E70009091D803992359F0882349F0909129082B
:101E8000423081F42330310569F091110BC00C947C
:101E90001A0F8217D9F080938603682F70E08BE0C9
:101EA0000C94E19A20918603992399F3682F70E0AE
:101EB000660F771F6F3F710519F014F06FEF70E038
:101EC0002617170619F060938603E9CF08958091CD
:101ED0009F03823061F028F4813069F080910C0B0F
:101EE0000895833031F08430C9F785E0089583E0A8
:101EF000089584E0089582E008951092AB0810924E
:101F0000AC081092A1081092A2088091AB03811135
:101F10000BC00E94670F84508230A0F48091DC03D4
:101F20009091DD03019771F4109A0E94670F84501D
:101F3000823030F48091DC039091DD03019721F031
:101F4000119808951098F1CF119A08958091DF03A8
:101F500081110C94670F80910C0B08950E94A60FBD
:101F6000853059F48091BF03811107C090910D0B0A
:101F700081E0992321F0973011F080E008950895D1
:101F80002F923F924F925F926F927F928F929F9289
:101F9000AF92BF92CF92DF92EF92FF920F931F9377
:101FA000CF93DF93CDB7DEB7A6970FB6F894DEBF19
:101FB0000FBECDBF80915D076DED7FEF9B01281BAC
:101FC000310987FD339544E6429FC001439F900D40
:101FD00011240E94CDB8762E662E8091120B12E04D
:101FE000813031F011E0833019F412E042E001C099
:101FF00041E080910F0BEE24E394E80EF090BE03D5
:1020000080910402CC24C394882311F062E0C62E90
:1020100080910502DD24D394882311F052E0D52E5F
:1020200080910F028111B6C021E029A3809109029D
:102030008111B3C0F1E0FAA38091A00301E0811106
:1020400002E080919E0355245394882311F032E0DE
:10205000532E8091A20344244394882311F022E05C
:10206000422E80910A0B33243394823011F492E093
:10207000392E8091060222242394882311F082E0D5
:10208000282E809160029091610228EE33E0B90120
:102090000E94B9B8862E8091620290916302B901C4
:1020A0000E94B9B8962E8091640290916502B901A0
:1020B0000E94B9B8A62E8091660290916702B9017C
:1020C0000E94B9B8B62E8091680290916902B90158
:1020D0000E94B9B880916A02A1E08111A2E08091CA
:1020E000F00881115DC081E08BA38091F10881111E
:1020F0005AC0E1E0ECA38091F208811157C021E0C1
:102100002DA38091F808811154C091E09EA3809185
:102110009C0390919D038130910509F44FC0029773
:1021200009F04AC093E0209198033091990382E02E
:102130002130310529F083E02230310509F081E0BA
:10214000E0919F03E15051E0E43020F4F0E0E358E7
:10215000FD4F5081209196033091970372E021301A
:10216000310529F074E02230310509F071E0F4E620
:10217000B1E0B70DF61508F4B5E620919A03309159
:102180009B0321303105E1F02230310509F475C09F
:1021900021E017C0E2E0E9A349CF22E02AA34CCF17
:1021A00092E09BA3A2CFF2E0FCA3A5CF82E08DA397
:1021B000A8CFE2E0EEA3ABCF91E0B5CF92E0B3CFF2
:1021C00022E0E0910802E15034E0E33020F4F0E056
:1021D000E658FD4F308119834A83EB82FC82CD8221
:1021E000DE8249A14F83EAA1E88709875A869B8747
:1021F0008C874D865E877F87388A298ABA8B8B8A3F
:102200009C8AAD8ABE8A6F8BA88FFBA1F98F4CA1E7
:102210004A8F8DA18B8F9EA19C8F2D8F3E8FFE01AB
:1022200031967F0110E000E018A30F8FF701619154
:102230007F01CE014F960E949C070F5F1F4F0E310A
:10224000110591F70E94B507A6960FB6F894DEBF68
:102250000FBECDBFDF91CF911F910F91FF90EF90F7
:10226000DF90CF90BF90AF909F908F907F906F90B6
:102270005F904F903F902F90089523E0A2CF0F934F
:102280001F93CF93DF931F921F92CDB7DEB710E05D
:1022900000E01A8309836FEFCE0101960E949C072C
:1022A0000F5F1F4F0E311105A1F70E94B5070F9068
:1022B0000F90DF91CF911F910F910895EF92FF92B0
:1022C0000F931F93CF93DF9300D000D000D01F92C5
:1022D000CDB7DEB750910E0240910C0280910B02F7
:1022E00031E0811132E080910A0291E0811192E0A7
:1022F00080917D0421E0811122E08091A103811170
:102300002FC081E0609113026983609112026A8399
:102310003B835C834D832E839F838887CE01019608
:102320007C010EE110E01A870987F70161917F01B6
:10233000CE0109960E949C070F5F1F4F06321105C0
:1023400091F70E94B5072A960FB6F894DEBF0FBE2C
:10235000CDBFDF91CF911F910F91FF90EF90089526
:1023600082E0D0CF0F931F93CF93DF931F921F92E2
:10237000CDB7DEB70EE110E01A8309836FEFCE010F
:1023800001960E949C070F5F1F4F06321105A1F7AF
:102390000E94B5070F900F90DF91CF911F910F9181
:1023A000089580918E0490918F040197039710F403
:1023B0000C9460940895CF93DF93CDB7DEB7649704
:1023C0000FB6F894DEBF0FBECDBF20918E043091C2
:1023D0008F04215031092230310580F4FE013196FD
:1023E00094E1DF011D929A95E9F795E099838111B7
:1023F0000EC083E18D83CF010E94859264960FB653
:10240000F894DEBF0FBECDBFDF91CF91089582E17A
:10241000F1CF80918E0490918F040197039708F07B
:102420002BC160915B07062E000C770B8CE390E0CC
:102430000E94139460915B07062E000C770B8AE6CE
:1024400091E00E94139460915B07062E000C770BBD
:1024500081E290E00E94139460915B07062E000CCD
:10246000770B8DE190E00E94139460915B07062E3C
:10247000000C770B8EE190E00E94139460915B0753
:10248000062E000C770B8FE190E00E941394609170
:102490005B07062E000C770B80E290E00E941394FD
:1024A0008091DF038823D9F060915B07062E000C32
:1024B000770B83E991E00E94139460915B07062EED
:1024C000000C770B84E991E00E94139460915B0704
:1024D000062E000C770B87E491E00E941394809104
:1024E000AB038823B9F160915B07062E000C770BD4
:1024F00080910D0B823009F4B6C0833059F18130E0
:1025000009F4B4C08EE791E00E94139460915B07D8
:10251000062E000C770B89E891E00E9413946091DD
:102520005B07062E000C770B83E690E00E94139465
:1025300060915B07062E000C770B88E490E00E9408
:10254000139460915B07062E000C770B82E690E0F7
:102550000E9413940E94A60F60915B07062E000C48
:10256000770B853009F085C084E991E00E941394CF
:102570000E94670F8450823008F07EC060915B0734
:10258000062E000C770B8EE890E00E941394609169
:102590005B07062E000C770B80E990E00E941394F5
:1025A00060915B07062E000C770B8DE890E00E948F
:1025B000139460915B07062E000C770B8FE890E078
:1025C0000E94139460915B07062E000C770B83E941
:1025D00090E00E94139460915B07062E000C770B2D
:1025E00081E990E00E94139460915B07062E000C35
:1025F000770B82E990E00E94139460915B07062EAE
:10260000000C770B84E990E00E94139460915B07C3
:10261000062E000C770B82E190E00E9413946091EB
:102620005B07062E000C770B83E190E00E94139469
:1026300060915B07062E000C770B84E190E00E940E
:10264000139460915B07062E000C770B85E190E0F8
:102650000E94139460915B07062E000C770B86E1B5
:1026600090E00C94139484E390E072CF8AE390E0BE
:102670006FCF8BE691E07ACF0895809176049091A8
:102680007704181619060CF067C0809178049091B1
:102690007904843F21E0920708F45EC021E0209392
:1026A0007C044091DF0320918E0430918F0422300E
:1026B000310599F12330310519F02130310509F543
:1026C0004423F9F020917B0461E0211101C060E016
:1026D0000E94EA9360915A07062E000C770B8091B6
:1026E0007804909179040E94139461E080917804B9
:1026F000909179040E9439940E94609481E08093C3
:10270000C5078091DF03882339F140E157E260E09B
:1027100070E080E697E00C940BA8442391F320919D
:102720007B0461E0211101C060E00E94EA936091A6
:102730005A07062E000C770B80917804909179044B
:102740000E94139450E040E061E080917804909101
:1027500079040E944B95D0CF089520918E0430913A
:102760008F04215031092330310510F40C94259742
:1027700008958DEB91E00E94AD1384E991E00E94F1
:10278000AD138BE691E00E94AD138CE691E00C94C2
:10279000AD130E94A60F8250823020F08AE691E0AD
:1027A0000C94AD138CE390E0FBCFE7E1F9E01086E9
:1027B0001186EDE0F9E0108611868DE890E00E9428
:1027C000AD138EE890E00E94AD138FE890E00E9478
:1027D000AD1380E990E00E94AD1381E990E00E9482
:1027E000AD1382E990E00E94AD1383E990E00E946E
:1027F000AD1384E990E00C94AD13CF93C82F809172
:10280000100B813051F010F08430E0F08DE190E059
:102810000E94AD1380E290E002C081E290E00E944D
:10282000AD13CC23F1F08091DF038823D1F08091A8
:102830000D0B823071F0833089F0813091F484E99E
:1028400091E009C081E290E00E94AD138DE190E03B
:10285000E6CF83E991E0CF910C94AD1387E491E04A
:10286000FACFCF9108959091D5098091D00998130E
:102870001AC090911A0A8091150A981314C0909169
:102880005F0A80915A0A98130EC08091DC039091E0
:10289000DD03019741F448EE53E060E070E08FE81B
:1028A00098E00E940BA88091BD03882309F457C0CB
:1028B0001092BD039091D5098091D009981312C050
:1028C00090911A0A8091150A98130CC090915F0A92
:1028D00080915A0A981306C08091DC039091DD0321
:1028E000019711F182E190E00E94AD1383E190E045
:1028F0000E94AD1384E190E00E94AD1385E190E069
:102900000E94AD1386E190E00E94AD1380910F020A
:10291000882319F08FEB0E94F86C40E050E0BA0178
:102920008FE898E00C940BA882E190E00E948F075A
:1029300083E190E00E948F0784E190E00E948F077E
:1029400085E190E00E948F0786E190E00E948F076A
:1029500080910F02882319F080EC0C94F86C089594
:10296000AF92BF92CF92DF92EF92FF920F931F939D
:10297000CF93DF93CDB7DEB764970FB6F894DEBF81
:102980000FBECDBF5C01F62EC42E14160CF4C12C64
:102990008AEBC81614F48AEBC82E80918E049091AD
:1029A0008F048230910509F449C08330910511F0FC
:1029B000019799F50C2C000CDD082223F9F06AEB45
:1029C0007FEFC5010E9413946E2DC5010E943994BA
:1029D000FE01339682E1DF011D928A95E9F78CE0D2
:1029E0008983BB82AA828AE08D83DD86CC861A87A2
:1029F0000987CE0101960E94859208C0B601C501E3
:102A00000E9413946E2DC5010E94399461E0F1106B
:102A100001C060E0C5010E94EA9364960FB6F89485
:102A2000DEBF0FBECDBFDF91CF911F910F91FF9001
:102A3000EF90DF90CF90BF90AF9008950C2C000CDA
:102A4000DD08222361F06AEB7FEFC5010E94139439
:102A500050E040E06E2DC5010E944B95B9CFB60104
:102A6000C5010E94139450E040E06E2DC5010E9404
:102A70004B95CCCFEF920F931F9390911A0298171A
:102A800071F1943060F58430E1F48FE00E94F86CCD
:102A90000E94A60F8250EE24E39410E000E020E0B4
:102AA00040915B0761E08230B8F08AE691E00E94D5
:102AB000B01444E650E060E070E083EA98E00E94E1
:102AC0000BA880911A028F5F80931A028EE01F91EB
:102AD0000F91EF900C94F86C8CE390E0E8CF1F918D
:102AE0000F91EF900895EF920F931F9320919A0307
:102AF00030919B038091140B2115310519F520911C
:102B00004B0990914609291731F1823031F1882320
:102B100009F45AC00E94670F90910F0284508230CE
:102B200008F441C0992319F081EB0E94F86CEE245F
:102B3000E39410E000E020E040915B0760E08DE866
:102B400091E040C02130310501F720914B0990916F
:102B500046092917D1F2813051F481E09091140B8C
:102B6000923009F080E01F910F91EF900895882333
:102B700099F080910F02882319F083EB0E94F86C82
:102B8000EE24E39410E000E020E040915B0760E079
:102B900086E991E00E94B01482E70E94F86C81E01F
:102BA0008093140BDACF992319F082EB0E94F86C12
:102BB000EE24E39410E000E020E040915B0760E049
:102BC00081EB90E00E94B01481E70E94F86C82E0F3
:102BD000E7CFEF920F931F938091DF03882371F16A
:102BE000109201091092020987E591E00E94AD134D
:102BF000EE24E39410E000E020E040915B0760E009
:102C000088E591E00E94B01480910D0B8230B1F400
:102C10008091DC039091DD03019781F490911A0A71
:102C20008091150A98130AC004E813E021E040914E
:102C30005B0761E083E991E00E94B0141092DB032E
:102C40001092DA031F910F91EF900895EF920F9376
:102C50001F938091BC038823A9F10E94670F8250C3
:102C60008230B0F589E491E00E94AD138CE491E0EC
:102C70000E94AD138DE491E00E94AD1381E00E94AB
:102C8000FD138091DA039091DB030497D9F08091D2
:102C9000AC03811117C080910F02882319F086EBD5
:102CA0000E94F86C81E190E00E94AD13EE24E39461
:102CB00010E000E020E040915B0760E081E190E0FF
:102CC0000E94B0141092BC031F910F91EF900895D1
:102CD00080910F022091DA033091DB03243031051B
:102CE00051F09091AD03911106C02091DC03309119
:102CF000DD03232B91F4882319F084E50E94F86CFE
:102D0000EE24E39410E000E020E040915B0760E0F7
:102D100084E990E00E94B0142FC09091AC0391110F
:102D20002BC0882319F082E50E94F86C49E557E032
:102D300060E070E087E199E00E940BA8109215090D
:102D4000109216098CE30E94A79D21E030E049E52E
:102D500057E060E070E08DE20E94649D80918E04F7
:102D600090918F040297E1F440915B076EE870E068
:102D700082E990E00E944B9780910F02882319F01E
:102D80008FE40E94F86C8FE890E00E94AD1383E915
:102D900090E00E94AD1380E990E00E94AD1392CFC5
:102DA000EE24E39410E000E020E040915B0760E057
:102DB00082E990E0AFCFEF920F931F930E94D5135B
:102DC00080910F02882319F08DE40E94F86C48EE80
:102DD00056E060E070E087E199E00E940BA88EE188
:102DE0000E94A79D21E030E048EE56E060E070E0F0
:102DF0008DE20E94649D80918E0490918F040297D1
:102E000071F440915B076EE870E08DE890E00E94FD
:102E10004B97109203021F910F91EF900895EE24AB
:102E2000E39410E000E020E040915B0760E08DE873
:102E300090E00E94B014EDCFEF920F931F93CF93C9
:102E4000C82F40915B078091100B813020F08330B8
:102E500058F0853060F1EE24E39408EE13E02C2F57
:102E600061E080E290E008C0EE24E39408EE13E015
:102E70002C2F61E081E290E00E94B0148091DF038A
:102E8000882351F1CC2341F180910D0B8230C1F0A8
:102E9000833039F1813001F5EE24E39404E813E046
:102EA00021E040915B0761E084E991E013C0EE24EA
:102EB000E39408EE13E02C2F61E08DE190E0DCCF8D
:102EC000EE24E39404E813E021E040915B0761E025
:102ED00083E991E00E94B014CF911F910F91EF9080
:102EE0000895EE24E39404E813E021E040915B07A9
:102EF00061E087E491E0EECFEF920F931F93CF93C1
:102F00008091DA039091DB038430910509F4A2C12A
:102F10002091AD0321119EC130911A0A2091150A0A
:102F20003213C3C120910B02222361F020910D0BBB
:102F3000223009F485C0039729F08091290888235D
:102F400009F47EC08FEF0E94246DC091BC030E94E3
:102F5000670FC11138C08250823008F09DC0809147
:102F60008203811128C089E491E00E94AD138CE4B2
:102F700091E00E94AD130E94670F833009F075C085
:102F80008DE491E00E94AD13EE24E39410E000E0A4
:102F900020E040915B0760E08DE491E00E94B01476
:102FA00080910F02882339F080918103811103C041
:102FB0008BEC0E94F86CC1E0C093870381E00E9413
:102FC0001C17C093BC030E94670F84508230F8F432
:102FD0008DE099E00E94DBA78823C9F080910F0261
:102FE000882319F081E50E94F86C80918E049091FD
:102FF0008F04029761F0EE24E39410E000E020E0FB
:1030000040915B0761E080E990E00E94B01410926B
:103010008203109281039091D5098091D009981371
:1030200009C08091AB03811105C00E94AE0F8823B7
:1030300009F4A3C0CF911F910F91EF900C9433141A
:103040008091100B823069F020F4813061F08CECBB
:103050007ACF833021F08430D1F782EB74CF89E9C5
:1030600072CF80E870CF86E66ECFEE24E39410E056
:1030700000E020E040915B0760E089E491E00E947D
:10308000B01480910F02882309F495CF80918103B9
:10309000811191CF84EB8DCF80910F02882341F075
:1030A00080910302882309F447C085E50E94F86CEB
:1030B00010921F091092200949E557E060E070E086
:1030C0008DE099E00E940BA88DE20E94A79D21E06F
:1030D00030E049E557E060E070E08CE30E94649DD9
:1030E0002091030240915B0780918E0490918F04A0
:1030F000222379F1029711F560E970E083E990E00D
:103100000E944B97109203028DE890E00E94AD134D
:103110008EE890E00E94AD1381E990E00E94AD132B
:1031200082E990E00E94AD1384E990E00E94AD1323
:1031300081E08093BC0347CF8EE4B8CFEE24E394C4
:1031400010E000E020E060E083E990E00E94B0142D
:10315000D9CF029739F460E970E08FE890E00E94DF
:103160004B97D2CFEE24E39410E000E020E060E043
:103170008FE890E00E94B014C7CF8091BD03811109
:1031800069C08FE898E00E94DBA7882309F462C039
:103190008091DA039091DB03049709F45BC080917E
:1031A000BD03811157C00E94670FC82F82E190E0D4
:1031B0000E94AD1383E190E00E94AD1384E190E0A2
:1031C0000E94AD1385E190E00E94AD1386E190E08E
:1031D0000E94AD13C450C23008F053C08091060263
:1031E000882309F44EC080910F02882319F081ECE6
:1031F0000E94F86C40915B078091100B823079F14E
:1032000058F48130B1F0EE24E39410E000E020E0C7
:1032100061E086E190E015C0833051F1843099F788
:10322000EE24E39410E000E020E061E085E190E02E
:1032300008C0EE24E39410E000E020E061E082E1C9
:1032400090E00E94B01481E08093BD031092970833
:1032500010929808CF911F910F91EF900895EE244E
:10326000E39410E000E020E061E083E190E0E9CF4A
:10327000EE24E39410E000E020E061E084E190E0DF
:10328000E0CF8091D6098823F1F280910F02882344
:1032900019F082EC0E94F86CEE24E39410E000E058
:1032A00020E040915B0760E0B4CF80E00E94246D95
:1032B0000E943314CF911F910F91EF900C9426161A
:1032C000EF920F931F930E94F10E1092010910923A
:1032D000020910920B0810920C0811988091A20319
:1032E000811102C00E94500C0E94670F82508230F0
:1032F00048F58CE491E00E94AD13EE24E39410E0D5
:1033000000E020E040915B0760E08CE491E00E94E7
:10331000B01490911A0A8091150A981739F00E94FA
:10332000670F8450823010F40E94DB161092DB038A
:103330001092DA0381E0809381031F910F91EF9047
:103340000C94760C89E491E00E94AD13EE24E39492
:1033500010E000E020E040915B0760E089E491E04C
:103360000E94B01481E00E941C17D3CFEF920F93FC
:103370001F93CF93C82F8091100290911102019753
:1033800009F06EC080E190E09093170280931602DE
:103390008BEF90E00E94AD138091DC039091DD03F0
:1033A000029709F49BC08091AD0381110BC08091FD
:1033B0000A0B823009F057C08091E408811102C0E5
:1033C0000E94760C809102018062809302014091FC
:1033D00018025091190270E060E08CEE9AE00E94B1
:1033E0000BA881E00E94A06D1092AB081092AC086F
:1033F0001092A1081092A2088091AD0381116EC0B5
:103400000E94670F8230D9F1833009F46CC080913B
:10341000DF03882309F493C089E491E00E94AD138F
:10342000EE24E39410E000E020E040915B0760E0D0
:1034300089E491E00E94B01481E00E941C179091F1
:103440001A0A8091150A981709F448C08091AD03B3
:10345000811144C0CF911F910F91EF900C94DB1616
:1034600086E090E091CF0E94760C90911A0A8091AC
:10347000150A9813A7CF81E080938203A3CF8CE431
:1034800091E00E94AD1389E491E00E94AD13809118
:10349000D803EE24E39410E000E020E040915B07C5
:1034A00060E08823B9F08CE491E00E94B014809130
:1034B0000F02882399F08091D803882379F08091B6
:1034C000AC0381110BC085EBCF911F910F91EF9051
:1034D0000C94F86C89E491E00E94B014CF911F9194
:1034E0000F91EF9008958CE491E00E94AD138DE46C
:1034F00091E00E94AD138091D803EE24E39410E094
:1035000000E020E040915B0760E0882331F090917B
:103510001A0A8091150A9813C6CF8DE491E00E9493
:10352000B01480910F028823C9F28091D8038823B8
:10353000A9F28091AC038111D1CF8BECC5CF9091D2
:103540001A0A8091150A981377CFCC2309F474CF07
:1035500089E491E00E94AD13EE24E39410E000E0D2
:1035600020E040915B0760E089E491E00E94B014A4
:1035700084EB0E94F86C60CFEF920F931F938091C1
:1035800004028823E1F0109204028DE590E00E948D
:10359000AD138CE590E00E94AD13EE24E39410E0AF
:1035A00000E020E040915B0760E08DE590E00E9444
:1035B000B0148EE21F910F91EF900C94F86C81E0A3
:1035C000809304028DE590E00E94AD138CE590E0BD
:1035D0000E94AD13EE24E39410E000E020E040915F
:1035E0005B0760E08CE590E00E94B0148FE2E2CFD0
:1035F000EF920F931F9360910D0B70E08AE00E9491
:10360000AC6C8091DA039091DB038630910509F46C
:1036100054C00897029708F450C08091DC03909141
:10362000DD03019709F049C086E090E00E94AD13E8
:1036300080E390E00E94AD1385E490E00E94AD131A
:1036400086E490E00E94AD138EE390E00E94AD13FB
:103650008091DF03882361F083E991E00E94AD133C
:1036600084E991E00E94AD1387E491E00E94AD13DC
:1036700080910D0B833009F499C0B0F5813009F4C5
:1036800047C0823009F46BC0EE24E39410E000E000
:1036900020E040915B0760E086E090E00E94B0147B
:1036A0001092B90384E68093150245E050E060E093
:1036B00070E085E898E00E940BA880918E049091BC
:1036C0008F040197029740F480910D0B833009F02D
:1036D000A4C080E00E94129810923308109234081F
:1036E0001F910F91EF900895853009F486C08630C0
:1036F00059F68091DF03882399F2EE24E39410E0D9
:1037000000E020E040915B0760E088E991E0C6CFEF
:10371000EE24E39410E000E020E040915B0760E0DD
:1037200085E490E00E94B0148091DF03882309F4BF
:10373000B7CF8091DC039091DD03019709F0B0CF02
:1037400090911A0A8091150A9813AACF00ED17E0FC
:1037500021E040915B0761E084E991E09FCFEE2496
:10376000E39410E000E020E040915B0760E080E33C
:1037700090E00E94B0148091DF03882309F490CF79
:103780008091DC039091DD03019709F089CF90913E
:103790001A0A8091150A981383CF0CEB12E021E0EE
:1037A00040915B0761E083E991E078CFEE24E394F8
:1037B00010E000E020E040915B0760E086E490E0EC
:1037C0000E94B0148091DF03882309F469CF8091AF
:1037D000DC039091DD03019709F062CF90911A0A02
:1037E0008091150A98135CCF02EE14E021E040911D
:1037F0005B0761E087E491E051CF8091DF0388238C
:1038000009F44ECFEE24E39410E000E020E0409174
:103810005B0760E087E991E041CF81E05BCFEF9209
:103820000F931F9388E290E00E94AD13EE24E3947F
:1038300010E000E020E040915B0760E088E290E06B
:103840000E94B01488E590E00E94AD1385E690E0F8
:103850000E94AD1389E590E00E94AD1390910A0B90
:103860008091120B923019F1833009F581E0809339
:103870000A0B1092120B1092130B70E060E084EEB2
:103880000E94AC6C20E040915B0760E089E590E02D
:103890000E94B0148BE20E94F86C80E00E94EF98C6
:1038A0008823B1F11F910F91EF900C94F81A813099
:1038B000D1F483E08093120B913011F48093130BB9
:1038C00062E070E084EE0E94AC6CEE24E39410E0C1
:1038D00000E020E040915B0760E085E690E00E9418
:1038E000B01483E2D8CF0E94C69861E070E084EE05
:1038F0000E94AC6CEE24E39410E000E020E04091E4
:103900005B0760E088E590E00E94B01482E2C3CFDC
:103910001F910F91EF9008959091120B80910A0BD7
:10392000823091F4911107C00E94C69861E070E066
:1039300084EE0E94AC6C80E00E94EF98882339F0FE
:103940000E94F81A80E003C081E09111FBCF089536
:10395000EF92FF920F931F93CF93DF93CDB7DEB714
:10396000AA970FB6F894DEBF0FBECDBF8CEF9FE0D5
:103970000E9416B88FA38DEF9FE00E9416B888A70B
:103980008EEF9FE00E9416B889A78FEF9FE00E94FC
:1039900016B88AA70E9432070FA118A529A53AA533
:1039A000601771078207930709F0A5C2CE0101963F
:1039B0007C0110E000E0C8010E9416B8F701819375
:1039C0007F010F5F1F4F0E311105A9F789818230EA
:1039D00071F40E94C6988A81823049F483E0809312
:1039E000120B90910A0B913011F48093130B8B8181
:1039F000815087FF80930F0B8C819FEF980F983039
:103A000090F48093BE030E94EF9880910D0B833059
:103A100051F480918E0490918F040197029718F4CD
:103A200080E00E9412989D818FEF890F823030F4E0
:103A300081E0923008F480E0809304029E818FEF51
:103A4000890F823030F481E0923008F480E0809376
:103A500005029F818FEF890F823030F481E0923030
:103A600008F480E080930F0298858FEF890F8230F1
:103A700030F481E0923008F480E080930902998567
:103A80008FEF890F823030F481E0923008F480E0CB
:103A90008093A0039A858FEF890F823030F481E004
:103AA000923008F480E080939E038B859FEF980FFF
:103AB000933050F4823009F486C1833009F48EC10A
:103AC00010929D0310929C038C859FEF980F93306A
:103AD00050F4823009F48BC1833009F493C1109201
:103AE0009903109298039D858FEF890F823030F4EF
:103AF00081E0923008F480E08093A2038E859FEFEE
:103B0000980F953050F4833009F490C108F083C1C8
:103B1000823009F487C110929F038F859FEF980F21
:103B2000953050F4823009F485C1843009F489C19C
:103B3000109297031092960388899FEF980F923006
:103B400050F49091DF03992331F0823009F47CC165
:103B500081E00E941C9999898FEF890F823030F49F
:103B600081E0923008F480E0809306029A899150B7
:103B70009536D8F490935F0280915F072DED3FEF6B
:103B8000281B310987FD3395929FA001939F500D0B
:103B90001124CA016CE97FEF0E94CDB86352609393
:103BA0005D0760935C0760935E072B898FEF820F40
:103BB0008C3378F448EE53E0249FC001259F900D8C
:103BC000112490936102809360029093EF08809398
:103BD000EE082C898FEF820F8C3378F448EE53E097
:103BE000249FC001259F900D112490936302809320
:103BF00062029093ED088093EC082D898FEF820F7D
:103C00008C3378F448EE53E0249FC001259F900D3B
:103C1000112490936502809364029093EB08809343
:103C2000EA082E898FEF820F8C3378F448EE53E048
:103C3000249FC001259F900D1124909367028093CB
:103C400066029093E9088093E8082F898FEF820F2E
:103C50008C3378F448EE53E0249FC001259F900DEB
:103C6000112490936902809368029093E7088093EF
:103C7000E608988D8FEF890F823030F481E0923022
:103C800008F480E080936A02998D8FEF890F82306B
:103C900030F481E0923008F480E08093F0089A8D4F
:103CA0008FEF890F823030F481E0923008F480E0A9
:103CB0008093F1089B8D8FEF890F823030F481E083
:103CC000923008F480E08093F2089C8D8FEF890F8A
:103CD000823030F481E0923008F480E08093F8087C
:103CE0008D8D9FEF980F933050F4823009F4AEC061
:103CF000833009F4B2C010929B0310929A038E8D08
:103D00009FEF980F9430A0F4823009F4ABC0833059
:103D100009F4ABC0813009F4ABC084E080930802A1
:103D20008091DF03882309F49BC083E08093150B07
:103D30000E94FC6C0E940E6D7E01FFE1EF0EF11CF3
:103D40000EE110E0C8010E9416B8F70181937F01CF
:103D50000F5F1F4F06321105A9F78F8D9FEF980F48
:103D60009E3F10F48093130288A19FEF980F9E3F0F
:103D700010F48093120299A18FEF890F823030F4F2
:103D800081E0923008F480E080930B028AA18230B7
:103D900031F0853021F0982F9D7F903359F4809336
:103DA0000D02853029F0803319F0823009F063C0AC
:103DB00080930E028BA18C3109F464C08E3109F01E
:103DC0006BC08EE160C0109211021092100281E06F
:103DD00090E090939D0380939C0376CE81E090E0E9
:103DE000909311028093100282E090E0F2CF109243
:103DF000AA031092A90381E090E090939903809325
:103E0000980371CE81E090E09093AA038093A90378
:103E100082E090E0F2CF843059F0853009F07BCE1B
:103E200084E001C081E080939F0377CE82E0FBCFE6
:103E300083E0F9CF81E090E090939703809396031D
:103E40007BCE82E090E0F8CF82E083CE81E090E00C
:103E500090939B0380939A0352CF82E090E0F8CF37
:103E600082E064CF91E090930702809308025ECFD6
:103E700080930702FACF82E380930E0280E380935F
:103E80000D0298CF8CE180930C029091DE039D7F10
:103E90009C3111F48093DE039CA18FEF890F823057
:103EA00030F481E0923008F480E080937D049DA19D
:103EB0008FEF890F823030F481E0923008F480E097
:103EC00080930A029EA18FEF890F823080F581E0F6
:103ED000923008F480E08093A103AA960FB6F8947C
:103EE000DEBF0FBECDBFDF91CF911F910F91FF902D
:103EF000EF900C94DB11EE24E39410E000E020E05E
:103F000040915B0760E08FE591E00E94B0140E9451
:103F10003F11AA960FB6F894DEBF0FBECDBFDF915A
:103F2000CF911F910F91FF90EF900C94B211AA9630
:103F30000FB6F894DEBF0FBECDBFDF91CF911F91BA
:103F40000F91FF90EF900895EF920F931F93809140
:103F50005E02853020F510925E0280E490E00E94BF
:103F6000AD13EE24E39410E000E020E040915E0702
:103F700060E080E490E00E94B01480915E0226E44C
:103F8000829FC001112464E670E00E94CDB866549F
:103F900060935B071F910F91EF900C94091285506D
:103FA00080935E02EACFEF920F931F9380915E029F
:103FB000803628F184E680935E0280E490E00E94DF
:103FC000AD13EE24E39410E000E020E040915B07A5
:103FD00060E080E490E00E94B01480915E0226E4EC
:103FE000829FC001112464E670E00E94CDB866543F
:103FF00060935B071F910F91EF900C9409128B5FF8
:1040000080935E02EACFEF920F931F93CF93C82F56
:1040100080918E0490918F040197039738F48091DA
:104020005E07082E000C990B0E94EE97C11126C066
:104030008091DC039091DD03892B01F580E490E011
:104040000E94AD13EE24E39410E000E020E04091E4
:104050005B0760E080E490E00E94B01480915F0212
:10406000823361F48FE390E00E94AD1320E0409131
:104070005B0760E08FE390E00E94B014CF911F9146
:104080000F91EF900895362F90910E02292F2D7FDA
:1040900062E0203309F46FEF8D3108F025C0E82F7E
:1040A000F0E08827E95AFF4D8F4F0C94E1B86A2160
:1040B0007420962099209C209E20A120A320A62039
:1040C000A920AC20AF20B220B520B820C520BB204D
:1040D000C820CB20CE20D120D420E120E420E7202E
:1040E000122135214F21912090E024E6522F550FC7
:1040F000550F550F85E5752F789F070E70E0711DE0
:104100001124E22FE074622F607227FD3AC1E111A1
:1041100026C16111E2C0872F8095272F782F80E07C
:10412000E0C09091120220911302E0CF97EB24E2BD
:10413000DDCF9FEF24EFDACF90E8FCCF9FEF20E0B8
:10414000D5CF90ECFCCF9FEF25E0D0CF9FEF2AE0BA
:10415000CDCF9FEF2FE0CACF9FEF24E1C7CF9FEFD6
:1041600020E2C4CF90E82BE2C1CF9FEF20E4BECF86
:104170009FEF20E5BBCF632F70E08FEF90E00E94B0
:10418000CDB8362F3795332737959FEF20E6AECF42
:1041900098E720E7ABCF9FEF20E8A8CF9FEF21E97A
:1041A000A5CF9FEF20EAA2CF632F70E08FEF90E0C2
:1041B0000E94CDB830E7639F302D112498EC2AEA95
:1041C00095CF9FEF24EB92CF9FEF20EC8FCF809184
:1041D0007E03882321F0803611F010927E03E09157
:1041E000DA03F091DB03EF2B19F4953009F462E365
:1041F000809100028F5F809300020E949FB891110E
:104200000DC080917E03811104C080E680937E03FF
:1042100002C010927E0381E08093000220917E0311
:104220009FEF64CF80917E038F3029F0823D19F09B
:104230008FE080937E03E091DA03F091DB03EF2BB4
:1042400019F4953009F462E3809100028F5F809346
:1042500000020E949FB89111E1CF80917E038F30C0
:1042600011F482EDD3CF8FE0D1CF809100028F5F28
:10427000809300020E949FB891110DC080917E032F
:1042800090E005966FEF70E00E94CDB880937E03BA
:1042900081E08093000220917E0390E827CF8091F7
:1042A000DA039091DB03892B19F4203309F464E1DC
:1042B000809100028F5F809300020E949FB891114D
:1042C000ADCF80917E0390E005966FEF70E00E9485
:1042D000CDB89CCF30E090E032CF25E5270F80E0CD
:1042E0007BEA9F3FF1F0992309F46AC0909550E072
:1042F000992329F0999F512D112491115F5F952FDA
:104300009095799F070E70E0711D299F020E20E0A5
:10431000211D899F080E80E0811D1124750F250F36
:10432000850F3F3FB9F090E0332321F0339F912D6B
:1043300009F09F5F992309F447C0799F070E70E049
:10434000711D299F020E20E0211D899F080E80E02B
:10435000811D1124442309F43BC0622F089561118B
:104360000AC02AEA529F050E50E0511D11248BEA23
:10437000851B270FD3CE80E0272F2095872F70E055
:10438000B0CFE11111C061110BC0852F2AEA829FC5
:10439000080E80E0811D11242BEA281B8B5AEFCFD9
:1043A000872F809520E09DCF611106C025E5270F5E
:1043B0008BEA871B722FF6CF2AEA270F50E0F9CF3E
:1043C0008FEF2FEF7FEFADCF80E020E070E0C2CF26
:1043D000672F722F0895962F642F903329F0923310
:1043E00019F041E0923009F440E00C9443201F930F
:1043F000CF93DF9310E080910D02181750F5609174
:104400000E02E12FF0E0603379F0623321F4E653DD
:10441000F64FE491F0E0EF01CC0FDD1FCE0FDF1F70
:10442000C052DC4F4FEF0DC0E656F64FE491F0E07E
:10443000EF01CC0FDD1FCE0FDF1FC052DC4F4FEF5F
:1044400060E380E00E94EB21688379838A831F5FA9
:10445000D2CFDF91CF911F91089580910E028033CA
:10446000D1F0823319F54FEF62E380E00E94EB2137
:1044700060934C0470934D0480934E044FEF609111
:104480000E0280E00E94EB2160934F047093500471
:10449000809351040BC04FEF60E380E00E94EB215A
:1044A00060930404709305048093060412980895A1
:1044B0008091DE038D7F8C31D1F40E94F10E0E9439
:1044C000E6070E942D2210928D0310928B0380919B
:1044D0007C04882321F080917A04882361F040E6EF
:1044E0005AEE60E070E08BED97E00C940BA880E052
:1044F0000E945408E4CF0895E3E5F8E010861186A1
:10450000EBE7F8E010861186EDE5F8E010861186FD
:10451000E7E6F8E010861186E1E7F8E010861186FC
:10452000E5E8F8E0108611861092A5031092BB030F
:104530001092B90384E6809315020E94F7210C942F
:104540002D22EF920F931F93CF9310920B0910928D
:104550000C0987E00E94F86C1092DB031092DA03DA
:104560001092AB0310928E0310928C031092DA0813
:104570001092DB081092B5081092B60810928A03C8
:1045800020911002309111028091100B8150809384
:104590008D0310928B032130310509F099C0809171
:1045A000A9039091AA03019709F087C00E94EA0B22
:1045B0000E94CE0A1092830810928408109251082B
:1045C0001092520810923D0810923E0840E050E0D0
:1045D000BA0187E698E00E940BA80E942D220E9453
:1045E0007D0F0E94C91310928903109288031092C4
:1045F000B8031092FE0A1092FF0A80910D0B8230D0
:1046000009F4FFC0833009F410C1813009F403C1FB
:104610000E94A60F833009F49CC0853009F4EDC0D8
:10462000823009F0BDC08091100B853009F464C060
:104630008FE398E00E9495A7E12C10E000E0683835
:1046400073418105910508F4A4C08FE398E00E94AE
:1046500095A7E12C10E000E06031774281059105DB
:1046600008F043C020E040915B0760E08AE090E002
:104670000E94B01480910D0B823009F448C1833040
:1046800009F400C1813009F449C1C091100B0E94A6
:10469000A60FC150C43008F024C1833009F4CAC049
:1046A000853009F41BC1823009F015C18DE791E016
:1046B0000E94AD138EE791E0C3C00E94F10E85E029
:1046C00090E090931702809316020E94760C72CFAE
:1046D0000E94F10E83E090E09093170280931602FF
:1046E0008091AD03811166CFF0CF20E040915B0750
:1046F00060E080E891E0BCCF8FE398E00E9495A74E
:10470000683873418105910550F4E12C10E000E018
:1047100020E040915B0760E088E891E0A9CF8FE35B
:1047200098E00E9495A7E12C10E000E0603177420C
:104730008105910538F420E040915B0760E08BE84B
:1047400091E096CF20E040915B0760E08AE891E03D
:104750008FCF8FE398E00E9495A768387341810559
:10476000910550F4E12C10E000E020E040915B075F
:1047700060E08BE090E07CCF8FE398E00E9495A70B
:10478000E12C10E000E0603177428105910508F0EE
:1047900069CF20E040915B0760E087E490E068CF5C
:1047A0008FE398E00E9495A76838734181059105D1
:1047B00050F4E12C10E000E020E040915B0760E065
:1047C00083E891E055CF8FE398E00E9495A7E12C14
:1047D00010E000E0603177428105910538F420E077
:1047E00040915B0760E082E891E042CF20E0409199
:1047F0005B0760E081E891E03BCFE12C10E000E056
:10480000EECFE12C10E000E020E040915B0760E09B
:1048100085E390E02DCFE12C10E000E020E0409116
:104820005B0760E08BE390E023CF86E491E00E9499
:104830008F0720CF84E690E00E94AD1383E690E0DE
:104840000E94AD1380910502882321F089E090E059
:104850000E94AD1388E490E00E94AD1382E690E0E0
:104860000E94AD1380910D0B853021F483EA91E015
:104870000E94AD1380910D0B863021F484EA91E003
:104880000E94AD138091A403882301F180919603C7
:10489000909197038130910509F44DC0029709F07A
:1048A00044C08EE690E00E94AD138FE690E00E9437
:1048B000AD13E12C10E000E020E040915B0760E0E8
:1048C0008FE690E00E94B0141092A403CF911F9144
:1048D0000F91EF90089580E690E0EACE8FE491E0AA
:1048E000E7CE833059F0853079F0823051F487E893
:1048F00091E00E94AD1389E891E0A2CF81E690E0BB
:104900009FCF8BE990E09CCF8FE491E099CF83E338
:1049100090E00E94AD1384E390E0B2CF89E390E091
:104920000E94AD138AE390E0ABCF0E94A60F8250A5
:10493000823008F0B6CF80918E0490918F04039757
:1049400041F48AE490E00E94AD1389E490E00E9473
:10495000AD13E12C10E000E020E040915B0760E047
:1049600089E490E0AFCFEF920F931F93CF938091A4
:10497000DA039091DB03069731F460910D0B70E040
:104980008AE00E94AC6C0E94670F8250823008F46B
:104990009FC00E94D5138091DA039091DB030497A6
:1049A00021F080918503882361F083E490E00E94E8
:1049B000AD138FE390E00E94AD1384E490E00E9479
:1049C000AD1389E491E00E94AD138CE691E00E9462
:1049D000AD138091DA039091DB03C09185030797B3
:1049E00009F07FC0C11183C0C091AC03C1117FC069
:1049F0001092DD031092DC031092DB031092DA03B5
:104A00008091AB0381110E94A122809183038111C7
:104A10001092830380910F02882359F08CE40E9446
:104A2000F86CCC2319F083E50E94F86C8FEB0E94A0
:104A3000F86C0E9433140E94261681E00E94FD1338
:104A40000E941A0F8EE390E00E94AD1380910D0B2F
:104A5000823009F4E0C0833009F4E3C0813009F406
:104A6000DDC086E090E00E94AD131092A80381E0C3
:104A700080930302109201091092020910920B0810
:104A800010920C08109233081092340810922908E2
:104A900010922A081092AB081092AC081092A1084C
:104AA0001092A2088091DC039091DD03892B59F4C8
:104AB00080910A0B823009F0B7C00E94500C10920E
:104AC000A7031092A603CF911F910F91EF90089525
:104AD0008091BC0381115FCF8CE491E00E94AD1303
:104AE0005ACFC11196C08091AC03811189CF9091AA
:104AF0001A0A8091150A61E0981305C080910A0B8B
:104B0000813009F460E070E085E00E94AC6C1092A6
:104B1000DD031092DC031092DB031092DA03809124
:104B2000AC0381110E94B9138091AC03811107C0BD
:104B30008091AD03811103C080918D0881110E9485
:104B40007C22C091AD03C11127C00E94670F825023
:104B5000823020F580910A0B813009F055C0809198
:104B6000BC03811151C08091AC0381114DC0C09133
:104B7000DF03CC2309F448C08BEF90E00E94AD1313
:104B8000EE24E39410E000E020E040915B0760E059
:104B90008BEF90E00E94B014C0E036C08091BC035F
:104BA000811117C0C091AC03C11131C08091DA03EB
:104BB0009091DB03049769F0EE24E39410E000E0A9
:104BC00020E040915B0760E081E990E00E94B01432
:104BD000C1E08091AC03811117C080910F0288233E
:104BE00019F086EB0E94F86C81E190E00E94AD1311
:104BF000EE24E39410E000E020E040915B0760E0E9
:104C000081E190E00E94B0141092AC03F9CEC0E0B4
:104C1000E0CFC0E0F5CE80E390E025CF85E490E0E2
:104C200022CF86E490E01FCF1092E4081092E508AE
:104C30001092B5081092B6080E9458223ECFEF920B
:104C40000F931F930E94B32482E090E09093DD03C2
:104C50008093DC0387E090E09093DB038093DA039A
:104C60008091AC03811141C040E456E060E070E007
:104C700083EA98E00E940BA840E951E060E070E010
:104C800089E998E00E940BA840E951E060E070E0FB
:104C900083E098E00E940BA880910F02882331F0F6
:104CA00089EB0E94F86C88EB0E94F86CE12C10E014
:104CB00000E020E040915B0760E083E490E00E9428
:104CC000B01420E040915B0760E08FE390E00E9429
:104CD000B01420E040915B0760E084E490E00E9423
:104CE000B0141F910F91EF9008951F910F91EF90C5
:104CF0000C94B913EF920F931F93CF931092A803C4
:104D00001092AC0381E0809303021092E3071092AB
:104D1000E40790910A0B923079F581E090E090934E
:104D2000DD038093DC031092DB031092DA038091A1
:104D3000600A811117C080910F02882319F08BEB54
:104D40000E94F86C8CEF90E00E94AD13EE24E39487
:104D500010E000E020E040915B0760E08CEF90E025
:104D60000E94B01484E00E94F86C80E0CF911F9103
:104D70000F91EF900C94B6192091D5099091D0091C
:104D800029130BC09091A003992339F080938503D8
:104D90000E941F26C0E08C2FE9CF81E090E0909325
:104DA000DD038093DC031092DB031092DA03C091E1
:104DB000D80384E00E94F86CEECFEF920F931F931C
:104DC0008091DA039091DB03039729F48091AB0380
:104DD00081110E94A12284E090E09093DB038093F4
:104DE000DA038091DF03882341F04CEA5DE060E064
:104DF00070E089EF98E00E940BA80E9433140E9493
:104E0000261681E00E94FD138091A203882309F4F5
:104E100060C01092E4081092E5080E94F10E8091A3
:104E20000F02882331F088EB0E94F86C89EB0E9416
:104E3000F86C40E951E060E070E083E098E00E94A7
:104E40000BA8E12C10E000E020E040915B0760E05F
:104E500083E490E00E94B01420E040915B0760E0A2
:104E60008FE390E00E94B01420E040915B0760E087
:104E700084E490E00E94B01440E951E060E070E00A
:104E80008FEE97E00E940BA840E456E060E070E0EF
:104E900085EE97E00E940BA880910F02882319F0FD
:104EA00086EB0E94F86C81E190E00E94AD13EE2445
:104EB000E39410E000E020E040915B0760E081E1D6
:104EC00090E00E94B0148BE01F910F91EF900C9432
:104ED000F86C0E94BC0EE0CFEF920F931F93CF931C
:104EE000DF938091DA039091DB03AC0144505109C8
:104EF00030915F0A20915A0A4330510508F452C399
:104F00004091AD0341114EC3321761F081E090E052
:104F10009093DB038093DA03DF91CF911F910F9180
:104F2000EF9008958091A803833008F4F9C081E0E0
:104F30008093AC030E941F2680910D0B813009F4F1
:104F4000BFC0823009F4B9C00E94A60F833009F4B3
:104F50009BC0853009F4AEC0823009F0A0C08091BA
:104F6000100B853009F485C08AE090E00E94AD13F3
:104F700087E490E00E94AD1380E891E00E94AD13B9
:104F800089E490E00E94AD138AE490E00E94AD13A2
:104F90008FE690E00E94AD138EE690E00E94AD1384
:104FA0000E9423070E94A60FC8EBDBE0853091F436
:104FB0000E94AE0F882361F0EE24E39410E000E03D
:104FC00020E040915B0760E08DEB91E00E94B0141F
:104FD000C0E7D7E18091100B823009F47FC008F060
:104FE00072C0813011F0C053D84FAE0170E060E064
:104FF00089EF97E00E940BA8BE0188E00E94AC6C8C
:105000000E94A60F853009F06CC0EE24E39404ECF6
:1050100019E021E040915B0761E084E991E00E94A2
:10502000B01480910902882309F476CF80910A0B8D
:10503000813009F071CF9091D5098091D0099817EE
:1050400009F46ACF90911A0A8091150A981364CFD7
:1050500080910402882309F45FCF8091A90A8823F4
:1050600009F494C2DF91CF911F910F91EF900C94AE
:10507000E9AA88E891E00E94AD138BE891E00E94D4
:10508000AD138AE891E07ACF8BE090E00E94AD13F7
:1050900087E490E00E94AD138AE090E06FCF81E852
:1050A00091E00E94AD1382E891E00E94AD1383E885
:1050B00091E064CF82E891E061CF85E390E06ECF2C
:1050C0008BE390E06BCF833031F0843009F08BCFED
:1050D000C452DA4F8ACFC851DC4F87CFCC50DE4F55
:1050E00084CF80910F02882331F087EB0E94F86C07
:1050F00083EC0E94F86CEE24E39410E000E020E0E2
:1051000040915B0760E08EE591E00E94B01404ECF2
:1051100019E021E040915B0761E08BE691E07FCFF1
:10512000809184038823B1F08BE298E00E9495A7D8
:10513000672B682B692B71F4109284030E94670F10
:105140008250823038F48091DA039091DB03039728
:1051500009F010988091140B823079F19091D50963
:105160008091D009981329C090911A0A8091150A4C
:10517000981323C08AE79AE00E9421A6811106C0F5
:1051800086E699E00E9421A68823B9F080910F025B
:10519000882319F083ED0E94F86C8CE290E00E9465
:1051A000AD13EE24E39410E000E020E040915B07B3
:1051B00060E08CE290E00E94B0149091A40A80918B
:1051C0009F0A981346C09091D5098091D0099813F1
:1051D00040C090911A0A8091150A98133AC08091A4
:1051E000140B8230B1F5C0910D0BC13009F498C099
:1051F000C33009F4B6C089EF97E00E9495A7672BEA
:10520000682B692B51F41092A80348EE53E060E03C
:1052100070E089EF97E00E940BA880918E038111C6
:1052200005C08091A8038F5F8093A8038091A80395
:10523000833078F48091DA039091DB03039731F0A7
:1052400083E090E09093DB038093DA0381E0809326
:105250008E032091900990918B098091120B8D7F84
:10526000813009F4A0C080910D0B882321F03CEF20
:10527000380F343040F44091DA035091DB0343306F
:10528000510509F40FC12913CEC02091D509909181
:10529000D0092913C8C020911A0A9091150A291320
:1052A000C2C09091140B923009F0BDC0813041F022
:1052B00008F424C1823009F43CC1833009F0B3C042
:1052C00089EF97E00E9495A7672B682B692B51F413
:1052D0001092A80348EE53E060E070E089EF97E099
:1052E0000E940BA88091A80390918E03911103C096
:1052F0008F5F8093A8038091A803833008F093C048
:105300008091DA039091DB03039731F083E090E022
:105310009093DB038093DA0381E080938E0383C054
:1053200080918303811195CF8BE298E00E9495A72D
:10533000672B682B692B09F08CCF8091DA03909151
:10534000DB03039709F485CF48E552E060E070E0A5
:105350008BE298E00E940BA80E9463AAC09383038B
:1053600078CF80918303811174CF8BE298E00E9403
:1053700095A7672B682B692B09F06BCF8091DA0317
:105380009091DB03039709F464CF4AEF50E060E0AB
:1053900070E08BE298E00E940BA80E9463AA81E073
:1053A0008093830356CF29136CC09091D5098091C7
:1053B000D009981338C090911A0A8091150A981351
:1053C00032C08091140B823071F589EF97E00E9412
:1053D00095A7672B682B692B51F41092A80348EE10
:1053E00053E060E070E089EF97E00E940BA88091A5
:1053F0008C03811105C08091A8038F5F8093A8035F
:105400008091A803833078F48091DA039091DB03D4
:10541000039731F083E090E09093DB038093DA030D
:1054200081E080938C039091A40A80919F0A981345
:1054300048C09091900980918B09981709F4F1CD9B
:105440008091120B8111EDCD80910D0B813041F0D7
:1054500008F499C0823009F496C0833009F0E1CD98
:105460008091AB03882309F4DCCD80918E038823DF
:1054700009F4D7CD1092DB031092DA0310928E0359
:10548000D0CD80918E0381110AC08091DA03909172
:10549000DB03039721F41092DB031092DA031092DE
:1054A0008C03C1CF291709F4BBCF0E94AE0F88230C
:1054B00009F4B9CF9091A40A80919F0A981709F432
:1054C000AFCF80910D0B813009F45AC0833009F4BD
:1054D00057C08091AB03882309F4ABCF80918E0332
:1054E000882309F4A6CF80918C03811144C01092C7
:1054F000DB031092DA0310928E039BCF809183031B
:10550000811191CF8BE298E00E9495A7672B682BC1
:10551000692B09F088CF40ED57E060E070E08BE246
:1055200098E00E940BA80E9463AA81E08093830305
:105530007ACF80918303811176CF8091DA039091A5
:10554000DB03039709F46FCF80918403811110C0AE
:105550004EEE52E060E070E08BE298E00E940BA813
:105560000E9463AA809184038F5F80938403DDCFC0
:105570008230D8F6F5CF0E948C1C8111B8CFBBCFFA
:105580001092830356CF109283034BCD8091A60ACD
:10559000882309F4C1CCDF91CF911F910F91EF9037
:1055A0000C94DD263213B2CC892B09F0B5CC8AE7F6
:1055B0009AE00E9421A681110DC08091120B8D7F6F
:1055C000813009F0A9CC86E699E00E9421A68823C3
:1055D00009F4A2CC80918D0881119ECC90911A0A79
:1055E0008091150A981398CC9091D5098091D00993
:1055F000981392CC80910F02882319F087EB0E94B8
:10560000F86C8EE591E00E94AD13EE24E39410E077
:1056100000E020E040915B0760E08EE591E00E94B1
:10562000B014DF91CF911F910F91EF900C9423074D
:10563000CF93DF93D0910E02D03311F0D233F1F536
:105640000E94A60F9091AC038530F1F4911104C033
:105650008091AD03882351F080910D0B811136C0EC
:105660008091BF03811132C0CEE01BC08091A403A2
:10567000882321F08091BF038823B1F380910D0B23
:10568000823031F5C0E10DC0911120C09091AD0381
:1056900091111CC090910D0B9230D1F4C4E0833075
:1056A00089F7D033B9F44FEF60E38C2F0E94EB21E0
:1056B00060930404709305048093060480910D0B9D
:1056C000823009F0129ADF91CF910895CCE0E9CFB2
:1056D000C1E0E7CFD23391F74FEF62E38C2F0E9406
:1056E000EB2160934C0470934D0480934E044FEF74
:1056F00060910E028C2F0E94EB2160934F047093F7
:10570000500480935104DACF8091DE038C3109F488
:10571000EDC18E3109F07FC3E0918B03EF3008F0CB
:1057200010C4F0E08827E856F44D8F4F0C94E1B890
:10573000A72BCB2BF72B132C422C5E2C7A2C962CE0
:10574000B22CCE2CEA2C062D222D3E2D5A2D8EE089
:105750000E94E6060E9492988FE00E94E6060E9450
:10576000929880918B038F5F80938B0380918A0343
:1057700081110AC08DE00E94E6060E94749880E1C3
:105780000E94E6060E94749881E080938A030E943A
:10579000FE9C0C94182B8DE00E94E6060E949298C5
:1057A00080E10E94E6060E94929880918A038823F5
:1057B00071F08EE00E94E6060E9474988FE00E94CD
:1057C000E6060E94749880918B038F5F0DC08CE079
:1057D0000E94E6060E94749881E10E94E6060E94FB
:1057E000749880918B03815080938B03D0CF8CE091
:1057F0000E94E6060E94929881E10E94E6060E94BD
:10580000929880918A03882339F08DE00E94E60601
:105810000E94749880E1D3CF8BE00E94E6060E943C
:10582000749882E1DACF8BE00E94E6060E9492989B
:1058300082E10E94E6060E94929880918A03882362
:1058400071F08CE00E94E6060E94749881E10E944B
:10585000E6060E94749880918B038F5F0DC08AE0EA
:105860000E94E6060E94749883E10E94E6060E9468
:10587000749880918B03815080938B030E94FE9CCF
:105880000C942D228AE00E94E6060E94929883E101
:105890000E94E6060E94929880918A03882339F03C
:1058A0008BE00E94E6060E94749882E1D0CF89E0E6
:1058B0000E94E6060E94749884E1D7CF89E00E9496
:1058C000E6060E94929884E10E94E6060E94929861
:1058D00080918A03882339F08AE00E94E6060E94BC
:1058E000749883E16CCF88E00E94E6060E94749869
:1058F00085E173CF88E00E94E6060E94929885E1D8
:105900000E94E6060E94929880918A03882339F0CB
:1059100089E00E94E6060E94749884E150CF87E0F7
:105920000E94E6060E94749886E157CF87E00E94A5
:10593000E6060E94929886E10E94E6060E949298EE
:1059400080918A03882339F088E00E94E6060E944D
:10595000749885E17CCF86E00E94E6060E947498E8
:1059600087E183CF86E00E94E6060E94929887E155
:105970000E94E6060E94929880918A03882339F05B
:1059800087E00E94E6060E94749886E160CF85E079
:105990000E94E6060E94749888E167CF85E00E9425
:1059A000E6060E94929888E10E94E6060E9492987C
:1059B00080918A03882339F086E00E94E6060E94DF
:1059C000749887E1FCCE84E00E94E6060E947498F9
:1059D00089E103CF84E00E94E6060E94929889E163
:1059E0000E94E6060E94929880918A03882339F0EB
:1059F00085E00E94E6060E94749888E1E0CE83E08C
:105A00000E94E6060E9474988AE1E7CE83E00E9435
:105A1000E6060E9492988AE10E94E6060E94929809
:105A200080918A03882339F084E00E94E6060E9470
:105A3000749889E10CCF82E00E94E6060E94749877
:105A40008BE113CF82E00E94E6060E9492988BE1E0
:105A50000E94E6060E94929880918A03882339F07A
:105A600083E00E94E6060E9474988AE1F0CE81E00D
:105A70000E94E6060E9474988CE1F7CE81E00E94B5
:105A8000E6060E9492988CE10E94E6060E94929897
:105A900080918A03882339F082E00E94E6060E9402
:105AA00074988BE18CCE80E00E94E6060E94749888
:105AB0008DE193CE80E00E94E6060E9492988DE1EF
:105AC0000E94E6060E94929881E00E94E6060E94EB
:105AD00074988CE10E94E6060E94749880918B0372
