:100000000C9443060C9474060C9474060C947406B9
:100010000C9474060C9474060C9474060C94740678
:100020000C9474060C9474060C9474060C94740668
:100030000C9474060C9474060C9474060C94740658
:100040000C9474060C9474060C9474060C94740648
:100050000C9474060C9474060C9474060C941DA6EF
:100060000C9474060C94FAA70C94D0A70C94740604
:100070000C9474060C9474060C9474060C94740618
:100080000C9474060C9474060C9474060C94740608
:100090000C94A6A70C947CA70C9474060C9416AF31
:1000A0000C9474060C9474060C9474060C947406E8
:1000B0000C9474060C9474060C9474060C947406D8
:1000C0000C9474060C9474060C9474060C947406C8
:1000D0000C9474060C9474060C9452A70C9428A7E4
:1000E0000C94740605A84CCDB2D44EB93836A9028A
:1000F0000C50B9918688083CA6AAAA2ABE00000026
:10010000803F07634236B79BD8A71A39685618AEA6
:10011000BAAB558C1D3CB7CC5763BD6DEDFD753E3C
:10012000F6177231BF000000803F08000000BE9249
:100130002449123EABAAAA2ABECDCCCC4C3E00002C
:100140000080BEABAAAAAA3E00000000BF000000CB
:10015000803F0000000000084178D3BB4387D113E3
:100160003D190E3CC3BD4282AD2B3E68EC8276BE8B
:10017000D98FE1A93E4C80EFFFBE01C4FF7F3F0055
:10018000000000000C9483980C9491780C94ED6F0F
:100190000C9444AC0C94BD910C94FA950C94310ED3
:1001A0000C94F7900C946F780C9432A10C94FF2C63
:1001B0000C94FB2D0C94B3090C941D910C94959305
:1001C0000C94D0580C949F9A0C9446950C946152C0
:1001D0000C94F7920C945B2C0C94D4920C946C7746
:1001E0000C94023F0C943B980C946F2D0C94635527
:1001F0000C9469990C94A3770C94FD900C945291F3
:100200000C94D8900C9454980C94F1A00C94BC9538
:100210000C942A950C9478980C94EA900C94302BBA
:100220000C9436950C9417920C9441980C944F981A
:100230000C9454910C94568F0C94C2060C94932CED
:100240000C942BA50C940A960C945FA50C94280E84
:100250000C94D5920C94399A0C94B8060C94CC67F3
:100260000C9418910C94D8AA0C94E02A0C94DE906B
:100270000C944E520C9466B30C94ADA90C940F914F
:100280000C947E980C9488980C9405910C94368E5E
:100290000C94CEA40C94E7A00C94EB780C94778982
:1002A0000C94E6900C9461890C94DF2D0C94F49AD4
:1002B0000C94AAA00C944F700C94172E0C948CA93B
:1002C0000C94042B0C9451AA0C946F890C94E47731
:1002D0000C94FA780C94232C0C944E3A0C94CDA0E8
:1002E0000C944D980C9480980C9452520C9451702C
:1002F0000C943EA90C9481950C944C950C94917798
:100300000C94CC9A0C94B9670C94683F0C94379871
:100310000C944F8F0C94A9910C94AC060C943095CE
:100320000C94BAA90C9437AC0C94598F0C94569831
:100330000C94AA3C0C947B890C94CB910C94C3A094
:100340000C94BB060C94AFA00C9417A50C9455A963
:100350000C94DF950C94FAA90C94E5AB0C942B93B8
:100360000C940AA10C94FBA00C94DB950C94609562
:100370000C9403790C94A72D0C94A0A90C947C8A5E
:100380000C9453700C941EA10C94116C0C94459811
:100390000C946B950C941B2D0C9451980C9486091D
:1003A0000C9439A90C94332E0C941E990C94D79567
:1003B0000C94C1670C94BB8F0C94C5670C94119678
:1003C0000C9447890C94972B0C94E32C0C94E2909A
:1003D0000C94708A0C9401670C94150E0C944B9835
:1003E0000C9481090C94B8090C94CF2B0C94C17710
:1003F0000C9464A90C94BF950C94B3780C94523A65
:100400000C9444990C944B3A0C945C8A0C944C2BAD
:100410000C9448980C948D950C947D6C0C945A9384
:100420000C94772C0C94C92C0C94F3900C941F0E04
:100430000C947B2B0C943F980C94E4920C9435987C
:100440000C94EB2B0C94CEA90C9486980C946A8A8D
:100450000C94648F0C94E5A90C9401910C94B20651
:100460000C9431980C94F40D0C94B9A00C9433981E
:100470000C947B980C9403960C94ED900C9440B2E1
:100480000C94768A0C94372D0C9487A90C94856C67
:100490000C94F00D0C94EF980C945C8F0C94C05558
:1004A0000C946B890C9464920C94B32B0C948D6C0B
:1004B0000C943BAB0C94D90D0C94DDA00C947AAA4F
:1004C0000C949AAA0C943F2C0C94F20D0C943CA121
:1004D0000C9476950C94A2A00C94C6AB0C94199134
:1004E0000C94896C0C94EE0D0C9417780C94B8ACA9
:1004F0000C949A910C94D5A00C9473890C94B655D5
:100500000C94532D0C94072C0C94503A0C94ABABD8
:100510000C9485A90C940EAB0C948B6C0C9428A1B4
:100520000C940B910C9467890C94F1950C94589849
:100530000C94648A0C94FE920C94AFA90C94C32D75
:100540000C94F1A40C94D8780C94E7A40C9414A106
:100550000C9443980C94C3550C94C3670C94457841
:100560000C94BF670C949BA90C9413910C949995CF
:100570000C942E980C9476A90C94CC990C9409AAFE
:100580000C94876C0C944D700C9443700C94F7A4ED
:100590000C944B700C9474940C9499A90C94399805
:1005A0000C9453910C9499630C943C950C944C0EC0
:1005B0000C948B2D0C94BE06DDDFE9EFF3F6F9FB0E
:1005C000FDFE000102030405060708090A32002D9A
:1005D000280023001E0000190000140000000F0076
:1005E000000000000A000000000000000000056498
:1005F0005F5A55504B46413C3732002D28002300AE
:100600001E0000190000140000000F000000000090
:100610000A0000000000000000000532373C41469F
:100620004B50555A5F645761726E696E673A20434A
:10063000616C63756C61746564206D7573696320AA
:10064000636F756E742065786365656473206D6192
:1006500078696D756D20706F737369626C653B208E
:100660005344206361726420636F727275707469A1
:100670006F6E206C696B656C7921005761726E69D1
:100680006E673A20547261636B20636F756E7420DD
:10069000646F6573206E6F74206D6174636820668B
:1006A00069726D776172652120506C656173652098
:1006B00075706461746520746865206D6963726F1C
:1006C0005344206361726420736F756E64206566A5
:1006D00066656374732E005761726E696E673A20A7
:1006E00043616C63756C61746564206D75736963D7
:1006F00020636F756E742065786365656473206D23
:100700006178696D756D20706F737369626C653B9C
:10071000205344206361726420636F727275707439
:10072000696F6E206C696B656C7921005761726E20
:10073000696E673A20547261636B20636F756E74E3
:1007400020646F6573206E6F74206D617463682020
:100750006669726D776172652120506C65617365A1
:100760002075706461746520746865206D696372BA
:100770006F5344206361726420736F756E642065EB
:100780006666656374732E004E6F20417564696FF1
:1007900020446576696365005761726E696E673AD9
:1007A000205253505F53595354454D5F494E464F65
:1007B000206E6F74207265636569766564210055EB
:1007C00073696E6720574156205472696767657276
:1007D000005573696E6720475053746172204175EC
:1007E00064696F2056657273696F6E3A2000CED5CA
:1007F000DFE5E9ECEFF1F3F4F6F7F8F9FAFBFCFDCD
:10080000FEFF0045051525354434241404433323E5
:100810001303021222324241312111010010203013
:100820004040302010000111213141423222120299
:100830000313233343041424344435251505453765
:1008400038393A3B3B3A3938370010203001112112
:1008500031021222320313233304142434051525E4
:100860003506162636362616063525150534241483
:1008700004332313033222120231211101302010DC
:100880000000050B11171D00040B10161B000102C0
:10089000030405060708090A0B0C0D0E0F101112B0
:1008A000131415161718191A1B1C1D1E1F202122A0
:1008B00023302F2E2D2C2B2A292827262500010214
:1008C000030405060708090A0B0C0D0E0F10111280
:1008D000131415161718191A1B1C1D1E1F20212270
:1008E0002331302F2E2D2C2B2A29282726001918AA
:1008F00030011A172F021B162E031C152D041D1470
:100900002C051E132B061F122A072011290821105F
:100910002809220F270A230E260B240D250000008C
:1009200000000000000000000001010101010101C0
:100930000102020202020203030303040404040589
:100940000505050606060707070808080909090A34
:100950000A0B0B0B0C0C0D0D0E0E0F0F10101111BE
:1009600012121313141415151617171818191A1A2A
:100970001B1C1C1D1E1E1F20202122232324252674
:10098000262728292A2A2B2C2D2E2F2F303132339F
:10099000343536373838393A3B3C3D3E3F404142AA
:1009A0004344454647494A4B4C4D4E4F5051525493
:1009B00055565758595B5C5D5E5F6162636466675C
:1009C00068696B6C6D6F70717374757778797B7C07
:1009D0007E7F808283858688898B8C8E8F9192948E
:1009E0009597989A9B9D9EA0A2A3A5A6A8AAABADF9
:1009F000AFB0B2B4B5B7B9BABCBEC0C1C3C5C7C841
:100A0000CACCCECFD1D3D5D7D9DADCDEE0E2E4E66A
:100A1000E8E9EBEDEFF1F3F5F7F9FBFDFF4765745E
:100A200074696E672057616E6420507265666572E6
:100A3000656E6365730047657474696E6720536DF6
:100A40006F6B6520507265666572656E63657300D5
:100A5000536176696E672057616E642050726566D7
:100A60006572656E636573005061636B2053796EC8
:100A70006320456E64005061636B2053796E632080
:100A80005374617274005061636B2070726F746F85
:100A9000636F6C206D69736D6174636821005265CA
:100AA00063762E2053796E63205061796C6F616498
:100AB00000526563762E20536D6F6B6520436F6E19
:100AC00066696700526563762E2057616E64204325
:100AD0006F6E66696700526563762E204D6573738D
:100AE0006167653A2000526563762E20436F6D6D15
:100AF000616E643A2000000000006410B71DC82039
:100B00006E3BAC30D9269041DC76F4516B6B58616A
:100B1000B24D3C7105502083B8ED44930FF0E8A32B
:100B2000D6D68CB361CBB0C2649BD4D2D38678E2E4
:100B30000AA01CF2BDBD00002100240027002A00ED
:100B40002D003000330001010000040107010A01FB
:100B500000002200250028002B002E003100340068
:100B600002010000050108010B0100002000230024
:100B7000260029002C002F00320000010000030194
:100B80000601090105050505070508080808020210
:100B900002020A0A08080404040401010101010117
:100BA00001010303030303030303040707070C0CFA
:100BB0000C0C0C0C0C0C02020202060606060606C1
:100BC00006060B0B0B0B0B0B0B0B01021020200866
:100BD0000810204010204080020102010804020198
:100BE0000102040810204080804020100804020107
:100BF0008004020180402010080402010804020160
:100C000001020408102040800102040810204080E6
:100C100000000A0B02090C0D0E0807030401000076
:100C200000000000000000000000000000000000C4
:100C30000000000000000000000000001211100081
:100C400000000000000000000000000000000000A4
:100C50000000000000004552524F523A204E6F20D3
:100C600063616C6C6261636B20617661696C616267
:100C70006C6520666F72207061636B6574204944F7
:100C8000200066B340B211241FBECFEFD1E2DEBF19
:100C9000CDBF00E00CBF13E0A0E0B2E0E4EFF7E866
:100CA00001E00BBF02C007900D92AE34B107D9F737
:100CB0002DE0AEE4B3E001C01D92AF33B207E1F71F
:100CC00016E0C2E4D6E000E006C021970109802FBB
:100CD000FE010E9452BEC134D10780E00807A9F787
:100CE0000E94D9B70C94E8C30C9400009091AE0315
:100CF0009C3131F4E82FF0E0E957F74F84910895E3
:100D00009E3129F4E82FF0E0EF57F74FF7CF81E05D
:100D100008952091AE0390917103E82FF0E02C31FB
:100D200049F4992321F0EB59F74F84910895E75B3B
:100D3000F74FFBCF2E3141F4992319F0EF5DF74FB8
:100D4000F4CFED5FF74FF1CF992319F0EC5BF74F3C
:100D5000ECCFE15CF74FE9CF80917B038F5F80930D
:100D60007B03089580917A038F5F80937A030895BF
:100D700090E080E00895FC0164870895FC0184857B
:100D800090E00895FC0186859785089510928B0365
:100D900084E68093150210928C0345E050E060E0F9
:100DA00070E08EED97E00C94D2AE0F931F93CF932B
:100DB000DF9300D000D0CDB7DEB78FEF9FEFDC011F
:100DC00089839A83AB83BC8310E000E01E830D838C
:100DD000BE016B5F7F4FCE0101960E94A3A8BE01AA
:100DE0006A5F7F4FCE0101960E94A3A80F5F1F4F3D
:100DF0000732110559F78FE190E09E838D83BE0184
:100E00006B5F7F4FCE0101960E94A3A8BE016A5F6F
:100E10007F4FCE0101960E94A3A888E090E09E83B8
:100E20008D83BE016B5F7F4FCE0101960E94A3A808
:100E3000BE016A5F7F4FCE0101960E94A3A869811F
:100E40007A818B819C81609570958095909526968E
:100E50000FB6F894DEBF0FBECDBFDF91CF911F91CB
:100E60000F9108952091C2033091C303215031099D
:100E70002330310518F460E00C9436960895FF9203
:100E80000F931F93CF93DF93EC01F62E0881198106
:100E9000C8010E9487BDF81621F06F2DC8010E947D
:100EA0008FBDCE01DF91CF911F910F91FF900895DB
:100EB000EF92FF920F931F93CF93DF9300D000D058
:100EC000CDB7DEB70E94D50669837A838B839C8376
:100ED000CE0101967C010CEF1FE01E830D83F7010C
:100EE00061917F01CE0105960E943F070F5F1F4F62
:100EF0000115F0E11F0789F726960FB6F894DEBFBB
:100F00000FBECDBFDF91CF911F910F91FF90EF905A
:100F10000895E2E0F1E080818F7D808380818F7B86
:100F200080831098119880E00E94C36D80E00E9439
:100F30004A6DE4E3F7E01086118608952091AA0334
:100F40003091AB03A901435051094230510518F0CB
:100F50002630310511F4882399F19091690A209186
:100F60006A0A291303C0811118C008952917A8F42B
:100F700081E080935B034EE150E060E070E09230EE
:100F8000D9F070F449E150E060E070E09130A1F0F8
:100F90004CE350E060E070E00FC010925B03EBCFD9
:100FA00044E250E060E070E0933031F04DE250E018
:100FB00060E070E0943061F786E098E00C94D2AE87
:100FC00008956091690A70E086E091E00C941E79C2
:100FD000CF93C82F84E0C530F0F00E94890660E00E
:100FE0000E94C59F83E00E94890660E00E94C59F21
:100FF00082E00E94890660E00E94C59F81E00E9415
:10100000890660E00E94C59F80E00E94890660E03A
:10101000CF910C94C59F0E94890661E00E94C59FF4
:10102000C43001F383E00E94890661E00E94C59FFD
:10103000C330F1F282E00E94890661E00E94C59F00
:10104000C230E1F281E00E94890661E00E94C59F02
:10105000C111DACF80E00E94890661E0D9CFEF921A
:10106000FF920F931F93CF93DF938CE597E00E943D
:10107000A2AE882341F040E951E060E070E08CE5E9
:1010800097E00E94D2AE8091AE0310E08E3109F05D
:1010900012E08CE597E00E945CAE683C710581052A
:1010A000910508F0DFC0C091B503CC2391F0809189
:1010B000AA039091AB03069759F4809114028530EE
:1010C00039F4C1E08091810390918203892B09F06A
:1010D000C0E080916B0A8D7F813089F48091AA03F2
:1010E0009091AB03069759F480911402853039F43E
:1010F0008091810390918203019709F4C1E080916E
:101100001F028A3B69F48091AA039091AB03069772
:1011100039F4D1E08091810390918203892B09F009
:10112000D0E080916803882379F02091AA03309160
:10113000AB032630310541F42091810330918203C5
:101140002130310509F4D82F8091AE038C3169F13B
:1011500005E08E3159F180E0DD2309F47BC00E9467
:10116000890660E00E94C59F81E00E94890661E0D7
:101170000E94C59F82E00E94890661E00E94C59F8F
:1011800083E00E94890661E00E94C59F84E0CC2331
:1011900009F464C00E94890660E0DF91CF911F913D
:1011A0000F91FF90EF900C94C59F04E0CC2379F150
:1011B000C0E08EE190E07C01E11AF108CE151F0439
:1011C000ACF4CC2369F0DD2311F0C01710F0C93165
:1011D00038F08C2F0E9489060E941B9ECF5FEECFB5
:1011E0008C2F0E9489060E94FD9DF8CF8091AE034E
:1011F0008E3129F48DE10E9489060E94FD9DDF91C8
:10120000CF911F910F91FF90EF900C9487A2DD2357
:10121000C9F0C0E08EE190E07C01E11AF108CE1542
:101220001F046CF78C2FCC2341F0C01730F40E94C0
:1012300089060E941B9ECF5FF2CF0E9489060E9402
:10124000FD9DF9CFDF91CF911F910F91FF90EF900E
:101250000C947DA20E94890661E084CF0E948906D9
:1012600061E09BCF80911402833009F4BDC068F423
:10127000813009F40BC1823009F4E3C0DF91CF91D2
:101280001F910F91FF90EF900895843009F47BC077
:101290008530A1F78091AE038C3109F439C08E31CD
:1012A00009F068C0C1E08EE190E09C01211B31098A
:1012B0008901C01711060CF0A2CFEBEFEC0FE9315A
:1012C00000F5F0E08827E859F64F8F4F0C9452BE96
:1012D00086098609810981098109810986098609AA
:1012E00081098109810981098609860981098109A4
:1012F0008109810986098609810981098109810994
:1013000086098C2F0E9489060E941B9ECF5FD1CF39
:10131000C1E08EE190E09C01211B31098901C017D9
:1013200011060CF06CCFECEFEC0FE531E0F4F0E0DF
:101330008827E256F64F8F4F0C9452BEB809B80971
:10134000B809B309B309B309B809B809B809B309A9
:10135000B309B309B809B809B809B309B309B3099E
:10136000B809B809B8098C2F0E9489060E941B9EF3
:10137000CF5FD5CF85E0DF91CF911F910F91FF9087
:10138000EF900C94E8078091AE038C3149F18E31D7
:1013900049F5C1E0CD3038F48BEFCB3028F0CF5F8A
:1013A000C731C1F72CCF8FEE8C0F8230C0F38C2F5A
:1013B0000E9489060E941B9EF2CFCD3038F48CEF3C
:1013C000CA3028F0CF5FC631C1F719CF80EF8C0F3C
:1013D0008330C0F38C2F0E9489060E941B9EF2CF9F
:1013E000C1E0F8CF84E0C7CF8091AE038C3129F102
:1013F0008E3129F5C1E0C53030F0C73048F085EFB7
:101400008C0F823028F08C2F0E9489060E941B9E30
:10141000CF5FC13181F7F3CEC43030F0C73048F030
:1014200086EF8C0F833028F08C2F0E9489060E9453
:101430001B9ECF5FC03181F7E2CEC1E0F5CF83E0E4
:101440009ACF8091AE038C31E9F08E31E9F4C1E09E
:101450008BEF8C0F823028F08C2F0E9489060E941F
:101460001B9ECF5FCB30A1F7CACE8CEF8C0F8330A1
:1014700028F08C2F0E9489060E941B9ECF5FCA30E5
:10148000A1F7BDCEC1E0F5CF82E075CF8091AE036C
:101490008C3161F08E31A1F4C1E08C2F0E9489065D
:1014A0000E941B9ECF5FC530C1F7A9CEC1E08C2F33
:1014B0000E9489060E941B9ECF5FC430C1F79FCE59
:1014C00081E059CFEF92FF920F931F93CF93DF9359
:1014D00000D01F921F92CDB7DEB78091AE038D7FF3
:1014E0008C3109F0EAC086E098E00E94A2AE882321
:1014F00009F455C08091AE03F12C8E3111F082E0D9
:10150000F82E85E0E5E3F2E0DE01119601900D9200
:101510008A95E1F78091030290910402019731F4DA
:101520008AE089838A838B838C838D8380915C039B
:10153000282F30E00EE110E00F19110990915B03A4
:10154000992309F45CC02017310724F40E9489060E
:101550000E9492A28091690A9FEF980F9430F0F553
:101560000E94760690915C03981728F110925B0315
:1015700080910302909104024AE550E060E070E03F
:10158000019739F510920E0810920F0880915B03B5
:10159000882329F080915C038F5F80935C030F9018
:1015A0000F900F900F900F90DF91CF911F910F919F
:1015B000FF90EF900895E091690AEC0FFD2FF11D67
:1015C000408184E0489FA0011124052E000C660B89
:1015D000770B86E098E00E94D2AED8CF90915C0362
:1015E0009017110641F03CF010925B038EE18F19C9
:1015F00080935C03BDCFFE01E80FF11DE1CF201702
:10160000310724F40E9489060E948BA2F0905C03AB
:10161000F11016C081E080935B034AE550E060E082
:1016200070E086E098E00F900F900F900F900F9071
:10163000DF91CF911F910F91FF90EF900C94D2AE5C
:10164000FA94F0925C03EE24E3948091AE038E3121
:1016500009F4E12C8091690A20910302309104027F
:101660009FEF980F9430F8F42130310569F40E940F
:1016700076068E0D9927991FF81619062CF41092EC
:101680000E0810920F088BCFE091690AEC0FFD2F26
:10169000F11D408184E0489FA0011124052E000C1B
:1016A000660B770BBECF2130310519F4F016110609
:1016B00034F3FE01E80FF11DECCF8091690A82300E
:1016C000C9F020F4813041F085E007C08330A1F0FB
:1016D0008430D1F784E001C081E00F900F900F902B
:1016E0000F900F90DF91CF911F910F91FF90EF908E
:1016F0000C94E80782E0F1CF83E0EFCF0F931F93C4
:10170000CF93DF939091AE038091690A9C3169F089
:10171000D0E09E3159F0823009F452C008F042C046
:10172000813009F446C085E045C0D2E081502D2FBC
:1017300030E0C0E00EE110E0021B130B843018F51E
:10174000C01711069CF48091690A0E9476068C17D6
:1017500038F08C2F0E9489060E941B9ECF5FF0CF2D
:101760008C2F0E9489060E94FD9DF8CF0E9487A2BF
:101770008091690A0E94760680935C03DF91CF9185
:101780001F910F910895C01711063CF48C2F0E94F1
:1017900089060E941B9ECF5FF6CF0E9487A28EE132
:1017A0008D1BEACF833071F0843009F0BCCF84E028
:1017B00001C081E0DF91CF911F910F910C94E80758
:1017C00082E0F8CF83E0F6CF80910302909104028B
:1017D000019739F480E190E090931702809316020C
:1017E000089583E090E09093170280931602809111
:1017F000AA039091AB03049751F08091630A823061
:1018000079F78091AC039091AD03892B49F786E07D
:1018100090E0E2CFCF938091AE038C3109F0E5C028
:1018200080915C038C3118F1883308F040C097E355
:10183000981B892F2091AA033091AB0324303105E6
:1018400021F090917F039923A1F10E9489060E94C3
:101850008BA280915C03873309F0E8C010923D08A9
:1018600010923E0810925B0310925C0320C00E940D
:1018700089060E9492A280915C038F5F80935C0333
:101880008C3109F0EDC04AE550E060E070E085E39E
:1018900098E00E94D2AE80910302909104020197D9
:1018A00031F488E090E09093170280931602CF9174
:1018B000089520910302309104029091690A9530B5
:1018C00018F42130310511F0232B21F40E948906F0
:1018D0000E948BA280910302909104020097E9F08C
:1018E000019729F780915C039091690A923009F47D
:1018F0005EC058F5913009F467C08733B1F5109296
:101900000E0810920F0810923D0810923E08109297
:101910005B038BE180935C0315C080915C0387338C
:10192000D9F54AE550E060E070E086E098E00E947A
:10193000D2AE10923D0810923E0881E080935B0386
:1019400010925C03CF910C94E40B9330C9F0943067
:10195000A1F6803241F410923D0810923E08109298
:101960005B0386E1D7CF8132B8F010923D08109228
:101970003E0891E090935B0397E3981B892FCACFB1
:10198000863241F410923D0810923E0810925B039B
:1019900080E1C0CF873248F740911602509117027C
:1019A000440F551F440F551F70E060E043C08B3259
:1019B00041F410923D0810923E0810925B038BE0B8
:1019C000A9CF8C3248F3D1CF823341F410923D0835
:1019D00010923E0810925B0384E09CCF8333E0F2C8
:1019E00010923D0810923E08C5CF8E3109F0C0C05C
:1019F00080915C038E3140F18C3308F058CF9BE32B
:101A0000981B892F2091AA033091AB032430310514
:101A100021F090917F03992391F10E9489060E9401
:101A20008BA280915C038B3309F418CF40E550E022
:101A300060E070E085E398E00E94D2AE80915C03A4
:101A40008F5F80935C0333CF0E9489060E9492A22D
:101A500080915C038F5F80935C038E3109F413CF18
:101A60004091160250911702440F551F440F551F05
:101A700070E060E085E398E0CF910C94D2AE2091C5
:101A80000302309104029091690A953018F42130D4
:101A9000310511F0232B21F40E9489060E948BA2AC
:101AA00080910302909104020097E1F0019709F000
:101AB000FECE80915C039091690A923009F440C097
:101AC000B8F4913009F442C08B3319F510920E0826
:101AD00010920F0810923D0810923E0810925B037E
:101AE0008DE118CF80915C038B3309F055CF19CF6E
:101AF0009330C1F0943041F7833241F410923D08A5
:101B000010923E0810925B0387E104CF843208F400
:101B100043CF10923D0810923E0891E090935B03F2
:101B20009BE32BCF893241F410923D0810923E087E
:101B300010925B0381E1EECE8A3208F42DCFE9CF1B
:101B40008F3209F436CF08F427CFE3CF853341F441
:101B500010923D0810923E0810925B0385E0DACEA9
:101B6000863308F419CF10923D0810923E08D6CF64
:101B70008091AA039091AB03049721F080917F0399
:101B8000C1E08111C2E0E0915E03EA3008F08FCE3F
:101B9000F0E08827E153F24F8F4F0C9452BED90DDD
:101BA000EE0DF00DF20DF40D150E1F0E280E310E78
:101BB0004C0E81E00E94E80788E7C89FA00111242D
:101BC000052E000C660B770B85E398E00E94D2AEE1
:101BD00080915E038F5F80935E0369CE82E0EACFDF
:101BE00083E0E8CF84E0E6CF85E00E94E8078091BB
:101BF0005E03282F30E02F5F3F4F9091690A9217C4
:101C0000130639F42091AA033091AB032430310537
:101C1000E1F58F5F80935E0388E7C89FA0011124E0
:101C2000052E000C660B770B25CF84E00E94E80799
:101C300080915E03482F4150550B9A01DECF83E01F
:101C40000E94E80780915E03482F4350550BF5CF63
:101C500082E00E94E80780915E03482F4550550BB3
:101C6000ECCF81E00E94E80780915E038750990BDA
:101C70002091690A2817190609F09ECF8091AA03BE
:101C80009091AB03049709F497CF10923D081092FE
:101C90003E0810925E030BCE80E00E94E807F5CF6D
:101CA0000F931F93CF938091AE0390E08E3109F094
:101CB00092E02EE1291B20935C0325E020935E0334
:101CC0008D7F8C31F1F4C0E00EE110E0091B1109A9
:101CD000C01711063CF48C2F0E9489060E941B9E9F
:101CE000CF5FF6CF0E9487A248E750E060E070E047
:101CF00085E398E00E94D2AECF911F910F910C9492
:101D00000A0C85E00E94E807EFCF8091AE038D7F3B
:101D10008C3121F40E947DA210925C0308950E94F0
:101D2000850E1092640710926507809175038111EA
:101D300012C00E94E40B8091AE038D7F8C3149F478
:101D40008091030290910402019719F480E00E94AF
:101D50009E070C940A0C0895E8E1FAE010861186BB
:101D60001092570370E060E08BE00C946AA0409101
:101D70006E0A4330F1F0909108029923D1F020913E
:101D8000AA033091AB032430310599F090917F0381
:101D900091110FC09091A803992359F0882349F01D
:101DA00090918207423081F42330310569F091111E
:101DB0000BC00C94AC0E8217D9F080935703682F98
:101DC00070E08BE00C946AA020915703992399F35B
:101DD000682F70E0660F771F6F3F710519F014F0E0
:101DE0006FEF70E02617170619F060935703E9CFDD
:101DF000089580917203823061F028F4813069F097
:101E00008091650A0895833031F08430C9F785E008
:101E1000089583E0089584E0089582E00895109283
:101E20000408109205081092FA071092FB0780919F
:101E3000790381110BC00E94F90E84508230A0F406
:101E40008091AC039091AD03019771F4109A0E94B8
:101E5000F90E8450823030F48091AC039091AD0340
:101E6000019721F0119808951098F1CF119A0895D3
:101E70008091AF0381110C94F90E8091650A089549
:101E80000E94380F853059F480919203811107C068
:101E90009091660A81E0992321F0973011F080E05B
:101EA000089508950F931F93CF93DF931F921F926E
:101EB000CDB7DEB710E000E01A8309836FEFCE01E3
:101EC00001960E943F070F5F1F4F0F311105A1F7C9
:101ED0000E9458070F900F90DF91CF911F910F91A3
:101EE0000895EF92FF920F931F93CF93DF9300D04B
:101EF00000D000D01F92CDB7DEB750910E024091B6
:101F00000D0280910C0231E0811132E080910B02D0
:101F100091E0811192E08091B70321E0811122E0EC
:101F20008091740381112FC081E060911302698355
:101F3000609112026A833B835C834D832E839F836F
:101F40008887CE0101967C010FE110E01A8709878E
:101F5000F70161917F01CE0109960E943F070F5F53
:101F60001F4F0732110591F70E9458072A960FB6A6
:101F7000F894DEBF0FBECDBFDF91CF911F910F91BF
:101F8000FF90EF90089582E0D0CF0F931F93CF93EF
:101F9000DF931F921F92CDB7DEB70FE110E01A83D7
:101FA00009836FEFCE0101960E943F070F5F1F4F1D
:101FB00007321105A1F70E9458070F900F90DF918B
:101FC000CF911F910F9108958091C2039091C30307
:101FD0000197039710F40C94AC960895CF93DF9378
:101FE000CDB7DEB764970FB6F894DEBF0FBECDBF96
:101FF0002091C2033091C3032150310922303105B1
:1020000080F4FE01319694E1DF011D929A95E9F783
:1020100095E0998381110EC083E18D83CF010E94E9
:10202000D19464960FB6F894DEBF0FBECDBFDF919A
:10203000CF91089582E1F1CF8091C2039091C303C3
:102040000197039708F03BC16091B606062E000C7D
:10205000770B8CE390E00E945F966091B606062EA7
:10206000000C770B8AE691E00E945F966091B606BD
:10207000062E000C770B81E290E00E945F96609143
:10208000B606062E000C770B8DE190E00E945F965D
:102090006091B606062E000C770B8EE190E00E9450
:1020A0005F966091B606062E000C770B8FE190E0EC
:1020B0000E945F966091B606062E000C770B80E2B8
:1020C00090E00E945F968091AF038823D1F08091C9
:1020D000660A823069F0833009F4DBC0813089F40C
:1020E0006091B606062E000C770B84E991E007C0DC
:1020F0006091B606062E000C770B83E991E00E94F2
:102100005F96809179038823B9F18091660A8230C5
:1021100009F4C7C0833081F16091B606062E000C29
:10212000770B813009F4C5C08EE791E00E945F967D
:102130006091B606062E000C770B89E891E00E94AC
:102140005F966091B606062E000C770B83E690E052
:102150000E945F966091B606062E000C770B88E40D
:1021600090E00E945F966091B606062E000C770BF9
:1021700082E690E00E945F9680917E03882371F052
:102180000E94380F6091B606062E000C770B853042
:1021900009F092C084E991E00E945F960E94F90ED6
:1021A0008450823008F08BC06091B606062E000C79
:1021B000770B8EE890E00E945F966091B606062E3F
:1021C000000C770B80E990E00E945F966091B60664
:1021D000062E000C770B8DE890E00E945F966091D0
:1021E000B606062E000C770B8FE890E00E945F96F3
:1021F0006091B606062E000C770B83E990E00E94F2
:102200005F966091B606062E000C770B81E990E090
:102210000E945F966091B606062E000C770B82E94D
:1022200090E00E945F966091B606062E000C770B38
:1022300084E990E00E945F966091B606062E000C3D
:10224000770B82E190E00E945F966091B606062EC1
:10225000000C770B83E190E00E945F966091B606D8
:10226000062E000C770B84E190E00E945F9660914F
:10227000B606062E000C770B85E190E00E945F9673
:102280006091B606062E000C770B86E190E00C9468
:102290005F966091B606062E000C770B87E491E0FE
:1022A0002ECF6091B606062E000C770B84E390E0EB
:1022B00061CF8AE390E05ECF8BE691E06DCF089529
:1022C000E82F80918E03882391F01E163CF40E2E89
:1022D000000CFF0BE55EF94F84910895EF3D94F0FB
:1022E000FF27E1950CF4F095E353FA4FF5CFE53D68
:1022F0004CF01E164CF0FF27E1950CF4F095E151DF
:10230000FA4FEACF80E0089584E608952F923F9235
:102310004F925F926F927F928F929F92AF92BF92F5
:10232000CF92DF92EF92FF920F931F93CF93DF93A1
:10233000CDB7DEB7A6970FB6F894DEBF0FBECDBF00
:102340008091B8060E946011682E80916B0A12E09D
:10235000813031F011E0833019F412E042E001C025
:1023600041E08091680AEE24E394E80EF090910336
:1023700080910502BB24B394882311F072E0B72E3C
:1023800080910602CC24C394882311F062E0C62E0B
:1023900080911002DD24D394882311F052E0D52ED1
:1023A00080910A0281110EC1E1E0EAA380917303DA
:1023B00081110BC1E1E0EBA38091710301E0811178
:1023C00002E08091750355245394882311F032E084
:1023D000532E8091630A44244394823011F422E006
:1023E000422E8091070233243394882311F092E027
:1023F000392E80918E0322242394882311F082E0C9
:10240000282E809120029091210228EE33E0B9011C
:102410000E942ABE762E8091220290912302B90159
:102420000E942ABE862E8091240290912502B90135
:102430000E942ABE962E8091260290912702B90111
:102440000E942ABEA62E8091280290912902B901ED
:102450000E942ABE80912A0271E0811172E080916F
:102460004908B1E08111B2E080914A088111B0C001
:1024700051E05CA380914B088111ADC091E09DA318
:10248000809151088111AAC0F1E0FEA380916F03F1
:102490009091700322E08130910521F023E00297B2
:1024A00009F021E080916B0390916C0381309105DC
:1024B00009F499C0029709F094C093E0E091720387
:1024C000E15081E0E43020F4F0E0E35CFD4F8081F6
:1024D000E0916903F0916A0332E0E130F10521F007
:1024E00034E0329709F031E0E4E651E0560DE615AC
:1024F00008F455E6E0916D03F0916E03A2E0E1303F
:10250000F10521F0A3E0329709F0A1E0E091090282
:10251000E150E33008F069C0F0E0E65CFD4FE08197
:1025200019834A83EB82FC82BD82CE82DF82FAA1CC
:10253000F8874BA149870A872B879C875D868E8702
:102540003F87488A398A2A8A5B8B7C8A8D8A9E8A51
:10255000AF8A688F798FBA8F5CA15B8F8DA18C8FCA
:102560009EA19D8FAE8FEF8FFE0131967F0110E00F
:1025700000E019A308A3F70161917F01CE018096C5
:102580000E943F070F5F1F4F0F31110591F70E9407
:102590005807A6960FB6F894DEBF0FBECDBFDF91E9
:1025A000CF911F910F91FF90EF90DF90CF90BF9050
:1025B000AF909F908F907F906F905F904F903F90E3
:1025C0002F900895F2E0FAA3F1CEF2E0FBA3F4CE4F
:1025D00082E08CA34FCFE2E0EDA352CF52E05EA3A6
:1025E00055CF91E06BCF92E069CFE4E099CF282FEF
:1025F000853608F024E6822F65E00E9410BE9923FC
:1026000061F0822F90E0029665E070E00E943EBE8D
:10261000862F880F880F282F260F822F65E00E94B3
:1026200010BEE82FF0E080918E03882321F0E8545B
:10263000FA4F84910895E251F84FFBCF8091B00397
:102640009091B103181619060CF067C08091B2037F
:102650009091B303843F21E0920708F45EC021E02B
:102660002093B6034091AF032091C2033091C3037E
:102670002230310599F12330310519F0213031052F
:1026800009F54423F9F02091B50361E0211101C05F
:1026900060E00E9436966091B506062E000C770B1E
:1026A0008091B2039091B3030E945F9661E08091A4
:1026B000B2039091B3030E9485960E94AC9681E08C
:1026C00080931E078091AF03882339F140E157E2E0
:1026D00060E070E089EB96E00C94D2AE442391F375
:1026E0002091B50361E0211101C060E00E9436969F
:1026F0006091B506062E000C770B8091B203909185
:10270000B3030E945F9650E040E061E08091B20325
:102710009091B3030E949797D0CF08952091C20360
:102720003091C303215031092330310510F40C944A
:10273000769C08958DEB91E00E948E1384E991E0E0
:102740000E948E138BE691E00E948E138CE691E03E
:102750000C948E130E94380F8250823020F08AE64B
:1027600091E00C948E138CE390E0FBCFE0E7F8E06F
:1027700010861186E6E6F8E0108611868DE890E076
:102780000E948E138EE890E00E948E138FE890E0F6
:102790000E948E1380E990E00E948E1381E990E000
:1027A0000E948E1382E990E00E948E1383E990E0EC
:1027B0000E948E1384E990E00C948E13CF93C82F5F
:1027C0008091690A813051F010F08430E0F08DE1A1
:1027D00090E00E948E1380E290E002C081E290E0DF
:1027E0000E948E13CC23F1F08091AF038823D1F0A7
:1027F0008091660A823071F0833089F0813091F4E3
:1028000084E991E009C081E290E00E948E138DE19D
:1028100090E0E6CF83E991E0CF910C948E1387E4AA
:1028200091E0FACFCF91089590912E0980912909D6
:1028300098131AC09091730980916E09981314C06F
:102840009091B8098091B30998130EC08091AC03A0
:102850009091AD03019741F448EE53E060E070E0E1
:1028600088EE97E00E94D2AE80919003882309F40D
:1028700059C01092900390912E09809129099813C4
:1028800012C09091730980916E0998130CC09091B9
:10289000B8098091B309981306C08091AC03909158
:1028A000AD03019719F182E190E00E948E1383E15C
:1028B00090E00E948E1384E190E00E948E1385E1E7
:1028C00090E00E948E1386E190E00E948E1380912A
:1028D0001002882321F084EE90E00E94CD7A40E03F
:1028E00050E0BA0188EE97E00C94D2AE82E190E01D
:1028F0000E94320783E190E00E94320784E190E079
:102900000E94320785E190E00E94320786E190E064
:102910000E94320780911002882321F085EE90E01A
:102920000C94CD7A0895AF92BF92CF92DF92EF923E
:10293000FF920F931F93CF93DF93CDB7DEB76497CA
:102940000FB6F894DEBF0FBECDBF5C01F62EC42ECD
:1029500014160CF4C12C8AEBC81614F48AEBC82E9A
:102960008091C2039091C3038230910509F449C05C
:102970008330910511F0019799F50C2C000CDD08BE
:102980002223F9F06AEB7FEFC5010E945F966E2D5E
:10299000C5010E948596FE01339682E1DF011D92FA
:1029A0008A95E9F78CE08983BB82AA828AE08D83CD
:1029B000DD86CC861A870987CE0101960E94D194C4
:1029C00008C0B601C5010E945F966E2DC5010E9428
:1029D000859661E0F11001C060E0C5010E94369665
:1029E00064960FB6F894DEBF0FBECDBFDF91CF91D6
:1029F0001F910F91FF90EF90DF90CF90BF90AF901D
:102A000008950C2C000CDD08222361F06AEB7FEFA7
:102A1000C5010E945F9650E040E06E2DC5010E9406
:102A20009797B9CFB601C5010E945F9650E040E08C
:102A30006E2DC5010E949797CCCFEF920F931F93F5
:102A400090911A02981781F1943070F58430E9F46E
:102A500084EC90E00E94CD7A0E94380F8250EE24E0
:102A6000E39410E000E020E04091B60661E082309F
:102A7000C0F08AE691E00E94931444E650E060E0E2
:102A800070E08CEF97E00E94D2AE80911A028F5FC7
:102A900080931A0289E190E01F910F91EF900C94BE
:102AA000CD7A8CE390E0E7CF1F910F91EF900895DE
:102AB000EF920F931F93CF9380916D0390916E03CC
:102AC000C0916D0A009721F59091A40880919F080C
:102AD000981731F1C23031F10E94F90ECC2309F47C
:102AE0006CC0909110028450823008F454C0992335
:102AF00021F08AE790E00E94CD7AEE24E39410E082
:102B000000E020E04091B60660E08DE891E053C01F
:102B1000019701F79091A40880919F089817D1F22E
:102B2000C13059F481E090916D0A923009F080E053
:102B3000CF911F910F91EF900895CC23A1F0809138
:102B40001002882321F082EB90E00E94CD7AEE24DF
:102B5000E39410E000E020E04091B60660E086E9F2
:102B600091E00E9493140E94F90E8250823058F432
:102B70008091630A813039F410924D0A10924E0A06
:102B800080E00E94C36D8BE590E00E94CD7A81E0E9
:102B900080936D0AC7CF992321F086ED90E00E94C3
:102BA000CD7AEE24E39410E000E020E04091B606F8
:102BB00060E081EB90E00E9493140E94F90E825035
:102BC000823070F48091630A813051F44091180290
:102BD0005091190270E060E085E49AE00E94D2AE64
:102BE0008AE590E00E94CD7A82E0D2CFEF920F93F7
:102BF0001F938091AF03882371F110925A081092AD
:102C00005B0887E591E00E948E13EE24E39410E0C8
:102C100000E020E04091B60660E088E591E00E9487
:102C200093148091660A8230B1F48091AC03909144
:102C3000AD03019781F49091730980916E09981307
:102C40000AC004E813E021E04091B60661E083E9A0
:102C500091E00E9493141092AB031092AA031F916B
:102C60000F91EF900895EF920F931F9380918F0330
:102C70008823B1F10E94F90E82508230B8F589E4C0
:102C800091E00E948E138CE491E00E948E138DE4FB
:102C900091E00E948E1381E00E94DE138091AA03CE
:102CA0009091AB030497E1F080917E03811118C0ED
:102CB00080911002882321F08CEC90E00E94CD7A64
:102CC00081E190E00E948E13EE24E39410E000E096
:102CD00020E04091B60660E081E190E00E9493140C
:102CE00010928F031F910F91EF9008958091100221
:102CF0002091AA033091AB032430310551F090911B
:102D00007F03911106C02091AC033091AD03232BBA
:102D100099F4882321F084ED90E00E94CD7AEE248E
:102D2000E39410E000E020E04091B60660E084E922
:102D300090E00E94931430C090917E0391112CC0BA
:102D4000882321F083ED90E00E94CD7A49E557E099
:102D500060E070E080E798E00E94D2AE10926E08CA
:102D600010926F088CE30E9440A421E030E049E516
:102D700057E060E070E08DE20E94FDA38091C20305
:102D80009091C3030297E9F44091B6066EE870E0B3
:102D900082E990E00E949C9C80911002882321F09F
:102DA00085ED90E00E94CD7A8FE890E00E948E132E
:102DB00083E990E00E948E1380E990E00E948E13D8
:102DC0008FCFEE24E39410E000E020E04091B606BF
:102DD00060E082E990E0ADCFEF920F931F930E94E5
:102DE000B61380911002882321F08FEC90E00E94AE
:102DF000CD7A48EE56E060E070E080E798E00E940F
:102E0000D2AE8EE10E9440A421E030E048EE56E0D0
:102E100060E070E08DE20E94FDA38091C20390917A
:102E2000C303029771F44091B6066EE870E08DE836
:102E300090E00E949C9C109202021F910F91EF90D3
:102E40000895EE24E39410E000E020E04091B606FF
:102E500060E08DE890E00E949314EDCFEF920F9325
:102E60001F93CF93C82F4091B6068091690A813095
:102E700020F0833058F0853060F1EE24E39408EEC2
:102E800013E02C2F61E080E290E008C0EE24E39490
:102E900008EE13E02C2F61E081E290E00E94931491
:102EA0008091AF03882351F1CC2341F18091660AD0
:102EB0008230C1F0833039F1813001F5EE24E394A2
:102EC00004E813E021E04091B60661E084E991E076
:102ED00013C0EE24E39408EE13E02C2F61E08DE1A3
:102EE00090E0DCCFEE24E39404E813E021E040918D
:102EF000B60661E083E991E00E949314CF911F919F
:102F00000F91EF900895EE24E39404E813E021E09C
:102F10004091B60661E087E491E0EECFEF920F9327
:102F20001F93CF938091AA039091AB0384309105B6
:102F300009F4A8C120917F032111A4C13091730924
:102F400020916E093213CAC120910C02222361F034
:102F50002091660A223009F487C0039729F08091F6
:102F60008207882309F480C08FEF0E944A6DC091C8
:102F70008F030E94F90EC11139C08250823008F0CF
:102F8000A0C080915303811129C089E491E00E947F
:102F90008E138CE491E00E948E130E94F90E833010
:102FA00009F077C08DE491E00E948E13EE24E39443
:102FB00010E000E020E04091B60660E08DE491E092
:102FC0000E94931480911002882341F08091520353
:102FD000811104C084EB90E00E94CD7AC1E0C093DF
:102FE000580381E00E942E17C0938F030E94F90EB0
:102FF0008450823000F586E698E00E94A2AE8823D5
:10300000D1F080911002882321F08EEC90E00E9494
:10301000CD7A8091C2039091C303029761F0EE24B0
:10302000E39410E000E020E04091B60661E080E922
:1030300090E00E94931410925303109252039091C7
:103040002E0980912909981309C080917903811173
:1030500005C00E94400F882309F4A6C0CF911F919C
:103060000F91EF900C9414148091690A823069F0EA
:1030700020F4813061F08CEC78CF833021F0843003
:10308000D1F782EB72CF89E970CF80E86ECF86E608
:103090006CCFEE24E39410E000E020E04091B6060F
:1030A00060E089E491E00E949314809110028823EB
:1030B00009F494CF80915203811190CF8AEC90E073
:1030C0008BCF80911002882349F0809102028823DF
:1030D00009F448C081ED90E00E94CD7A1092780802
:1030E0001092790849E557E060E070E086E698E0E4
:1030F0000E94D2AE8DE20E9440A421E030E049E57A
:1031000057E060E070E08CE30E94FDA32091020292
:103110004091B6068091C2039091C303222381F1AE
:10312000029719F560E970E083E990E00E949C9CA9
:10313000109202028DE890E00E948E138EE890E0DB
:103140000E948E1381E990E00E948E1382E990E044
:103150000E948E1384E990E00E948E1381E0809398
:103160008F0344CF80ED90E0B7CFEE24E39410E0DE
:1031700000E020E060E083E990E00E949314D8CF63
:10318000029739F460E970E08FE890E00E949C9C1F
:10319000D1CFEE24E39410E000E020E060E08FE87F
:1031A00090E00E949314C6CF8091900381116AC071
:1031B00088EE97E00E94A2AE882309F463C0809154
:1031C000AA039091AB03049709F45CC0809190032B
:1031D000811158C00E94F90EC82F82E190E00E9430
:1031E0008E1383E190E00E948E1384E190E00E94B0
:1031F0008E1385E190E00E948E1386E190E00E949C
:103200008E13C450C23008F054C080910702882346
:1032100009F44FC080911002882321F083EE90E0E2
:103220000E94CD7A4091B6068091690A823079F188
:1032300058F48130B1F0EE24E39410E000E020E097
:1032400061E086E190E015C0833051F1843099F758
:10325000EE24E39410E000E020E061E085E190E0FE
:1032600008C0EE24E39410E000E020E061E082E199
:1032700090E00E94931481E0809390031092F007F5
:103280001092F107CF911F910F91EF900895EE24C6
:10329000E39410E000E020E061E083E190E0E9CF1A
:1032A000EE24E39410E000E020E061E084E190E0AF
:1032B000E0CF80912F098823F1F2809110028823BA
:1032C00021F082EE90E00E94CD7AEE24E39410E0AB
:1032D00000E020E04091B60660E0B3CF80E00E94BD
:1032E0004A6D0E941414CF911F910F91EF900C948E
:1032F0003316EF920F931F930E94850E10925A0877
:1033000010925B08109264071092650711988091E3
:103310007503811102C00E94E40B0E94F90E8250D5
:10332000823048F58CE491E00E948E13EE24E39401
:1033300010E000E020E04091B60660E08CE491E00F
:103340000E9493149091730980916E09981739F037
:103350000E94F90E8450823010F40E94EC161092F4
:10336000AB031092AA0381E0809352031F910F9147
:10337000EF900C940A0C89E491E00E948E13EE24E5
:10338000E39410E000E020E04091B60660E089E4BC
:1033900091E00E94931481E00E942E17D3CFEF9208
:1033A0000F931F93CF93C82F809103029091040233
:1033B0000197D9F580E190E090931702809316026F
:1033C0008BEF90E00E948E138091AC039091AD033F
:1033D000029709F4A8C080917F0381110AC08091EF
:1033E000630A823029F580913D08811102C00E9454
:1033F0000A0C809102018062809302010E94F90E02
:103400008250823020F48091630A8230E9F4409146
:1034100018025091190270E060E085E49AE00E9481
:10342000D2AE81E00E94C36D13C086E090E0C4CFAD
:103430000E940A0C9091730980916E099813D9CF5C
:1034400081E080935303D5CF80916D0A8230F9F2E9
:1034500010920408109205081092FA071092FB07C8
:1034600080917F0381115FC00E94F90E823059F173
:10347000833009F45DC08091AF03882309F485C0CF
:1034800089E491E00E948E13EE24E39410E000E0C2
:1034900020E04091B60660E089E491E00E94931438
:1034A00081E00E942E179091730980916E09981700
:1034B000D1F180917F03811136C0CF911F910F917F
:1034C000EF900C94EC168CE491E00E948E1389E44A
:1034D00091E00E948E138091A803EE24E39410E003
:1034E00000E020E04091B60660E08823C1F08CE463
:1034F00091E00E949314809110028823A1F08091A2
:10350000A803882381F080917E0381110CC089EC8F
:1035100090E0CF911F910F91EF900C94CD7A89E4B8
:1035200091E00E949314CF911F910F91EF90089515
:103530008CE491E00E948E138DE491E00E948E1342
:103540008091A803EE24E39410E000E020E0409195
:10355000B60660E0882331F09091730980916E097E
:103560009813C5CF8DE491E00E94931480911002CE
:103570008823C9F28091A8038823A9F280917E0351
:103580008111D1CF84EB90E0C4CF909173098091E9
:103590006E09981385CFCC2309F482CF89E491E09A
:1035A0000E948E13EE24E39410E000E020E04091AE
:1035B000B60660E089E491E00E9493148AEC90E002
:1035C0000E94CD7A6DCFEF920F931F9380910502E9
:1035D0008823F9F0109205028DE590E00E948E1389
:1035E0008CE590E00E948E13EE24E39410E000E05E
:1035F00020E04091B60660E08DE590E00E949314D3
:1036000070E060E083E091E01F910F91EF900C94E7
:103610001E7981E0809305028DE590E00E948E1373
:103620008CE590E00E948E13EE24E39410E000E01D
:1036300020E04091B60660E08CE590E00E94931493
:1036400061E070E0DFCFEF920F931F936091660A05
:1036500070E080E191E00E941E798091AA03909130
:10366000AB038630910509F454C00897029708F41B
:1036700050C08091AC039091AD03019709F049C00F
:1036800086E090E00E948E1380E390E00E948E130B
:1036900085E490E00E948E1386E490E00E948E13F1
:1036A0008EE390E00E948E138091AF03882361F037
:1036B00083E991E00E948E1384E991E00E948E13C9
:1036C00087E491E00E948E138091660A833009F4AA
:1036D00099C0B0F5813009F447C0823009F46BC05D
:1036E000EE24E39410E000E020E04091B60660E0B4
:1036F00086E090E00E94931410928B0384E68093FE
:10370000150245E050E060E070E08EED97E00E9429
:10371000D2AE8091C2039091C3030197029740F407
:103720008091660A833009F0A4C080E00E94639D06
:1037300010928C0710928D071F910F91EF900895B2
:10374000853009F486C0863059F68091AF0388230E
:1037500099F2EE24E39410E000E020E04091B606F8
:1037600060E088E991E0C6CFEE24E39410E000E049
:1037700020E04091B60660E085E490E00E9493145A
:103780008091AF03882309F4B7CF8091AC03909167
:10379000AD03019709F0B0CF9091730980916E0944
:1037A0009813AACF00ED17E021E04091B60661E042
:1037B00084E991E09FCFEE24E39410E000E020E064
:1037C0004091B60660E080E390E00E9493148091FF
:1037D000AF03882309F490CF8091AC039091AD039F
:1037E000019709F089CF9091730980916E09981320
:1037F00083CF0CEB12E021E04091B60661E083E953
:1038000091E078CFEE24E39410E000E020E04091D6
:10381000B60660E086E490E00E9493148091AF03C6
:10382000882309F469CF8091AC039091AD0301978F
:1038300009F062CF9091730980916E0998135CCF63
:1038400002EE14E021E04091B60661E087E491E0E9
:1038500051CF8091AF03882309F44ECFEE24E39437
:1038600010E000E020E04091B60660E087E991E0DA
:1038700041CF81E05BCFEF920F931F9388E290E0FE
:103880000E948E13EE24E39410E000E020E04091CB
:10389000B60660E088E290E00E94931488E590E02C
:1038A0000E948E1385E690E00E948E1389E590E0D9
:1038B0000E948E139091630A80916B0A923029F1D5
:1038C000833019F581E08093630A10926B0A10929D
:1038D0006C0A70E060E087EF90E00E941E7920E0C3
:1038E0004091B60660E089E590E00E9493148EEA6C
:1038F00090E00E94CD7A80E00E94789E8823D1F1EA
:103900001F910F91EF900C94231B8130E1F483E021
:1039100080936B0A913011F480936C0A62E070E03E
:1039200087EF90E00E941E79EE24E39410E000E01F
:1039300020E04091B60660E085E690E00E94931496
:103940008EE590E0D6CF0E944F9E61E070E087EF59
:1039500090E00E941E79EE24E39410E000E020E065
:103960004091B60660E088E590E00E9493148DE5F2
:1039700090E0BFCF1F910F91EF90089590916B0A47
:103980008091630A823099F4911108C00E944F9E81
:1039900061E070E087EF90E00E941E7980E00E9475
:1039A000789E882339F00E94231B80E003C081E0C9
:1039B0009111FBCF0895EF920F931F9380911E02F8
:1039C000853010F510921E0280E490E00E948E1364
:1039D000E12C10E000E020E040E060E080E490E0D6
:1039E0000E94931480911E0223E2829FC001112441
:1039F00064E670E00E943EBE63526093B6061F917B
:103A00000F91EF900C941C10855080931E02EACF0A
:103A1000EF920F931F9380911E02803618F184E677
:103A200080931E0280E490E00E948E13E12C10E04F
:103A300000E020E040E060E080E490E00E94931429
:103A400080911E0223E2829FC001112464E670E08F
:103A50000E943EBE63526093B6061F910F91EF9095
:103A60000C941C108B5F80931E02EACFEF920F9391
:103A70001F93CF93C82F8091C2039091C3030197E6
:103A8000039738F480911F02082E000C990B0E94B6
:103A90003F9DC11120C08091AC039091AD03892B53
:103AA000D1F48091B603882321F08091B403882358
:103AB00091F080911102823399F48FE390E00E949B
:103AC0008E13E12C10E000E020E040E060E08FE3A6
:103AD00090E00E949314CF911F910F91EF90089561
:103AE00080E490E00E948E13E12C10E000E020E0E2
:103AF00040E060E080E490E0ECCF80938E038111A1
:103B00008AE080937D03809111020E94F7128093D6
:103B10001F028093B70681E00C94361DEF92FF924E
:103B20000F931F93CF93DF93CDB7DEB7AB970FB64D
:103B3000F894DEBF0FBECDBF8CEF9FE00E9487BD23
:103B400088A78DEF9FE00E9487BD89A78EEF9FE039
:103B50000E9487BD8AA78FEF9FE00E9487BD8BA739
:103B60000E94D50608A519A52AA53BA560177107CF
:103B70008207930709F083C2CE0101967C0110E011
:103B800000E0C8010E9487BDF70181937F010F5FAC
:103B90001F4F0F311105A9F78981823071F40E94FE
:103BA0004F9E8A81823049F483E080936B0A909122
:103BB000630A913011F480936C0A8B81815087FFE6
:103BC0008093680A8C819FEF980F983090F48093CF
:103BD00091030E94789E8091660A833051F480910F
:103BE000C2039091C3030197029718F480E00E94EA
:103BF000639D9D818FEF890F823030F481E0923098
:103C000008F480E0809305029E818FEF890F823057
:103C100030F481E0923008F480E0809306029F81C6
:103C20008FEF890F823030F481E0923008F480E029
:103C30008093100298858FEF890F823030F481E0F5
:103C4000923008F480E080930A0299858FEF890F03
:103C5000823030F481E0923008F480E08093730386
:103C60009A858FEF890F823030F481E0923008F42A
:103C700080E0809371038B859FEF980F933050F411
:103C8000823009F465C1833009F46DC1109270036C
:103C900010926F038C859FEF980F933050F4823011
:103CA00009F46AC1833009F472C110926C03109256
:103CB0006B039D858FEF890F823030F481E0923065
:103CC00008F480E0809375038E859FEF980F953000
:103CD00050F4833009F46FC108F062C1823009F4F6
:103CE00066C1109272038F859FEF980F953050F444
:103CF000823009F464C1843009F468C110926A0307
:103D00001092690388899FEF980F923050F4909138
:103D1000AF03992331F0823009F45BC181E00E9446
:103D2000A59E99898FEF890F823030F481E092301F
:103D300008F480E0809307029A898FEF890F823020
:103D400030F481E0923008F480E00E947D1D8B8980
:103D50008150853650F4809311020E94F7128093AF
:103D6000B8068093B70680931F028C899FEF980F47
:103D70009C3358F448EE53E0849F9001859F300DAA
:103D8000112430932102209320028D899FEF980FF8
:103D90009C3358F448EE53E0849F9001859F300D8A
:103DA000112430932302209322028E899FEF980FD3
:103DB0009C3358F448EE53E0849F9001859F300D6A
:103DC000112430932502209324028F899FEF980FAE
:103DD0009C3358F448EE53E0849F9001859F300D4A
:103DE00011243093270220932602888D9FEF980F8D
:103DF0009C3358F448EE53E0849F9001859F300D2A
:103E000011243093290220932802998D8FEF890F76
:103E1000823030F481E0923008F480E080932A020E
:103E20009A8D8FEF890F823030F481E0923008F460
:103E300080E0809349089B8D8FEF890F823030F4AA
:103E400081E0923008F480E080934A089C8D8FEFE7
:103E5000890F823030F481E0923008F480E0809362
:103E60004B089D8D8FEF890F823030F481E09230C6
:103E700008F480E0809351088E8D9FEF980F933067
:103E800050F4823009F4A7C0833009F4ABC010921B
:103E90006E0310926D038F8D9FEF980F9430A0F4F6
:103EA000823009F4A4C0833009F4A4C0813009F43D
:103EB000A4C084E0809309028091AF03882309F4B1
:103EC00094C083E080936E0A0E94026D0E94346D5C
:103ED0007E01F0E2EF0EF11C0FE110E0C8010E943C
:103EE00087BDF70181937F010F5F1F4F07321105D7
:103EF000A9F788A19FEF980F9E3F10F480931302BB
:103F000089A19FEF980F9E3F10F4809312029AA10F
:103F10008FEF890F823030F481E0923008F480E036
:103F200080930C028BA19FEF980F953040F4809303
:103F30000E02813009F064C085E080930F028CA1ED
:103F40008C3109F463C08E3109F06AC08EE15FC024
:103F5000109204021092030281E090E090937003AB
:103F600080936F0397CE81E090E09093040280935A
:103F7000030282E090E0F2CF1092600310925F03A0
:103F800081E090E090936C0380936B0392CE81E08C
:103F900090E09093600380935F0382E090E0F2CF23
:103FA000843059F0853009F09CCE84E001C081E076
:103FB0008093720398CE82E0FBCF83E0F9CF81E05B
:103FC00090E090936A03809369039CCE82E090E036
:103FD000F8CF82E0A4CE81E090E090936E038093CE
:103FE0006D0359CF82E090E0F8CF82E06BCF91E093
:103FF000909308028093090265CF80930802FACF5C
:10400000853011F482E099CF80E397CF8CE18093E3
:104010000D029091AE039D7F9C3111F48093AE030D
:104020009DA18FEF890F823030F481E0923008F447
:1040300080E08093B7039EA18FEF890F823030F428
:1040400081E0923008F480E080930B029FA18FEF13
:10405000890F823080F581E0923008F480E080930F
:104060007403AB960FB6F894DEBF0FBECDBFDF91E1
:10407000CF911F910F91FF90EF900C94EE0FEE24D3
:10408000E39410E000E020E04091B60660E08FE5A8
:1040900091E00E9493140E94520FAB960FB6F894D1
:1040A000DEBF0FBECDBFDF91CF911F910F91FF906B
:1040B000EF900C94C50FAB960FB6F894DEBF0FBE11
:1040C000CDBFDF91CF911F910F91FF90EF90089599
:1040D000CF93DF9300D0CDB7DEB7342F443678F0DE
:1040E0000E948A9869837A838B83CE0101960E940D
:1040F00024A80F900F900F90DF91CF910895422F39
:10410000632F0E940B98EECFCF93DF9380914E03E5
:1041100090914F03892B09F05BC087EA90E00E94E1
:10412000CDC1EC0181E0888381E090E00E9467A628
:104130009A838983888190E00E9467A69C838B8301
:10414000888190E00E9467A69E838D83888190E09D
:10415000880F991F0E9467A698878F83888123E024
:10416000829FC00111240E9467A69A87898720E058
:10417000A1E06FEF7FEF33E08881281728F5822FC9
:1041800090E0E981FA81E80FF91FA083EB81FC81BF
:10419000E80FF91F1082ED81FE81E80FF91F1082F0
:1041A000880F991F4F815885840F951FFC017183DB
:1041B0006083E985FA85239FE00DF11D11241082AB
:1041C000118212822F5FD8CFD0934F03C0934E033A
:1041D00080914E0390914F03DF91CF9108950F93FB
:1041E0001F93CF93DF9300D0CDB7DEB7182F062FE4
:1041F0000E94842020910E022130F1F41436B8F090
:10420000202F412F60E00E948A9869837A838B83F4
:10421000CE0101960E9424A8962F672F792F0F9028
:104220000F900F90DF91CF911F910F910895402F24
:10423000612F0E940B98E9CF202F412F70E060E0A2
:104240000E946820ECCFCF93DF930E948420EC0182
:1042500080910E02833079F0843009F1823039F494
:104260006FEF80E00E94EF206FA778AB89AB1298C8
:10427000DF91CF9108956FEF80E00E94EF20FE0163
:10428000E958FF4F6083718382836FEF80E00E9463
:10429000EF20C658DF4F688379838A83E8CF6FEFBA
:1042A00080E00E94EF20C958DF4FF5CF8091AE0328
:1042B0008D7F8C31D1F40E94850E0E9489070E9467
:1042C000232110925E0310925C038091B603882331
:1042D00021F08091B403882361F040E65AEE60E05B
:1042E00070E084E397E00C94D2AE80E00E94E8078F
:1042F000E4CF0895ECEAF7E010861186E4EDF7E0EC
:1043000010861186E6EBF7E010861186E0ECF7E008
:1043100010861186EAECF7E010861186EEEDF7E0E4
:10432000108611861092780310928D0310928B03E1
:1043300084E6809315020E94156E0C942321EF925F
:104340000F931F93CF931092640810926508809189
:104350007E03811104C085E190E00E94CD7A109225
:10436000AB031092AA03109279031092610310928A
:104370005D03109233081092340810920E081092C8
:104380000F0810925B038091690A8150209103020B
:104390003091040280935E0310925C03213031055A
:1043A00009F078C080915F0390916003019709F054
:1043B00066C00E947E0B0E94620A1092DC07109277
:1043C000DD071092AA071092AB0710929607109281
:1043D000970740E050E0BA0180EC97E00E94D2AE2F
:1043E0000E9423210E940F0F0E94AA1310925A03C9
:1043F0001092590310928A031092570A1092580A89
:1044000080917E0381115BC08091660A823009F43D
:1044100006C1833009F453C0813009F40AC10E94F7
:10442000380F833009F4A3C0853009F4F4C082301A
:1044300009F0C4C08091690A853009F46BC088E92D
:1044400097E00E945CAEE12C10E000E06838734118
:104450008105910508F4ABC088E997E00E945CAE45
:10446000E12C10E000E06031774281059105F8F41D
:1044700020E04091B60660E08AE090E01EC00E9415
:10448000850E85E090E090931702809316020E94BB
:104490000A0C93CF0E94850E83E090E09093170260
:1044A0008093160280917F03811187CFF0CF20E0A7
:1044B0004091B60660E080E891E00E9493148091FC
:1044C000660A833021F486E491E00E9432078091ED
:1044D000660A823009F428C1833009F4DCC08130D7
:1044E00009F429C1C091690A0E94380FC150C43033
:1044F00008F004C1833009F4A6C0853009F4FBC07C
:10450000823009F0F5C08DE791E00E948E138EE7AE
:1045100091E09FC088E997E00E945CAE68387341E3
:104520008105910550F4E12C10E000E020E040917D
:10453000B60660E088E891E0C0CF88E997E00E9485
:104540005CAEE12C10E000E060317742810591051E
:1045500038F420E04091B60660E08BE891E0ADCF02
:1045600020E04091B60660E08AE891E0A6CF88E9B5
:1045700097E00E945CAE683873418105910550F464
:10458000E12C10E000E020E04091B60660E08BE016
:1045900090E093CF88E997E00E945CAEE12C10E0B8
:1045A00000E0603177428105910508F061CF20E09D
:1045B0004091B60660E087E490E07FCF88E997E01D
:1045C0000E945CAE683873418105910550F4E12C7E
:1045D00010E000E020E04091B60660E083E891E062
:1045E0006CCF88E997E00E945CAEE12C10E000E01F
:1045F000603177428105910538F420E04091B6069C
:1046000060E082E891E059CF20E04091B60660E09A
:1046100081E891E052CFE12C10E000E0EECFE12CF8
:1046200010E000E020E04091B60660E085E390E015
:1046300044CFE12C10E000E020E04091B60660E0BD
:104640008BE390E03ACF84E690E00E948E1383E6FD
:1046500090E00E948E1380910602882321F089E069
:1046600090E00E948E1388E490E00E948E1382E610
:1046700090E00E948E138091660A853021F483EACF
:1046800091E00E948E138091660A863021F484EABC
:1046900091E00E948E1380917703882321F180910D
:1046A000690390916A038130910509F451C0029722
:1046B00009F048C08EE690E00E948E138FE690E0ED
:1046C0000E948E1380917E0381110BC0E12C10E0BB
:1046D00000E020E04091B60660E08FE690E00E94A6
:1046E000931410927703CF911F910F91EF9008953B
:1046F00080E690E00ACF8FE491E007CF833059F055
:10470000853079F0823051F487E891E00E948E1371
:1047100089E891E09ECF81E690E09BCF8BE990E025
:1047200098CF8FE491E095CF83E390E00E948E13C1
:1047300084E390E0AECF89E390E00E948E138AE399
:1047400090E0A7CF0E94380F8250823008F0B2CF9D
:104750008AE490E00E948E1389E490E00E948E1318
:1047600080917E038111BDCFE12C10E000E020E0BC
:104770004091B60660E089E490E0B1CFEF920F93EC
:104780001F93CF938091AA039091AB03069739F4BE
:104790006091660A70E080E191E00E941E790E94BB
:1047A000F90E8250823008F4B5C00E94B613809191
:1047B000AA039091AB03049721F0809156038823BC
:1047C00061F083E490E00E948E138FE390E00E94FA
:1047D0008E1384E490E00E948E1389E491E00E949D
:1047E0008E138CE691E00E948E138091AA03909123
:1047F000AB03C09156038730910509F094C0C111F5
:1048000098C0C0917E03C11194C01092AD03109264
:10481000AC031092AB031092AA038091790381112B
:104820000E949F2180915403811110925403809122
:104830001002882371F088ED90E00E94CD7ACC239D
:1048400021F082ED90E00E94CD7A84EE90E00E940B
:10485000CD7A0E9414140E94331681E00E94DE1368
:104860000E94AC0E8EE390E00E948E138091660A47
:10487000823009F4FDC0833009F400C1813009F4AD
:10488000FAC086E090E00E948E1310927C03C1E093
:10489000C093020210925A0810925B0810926407AB
:1048A0001092650710928C0710928D071092820764
:1048B0001092830710920408109205081092FA07CC
:1048C0001092FB078091AC039091AD03892BE9F422
:1048D0008091630A823009F0D4C00E94E40B809179
:1048E000690A813071F080936A0AC093690A8091E5
:1048F000AE038D7F8C3119F480E00E949E070E94E8
:10490000E10710927B0310927A03CF911F910F91D0
:10491000EF90089580918F03811149CF8CE491E04D
:104920000E948E1344CFC111A1C020917E0321119A
:1049300074CF2091AC033091AD03232B19F4892B54
:1049400009F494C09091730980916E0961E0981305
:1049500005C08091630A813009F460E070E081E174
:1049600090E00E941E791092AD031092AC03109259
:10497000AB031092AA0380917E0381110E949A13C7
:1049800080917E03811107C080917F03811103C054
:104990008091E60781110E947A21C0917F03C111A5
:1049A00027C00E94F90E8250823020F58091630A60
:1049B000813009F056C080918F03811152C08091DF
:1049C0007E0381114EC0C091AF03CC2309F449C0CE
:1049D0008BEF90E00E948E13EE24E39410E000E051
:1049E00020E04091B60660E08BEF90E00E949314C7
:1049F000C0E037C080918F03811117C0C0917E0342
:104A0000C11132C08091AA039091AB03049769F061
:104A1000EE24E39410E000E020E04091B60660E070
:104A200081E990E00E949314C1E080917E0381119E
:104A300018C080911002882321F08CEC90E00E9435
:104A4000CD7A81E190E00E948E13EE24E39410E091
:104A500000E020E04091B60660E081E190E00E9435
:104A6000931410927E03D9CEC0E0DFCFC0E0D5CE44
:104A700080E390E008CF85E490E005CF86E490E005
:104A800002CF10923D0810923E0810920E0810922C
:104A90000F080E9456210E94E40B33CFEF920F9330
:104AA0001F930E94BE2382E090E09093AD03809319
:104AB000AC0387E090E09093AB038093AA038091CE
:104AC0007E03811143C040E456E060E070E08CEF6B
:104AD00097E00E94D2AE40E951E060E070E082EFE2
:104AE00097E00E94D2AE40E951E060E070E08CE5D2
:104AF00097E00E94D2AE80911002882341F083EBB0
:104B000090E00E94CD7A86EE90E00E94CD7AE12C72
:104B100010E000E020E04091B60660E083E490E021
:104B20000E94931420E04091B60660E08FE390E08D
:104B30000E94931420E04091B60660E084E490E087
:104B40000E9493141F910F91EF9008951F910F9160
:104B5000EF900C949A13EF920F931F93CF931092B0
:104B60007C0310927E0381E08093020210923C0746
:104B700010923D079091630A923089F581E090E0B0
:104B80009093AD038093AC031092AB031092AA03F1
:104B90008091B909811118C080911002882321F0F9
:104BA00089E890E00E94CD7A8CEF90E00E948E130D
:104BB000EE24E39410E000E020E04091B60660E0CF
:104BC0008CEF90E00E9493148AE090E00E94CD7AEE
:104BD00080E0CF911F910F91EF900C94CF1920910D
:104BE0002E099091290929130BC0909173039923E1
:104BF00039F0809356030E944E25C0E08C2FE9CFF8
:104C000081E090E09093AD038093AC031092AB03EE
:104C10001092AA03C091A8038AE090E00E94CD7A86
:104C2000EDCFEF920F931F938091AA039091AB0366
:104C3000039729F48091790381110E949F2184E0D8
:104C400090E09093AB038093AA038091AF038823F5
:104C500041F04CEA5DE060E070E082E598E00E949F
:104C6000D2AE0E9414140E94331681E00E94DE131B
:104C700080917503882309F464C010923D08109256
:104C80003E080E94850E80911002882341F086EE36
:104C900090E00E94CD7A83EB90E00E94CD7A40E9CB
:104CA00051E060E070E08CE597E00E94D2AEE12C2C
:104CB00010E000E020E04091B60660E083E490E080
:104CC0000E94931420E04091B60660E08FE390E0EC
:104CD0000E94931420E04091B60660E084E490E0E6
:104CE0000E94931440E951E060E070E088E497E0AE
:104CF0000E94D2AE40E456E060E070E08EE397E0C0
:104D00000E94D2AE80911002882321F08CEC90E0BA
:104D10000E94CD7A81E190E00E948E13EE24E3940C
:104D200010E000E020E04091B60660E081E190E014
:104D30000E9493148AE190E01F910F91EF900C94E0
:104D4000CD7A0E94500EDECFEF920F931F93CF9338
:104D5000DF938091AA039091AB03AC0144505109B9
:104D60003091B8092091B3094330510508F452C37A
:104D700040917F0341114EC3321761F081E090E012
:104D80009093AB038093AA03DF91CF911F910F9172
:104D9000EF90089580917C03833008F4F8C081E09F
:104DA00080937E030E944E258091660A813009F42B
:104DB000C0C0823009F4BAC00E94380F833009F4B1
:104DC0009CC0853009F4AFC0823009F0A1C0809149
:104DD000690A853009F486C08AE090E00E948E134B
:104DE00087E490E00E948E1380E891E00E948E1389
:104DF00089E490E00E948E138AE490E00E948E1372
:104E00008FE690E00E948E138EE690E00E948E1353
:104E10000E94C6060E94380FC8EBDBE0853091F493
:104E20000E94400F882361F0EE24E39410E000E03C
:104E300020E04091B60660E08DEB91E00E94931473
:104E4000C0E7D7E18091690A823009F480C008F098
:104E500073C0813011F0C053D84FAE0170E060E0F4
:104E600082E597E00E94D2AEBE0181E290E00E940E
:104E70001E790E94380F853009F06CC0EE24E3944F
:104E800004EC19E021E04091B60661E084E991E08C
:104E90000E94931480910A02882309F475CF8091AF
:104EA000630A813009F070CF90912E098091290911
:104EB000981709F469CF9091730980916E0998133E
:104EC00063CF80910502882309F45ECF8091020AA6
:104ED000882309F493C2DF91CF911F910F91EF9036
:104EE0000C94F5B188E891E00E948E138BE891E074
:104EF0000E948E138AE891E079CF8BE090E00E94C7
:104F00008E1387E490E00E948E138AE090E06ECFCB
:104F100081E891E00E948E1382E891E00E948E1356
:104F200083E891E063CF82E891E060CF85E390E091
:104F30006DCF8BE390E06ACF833031F0843009F09D
:104F40008ACFC452DA4F89CFC851DC4F86CFCC50BC
:104F5000DE4F83CF80911002882321F082E290E01F
:104F60000E94CD7AEE24E39410E000E020E040912E
:104F7000B60660E08EE591E00E94931404EC19E01F
:104F800021E04091B60661E08BE691E081CF80910F
:104F900055038823B1F084E897E00E945CAE672B4C
:104FA000682B692B71F4109255030E94F90E825000
:104FB000823038F48091AA039091AB03039709F0F3
:104FC000109880916D0A823081F190912E09809124
:104FD000290998132AC09091730980916E0998133A
:104FE00024C083ED99E00E94E8AC811106C08FEBEC
:104FF00098E00E94E8AC8823C1F0809110028823D9
:1050000021F087ED90E00E94CD7A8CE290E00E9442
:105010008E13EE24E39410E000E020E04091B60609
:1050200060E08CE290E00E9493149091FD098091E1
:10503000F809981346C090912E0980912909981378
:1050400040C09091730980916E0998133AC0809185
:105050006D0A8230B1F5C091660AC13009F498C07A
:10506000C33009F4B6C082E597E00E945CAE672BBE
:10507000682B692B51F410927C0348EE53E060E0FA
:1050800070E082E597E00E94D2AE809161038111C9
:1050900005C080917C038F5F80937C0380917C03AB
:1050A000833078F48091AA039091AB03039731F099
:1050B00083E090E09093AB038093AA0381E0809318
:1050C00061032091E9089091E40880916B0A8D7F3B
:1050D000813009F4A0C08091660A882321F03CEF5A
:1050E000380F343040F44091AA035091AB03433061
:1050F000510509F40FC12913CEC020912E099091BA
:1051000029092913C8C02091730990916E092913A8
:10511000C2C090916D0A923009F0BDC0813041F05B
:1051200008F424C1823009F43CC1833009F0B3C0D3
:1051300082E597E00E945CAE672B682B692B51F4E7
:1051400010927C0348EE53E060E070E082E597E067
:105150000E94D2AE80917C0390916103911103C0B3
:105160008F5F80937C0380917C03833008F093C031
:105170008091AA039091AB03039731F083E090E014
:105180009093AB038093AA0381E08093610383C073
:1051900080915403811195CF84E897E00E945CAE22
:1051A000672B682B692B09F08CCF8091AA03909113
:1051B000AB03039709F485CF48E552E060E070E067
:1051C00084E897E00E94D2AE0E946BB1C093540372
:1051D00078CF80915403811174CF84E897E00E94C6
:1051E0005CAE672B682B692B09F06BCF8091AA030B
:1051F0009091AB03039709F464CF4AEF50E060E06D
:1052000070E084E897E00E94D2AE0E946BB181E02A
:105210008093540356CF29136CC090912E0980912E
:105220002909981338C09091730980916E099813D9
:1052300032C080916D0A823071F582E597E00E945C
:105240005CAE672B682B692B51F410927C0348EEFF
:1052500053E060E070E082E597E00E94D2AE80917A
:105260005D03811105C080917C038F5F80937C0377
:1052700080917C03833078F48091AA039091AB03F2
:10528000039731F083E090E09093AB038093AA03FF
:1052900081E080935D039091FD098091F809981356
:1052A00048C09091E9088091E408981709F4F2CD7C
:1052B00080916B0A8111EECD8091660A813041F0B8
:1052C00008F499C0823009F496C0833009F0E2CD29
:1052D00080917903882309F4DDCD809161038823CF
:1052E00009F4D8CD1092AB031092AA031092610377
:1052F000D1CD8091610381110AC08091AA03909160
:10530000AB03039721F41092AB031092AA031092FF
:105310005D03C1CF291709F4BBCF0E94400F88233A
:1053200009F4B9CF9091FD098091F809981709F413
:10533000AFCF8091660A813009F45AC0833009F4F6
:1053400057C080917903882309F4ABCF8091610322
:10535000882309F4A6CF80915D03811144C0109287
:10536000AB031092AA03109261039BCF8091540368
:10537000811191CF84E897E00E945CAE672B682B87
:10538000692B09F088CF40ED57E060E070E084E8D9
:1053900097E00E94D2AE0E946BB181E080935403EB
:1053A0007ACF80915403811176CF8091AA03909196
:1053B000AB03039709F46FCF80915503811110C09F
:1053C0004EEE52E060E070E084E897E00E94D2AEDA
:1053D0000E946BB1809155038F5F80935503DDCFA1
:1053E0008230D8F6F5CF0E94BE1C8111B8CFBBCF5A
:1053F0001092540356CF109254034CCD8091FF0964
:10540000882309F4C1CCDF91CF911F910F91EF90C8
:105410000C9411263213B2CC892B09F0B5CC83ED54
:1054200099E00E94E8AC81110DC080916B0A8D7FDC
:10543000813009F0A9CC8FEB98E00E94E8AC88237A
:1054400009F4A2CC8091E60781119ECC909173095A
:1054500080916E09981398CC90912E09809129091A
:10546000981392CC80911002882321F08BEC90E06D
:105470000E94CD7A8EE591E00E948E13EE24E39493
:1054800010E000E020E04091B60660E08EE591E09B
:105490000E949314DF91CF911F910F91EF900C9484
:1054A000C606EF92FF920F931F93CF93DF930E9454
:1054B00084208C01D0910E028EEF8D0F833080F509
:1054C0000E94380F853099F40E94400FCEE0811180
:1054D0001DC080917E0381112FC080917F038111B7
:1054E0002BC08091660A823049F5C0E10FC09091CF
:1054F0007E03911121C090917F0391111DC0909165
:10550000660A9230D9F4C4E0833079F7D230C1F41E
:105510006FEF8C2F0E94EF20F80167A770AB81AB73
:105520008091660A823009F0129ADF91CF911F9123
:105530000F91FF90EF900895CCE0E8CFC1E0E6CF67
:105540007801F7E7EF0EF11C6FEF8C2FD33089F461
:105550000E94EF20F7016083718382836FEF8C2FAD
:105560000E94EF20F801E658FF4F60837183828329
:10557000D7CF0E94EF20F701F8CF8091AE038C3196
:1055800009F4EDC18E3109F07FC3E0915C03EF3087
:1055900008F010C4F0E08827EF52F54D8F4F0C94BF
:1055A00052BEE02A042B302B4C2B7B2B972BB32B9A
:1055B000CF2BEB2B072C232C3F2C5B2C772C932C05
:1055C0008EE00E9489060E941B9E8FE00E94890641
:1055D0000E941B9E80915C038F5F80935C0380918F
:1055E0005B0381110AC08DE00E9489060E94FD9D27
:1055F00080E10E9489060E94FD9D81E080935B030B
:105600000E9487A20C94512A8DE00E9489060E9474
:105610001B9E80E10E9489060E941B9E80915B0375
:10562000882371F08EE00E9489060E94FD9D8FE024
:105630000E9489060E94FD9D80915C038F5F0DC0D2
:105640008CE00E9489060E94FD9D81E10E948906EE
:105650000E94FD9D80915C03815080935C03D0CFBC
:105660008CE00E9489060E941B9E81E10E948906AF
:105670000E941B9E80915B03882339F08DE00E947D
:1056800089060E94FD9D80E1D3CF8BE00E948906B0
:105690000E94FD9D82E1DACF8BE00E9489060E9484
:1056A0001B9E82E10E9489060E941B9E80915B03E3
:1056B000882371F08CE00E9489060E94FD9D81E1A3
:1056C0000E9489060E94FD9D80915C038F5F0DC042
:1056D0008AE00E9489060E94FD9D83E10E9489065E
:1056E0000E94FD9D80915C03815080935C030E9429
:1056F00087A20C9423218AE00E9489060E941B9EA7
:1057000083E10E9489060E941B9E80915B0388238F
:1057100039F08BE00E9489060E94FD9D82E1D0CF86
:1057200089E00E9489060E94FD9D84E1D7CF89E02F
:105730000E9489060E941B9E84E10E9489060E94A5
:105740001B9E80915B03882339F08AE00E948906C2
:105750000E94FD9D83E16CCF88E00E9489060E9433
:10576000FD9D85E173CF88E00E9489060E941B9E03
:1057700085E10E9489060E941B9E80915B0388231D
:1057800039F089E00E9489060E94FD9D84E150CF96
:1057900087E00E9489060E94FD9D86E157CF87E041
:1057A0000E9489060E941B9E86E10E9489060E9433
:1057B0001B9E80915B03882339F088E00E94890654
:1057C0000E94FD9D85E17CCF86E00E9489060E94B3
:1057D000FD9D87E183CF86E00E9489060E941B9E83
:1057E00087E10E9489060E941B9E80915B038823AB
:1057F00039F087E00E9489060E94FD9D86E160CF16
:1058000085E00E9489060E94FD9D88E167CF85E0C2
:105810000E9489060E941B9E88E10E9489060E94C0
:105820001B9E80915B03882339F086E00E948906E5
:105830000E94FD9D87E1FCCE84E00E9489060E94C3
:10584000FD9D89E103CF84E00E9489060E941B9E92
:1058500089E10E9489060E941B9E80915B03882338
:1058600039F085E00E9489060E94FD9D88E1E0CE26
:1058700083E00E9489060E94FD9D8AE1E7CE83E0D5
:105880000E9489060E941B9E8AE10E9489060E944E
:105890001B9E80915B03882339F084E00E94890677
:1058A0000E94FD9D89E10CCF82E00E9489060E9442
:1058B000FD9D8BE113CF82E00E9489060E941B9E12
:1058C0008BE10E9489060E941B9E80915B038823C6
:1058D00039F083E00E9489060E94FD9D8AE1F0CEA6
:1058E00081E00E9489060E94FD9D8CE1F7CE81E057
:1058F0000E9489060E941B9E8CE10E9489060E94DC
:105900001B9E80915B03882339F082E00E94890608
:105910000E94FD9D8BE18CCE80E00E9489060E9452
:10592000FD9D8DE193CE80E00E9489060E941B9E22
:105930008DE10E9489060E941B9E81E00E948906DB
:105940000E94FD9D8CE10E9489060E94FD9D809130
:105950005C03815080935C0310925B0351CEE09115
:105960005C03EE3008F026C2F0E08827E554F34DE2
:105970008F4F0C9452BEC92CE32CFF2C1B2D372DBE
:10598000532D6F2D8B2DA72DC32DDF2DFB2D172E06
:10599000332E8DE00E9489060E941B9E8EE00E949D
:1059A00089060E941B9E80915C038F5F80935C033D
:1059B00080915B03811121CE8CE00E9489060E94B8
:1059C000FD9D8FE016CE8CE00E9489060E941B9EF2
:1059D0008FE00E9489060E941B9E80915B038823B2
:1059E00039F08DE00E9489060E94FD9D8EE020CE58
:1059F0008BE00E9489060E94FD9D80E127CE8BE00E
:105A00000E9489060E941B9E80E10E9489060E94D6
:105A10001B9E80915B03882339F08CE00E948906ED
:105A20000E94FD9D8FE04CCE8AE00E9489060E9474
:105A3000FD9D81E153CE8AE00E9489060E941B9E53
:105A400081E10E9489060E941B9E80915B0388234E
:105A500039F08BE00E9489060E94FD9D80E130CEE6
:105A600089E00E9489060E94FD9D82E137CE89E08F
:105A70000E9489060E941B9E82E10E9489060E9464
:105A80001B9E80915B03882339F08AE00E9489067F
:105A90000E94FD9D81E1CCCD88E00E9489060E9494
:105AA000FD9D83E1D3CD88E00E9489060E941B9E64
:105AB00083E10E9489060E941B9E80915B038823DC
:105AC00039F089E00E9489060E94FD9D82E1B0CDF7
:105AD00087E00E9489060E94FD9D84E1B7CD87E0A2
