:100000000C942D060C945E060C945E060C945E0611
:100010000C945E060C945E060C945E060C945E06D0
:100020000C945E060C945E060C945E060C945E06C0
:100030000C945E060C945E060C945E060C945E06B0
:100040000C945E060C945E060C945E060C945E06A0
:100050000C945E060C945E060C945E060C940AA446
:100060000C945E060C94E7A50C94BDA50C945E065A
:100070000C945E060C945E060C945E060C945E0670
:100080000C945E060C945E060C945E060C945E0660
:100090000C9493A50C9469A50C945E060C9403AD86
:1000A0000C945E060C945E060C945E060C945E0640
:1000B0000C945E060C945E060C945E060C945E0630
:1000C0000C945E060C945E060C945E060C945E0620
:1000D0000C945E060C945E060C943FA50C9415A53A
:1000E0000C945E0605A84CCDB2D44EB93836A902A0
:1000F0000C50B9918688083CA6AAAA2ABE00000026
:10010000803F07634236B79BD8A71A39685618AEA6
:10011000BAAB558C1D3CB7CC5763BD6DEDFD753E3C
:10012000F6177231BF000000803F08000000BE9249
:100130002449123EABAAAA2ABECDCCCC4C3E00002C
:100140000080BEABAAAAAA3E00000000BF000000CB
:10015000803F0000000000084178D3BB4387D113E3
:100160003D190E3CC3BD4282AD2B3E68EC8276BE8B
:10017000D98FE1A93E4C80EFFFBE01C4FF7F3F0055
:10018000000000000C94C5A80C94C03E0C9478921A
:100190000C948A920C94D8920C9472920C940598B8
:1001A0000C9486920C942C970C94CC900C9426A7CB
:1001B0000C94FD2B0C94DF8A0C94872C0C94093A38
:1001C0000C94C09F0C94120E0C94507A0C94909640
:1001D0000C9463A70C940A2B0C9462970C94683CC3
:1001E0000C948E960C94AC9F0C94C30D0C94B76732
:1001F0000C9496960C945A940C9483970C94D80D66
:100200000C94C2900C9467A80C94DC8B0C94D2A72D
:100210000C94C5670C949B970C948F970C94306C3E
:100220000C94A5060C94D86C0C949CA70C949AA7DB
:100230000C94DA0D0C94FC970C94A8060C9488A7E7
:100240000C945D920C94F38A0C942F710C940C3ADC
:100250000C94A3960C94D9970C9430550C946D97EC
:100260000C94F12D0C941BA00C94C6960C948292C5
:100270000C949A960C9472A70C94CD660C94D29F11
:100280000C94E1970C94E4780C947E960C9453B102
:100290000C949D920C9424AA0C94D6900C94F397F1
:1002A0000C94A1960C949F960C946B090C9404A347
:1002B0000C94B69F0C94CC960C94D06C0C94A7A77D
:1002C0000C9427710C94D52D0C947C940C94CA9F9B
:1002D0000C94D48B0C94FF0D0C94EF8A0C9498968C
:1002E0000C94DA6C0C94E28B0C94263F0C94909254
:1002F0000C9451A70C94352C0C9480960C94F52CEE
:100300000C94E12B0C9407A00C94B3A90C947B7A69
:100310000C94090E0C942D2D0C94DF940C9487A84A
:100320000C94C3670C94D9920C94DE0D0C9431AAF2
:100330000C9478970C944E970C949D090C941B91F7
:100340000C94BBA20C945C790C94AB8F0C94A92BED
:100350000C940C980C9425710C948F790C94812D2D
:100360000C9450930C9411A00C9498920C942BA77D
:100370000C94552B0C94F89F0C94DEA20C9479A746
:100380000C94E88B0C94D1960C9428A90C9486A715
:100390000C942B7A0C949F9F0C949C060C94BB6736
:1003A0000C94712B0C94D98A0C94E7790C94492DF8
:1003B0000C94E9930C9433710C94BBA70C94839424
:1003C0000C948D2B0C941A950C94D7920C94112D9F
:1003D0000C94A2090C9459940C949E920C94E4A24F
:1003E0000C94DA9F0C9413980C9465630C94CF9042
:1003F0000C94EE9F0C94C9960C9439790C94DD976B
:100400000C94BD790C941B790C94652D0C946F920F
:100410000C94512C0C948C960C9448970C947C96CC
:100420000C94637A0C944CA30C941E520C94EE8B97
:100430000C94A5AA0C9409790C9482960C9418A398
:100440000C94192C0C9467920C94BD2C0C94EB8A90
:100450000C94CC670C9493960C946B920C94CF965E
:100460000C94BF8A0C94DC6C0C942FA00C94D2A931
:100470000C94C52B0C9479960C942DB00C94392BBC
:100480000C9483550C949E2A0C94B92D0C942252F2
:100490000C940E3A0C948DA70C947C920C94103A08
:1004A0000C9432970C94360E0C94727A0C949492AD
:1004B0000C9490550C949E700C9484960C94869693
:1004C0000C9431710C949C960C94F9950C94E49FC7
:1004D0000C9431520C948A960C9463920C9470098B
:1004E0000C949D2D0C94F48B0C9442930C949D5879
:1004F0000C94A2060C94A2920C94B0940C94FBA8B9
:100500000C941F930C948D550C9498A90C942E93D5
:100510000C94F6A70C94097A0C94BE970C94CE6CAC
:100520000C9438970C94C1670C94C4960C9496065E
:100530000C94D4A20C941B0E0C94AC060C9474A7CF
:100540000C94D92C0C9439A00C947A960C94E78ACC
:100550000C94A12C0C94E7A70C949C930C9425A0CC
:100560000C94C9900C94C1970C9469940C94A79F17
:100570000C943EA80C9442A70C94C22A0C94DC0D57
:100580000C943E970C94E38A0C94EE2ADDDFE9EF9D
:10059000F3F6F9FBFDFE0001020304050607080956
:1005A0000A32002D280023001E000019000014004C
:1005B00000000F00000000000A0000000000000022
:1005C000000005645F5A55504B46413C3732002DC0
:1005D000280023001E0000190000140000000F0076
:1005E000000000000A0000000000000000000532CA
:1005F000373C41464B50555A5F645761726E696E85
:10060000673A2043616C63756C61746564206D7535
:1006100073696320636F756E7420657863656564C4
:1006200073206D6178696D756D20706F7373696289
:100630006C653B205344206361726420636F727267
:10064000757074696F6E206C696B656C79210057E9
:1006500061726E696E673A20547261636B20636FDA
:10066000756E7420646F6573206E6F74206D617495
:100670006368206669726D776172652120506C65D0
:100680006173652075706461746520746865206DA0
:100690006963726F5344206361726420736F756E77
:1006A0006420656666656374732E005761726E69B7
:1006B0006E673A2043616C63756C61746564206D8C
:1006C0007573696320636F756E7420657863656503
:1006D0006473206D6178696D756D20706F737369D7
:1006E000626C653B205344206361726420636F72C7
:1006F00072757074696F6E206C696B656C7921001E
:100700005761726E696E673A20547261636B206341
:100710006F756E7420646F6573206E6F74206D61E9
:10072000746368206669726D776172652120506C10
:1007300065617365207570646174652074686520F7
:100740006D6963726F5344206361726420736F75C7
:100750006E6420656666656374732E004E6F20417B
:100760007564696F20446576696365005761726ED0
:10077000696E673A205253505F53595354454D5F49
:10078000494E464F206E6F742072656365697665C9
:100790006421005573696E67205741562054726971
:1007A00067676572005573696E67204750537461BF
:1007B0007220417564696F2056657273696F6E3A75
:1007C0002000CED5DFE5E9ECEFF1F3F4F6F7F8F928
:1007D000FAFBFCFDFEFF00450515253544342414C5
:1007E0000443332313030212223242413121110107
:1007F00000102030404030201000011121314142D2
:1008000032221202031323334304142434443525C3
:100810001505453738393A3B3B3A3938370010200F
:100820003001112131021222320313233304142424
:1008300034051525350616263636261606352515B1
:1008400005342414043323130332221202312111FC
:10085000013020100000050B11171D00040B1016AD
:100860001B000102030405060708090A0B0C0D0E04
:100870000F101112131415161718191A1B1C1D1E10
:100880001F20212223302F2E2D2C2B2A29282726EA
:1008900025000102030405060708090A0B0C0D0ECA
:1008A0000F101112131415161718191A1B1C1D1EE0
:1008B0001F2021222331302F2E2D2C2B2A292827AF
:1008C0002600191830011A172F021B162E031C15AB
:1008D0002D041D142C051E132B061F122A07201190
:1008E000290821102809220F270A230E260B240D80
:1008F00025000000000000000000000000010101D0
:1009000001010101010202020202020303030304C6
:100910000404040505050506060607070708080878
:100920000909090A0A0B0B0B0C0C0D0D0E0E0F0F0B
:10093000101011111212131314141515161717187D
:1009400018191A1A1B1C1C1D1E1E1F2020212223D1
:1009500023242526262728292A2A2B2C2D2E2F2F03
:1009600030313233343536373838393A3B3C3D3E16
:100970003F4041424344454647494A4B4C4D4E4F08
:100980005051525455565758595B5C5D5E5F6162D9
:100990006364666768696B6C6D6F7071737475778B
:1009A00078797B7C7E7F808283858688898B8C8E1C
:1009B0008F9192949597989A9B9D9EA0A2A3A5A68D
:1009C000A8AAABADAFB0B2B4B5B7B9BABCBEC0C1DE
:1009D000C3C5C7C8CACCCECFD1D3D5D7D9DADCDE10
:1009E000E0E2E4E6E8E9EBEDEFF1F3F5F7F9FBFD22
:1009F000FF47657474696E672057616E642050729A
:100A000065666572656E6365730047657474696ECB
:100A10006720536D6F6B6520507265666572656EF9
:100A200063657300536176696E672057616E642059
:100A3000507265666572656E636573005061636BC5
:100A40002053796E6320456E64005061636B2053C0
:100A5000796E63205374617274005061636B20700F
:100A6000726F746F636F6C206D69736D617463680E
:100A70002100526563762E2053796E632050617990
:100A80006C6F616400526563762E20536D6F6B65E9
:100A900020436F6E66696700526563762E2057614A
:100AA0006E6420436F6E66696700526563762E2020
:100AB0004D6573736167653A2000526563762E2039
:100AC000436F6D6D616E643A200000000000641099
:100AD000B71DC8206E3BAC30D9269041DC76F4516E
:100AE0006B6B5861B24D3C7105502083B8ED449357
:100AF0000FF0E8A3D6D68CB361CBB0C2649BD4D23E
:100B0000D38678E20AA01CF2BDBD000021002400BB
:100B100027002A002D0030003300010100000401ED
:100B200007010A0100002200250028002B002E00EA
:100B30003100340002010000050108010B01000032
:100B400020002300260029002C002F003200000185
:100B50000000030106010901050505050705080850
:100B60000808020202020A0A080804040404010137
:100B7000010101010101030303030303030304074C
:100B800007070C0C0C0C0C0C0C0C020202020606E3
:100B90000606060606060B0B0B0B0B0B0B0B0102D6
:100BA000102020080810204010204080020102017F
:100BB0000804020101020408102040808040201037
:100BC0000804020180040201804020100804020190
:100BD00008040201010204081020408001020408F8
:100BE0001020408000000A0B02090C0D0E080703BC
:100BF00004010000000000000000000000000000F0
:100C000000000000000000000000000000000000E4
:100C100012111000000000000000000000000000A1
:100C2000000000000000000000004552524F523A00
:100C3000204E6F2063616C6C6261636B2061766132
:100C4000696C61626C6520666F72207061636B65B0
:100C500074204944200053B12DB011241FBECFEFA2
:100C6000D1E2DEBFCDBF00E00CBF13E0A0E0B2E0F8
:100C7000E4E0F6E801E00BBF02C007900D92A43457
:100C8000B107D9F72DE0A4E4B3E001C01D92AB3D5C
:100C9000B207E1F716E0CCE2D6E000E006C021970B
:100CA0000109802FFE010E945ABDCB32D10780E09E
:100CB0000807A9F70E94CAB50C94F0C20C94000072
:100CC00090913A049C3131F4E82FF0E0E55AF74F67
:100CD000849108959E3129F4E82FF0E0EB5AF74F04
:100CE000F7CF81E0089520913A0490916703E82FAF
:100CF000F0E02C3149F4992321F0E75CF74F84911F
:100D00000895E35EF74FFBCF2E3141F4992319F09C
:100D1000EB50F84FF4CFE952F84FF1CF992319F087
:100D2000E85EF74FECCFED5EF74FE9CF80917103AE
:100D30008F5F809371030895809170038F5F80931C
:100D40007003089590E080E00895FC0164870895A1
:100D5000FC01848590E00895FC01868597850895BF
:100D60001092810384E6809315021092820345E07D
:100D700050E060E070E080E798E00C94BFAC0F9327
:100D80001F93CF93DF9300D000D0CDB7DEB78FEFA6
:100D90009FEFDC0189839A83AB83BC8310E000E082
:100DA0001E830D83BE016B5F7F4FCE0101960E94B3
:100DB00090A6BE016A5F7F4FCE0101960E9490A669
:100DC0000F5F1F4F0732110559F78FE190E09E83A7
:100DD0008D83BE016B5F7F4FCE0101960E9490A66E
:100DE000BE016A5F7F4FCE0101960E9490A688E007
:100DF00090E09E838D83BE016B5F7F4FCE01019695
:100E00000E9490A6BE016A5F7F4FCE0101960E94AC
:100E100090A669817A818B819C816095709580957F
:100E2000909526960FB6F894DEBF0FBECDBFDF912A
:100E3000CF911F910F910895209154043091550442
:100E4000215031092330310518F460E00C943898B2
:100E50000895FF920F931F93CF93DF93EC01F62E2B
:100E600008811981C8010E948FBCF81621F06F2DEE
:100E7000C8010E9497BCCE01DF91CF911F910F91C5
:100E8000FF900895EF92FF920F931F93CF93DF93FC
:100E900000D000D0CDB7DEB70E94BF0669837A8349
:100EA0008B839C83CE0101967C010CEF1FE01E8397
:100EB0000D83F70161917F01CE0105960E942907FC
:100EC0000F5F1F4F0115F0E11F0789F726960FB638
:100ED000F894DEBF0FBECDBFDF91CF911F910F9170
:100EE000FF90EF900895E2E0F1E080818F7D8083B4
:100EF00080818F7B80831098119880E00E94446EDF
:100F000080E00E94D56DE6ECF7E01086118608952A
:100F10002091360430913704A901435051094230E1
:100F2000510518F02630310511F4882399F190917C
:100F3000FB0A2091FC0A291303C0811118C00895EF
:100F40002917A8F481E0809351034EE150E060E05E
:100F500070E09230D9F070F449E150E060E070E068
:100F60009130A1F04CE350E060E070E00FC01092CF
:100F70005103EBCF44E250E060E070E0933031F099
:100F80004DE250E060E070E0943061F788E998E06D
:100F90000C94BFAC08956091FB0A70E086E091E08C
:100FA0000C94967ACF93C82F84E0C530F0F00E945D
:100FB000730660E00E94C29E83E00E94730660E0B8
:100FC0000E94C29E82E00E94730660E00E94C29E60
:100FD00081E00E94730660E00E94C29E80E00E9451
:100FE000730660E0CF910C94C29E0E94730661E08C
:100FF0000E94C29EC43001F383E00E94730661E048
:101000000E94C29EC330F1F282E00E94730661E04A
:101010000E94C29EC230E1F281E00E94730661E04C
:101020000E94C29EC111DACF80E00E94730661E087
:10103000D9CFEF92FF920F931F93CF93DF938EEE52
:1010400097E00E948FAC882341F040E951E060E0D6
:1010500070E08EEE97E00E94BFAC80913A0410E001
:101060008E3109F012E08EEE97E00E9449AC683CA8
:1010700071058105910508F0DFC0C0914104CC23C2
:1010800091F08091360490913704069759F480913D
:101090001402853039F4C1E0809177039091780390
:1010A000892B09F0C0E08091FD0A8D7F813089F4A1
:1010B0008091360490913704069759F48091140278
:1010C000853039F48091770390917803019709F482
:1010D000C1E080911F028A3B69F4809136049091AF
:1010E0003704069739F4D1E0809177039091780323
:1010F000892B09F0D0E080915E03882379F020915C
:101100003604309137042630310541F420917703BD
:10111000309178032130310509F4D82F80913A04B9
:101120008C3169F105E08E3159F180E0DD2309F45D
:101130007BC00E94730660E00E94C29E81E00E9414
:10114000730661E00E94C29E82E00E94730661E025
:101150000E94C29E83E00E94730661E00E94C29ECC
:1011600084E0CC2309F464C00E94730660E0DF9140
:10117000CF911F910F91FF90EF900C94C29E04E0CD
:10118000CC2379F1C0E08EE190E07C01E11AF10816
:10119000CE151F04ACF4CC2369F0DD2311F0C01789
:1011A00010F0C93138F08C2F0E9473060E94189DF0
:1011B000CF5FEECF8C2F0E9473060E94FA9CF8CF6F
:1011C00080913A048E3129F48DE10E9473060E94C9
:1011D000FA9CDF91CF911F910F91FF90EF900C94AB
:1011E00084A1DD23C9F0C0E08EE190E07C01E11A2A
:1011F000F108CE151F046CF78C2FCC2341F0C017DB
:1012000030F40E9473060E94189DCF5FF2CF0E94B7
:1012100073060E94FA9CF9CFDF91CF911F910F9135
:10122000FF90EF900C947AA10E94730661E084CF46
:101230000E94730661E09BCF80911402833009F411
:10124000BDC068F4813009F40BC1823009F4E3C0F9
:10125000DF91CF911F910F91FF90EF90089584300F
:1012600009F47BC08530A1F780913A048C3109F4F0
:1012700039C08E3109F068C0C1E08EE190E09C0178
:10128000211B31098901C01711060CF0A2CFEBEF29
:10129000EC0FE93100F5F0E08827EE5AF64F8F4F5A
:1012A0000C945ABD700970096B096B096B096B09C5
:1012B000700970096B096B096B096B09700970097A
:1012C0006B096B096B096B09700970096B096B0974
:1012D0006B096B0970098C2F0E9473060E94189D80
:1012E000CF5FD1CFC1E08EE190E09C01211B31099D
:1012F0008901C01711060CF06CCFECEFEC0FE53153
:10130000E0F4F0E08827E857F64F8F4F0C945ABD71
:10131000A209A209A2099D099D099D09A209A20984
:10132000A2099D099D099D09A209A209A2099D0979
:101330009D099D09A209A209A2098C2F0E9473068A
:101340000E94189DCF5FD5CF85E0DF91CF911F918F
:101350000F91FF90EF900C94D20780913A048C315A
:1013600049F18E3149F5C1E0CD3038F48BEFCB3007
:1013700028F0CF5FC731C1F72CCF8FEE8C0F8230B2
:10138000C0F38C2F0E9473060E94189DF2CFCD30BF
:1013900038F48CEFCA3028F0CF5FC631C1F719CFCF
:1013A00080EF8C0F8330C0F38C2F0E9473060E9455
:1013B000189DF2CFC1E0F8CF84E0C7CF80913A0406
:1013C0008C3129F18E3129F5C1E0C53030F0C730BC
:1013D00048F085EF8C0F823028F08C2F0E94730626
:1013E0000E94189DCF5FC13181F7F3CEC43030F039
:1013F000C73048F086EF8C0F833028F08C2F0E9486
:1014000073060E94189DCF5FC03181F7E2CEC1E024
:10141000F5CF83E09ACF80913A048C31E9F08E3198
:10142000E9F4C1E08BEF8C0F823028F08C2F0E9402
:1014300073060E94189DCF5FCB30A1F7CACE8CEF08
:101440008C0F833028F08C2F0E9473060E94189D09
:10145000CF5FCA30A1F7BDCEC1E0F5CF82E075CF36
:1014600080913A048C3161F08E31A1F4C1E08C2F6F
:101470000E9473060E94189DCF5FC530C1F7A9CEA8
:10148000C1E08C2F0E9473060E94189DCF5FC4306C
:10149000C1F79FCE81E059CFEF92FF920F931F9338
:1014A000CF93DF9300D01F921F92CDB7DEB780910C
:1014B0003A048D7F8C3109F0EAC088E998E00E94F7
:1014C0008FAC882309F455C080913A04F12C8E31F9
:1014D00011F082E0F82E85E0E5E3F2E0DE011196FE
:1014E00001900D928A95E1F7809103029091040298
:1014F000019731F48AE089838A838B838C838D837F
:1015000080915203282F30E00EE110E00F191109ED
:1015100090915103992309F45CC02017310724F4FA
:101520000E9473060E948FA18091FB0A9FEF980F83
:101530009430F0F50E94600690915203981728F1BC
:101540001092510380910302909104024AE550E009
:1015500060E070E0019739F51092A0081092A108A0
:1015600080915103882329F0809152038F5F8093EB
:1015700052030F900F900F900F900F90DF91CF912B
:101580001F910F91FF90EF900895E091FB0AEC0FEF
:10159000FD2FF11D408184E0489FA0011124052EFC
:1015A000000C660B770B88E998E00E94BFACD8CF9F
:1015B000909152039017110641F03CF010925103A4
:1015C0008EE18F1980935203BDCFFE01E80FF11D0C
:1015D000E1CF2017310724F40E9473060E9488A1EE
:1015E000F0905203F11016C081E0809351034AE558
:1015F00050E060E070E088E998E00F900F900F9065
:101600000F900F90DF91CF911F910F91FF90EF906E
:101610000C94BFACFA94F0925203EE24E3948091C0
:101620003A048E3109F4E12C8091FB0A20910302E7
:10163000309104029FEF980F9430F8F42130310577
:1016400069F40E9460068E0D9927991FF8161906F5
:101650002CF41092A0081092A1088BCFE091FB0A05
:10166000EC0FFD2FF11D408184E0489FA001112463
:10167000052E000C660B770BBECF2130310519F417
:10168000F016110634F3FE01E80FF11DECCF809146
:10169000FB0A8230C9F020F4813041F085E007C0B8
:1016A0008330A1F08430D1F784E001C081E00F9055
:1016B0000F900F900F900F90DF91CF911F910F918E
:1016C000FF90EF900C94D20782E0F1CF83E0EFCF50
:1016D0000F931F93CF93DF9390913A048091FB0A6D
:1016E0009C3169F0D0E09E3159F0823009F452C04B
:1016F00008F042C0813009F446C085E045C0D2E020
:1017000081502D2F30E0C0E00EE110E0021B130BE2
:10171000843018F5C01711069CF48091FB0A0E94D2
:1017200060068C1738F08C2F0E9473060E94189D5B
:10173000CF5FF0CF8C2F0E9473060E94FA9CF8CFE7
:101740000E9484A18091FB0A0E946006809352034C
:10175000DF91CF911F910F910895C01711063CF4AE
:101760008C2F0E9473060E94189DCF5FF6CF0E94B7
:1017700084A18EE18D1BEACF833071F0843009F0B3
:10178000BCCF84E001C081E0DF91CF911F910F9128
:101790000C94D20782E0F8CF83E0F6CF8091030269
:1017A00090910402019739F480E190E09093170240
:1017B00080931602089583E090E09093170280933F
:1017C00016028091360490913704049751F080916D
:1017D000F50A823079F78091380490913904892B89
:1017E00049F786E090E0E2CFCF9380913A048C31C4
:1017F00009F0E5C0809152038C3118F1883308F06C
:1018000040C097E3981B892F20913604309137040C
:101810002430310521F0909175039923A1F10E94A4
:1018200073060E9488A180915203873309F0E8C0B3
:101830001092CF081092D0081092510310925203C8
:1018400020C00E9473060E948FA1809152038F5F77
:10185000809352038C3109F0EDC04AE550E060E01E
:1018600070E087EC98E00E94BFAC809103029091F9
:101870000402019731F488E090E09093170280937E
:101880001602CF91089520910302309104029091A5
:10189000FB0A953018F42130310511F0232B21F487
:1018A0000E9473060E9488A1809103029091040215
:1018B0000097E9F0019729F7809152039091FB0A74
:1018C000923009F45EC058F5913009F467C087334F
:1018D000B1F51092A0081092A1081092CF081092B2
:1018E000D008109251038BE18093520315C0809170
:1018F00052038733D9F54AE550E060E070E088E9AB
:1019000098E00E94BFAC1092CF081092D00881E0FE
:101910008093510310925203CF910C94CE0B9330CD
:10192000C9F09430A1F6803241F41092CF081092A1
:10193000D0081092510386E1D7CF8132B8F01092CF
:10194000CF081092D00891E09093510397E3981B31
:10195000892FCACF863241F41092CF081092D00856
:101960001092510380E1C0CF873248F740911602B0
:1019700050911702440F551F440F551F70E060E04F
:1019800043C08B3241F41092CF081092D0081092CD
:1019900051038BE0A9CF8C3248F3D1CF823341F48D
:1019A0001092CF081092D0081092510384E09CCF7F
:1019B0008333E0F21092CF081092D008C5CF8E3159
:1019C00009F0C0C0809152038E3140F18C3308F091
:1019D00058CF9BE3981B892F209136043091370410
:1019E0002430310521F090917503992391F10E94E3
:1019F00073060E9488A1809152038B3309F418CF9B
:101A000040E550E060E070E087EC98E00E94BFACF9
:101A1000809152038F5F8093520333CF0E947306ED
:101A20000E948FA1809152038F5F809352038E3169
:101A300009F413CF4091160250911702440F551F1D
:101A4000440F551F70E060E087EC98E0CF910C9454
:101A5000BFAC20910302309104029091FB0A9530B3
:101A600018F42130310511F0232B21F40E94730664
:101A70000E9488A180910302909104020097E1F0F6
:101A8000019709F0FECE809152039091FB0A9230AB
:101A900009F440C0B8F4913009F442C08B3319F511
:101AA0001092A0081092A1081092CF081092D008AE
:101AB000109251038DE118CF809152038B3309F0BE
:101AC00055CF19CF9330C1F0943041F7833241F4B0
:101AD0001092CF081092D0081092510387E104CFE2
:101AE000843208F443CF1092CF081092D00891E0CE
:101AF000909351039BE32BCF893241F41092CF088E
:101B00001092D0081092510381E1EECE8A3208F48F
:101B10002DCFE9CF8F3209F436CF08F427CFE3CFAA
:101B2000853341F41092CF081092D00810925103DF
:101B300085E0DACE863308F419CF1092CF081092E0
:101B4000D008D6CF8091360490913704049721F0C5
:101B500080917503C1E08111C2E0E0915403EA3045
:101B600008F08FCEF0E08827E754F24F8F4F0C94A7
:101B70005ABDC30DD80DDA0DDC0DDE0DFF0D090EBB
:101B8000120E1B0E360E81E00E94D20788E7C89F16
:101B9000A0011124052E000C660B770B87EC98E052
:101BA0000E94BFAC809154038F5F8093540369CE31
:101BB00082E0EACF83E0E8CF84E0E6CF85E00E94D0
:101BC000D20780915403282F30E02F5F3F4F909130
:101BD000FB0A9217130639F420913604309137042A
:101BE00024303105E1F58F5F8093540388E7C89F67
:101BF000A0011124052E000C660B770B25CF84E085
:101C00000E94D20780915403482F4150550B9A01EE
:101C1000DECF83E00E94D20780915403482F4350C7
:101C2000550BF5CF82E00E94D20780915403482FD4
:101C30004550550BECCF81E00E94D20780915403B0
:101C40008750990B2091FB0A2817190609F09ECF9F
:101C50008091360490913704049709F497CF10923D
:101C6000CF081092D008109254030BCE80E00E944F
:101C7000D207F5CF0F931F93CF9380913A0490E052
:101C80008E3109F092E02EE1291B2093520325E0CA
:101C9000209354038D7F8C31F1F4C0E00EE110E00D
:101CA000091B1109C01711063CF48C2F0E94730602
:101CB0000E94189DCF5FF6CF0E9484A148E750E0B4
:101CC00060E070E087EC98E00E94BFACCF911F917C
:101CD0000F910C94F40B85E00E94D207EFCF809116
:101CE0003A048D7F8C3121F40E947AA11092520324
:101CF00008950E946F0E1092F6071092F7078091D8
:101D00006B03811112C00E94CE0B80913A048D7F2B
:101D10008C3149F48091030290910402019719F4E7
:101D200080E00E9488070C94F40B0895EAEAFAE038
:101D30001086118610924D0370E060E08BE00C94E9
:101D4000679F4091000B4330F1F090910802992376
:101D5000D1F020913604309137042430310599F0C8
:101D60009091750391110FC090913404992359F00B
:101D7000882349F090911408423081F423303105D2
:101D800069F091110BC00C94960E8217D9F08093D4
:101D90004D03682F70E08BE00C94679F20914D03FA
:101DA000992399F3682F70E0660F771F6F3F7105D5
:101DB00019F014F06FEF70E02617170619F0609312
:101DC0004D03E9CF089580916803823061F028F4D3
:101DD000813069F08091F70A0895833031F08430C2
:101DE000C9F785E0089583E0089584E0089582E0CE
:101DF0000895109296081092970810928C081092ED
:101E00008D0880916F0381110BC00E94E30E8450F6
:101E10008230A0F48091380490913904019771F4D4
:101E2000109A0E94E30E8450823030F4809138047E
:101E300090913904019721F0119808951098F1CFED
:101E4000119A089580913B0481110C94E30E8091C6
:101E5000F70A08950E94220F853059F48091880373
:101E6000811107C09091F80A81E0992321F0973001
:101E700011F080E0089508950F931F93CF93DF939F
:101E80001F921F92CDB7DEB710E000E01A830983DE
:101E90006FEFCE0101960E9429070F5F1F4F0F3190
:101EA0001105A1F70E9442070F900F90DF91CF918B
:101EB0001F910F910895EF92FF920F931F93CF936D
:101EC000DF9300D000D000D01F92CDB7DEB7509185
:101ED0000E0240910D0280910C0231E0811132E03E
:101EE00080910B0291E0811192E08091430421E006
:101EF000811122E080916A0381112FC081E06091FD
:101F000013026983609112026A833B835C834D8371
:101F10002E839F838887CE0101967C010FE110E01C
:101F20001A870987F70161917F01CE0109960E9406
:101F300029070F5F1F4F0732110591F70E944207D3
:101F40002A960FB6F894DEBF0FBECDBFDF91CF91BA
:101F50001F910F91FF90EF90089582E0D0CF0F93E3
:101F60001F93CF93DF931F921F92CDB7DEB70FE180
:101F700010E01A8309836FEFCE0101960E942907B2
:101F80000F5F1F4F07321105A1F70E9442070F9004
:101F90000F90DF91CF911F910F910895809154047C
:101FA000909155040197039710F40C94AE980895FE
:101FB000CF93DF93CDB7DEB764970FB6F894DEBF4B
:101FC0000FBECDBF209154043091550421503109EA
:101FD0002230310580F4FE01319694E1DF011D923B
:101FE0009A95E9F795E0998381110EC083E18D837D
:101FF000CF010E94D39664960FB6F894DEBF0FBE51
:10200000CDBFDF91CF91089582E1F1CF809154044B
:10201000909155040197039708F03BC160914807E0
:10202000062E000C770B8CE390E00E946198609183
:102030004807062E000C770B8AE691E00E94619813
:1020400060914807062E000C770B81E290E00E9419
:10205000619860914807062E000C770B8DE190E0A7
:102060000E94619860914807062E000C770B8EE164
:1020700090E00E94619860914807062E000C770B53
:102080008FE190E00E94619860914807062E000C55
:10209000770B80E290E00E94619880913B04882356
:1020A000D1F08091F80A823069F0833009F4DBC006
:1020B000813089F460914807062E000C770B84E983
:1020C00091E007C060914807062E000C770B83E96A
:1020D00091E00E94619880916F038823B9F180910B
:1020E000F80A823009F4C7C0833081F16091480753
:1020F000062E000C770B813009F4C5C08EE791E005
:102100000E94619860914807062E000C770B89E8C1
:1021100091E00E94619860914807062E000C770BB1
:1021200083E690E00E94619860914807062E000CBB
:10213000770B88E490E00E94619860914807062E32
:10214000000C770B82E690E00E9461988091740306
:10215000882371F00E94220F60914807062E000C20
:10216000770B853009F092C084E991E00E94619874
:102170000E94E30E8450823008F08BC060914807C3
:10218000062E000C770B8EE890E00E94619860911B
:102190004807062E000C770B80E990E00E946198BA
:1021A00060914807062E000C770B8DE890E00E94A6
:1021B000619860914807062E000C770B8FE890E03D
:1021C0000E94619860914807062E000C770B83E906
:1021D00090E00E94619860914807062E000C770BF2
:1021E00081E990E00E94619860914807062E000CFA
:1021F000770B82E990E00E94619860914807062E73
:10220000000C770B84E990E00E9461986091480788
:10221000062E000C770B82E190E00E94619860919D
:102220004807062E000C770B83E190E00E9461982E
:1022300060914807062E000C770B84E190E00E9425
:10224000619860914807062E000C770B85E190E0BD
:102250000E94619860914807062E000C770B86E17A
:1022600090E00C94619860914807062E000C770B63
:1022700087E491E02ECF60914807062E000C770B83
:1022800084E390E061CF8AE390E05ECF8BE691E05B
:102290006DCF0895E82F80918403882391F01E1656
:1022A0003CF40E2E000CFF0BE151FA4F849108957F
:1022B000EF3D94F0FF27E1950CF4F095EF55FA4FC0
:1022C000F5CFE53D4CF01E164CF0FF27E1950CF4E0
:1022D000F095ED53FA4FEACF80E0089584E6089533
:1022E0002F923F924F925F926F927F928F929F9226
:1022F000AF92BF92CF92DF92EF92FF920F931F9314
:10230000CF93DF93CDB7DEB7A6970FB6F894DEBFB5
:102310000FBECDBF80914A070E944A11682E80915E
:10232000FD0A12E0813031F011E0833019F412E03F
:1023300042E001C041E08091FA0AEE24E394E80E05
:10234000F090870380910502BB24B394882311F099
:1023500072E0B72E80910602CC24C394882311F03A
:1023600062E0C62E80911002DD24D394882311F000
:1023700052E0D52E80910A0281110EC1E1E0EAA35C
:102380008091690381110BC1E1E0EBA380916703A8
:1023900001E0811102E080916B035524539488235E
:1023A00011F032E0532E8091F50A44244394823098
:1023B00011F422E0422E80910702332433948823C3
:1023C00011F092E0392E80918403222423948823F3
:1023D00011F082E0282E809120029091210228EEB7
:1023E00033E0B9010E9432BD762E80912202909195
:1023F0002302B9010E9432BD862E80912402909161
:102400002502B9010E9432BD962E8091260290913C
:102410002702B9010E9432BDA62E80912802909118
:102420002902B9010E9432BD80912A0271E0811116
:1024300072E08091DB08B1E08111B2E08091DC08AC
:102440008111B0C051E05CA38091DD088111ADC065
:1024500091E09DA38091E3088111AAC0F1E0FEA361
:10246000809165039091660322E08130910521F00F
:1024700023E0029709F021E08091610390916203CB
:102480008130910509F499C0029709F094C093E056
:10249000E0916803E15081E0E43020F4F0E0E35C97
:1024A000FD4F8081E0915F03F091600332E0E13005
:1024B000F10521F034E0329709F031E0E4E651E033
:1024C000560DE61508F455E6E0916303F0916403B8
:1024D000A2E0E130F10521F0A3E0329709F0A1E09C
:1024E000E0910902E150E33008F069C0F0E0E65CF9
:1024F000FD4FE08119834A83EB82FC82BD82CE824C
:10250000DF82FAA1F8874BA149870A872B879C872E
:102510005D868E873F87488A398A2A8A5B8B7C8AC8
:102520008D8A9E8AAF8A688F798FBA8F5CA15B8F04
:102530008DA18C8F9EA19D8FAE8FEF8FFE01319666
:102540007F0110E000E019A308A3F70161917F016A
:10255000CE0180960E9429070F5F1F4F0F31110592
:1025600091F70E944207A6960FB6F894DEBF0FBE01
:10257000CDBFDF91CF911F910F91FF90EF90DF9032
:10258000CF90BF90AF909F908F907F906F905F9013
:102590004F903F902F900895F2E0FAA3F1CEF2E031
:1025A000FBA3F4CE82E08CA34FCFE2E0EDA352CFA9
:1025B00052E05EA355CF91E06BCF92E069CFE4E0AB
:1025C00099CF282F853608F024E6822F65E00E94F7
:1025D00018BD992361F0822F90E0029665E070E0CB
:1025E0000E9446BD862F880F880F282F260F822F26
:1025F00065E00E9418BDE82FF0E0809184038823F5
:1026000021F0E457FA4F84910895EE53F84FFBCF31
:1026100080913C0490913D04181619060CF067C097
:1026200080913E0490913F04843F21E0920708F49A
:102630005EC021E02093420440913B042091540469
:10264000309155042230310599F12330310519F0CC
:102650002130310509F54423F9F02091410461E06E
:10266000211101C060E00E94389860914707062E52
:10267000000C770B80913E0490913F040E9461987A
:1026800061E080913E0490913F040E9487980E94EF
:10269000AE9881E08093B00780913B04882339F1A4
:1026A00040E157E260E070E08BE497E00C94BFAC4F
:1026B000442391F32091410461E0211101C060E0C5
:1026C0000E94389860914707062E000C770B809186
:1026D0003E0490913F040E94619850E040E061E028
:1026E00080913E0490913F040E949999D0CF089523
:1026F0002091540430915504215031092330310583
:1027000010F40C94739B08958DEB91E00E94781364
:1027100084E991E00E9478138BE691E00E9478139F
:102720008CE691E00C9478130E94220F8250823044
:1027300020F08AE691E00C9478138CE390E0FBCFD4
:10274000E2E0F9E010861186E8EFF8E010861186E5
:102750008DE890E00E9478138EE890E00E94781354
:102760008FE890E00E94781380E990E00E9478134F
:1027700081E990E00E94781382E990E00E9478134A
:1027800083E990E00E94781384E990E00C94781338
:10279000CF93C82F8091FB0A813051F010F0843024
:1027A000E0F08DE190E00E94781380E290E002C0BA
:1027B00081E290E00E947813CC23F1F080913B04F9
:1027C0008823D1F08091F80A823071F0833089F04B
:1027D000813091F484E991E009C081E290E00E94A7
:1027E00078138DE190E0E6CF83E991E0CF910C94EE
:1027F000781387E491E0FACFCF9108959091C009C2
:102800008091BB0998131AC09091050A8091000A23
:10281000981314C090914A0A8091450A98130EC0EB
:102820008091380490913904019741F448EE53E0C7
:1028300060E070E08AE798E00E94BFAC8091860378
:10284000882309F459C0109286039091C0098091A1
:10285000BB09981312C09091050A8091000A981341
:102860000CC090914A0A8091450A981306C0809145
:10287000380490913904019719F182E190E00E94A7
:10288000781383E190E00E94781384E190E00E9445
:10289000781385E190E00E94781386E190E00E9431
:1028A000781380911002882321F084EE90E00E943A
:1028B000457C40E050E0BA018AE798E00C94BFAC58
:1028C00082E190E00E941C0783E190E00E941C07D7
:1028D00084E190E00E941C0785E190E00E941C07C3
:1028E00086E190E00E941C0780911002882321F06D
:1028F00085EE90E00C94457C0895AF92BF92CF9204
:10290000DF92EF92FF920F931F93CF93DF93CDB798
:10291000DEB764970FB6F894DEBF0FBECDBF5C0183
:10292000F62EC42E14160CF4C12C8AEBC81614F41F
:102930008AEBC82E80915404909155048230910501
:1029400009F449C08330910511F0019799F50C2CD9
:10295000000CDD082223F9F06AEB7FEFC5010E942D
:1029600061986E2DC5010E948798FE01339682E121
:10297000DF011D928A95E9F78CE08983BB82AA82E8
:102980008AE08D83DD86CC861A870987CE01019681
:102990000E94D39608C0B601C5010E9461986E2DB1
:1029A000C5010E94879861E0F11001C060E0C50197
:1029B0000E94389864960FB6F894DEBF0FBECDBF64
:1029C000DF91CF911F910F91FF90EF90DF90CF900B
:1029D000BF90AF9008950C2C000CDD08222361F00D
:1029E0006AEB7FEFC5010E94619850E040E06E2DD8
:1029F000C5010E949999B9CFB601C5010E9461989D
:102A000050E040E06E2DC5010E949999CCCFEF9225
:102A10000F931F9390911A02981781F1943070F5DB
:102A20008430E9F484EC90E00E94457C0E94220FFF
:102A30008250EE24E39410E000E020E0409148074B
:102A400061E08230C0F08AE691E00E947D1444E6A5
:102A500050E060E070E08EE898E00E94BFAC8091AA
:102A60001A028F5F80931A0289E190E01F910F9103
:102A7000EF900C94457C8CE390E0E7CF1F910F9191
:102A8000EF900895EF920F931F93CF93809163037C
:102A900090916403C091FF0A009721F59091360947
:102AA00080913109981731F1C23031F10E94E30E63
:102AB000CC2309F46CC0909110028450823008F449
:102AC00054C0992321F08AE790E00E94457CEE24CF
:102AD000E39410E000E020E04091480760E08DE8DA
:102AE00091E053C0019701F7909136098091310927
:102AF0009817D1F2C13059F481E09091FF0A9230D9
:102B000009F080E0CF911F910F91EF900895CC23B1
:102B1000A1F080911002882321F082EB90E00E94C6
:102B2000457CEE24E39410E000E020E0409148076B
:102B300060E086E991E00E947D140E94E30E8250DD
:102B4000823058F48091F50A813039F41092DF0A0E
:102B50001092E00A80E00E94446E8BE590E00E94B3
:102B6000457C81E08093FF0AC7CF992321F086ED51
:102B700090E00E94457CEE24E39410E000E020E029
:102B80004091480760E081EB90E00E947D140E9434
:102B9000E30E8250823070F48091F50A813051F456
:102BA000409118025091190270E060E087ED9AE0C0
:102BB0000E94BFAC8AE590E00E94457C82E0D2CFC3
:102BC000EF920F931F9380913B04882371F1109231
:102BD000EC081092ED0887E591E00E947813EE244E
:102BE000E39410E000E020E04091480760E088E5D1
:102BF00091E00E947D148091F80A8230B1F48091B6
:102C0000380490913904019781F49091050A8091DC
:102C1000000A98130AC004E813E021E04091480735
:102C200061E083E991E00E947D14109237041092D4
:102C300036041F910F91EF900895EF920F931F9319
:102C4000809185038823B1F10E94E30E8250823087
:102C5000B8F589E491E00E9478138CE491E00E9439
:102C600078138DE491E00E94781381E00E94C813EC
:102C700080913604909137040497E1F080917403B9
:102C8000811118C080911002882321F08CEC90E013
:102C90000E94457C81E190E00E947813EE24E39449
:102CA00010E000E020E04091480760E081E190E022
:102CB0000E947D14109285031F910F91EF9008954B
:102CC0008091100220913604309137042430310570
:102CD00051F090917503911106C020913804309104
:102CE0003904232B99F4882321F084ED90E00E948D
:102CF000457CEE24E39410E000E020E0409148079A
:102D000060E084E990E00E947D1430C090917403EB
:102D100091112CC0882321F083ED90E00E94457C26
:102D200049E557E060E070E082E099E00E94BFACC6
:102D300010920009109201098CE30E942DA221E05B
:102D400030E049E557E060E070E08DE20E94EAA1E2
:102D500080915404909155040297E9F440914807FA
:102D60006EE870E082E990E00E94999B80911002E9
:102D7000882321F085ED90E00E94457C8FE890E06B
:102D80000E94781383E990E00E94781380E990E034
:102D90000E9478138FCFEE24E39410E000E020E04F
:102DA0004091480760E082E990E0ADCFEF920F9349
:102DB0001F930E94A01380911002882321F08FECB2
:102DC00090E00E94457C48EE56E060E070E082E0D2
:102DD00099E00E94BFAC8EE10E942DA221E030E07C
:102DE00048EE56E060E070E08DE20E94EAA180913A
:102DF000540490915504029771F4409148076EE88D
:102E000070E08DE890E00E94999B109202021F9161
:102E10000F91EF900895EE24E39410E000E020E09D
:102E20004091480760E08DE890E00E947D14EDCF6E
:102E3000EF920F931F93CF93C82F40914807809133
:102E4000FB0A813020F0833058F0853060F1EE24A9
:102E5000E39408EE13E02C2F61E080E290E008C0DC
:102E6000EE24E39408EE13E02C2F61E081E290E081
:102E70000E947D1480913B04882351F1CC2341F1C1
:102E80008091F80A8230C1F0833039F1813001F548
:102E9000EE24E39404E813E021E04091480761E068
:102EA00084E991E013C0EE24E39408EE13E02C2FA4
:102EB00061E08DE190E0DCCFEE24E39404E813E0E0
:102EC00021E04091480761E083E991E00E947D1490
:102ED000CF911F910F91EF900895EE24E39404E8B1
:102EE00013E021E04091480761E087E491E0EECFF4
:102EF000EF920F931F93CF938091360490913704F4
:102F00008430910509F4A8C1209175032111A4C151
:102F10003091050A2091000A3213CAC120910C0297
:102F2000222361F02091F80A223009F487C0039728
:102F300029F080911408882309F480C08FEF0E9443
:102F4000D56DC09185030E94E30EC11139C0825036
:102F5000823008F0A0C080914903811129C089E422
:102F600091E00E9478138CE491E00E9478130E9413
:102F7000E30E833009F077C08DE491E00E9478136E
:102F8000EE24E39410E000E020E04091480760E088
:102F90008DE491E00E947D1480911002882341F01D
:102FA00080914803811104C084EB90E00E94457C2D
:102FB000C1E0C0934E0381E00E941817C0938503BF
:102FC0000E94E30E8450823000F588EF98E00E9462
:102FD0008FAC8823D1F080911002882321F08EECF1
:102FE00090E00E94457C8091540490915504029792
:102FF00061F0EE24E39410E000E020E04091480707
:1030000061E080E990E00E947D14109249031092E3
:1030100048039091C0098091BB09981309C0809121
:103020006F03811105C00E942A0F882309F4A6C0EE
:10303000CF911F910F91EF900C94FE138091FB0A9A
:10304000823069F020F4813061F08CEC78CF8330ED
:1030500021F08430D1F782EB72CF89E970CF80E81C
:103060006ECF86E66CCFEE24E39410E000E020E023
:103070004091480760E089E491E00E947D148091CE
:103080001002882309F494CF80914803811190CFD6
:103090008AEC90E08BCF80911002882349F08091D8
:1030A0000202882309F448C081ED90E00E94457C2B
:1030B00010920A0910920B0949E557E060E070E0B0
:1030C00088EF98E00E94BFAC8DE20E942DA221E023
:1030D00030E049E557E060E070E08CE30E94EAA14F
:1030E0002091020240914807809154049091550428
:1030F000222381F1029719F560E970E083E990E0FD
:103100000E94999B109202028DE890E00E94781331
:103110008EE890E00E94781381E990E00E94781395
:1031200082E990E00E94781384E990E00E9478138D
:1031300081E08093850344CF80ED90E0B7CFEE240B
:10314000E39410E000E020E060E083E990E00E947A
:103150007D14D8CF029739F460E970E08FE890E0F1
:103160000E94999BD1CFEE24E39410E000E020E090
:1031700060E08FE890E00E947D14C6CF80918603C6
:1031800081116AC08AE798E00E948FAC882309F415
:1031900063C08091360490913704049709F45CC0B1
:1031A00080918603811158C00E94E30EC82F82E1EE
:1031B00090E00E94781383E190E00E94781384E10C
:1031C00090E00E94781385E190E00E94781386E1F8
:1031D00090E00E947813C450C23008F054C080912F
:1031E0000702882309F44FC080911002882321F040
:1031F00083EE90E00E94457C409148078091FB0A55
:10320000823079F158F48130B1F0EE24E39410E08B
:1032100000E020E061E086E190E015C0833051F1EC
:10322000843099F7EE24E39410E000E020E061E0C0
:1032300085E190E008C0EE24E39410E000E020E097
:1032400061E082E190E00E947D1481E0809386033A
:103250001092820810928308CF911F910F91EF90E6
:103260000895EE24E39410E000E020E061E083E1C3
:1032700090E0E9CFEE24E39410E000E020E061E08C
:1032800084E190E0E0CF8091C1098823F1F2809140
:103290001002882321F082EE90E00E94457CEE240B
:1032A000E39410E000E020E04091480760E0B3CFF5
:1032B00080E00E94D56D0E94FE13CF911F910F9167
:1032C000EF900C941D16EF920F931F930E946F0EB8
:1032D0001092EC081092ED081092F6071092F70782
:1032E000119880916B03811102C00E94CE0B0E9445
:1032F000E30E8250823048F58CE491E00E9478130E
:10330000EE24E39410E000E020E04091480760E004
:103310008CE491E00E947D149091050A8091000A4E
:10332000981739F00E94E30E8450823010F40E9406
:10333000D616109237041092360481E08093480329
:103340001F910F91EF900C94F40B89E491E00E948F
:103350007813EE24E39410E000E020E04091480769
:1033600060E089E491E00E947D1481E00E941817DA
:10337000D3CFEF920F931F93CF93C82F8091030267
:10338000909104020197D9F580E190E090931702A3
:10339000809316028BEF90E00E947813809138049E
:1033A00090913904029709F4A8C0809175038111A6
:1033B0000AC08091F50A823029F58091CF088111E9
:1033C00002C00E94F40B809102018062809302018E
:1033D0000E94E30E8250823020F48091F50A823000
:1033E000E9F4409118025091190270E060E087ED15
:1033F0009AE00E94BFAC81E00E94446E13C086E058
:1034000090E0C4CF0E94F40B9091050A8091000ACD
:103410009813D9CF81E080934903D5CF8091FF0ADB
:103420008230F9F2109296081092970810928C0848
:1034300010928D088091750381115FC00E94E30E88
:10344000823059F1833009F45DC080913B048823B8
:1034500009F485C089E491E00E947813EE24E39496
:1034600010E000E020E04091480760E089E491E04E
:103470000E947D1481E00E9418179091050A8091A6
:10348000000A9817D1F180917503811136C0CF9150
:103490001F910F91EF900C94D6168CE491E00E944E
:1034A000781389E491E00E94781380913404EE242B
:1034B000E39410E000E020E04091480760E08823BA
:1034C000C1F08CE491E00E947D1480911002882369
:1034D000A1F080913404882381F0809174038111DC
:1034E0000CC089EC90E0CF911F910F91EF900C945C
:1034F000457C89E491E00E947D14CF911F910F914A
:10350000EF9008958CE491E00E9478138DE491E0AF
:103510000E94781380913404EE24E39410E000E0DC
:1035200020E04091480760E0882331F09091050A3F
:103530008091000A9813C5CF8DE491E00E947D141C
:10354000809110028823C9F2809134048823A9F263
:10355000809174038111D1CF84EB90E0C4CF90911E
:10356000050A8091000A981385CFCC2309F482CFF5
:1035700089E491E00E947813EE24E39410E000E0E7
:1035800020E04091480760E089E491E00E947D14CA
:103590008AEC90E00E94457C6DCFEF920F931F93D1
:1035A000809105028823F9F0109205028DE590E0E4
:1035B0000E9478138CE590E00E947813EE24E39447
:1035C00010E000E020E04091480760E08DE590E0E9
:1035D0000E947D1470E060E083E091E01F910F9104
:1035E000EF900C94967A81E0809305028DE590E04F
:1035F0000E9478138CE590E00E947813EE24E39407
:1036000010E000E020E04091480760E08CE590E0A9
:103610000E947D1461E070E0DFCFEF920F931F9363
:103620006091F80A70E080E191E00E94967A8091C2
:103630003604909137048630910509F454C00897F8
:10364000029708F450C08091380490913904019792
:1036500009F049C086E090E00E94781380E390E092
:103660000E94781385E490E00E94781386E490E04D
:103670000E9478138EE390E00E94781380913B04BF
:10368000882361F083E991E00E94781384E991E056
:103690000E94781387E491E00E9478138091F80AE1
:1036A000833009F499C0B0F5813009F447C0823005
:1036B00009F46BC0EE24E39410E000E020E04091B8
:1036C000480760E086E090E00E947D14109281033C
:1036D00084E68093150245E050E060E070E080E70A
:1036E00098E00E94BFAC80915404909155040197DA
:1036F000029740F48091F80A833009F0A4C080E07A
:103700000E94609C10921E0810921F081F910F913A
:10371000EF900895853009F486C0863059F680917F
:103720003B04882399F2EE24E39410E000E020E0CB
:103730004091480760E088E991E0C6CFEE24E39429
:1037400010E000E020E04091480760E085E490E070
:103750000E947D1480913B04882309F4B7CF8091A7
:10376000380490913904019709F0B0CF9091050A7F
:103770008091000A9813AACF00ED17E021E0409154
:10378000480761E084E991E09FCFEE24E39410E0E4
:1037900000E020E04091480760E080E390E00E9474
:1037A0007D1480913B04882309F490CF80913804E4
:1037B00090913904019709F089CF9091050A809181
:1037C000000A981383CF0CEB12E021E040914807E8
:1037D00061E083E991E078CFEE24E39410E000E02B
:1037E00020E04091480760E086E490E00E947D146C
:1037F00080913B04882309F469CF8091380490912B
:103800003904019709F062CF9091050A8091000A6E
:1038100098135CCF02EE14E021E04091480761E08C
:1038200087E491E051CF80913B04882309F44ECF87
:10383000EE24E39410E000E020E04091480760E0CF
:1038400087E991E041CF81E05BCFEF920F931F9327
:1038500088E290E00E947813EE24E39410E000E008
:1038600020E04091480760E088E290E00E947D14EB
:1038700088E590E00E94781385E690E00E94781336
:1038800089E590E00E9478139091F50A8091FD0AF5
:10389000923029F1833019F581E08093F50A109276
:1038A000FD0A1092FE0A70E060E087EF90E00E944F
:1038B000967A20E04091480760E089E590E00E9418
:1038C0007D148EEA90E00E94457C80E00E94759D08
:1038D0008823D1F11F910F91EF900C940D1B813033
:1038E000E1F483E08093FD0A913011F48093FE0AA5
:1038F00062E070E087EF90E00E94967AEE24E39415
:1039000010E000E020E04091480760E085E690E0AC
:103910000E947D148EE590E0D6CF0E944C9D61E020
:1039200070E087EF90E00E94967AEE24E39410E036
:1039300000E020E04091480760E088E590E00E94C8
:103940007D148DE590E0BFCF1F910F91EF9008950A
:103950009091FD0A8091F50A823099F4911108C086
:103960000E944C9D61E070E087EF90E00E94967AA3
:1039700080E00E94759D882339F00E940D1B80E035
:1039800003C081E09111FBCF0895EF920F931F9335
:1039900080911E02853010F510921E0280E490E0A6
:1039A0000E947813E12C10E000E020E040E060E0AD
:1039B00080E490E00E947D1480911E0223E2829FA9
:1039C000C001112464E670E00E9446BD635260931A
:1039D00048071F910F91EF900C940610855080932B
:1039E0001E02EACFEF920F931F9380911E02803642
:1039F00018F184E680931E0280E490E00E94781320
:103A0000E12C10E000E020E040E060E080E490E0A5
:103A10000E947D1480911E0223E2829FC001112426
:103A200064E670E00E9446BD6352609348071F91B0
:103A30000F91EF900C9406108B5F80931E02EACFDB
:103A4000EF920F931F93CF93C82F809154049091BE
:103A500055040197039738F480911F02082E000C3B
:103A6000990B0E943C9CC11120C080913804909118
:103A70003904892BD1F480914204882321F080916C
:103A80004004882391F080911102823399F48FE3EE
:103A900090E00E947813E12C10E000E020E040E08C
:103AA00060E08FE390E00E947D14CF911F910F9111
:103AB000EF90089580E490E00E947813E12C10E0EC
:103AC00000E020E040E060E080E490E0ECCF809314
:103AD000840381118AE080937303809111020E9414
:103AE000E11280931F028093490781E00C94201D0E
:103AF000EF92FF920F931F93CF93DF93CDB7DEB773
:103B0000AB970FB6F894DEBF0FBECDBF8CEF9FE032
:103B10000E948FBC88A78DEF9FE00E948FBC89A771
:103B20008EEF9FE00E948FBC8AA78FEF9FE00E94DC
:103B30008FBC8BA70E94BF0608A519A52AA53BA587
:103B4000601771078207930709F083C2CE010196BF
:103B50007C0110E000E0C8010E948FBCF701819356
:103B60007F010F5F1F4F0F311105A9F78981823047
:103B700071F40E944C9D8A81823049F483E08093E5
:103B8000FD0A9091F50A913011F48093FE0A8B8121
:103B9000815087FF8093FA0A8C819FEF980F9830AD
:103BA00090F4809387030E94759D8091F80A83307A
:103BB00051F480915404909155040197029718F4A0
:103BC00080E00E94609C9D818FEF890F823030F4ED
:103BD00081E0923008F480E0809305029E818FEFAF
:103BE000890F823030F481E0923008F480E08093D5
:103BF00006029F818FEF890F823030F481E092308E
:103C000008F480E08093100298858FEF890F82304E
:103C100030F481E0923008F480E080930A029985C4
:103C20008FEF890F823030F481E0923008F480E029
:103C3000809369039A858FEF890F823030F481E099
:103C4000923008F480E0809367038B859FEF980F94
:103C5000933050F4823009F465C1833009F46DC1AA
:103C600010926603109265038C859FEF980F933036
:103C700050F4823009F46AC1833009F472C11092A1
:103C80006203109261039D858FEF890F823030F4BB
:103C900081E0923008F480E080936B038E859FEF83
:103CA000980F953050F4833009F46FC108F062C169
:103CB000823009F466C1109268038F859FEF980FD8
:103CC000953050F4823009F464C1843009F468C13D
:103CD0001092600310925F0388899FEF980F9230D3
:103CE00050F490913B04992331F0823009F45BC188
:103CF00081E00E94A29D99898FEF890F823030F474
:103D000081E0923008F480E0809307029A898FEF77
:103D1000890F823030F481E0923008F480E00E9414
:103D2000671D8B898150853650F4809311020E9463
:103D3000E11280934A078093490780931F028C8980
:103D40009FEF980F9C3358F448EE53E0849F900106
:103D5000859F300D112430932102209320028D89FC
:103D60009FEF980F9C3358F448EE53E0849F9001E6
:103D7000859F300D112430932302209322028E89D7
:103D80009FEF980F9C3358F448EE53E0849F9001C6
:103D9000859F300D112430932502209324028F89B2
:103DA0009FEF980F9C3358F448EE53E0849F9001A6
:103DB000859F300D11243093270220932602888D91
:103DC0009FEF980F9C3358F448EE53E0849F900186
:103DD000859F300D11243093290220932802998D5C
:103DE0008FEF890F823030F481E0923008F480E068
:103DF00080932A029A8D8FEF890F823030F481E010
:103E0000923008F480E08093DB089B8D8FEF890F60
:103E1000823030F481E0923008F480E08093DC0856
:103E20009C8D8FEF890F823030F481E0923008F45E
:103E300080E08093DD089D8D8FEF890F823030F414
:103E400081E0923008F480E08093E3088E8D9FEF4C
:103E5000980F933050F4823009F4A7C0833009F4EE
:103E6000ABC010926403109263038F8D9FEF980F85
:103E70009430A0F4823009F4A4C0833009F4A4C0C3
:103E8000813009F4A4C084E08093090280913B044E
:103E9000882309F494C083E08093000B0E948D6D09
:103EA0000E94BF6D7E01F0E2EF0EF11C0FE110E009
:103EB000C8010E948FBCF70181937F010F5F1F4FE4
:103EC00007321105A9F788A19FEF980F9E3F10F4C4
:103ED0008093130289A19FEF980F9E3F10F4809367
:103EE00012029AA18FEF890F823030F481E0923074
:103EF00008F480E080930C028BA19FEF980F95301F
:103F000040F480930E02813009F064C085E0809314
:103F10000F028CA18C3109F463C08E3109F06AC0A4
:103F20008EE15FC0109204021092030281E090E0E3
:103F3000909366038093650397CE81E090E0909321
:103F400004028093030282E090E0F2CF10925603C5
:103F50001092550381E090E0909362038093610397
:103F600092CE81E090E0909356038093550382E0D7
:103F700090E0F2CF843059F0853009F09CCE84E097
:103F800001C081E08093680398CE82E0FBCF83E09C
:103F9000F9CF81E090E09093600380935F039CCE23
:103FA00082E090E0F8CF82E0A4CE81E090E09093B0
:103FB00064038093630359CF82E090E0F8CF82E0FE
:103FC0006BCF91E0909308028093090265CF8093B4
:103FD0000802FACF853011F482E099CF80E397CFC1
:103FE0008CE180930D0290913A049D7F9C3111F4F5
:103FF00080933A049DA18FEF890F823030F481E0E5
:10400000923008F480E0809343049EA18FEF890FE3
:10401000823030F481E0923008F480E080930B022B
:104020009FA18FEF890F823080F581E0923008F4F4
:1040300080E080936A03AB960FB6F894DEBF0FBEA4
:10404000CDBFDF91CF911F910F91FF90EF900C9416
:10405000D80FEE24E39410E000E020E04091480700
:1040600060E08FE591E00E947D140E943C0FAB96CA
:104070000FB6F894DEBF0FBECDBFDF91CF911F9179
:104080000F91FF90EF900C94AF0FAB960FB6F89492
:10409000DEBF0FBECDBFDF91CF911F910F91FF907B
:1040A000EF900895CF93DF9380914403909145035F
:1040B000892B09F05BC08BE090E00E94D5C0EC0139
:1040C00081E0888381E090E00E9454A49A838983F0
:1040D000888190E00E9454A49C838B83888190E027
:1040E0000E9454A49E838D83888190E0880F991F3D
:1040F0000E9454A498878F83888123E0829FC00107
:1041000011240E9454A49A87898720E0A1E06FEFD0
:104110007FEF33E08881281728F5822F90E0E9812E
:10412000FA81E80FF91FA083EB81FC81E80FF91FEA
:104130001082ED81FE81E80FF91F1082880F991F10
:104140004F815885840F951FFC0171836083E98539
:10415000FA85239FE00DF11D112410821182128235
:104160002F5FD8CFD0934503C0934403809144037D
:1041700090914503DF91CF9108950F931F93CF93B3
:10418000DF9300D0CDB7DEB7182F062F0E94522044
:1041900020910E022130B9F4612F70E0402F0E946F
:1041A000569669837A838B83CE0101960E9411A66D
:1041B000962F672F792F0F900F900F90DF91CF914F
:1041C0001F910F910895402F612F0E941448F3CF43
:1041D00080910E02833081F0843019F1823051F4E5
:1041E0006FEF80E00E94BD206093C2037093C30311
:1041F0008093C403129808956FEF80E00E94BD2061
:1042000060930A0470930B0480930C046FEF80E0BA
:104210000E94BD2060930D0470930E0480930F04E0
:10422000E9CF6FEF80E00E94BD2060930A04709395
:104230000B0480930C04DECF80913A048D7F8C3187
:10424000D1F40E946F0E0E9473070E94E820109222
:1042500054031092520380914204882321F08091EC
:104260004004882361F040E65AEE60E070E086EC9E
:1042700097E00C94BFAC80E00E94D207E4CF089591
:10428000EEE3F8E010861186E6E6F8E01086118687
:10429000E8E4F8E010861186E2E5F8E01086118681
:1042A000ECE5F8E010861186E0E7F8E0108611866C
:1042B00010926E03109283031092810384E6809320
:1042C00015020E94906E0C94E820EF920F931F93BA
:1042D000CF931092F6081092F70880917403811121
:1042E00004C085E190E00E94457C10923704109252
:1042F000360410926F0310925703109253031092DA
:10430000C5081092C6081092A0081092A108109239
:1043100051038091FB0A81502091030230910402E5
:1043200080935403109252032130310509F078C074
:104330008091550390915603019709F066C00E9441
:10434000680B0E944C0A10926E0810926F0810922F
:104350003C0810923D08109228081092290840E06D
:1043600050E0BA0182E598E00E94BFAC0E94E820CC
:104370000E94F90E0E9494131092500310924F0362
:10438000109280031092E90A1092EA0A8091740355
:1043900081115BC08091F80A823009F406C1833034
:1043A00009F453C0813009F40AC10E94220F8330FE
:1043B00009F4A3C0853009F4F4C0823009F0C4C008
:1043C0008091FB0A853009F46BC08AE298E00E9474
:1043D00049ACE12C10E000E068387341810591059B
:1043E00008F4ABC08AE298E00E9449ACE12C10E0EE
:1043F00000E06031774281059105F8F420E04091BA
:10440000480760E08AE090E01EC00E946F0E85E0E1
:1044100090E090931702809316020E94F40B93CFC2
:104420000E946F0E83E090E0909317028093160233
:1044300080917503811187CFF0CF20E0409148072C
:1044400060E080E891E00E947D148091F80A83305A
:1044500021F486E491E00E941C078091F80A8230E2
:1044600009F428C1833009F4DCC0813009F429C182
:10447000C091FB0A0E94220FC150C43008F004C151
:10448000833009F4A6C0853009F4FBC0823009F0FE
:10449000F5C08DE791E00E9478138EE791E09FC010
:1044A0008AE298E00E9449AC683873418105910521
:1044B00050F4E12C10E000E020E04091480760E07B
:1044C00088E891E0C0CF8AE298E00E9449ACE12CF4
:1044D00010E000E0603177428105910538F420E07A
:1044E0004091480760E08BE891E0ADCF20E040913B
:1044F000480760E08AE891E0A6CF8AE298E00E944F
:1045000049AC683873418105910550F4E12C10E005
:1045100000E020E04091480760E08BE090E093CF1E
:104520008AE298E00E9449ACE12C10E000E06031A2
:1045300077428105910508F061CF20E0409148075E
:1045400060E087E490E07FCF8AE298E00E9449AC87
:10455000683873418105910550F4E12C10E000E0CA
:1045600020E04091480760E083E891E06CCF8AE268
:1045700098E00E9449ACE12C10E000E06031774205
:104580008105910538F420E04091480760E082E819
:1045900091E059CF20E04091480760E081E891E048
:1045A00052CFE12C10E000E0EECFE12C10E000E073
:1045B00020E04091480760E085E390E044CFE12CA3
:1045C00010E000E020E04091480760E08BE390E0DD
:1045D0003ACF84E690E00E94781383E690E00E9450
:1045E000781380910602882321F089E090E00E94F0
:1045F000781388E490E00E94781382E690E00E94AD
:1046000078138091F80A853021F483EA91E00E94C2
:1046100078138091F80A863021F484EA91E00E94B0
:10462000781380916D03882321F180915F0390912D
:1046300060038130910509F451C0029709F048C028
:104640008EE690E00E9478138FE690E00E94781347
:104650008091740381110BC0E12C10E000E020E098
:104660004091480760E08FE690E00E947D14109230
:104670006D03CF911F910F91EF90089580E690E028
:104680000ACF8FE491E007CF833059F0853079F07D
:10469000823051F487E891E00E94781389E891E034
:1046A0009ECF81E690E09BCF8BE990E098CF8FE49E
:1046B00091E095CF83E390E00E94781384E390E04B
:1046C000AECF89E390E00E9478138AE390E0A7CF11
:1046D0000E94220F8250823008F0B2CF8AE490E02C
:1046E0000E94781389E490E00E947813809174030B
:1046F0008111BDCFE12C10E000E020E0409148079F
:1047000060E089E490E0B1CFEF920F931F93CF93D5
:104710008091360490913704069739F46091F80A35
:1047200070E080E191E00E94967A0E94E30E825050
:10473000823008F4B5C00E94A01380913604909195
:104740003704049721F080914C03882361F083E4BF
:1047500090E00E9478138FE390E00E94781384E445
:1047600090E00E94781389E491E00E9478138CE62F
:1047700091E00E9478138091360490913704C091A3
:104780004C038730910509F094C0C11198C0C091C5
:104790007403C11194C0109239041092380410921D
:1047A00037041092360480916F0381110E946521B5
:1047B00080914A03811110924A038091100288234C
:1047C00071F088ED90E00E94457CCC2321F082EDD1
:1047D00090E00E94457C84EE90E00E94457C0E941F
:1047E000FE130E941D1681E00E94C8130E94960EBF
:1047F0008EE390E00E9478138091F80A823009F4E9
:10480000FDC0833009F400C1813009F4FAC086E0AC
:1048100090E00E94781310927203C1E0C0930202EC
:104820001092EC081092ED081092F6071092F7071C
:1048300010921E0810921F0810921408109215086A
:10484000109296081092970810928C0810928D087A
:104850008091380490913904892BE9F48091F50A0C
:10486000823009F0D4C00E94CE0B8091FB0A8130C7
:1048700071F08093FC0AC093FB0A80913A048D7F0B
:104880008C3119F480E00E9488070E94CB071092B7
:10489000710310927003CF911F910F91EF900895C3
:1048A00080918503811149CF8CE491E00E947813B7
:1048B00044CFC111A1C020917403211174CF209164
:1048C000380430913904232B19F4892B09F494C04E
:1048D0009091050A8091000A61E0981305C08091CB
:1048E000F50A813009F460E070E081E190E00E9417
:1048F000967A10923904109238041092370410926C
:1049000036048091740381110E9484138091740392
:10491000811107C080917503811103C080917808CF
:1049200081110E944021C0917503C11127C00E94CE
:10493000E30E8250823020F58091F50A813009F033
:1049400056C080918503811152C0809174038111FA
:104950004EC0C0913B04CC2309F449C08BEF90E0DA
:104960000E947813EE24E39410E000E020E04091F0
:10497000480760E08BEF90E00E947D14C0E037C0F4
:1049800080918503811117C0C0917403C11132C099
:104990008091360490913704049769F0EE24E394F3
:1049A00010E000E020E04091480760E081E990E0FD
:1049B0000E947D14C1E080917403811118C0809120
:1049C0001002882321F08CEC90E00E94457C81E16C
:1049D00090E00E947813EE24E39410E000E020E0E1
:1049E0004091480760E081E190E00E947D141092C0
:1049F0007403D9CEC0E0DFCFC0E0D5CE80E390E035
:104A000008CF85E490E005CF86E490E002CF1092D5
:104A1000CF081092D0081092A0081092A1080E940E
:104A20001C210E94CE0B33CFEF920F931F930E9455
:104A3000842382E090E0909339048093380487E0E7
:104A400090E0909337048093360480917403811131
:104A500043C040E456E060E070E08EE898E00E94D9
:104A6000BFAC40E951E060E070E084E898E00E946B
:104A7000BFAC40E951E060E070E08EEE97E00E944C
:104A8000BFAC80911002882341F083EB90E00E943C
:104A9000457C86EE90E00E94457CE12C10E000E031
:104AA00020E04091480760E083E490E00E947D149C
:104AB00020E04091480760E08FE390E00E947D1481
:104AC00020E04091480760E084E490E00E947D147B
:104AD0001F910F91EF9008951F910F91EF900C94FB
:104AE0008413EF920F931F93CF931092720310923F
:104AF000740381E0809302021092CE071092CF07D8
:104B00009091F50A923089F581E090E09093390414
:104B100080933804109237041092360480914B0A27
:104B2000811118C080911002882321F089E890E05B
:104B30000E94457C8CEF90E00E947813EE24E39471
:104B400010E000E020E04091480760E08CEF90E04A
:104B50000E947D148AE090E00E94457C80E0CF9125
:104B60001F910F91EF900C94B9192091C009909169
:104B7000BB0929130BC090916903992339F08093E5
:104B80004C030E941425C0E08C2FE9CF81E090E017
:104B900090933904809338041092370410923604AD
:104BA000C09134048AE090E00E94457CEDCFEF9202
:104BB0000F931F938091360490913704039729F443
:104BC00080916F0381110E94652184E090E09093B1
:104BD00037048093360480913B04882341F04CEAEB
:104BE0005DE060E070E084EE98E00E94BFAC0E945F
:104BF000FE130E941D1681E00E94C81380916B0372
:104C0000882309F464C01092CF081092D0080E9443
:104C10006F0E80911002882341F086EE90E00E9492
:104C2000457C83EB90E00E94457C40E951E060E0E8
:104C300070E08EEE97E00E94BFACE12C10E000E047
:104C400020E04091480760E083E490E00E947D14FA
:104C500020E04091480760E08FE390E00E947D14DF
:104C600020E04091480760E084E490E00E947D14D9
:104C700040E951E060E070E08AED97E00E94BFAC4F
:104C800040E456E060E070E080ED97E00E94BFAC49
:104C900080911002882321F08CEC90E00E94457CEA
:104CA00081E190E00E947813EE24E39410E000E0AC
:104CB00020E04091480760E081E190E00E947D148F
:104CC0008AE190E01F910F91EF900C94457C0E9437
:104CD0003A0EDECFEF920F931F93CF93DF93809125
:104CE000360490913704AC014450510930914A0A7E
:104CF0002091450A4330510508F452C34091750391
:104D000041114EC3321761F081E090E09093370477
:104D100080933604DF91CF911F910F91EF9008950A
:104D200080917203833008F4F8C081E080937403AB
:104D30000E9414258091F80A813009F4C0C08230A5
:104D400009F4BAC00E94220F833009F49CC0853058
:104D500009F4AFC0823009F0A1C08091FB0A853010
:104D600009F486C08AE090E00E94781387E490E01E
:104D70000E94781380E891E00E94781389E490E023
:104D80000E9478138AE490E00E9478138FE690E006
:104D90000E9478138EE690E00E9478130E94B0067D
:104DA0000E94220FC8EBDBE0853091F40E942A0FAD
:104DB000882361F0EE24E39410E000E020E04091CD
:104DC000480760E08DEB91E00E947D14C0E7D7E1D9
:104DD0008091FB0A823009F480C008F073C08130F2
:104DE00011F0C053D84FAE0170E060E084EE97E060
:104DF0000E94BFACBE0181E290E00E94967A0E94C0
:104E0000220F853009F06CC0EE24E39404EC19E025
:104E100021E04091480761E084E991E00E947D141F
:104E200080910A02882309F475CF8091F50A8130B8
:104E300009F070CF9091C0098091BB09981709F4CF
:104E400069CF9091050A8091000A981363CF8091F1
:104E50000502882309F45ECF8091940A882309F41F
:104E600093C2DF91CF911F910F91EF900C94E2AF1D
:104E700088E891E00E9478138BE891E00E94781313
:104E80008AE891E079CF8BE090E00E94781387E484
:104E900090E00E9478138AE090E06ECF81E891E084
:104EA0000E94781382E891E00E94781383E891E0F1
:104EB00063CF82E891E060CF85E390E06DCF8BE334
:104EC00090E06ACF833031F0843009F08ACFC45249
:104ED000DA4F89CFC851DC4F86CFCC50DE4F83CF1D
:104EE00080911002882321F082E290E00E94457CAC
:104EF000EE24E39410E000E020E04091480760E0F9
:104F00008EE591E00E947D1404EC19E021E04091CF
:104F1000480761E08BE691E081CF80914B038823C5
:104F2000B1F086E198E00E9449AC672B682B692BB1
:104F300071F410924B030E94E30E8250823038F4D9
:104F40008091360490913704039709F0109880916E
:104F5000FF0A823081F19091C0098091BB099813BA
:104F60002AC09091050A8091000A981324C085E612
:104F70009AE00E94D5AA811106C081E599E00E94BD
:104F8000D5AA8823C1F080911002882321F087EDF3
:104F900090E00E94457C8CE290E00E947813EE2421
:104FA000E39410E000E020E04091480760E08CE2EC
:104FB00090E00E947D1490918F0A80918A0A981344
:104FC00046C09091C0098091BB09981340C0909150
:104FD000050A8091000A98133AC08091FF0A823036
:104FE000B1F5C091F80AC13009F498C0C33009F492
:104FF000B6C084EE97E00E9449AC672B682B692B02
:1050000051F41092720348EE53E060E070E084EED9
:1050100097E00E94BFAC80915703811105C0809139
:1050200072038F5F8093720380917203833078F4F0
:105030008091360490913704039731F083E090E03B
:10504000909337048093360481E080935703209136
:105050007B09909176098091FD0A8D7F813009F45A
:10506000A0C08091F80A882321F03CEF380F34303B
:1050700040F440913604509137044330510509F40F
:105080000FC12913CEC02091C0099091BB092913EB
:10509000C8C02091050A9091000A2913C2C09091BE
:1050A000FF0A923009F0BDC0813041F008F424C1FC
:1050B000823009F43CC1833009F0B3C084EE97E03C
:1050C0000E9449AC672B682B692B51F41092720334
:1050D00048EE53E060E070E084EE97E00E94BFACE1
:1050E0008091720390915703911103C08F5F809359
:1050F000720380917203833008F093C0809136046C
:1051000090913704039731F083E090E09093370457
:105110008093360481E08093570383C080914A03D3
:10512000811195CF86E198E00E9449AC672B682BEE
:10513000692B09F08CCF8091360490913704039746
:1051400009F485CF48E552E060E070E086E198E040
:105150000E94BFAC0E9458AFC0934A0378CF8091A1
:105160004A03811174CF86E198E00E9449AC672B15
:10517000682B692B09F06BCF80913604909137042E
:10518000039709F464CF4AEF50E060E070E086E1F5
:1051900098E00E94BFAC0E9458AF81E080934A0320
:1051A00056CF29136CC09091C0098091BB09981308
:1051B00038C09091050A8091000A981332C08091FE
:1051C000FF0A823071F584EE97E00E9449AC672BAC
:1051D000682B692B51F41092720348EE53E060E0A3
:1051E00070E084EE97E00E94BFAC80915303811180
:1051F00005C0809172038F5F809372038091720368
:10520000833078F48091360490913704039731F01D
:1052100083E090E0909337048093360481E080939C
:10522000530390918F0A80918A0A981348C09091F5
:105230007B0980917609981709F4F2CD8091FD0AD7
:105240008111EECD8091F80A813041F008F499C0C7
:10525000823009F496C0833009F0E2CD80916F036B
:10526000882309F4DDCD80915703882309F4D8CD34
:10527000109237041092360410925703D1CD8091CA
:10528000570381110AC08091360490913704039727
:1052900021F4109237041092360410925303C1CFB8
:1052A000291709F4BBCF0E942A0F882309F4B9CF2C
:1052B00090918F0A80918A0A981709F4AFCF809154
:1052C000F80A813009F45AC0833009F457C080913C
:1052D0006F03882309F4ABCF80915703882309F427
:1052E000A6CF80915303811144C0109237041092CD
:1052F0003604109257039BCF80914A03811191CFBE
:1053000086E198E00E9449AC672B682B692B09F075
:1053100088CF40ED57E060E070E086E198E00E94C1
:10532000BFAC0E9458AF81E080934A037ACF80914E
:105330004A03811176CF8091360490913704039708
:1053400009F46FCF80914B03811110C04EEE52E0F3
:1053500060E070E086E198E00E94BFAC0E9458AF28
:1053600080914B038F5F80934B03DDCF8230D8F663
:10537000F5CF0E94A81C8111B8CFBBCF10924A0371
:1053800056CF10924A034CCD8091910A882309F49C
:10539000C1CCDF91CF911F910F91EF900C94D72545
:1053A0003213B2CC892B09F0B5CC85E69AE00E9485
:1053B000D5AA81110DC08091FD0A8D7F813009F041
:1053C000A9CC81E599E00E94D5AA882309F4A2CC52
:1053D0008091780881119ECC9091050A8091000AF5
:1053E000981398CC9091C0098091BB09981392CCE6
:1053F00080911002882321F08BEC90E00E94457C84
:105400008EE591E00E947813EE24E39410E000E032
:1054100020E04091480760E08EE591E00E947D1415
:10542000DF91CF911F910F91EF900C94B006CF9325
:10543000DF93D0910E028EEF8D0F833090F50E9496
:10544000220F853099F40E942A0FCEE081111DC0F1
:105450008091740381112DC080917503811129C041
:105460008091F80A823039F5C0E10FC09091740341
:1054700091111FC09091750391111BC09091F80A72
:105480009230C9F4C4E0833079F76FEF8C2FD230BB
:10549000A1F40E94BD206093C2037093C303809364
:1054A000C4038091F80A823009F0129ADF91CF91FB
:1054B0000895CCE0EACFC1E0E8CFD33099F40E9460
:1054C000BD2060930A0470930B0480930C046FEF6B
:1054D0008C2F0E94BD2060930D0470930E04809366
:1054E0000F04DFCF0E94BD2060930A0470930B0469
:1054F00080930C04D6CF80913A048C3109F4EDC12D
:105500008E3109F07FC3E0915203EF3008F010C4F0
:10551000F0E08827E157F54D8F4F0C945ABD9E2A35
:10552000C22AEE2A0A2B392B552B712B8D2BA92B36
:10553000C52BE12BFD2B192C352C512C8EE00E9414
:1055400073060E94189D8FE00E9473060E94189DAA
:10555000809152038F5F8093520380915103811198
:105560000AC08DE00E9473060E94FA9C80E10E94AE
:1055700073060E94FA9C81E0809351030E9484A1EB
:105580000C94172A8DE00E9473060E94189D80E1FA
:105590000E9473060E94189D80915103882371F028
:1055A0008EE00E9473060E94FA9C8FE00E947306B0
:1055B0000E94FA9C809152038F5F0DC08CE00E9484
:1055C00073060E94FA9C81E10E9473060E94FA9C75
:1055D00080915203815080935203D0CF8CE00E947F
:1055E00073060E94189D81E10E9473060E94189D17
:1055F00080915103882339F08DE00E9473060E9448
:10560000FA9C80E1D3CF8BE00E9473060E94FA9C43
:1056100082E1DACF8BE00E9473060E94189D82E13E
:105620000E9473060E94189D80915103882371F097
:105630008CE00E9473060E94FA9C81E10E9473062E
:105640000E94FA9C809152038F5F0DC08AE00E94F5
:1056500073060E94FA9C83E10E9473060E94FA9CE2
:10566000809152038150809352030E9484A10C9434
:10567000E8208AE00E9473060E94189D83E10E9440
:1056800073060E94189D80915103882339F08BE0A6
:105690000E9473060E94FA9C82E1D0CF89E00E94AA
:1056A00073060E94FA9C84E1D7CF89E00E947306BA
:1056B0000E94189D84E10E9473060E94189D8091AB
:1056C0005103882339F08AE00E9473060E94FA9CF5
:1056D00083E16CCF88E00E9473060E94FA9C85E10A
:1056E00073CF88E00E9473060E94189D85E10E9496
:1056F00073060E94189D80915103882339F089E038
:105700000E9473060E94FA9C84E150CF87E00E94B9
:1057100073060E94FA9C86E157CF87E00E947306C9
:105720000E94189D86E10E9473060E94189D809138
:105730005103882339F088E00E9473060E94FA9C86
:1057400085E17CCF86E00E9473060E94FA9C87E187
:1057500083CF86E00E9473060E94189D87E10E9415
:1057600073060E94189D80915103882339F087E0C9
:105770000E9473060E94FA9C86E160CF85E00E9439
:1057800073060E94FA9C88E167CF85E00E94730649
:105790000E94189D88E10E9473060E94189D8091C6
:1057A0005103882339F086E00E9473060E94FA9C18
:1057B00087E1FCCE84E00E9473060E94FA9C89E196
:1057C00003CF84E00E9473060E94189D89E10E9425
:1057D00073060E94189D80915103882339F085E05B
:1057E0000E9473060E94FA9C88E1E0CE83E00E944A
:1057F00073060E94FA9C8AE1E7CE83E00E9473065A
:105800000E94189D8AE10E9473060E94189D809153
:105810005103882339F084E00E9473060E94FA9CA9
:1058200089E10CCF82E00E9473060E94FA9C8BE112
:1058300013CF82E00E9473060E94189D8BE10E94A4
:1058400073060E94189D80915103882339F083E0EC
:105850000E9473060E94FA9C8AE1F0CE81E00E94C9
:1058600073060E94FA9C8CE1F7CE81E00E947306D9
:105870000E94189D8CE10E9473060E94189D8091E1
:105880005103882339F082E00E9473060E94FA9C3B
:105890008BE18CCE80E00E9473060E94FA9C8DE121
:1058A00093CE80E00E9473060E94189D8DE10E94B5
:1058B00073060E94189D81E00E9473060E94FA9C64
:1058C0008CE10E9473060E94FA9C809152038150E1
:1058D000809352031092510351CEE0915203EE3067
:1058E00008F026C2F0E08827E758F34D8F4F0C945C
:1058F0005ABD872CA12CBD2CD92CF52C112D2D2D6A
:10590000492D652D812D9D2DB92DD52DF12D8DE0A4
:105910000E9473060E94189D8EE00E9473060E94EA
:10592000189D809152038F5F8093520380915103A1
:10593000811121CE8CE00E9473060E94FA9C8FE0B8
:1059400016CE8CE00E9473060E94189D8FE00E9484
:1059500073060E94189D80915103882339F08DE0D1
:105960000E9473060E94FA9C8EE020CE8BE00E947B
:1059700073060E94FA9C80E127CE8BE00E9473069A
:105980000E94189D80E10E9473060E94189D8091DC
:105990005103882339F08CE00E9473060E94FA9C20
:1059A0008FE04CCE8AE00E9473060E94FA9C81E14F
:1059B00053CE8AE00E9473060E94189D81E10E94E6
:1059C00073060E94189D80915103882339F08BE063
:1059D0000E9473060E94FA9C80E130CE89E00E940A
:1059E00073060E94FA9C82E137CE89E00E9473061A
:1059F0000E94189D82E10E9473060E94189D80916A
:105A00005103882339F08AE00E9473060E94FA9CB1
:105A100081E1CCCD88E00E9473060E94FA9C83E16C
:105A2000D3CD88E00E9473060E94189D83E10E94F6
:105A300073060E94189D80915103882339F089E0F4
:105A40000E9473060E94FA9C82E1B0CD87E00E941A
:105A500073060E94FA9C84E1B7CD87E00E9473062A
:105A60000E94189D84E10E9473060E94189D8091F7
:105A70005103882339F088E00E9473060E94FA9C43
:105A800083E1DCCD86E00E9473060E94FA9C85E1EA
:105A9000E3CD86E00E9473060E94189D85E10E9476
:105AA00073060E94189D80915103882339F087E086
:105AB0000E9473060E94FA9C84E1C0CD85E00E949A
:105AC00073060E94FA9C86E1C7CD85E00E947306AA
:105AD0000E94189D86E10E9473060E94189D809185
