:100000000C94F6060C9427070C9427070C942707EA
:100010000C9427070C9427070C9427070C942707A8
:100020000C9427070C9427070C9427070C94270798
:100030000C9427070C9427070C9427070C94270788
:100040000C9427070C9427070C9427070C94270778
:100050000C9427070C9427070C9427070C94F4A3FF
:100060000C9427070C9422A60C94F8A50C9427074F
:100070000C9427070C9427070C9427070C94270748
:100080000C9427070C9427070C9427070C94270738
:100090000C94CEA50C94A4A50C9427070C94BFAC8B
:1000A0000C9427070C9427070C9427070C94270718
:1000B0000C9427070C9427070C9427070C94270708
:1000C0000C9427070C9427070C9427070C942707F8
:1000D0000C9427070C9427070C947AA50C9450A530
:1000E0000C94270705A84CCDB2D44EB93836A902D6
:1000F0000C50B9918688083CA6AAAA2ABE00000026
:10010000803F07634236B79BD8A71A39685618AEA6
:10011000BAAB558C1D3CB7CC5763BD6DEDFD753E3C
:10012000F6177231BF000000803F08000000BE9249
:100130002449123EABAAAA2ABECDCCCC4C3E00002C
:100140000080BEABAAAAAA3E00000000BF000000CB
:10015000803F0000000000084178D3BB4387D113E3
:100160003D190E3CC3BD4282AD2B3E68EC8276BE8B
:10017000D98FE1A93E4C80EFFFBE01C4FF7F3F0055
:10018000000000000C9477680C9409730C94298685
:100190000C944E970C943A8C0C94EB870C949D2DF8
:1001A0000C940D540C94B8900C94968D0C9481A8DA
:1001B0000C94848A0C94E92E0C940DA70C94BD9792
:1001C0000C94428E0C94969F0C94488B0C94D26D98
:1001D0000C9423A00C94A7730C9458A70C94989398
:1001E0000C9446810C94847D0C94812D0C94AA9FD0
:1001F0000C945B210C94C08A0C946E680C94CC8B8C
:100200000C9470970C94B48D0C94E6890C94AB7399
:100210000C94B1970C9446930C940D2E0C94112DC4
:100220000C94F6840C94E22C0C94B2A70C94C8A203
:100230000C940E8C0C94B4850C94F8210C949B0EA9
:100240000C9467890C9427980C944A930C944395CA
:100250000C94762C0C949C910C94D89F0C94652D46
:100260000C94EDA90C94F77B0C94AE910C94EEA237
:100270000C94628D0C94A28A0C94E4A80C945821DE
:100280000C948A210C9415980C943E890C946293DA
:100290000C94B4900C94C88C0C94FB970C94D5855A
:1002A0000C94788D0C9449A70C9444A70C94F30EED
:1002B0000C9463A70C94D9850C9449850C94642103
:1002C0000C9460970C946E850C9454810C94C144EA
:1002D0000C94E0A90C94668A0C9490890C94EA0E14
:1002E0000C949F880C94328B0C94B40E0C94A09FA9
:1002F0000C944A210C9438930C942D2D0C94B48EAC
:100300000C941B470C9478850C94B1890C94F73BA2
:100310000C94C4900C943F210C94B4910C94912FA4
:100320000C94B0900C9435980C94305A0C9499938A
:100330000C94EE930C944C810C94A5A20C94AD7388
:100340000C94E28B0C94FA530C94B68B0C94750AB3
:100350000C9477A70C942EA70C94FF970C94D70EAF
:100360000C9458930C94C6870C94E29F0C9497932A
:100370000C945F070C94F08D0C94B20E0C94E7A6CD
:100380000C94BB210C94AA8C0C943D2F0C94868762
:100390000C9447210C94052F0C94C77D0C949B87DB
:1003A0000C946E070C9449810C94B12E0C9443A8C4
:1003B0000C9457850C9495870C9442930C94492D7A
:1003C0000C945A970C94DA8E0C946FA90C94B28109
:1003D0000C948EA90C9474210C94F12D0C94199505
:1003E0000C94F88B0C947D8F0C943C950C94CD2E32
:1003F0000C9436A30C94688E0C94068E0C9442A731
:100400000C949A970C9484970C942E980C949A2C94
:100410000C94212F0C94AA900C94A8910C9430A7C2
:100420000C947D210C94B49F0C941F850C94BC9F5C
:100430000C9490900C94168F0C94E10E0C9465071C
:100440000C94357C0C94A2910C94899F0C946A684E
:100450000C94CE9F0C94BC890C9472880C94508C94
:100460000C94D4880C9423800C94A5730C9461AAEA
:100470000C945C940C9419A00C9456A70C948D21A8
:100480000C94792E0C9423930C94A9940C946A9751
:100490000C94CEA20C9482850C9475490C945A7CD1
:1004A0000C94FB890C9471070C945D930C94CD858E
:1004B0000C94FC7C0C9470680C9450930C941094E5
:1004C0000C9455210C942F930C94E2A60C941322B7
:1004D0000C94DC850C9403980C9454970C943A8AF1
:1004E0000C94258A0C944F210C944C210C94938FDE
:1004F0000C9402A30C94C92F0C94FC840C9454A962
:100500000C948C8C0C94008F0C948F970C94DC883A
:100510000C9402940C946E210C94A3A70C94508A12
:100520000C94919F0C945E210C94857C0C94BC904F
:100530000C941F7C0C94292E0C94FB9F0C9494918A
:100540000C94592F0C9429950C94F43B0C94CC8862
:100550000C94A5970C94F08A0C94B07D0C94DF93C6
:100560000C9497860C94208D0C947A0A0C947A2122
:100570000C94428F0C9415890C940E0F0C946857B0
:100580000C94D97D0C94430A0C94AD2F0C947507F0
:100590000C94E3970C9428870C94EC880C9464B228
:1005A0000C943F810C94B9960C94E06D0C943C93A0
:1005B0000C94B0AF0C948E8E0C94BEA20C9471214E
:1005C0000C941E980C94C49F0C941C8E0C94DC6D9F
:1005D0000C94FAA70C9470950C946E8C0C94DE21FC
:1005E0000C94B00E0C9477210C9418880C9435A7B9
:1005F0000C94DA6D0C94D28D0C9427930C94612199
:100600000C94E4880C94276D0C9405A00C942C8F0A
:100610000C94DE6D0C94DA950C943A210C94368D82
:100620000C945E8B0C9454930C944C8D0C940A8D0A
:100630000C9465570C94B92D0C94748B0C94307DEC
:100640000C949B850C9452210C948A8B0C946B0710
:100650000C94DE8A0C94068B0C948F860C94A973F0
:100660000C94DE8C0C94BC860C94F93B0C94B582F3
:100670000C94B60E0C94248C0C9490210C94646809
:100680000C94108A0C94DB490C9498870C949D73FD
:100690000C945E930C946E670C94588F0C94752F89
:1006A0000C949F950C94952E0C9445880C94C62C14
:1006B0000C9423A80C94A08B0C94B7A80C941A95B6
:1006C0000C940FA00C94C37C0C9432930C941C8B50
:1006D0000C945A7D0C941D210C94F19F0C949F86D0
:1006E0000C941FA70C945B570C94D1850C94C0906C
:1006F0000C94F48C0C9434850C9426640C946C68E3
:100700000C94D52D0C942B930C94E27D0C94D189F0
:100710000C9442210C94FE530C940A570C94FEA6A0
:100720000C94E0970C945F2E0C94E26D0C94452190
:100730000C948EA70C94480A0C941D930C9450862C
:10074000DDDFE9EFF3F6F9FBFDFE0001020304052E
:10075000060708090A32002D280023001E00001990
:100760000000140000000F00000000000A0000005C
:1007700000000000000005645F5A55504B46413CA4
:100780003732002D280023001E000019000014003D
:1007900000000F00000000000A0000000000000040
:1007A00000000532373C41464B50555A5F64576153
:1007B000726E696E673A2043616C63756C61746533
:1007C00064206D7573696320636F756E742065783E
:1007D0006365656473206D6178696D756D20706FF8
:1007E000737369626C653B205344206361726420BB
:1007F000636F7272757074696F6E206C696B656C73
:100800007921005761726E696E673A205472616394
:100810006B20636F756E7420646F6573206E6F74E8
:10082000206D61746368206669726D7761726521FD
:1008300020506C6561736520757064617465207407
:100840006865206D6963726F534420636172642030
:10085000736F756E6420656666656374732E0057EA
:1008600061726E696E673A2043616C63756C617486
:100870006564206D7573696320636F756E742065A0
:10088000786365656473206D6178696D756D20703E
:100890006F737369626C653B2053442063617264BB
:1008A00020636F7272757074696F6E206C696B650E
:1008B0006C7921005761726E696E673A20547261DB
:1008C000636B20636F756E7420646F6573206E6F49
:1008D00074206D61746368206669726D77617265FA
:1008E0002120506C656173652075706461746520AA
:1008F000746865206D6963726F534420636172642C
:1009000020736F756E6420656666656374732E0070
:100910004E6F20417564696F204465766963650098
:100920005761726E696E673A205253505F53595344
:1009300054454D5F494E464F206E6F74207265637B
:10094000656976656421005573696E672057415665
:100950002054726967676572005573696E67204736
:10096000505374617220417564696F2056657273CB
:10097000696F6E3A2000CED5DFE5E9ECEFF1F3F4D4
:10098000F6F7F8F9FAFBFCFDFEFF004505152535E5
:100990004434241404433323130302122232424109
:1009A0003121110100102030404030201000011191
:1009B000213141423222120203132333430414240F
:1009C000344435251505453738393A3B3B3A3938F3
:1009D000370010203001112131021222320313237B
:1009E0003304142434051525350616263636261606
:1009F000063525150534241404332313033222123B
:100A000002312111013020100000050B11171D00CB
:100A1000040B10161B000102030405060708090A4F
:100A20000B0C0D0E0F101112131415161718191A9E
:100A30001B1C1D1E1F20212223302F2E2D2C2B2A64
:100A40002928272625000102030405060708090AAC
:100A50000B0C0D0E0F101112131415161718191A6E
:100A60001B1C1D1E1F2021222331302F2E2D2C2B2D
:100A70002A2928272600191830011A172F021B16B9
:100A80002E031C152D041D142C051E132B061F12DE
:100A90002A072011290821102809220F270A230ECE
:100AA000260B240D250000000000000000000000BF
:100AB000000101010101010101020202020202031F
:100AC00003030304040404050505050606060707D9
:100AD000070808080909090A0A0B0B0B0C0C0D0D75
:100AE0000E0E0F0F101011111212131314141515EE
:100AF0001617171818191A1A1B1C1C1D1E1E1F204A
:100B00002021222323242526262728292A2A2B2C84
:100B10002D2E2F2F30313233343536373838393A9D
:100B20003B3C3D3E3F4041424344454647494A4B9A
:100B30004C4D4E4F5051525455565758595B5C5D71
:100B40005E5F61626364666768696B6C6D6F70712C
:100B50007374757778797B7C7E7F808283858688C5
:100B6000898B8C8E8F9192949597989A9B9D9EA03D
:100B7000A2A3A5A6A8AAABADAFB0B2B4B5B7B9BA97
:100B8000BCBEC0C1C3C5C7C8CACCCECFD1D3D5D7D0
:100B9000D9DADCDEE0E2E4E6E8E9EBEDEFF1F3F5EB
:100BA000F7F9FBFDFF47657474696E672057616E46
:100BB0006420507265666572656E6365730044619A
:100BC000746120746F205061636B3A20005361762A
:100BD000696E672057616E64205072656665726544
:100BE0006E636573005061636B2053796E632045BB
:100BF0006E64005061636B2053796E63205374619F
:100C0000727400526563762E2053796E63205061B2
:100C1000796C6F616400526563762E20536D6F6B43
:100C20006520436F6E66696700526563762E2057B4
:100C3000616E6420436F6E66696700526563762E4D
:100C4000204D6573736167653A2000526563762EA7
:100C500020436F6D6D616E643A20000000000064F7
:100C600010B71DC8206E3BAC30D9269041DC76F41D
:100C7000516B6B5861B24D3C7105502083B8ED4407
:100C8000930FF0E8A3D6D68CB361CBB0C2649BD4EB
:100C9000D2D38678E20AA01CF2BDBD000021002458
:100CA0000027002A002D003000330001010000045D
:100CB0000107010A0100002200250028002B002E58
:100CC000003100340002010000050108010B0100A1
:100CD0000020002300260029002C002F00320000F5
:100CE00001000003010601090105050505070508C6
:100CF000080808020202020A0A080804040404019F
:100D000001010101010101030303030303030304C0
:100D10000707070C0C0C0C0C0C0C0C020202020650
:100D2000060606060606060B0B0B0B0B0B0B0B0140
:100D300002102020080810204010204080020102EC
:100D400001080402010102040810204080804020B4
:100D500010080402018004020180402010080402EF
:100D6000010804020101020408102040800102046D
:100D7000081020408000000A0B02090C0D0E080725
:100D8000030401000000000000000000000000005B
:100D90000000000000000000000000000000000053
:100DA0000012111000000000000000000000000010
:100DB00000000000000000000000004552524F52A9
:100DC0003A204E6F2063616C6C6261636B206176C8
:100DD00061696C61626C6520666F72207061636B23
:100DE000657420494420000064B2B0AF11241FBED6
:100DF000CFEFD1E2DEBFCDBF00E00CBF13E0A0E03B
:100E0000B2E0ECE8F5E801E00BBF02C007900D92FC
:100E1000A638B107D9F72DE0A6E8B3E001C01D92CE
:100E2000A63CB207E1F716E0C5EFD6E000E006C049
:100E300021970109802FFE010E941EBDC43FD107EA
:100E400080E00807A9F70E949CB50C94B4C20C94EA
:100E500000009091E8039C3131F4E82FF0E0E15F6D
:100E6000F54F849108959E3129F4E82FF0E0E75F73
:100E7000F54FF7CF81E008952091E8039091A60304
:100E8000E82FF0E02C3149F4992321F0E351F64F9B
:100E900084910895EF52F64FFBCF2E3141F4992300
:100EA00019F0E755F64FF4CFE557F64FF1CF9923F8
:100EB00019F0E453F64FECCFE953F64FE9CF8091A8
:100EC000AF038F5F8093AF0308958091AE038F5F70
:100ED0008093AE03089590E080E00895FC0164875C
:100EE0000895FC01848590E00895FC01868597852E
:100EF00008951092C20384E6809316021092C303F1
:100F000045E050E060E070E08DE898E00C947BAC48
:100F10000F931F93CF93DF9300D000D0CDB7DEB7F0
:100F20008FEF9FEFDC0189839A83AB83BC8310E052
:100F300000E01E830D83BE016B5F7F4FCE010196E3
:100F40000E944CA6BE016A5F7F4FCE0101960E94AF
:100F50004CA60F5F1F4F0732110559F78FE190E044
:100F60009E838D83BE016B5F7F4FCE0101960E94F1
:100F70004CA6BE016A5F7F4FCE0101960E944CA62F
:100F800088E090E09E838D83BE016B5F7F4FCE0132
:100F900001960E944CA6BE016A5F7F4FCE0101966A
:100FA0000E944CA669817A818B819C8160957095A5
:100FB0008095909526960FB6F894DEBF0FBECDBFF4
:100FC000DF91CF911F910F91089520919804309156
:100FD0009904215031092330310518F460E00C9454
:100FE0005A980895FF920F931F93CF93DF93EC01CC
:100FF000F62E08811981C8010E9453BCF81621F011
:101000006F2DC8010E945BBCCE01DF91CF911F9173
:101010000F91FF900895EF92FF920F931F93CF933C
:10102000DF9300D000D0CDB7DEB70E948807698378
:101030007A838B839C83CE0101967C010CEF1FE0A9
:101040001E830D83F70161917F01CE0105960E94F9
:10105000F2070F5F1F4F0115F0E11F0789F7269672
:101060000FB6F894DEBF0FBECDBFDF91CF911F91B9
:101070000F91FF90EF900895E2E0F1E080818F7D85
:10108000808380818F7B80831098119880E00E94FC
:10109000976F80E00E941B6FE3EEF7E010861186E9
:1010A00008952091E4033091E503A90143505109CB
:1010B0004230510518F02630310511F4882399F19A
:1010C0009091180B2091190B291303C0811118C09E
:1010D00008952917A8F481E0809392034EE150E02F
:1010E00060E070E09230D9F070F449E150E060E0E7
:1010F00070E09130A1F04CE350E060E070E00FC090
:1011000010929203EBCF44E250E060E070E0933045
:1011100031F04DE250E060E070E0943061F785EB33
:1011200098E00C947BAC08958091180B823071F09C
:1011300028F4813069F084E10C94EF6E833021F063
:101140008430C9F783E1F8CF82E1F6CF81E1F4CFB3
:1011500080E1F2CFCF93C82F84E0C530F0F00E9439
:101160003C0760E00E94AC9E83E00E943C0760E088
:101170000E94AC9E82E00E943C0760E00E94AC9E10
:1011800081E00E943C0760E00E94AC9E80E00E94EB
:101190003C0760E0CF910C94AC9E0E943C0761E05C
:1011A0000E94AC9EC43001F383E00E943C0761E0E2
:1011B0000E94AC9EC330F1F282E00E943C0761E0E5
:1011C0000E94AC9EC230E1F281E00E943C0761E0E7
:1011D0000E94AC9EC111DACF80E00E943C0761E022
:1011E000D9CFEF92FF920F931F93CF93DF938BE0B2
:1011F00098E00E944BAC882341F040E951E060E068
:1012000070E08BE098E00E947BAC8091E80310E0F6
:101210008E3109F012E08BE098E00E9405AC683C4A
:1012200071058105910508F0DFC0C0918504CC23CC
:1012300091F08091E4039091E503069759F4809131
:101240001502853039F4C1E08091B8039091B9035B
:10125000892B09F0C0E080911A0B8D7F813089F4D1
:101260008091E4039091E503069759F4809115026B
:10127000853039F48091B8039091B903019709F44E
:10128000C1E0809162028A3B69F48091E40390910D
:10129000E503069739F4D1E08091B8039091B90342
:1012A000892B09F0D0E080919D03882379F020916B
:1012B000E4033091E5032630310541F42091B80371
:1012C0003091B9032130310509F4D82F8091E8031A
:1012D0008C3169F105E08E3159F180E0DD2309F4AC
:1012E0007BC00E943C0760E00E94AC9E81E00E94AF
:1012F0003C0761E00E94AC9E82E00E943C0761E0F6
:101300000E94AC9E83E00E943C0761E00E94AC9E7C
:1013100084E0CC2309F464C00E943C0760E0DF91C4
:10132000CF911F910F91FF90EF900C94AC9E04E031
:10133000CC2379F1C0E08EE190E07C01E11AF10864
:10134000CE151F04ACF4CC2369F0DD2311F0C017D7
:1013500010F0C93138F08C2F0E943C070E94029D8A
:10136000CF5FEECF8C2F0E943C070E94E49CF8CF09
:101370008091E8038E3129F48DE10E943C070E94A0
:10138000E49CDF91CF911F910F91FF90EF900C940F
:101390006EA1DD23C9F0C0E08EE190E07C01E11A8E
:1013A000F108CE151F046CF78C2FCC2341F0C01729
:1013B00030F40E943C070E94029DCF5FF2CF0E9452
:1013C0003C070E94E49CF9CFDF91CF911F910F91D0
:1013D000FF90EF900C9464A10E943C0761E084CFE1
:1013E0000E943C0761E09BCF80911502833009F495
:1013F000BDC068F4813009F40BC1823009F4E3C048
:10140000DF91CF911F910F91FF90EF90089584305D
:1014100009F47BC08530A1F78091E8038C3109F491
:1014200039C08E3109F068C0C1E08EE190E09C01C6
:10143000211B31098901C01711060CF0A2CFEBEF77
:10144000EC0FE93100F5F0E08827E65DF54F8F4FAE
:101450000C941EBD480A480A430A430A430A430A39
:10146000480A480A430A430A430A430A480A480A00
:10147000430A430A430A430A480A480A430A430AFA
:10148000430A430A480A8C2F0E943C070E94029D8F
:10149000CF5FD1CFC1E08EE190E09C01211B3109EB
:1014A0008901C01711060CF06CCFECEFEC0FE531A1
:1014B000E0F4F0E08827E05AF54F8F4F0C941EBD02
:1014C0007A0A7A0A7A0A750A750A750A7A0A7A0A0B
:1014D0007A0A750A750A750A7A0A7A0A7A0A750A00
:1014E000750A750A7A0A7A0A7A0A8C2F0E943C07D2
:1014F0000E94029DCF5FD5CF85E0DF91CF911F91F4
:101500000F91FF90EF900C94AA088091E8038C3122
:1015100049F18E3149F5C1E0CD3038F48BEFCB3055
:1015200028F0CF5FC731C1F72CCF8FEE8C0F823000
:10153000C0F38C2F0E943C070E94029DF2CFCD3059
:1015400038F48CEFCA3028F0CF5FC631C1F719CF1D
:1015500080EF8C0F8330C0F38C2F0E943C070E94D9
:10156000029DF2CFC1E0F8CF84E0C7CF8091E803BD
:101570008C3129F18E3129F5C1E0C53030F0C7300A
:1015800048F085EF8C0F823028F08C2F0E943C07AA
:101590000E94029DCF5FC13181F7F3CEC43030F09D
:1015A000C73048F086EF8C0F833028F08C2F0E94D4
:1015B0003C070E94029DCF5FC03181F7E2CEC1E0BF
:1015C000F5CF83E09ACF8091E8038C31E9F08E313A
:1015D000E9F4C1E08BEF8C0F823028F08C2F0E9451
:1015E0003C070E94029DCF5FCB30A1F7CACE8CEFA3
:1015F0008C0F833028F08C2F0E943C070E94029DA4
:10160000CF5FCA30A1F7BDCEC1E0F5CF82E075CF84
:101610008091E8038C3161F08E31A1F4C1E08C2F10
:101620000E943C070E94029DCF5FC530C1F7A9CE42
:10163000C1E08C2F0E943C070E94029DCF5FC43006
:10164000C1F79FCE81E059CFEF92FF920F931F9386
:10165000CF93DF9300D01F921F92CDB7DEB780915A
:10166000E8038D7F8C3109F0EAC085EB98E00E9499
:101670004BAC882309F455C08091E803F12C8E31DE
:1016800011F082E0F82E85E0E8E7F2E0DE01119645
:1016900001900D928A95E1F78091110290911202CA
:1016A000019731F48AE089838A838B838C838D83CD
:1016B00080919303282F30E00EE110E00F191109FB
:1016C00090919203992309F45CC02017310724F408
:1016D0000E943C070E9479A18091180B9FEF980F00
:1016E0009430F0F50E94290790919303981728F100
:1016F0001092920380911102909112024AE550E0FB
:1017000060E070E0019739F51092BD081092BE08B4
:1017100080919203882329F0809193038F5F8093B7
:1017200093030F900F900F900F900F90DF91CF9138
:101730001F910F91FF90EF900895E091180BEC0F1F
:10174000FD2FF11D408184E0489FA0011124052E4A
:10175000000C660B770B85EB98E00E947BACD8CF32
:10176000909193039017110641F03CF01092920370
:101770008EE18F1980939303BDCFFE01E80FF11D19
:10178000E1CF2017310724F40E943C070E9472A188
:10179000F0909303F11016C081E0809392034AE524
:1017A00050E060E070E085EB98E00F900F900F90B4
:1017B0000F900F90DF91CF911F910F91FF90EF90BD
:1017C0000C947BACFA94F0929303EE24E394809112
:1017D000E8038E3109F4E12C8091180B209111025D
:1017E000309112029FEF980F9430F8F421303105B8
:1017F00069F40E9429078E0D9927991FF81619067A
:101800002CF41092BD081092BE088BCFE091180BFB
:10181000EC0FFD2FF11D408184E0489FA0011124B1
:10182000052E000C660B770BBECF2130310519F465
:10183000F016110634F3FE01E80FF11DECCF809194
:10184000180B8230C9F020F4813041F085E007C0E8
:101850008330A1F08430D1F784E001C081E00F90A3
:101860000F900F900F900F90DF91CF911F910F91DC
:10187000FF90EF900C94AA0882E0F1CF83E0EFCFC5
:101880000F931F93CF93DF939091E8038091180BF0
:101890009C3169F0D0E09E3159F0823009F452C099
:1018A00008F042C0813009F446C085E045C0D2E06E
:1018B00081502D2F30E0C0E00EE110E0021B130B31
:1018C000843018F5C01711069CF48091180B0E9403
:1018D00029078C1738F08C2F0E943C070E94029D2C
:1018E000CF5FF0CF8C2F0E943C070E94E49CF8CF82
:1018F0000E946EA18091180B0E9429078093930388
:10190000DF91CF911F910F910895C01711063CF4FC
:101910008C2F0E943C070E94029DCF5FF6CF0E9451
:101920006EA18EE18D1BEACF833071F0843009F017
:10193000BCCF84E001C081E0DF91CF911F910F9176
:101940000C94AA0882E0F8CF83E0F6CF80911102D0
:1019500090911202019739F480E190E0909318027F
:1019600080931702089583E090E09093180280938B
:1019700017028091E4039091E503049751F0809160
:10198000120B823079F78091E6039091E703892B5F
:1019900049F786E090E0E2CFCF938091E8038C3165
:1019A00009F0E5C0809193038C3118F1883308F079
:1019B00040C097E3981B892F2091E4033091E50301
:1019C0002430310521F09091B6039923A1F10E94B2
:1019D0003C070E9472A180919303873309F0E8C00D
:1019E0001092EC081092ED0810929203109293035B
:1019F00020C00E943C070E9479A1809193038F5FD1
:101A0000809393038C3109F0EDC04AE550E060E02B
:101A100070E084EE98E00E947BAC8091110290917E
:101A20001202019731F488E090E0909318028093BD
:101A30001702CF91089520911102309112029091D6
:101A4000180B953018F42130310511F0232B21F4B7
:101A50000E943C070E9472A1809111029091120293
:101A60000097E9F0019729F7809193039091180B63
:101A7000923009F45EC058F5913009F467C087339D
:101A8000B1F51092BD081092BE081092EC081092A9
:101A9000ED08109292038BE18093930315C080911F
:101AA00093038733D9F54AE550E060E070E085EBB9
:101AB00098E00E947BAC1092EC081092ED0881E057
:101AC0008093920310929303CF910C94A60C9330C1
:101AD000C9F09430A1F6803241F41092EC081092D3
:101AE000ED081092920386E1D7CF8132B8F01092C0
:101AF000EC081092ED0891E09093920397E3981B05
:101B0000892FCACF863241F41092EC081092ED086A
:101B10001092920380E1C0CF873248F740911702BC
:101B200050911802440F551F440F551F70E060E09C
:101B300043C08B3241F41092EC081092ED081092E1
:101B400092038BE0A9CF8C3248F3D1CF823341F49A
:101B50001092EC081092ED081092920384E09CCF52
:101B60008333E0F21092EC081092ED08C5CF8E316D
:101B700009F0C0C0809193038E3140F18C3308F09E
:101B800058CF9BE3981B892F2091E4033091E50304
:101B90002430310521F09091B603992391F10E94F0
:101BA0003C070E9472A1809193038B3309F418CFF4
:101BB00040E550E060E070E084EE98E00E947BAC8D
:101BC000809193038F5F8093930333CF0E943C07F0
:101BD0000E9479A1809193038F5F809393038E314C
:101BE00009F413CF4091170250911802440F551F6A
:101BF000440F551F70E060E084EE98E0CF910C94A4
:101C00007BAC20911102309112029091180B95300B
:101C100018F42130310511F0232B21F40E943C07E8
:101C20000E9472A180911102909112020097E1F03E
:101C3000019709F0FECE809193039091180B92309A
:101C400009F440C0B8F4913009F442C08B3319F55F
:101C50001092BD081092BE081092EC081092ED0888
:101C6000109292038DE118CF809193038B3309F08A
:101C700055CF19CF9330C1F0943041F7833241F4FE
:101C80001092EC081092ED081092920387E104CFB5
:101C9000843208F443CF1092EC081092ED0891E0E2
:101CA000909392039BE32BCF893241F41092EC087E
:101CB0001092ED081092920381E1EECE8A3208F480
:101CC0002DCFE9CF8F3209F436CF08F427CFE3CFF9
:101CD000853341F41092EC081092ED0810929203B3
:101CE00085E0DACE863308F419CF1092EC08109212
:101CF000ED08D6CF8091E4039091E503049721F09D
:101D00008091B603C1E08111C2E0E0919503EA3011
:101D100008F08FCEF0E08827EF56F14F8F4F0C94EC
:101D20001EBD9B0EB00EB20EB40EB60ED70EE10E57
:101D3000EA0EF30E0E0F81E00E94AA0888E7C89F02
:101D4000A0011124052E000C660B770B84EE98E0A1
:101D50000E947BAC809195038F5F8093950369CE41
:101D600082E0EACF83E0E8CF84E0E6CF85E00E941E
:101D7000AA0880919503282F30E02F5F3F4F909164
:101D8000180B9217130639F42091E4033091E50300
:101D900024303105E1F58F5F8093950388E7C89F74
:101DA000A0011124052E000C660B770B25CF84E0D3
:101DB0000E94AA0880919503482F4150550B9A0123
:101DC000DECF83E00E94AA0880919503482F4350FC
:101DD000550BF5CF82E00E94AA0880919503482F09
:101DE0004550550BECCF81E00E94AA0880919503E5
:101DF0008750990B2091180B2817190609F09ECFD0
:101E00008091E4039091E503049709F497CF109231
:101E1000EC081092ED08109295030BCE80E00E9422
:101E2000AA08F5CF0F931F93CF938091E80390E01A
:101E30008E3109F092E02EE1291B2093930325E0D7
:101E4000209395038D7F8C31F1F4C0E00EE110E01A
:101E5000091B1109C01711063CF48C2F0E943C0786
:101E60000E94029DCF5FF6CF0E946EA148E750E02E
:101E700060E070E084EE98E00E947BACCF911F910F
:101E80000F910C94CC0C85E00E94AA08EFCF8091B2
:101E9000E8038D7F8C3121F40E9464A1109293039A
:101EA00008950E94470F1092130810921408809111
:101EB000AA03811114C00E94A60C8091E8038D7FB3
:101EC0008C3149F48091110290911202019719F41A
:101ED00080E00E9451080E9494080C94CC0C089554
:101EE000E7ECFAE01086118610928E0370E060E055
:101EF0008BE00C94519F40911D0B4330F1F0909179
:101F000007029923D1F02091E4033091E5032430B6
:101F1000310599F09091B60391110FC09091E203B1
:101F2000992359F0882349F090913108423081F487
:101F30002330310569F091110BC00C94700F82179A
:101F4000D9F080938E03682F70E08BE00C94519F42
:101F500020918E03992399F3682F70E0660F771F05
:101F60006F3F710519F014F06FEF70E02617170638
:101F700019F060938E03E9CF08958091A703823012
:101F800061F028F4813069F08091140B089583305A
:101F900031F08430C9F785E0089583E0089584E046
:101FA000089582E008951092B3081092B408109238
:101FB000A9081092AA088091B40381110BC00E9455
:101FC000BD0F84508230A0F48091E6039091E70326
:101FD000019771F4109A0E94BD0F8450823030F442
:101FE0008091E6039091E703019721F011980895FD
:101FF0001098F1CF119A08958091E90381110C9402
:10200000BD0F8091140B08950E94FC0F853059F488
:102010008091C903811107C09091150B81E099232C
:1020200021F0973011F080E0089508950F931F93E9
:10203000CF93DF931F921F92CDB7DEB710E000E081
:102040001A8309836FEFCE0101960E94F2070F5F9A
:102050001F4F0F311105A1F70E940B080F900F9031
:10206000DF91CF911F910F910895EF92FF920F93FF
:102070001F93CF93DF9300D000D000D01F92CDB735
:10208000DEB750910E0240910C0280910B0231E0BC
:10209000811132E080910A0291E0811192E08091F9
:1020A000870421E0811122E08091A90381112FC0D2
:1020B00081E0609114026983609113026A833B831B
:1020C0005C834D832E839F838887CE0101967C019C
:1020D0000FE110E01A870987F70161917F01CE01B6
:1020E00009960E94F2070F5F1F4F0732110591F703
:1020F0000E940B082A960FB6F894DEBF0FBECDBF24
:10210000DF91CF911F910F91FF90EF90089582E0A2
:10211000D0CF0F931F93CF93DF931F921F92CDB712
:10212000DEB70FE110E01A8309836FEFCE0101964D
:102130000E94F2070F5F1F4F07321105A1F70E949F
:102140000B080F900F90DF91CF911F910F91089581
:1021500080919804909199040197039710F40C943E
:10216000D0980895CF93DF93CDB7DEB764970FB6BD
:10217000F894DEBF0FBECDBF209198043091990432
:10218000215031092230310580F4FE01319694E16D
:10219000DF011D929A95E9F795E0998381110EC0B0
:1021A00083E18D83CF010E94F59664960FB6F89473
:1021B000DEBF0FBECDBFDF91CF91089582E1F1CF99
:1021C00080919804909199040197039708F03BC17E
:1021D00060916507062E000C770B8CE390E00E945F
:1021E000839860916507062E000C770B8AE691E0D4
:1021F0000E94839860916507062E000C770B81E2A0
:1022000090E00E94839860916507062E000C770B82
:102210008DE190E00E94839860916507062E000C86
:10222000770B8EE190E00E94839860916507062EFF
:10223000000C770B8FE190E00E9483986091650716
:10224000062E000C770B80E290E00E94839880912C
:10225000E9038823D1F08091150B823069F0833037
:1022600009F4DBC0813089F460916507062E000C0B
:10227000770B84E991E007C060916507062E000C9A
:10228000770B83E991E00E9483988091B4038823BF
:10229000B9F18091150B823009F4C7C0833081F108
:1022A00060916507062E000C770B813009F4C5C0DC
:1022B0008EE791E00E94839860916507062E000CDE
:1022C000770B89E891E00E94839860916507062E5C
:1022D000000C770B83E690E00E948398609165077D
:1022E000062E000C770B88E490E00E9483986091A2
:1022F0006507062E000C770B82E690E00E9483981B
:102300008091B503882371F00E94FC0F60916507EE
:10231000062E000C770B853009F092C084E991E01D
:102320000E9483980E94BD0F8450823008F08BC0B9
:1023300060916507062E000C770B8EE890E00E94F6
:10234000839860916507062E000C770B80E990E07A
:102350000E94839860916507062E000C770B8DE82C
:1023600090E00E94839860916507062E000C770B21
:102370008FE890E00E94839860916507062E000C1C
:10238000770B83E990E00E94839860916507062EA1
:10239000000C770B81E990E00E94839860916507BB
:1023A000062E000C770B82E990E00E9483986091E2
:1023B0006507062E000C770B84E990E00E94839855
:1023C00060916507062E000C770B82E190E00E9479
:1023D000839860916507062E000C770B83E190E0EF
:1023E0000E94839860916507062E000C770B84E1AC
:1023F00090E00E94839860916507062E000C770B91
:1024000085E190E00E94839860916507062E000C9C
:10241000770B86E190E00C94839860916507062E17
:10242000000C770B87E491E02ECF60916507062EB4
:10243000000C770B84E390E061CF8AE390E05ECFFD
:102440008BE691E06DCF0895E82F8091C503882336
:1024500091F01E163CF40E2E000CFF0BED55F84FBC
:1024600084910895EF3D94F0FF27E1950CF4F095E9
:10247000EB5AF84FF5CFE53D4CF01E164CF0FF2718
:10248000E1950CF4F095E958F84FEACF80E0089513
:1024900084E608952F923F924F925F926F927F92BF
:1024A0008F929F92AF92BF92CF92DF92EF92FF9264
:1024B0000F931F93CF93DF93CDB7DEB7A6970FB6D9
:1024C000F894DEBF0FBECDBF809167070E94241233
:1024D000682E80911A0B12E0813031F011E08330C8
:1024E00019F412E042E001C041E08091170BEE24A4
:1024F000E394E80EF090C80380910402BB24B394E7
:10250000882311F072E0B72E80910502CC24C39489
:10251000882311F062E0C62E80910F02DD24D3944F
:10252000882311F052E0D52E8091090281110EC14D
:10253000E1E0EAA38091A80381110BC1E1E0EBA3E4
:102540008091A60301E0811102E08091AA03552445
:102550005394882311F032E0532E8091120B4424BF
:102560004394823011F422E0422E809106023324FB
:102570003394882311F092E0392E8091C5032224F0
:102580002394882311F082E0282E80916302909199
:10259000640228EE33E0B9010E94F6BC762E8091E9
:1025A000650290916602B9010E94F6BC862E809168
:1025B000670290916802B9010E94F6BC962E809144
:1025C000690290916A02B9010E94F6BCA62E809120
:1025D0006B0290916C02B9010E94F6BC80916D0271
:1025E00071E0811172E08091F808B1E08111B2E0F0
:1025F0008091F9088111B0C051E05CA38091FA0884
:102600008111ADC091E09DA3809100098111AAC004
:10261000F1E0FEA38091A4039091A50322E0813014
:10262000910521F023E0029709F021E08091A003B9
:102630009091A1038130910509F499C0029709F0A6
:1026400094C093E0E091A703E15081E0E43020F4EE
:10265000F0E0E058FD4F8081E0919E03F0919F03F0
:1026600032E0E130F10521F034E0329709F031E059
:10267000E4E651E0560DE61508F455E6E091A203B4
:10268000F091A303A2E0E130F10521F0A3E032973D
:1026900009F0A1E0E0910802E150E33008F069C0E0
:1026A000F0E0E358FD4FE08119834A83EB82FC821E
:1026B000BD82CE82DF82FAA1F8874BA149870A87C3
:1026C0002B879C875D868E873F87488A398A2A8A2E
:1026D0005B8B7C8A8D8A9E8AAF8A688F798FBA8F4E
:1026E0005CA15B8F8DA18C8F9EA19D8FAE8FEF8F94
:1026F000FE0131967F0110E000E019A308A3F70165
:1027000061917F01CE0180960E94F2070F5F1F4FFB
:102710000F31110591F70E940B08A6960FB6F89499
:10272000DEBF0FBECDBFDF91CF911F910F91FF9004
:10273000EF90DF90CF90BF90AF909F908F907F9061
:102740006F905F904F903F902F900895F2E0FAA322
:10275000F1CEF2E0FBA3F4CE82E08CA34FCFE2E017
:10276000EDA352CF52E05EA355CF91E06BCF92E044
:1027700069CFE4E099CF282F853608F024E6822F30
:1027800065E00E94DCBC992361F0822F90E0029604
:1027900065E070E00E940ABD862F880F880F282F01
:1027A000260F822F65E00E94DCBCE82FF0E08091CC
:1027B000C503882321F0E05CF84F84910895EA581E
:1027C000F64FFBCF80918004909181041816190672
:1027D0000CF067C08091820490918304843F21E0D3
:1027E000920708F45EC021E0209386044091E9033B
:1027F00020919804309199042230310599F12330C9
:10280000310519F02130310509F54423F9F0209103
:10281000850461E0211101C060E00E945A98609136
:102820006407062E000C770B80918204909183043C
:102830000E94839861E080918204909183040E94B9
:10284000A9980E94D09881E08093CD078091E903F8
:10285000882339F140E157E260E070E088E697E0D4
:102860000C947BAC442391F32091850461E0211109
:1028700001C060E00E945A9860916407062E000C27
:10288000770B80918204909183040E94839850E09A
:1028900040E061E080918204909183040E94BB99A2
:1028A000D0CF089520919804309199042150310996
:1028B0002330310510F40C94959B08958DEB91E035
:1028C0000E94521484E991E00E9452148BE691E038
:1028D0000E9452148CE691E00C9452140E94FC0F5A
:1028E0008250823020F08AE691E00C9452148CE3FE
:1028F00090E0FBCFEFE1F9E010861186E5E1F9E029
:10290000108611868DE890E00E9452148EE890E0C7
:102910000E9452148FE890E00E94521480E990E0E7
:102920000E94521481E990E00E94521482E990E0E2
:102930000E94521483E990E00E94521484E990E0CE
:102940000C945214CF93C82F8091180B813051F002
:1029500010F08430E0F08DE190E00E94521480E2AB
:1029600090E002C081E290E00E945214CC23F1F08A
:102970008091E9038823D1F08091150B823071F0AA
:10298000833089F0813091F484E991E009C081E2DB
:1029900090E00E9452148DE190E0E6CF83E991E04F
:1029A000CF910C94521487E491E0FACFCF9108951F
:1029B0009091DD098091D80998131AC09091220A4C
:1029C00080911D0A981314C09091670A8091620A41
:1029D00098130EC08091E6039091E703019741F4AC
:1029E00048EE53E060E070E087E998E00E947BAC3D
:1029F0008091C703882309F457C01092C7039091B0
:102A0000DD098091D809981312C09091220A809113
:102A10001D0A98130CC09091670A8091620A98135E
:102A200006C08091E6039091E703019711F182E1DE
:102A300090E00E94521483E190E00E94521484E1DD
:102A400090E00E94521485E190E00E94521486E1C9
:102A500090E00E94521480910F02882319F080ECBC
:102A60000E94EF6E40E050E0BA0187E998E00C94D4
:102A70007BAC82E190E00E94E50783E190E00E9458
:102A8000E50784E190E00E94E50785E190E00E947F
:102A9000E50786E190E00E94E50780910F02882318
:102AA00019F081EC0C94EF6E0895AF92BF92CF9223
:102AB000DF92EF92FF920F931F93CF93DF93CDB7E7
:102AC000DEB764970FB6F894DEBF0FBECDBF5C01D2
:102AD000F62EC42E14160CF4C12C8AEBC81614F46E
:102AE0008AEBC82E809198049091990482309105C8
:102AF00009F449C08330910511F0019799F50C2C28
:102B0000000CDD082223F9F06AEB7FEFC5010E947B
:102B100083986E2DC5010E94A998FE01339682E12B
:102B2000DF011D928A95E9F78CE08983BB82AA8236
:102B30008AE08D83DD86CC861A870987CE010196CF
:102B40000E94F59608C0B601C5010E9483986E2DBB
:102B5000C5010E94A99861E0F11001C060E0C501C3
:102B60000E945A9864960FB6F894DEBF0FBECDBF90
:102B7000DF91CF911F910F91FF90EF90DF90CF9059
:102B8000BF90AF9008950C2C000CDD08222361F05B
:102B90006AEB7FEFC5010E94839850E040E06E2D04
:102BA000C5010E94BB99B9CFB601C5010E948398A7
:102BB00050E040E06E2DC5010E94BB99CCCFEF9252
:102BC0000F931F9390911B02981771F1943060F549
:102BD0008430E1F48FE00E94EF6E0E94FC0F82507F
:102BE000EE24E39410E000E020E04091650761E00E
:102BF0008230B8F08AE691E00E94551544E650E034
:102C000060E070E08BEA98E00E947BAC80911B0250
:102C10008F5F80931B028EE01F910F91EF900C94B9
:102C2000EF6E8CE390E0E8CF1F910F91EF90089545
:102C3000EF920F931F932091A2033091A3038091F1
:102C40001C0B2115310519F52091530990914E095E
:102C5000291731F1823031F1882309F45AC00E94DA
:102C6000BD0F90910F028450823008F441C0992327
:102C700019F082EB0E94EF6EEE24E39410E000E086
:102C800020E04091650760E08DE891E040C0213090
:102C9000310501F72091530990914E092917D1F27E
:102CA000813051F481E090911C0B923009F080E06A
:102CB0001F910F91EF900895882399F080910F0252
:102CC000882319F084EB0E94EF6EEE24E39410E069
:102CD00000E020E04091650760E086E991E00E9415
:102CE000551583E70E94EF6E81E080931C0BDACFCD
:102CF000992319F083EB0E94EF6EEE24E39410E029
:102D000000E020E04091650760E081EB90E00E94E8
:102D1000551582E70E94EF6E82E0E7CFEF920F93A6
:102D20001F938091E903882371F110920909109291
:102D30000A0987E591E00E945214EE24E39410E022
:102D400000E020E04091650760E088E591E00E94A6
:102D500055158091150B8230B1F48091E603909166
:102D6000E703019781F49091220A80911D0A98133C
:102D70000AC004E813E021E04091650761E083E9BF
:102D800091E00E9455151092E5031092E4031F9103
:102D90000F91EF900895EF920F931F938091C603C8
:102DA0008823A9F10E94BD0F82508230B0F589E4DA
:102DB00091E00E9452148CE491E00E9452148DE440
:102DC00091E00E94521481E00E94A2148091E403D9
:102DD0009091E5030497D9F08091B503811117C054
:102DE00080910F02882319F087EB0E94EF6E81E13A
:102DF00090E00E945214EE24E39410E000E020E002
:102E00004091650760E081E190E00E9455151092C5
:102E1000C6031F910F91EF90089580910F022091AA
:102E2000E4033091E5032430310551F09091B6036D
:102E3000911106C02091E6033091E703232B91F412
:102E4000882319F084E50E94EF6EEE24E39410E0ED
:102E500000E020E04091650760E084E990E00E9496
:102E600055152FC09091B50391112BC0882319F0EF
:102E700082E50E94EF6E49E557E060E070E08FE187
:102E800099E00E947BAC10921D0910921E098CE300
:102E90000E9417A221E030E049E557E060E070E0D1
:102EA0008DE20E94D4A18091980490919904029798
:102EB000E1F4409165076EE870E082E990E00E94DD
:102EC000BB9B80910F02882319F08FE40E94EF6E64
:102ED0008FE890E00E94521483E990E00E9452141F
:102EE00080E990E00E94521492CFEE24E39410E027
:102EF00000E020E04091650760E082E990E0AFCF1C
:102F0000EF920F931F930E947A1480910F028823EF
:102F100019F08DE40E94EF6E48EE56E060E070E03C
:102F20008FE199E00E947BAC8EE10E9417A221E024
:102F300030E048EE56E060E070E08DE20E94D4A1FF
:102F40008091980490919904029771F440916507DB
:102F50006EE870E08DE890E00E94BB9B1092030247
:102F60001F910F91EF900895EE24E39410E000E09C
:102F700020E04091650760E08DE890E00E945515E3
:102F8000EDCFEF920F931F93CF93C82F409165071A
:102F90008091180B813020F0833058F0853060F13B
:102FA000EE24E39408EE13E02C2F61E080E290E041
:102FB00008C0EE24E39408EE13E02C2F61E081E2D8
:102FC00090E00E9455158091E903882351F1CC23AC
:102FD00041F18091150B8230C1F0833039F181309D
:102FE00001F5EE24E39404E813E021E04091650745
:102FF00061E084E991E013C0EE24E39408EE13E06D
:103000002C2F61E08DE190E0DCCFEE24E39404E826
:1030100013E021E04091650761E083E991E00E94BF
:103020005515CF911F910F91EF900895EE24E394E1
:1030300004E813E021E04091650761E087E491E056
:10304000EECFEF920F931F93CF938091E403909173
:10305000E5038430910509F4A2C12091B603211142
:103060009EC13091220A20911D0A3213C3C12091C2
:103070000B02222361F02091150B223009F485C048
:10308000039729F080913108882309F47EC08FEFDF
:103090000E941B6FC091C6030E94BD0FC11138C0B2
:1030A0008250823008F09DC080918A03811128C02F
:1030B00089E491E00E9452148CE491E00E94521441
:1030C0000E94BD0F833009F075C08DE491E00E942D
:1030D0005214EE24E39410E000E020E040916507F4
:1030E00060E08DE491E00E94551580910F028823E5
:1030F00039F080918903811103C08CEC0E94EF6E3E
:10310000C1E0C0938F0381E00E94C117C093C60342
:103110000E94BD0F84508230F8F485E199E00E944E
:103120004BAC8823C9F080910F02882319F081E508
:103130000E94EF6E8091980490919904029761F03B
:10314000EE24E39410E000E020E04091650761E0A8
:1031500080E990E00E94551510928A03109289032D
:103160009091DD098091D809981309C08091B4032A
:10317000811105C00E940410882309F4A3C0CF91D7
:103180001F910F91EF900C94D8148091180B8230FE
:1031900069F020F4813061F08CEC7ACF833021F03B
:1031A0008430D1F782EB74CF89E972CF80E870CF99
:1031B00086E66ECFEE24E39410E000E020E040913C
:1031C000650760E089E491E00E94551580910F0247
:1031D000882309F495CF80918903811191CF85EBE4
:1031E0008DCF80910F02882341F0809103028823C4
:1031F00009F447C085E50E94EF6E109227091092EE
:10320000280949E557E060E070E085E199E00E9417
:103210007BAC8DE20E9417A221E030E049E557E047
:1032200060E070E08CE30E94D4A120910302409101
:1032300065078091980490919904222379F102976F
:1032400011F560E970E083E990E00E94BB9B109269
:1032500003028DE890E00E9452148EE890E00E94F4
:10326000521481E990E00E94521482E990E00E9499
:10327000521484E990E00E94521481E08093C603C6
:1032800047CF8EE4B8CFEE24E39410E000E020E0D6
:1032900060E083E990E00E945515D9CF029739F498
:1032A00060E970E08FE890E00E94BB9BD2CFEE24F3
:1032B000E39410E000E020E060E08FE890E00E94FE
:1032C0005515C7CF8091C703811169C087E998E080
:1032D0000E944BAC882309F462C08091E403909172
:1032E000E503049709F45BC08091C703811157C0BF
:1032F0000E94BD0FC82F82E190E00E94521483E12A
:1033000090E00E94521484E190E00E94521485E102
:1033100090E00E94521486E190E00E945214C45042
:10332000C23008F053C080910602882309F44EC0D1
:1033300080910F02882319F082EC0E94EF6E409179
:1033400065078091180B823079F158F48130B1F023
:10335000EE24E39410E000E020E061E086E190E0FC
:1033600015C0833051F1843099F7EE24E39410E0D6
:1033700000E020E061E085E190E008C0EE24E39405
:1033800010E000E020E061E082E190E00E9455154D
:1033900081E08093C70310929F081092A008CF91FC
:1033A0001F910F91EF900895EE24E39410E000E058
:1033B00020E061E083E190E0E9CFEE24E39410E0C7
:1033C00000E020E061E084E190E0E0CF8091DE0960
:1033D0008823F1F280910F02882319F083EC0E9478
:1033E000EF6EEE24E39410E000E020E040916507EA
:1033F00060E0B4CF80E00E941B6F0E94D814CF9190
:103400001F910F91EF900C94CB16EF920F931F9397
:103410000E94470F1092090910920A09109213088E
:103420001092140811988091AA03811102C00E9481
:10343000A60C0E94BD0F8250823048F58CE491E0CA
:103440000E945214EE24E39410E000E020E040914A
:10345000650760E08CE491E00E9455159091220A86
:1034600080911D0A981739F00E94BD0F8450823058
:1034700010F40E9480171092E5031092E40381E09B
:10348000809389031F910F91EF900C94CC0C89E4E9
:1034900091E00E945214EE24E39410E000E020E05A
:1034A0004091650760E089E491E00E94551581E054
:1034B0000E94C117D3CFEF920F931F93CF93C82FC2
:1034C0008091110290911202019709F06EC080E183
:1034D00090E090931802809317028BEF90E00E9487
:1034E00052148091E6039091E703029709F49BC080
:1034F0008091B60381110BC08091120B823009F0CC
:1035000057C08091EC08811102C00E94CC0C8091C0
:1035100002018062809302014091190250911A02C7
:1035200070E060E084EF9AE00E947BAC81E00E9452
:10353000976F1092B3081092B4081092A9081092D5
:10354000AA088091B60381116EC00E94BD0F82301F
:10355000D9F1833009F46CC08091E903882309F420
:1035600093C089E491E00E945214EE24E39410E0A9
:1035700000E020E04091650760E089E491E00E946E
:10358000551581E00E94C1179091220A80911D0A71
:10359000981709F448C08091B603811144C0CF91B7
:1035A0001F910F91EF900C94801786E090E091CFDF
:1035B0000E94CC0C9091220A80911D0A9813A7CFEB
:1035C00081E080938A03A3CF8CE491E00E9452149F
:1035D00089E491E00E9452148091E203EE24E39486
:1035E00010E000E020E04091650760E08823B9F03A
:1035F0008CE491E00E94551580910F02882399F088
:103600008091E203882379F08091B50381110BC08A
:1036100086EBCF911F910F91EF900C94EF6E89E4A0
:1036200091E00E945515CF911F910F91EF90089551
:103630008CE491E00E9452148DE491E00E945214B7
:103640008091E203EE24E39410E000E020E040915A
:10365000650760E0882331F09091220A80911D0A6D
:103660009813C6CF8DE491E00E94551580910F020A
:103670008823C9F28091E2038823A9F28091B503DF
:103680008111D1CF8CECC5CF9091220A80911D0A77
:10369000981377CFCC2309F474CF89E491E00E948A
:1036A0005214EE24E39410E000E020E0409165071E
:1036B00060E089E491E00E94551585EB0E94EF6E71
:1036C00060CFEF920F931F93809104028823E1F063
:1036D000109204028DE590E00E9452148CE590E077
:1036E0000E945214EE24E39410E000E020E04091A8
:1036F000650760E08DE590E00E9455158EE21F9110
:103700000F91EF900C94EF6E81E0809304028DE5B1
:1037100090E00E9452148CE590E00E945214EE2436
:10372000E39410E000E020E04091650760E08CE564
:1037300090E00E9455158FE2E2CFEF920F931F9316
:103740006091150B70E08AE00E94A36E8091E40303
:103750009091E5038630910509F454C008970297CB
:1037600008F450C08091E6039091E703019709F0B7
:1037700049C086E090E00E94521480E390E00E94ED
:10378000521485E490E00E94521486E490E00E9476
:1037900052148EE390E00E9452148091E903882332
:1037A00061F083E991E00E94521484E991E00E9463
:1037B000521487E491E00E9452148091150B8330DB
:1037C00009F499C0B0F5813009F447C0823009F49A
:1037D0006BC0EE24E39410E000E020E04091650728
:1037E00060E086E090E00E9455151092C20384E6E6
:1037F0008093160245E050E060E070E08DE898E0CC
:103800000E947BAC80919804909199040197029753
:1038100040F48091150B833009F0A4C080E00E9431
:10382000829C10923B0810923C081F910F91EF90E0
:103830000895853009F486C0863059F68091E903F1
:10384000882399F2EE24E39410E000E020E0409118
:10385000650760E088E991E0C6CFEE24E39410E0CC
:1038600000E020E04091650760E085E490E00E9480
:1038700055158091E903882309F4B7CF8091E603B9
:103880009091E703019709F0B0CF9091220A8091BF
:103890001D0A9813AACF00ED17E021E040916507BB
:1038A00061E084E991E09FCFEE24E39410E000E032
:1038B00020E04091650760E080E390E00E945515AC
:1038C0008091E903882309F490CF8091E6039091D9
:1038D000E703019709F089CF9091220A80911D0A90
:1038E000981383CF0CEB12E021E04091650761E073
:1038F00083E991E078CFEE24E39410E000E020E04B
:103900004091650760E086E490E00E945515809143
:10391000E903882309F469CF8091E6039091E703D6
:10392000019709F062CF9091220A80911D0A9813A5
:103930005CCF02EE14E021E04091650761E087E48E
:1039400091E051CF8091E903882309F44ECFEE2412
:10395000E39410E000E020E04091650760E087E933
:1039600091E041CF81E05BCFEF920F931F9388E20C
:1039700090E00E945214EE24E39410E000E020E076
:103980004091650760E088E290E00E94551588E567
:1039900090E00E94521485E690E00E94521489E55E
:1039A00090E00E9452149091120B80911A0B923069
:1039B00019F1833009F581E08093120B10921A0BF4
:1039C00010921B0B70E060E085EE0E94A36E20E079
:1039D0004091650760E089E590E00E9455158BE213
:1039E0000E94EF6E80E00E945F9D8823B1F11F91DD
:1039F0000F91EF900C949D1B8130D1F483E0809364
:103A00001A0B913011F480931B0B62E070E085EE8D
:103A10000E94A36EEE24E39410E000E020E04091C9
:103A2000650760E085E690E00E94551583E2D8CFF7
:103A30000E94369D61E070E085EE0E94A36EEE2448
:103A4000E39410E000E020E04091650760E088E545
:103A500090E00E94551582E2C3CF1F910F91EF9025
:103A6000089590911A0B8091120B823091F491116C
:103A700007C00E94369D61E070E085EE0E94A36E53
:103A800080E00E945F9D882339F00E949D1B80E0AA
:103A900003C081E09111FBCF0895EF920F931F9324
:103AA00080916102853010F51092610280E490E00F
:103AB0000E945214E12C10E000E020E040E060E0C1
:103AC00080E490E00E9455158091610223E2829F7C
:103AD000C001112464E670E00E940ABD6352609345
:103AE00065071F910F91EF900C94E0108550809323
:103AF0006102EACFEF920F931F93809161028036AB
:103B000018F184E68093610280E490E00E945214F0
:103B1000E12C10E000E020E040E060E080E490E094
:103B20000E9455158091610223E2829FC0011124F9
:103B300064E670E00E940ABD6352609365071F91BE
:103B40000F91EF900C94E0108B5F80936102EACFAD
:103B5000EF920F931F93CF93C82F80919804909169
:103B600099040197039738F480916202082E000CA3
:103B7000990B0E945E9CC11120C08091E603909138
:103B8000E703892BD1F480918604882321F080916A
:103B90008404882391F080911002823399F48FE39A
:103BA00090E00E945214E12C10E000E020E040E0A0
:103BB00060E08FE390E00E945515CF911F910F9127
:103BC000EF90089580E490E00E945214E12C10E000
:103BD00000E020E040E060E080E490E0ECCF809303
:103BE000C50381118AE08093B103809110020E9485
:103BF000BB13809362028093660781E00C94A81D3A
:103C0000EF92FF920F931F93CF93DF93CDB7DEB761
:103C1000AB970FB6F894DEBF0FBECDBF8CEF9FE021
:103C20000E9453BC88A78DEF9FE00E9453BC89A7D8
:103C30008EEF9FE00E9453BC8AA78FEF9FE00E9407
:103C400053BC8BA70E94880708A519A52AA53BA5E8
:103C5000601771078207930709F097C2CE0101969A
:103C60007C0110E000E0C8010E9453BCF701819381
:103C70007F010F5F1F4F0F311105A9F78981823036
:103C800071F40E94369D8A81823049F483E08093EA
:103C90001A0B9091120B913011F480931B0B8B81B6
:103CA000815087FF8093170B8C819FEF980F98307E
:103CB00090F48093C8030E945F9D8091150B833020
:103CC00051F480919804909199040197029718F407
:103CD00080E00E94829C9D818FEF890F823030F4BA
:103CE00081E0923008F480E0809304029E818FEF9F
:103CF000890F823030F481E0923008F480E08093C4
:103D000005029F818FEF890F823030F481E092307D
:103D100008F480E080930F0298858FEF890F82303E
:103D200030F481E0923008F480E0809309029985B4
:103D30008FEF890F823030F481E0923008F480E018
:103D40008093A8039A858FEF890F823030F481E049
:103D5000923008F480E08093A6038B859FEF980F44
:103D6000933050F4823009F479C1833009F481C171
:103D70001092A5031092A4038C859FEF980F9330A7
:103D800050F4823009F47EC1833009F486C1109268
:103D9000A1031092A0039D858FEF890F823030F42C
:103DA00081E0923008F480E08093AA038E859FEF33
:103DB000980F953050F4833009F483C108F076C130
:103DC000823009F47AC11092A7038F859FEF980F74
:103DD000953050F4823009F478C1843009F47CC104
:103DE00010929F0310929E0388899FEF980F923044
:103DF00050F49091E903992331F0823009F46FC1B6
:103E000081E00E948C9D99898FEF890F823030F478
:103E100081E0923008F480E0809306029A898FEF67
:103E2000890F823030F481E0923008F480E00E9403
:103E3000EF1D8B898150853650F4809310020E94CB
:103E4000BB138093670780936607809362022C8977
:103E50008FEF820F8C3378F448EE53E0249FC0013B
:103E6000259F900D11249093640280936302909398
:103E7000F7088093F6082D898FEF820F8C3378F442
:103E800048EE53E0249FC001259F900D112490938C
:103E90006602809365029093F5088093F4082E895A
:103EA0008FEF820F8C3378F448EE53E0249FC001EB
:103EB000259F900D11249093680280936702909340
:103EC000F3088093F2082F898FEF820F8C3378F4F8
:103ED00048EE53E0249FC001259F900D112490933C
:103EE0006A02809369029093F1088093F008288D0C
:103EF0008FEF820F8C3378F448EE53E0249FC0019B
:103F0000259F900D112490936C0280936B029093E7
:103F1000EF088093EE08998D8FEF890F823030F48F
:103F200081E0923008F480E080936D029A8D8FEFEB
:103F3000890F823030F481E0923008F480E0809381
:103F4000F8089B8D8FEF890F823030F481E092303A
:103F500008F480E08093F9089C8D8FEF890F823000
:103F600030F481E0923008F480E08093FA089D8D6F
:103F70008FEF890F823030F481E0923008F480E0D6
:103F8000809300098E8D9FEF980F933050F482300C
:103F900009F4A7C0833009F4ABC01092A3031092B8
:103FA000A2038F8D9FEF980F9430A0F4823009F414
:103FB000A4C0833009F4A4C0813009F4A4C084E013
:103FC000809308028091E903882309F494C083E078
:103FD00080931D0B0E94F36E0E94056F7E01F0E23C
:103FE000EF0EF11C0FE110E0C8010E9453BCF70175
:103FF00081937F010F5F1F4F07321105A9F788A139
:104000009FEF980F9E3F10F48093140289A19FEFB9
:10401000980F9E3F10F4809313029AA18FEF890F9F
:10402000823030F481E0923008F480E080930B021B
:104030008BA19FEF980F953040F480930E02813052
:1040400009F064C085E080930D028CA18C3109F4E5
:1040500063C08E3109F06AC08EE15FC01092120217
:104060001092110281E090E09093A5038093A40345
:1040700083CE81E090E0909312028093110282E05F
:1040800090E0F2CF1092B3031092B20381E090E07F
:104090009093A1038093A0037ECE81E090E0909363
:1040A000B3038093B20382E090E0F2CF843059F002
:1040B000853009F088CE84E001C081E08093A703B9
:1040C00084CE82E0FBCF83E0F9CF81E090E0909353
:1040D0009F0380939E0388CE82E090E0F8CF82E039
:1040E00090CE81E090E09093A3038093A20359CFF8
:1040F00082E090E0F8CF82E06BCF91E090930702EE
:104100008093080265CF80930702FACF853011F4BF
:1041100082E099CF80E397CF8CE180930C0290915D
:10412000E8039D7F9C3111F48093E8039DA18FEFFC
:10413000890F823030F481E0923008F480E080937F
:1041400087049EA18FEF890F823030F481E0923096
:1041500008F480E080930A029FA18FEF890F8230DC
:1041600080F581E0923008F480E08093A903AB965B
:104170000FB6F894DEBF0FBECDBFDF91CF911F9178
:104180000F91FF90EF900C94B210EE24E39410E0A6
:1041900000E020E04091650760E08FE591E00E943B
:1041A00055150E941610AB960FB6F894DEBF0FBEE1
:1041B000CDBFDF91CF911F910F91FF90EF900C94A5
:1041C0008910AB960FB6F894DEBF0FBECDBFDF915E
:1041D000CF911F910F91FF90EF900895362F9091FE
:1041E0000D0262E0903309F46FEF8D3108F025C0C5
:1041F000E82FF0E08827E050FF4D8F4F0C941EBD54
:1042000013221D213F214221452147214A214C21D2
:104210004F215221552158215B215E2161216E21C0
:1042200064217121742177217A217D218A218D21B8
:104230009021BB21DE21F8213A2190E024E6522F83
:10424000550F550F550F85E5752F789F070E70E0B8
:10425000711D1124E22FE074622F607227FD3AC1B4
:10426000E11126C16111E2C0872F8095272F782F99
:1042700080E0E0C09091130220911402E0CF97EB10
:1042800024E2DDCF9FEF24EFDACF90E8FCCF9FEF61
:1042900020E0D5CF90ECFCCF9FEF25E0D0CF9FEF73
:1042A0002AE0CDCF9FEF2FE0CACF9FEF24E1C7CF09
:1042B0009FEF20E2C4CF90E82BE2C1CF9FEF20E434
:1042C000BECF9FEF20E5BBCF632F70E08FEF90E074
:1042D0000E940ABD362F3795332737959FEF20E68A
:1042E000AECF98E720E7ABCF9FEF20E8A8CF9FEFB6
:1042F00021E9A5CF9FEF20EAA2CF632F70E08FEFD7
:1043000090E00E940ABD30E7639F302D112498ECA5
:104310002AEA95CF9FEF24EB92CF9FEF20EC8FCF2F
:1043200080918603882321F0803611F01092860355
:10433000E091E403F091E503EF2B19F4903308F4D6
:1043400062E3809100028F5F809300020E94DCBCD8
:1043500091110DC080918603811104C080E6809385
:10436000860302C01092860381E0809300022091B0
:1043700086039FEF64CF809186038F3029F0823DC2
:1043800019F08FE080938603E091E403F091E50358
:10439000EF2B19F4903308F462E3809100028F5FF1
:1043A000809300020E94DCBC9111E1CF80918603D2
:1043B0008F3011F482EDD3CF8FE0D1CF8091000206
:1043C0008F5F809300020E94DCBC91110DC0809130
:1043D000860390E005966FEF70E00E940ABD80931F
:1043E000860381E0809300022091860390E827CF26
:1043F000E091E403F091E503EF2B19F4903309F415
:1044000064E1809100028F5F809300020E94DCBC17
:104410009111ADCF8091860390E005966FEF70E02B
:104420000E940ABD9CCF30E090E032CF25E5270FF7
:1044300080E07BEA9F3FF1F0992309F46AC09095F0
:1044400050E0992329F0999F512D112491115F5F1C
:10445000952F9095799F070E70E0711D299F020E90
:1044600020E0211D899F080E80E0811D1124750F19
:10447000250F850F3F3FB9F090E0332321F0339FA4
:10448000912D09F09F5F992309F447C0799F070E8A
:1044900070E0711D299F020E20E0211D899F080EEA
:1044A00080E0811D1124442309F43BC0622F08954C
:1044B00061110AC02AEA529F050E50E0511D1124D5
:1044C0008BEA851B270FD3CE80E0272F2095872FDF
:1044D00070E0B0CFE11111C061110BC0852F2AEA45
:1044E000829F080E80E0811D11242BEA281B8B5A25
:1044F000EFCF872F809520E09DCF611106C025E585
:10450000270F8BEA871B722FF6CF2AEA270F50E07E
:10451000F9CF8FEF2FEF7FEFADCF80E020E070E09D
:10452000C2CF672F722F0895962F642F41E09130EC
:1045300009F040E00C94EE200F931F93CF93C0E05E
:1045400080910D02C81708F03BC060910E02EC2F5D
:10455000F0E0633089F0643029F1623021F4EB58E7
:10456000F54FE491F0E08F01000F111F0E0F1F1F98
:1045700006511C4F4FEF0DC0EB5BF54FE491F0E09F
:104580008F01000F111F0E0F1F1F06511C4F4FEF01
:1045900063E080E00E949422F8016083718382834B
:1045A000CF5FCECFEB5EF54FE491F0E08F01000FCF
:1045B000111F0E0F1F1F06511C4F4FEF64E0E9CF74
:1045C000CF911F910F91089580910E02833089F051
:1045D000843039F1823059F44FEF62E080E00E947C
:1045E000942260930E0470930F0480931004129829
:1045F00008954FEF63E080E00E9494226093560498
:1046000070935704809358044FEF60910E0280E03E
:104610000E9494226093590470935A0480935B041F
:10462000E6CF4FEF64E080E00E949422609356044E
:104630007093570480935804DACF8091E8038D7FFC
:104640008C31D1F40E94470F0E943C080E94E42262
:10465000109295031092930380918604882321F091
:1046600080918404882361F040E65AEE60E070E0B7
:1046700083EE97E00C947BAC80E00E94AA08E4CF24
:104680000895EBE5F8E010861186E3E8F8E010867F
:104690001186E5E6F8E010861186EFE6F8E0108670
:1046A0001186E9E7F8E010861186EDE8F8E010865B
:1046B00011861092AD031092C4031092C20384E6D7
:1046C000809316020E949C220C94E422EF920F9396
:1046D0001F93CF9310921309109214098091B50380
:1046E000811103C087E00E94EF6E1092E5031092E3
:1046F000E4031092B4031092960310929403109264
:10470000E2081092E3081092BD081092BE081092C1
:1047100092038091180B8150209111023091120266
:1047200080939503109293032130310509F078C0EE
:104730008091B2039091B303019709F066C00E9483
:10474000400C0E94240B10928B0810928C0810923F
:10475000590810925A08109245081092460840E0F5
:1047600050E0BA018FE698E00E947BAC0E94E42200
:104770000E94D30F0E946E14109291031092900326
:104780001092C1031092060B1092070B8091B50393
:1047900081115BC08091150B823009F406C1833012
:1047A00009F453C0813009F40AC10E94FC0F833020
:1047B00009F4A3C0853009F4F4C0823009F0C4C004
:1047C0008091180B853009F46BC087E498E00E9453
:1047D00005ACE12C10E000E06838734181059105DB
:1047E00008F4ABC087E498E00E9405ACE12C10E02F
:1047F00000E06031774281059105F8F420E04091B6
:10480000650760E08AE090E01EC00E94470F85E0E7
:1048100090E090931802809317020E94CC0C93CFE3
:104820000E94470F83E090E0909318028093170254
:104830008091B603811187CFF0CF20E040916507CA
:1048400060E080E891E00E9455158091150B83305F
:1048500021F486E491E00E94E5078091150B8230F7
:1048600009F428C1833009F4DCC0813009F429C17E
:10487000C091180B0E94FC0FC150C43008F004C155
:10488000833009F4A6C0853009F4FBC0823009F0FA
:10489000F5C08DE791E00E9452148EE791E09FC031
:1048A00087E498E00E9405AC683873418105910562
:1048B00050F4E12C10E000E020E04091650760E05A
:1048C00088E891E0C0CF87E498E00E9405ACE12C35
:1048D00010E000E0603177428105910538F420E076
:1048E0004091650760E08BE891E0ADCF20E040911A
:1048F000650760E08AE891E0A6CF87E498E00E942F
:1049000005AC683873418105910550F4E12C10E045
:1049100000E020E04091650760E08BE090E093CFFD
:1049200087E498E00E9405ACE12C10E000E06031E3
:1049300077428105910508F061CF20E0409165073D
:1049400060E087E490E07FCF87E498E00E9405ACC8
:10495000683873418105910550F4E12C10E000E0C6
:1049600020E04091650760E083E891E06CCF87E448
:1049700098E00E9405ACE12C10E000E06031774245
:104980008105910538F420E04091650760E082E8F8
:1049900091E059CF20E04091650760E081E891E027
:1049A00052CFE12C10E000E0EECFE12C10E000E06F
:1049B00020E04091650760E085E390E044CFE12C82
:1049C00010E000E020E04091650760E08BE390E0BC
:1049D0003ACF84E690E00E94521483E690E00E9471
:1049E000521480910502882321F089E090E00E9412
:1049F000521488E490E00E94521482E690E00E94F3
:104A000052148091150B853021F483EA91E00E94C5
:104A100052148091150B863021F484EA91E00E94B3
:104A200052148091AC03882321F180919E039091D0
:104A30009F038130910509F451C0029709F048C0E5
:104A40008EE690E00E9452148FE690E00E9452148D
:104A50008091B50381110BC0E12C10E000E020E053
:104A60004091650760E08FE690E00E945515109236
:104A7000AC03CF911F910F91EF90089580E690E0E5
:104A80000ACF8FE491E007CF833059F0853079F079
:104A9000823051F487E891E00E94521489E891E055
:104AA0009ECF81E690E09BCF8BE990E098CF8FE49A
:104AB00091E095CF83E390E00E94521484E390E06C
:104AC000AECF89E390E00E9452148AE390E0A7CF32
:104AD0000E94FC0F8250823008F0B2CF8AE490E04E
:104AE0000E94521489E490E00E9452148091B50310
:104AF0008111BDCFE12C10E000E020E0409165077E
:104B000060E089E490E0B1CFEF920F931F93CF93D1
:104B10008091E4039091E503069731F46091150BC1
:104B200070E08AE00E94A36E0E94BD0F8250823026
:104B300008F49FC00E947A148091E4039091E503E9
:104B4000049721F080918D03882361F083E490E045
:104B50000E9452148FE390E00E94521484E490E08B
:104B60000E94521489E491E00E9452148CE691E074
:104B70000E9452148091E4039091E503C0918D034B
:104B8000079709F07FC0C11183C0C091B503C1115F
:104B90007FC01092E7031092E6031092E503109293
:104BA000E4038091B40381110E94662380918B03FA
:104BB000811110928B0380910F02882359F08CE4AD
:104BC0000E94EF6ECC2319F083E50E94EF6E80EC1B
:104BD0000E94EF6E0E94D8140E94CB1681E00E94C2
:104BE000A2140E94700F8EE390E00E9452148091F4
:104BF000150B823009F4E0C0833009F4E3C0813042
:104C000009F4DDC086E090E00E9452141092B003D7
:104C100081E0809303021092090910920A09109210
:104C200013081092140810923B0810923C0810923E
:104C30003108109232081092B3081092B408109202
:104C4000A9081092AA088091E6039091E703892BA6
:104C500059F48091120B823009F0B7C00E94A60C63
:104C60001092AF031092AE03CF911F910F91EF906E
:104C700008958091C60381115FCF8CE491E00E947A
:104C800052145ACFC11196C08091B503811189CFBA
:104C90009091220A80911D0A61E0981305C08091CD
:104CA000120B813009F460E070E085E00E94A36E91
:104CB0001092E7031092E6031092E5031092E403CA
:104CC0008091B50381110E945E148091B50381111A
:104CD00007C08091B603811103C0809195088111AE
:104CE0000E944123C091B603C11127C00E94BD0F8D
:104CF0008250823020F58091120B813009F055C02E
:104D00008091C603811151C08091B50381114DC0BE
:104D1000C091E903CC2309F448C08BEF90E00E94D6
:104D20005214EE24E39410E000E020E04091650787
:104D300060E08BEF90E00E945515C0E036C0809196
:104D4000C603811117C0C091B503C11131C0809154
:104D5000E4039091E503049769F0EE24E39410E0F6
:104D600000E020E04091650760E081E990E00E946A
:104D70005515C1E08091B503811117C080910F02D4
:104D8000882319F087EB0E94EF6E81E190E00E948A
:104D90005214EE24E39410E000E020E04091650717
:104DA00060E081E190E00E9455151092B503F9CEC4
:104DB000C0E0E0CFC0E0F5CE80E390E025CF85E411
:104DC00090E022CF86E490E01FCF1092EC08109282
:104DD000ED081092BD081092BE080E941D233ECF20
:104DE000EF920F931F930E94842582E090E09093AE
:104DF000E7038093E60387E090E09093E5038093D8
:104E0000E4038091B503811141C040E456E060E0C5
:104E100070E08BEA98E00E947BAC40E951E060E0F2
:104E200070E081EA98E00E947BAC40E951E060E0EC
:104E300070E08BE098E00E947BAC80910F028823A9
:104E400031F08AEB0E94EF6E89EB0E94EF6EE12C4D
:104E500010E000E020E04091650760E083E490E02E
:104E60000E94551520E04091650760E08FE390E0D7
:104E70000E94551520E04091650760E084E490E0D1
:104E80000E9455151F910F91EF9008951F910F915A
:104E9000EF900C945E14EF920F931F93CF931092A8
:104EA000B0031092B50381E0809303021092EB07E8
:104EB0001092EC079091120B923079F581E090E01E
:104EC0009093E7038093E6031092E5031092E403C6
:104ED0008091680A811117C080910F02882319F010
:104EE0008CEB0E94EF6E8CEF90E00E945214EE2447
:104EF000E39410E000E020E04091650760E08CEF73
:104F000090E00E94551584E00E94EF6E80E0CF9102
:104F10001F910F91EF900C945B1A2091DD099091F5
:104F2000D80929130BC09091A803992339F08093D5
:104F30008D030E94F026C0E08C2FE9CF81E090E045
:104F40009093E7038093E6031092E5031092E40345
:104F5000C091E20384E00E94EF6EEECFEF920F93D8
:104F60001F938091E4039091E503039729F48091C6
:104F7000B40381110E94662384E090E09093E503DE
:104F80008093E4038091E903882341F04CEA5DE0DB
:104F900060E070E081E099E00E947BAC0E94D81450
:104FA0000E94CB1681E00E94A2148091AA0388235C
:104FB00009F460C01092EC081092ED080E94470FAF
:104FC00080910F02882331F089EB0E94EF6E8AEB0B
:104FD0000E94EF6E40E951E060E070E08BE098E005
:104FE0000E947BACE12C10E000E020E040916507DE
:104FF00060E083E490E00E94551520E04091650751
:1050000060E08FE390E00E94551520E04091650735
:1050100060E084E490E00E94551540E951E060E0D2
:1050200070E087EF97E00E947BAC40E456E060E0E0
:1050300070E08DEE97E00E947BAC80910F02882398
:1050400019F087EB0E94EF6E81E190E00E9452140C
:10505000EE24E39410E000E020E04091650760E07A
:1050600081E190E00E9455158BE01F910F91EF9028
:105070000C94EF6E0E94120FE0CFEF920F931F93EC
:10508000CF93DF938091E4039091E503AC0144500A
:1050900051093091670A2091620A4330510508F4A2
:1050A0004FC34091B60341114BC3321761F081E009
:1050B00090E09093E5038093E403DF91CF911F91FB
:1050C0000F91EF9008958091B003833008F4F6C0FB
:1050D00081E08093B5030E94F0268091150B81300A
:1050E00009F4BFC0823009F4B9C00E94FC0F8330BC
:1050F00009F49BC0853009F4AEC0823009F0A0C02D
:105100008091180B853009F485C08AE090E00E94F8
:10511000521487E490E00E94521480E891E00E94CB
:10512000521489E490E00E9452148AE490E00E94B4
:1051300052148FE690E00E9452148EE690E00E9496
:1051400052140E9479070E94FC0FC8EBDBE0853007
:1051500091F40E940410882361F0EE24E39410E09F
:1051600000E020E04091650760E08DEB91E00E9457
:105170005515C0E7D7E18091180B823009F47FC044
:1051800008F072C0813011F0C053D84FAE0170E00A
:1051900060E081E098E00E947BACBE0188E00E9464
:1051A000A36E0E94FC0F853009F06CC0EE24E394DE
:1051B00004EC19E021E04091650761E084E991E0A9
:1051C0000E94551580910902882309F476CF8091B9
:1051D000120B813009F071CF9091DD098091D809CF
:1051E000981709F46ACF9091220A80911D0A9813AA
:1051F00064CF80910402882309F45FCF8091B10AC3
:10520000882309F491C2DF91CF911F910F91EF9004
:105210000C9466AF88E891E00E9452148BE891E00C
:105220000E9452148AE891E07ACF8BE090E00E94CD
:10523000521487E490E00E9452148AE090E06FCF0D
:1052400081E891E00E94521482E891E00E94521499
:1052500083E891E064CF82E891E061CF85E390E05C
:105260006ECF8BE390E06BCF833031F0843009F068
:105270008BCFC452DA4F8ACFC851DC4F87CFCC5086
:10528000DE4F84CF80910F02882319F084EC0E94B6
:10529000EF6EEE24E39410E000E020E0409165071B
:1052A00060E08EE591E00E94551504EC19E021E0E4
:1052B0004091650761E08BE691E082CF80918C039D
:1052C0008823B1F083E398E00E9405AC672B682B3C
:1052D000692B71F410928C030E94BD0F82508230B2
:1052E00038F48091E4039091E503039709F0109856
:1052F00080911C0B823079F19091DD098091D80961
:10530000981329C09091220A80911D0A981323C0F6
:1053100082E89AE00E9491AA811106C08EE699E087
:105320000E9491AA8823B9F080910F02882319F076
:1053300084ED0E94EF6E8CE290E00E945214EE2405
:10534000E39410E000E020E04091650760E08CE22B
:1053500090E00E9455159091AC0A8091A70A98138D
:1053600046C09091DD098091D809981340C0909172
:10537000220A80911D0A98133AC080911C0B82303A
:10538000B1F5C091150BC13009F498C0C33009F4D0
:10539000B6C081E098E00E9405AC672B682B692BB2
:1053A00051F41092B00348EE53E060E070E081E009
:1053B00098E00E947BAC80919603811105C080919A
:1053C000B0038F5F8093B0038091B003833078F493
:1053D0008091E4039091E503039731F083E090E03E
:1053E0009093E5038093E40381E0809396032091FA
:1053F00098099091930980911A0B8D7F813009F45F
:10540000A0C08091150B882321F03CEF380F343079
:1054100040F44091E4035091E5034330510509F411
:105420000FC12913CEC02091DD099091D80929130D
:10543000C8C02091220A90911D0A2913C2C09091E0
:105440001C0B923009F0BDC0813041F008F424C13A
:10545000823009F43CC1833009F0B3C081E098E0A8
:105460000E9405AC672B682B692B51F41092B00396
:1054700048EE53E060E070E081E098E00E947BAC91
:105480008091B00390919603911103C08F5F809338
:10549000B0038091B003833008F093C08091E4039F
:1054A0009091E503039731F083E090E09093E5035A
:1054B0008093E40381E08093960383C080918B0303
:1054C000811195CF83E398E00E9405AC672B682B90
:1054D000692B09F08CCF8091E4039091E503039749
:1054E00009F485CF48E552E060E070E083E398E09E
:1054F0000E947BAC0E94E0AEC0938B0378CF80917A
:105500008B03811174CF83E398E00E9405AC672B75
:10551000682B692B09F06BCF8091E4039091E50330
:10552000039709F464CF4AEF50E060E070E083E352
:1055300098E00E947BAC0E94E0AE81E080938B03F8
:1055400056CF29136CC09091DD098091D80998132A
:1055500038C09091220A80911D0A981332C0809120
:105560001C0B823071F581E098E00E9405AC672B3E
:10557000682B692B51F41092B00348EE53E060E0C1
:1055800070E081E098E00E947BAC809194038111EF
:1055900005C08091B0038F5F8093B0038091B0030A
:1055A000833078F48091E4039091E503039731F020
:1055B00083E090E09093E5038093E40381E080939F
:1055C00094039091AC0A8091A70A981348C09091D7
:1055D000980980919309981709F4F4CD80911A0BDA
:1055E0008111F0CD8091150B813041F008F499C004
:1055F000823009F496C0833009F0E4CD8091B40381
:10560000882309F4DFCD80919603882309F4DACD4D
:105610001092E5031092E40310929603D3CD80918B
:10562000960381110AC08091E4039091E5030397EA
:1056300021F41092E5031092E40310929403C1CF79
:10564000291709F4BBCF0E940410882309F4B9CFAD
:105650009091AC0A8091A70A981709F4AFCF809176
:10566000150B813009F45AC0833009F457C080917A
:10567000B403882309F4ABCF80919603882309F4FF
:10568000A6CF80919403811144C01092E50310923B
:10569000E403109296039BCF80918B03811191CFED
:1056A00083E398E00E9405AC672B682B692B09F017
:1056B00088CF40ED57E060E070E083E398E00E941F
:1056C0007BAC0E94E0AE81E080938B037ACF809127
:1056D0008B03811176CF8091E4039091E5030397CA
:1056E00009F46FCF80918C03811110C04EEE52E00F
:1056F00060E070E083E398E00E947BAC0E94E0AE43
:1057000080918C038F5F80938C03DDCF8230D8F63D
:10571000F5CF0E94311D8111B8CFBBCF10928B0302
:1057200056CF10928B034ECD8091AE0A882309F498
:10573000C4CCDF91CF911F910F91EF900C94AE27C5
:105740003213B5CC892B09F0B8CC82E89AE00E94DC
:1057500091AA81110DC080911A0B8D7F813009F0C3
:10576000ACCC8EE699E00E9491AA882309F4A5CCDE
:10577000809195088111A1CC9091220A80911D0AF7
:1057800098139BCC9091DD098091D809981395CC02
:1057900080910F02882319F088EB0E94EF6E8EE54E
:1057A00091E00E945214EE24E39410E000E020E027
:1057B0004091650760E08EE591E00E945515DF910C
:1057C000CF911F910F91EF900C947907CF93DF93B6
:1057D000D0910E028EEF8D0F833098F50E94FC0F52
:1057E000853099F40E940410CEE081111DC0809193
:1057F000B50381112EC08091B60381112AC080911A
:10580000150B823041F5C0E10FC09091B5039111A5
:1058100020C09091B60391111CC09091150B92304D
:10582000D1F4C4E0833079F7D230B9F440E06FEFBF
:105830008C2F0E94EE2060930E0470930F048093CF
:1058400010048091150B823009F0129ADF91CF91EC
:105850000895CCE0E9CFC1E0E7CFD330C1F440E018
:105860006FEF8C2F0E94EE206093560470935704C4
:10587000809358044FEF60910E028C2F0E94942267
:105880006093590470935A0480935B04DACF4FEF0E
:1058900064E08C2F0E949422609356047093570406
:1058A00080935804CECF8091E8038C3109F4EDC188
:1058B0008E3109F07FC3E0919303EF3008F010C4FC
:1058C000F0E08827E959F34D8F4F0C941EBD762CDC
:1058D0009A2CC62CE22C112D2D2D492D652D812DB4
:1058E0009D2DB92DD52DF12D0D2E292E8EE00E9446
:1058F0003C070E94029D8FE00E943C070E94029D8F
:10590000809193038F5F8093930380919203811121
:105910000AC08DE00E943C070E94E49C80E10E9446
:105920003C070E94E49C81E0809392030E946EA158
:105930000C94E62B8DE00E943C070E94029D80E1C2
:105940000E943C070E94029D80919203882371F07F
:105950008EE00E943C070E94E49C8FE00E943C077E
:105960000E94E49C809193038F5F0DC08CE00E94A5
:105970003C070E94E49C81E10E943C070E94E49C59
:1059800080919303815080939303D0CF8CE00E9449
:105990003C070E94029D81E10E943C070E94029DFB
:1059A00080919203882339F08DE00E943C070E9489
:1059B000E49C80E1D3CF8BE00E943C070E94E49CF2
:1059C00082E1DACF8BE00E943C070E94029D82E1D7
:1059D0000E943C070E94029D80919203882371F0EF
:1059E0008CE00E943C070E94E49C81E10E943C07FD
:1059F0000E94E49C809193038F5F0DC08AE00E9417
:105A00003C070E94E49C83E10E943C070E94E49CC6
:105A1000809193038150809393030E946EA10C9414
:105A2000E4228AE00E943C070E94029D83E10E94DA
:105A30003C070E94029D80919203882339F08BE0FD
:105A40000E943C070E94E49C82E1D0CF89E00E9442
:105A50003C070E94E49C84E1D7CF89E00E943C0788
:105A60000E94029D84E10E943C070E94029D809159
:105A70009203882339F08AE00E943C070E94E49C4C
:105A800083E16CCF88E00E943C070E94E49C85E1A2
:105A900073CF88E00E943C070E94029D85E10E942E
:105AA0003C070E94029D80919203882339F089E08F
:105AB0000E943C070E94E49C84E150CF87E00E9452
:105AC0003C070E94E49C86E157CF87E00E943C0798
:105AD0000E94029D86E10E943C070E94029D8091E7
