:100000000C9402070C9433070C9433070C943307B9
:100010000C9433070C9433070C9433070C94330778
:100020000C9433070C9433070C9433070C94330768
:100030000C9433070C9433070C9433070C94330758
:100040000C9433070C9433070C9433070C94330748
:100050000C9433070C9433070C9433070C945BA473
:100060000C9433070C9489A60C945FA60C94330768
:100070000C9433070C9433070C9433070C94330718
:100080000C9433070C9433070C9433070C94330708
:100090000C9435A60C940BA60C9433070C9426AD47
:1000A0000C9433070C9433070C9433070C943307E8
:1000B0000C9433070C9433070C9433070C943307D8
:1000C0000C9433070C9433070C9433070C943307C8
:1000D0000C9433070C9433070C94E1A50C94B7A54A
:1000E0000C94330705A84CCDB2D44EB93836A902CA
:1000F0000C50B9918688083CA6AAAA2ABE00000026
:10010000803F07634236B79BD8A71A39685618AEA6
:10011000BAAB558C1D3CB7CC5763BD6DEDFD753E3C
:10012000F6177231BF000000803F08000000BE9249
:100130002449123EABAAAA2ABECDCCCC4C3E00002C
:100140000080BEABAAAAAA3E00000000BF000000CB
:10015000803F0000000000084178D3BB4387D113E3
:100160003D190E3CC3BD4282AD2B3E68EC8276BE8B
:10017000D98FE1A93E4C80EFFFBE01C4FF7F3F0055
:10018000000000000C94838B0C94398E0C94C59362
:100190000C94FF0E0C9427910C9469A30C94B793C4
:1001A0000C94358A0C949B680C9435A30C9496930C
:1001B0000C94E8A80C94247C0C94BE0E0C949F9391
:1001C0000C9469940C94B7210C94C9930C9443300B
:1001D0000C948AA80C94B5970C9477940C9423A053
:1001E0000C942A880C9426540C944C7C0C94CA21B0
:1001F0000C940CA30C94A32E0C941D8C0C941191B4
:100200000C94B1210C941B920C94FE930C94DF8DF2
:100210000C9474A70C940F6E0C9463850C94DF817E
:100220000C94D2730C9495A70C9493680C94874902
:100230000C94540A0C94758C0C94CAA70C941B8EC5
:100240000C942B2F0C9423570C94A18C0C94F38CAE
:100250000C943FA00C94878D0C9476810C942BA069
:100260000C94FD8D0C9400940C9417220C946298BD
:100270000C94838E0C94DA730C94BF8F0C9407A0AB
:100280000C94338C0C948E980C94A1210C940696AB
:100290000C9479210C9484930C9403920C94809583
:1002A0000C94D8730C94C32D0C94CF8E0C94508066
:1002B0000C94D6210C946F220C9477070C94332E57
:1002C0000C9462A00C9419A80C94C1970C94678F9D
:1002D0000C9447AA0C94FB910C94A6210C945F8A71
:1002E0000C9454AA0C94B4210C9480A00C940F7E0E
:1002F0000C9455940C94B27C0C94C58B0C9481573F
:100300000C94B78A0C9423910C94C0210C9479819D
:100310000C940B300C949B2F0C94B1930C9446943A
:100320000C94DB8B0C94627C0C942D860C94733CA7
:100330000C94ED490C949E210C945D7D0C949D6869
:100340000C9427300C94DF2D0C940C860C94FFB287
:100350000C946D8B0C94458B0C94EA870C94F18B68
:100360000C9478850C941B910C940B6E0C94297D45
:100370000C94ED0E0C942FA30C944F880C94C6850E
:100380000C949D670C949B210C94F3850C948186AE
:100390000C947D070C94495A0C94A6680C946B0736
:1003A0000C949D8D0C9450890C9418980C94F60E16
:1003B0000C94D0210C94172E0C947A070C948B2D4E
:1003C0000C94096E0C9420970C947F2F0C94A18AA6
:1003D0000C94A9930C9429860C94DD7D0C94A39520
:1003E0000C94BC0E0C94C98D0C949F680C94F697D9
:1003F0000C941BA00C94402D0C9424980C94AA955A
:100400000C94458D0C948A930C94C7970C94208A75
:100410000C94D7950C949C980C9449A70C9449A0E3
:100420000C94566D0C9410950C94CA730C94D32FA5
:100430000C94D9210C94418F0C94D3440C94A9A70B
:100440000C948AA00C940AA80C9471070C942F8D1C
:100450000C94142D0C9458A00C946B2E0C94A70E95
:100460000C941A0F0C94A9880C944EA70C943889FC
:100470000C9411A00C9454220C9413540C94758A6F
:100480000C9440890C9486A70C94F07C0C94BB9738
:100490000C9440850C948E930C94016E0C94578EA2
:1004A0000C94D4730C94877C0C9497A70C9492931F
:1004B0000C94BD210C94EB8A0C94860A0C94179131
:1004C0000C94D0850C9430890C94BBA90C94116EBB
:1004D0000C94278B0C94E30E0C94498C0C94BF93D2
:1004E0000C942B910C94998B0C94A2890C948B8C6A
:1004F0000C94DEA70C94AAA80C94938F0C94DA8524
:100500000C94158A0C94B72F0C9403890C94F58ED7
:100510000C94D58C0C94CD210C946C810C94A886F1
:100520000C94F4890C9499930C94078C0C94718D11
:100530000C944F2E0C94FF930C9485980C9499680E
:100540000C94C00E0C94A3210C9455A30C94FD9F05
:100550000C94F5A70C9476A00C94632F0C94F79050
:100560000C941F910C9481810C94C4930C94F02CE6
:100570000C9447980C94C20E0C9425A30C94FC8701
:100580000C944A8A0C9461A80C941B8F0C945564AB
:100590000C944BB00C9495980C9436730C946E3C60
:1005A0000C94A3930C945C2D0C940F2F0C94067E4A
:1005B0000C94A8210C944F0A0C9431860C945F8CF7
:1005C0000C94B0A70C94098B0C94D6730C94C39420
:1005D0000C940C980C94E48F0C94EB970C94CB89AE
:1005E0000C94B78C0C94BA210C9481070C940F9244
:1005F0000C943A850C94FF870C9401980C946D8EA2
:100600000C94D6880C949CA70C94D3210C94A98E9E
:100610000C94D7970C944A980C948C870C94F09F68
:100620000C9441960C94472F0C9473810C94810A7E
:100630000C942D470C94A98F0C94AF8B0C94CD8AFD
:100640000C94F89F0C9466980C94A4850C94FB2D44
:100650000C94EF2F0C94B17D0C94D92E0C94713C1A
:100660000C94E6210C9434860C946A980C940D6ECC
:100670000C9474570C94ABA70C943A220C94D6A902
:100680000C94F3860C94EC210C94C8AA0C947989F0
:100690000C944BA90C9496210C9448890C94AE218F
:1006A0000C9490950C948B8A0C94B38D0C94F32E2F
:1006B0000C94872E0C9420870C94E9210C947D8F48
:1006C0000C947C880C949DA30C946CA00C941754EF
:1006D0000C94AD930C94D1970C941EA90C9465A71F
:1006E0000C94BFA70C94578B0C9409920C94819591
:1006F0000C94877D0C94F5A90C947E570C9415925C
:100700000C94BDA70C9403870C94F9870C94BB93AD
:100710000C94118D0C94F47D0C948D850C94AB216C
:100720000C94FB860C945B8D0C94E2820C94FA8FF3
:100730000C9425860C947C980C94A72D0C9435A0D1
:10074000DDDFE9EFF3F6F9FBFDFE0001020304052E
:10075000060708090A32002D280023001E00001990
:100760000000140000000F00000000000A0000005C
:1007700000000000000005645F5A55504B46413CA4
:100780003732002D280023001E000019000014003D
:1007900000000F00000000000A0000000000000040
:1007A00000000532373C41464B50555A5F64576153
:1007B000726E696E673A2043616C63756C61746533
:1007C00064206D7573696320636F756E742065783E
:1007D0006365656473206D6178696D756D20706FF8
:1007E000737369626C653B205344206361726420BB
:1007F000636F7272757074696F6E206C696B656C73
:100800007921005761726E696E673A205472616394
:100810006B20636F756E7420646F6573206E6F74E8
:10082000206D61746368206669726D7761726521FD
:1008300020506C6561736520757064617465207407
:100840006865206D6963726F534420636172642030
:10085000736F756E6420656666656374732E0057EA
:1008600061726E696E673A2043616C63756C617486
:100870006564206D7573696320636F756E742065A0
:10088000786365656473206D6178696D756D20703E
:100890006F737369626C653B2053442063617264BB
:1008A00020636F7272757074696F6E206C696B650E
:1008B0006C7921005761726E696E673A20547261DB
:1008C000636B20636F756E7420646F6573206E6F49
:1008D00074206D61746368206669726D77617265FA
:1008E0002120506C656173652075706461746520AA
:1008F000746865206D6963726F534420636172642C
:1009000020736F756E6420656666656374732E0070
:100910004E6F20417564696F204465766963650098
:100920005761726E696E673A205253505F53595344
:1009300054454D5F494E464F206E6F74207265637B
:10094000656976656421005573696E672057415665
:100950002054726967676572005573696E67204736
:10096000505374617220417564696F2056657273CB
:10097000696F6E3A2000CED5DFE5E9ECEFF1F3F4D4
:10098000F6F7F8F9FAFBFCFDFEFF004505152535E5
:100990004434241404433323130302122232424109
:1009A0003121110100102030404030201000011191
:1009B000213141423222120203132333430414240F
:1009C000344435251505453738393A3B3B3A3938F3
:1009D000370010203001112131021222320313237B
:1009E0003304142434051525350616263636261606
:1009F000063525150534241404332313033222123B
:100A000002312111013020100000050B11171D00CB
:100A1000040B10161B000102030405060708090A4F
:100A20000B0C0D0E0F101112131415161718191A9E
:100A30001B1C1D1E1F20212223302F2E2D2C2B2A64
:100A40002928272625000102030405060708090AAC
:100A50000B0C0D0E0F101112131415161718191A6E
:100A60001B1C1D1E1F2021222331302F2E2D2C2B2D
:100A70002A2928272600191830011A172F021B16B9
:100A80002E031C152D041D142C051E132B061F12DE
:100A90002A072011290821102809220F270A230ECE
:100AA000260B240D250000000000000000000000BF
:100AB000000101010101010101020202020202031F
:100AC00003030304040404050505050606060707D9
:100AD000070808080909090A0A0B0B0B0C0C0D0D75
:100AE0000E0E0F0F101011111212131314141515EE
:100AF0001617171818191A1A1B1C1C1D1E1E1F204A
:100B00002021222323242526262728292A2A2B2C84
:100B10002D2E2F2F30313233343536373838393A9D
:100B20003B3C3D3E3F4041424344454647494A4B9A
:100B30004C4D4E4F5051525455565758595B5C5D71
:100B40005E5F61626364666768696B6C6D6F70712C
:100B50007374757778797B7C7E7F808283858688C5
:100B6000898B8C8E8F9192949597989A9B9D9EA03D
:100B7000A2A3A5A6A8AAABADAFB0B2B4B5B7B9BA97
:100B8000BCBEC0C1C3C5C7C8CACCCECFD1D3D5D7D0
:100B9000D9DADCDEE0E2E4E6E8E9EBEDEFF1F3F5EB
:100BA000F7F9FBFDFF47657474696E672057616E46
:100BB0006420507265666572656E6365730044619A
:100BC000746120746F205061636B3A20005361762A
:100BD000696E672057616E64205072656665726544
:100BE0006E636573005061636B2053796E632045BB
:100BF0006E64005061636B2053796E63205374619F
:100C00007274005061636B2070726F746F636F6CED
:100C1000206D69736D617463682100526563762E7F
:100C20002053796E63205061796C6F616400526566
:100C300063762E20536D6F6B6520436F6E66696718
:100C400000526563762E2057616E6420436F6E6696
:100C5000696700526563762E204D65737361676521
:100C60003A2000526563762E20436F6D6D616E648D
:100C70003A2000000000006410B71DC8206E3BAC95
:100C800030D9269041DC76F4516B6B5861B24D3C03
:100C90007105502083B8ED44930FF0E8A3D6D68CAD
:100CA000B361CBB0C2649BD4D2D38678E20AA01CD5
:100CB000F2BDBD00002100240027002A002D0030D5
:100CC00000330001010000040107010A01000022B5
:100CD00000250028002B002E003100340002010006
:100CE00000050108010B0100002000230026002957
:100CF000002C002F00320000010000030106010952
:100D00000105050505070508080808020202020A90
:100D10000A0808040404040101010101010101039E
:100D200003030303030303040707070C0C0C0C0C59
:100D30000C0C0C0202020206060606060606060B4C
:100D40000B0B0B0B0B0B0B010210202008081020C3
:100D50004010204080020102010804020101020447
:100D60000810204080804020100804020180040206
:100D7000018040201008040201080402010102045D
:100D80000810204080010204081020408000000A62
:100D90000B02090C0D0E08070304010000000000FF
:100DA0000000000000000000000000000000000043
:100DB0000000000000000000001211100000000000
:100DC0000000000000000000000000000000000023
:100DD0000000004552524F523A204E6F2063616C22
:100DE0006C6261636B20617661696C61626C652025
:100DF000666F72207061636B657420494420000047
:100E0000FFB24BB011241FBECFEFD1E2DEBFCDBF8A
:100E100000E00CBF13E0A0E0B2E0E2E1F8E801E09E
:100E20000BBF02C007900D92A638B107D9F72DE08D
:100E3000A6E8B3E001C01D92A83CB207E1F717E0B5
:100E4000C1E0D7E000E006C021970109802FFE0134
:100E50000E9461BEC030D10780E00807A9F70E9458
:100E6000D7B60C94F7C30C9400009091E8039C3122
:100E700031F4E82FF0E0E15FF54F849108959E3161
:100E800029F4E82FF0E0E75FF54FF7CF81E0089510
:100E90002091E8039091A803E82FF0E02C3149F469
:100EA000992321F0E351F64F84910895EF52F64FC4
:100EB000FBCF2E3141F4992319F0E755F64FF4CFCB
:100EC000E557F64FF1CF992319F0E453F64FECCFE5
:100ED000E953F64FE9CF8091B2038F5F8093B2035D
:100EE00008958091B1038F5F8093B103089590E0DE
:100EF00080E00895FC0164870895FC01848590E0FA
:100F00000895FC018685978508951092C20384E6B2
:100F1000809316021092C30345E050E060E070E059
:100F20008FE898E00C94E2AC0F931F93CF93DF937C
:100F300000D000D0CDB7DEB78FEF9FEFDC01898303
:100F40009A83AB83BC8310E000E01E830D83BE0157
:100F50006B5F7F4FCE0101960E94B3A6BE016A5F10
:100F60007F4FCE0101960E94B3A60F5F1F4F07323D
:100F7000110559F78FE190E09E838D83BE016B5F71
:100F80007F4FCE0101960E94B3A6BE016A5F7F4FDC
:100F9000CE0101960E94B3A688E090E09E838D83E7
:100FA000BE016B5F7F4FCE0101960E94B3A6BE01CA
:100FB0006A5F7F4FCE0101960E94B3A669817A8154
:100FC0008B819C81609570958095909526960FB643
:100FD000F894DEBF0FBECDBFDF91CF911F910F916F
:100FE00008952091980430919904215031092330BB
:100FF000310518F460E00C94C1980895FF920F93A6
:101000001F93CF93DF93EC01F62E08811981C8015D
:101010000E9496BDF81621F06F2DC8010E949EBD5A
:10102000CE01DF91CF911F910F91FF900895EF9224
:10103000FF920F931F93CF93DF9300D000D0CDB7D3
:10104000DEB70E94940769837A838B839C83CE01E9
:1010500001967C010CEF1FE01E830D83F701619167
:101060007F01CE0105960E94FE070F5F1F4F0115FD
:10107000F0E11F0789F726960FB6F894DEBF0FBE82
:10108000CDBFDF91CF911F910F91FF90EF90089509
:10109000E2E0F1E080818F7D808380818F7B80839F
:1010A0001098119880E00E94C66F80E00E944A6FFD
:1010B000E5EEF7E01086118608952091E403309163
:1010C000E503A901435051094230510518F026307B
:1010D000310511F4882399F190911A0B20911B0B83
:1010E000291303C0811118C008952917A8F481E0BD
:1010F000809392034EE150E060E070E09230D9F0CE
:1011000070F449E150E060E070E09130A1F04CE310
:1011100050E060E070E00FC010929203EBCF44E229
:1011200050E060E070E0933031F04DE250E060E07C
:1011300070E0943061F787EB98E00C94E2AC08958E
:1011400080911A0B823071F028F4813069F084E1CB
:101150000C941E6F833021F08430C9F783E1F8CFFF
:1011600082E1F6CF81E1F4CF80E1F2CFCF93C82FB7
:1011700084E0C530F0F00E94480760E00E94139FB1
:1011800083E00E94480760E00E94139F82E00E9473
:10119000480760E00E94139F81E00E94480760E0DA
:1011A0000E94139F80E00E94480760E0CF910C945A
:1011B000139F0E94480761E00E94139FC43001F30F
:1011C00083E00E94480761E00E94139FC330F1F260
:1011D00082E00E94480761E00E94139FC230E1F262
:1011E00081E00E94480761E00E94139FC111DACF9D
:1011F00080E00E94480761E0D9CFEF92FF920F9301
:101200001F93CF93DF938DE098E00E94B2AC8823C8
:1012100041F040E951E060E070E08DE098E00E942C
:10122000E2AC8091E80310E08E3109F012E08DE02D
:1012300098E00E946CAC683C71058105910508F04E
:10124000DFC0C0918504CC2391F08091E40390919C
:10125000E503069759F480911502853039F4C1E011
:101260008091B8039091B903892B09F0C0E0809177
:101270001C0B8D7F813089F48091E4039091E5030C
:10128000069759F480911502853039F48091B8039E
:101290009091B903019709F4C1E0809162028A3B01
:1012A00069F48091E4039091E503069739F4D1E065
:1012B0008091B8039091B903892B09F0D0E0809117
:1012C0009F03882379F02091E4033091E5032630D1
:1012D000310541F42091B8033091B9032130310533
:1012E00009F4D82F8091E8038C3169F105E08E3143
:1012F00059F180E0DD2309F47BC00E94480760E0DB
:101300000E94139F81E00E94480761E00E94139FA2
:1013100082E00E94480761E00E94139F83E00E94E0
:10132000480761E00E94139F84E0CC2309F464C065
:101330000E94480760E0DF91CF911F910F91FF90CD
:10134000EF900C94139F04E0CC2379F1C0E08EE180
:1013500090E07C01E11AF108CE151F04ACF4CC2317
:1013600069F0DD2311F0C01710F0C93138F08C2F6F
:101370000E9448070E94699DCF5FEECF8C2F0E948C
:1013800048070E944B9DF8CF8091E8038E3129F4E5
:101390008DE10E9448070E944B9DDF91CF911F91E4
:1013A0000F91FF90EF900C94D5A1DD23C9F0C0E020
:1013B0008EE190E07C01E11AF108CE151F046CF774
:1013C0008C2FCC2341F0C01730F40E9448070E94B4
:1013D000699DCF5FF2CF0E9448070E944B9DF9CFD5
:1013E000DF91CF911F910F91FF90EF900C94CBA1C3
:1013F0000E94480761E084CF0E94480761E09BCFCC
:1014000080911502833009F4BDC068F4813009F47D
:101410000BC1823009F4E3C0DF91CF911F910F918E
:10142000FF90EF900895843009F47BC08530A1F7D8
:101430008091E8038C3109F439C08E3109F068C01D
:10144000C1E08EE190E09C01211B31098901C017A8
:1014500011060CF0A2CFEBEFEC0FE93100F5F0E054
:101460008827EA5CF54F8F4F0C9461BE540A540AEA
:101470004F0A4F0A4F0A4F0A540A540A4F0A4F0A9A
:101480004F0A4F0A540A540A4F0A4F0A4F0A4F0A8A
:10149000540A540A4F0A4F0A4F0A4F0A540A8C2F13
:1014A0000E9448070E94699DCF5FD1CFC1E08EE1C5
:1014B00090E09C01211B31098901C01711060CF035
:1014C0006CCFECEFEC0FE531E0F4F0E08827E45965
:1014D000F54F8F4F0C9461BE860A860A860A810AF0
:1014E000810A810A860A860A860A810A810A810A95
:1014F000860A860A860A810A810A810A860A860A7B
:10150000860A8C2F0E9448070E94699DCF5FD5CF25
:1015100085E0DF91CF911F910F91FF90EF900C9498
:10152000B6088091E8038C3149F18E3149F5C1E06C
:10153000CD3038F48BEFCB3028F0CF5FC731C1F717
:101540002CCF8FEE8C0F8230C0F38C2F0E94480777
:101550000E94699DF2CFCD3038F48CEFCA3028F06C
:10156000CF5FC631C1F719CF80EF8C0F8330C0F346
:101570008C2F0E9448070E94699DF2CFC1E0F8CFEE
:1015800084E0C7CF8091E8038C3129F18E3129F5B1
:10159000C1E0C53030F0C73048F085EF8C0F8230A5
:1015A00028F08C2F0E9448070E94699DCF5FC131AF
:1015B00081F7F3CEC43030F0C73048F086EF8C0F9F
:1015C000833028F08C2F0E9448070E94699DCF5FCE
:1015D000C03181F7E2CEC1E0F5CF83E09ACF8091B0
:1015E000E8038C31E9F08E31E9F4C1E08BEF8C0F28
:1015F000823028F08C2F0E9448070E94699DCF5F9F
:10160000CB30A1F7CACE8CEF8C0F833028F08C2F13
:101610000E9448070E94699DCF5FCA30A1F7BDCEE6
:10162000C1E0F5CF82E075CF8091E8038C3161F0A5
:101630008E31A1F4C1E08C2F0E9448070E94699D61
:10164000CF5FC530C1F7A9CEC1E08C2F0E944807FB
:101650000E94699DCF5FC430C1F79FCE81E059CF12
:10166000EF92FF920F931F93CF93DF9300D01F92BF
:101670001F92CDB7DEB78091E8038D7F8C3109F0E2
:10168000EAC087EB98E00E94B2AC882309F455C009
:101690008091E803F12C8E3111F082E0F82E85E084
:1016A000E8E7F2E0DE01119601900D928A95E1F7EC
:1016B0008091040290910502019731F48AE08983B8
:1016C0008A838B838C838D8380919303282F30E0D2
:1016D0000EE110E00F19110990919203992309F47A
:1016E0005CC02017310724F40E9448070E94E0A143
:1016F00080911A0B9FEF980F9430F0F50E943507F8
:1017000090919303981728F110929203809104020C
:10171000909105024AE550E060E070E0019739F5EC
:101720001092BF081092C00880919203882329F07C
:10173000809193038F5F809393030F900F900F908E
:101740000F900F90DF91CF911F910F91FF90EF902D
:101750000895E0911A0BEC0FFD2FF11D408184E0FC
:10176000489FA0011124052E000C660B770B87EB18
:1017700098E00E94E2ACD8CF9091930390171106A5
:1017800041F03CF0109292038EE18F198093930305
:10179000BDCFFE01E80FF11DE1CF2017310724F482
:1017A0000E9448070E94D9A1F0909303F11016C03F
:1017B00081E0809392034AE550E060E070E087EBBF
:1017C00098E00F900F900F900F900F90DF91CF91B6
:1017D0001F910F91FF90EF900C94E2ACFA94F0926D
:1017E0009303EE24E3948091E8038E3109F4E12C15
:1017F00080911A0B20910402309105029FEF980FFF
:101800009430F8F42130310569F40E9435078E0DCB
:101810009927991FF81619062CF41092BF081092F8
:10182000C0088BCFE0911A0BEC0FFD2FF11D40810A
:1018300084E0489FA0011124052E000C660B770B55
:10184000BECF2130310519F4F016110634F3FE0134
:10185000E80FF11DECCF80911A0B8230C9F020F413
:10186000813041F085E007C08330A1F08430D1F7AA
:1018700084E001C081E00F900F900F900F900F90C7
:10188000DF91CF911F910F91FF90EF900C94B608CC
:1018900082E0F1CF83E0EFCF0F931F93CF93DF93DD
:1018A0009091E80380911A0B9C3169F0D0E09E3151
:1018B00059F0823009F452C008F042C0813009F476
:1018C00046C085E045C0D2E081502D2F30E0C0E019
:1018D0000EE110E0021B130B843018F5C01711063F
:1018E0009CF480911A0B0E9435078C1738F08C2FCE
:1018F0000E9448070E94699DCF5FF0CF8C2F0E9405
:1019000048070E944B9DF8CF0E94D5A180911A0BE9
:101910000E94350780939303DF91CF911F910F9120
:101920000895C01711063CF48C2F0E9448070E94AE
:10193000699DCF5FF6CF0E94D5A18EE18D1BEACFC6
:10194000833071F0843009F0BCCF84E001C081E0C5
:10195000DF91CF911F910F910C94B60882E0F8CFE0
:1019600083E0F6CF8091040290910502019739F44B
:1019700080E190E09093180280931702089583E02D
:1019800090E090931802809317028091E403909165
:10199000E503049751F08091140B823079F7809120
:1019A000E6039091E703892B49F786E090E0E2CFC8
:1019B000CF938091E8038C3109F0E5C080919303C7
:1019C0008C3118F1883308F040C097E3981B892FB9
:1019D0002091E4033091E5032430310521F090910A
:1019E000B6039923A1F10E9448070E94D9A18091D2
:1019F0009303873309F0E8C01092EE081092EF08C5
:101A0000109292031092930320C00E9448070E94F4
:101A1000E0A1809193038F5F809393038C3109F051
:101A2000EDC04AE550E060E070E086EE98E00E948C
:101A3000E2AC8091040290910502019731F488E0B4
:101A400090E09093180280931702CF91089520910F
:101A500004023091050290911A0B953018F4213050
:101A6000310511F0232B21F40E9448070E94D9A1CF
:101A700080910402909105020097E9F0019729F7FF
:101A80008091930390911A0B923009F45EC058F53F
:101A9000913009F467C08733B1F51092BF081092F6
:101AA000C0081092EE081092EF08109292038BE19A
:101AB0008093930315C0809193038733D9F54AE54A
:101AC00050E060E070E087EB98E00E94E2AC10929A
:101AD000EE081092EF0881E0809392031092930336
:101AE000CF910C94B20C9330C9F09430A1F68032AF
:101AF00041F41092EE081092EF081092920386E1E2
:101B0000D7CF8132B8F01092EE081092EF0891E032
:101B10009093920397E3981B892FCACF863241F4A2
:101B20001092EE081092EF081092920380E1C0CF5D
:101B3000873248F74091170250911802440F551F01
:101B4000440F551F70E060E043C08B3241F41092A7
:101B5000EE081092EF08109292038BE0A9CF8C321E
:101B600048F3D1CF823341F41092EE081092EF087F
:101B70001092920384E09CCF8333E0F21092EE083F
:101B80001092EF08C5CF8E3109F0C0C08091930349
:101B90008E3140F18C3308F058CF9BE3981B892F8E
:101BA0002091E4033091E5032430310521F0909138
:101BB000B603992391F10E9448070E94D9A1809110
:101BC00093038B3309F418CF40E550E060E070E0F8
:101BD00086EE98E00E94E2AC809193038F5F809341
:101BE000930333CF0E9448070E94E0A180919303A2
:101BF0008F5F809393038E3109F413CF40911702C6
:101C000050911802440F551F440F551F70E060E0BB
:101C100086EE98E0CF910C94E2AC209104023091D2
:101C2000050290911A0B953018F42130310511F00E
:101C3000232B21F40E9448070E94D9A1809104021D
:101C4000909105020097E1F0019709F0FECE809196
:101C5000930390911A0B923009F440C0B8F491307C
:101C600009F442C08B3319F51092BF081092C008D6
:101C70001092EE081092EF08109292038DE118CFA7
:101C8000809193038B3309F055CF19CF9330C1F076
:101C9000943041F7833241F41092EE081092EF082D
:101CA0001092920387E104CF843208F443CF10925C
:101CB000EE081092EF0891E0909392039BE32BCFF4
:101CC000893241F41092EE081092EF0810929203BC
:101CD00081E1EECE8A3208F42DCFE9CF8F3209F4BC
:101CE00036CF08F427CFE3CF853341F41092EE08C6
:101CF0001092EF081092920385E0DACE863308F452
:101D000019CF1092EE081092EF08D6CF8091E4031D
:101D10009091E503049721F08091B603C1E0811111
:101D2000C2E0E0919503EA3008F08FCEF0E088271A
:101D3000E356F14F8F4F0C9461BEA70EBC0EBE0E42
:101D4000C00EC20EE30EED0EF60EFF0E1A0F81E06E
:101D50000E94B60888E7C89FA0011124052E000C38
:101D6000660B770B86EE98E00E94E2AC80919503BB
:101D70008F5F8093950369CE82E0EACF83E0E8CF5E
:101D800084E0E6CF85E00E94B60880919503282F75
:101D900030E02F5F3F4F90911A0B9217130639F4E2
:101DA0002091E4033091E50324303105E1F58F5FA4
:101DB0008093950388E7C89FA0011124052E000C8D
:101DC000660B770B25CF84E00E94B60880919503BF
:101DD000482F4150550B9A01DECF83E00E94B60890
:101DE00080919503482F4350550BF5CF82E00E9418
:101DF000B60880919503482F4550550BECCF81E0F4
:101E00000E94B608809195038750990B20911A0B78
:101E10002817190609F09ECF8091E4039091E503FD
:101E2000049709F497CF1092EE081092EF081092E1
:101E300095030BCE80E00E94B608F5CF0F931F9359
:101E4000CF938091E80390E08E3109F092E02EE18B
:101E5000291B2093930325E0209395038D7F8C31DC
:101E6000F1F4C0E00EE110E0091B1109C0171106E2
:101E70003CF48C2F0E9448070E94699DCF5FF6CFEB
:101E80000E94D5A148E750E060E070E086EE98E05F
:101E90000E94E2ACCF911F910F910C94D80C85E079
:101EA0000E94B608EFCF8091E8038D7F8C3121F43A
:101EB0000E94CBA11092930308950E94530F109299
:101EC0001508109216088091AC03811112C00E946F
:101ED000B20C8091E8038D7F8C3149F4809104022B
:101EE00090910502019719F480E00E945D080C941E
:101EF000D80C0895E9ECFAE01086118610928E0352
:101F000070E060E08BE00C94B89F40911F0B433071
:101F1000F1F0909109029923D1F02091E4033091DE
:101F2000E5032430310599F09091B60391110FC06B
:101F30009091E203992359F0882349F09091330856
:101F4000423081F42330310569F091110BC00C94BB
:101F50007A0F8217D9F080938E03682F70E08BE0A0
:101F60000C94B89F20918E03992399F3682F70E009
:101F7000660F771F6F3F710519F014F06FEF70E077
:101F80002617170619F060938E03E9CF0895809104
:101F9000A903823061F028F4813069F08091160B3A
:101FA0000895833031F08430C9F785E0089583E0E7
:101FB000089584E0089582E008951092B508109283
:101FC000B6081092AB081092AC088091B003811152
:101FD0000BC00E94C70F84508230A0F48091E603AA
:101FE0009091E703019771F4109A0E94C70F8450F3
:101FF000823030F48091E6039091E703019721F05D
:10200000119808951098F1CF119A08958091E903DD
:1020100081110C94C70F8091160B08950E94061031
:10202000853059F48091C903811107C09091170B35
:1020300081E0992321F0973011F080E00895089510
:102040000F931F93CF93DF931F921F92CDB7DEB7ED
:1020500010E000E01A8309836FEFCE0101960E9421
:10206000FE070F5F1F4F0F311105A1F70E941708E0
:102070000F900F90DF91CF911F910F910895EF92E4
:10208000FF920F931F93CF93DF9300D000D000D027
:102090001F92CDB7DEB75091100240910E02809191
:1020A0000D0231E0811132E080910C0291E081114A
:1020B00092E08091870421E0811122E08091AB03BE
:1020C00081112FC081E06091140269836091130235
:1020D0006A833B835C834D832E839F838887CE01F5
:1020E00001967C010FE110E01A870987F7016191E1
:1020F0007F01CE0109960E94FE070F5F1F4F073236
:10210000110591F70E9417082A960FB6F894DEBFC2
:102110000FBECDBFDF91CF911F910F91FF90EF9038
:10212000089582E0D0CF0F931F93CF93DF931F9238
:102130001F92CDB7DEB70FE110E01A8309836FEF6E
:10214000CE0101960E94FE070F5F1F4F0732110557
:10215000A1F70E9417080F900F90DF91CF911F9168
:102160000F91089580919804909199040197039795
:1021700010F40C9437990895CF93DF93CDB7DEB761
:1021800064970FB6F894DEBF0FBECDBF20919804C0
:1021900030919904215031092230310580F4FE013B
:1021A000319694E1DF011D929A95E9F795E09983C4
:1021B00081110EC083E18D83CF010E945C976496EC
:1021C0000FB6F894DEBF0FBECDBFDF91CF9108955B
:1021D00082E1F1CF8091980490919904019703973F
:1021E00008F03BC160916707062E000C770B8CE36B
:1021F00090E00E94EA9860916707062E000C770B2A
:102200008AE691E00E94EA9860916707062E000C2A
:10221000770B81E290E00E94EA9860916707062EB2
:10222000000C770B8DE190E00E94EA9860916707BF
:10223000062E000C770B8EE190E00E94EA986091E8
:102240006707062E000C770B8FE190E00E94EA985A
:1022500060916707062E000C770B80E290E00E94E9
:10226000EA988091E9038823D1F08091170B82309E
:1022700069F0833009F4DBC0813089F4609167072D
:10228000062E000C770B84E991E007C06091670788
:10229000062E000C770B83E991E00E94EA9880916A
:1022A000B0038823B9F18091170B823009F4C7C0BD
:1022B000833081F160916707062E000C770B813027
:1022C00009F4C5C08EE791E00E94EA986091670723
:1022D000062E000C770B89E891E00E94EA98609145
:1022E0006707062E000C770B83E690E00E94EA98C1
:1022F00060916707062E000C770B88E490E00E943F
:10230000EA9860916707062E000C770B82E690E052
:102310000E94EA988091B503882371F00E9406100C
:1023200060916707062E000C770B853009F092C08C
:1023300084E991E00E94EA980E94C70F845082309D
:1023400008F08BC060916707062E000C770B8EE8B3
:1023500090E00E94EA9860916707062E000C770BC8
:1023600080E990E00E94EA9860916707062E000CD1
:10237000770B8DE890E00E94EA9860916707062E3F
:10238000000C770B8FE890E00E94EA986091670755
:10239000062E000C770B83E990E00E94EA9860918A
:1023A0006707062E000C770B81E990E00E94EA98FF
:1023B00060916707062E000C770B82E990E00E947F
:1023C000EA9860916707062E000C770B84E990E08D
:1023D0000E94EA9860916707062E000C770B82E155
:1023E00090E00E94EA9860916707062E000C770B38
:1023F00083E190E00E94EA9860916707062E000C46
:10240000770B84E190E00E94EA9860916707062EBE
:10241000000C770B85E190E00E94EA9860916707D5
:10242000062E000C770B86E190E00C94EA98609100
:102430006707062E000C770B87E491E02ECF6091A2
:102440006707062E000C770B84E390E061CF8AE3E8
:1024500090E05ECF8BE691E06DCF0895E82F8091FC
:10246000C503882391F01E163CF40E2E000CFF0BC2
:10247000ED55F84F84910895EF3D94F0FF27E195D5
:102480000CF4F095EB5AF84FF5CFE53D4CF01E16E5
:102490004CF0FF27E1950CF4F095E958F84FEACF9E
:1024A00080E0089584E608952F923F924F925F92C4
:1024B0006F927F928F929F92AF92BF92CF92DF9254
:1024C000EF92FF920F931F93CF93DF93CDB7DEB7B9
:1024D000A6970FB6F894DEBF0FBECDBF80916907F7
:1024E0000E942E12682E80911C0B12E0813031F078
:1024F00011E0833019F412E042E001C041E0809124
:10250000190BEE24E394E80EF090C80380910602C4
:10251000BB24B394882311F072E0B72E8091070298
:10252000CC24C394882311F062E0C62E809111025E
:10253000DD24D394882311F052E0D52E80910B0234
:1025400081110EC1E1E0EAA38091AA0381110BC1C0
:10255000E1E0EBA38091A80301E0811102E080910A
:10256000AC0355245394882311F032E0532E80910C
:10257000140B44244394823011F422E0422E8091C3
:10258000080233243394882311F092E0392E80918D
:10259000C50322242394882311F082E0282E809101
:1025A00063029091640228EE33E0B9010E9439BEC3
:1025B000762E8091650290916602B9010E9439BE23
:1025C000862E8091670290916802B9010E9439BEFF
:1025D000962E8091690290916A02B9010E9439BEDB
:1025E000A62E80916B0290916C02B9010E9439BEB7
:1025F00080916D0271E0811172E08091FA08B1E082
:102600008111B2E08091FB088111B0C051E05CA360
:102610008091FC088111ADC091E09DA380910209D9
:102620008111AAC0F1E0FEA38091A6039091A703B7
:1026300022E08130910521F023E0029709F021E0AA
:102640008091A2039091A3038130910509F499C070
:10265000029709F094C093E0E091A903E15081E072
:10266000E43020F4F0E0E058FD4F8081E091A003D9
:10267000F091A10332E0E130F10521F034E032972E
:1026800009F031E0E4E651E0560DE61508F455E6B0
:10269000E091A403F091A503A2E0E130F10521F05F
:1026A000A3E0329709F0A1E0E0910A02E150E330A3
:1026B00008F069C0F0E0E358FD4FE08119834A83D8
:1026C000EB82FC82BD82CE82DF82FAA1F8874BA129
:1026D00049870A872B879C875D868E873F87488A34
:1026E000398A2A8A5B8B7C8A8D8A9E8AAF8A688F18
:1026F000798FBA8F5CA15B8F8DA18C8F9EA19D8FEE
:10270000AE8FEF8FFE0131967F0110E000E019A33C
:1027100008A3F70161917F01CE0180960E94FE0718
:102720000F5F1F4F0F31110591F70E941708A696F2
:102730000FB6F894DEBF0FBECDBFDF91CF911F91D2
:102740000F91FF90EF90DF90CF90BF90AF909F9050
:102750008F907F906F905F904F903F902F90089553
:10276000F2E0FAA3F1CEF2E0FBA3F4CE82E08CA378
:102770004FCFE2E0EDA352CF52E05EA355CF91E000
:102780006BCF92E069CFE4E099CF282F853608F02F
:1027900024E6822F65E00E941FBE992361F0822FFC
:1027A00090E0029665E070E00E944DBE862F880F93
:1027B000880F282F260F822F65E00E941FBEE82F6A
:1027C000F0E08091C503882321F0E05CF84F84910C
:1027D0000895EA58F64FFBCF8091800490918104D0
:1027E000181619060CF067C080918204909183043A
:1027F000843F21E0920708F45EC021E02093860424
:102800004091E903209198043091990422303105D8
:1028100099F12330310519F02130310509F54423B0
:10282000F9F02091850461E0211101C060E00E946F
:10283000C19860916607062E000C770B8091820488
:10284000909183040E94EA9861E0809182049091C3
:1028500083040E9410990E94379981E08093CF07EA
:102860008091E903882339F140E157E260E070E0AC
:102870008AE697E00C94E2AC442391F3209185041E
:1028800061E0211101C060E00E94C198609166077B
:10289000062E000C770B80918204909183040E9495
:1028A000EA9850E040E061E08091820490918304D6
:1028B0000E94229AD0CF08952091980430919904D3
:1028C000215031092330310510F40C94FC9B0895FC
:1028D0008DEB91E00E945C1484E991E00E945C140D
:1028E0008BE691E00E945C148CE691E00C945C1401
:1028F0000E9406108250823020F08AE691E00C940B
:102900005C148CE390E0FBCFE1E2F9E010861186E5
:10291000E7E1F9E0108611868DE890E00E945C14F2
:102920008EE890E00E945C148FE890E00E945C14B6
:1029300080E990E00E945C1481E990E00E945C14C0
:1029400082E990E00E945C1483E990E00E945C14AC
:1029500084E990E00C945C14CF93C82F80911A0BFB
:10296000813051F010F08430E0F08DE190E00E9471
:102970005C1480E290E002C081E290E00E945C146E
:10298000CC23F1F08091E9038823D1F08091170BDB
:10299000823071F0833089F0813091F484E991E0E4
:1029A00009C081E290E00E945C148DE190E0E6CFE6
:1029B00083E991E0CF910C945C1487E491E0FACF25
:1029C000CF9108959091DF098091DA0998131AC088
:1029D0009091240A80911F0A981314C09091690A5B
:1029E0008091640A98130EC08091E6039091E703EA
:1029F000019741F448EE53E060E070E089E998E027
:102A00000E94E2AC8091C703882309F457C010925A
:102A1000C7039091DF098091DA09981312C0909151
:102A2000240A80911F0A98130CC09091690A809122
:102A3000640A981306C08091E6039091E70301971A
:102A400011F182E190E00E945C1483E190E00E9429
:102A50005C1484E190E00E945C1485E190E00E94A7
:102A60005C1486E190E00E945C148091110288233E
:102A700019F080EC0E941E6F40E050E0BA0189E935
:102A800098E00C94E2AC82E190E00E94F10783E1CF
:102A900090E00E94F10784E190E00E94F10785E157
:102AA00090E00E94F10786E190E00E94F10780919A
:102AB0001102882319F081EC0C941E6F0895AF92D7
:102AC000BF92CF92DF92EF92FF920F931F93CF931B
:102AD000DF93CDB7DEB764970FB6F894DEBF0FBEB5
:102AE000CDBF5C01F62EC42E14160CF4C12C8AEB5B
:102AF000C81614F48AEBC82E80919804909199041A
:102B00008230910509F449C08330910511F0019795
:102B100099F50C2C000CDD082223F9F06AEB7FEF0D
:102B2000C5010E94EA986E2DC5010E941099FE0110
:102B3000339682E1DF011D928A95E9F78CE0898363
:102B4000BB82AA828AE08D83DD86CC861A870987BC
:102B5000CE0101960E945C9708C0B601C5010E9493
:102B6000EA986E2DC5010E94109961E0F11001C034
:102B700060E0C5010E94C19864960FB6F894DEBF6C
:102B80000FBECDBFDF91CF911F910F91FF90EF90BE
:102B9000DF90CF90BF90AF9008950C2C000CDD0813
:102BA000222361F06AEB7FEFC5010E94EA9850E0B2
:102BB00040E06E2DC5010E94229AB9CFB601C50131
:102BC0000E94EA9850E040E06E2DC5010E94229AD2
:102BD000CCCFEF920F931F9390911B02981771F136
:102BE000943060F58430E1F48FE00E941E6F0E9403
:102BF00006108250EE24E39410E000E020E04091C3
:102C0000670761E08230B8F08AE691E00E945F15C4
:102C100044E650E060E070E08DEA98E00E94E2ACAB
:102C200080911B028F5F80931B028EE01F910F919A
:102C3000EF900C941E6F8CE390E0E8CF1F910F9102
:102C4000EF900895EF920F931F93CF938091A40379
:102C50009091A503C0911E0B009719F5909155090D
:102C600080915009981729F1C23029F10E94C70FAD
:102C7000CC2309F468C0909111028450823008F48A
:102C800051C0992319F082EB0E941E6FEE24E39449
:102C900010E000E020E04091670760E08DE891E0FF
:102CA00050C0019709F790915509809150099817E4
:102CB000D9F2C13059F481E090911E0B923009F0A5
:102CC00080E0CF911F910F91EF900895CC2399F060
:102CD00080911102882319F084EB0E941E6FEE246C
:102CE000E39410E000E020E04091670760E086E9AF
:102CF00091E00E945F150E94C70F8250823058F405
:102D00008091140B813039F41092FE0A1092FF0A60
:102D100080E00E94C66F83E70E941E6F81E080936F
:102D20001E0BC9CF992319F083EB0E941E6FEE246E
:102D3000E39410E000E020E04091670760E081EB61
:102D400090E00E945F150E94C70F8250823070F49D
:102D50008091140B813051F44091190250911A0264
:102D600070E060E086EF9AE00E94E2AC82E70E94A9
:102D70001E6F82E0D4CFEF920F931F938091E903EF
:102D8000882371F110920B0910920C0987E591E0EC
:102D90000E945C14EE24E39410E000E020E04091F7
:102DA000670760E088E591E00E945F158091170B4E
:102DB0008230B1F48091E6039091E703019781F4AA
:102DC0009091240A80911F0A98130AC004E813E026
:102DD00021E04091670761E083E991E00E945F157F
:102DE0001092E5031092E4031F910F91EF90089564
:102DF000EF920F931F938091C6038823A9F10E943D
:102E0000C70F82508230B0F589E491E00E945C14D3
:102E10008CE491E00E945C148DE491E00E945C14CB
:102E200081E00E94AC148091E4039091E503049743
:102E3000D9F08091B503811117C0809111028823C8
:102E400019F087EB0E941E6F81E190E00E945C14F4
:102E5000EE24E39410E000E020E04091670760E09A
:102E600081E190E00E945F151092C6031F910F91BF
:102E7000EF900895809111022091E4033091E503D1
:102E80002430310551F09091B603911106C0209184
:102E9000E6033091E703232B91F4882319F084E5AE
:102EA0000E941E6FEE24E39410E000E020E04091C9
:102EB000670760E084E990E00E945F152FC0909161
:102EC000B50391112BC0882319F082E50E941E6F73
:102ED00049E557E060E070E081E299E00E94E2ACF1
:102EE00010921F09109220098CE30E947EA221E01B
:102EF00030E049E557E060E070E08DE20E943BA2DF
:102F000080919804909199040297E1F440916707A9
:102F10006EE870E082E990E00E94229C80911102AC
:102F2000882319F08FE40E941E6F8FE890E00E94C2
:102F30005C1483E990E00E945C1480E990E00E94B8
:102F40005C1492CFEE24E39410E000E020E0409186
:102F5000670760E082E990E0AFCFEF920F931F9395
:102F60000E94841480911102882319F08DE40E943C
:102F70001E6F48EE56E060E070E081E299E00E944A
:102F8000E2AC8EE10E947EA221E030E048EE56E005
:102F900060E070E08DE20E943BA2809198049091E5
:102FA0009904029771F4409167076EE870E08DE82C
:102FB00090E00E94229C109203021F910F91EF90CB
:102FC0000895EE24E39410E000E020E040916707CC
:102FD00060E08DE890E00E945F15EDCFEF920F93D7
:102FE0001F93CF93C82F4091670780911A0B8130B0
:102FF00020F0833058F0853060F1EE24E39408EE41
:1030000013E02C2F61E080E290E008C0EE24E3940E
:1030100008EE13E02C2F61E081E290E00E945F1542
:103020008091E903882351F1CC2341F18091170B62
:103030008230C1F0833039F1813001F5EE24E39420
:1030400004E813E021E04091670761E084E991E042
:1030500013C0EE24E39408EE13E02C2F61E08DE121
:1030600090E0DCCFEE24E39404E813E021E040910B
:10307000670761E083E991E00E945F15CF911F919E
:103080000F91EF900895EE24E39404E813E021E01B
:103090004091670761E087E491E0EECFEF920F93F4
:1030A0001F93CF938091E4039091E50384309105C1
:1030B00009F4ABC12091B6032111A7C13091240AB4
:1030C00020911F0A3213CCC120910D02222361F0FE
:1030D0002091170B223009F489C0039729F08091C1
:1030E0003308882309F482C08FEF0E944A6FC09191
:1030F000C6030E94C70FC1113CC08250823008F045
:10310000A6C080918A0381112CC089E491E00E94BD
:103110005C148CE491E00E945C140E94C70F833021
:1031200009F079C08DE491E00E945C14EE24E394F0
:1031300010E000E020E04091670760E08DE491E05E
:103140000E945F158091140B823059F0809111021A
:10315000882339F080918903811103C08CEC0E948F
:103160001E6FC1E0C0938F0381E00E94EE17C093F1
:10317000C6030E94C70F84508230F8F487E199E0BB
:103180000E94B2AC8823C9F080911102882319F003
:1031900081E50E941E6F8091980490919904029796
:1031A00061F0EE24E39410E000E020E04091670736
:1031B00061E080E990E00E945F1510928A0310920E
:1031C00089039091DF098091DA09981309C08091F1
:1031D000B003811105C00E940E10882309F4A8C015
:1031E000CF911F910F91EF900C94E21480911A0BE4
:1031F000823069F020F4813061F08CEC76CF83303E
:1032000021F08430D1F782EB70CF89E96ECF80E86E
:103210006CCF86E66ACFEE24E39410E000E020E075
:103220004091670760E089E491E00E945F1580911A
:10323000140B823009F495CF80911102882309F490
:1032400090CF8091890381118CCF85EB88CF8091BD
:103250001102882341F080910302882309F447C0BA
:1032600085E50E941E6F1092290910922A0949E5EE
:1032700057E060E070E087E199E00E94E2AC8DE207
:103280000E947EA221E030E049E557E060E070E076
:103290008CE30E943BA2209103024091670780913A
:1032A000980490919904222379F1029711F560E92D
:1032B00070E083E990E00E94229C109203028DE866
:1032C00090E00E945C148EE890E00E945C1481E91A
:1032D00090E00E945C1482E990E00E945C1484E912
:1032E00090E00E945C1481E08093C60342CF8EE49C
:1032F000B8CFEE24E39410E000E020E060E083E942
:1033000090E00E945F15D9CF029739F460E970E030
:103310008FE890E00E94229CD2CFEE24E39410E04C
:1033200000E020E060E08FE890E00E945F15C7CFEA
:103330008091C703811169C089E998E00E94B2AC0D
:10334000882309F462C08091E4039091E503049717
:1033500009F45BC08091C703811157C00E94C70F59
:10336000C82F82E190E00E945C1483E190E00E940B
:103370005C1484E190E00E945C1485E190E00E947E
:103380005C1486E190E00E945C14C450C23008F0E6
:1033900053C080910802882309F44EC08091110225
:1033A000882319F082EC0E941E6F4091670780917C
:1033B0001A0B823079F158F48130B1F0EE24E394A5
:1033C00010E000E020E061E086E190E015C083308D
:1033D00051F1843099F7EE24E39410E000E020E00E
:1033E00061E085E190E008C0EE24E39410E000E0A5
:1033F00020E061E082E190E00E945F1581E080932F
:10340000C7031092A1081092A208CF911F910F91AB
:10341000EF900895EE24E39410E000E020E061E0F6
:1034200083E190E0E9CFEE24E39410E000E020E0B7
:1034300061E084E190E0E0CF8091E0098823F1F23F
:1034400080911102882319F083EC0E941E6FEE24F4
:10345000E39410E000E020E04091670760E0B4CF23
:1034600080E00E944A6F0E94E214CF911F910F9159
:10347000EF900C94F816EF920F931F930E94530F46
:1034800010920B0910920C09109215081092160850
:1034900011988091AC03811102C00E94B20C0E946D
:1034A000C70F8250823048F58CE491E00E945C1492
:1034B000EE24E39410E000E020E04091670760E034
:1034C0008CE491E00E945F159091240A80911F0A7C
:1034D000981739F00E94C70F8450823010F40E9470
:1034E000AD171092E5031092E40381E08093890305
:1034F0001F910F91EF900C94D80C89E491E00E94F9
:103500005C14EE24E39410E000E020E040916707B3
:1035100060E089E491E00E945F1581E00E94EE176F
:10352000D3CFEF920F931F93CF93C82F80910402B4
:10353000909105020197D9F580E190E090931802EF
:10354000809317028BEF90E00E945C148091E60359
:103550009091E703029709F4ABC08091B603811103
:103560000AC08091140B823029F58091EE088111F8
:1035700002C00E94D80C80910201806280930201F7
:103580000E94C70F8250823020F48091140B823049
:10359000E9F44091190250911A0270E060E086EF60
:1035A0009AE00E94E2AC81E00E94C66F13C086E000
:1035B00090E0C4CF0E94D80C9091240A80911F0AF9
:1035C0009813D9CF81E080938A03D5CF80911E0BC9
:1035D0008230F9F21092B5081092B6081092AB083A
:1035E0001092AC088091B603811162C00E94C70F8F
:1035F000823059F1833009F460C08091E903882357
:1036000009F48BC089E491E00E945C14EE24E394F9
:1036100010E000E020E04091670760E089E491E07D
:103620000E945F1581E00E94EE179091240A80911C
:103630001F0A9817E9F18091B603811139C0CF9123
:103640001F910F91EF900C94AD178CE491E00E94C4
:103650005C1489E491E00E945C148091E203EE2402
:10366000E39410E000E020E04091670760E08823E9
:10367000D9F08CE491E00E945F158091140B8230A8
:10368000B9F080911102882399F08091E203882398
:1036900079F08091B50381110BC086EBCF911F911A
:1036A0000F91EF900C941E6F89E491E00E945F15DA
:1036B000CF911F910F91EF9008958CE491E00E94BB
:1036C0005C148DE491E00E945C148091E203EE248E
:1036D000E39410E000E020E04091670760E0882379
:1036E00031F09091240A80911F0A9813C2CF8DE483
:1036F00091E00E945F158091140B8230C9F2809195
:1037000011028823A9F28091E203882389F2809133
:10371000B5038111CDCF8CECC1CF9091240A80915B
:103720001F0A98137FCFCC2309F47CCF89E491E062
:103730000E945C14EE24E39410E000E020E040914D
:10374000670760E089E491E00E945F158091140BA7
:10375000823009F467CF80911102882309F462CF87
:103760008091E203882309F45DCF8091B503811134
:1037700059CF85EB0E941E6F55CFEF920F931F9389
:10378000809106028823E1F0109206028DE590E018
:103790000E945C148CE590E00E945C14EE24E3949B
:1037A00010E000E020E04091670760E08DE590E0E8
:1037B0000E945F158EE21F910F91EF900C941E6F87
:1037C00081E0809306028DE590E00E945C148CE518
:1037D00090E00E945C14EE24E39410E000E020E00E
:1037E0004091670760E08CE590E00E945F158FE2F2
:1037F000E2CFEF920F931F936091170B70E08AE076
:103800000E94D26E8091E4039091E5038630910589
:1038100009F454C00897029708F450C08091E60359
:103820009091E703019709F049C086E090E00E947B
:103830005C1480E390E00E945C1485E490E00E94B8
:103840005C1486E490E00E945C148EE390E00E9499
:103850005C148091E903882361F083E991E00E9480
:103860005C1484E991E00E945C1487E491E00E947A
:103870005C148091170B833009F499C0B0F5813046
:1038800009F447C0823009F46BC0EE24E39410E0E1
:1038900000E020E04091670760E086E090E00E9451
:1038A0005F151092C20384E68093160245E050E053
:1038B00060E070E08FE898E00E94E2AC80919804AC
:1038C000909199040197029740F48091170B8330EF
:1038D00009F0A4C080E00E94E99C10923D0810927B
:1038E0003E081F910F91EF900895853009F486C02E
:1038F000863059F68091E903882399F2EE24E39407
:1039000010E000E020E04091670760E088E991E086
:10391000C6CFEE24E39410E000E020E0409167077A
:1039200060E085E490E00E945F158091E9038823C0
:1039300009F4B7CF8091E6039091E703019709F06E
:10394000B0CF9091240A80911F0A9813AACF00ED5E
:1039500017E021E04091670761E084E991E09FCFA3
:10396000EE24E39410E000E020E04091670760E07F
:1039700080E390E00E945F158091E903882309F4B9
:1039800090CF8091E6039091E703019709F089CFEA
:103990009091240A80911F0A981383CF0CEB12E0B8
:1039A00021E04091670761E083E991E078CFEE2460
:1039B000E39410E000E020E04091670760E086E4D7
:1039C00090E00E945F158091E903882309F469CF94
:1039D0008091E6039091E703019709F062CF9091FF
:1039E000240A80911F0A98135CCF02EE14E021E0B4
:1039F0004091670761E087E491E051CF8091E9034E
:103A0000882309F44ECFEE24E39410E000E020E098
:103A10004091670760E087E991E041CF81E05BCFAB
:103A2000EF920F931F9388E290E00E945C14EE24C3
:103A3000E39410E000E020E04091670760E088E256
:103A400090E00E945F1588E590E00E945C1485E696
:103A500090E00E945C1489E590E00E945C149091D3
:103A6000140B80911C0B923019F1833009F581E021
:103A70008093140B10921C0B10921D0B70E060E0F1
:103A800085EE0E94D26E20E04091670760E089E5F4
:103A900090E00E945F158BE20E941E6F80E00E9402
:103AA000C69D8823B1F11F910F91EF900C94F91BE3
:103AB0008130D1F483E080931C0B913011F480931A
:103AC0001D0B62E070E085EE0E94D26EEE24E3945E
:103AD00010E000E020E04091670760E085E690E0BC
:103AE0000E945F1583E2D8CF0E949D9D61E070E047
:103AF00085EE0E94D26EEE24E39410E000E020E018
:103B00004091670760E088E590E00E945F1582E2DF
:103B1000C3CF1F910F91EF90089590911C0B80914E
:103B2000140B823091F4911107C00E949D9D61E0B9
:103B300070E085EE0E94D26E80E00E94C69D8823D0
:103B400039F00E94F91B80E003C081E09111FBCFA6
:103B50000895EF920F931F9380916102853010F5C5
:103B60001092610280E490E00E945C14E12C10E06D
:103B700000E020E040E060E080E490E00E945F151B
:103B80008091610223E2829FC001112464E670E00B
:103B90000E944DBE6352609367071F910F91EF9093
:103BA0000C94EA10855080936102EACFEF920F9354
:103BB0001F9380916102803618F184E68093610240
:103BC00080E490E00E945C14E12C10E000E020E032
:103BD00040E060E080E490E00E945F158091610227
:103BE00023E2829FC001112464E670E00E944DBE72
:103BF0006352609367071F910F91EF900C94EA1046
:103C00008B5F80936102EACFEF920F931F93CF9364
:103C1000C82F80919804909199040197039738F4E4
:103C200080916202082E000C990B0E94C59CC11164
:103C300020C08091E6039091E703892BD1F4809115
:103C40008604882321F080918404882391F0809158
:103C50001202823399F48FE390E00E945C14E12C0D
:103C600010E000E020E040E060E08FE390E00E94A0
:103C70005F15CF911F910F91EF90089580E490E030
:103C80000E945C14E12C10E000E020E040E060E0E5
:103C900080E490E0ECCF8093C50381118AE08093AB
:103CA000B403809112020E94C51380936202809334
:103CB000680781E00C94041EEF92FF920F931F930C
:103CC000CF93DF93CDB7DEB7AB970FB6F894DEBFD7
:103CD0000FBECDBF8CEF9FE00E9496BD88A78DEFF1
:103CE0009FE00E9496BD89A78EEF9FE00E9496BD3F
:103CF0008AA78FEF9FE00E9496BD8BA70E94940732
:103D000008A519A52AA53BA5601771078207930787
:103D100009F097C2CE0101967C0110E000E0C801D5
:103D20000E9496BDF70181937F010F5F1F4F0F31F6
:103D30001105A9F78981823071F40E949D9D8A81C5
:103D4000823049F483E080931C0B9091140B9130E6
:103D500011F480931D0B8B81815087FF8093190B89
:103D60008C819FEF980F983090F48093C8030E9445
:103D7000C69D8091170B833051F4809198049091E7
:103D800099040197029718F480E00E94E99C9D81B4
:103D90008FEF890F823030F481E0923008F480E0B8
:103DA000809306029E818FEF890F823030F481E08C
:103DB000923008F480E0809307029F818FEF890F93
:103DC000823030F481E0923008F480E08093110278
:103DD00098858FEF890F823030F481E0923008F4BB
:103DE00080E080930B0299858FEF890F823030F449
:103DF00081E0923008F480E08093AA039A858FEFE7
:103E0000890F823030F481E0923008F480E08093B2
:103E1000A8038B859FEF980F933050F4823009F4FC
:103E200079C1833009F481C11092A7031092A603CF
:103E30008C859FEF980F933050F4823009F47EC147
:103E4000833009F486C11092A3031092A2039D85CA
:103E50008FEF890F823030F481E0923008F480E0F7
:103E60008093AC038E859FEF980F953050F483308C
:103E700009F483C108F076C1823009F47AC1109246
:103E8000A9038F859FEF980F953050F4823009F485
:103E900078C1843009F47CC11092A1031092A00370
:103EA00088899FEF980F923050F49091E9039923FD
:103EB00031F0823009F46FC181E00E94F39D99894D
:103EC0008FEF890F823030F481E0923008F480E087
:103ED000809308029A898FEF890F823030F481E055
:103EE000923008F480E00E944B1E8B898150853609
:103EF00050F4809312020E94C51380936907809347
:103F00006807809362022C898FEF820F8C3378F4DC
:103F100048EE53E0249FC001259F900D11249093FB
:103F20006402809363029093F9088093F8082D89C6
:103F30008FEF820F8C3378F448EE53E0249FC0015A
:103F4000259F900D112490936602809365029093B3
:103F5000F7088093F6082E898FEF820F8C3378F460
:103F600048EE53E0249FC001259F900D11249093AB
:103F70006802809367029093F5088093F4082F8974
:103F80008FEF820F8C3378F448EE53E0249FC0010A
:103F9000259F900D112490936A028093690290935B
:103FA000F3088093F208288D8FEF820F8C3378F41A
:103FB00048EE53E0249FC001259F900D112490935B
:103FC0006C0280936B029093F1088093F008998DB6
:103FD0008FEF890F823030F481E0923008F480E076
:103FE00080936D029A8D8FEF890F823030F481E0DB
:103FF000923008F480E08093FA089B8D8FEF890F50
:10400000823030F481E0923008F480E08093FB0845
:104010009C8D8FEF890F823030F481E0923008F46C
:1040200080E08093FC089D8D8FEF890F823030F403
:1040300081E0923008F480E0809302098E8D9FEF3A
:10404000980F933050F4823009F4A7C0833009F4FC
:10405000ABC01092A5031092A4038F8D9FEF980F11
:104060009430A0F4823009F4A4C0833009F4A4C0D1
:10407000813009F4A4C084E080930A028091E903AE
:10408000882309F494C083E080931F0B0E94226F61
:104090000E94346F7E01F0E2EF0EF11C0FE110E0A0
:1040A000C8010E9496BDF70181937F010F5F1F4FEA
:1040B00007321105A9F788A19FEF980F9E3F10F4D2
:1040C0008093140289A19FEF980F9E3F10F4809374
:1040D00013029AA18FEF890F823030F481E0923081
:1040E00008F480E080930D028BA19FEF980F95302C
:1040F00040F480931002813009F064C085E0809321
:104100000F028CA18C3109F463C08E3109F06AC0B2
:104110008EE15FC0109205021092040281E090E0EF
:104120009093A7038093A60383CE81E090E09093C1
:1041300005028093040282E090E0F2CF1092970390
:104140001092960381E090E09093A3038093A203E2
:104150007ECE81E090E0909397038093960382E077
:1041600090E0F2CF843059F0853009F088CE84E0B9
:1041700001C081E08093A90384CE82E0FBCF83E07D
:10418000F9CF81E090E09093A1038093A00388CEC3
:1041900082E090E0F8CF82E090CE81E090E09093D2
:1041A000A5038093A40359CF82E090E0F8CF82E08A
:1041B0006BCF91E09093090280930A0265CF8093C0
:1041C0000902FACF853011F482E099CF80E397CFCE
:1041D0008CE180930E029091E8039D7F9C3111F455
:1041E0008093E8039DA18FEF890F823030F481E046
:1041F000923008F480E0809387049EA18FEF890FAE
:10420000823030F481E0923008F480E080930C0238
:104210009FA18FEF890F823080F581E0923008F402
:1042200080E08093AB03AB960FB6F894DEBF0FBE71
:10423000CDBFDF91CF911F910F91FF90EF900C9424
:10424000BC10EE24E39410E000E020E0409167070A
:1042500060E08FE591E00E945F150E942010AB9610
:104260000FB6F894DEBF0FBECDBFDF91CF911F9187
:104270000F91FF90EF900C949310AB960FB6F894BB
:10428000DEBF0FBECDBFDF91CF911F910F91FF9089
:10429000EF900895362F90910F0262E0903309F469
:1042A0006FEF8D3108F025C0E82FF0E08827E45A41
:1042B000FE4D8F4F0C9461BE6F2279219B219E2170
:1042C000A121A321A621A821AB21AE21B121B42196
:1042D000B721BA21BD21CA21C021CD21D021D321AE
:1042E000D621D921E621E921EC2117223A225422B4
:1042F000962190E024E6522F550F550F550F85E576
:10430000752F789F070E70E0711D1124E22FE07465
:10431000622F607227FD3AC1E11126C16111E2C02E
:10432000872F8095272F782F80E0E0C0909113028F
:1043300020911402E0CF97EB24E2DDCF9FEF24EF32
:10434000DACF90E8FCCF9FEF20E0D5CF90ECFCCF08
:104350009FEF25E0D0CF9FEF2AE0CDCF9FEF2FE05A
:10436000CACF9FEF24E1C7CF9FEF20E2C4CF90E8F0
:104370002BE2C1CF9FEF20E4BECF9FEF20E5BBCF64
:10438000632F70E08FEF90E00E944DBE362F37957F
:10439000332737959FEF20E6AECF98E720E7ABCFE6
:1043A0009FEF20E8A8CF9FEF21E9A5CF9FEF20EA5C
:1043B000A2CF632F70E08FEF90E00E944DBE30E7F8
:1043C000639F302D112498EC2AEA95CF9FEF24EBC0
:1043D00092CF9FEF20EC8FCF80918603882321F02E
:1043E000803611F010928603E091E403F091E5032A
:1043F000EF2B19F4903308F462E3809100028F5F91
:10440000809300020E941FBE91110DC0809186030F
:10441000811104C080E68093860302C01092860357
:1044200081E080930002209186039FEF64CF80910A
:1044300086038F3029F0823D19F08FE08093860348
:10444000E091E403F091E503EF2B19F4903308F4C5
:1044500062E3809100028F5F809300020E941FBE82
:104460009111E1CF809186038F3011F482EDD3CF8B
:104470008FE0D1CF809100028F5F809300020E9475
:104480001FBE91110DC08091860390E005966FEFDD
:1044900070E00E944DBE8093860381E0809300020D
:1044A0002091860390E827CFE091E403F091E503A3
:1044B000EF2B19F4903309F464E1809100028F5FCF
:1044C000809300020E941FBE9111ADCF80918603A0
:1044D00090E005966FEF70E00E944DBE9CCF30E0FB
:1044E00090E032CF25E5270F80E07BEA9F3FF1F097
:1044F000992309F46AC0909550E0992329F0999F77
:10450000512D112491115F5F952F9095799F070E82
:1045100070E0711D299F020E20E0211D899F080E69
:1045200080E0811D1124750F250F850F3F3FB9F0E5
:1045300090E0332321F0339F912D09F09F5F992361
:1045400009F447C0799F070E70E0711D299F020E84
:1045500020E0211D899F080E80E0811D1124442345
:1045600009F43BC0622F089561110AC02AEA529FE4
:10457000050E50E0511D11248BEA851B270FD3CE69
:1045800080E0272F2095872F70E0B0CFE11111C078
:1045900061110BC0852F2AEA829F080E80E0811DE1
:1045A00011242BEA281B8B5AEFCF872F809520E010
:1045B0009DCF611106C025E5270F8BEA871B722F5F
:1045C000F6CF2AEA270F50E0F9CF8FEF2FEF7FEFDA
:1045D000ADCF80E020E070E0C2CF672F722F08954A
:1045E000962F642F41E0913009F040E00C944A216D
:1045F0000F931F93CF93C0E080910F02C81708F06C
:104600003BC060911002EC2FF0E0633089F0643021
:1046100029F1623021F4EB58F54FE491F0E08F017D
:10462000000F111F0E0F1F1F06511C4F4FEF0DC023
:10463000EB5BF54FE491F0E08F01000F111F0E0FBF
:104640001F1F06511C4F4FEF63E080E00E94F022D5
:10465000F801608371838283CF5FCECFEB5EF54F2D
:10466000E491F0E08F01000F111F0E0F1F1F065184
:104670001C4F4FEF64E0E9CFCF911F910F91089548
:1046800080911002833089F0843039F1823059F4FE
:104690004FEF62E080E00E94F02260930E0470937E
:1046A0000F0480931004129808954FEF63E080E0A8
:1046B0000E94F0226093560470935704809358042C
:1046C0004FEF6091100280E00E94F0226093590445
:1046D00070935A0480935B04E6CF4FEF64E080E070
:1046E0000E94F022609356047093570480935804FC
:1046F000DACF8091E8038D7F8C31D1F40E94530F83
:104700000E9448080E944023109295031092930340
:1047100080918604882321F080918404882361F0AD
:1047200040E65AEE60E070E085EE97E00C94E2AC73
:1047300080E00E94B608E4CF0895EDE5F8E0108629
:104740001186E5E8F8E010861186E7E6F8E01086C5
:104750001186E1E7F8E010861186EBE7F8E01086B5
:104760001186EFE8F8E0108611861092AF031092E0
:10477000C4031092C20384E6809316020E94F822BA
:104780000C944023EF920F931F93CF93109215092F
:10479000109216098091B503811103C087E00E9431
:1047A0001E6F1092E5031092E4031092B003109272
:1047B0009803109294031092E4081092E508109266
:1047C000BF081092C0081092920380911A0B81507A
:1047D0002091040230910502809395031092930377
:1047E0002130310509F078C08091960390919703AC
:1047F000019709F066C00E944C0C0E94300B109289
:104800008D0810928E0810925B0810925C0810922E
:1048100047081092480840E050E0BA0181E798E06C
:104820000E94E2AC0E9440230E94DD0F0E94781497
:1048300010929103109290031092C1031092080BF2
:104840001092090B8091B50381115BC08091170B09
:10485000823009F406C1833009F453C0813009F471
:104860000AC10E940610833009F4A3C0853009F400
:10487000F4C0823009F0C4C080911A0B853009F46D
:104880006BC089E498E00E946CACE12C10E000E081
:10489000683873418105910508F4ABC089E498E05C
:1048A0000E946CACE12C10E000E0603177428105A1
:1048B0009105F8F420E04091670760E08AE090E01D
:1048C0001EC00E94530F85E090E0909318028093E1
:1048D00017020E94D80C93CF0E94530F83E090E000
:1048E00090931802809317028091B603811187CFAD
:1048F000F0CF20E04091670760E080E891E00E94FF
:104900005F158091170B833021F486E491E00E94BB
:10491000F1078091170B823009F428C1833009F424
:10492000DCC0813009F429C1C0911A0B0E94061025
:10493000C150C43008F004C1833009F4A6C08530EA
:1049400009F4FBC0823009F0F5C08DE791E00E94C8
:104950005C148EE791E09FC089E498E00E946CAC03
:10496000683873418105910550F4E12C10E000E0B6
:1049700020E04091670760E088E891E0C0CF89E4DB
:1049800098E00E946CACE12C10E000E060317742CE
:104990008105910538F420E04091670760E08BE8DD
:1049A00091E0ADCF20E04091670760E08AE891E0B8
:1049B000A6CF89E498E00E946CAC68387341810509
:1049C000910550F4E12C10E000E020E040916707F1
:1049D00060E08BE090E093CF89E498E00E946CACBB
:1049E000E12C10E000E0603177428105910508F08C
:1049F00061CF20E04091670760E087E490E07FCFDF
:104A000089E498E00E946CAC683873418105910597
:104A100050F4E12C10E000E020E04091670760E0F6
:104A200083E891E06CCF89E498E00E946CACE12CC3
:104A300010E000E0603177428105910538F420E014
:104A40004091670760E082E891E059CF20E0409113
:104A5000670760E081E891E052CFE12C10E000E0D0
:104A6000EECFE12C10E000E020E04091670760E02D
:104A700085E390E044CFE12C10E000E020E040919D
:104A8000670760E08BE390E03ACF84E690E00E9415
:104A90005C1483E690E00E945C14809107028823F6
:104AA00021F089E090E00E945C1488E490E00E948C
:104AB0005C1482E690E00E945C148091170B8530B4
:104AC00021F483EA91E00E945C148091170B8630F8
:104AD00021F484EA91E00E945C148091AE03882363
:104AE00021F18091A0039091A1038130910509F4F7
:104AF00051C0029709F048C08EE690E00E945C1415
:104B00008FE690E00E945C148091B50381110BC088
:104B1000E12C10E000E020E04091670760E08FE6C4
:104B200090E00E945F151092AE03CF911F910F91FC
:104B3000EF90089580E690E00ACF8FE491E007CFF0
:104B4000833059F0853079F0823051F487E891E074
:104B50000E945C1489E891E09ECF81E690E09BCFB3
:104B60008BE990E098CF8FE491E095CF83E390E0DC
:104B70000E945C1484E390E0AECF89E390E00E9451
:104B80005C148AE390E0A7CF0E9406108250823026
:104B900008F0B2CF8AE490E00E945C1489E490E0CF
:104BA0000E945C148091B5038111BDCFE12C10E00F
:104BB00000E020E04091670760E089E490E0B1CF39
:104BC000EF920F931F93CF938091E4039091E503AD
:104BD000069731F46091170B70E08AE00E94D26E64
:104BE0000E94C70F8250823008F4B2C00E94841421
:104BF0008091E4039091E503049721F080918D0367
:104C0000882361F083E490E00E945C148FE390E0DD
:104C10000E945C1484E490E00E945C1489E491E0BA
:104C20000E945C148CE691E00E945C148091E40385
:104C30009091E503C0918D038730910509F091C0F3
:104C4000C11195C0C091B503C11191C01092E70385
:104C50001092E6031092E5031092E4038091B003F2
:104C600081110E94C22380918B03811110928B03CA
:104C700080911102882359F08CE40E941E6FCC238E
:104C800019F083E50E941E6F80EC0E941E6F0E9447
:104C9000E2140E94F81681E00E94AC140E947A0F80
:104CA0008EE390E00E945C148091170B823009F42F
:104CB000FBC0833009F4FEC0813009F4F8C086E0FF
:104CC00090E00E945C141092B303C1E0C093030211
:104CD00010920B0910920C091092150810921608E8
:104CE00010923D0810923E0810923308109234083A
:104CF0001092B5081092B6081092AB081092AC084A
:104D00008091E6039091E703892BE9F48091140BDD
:104D1000823009F0D2C00E94B20C80911A0B81300F
:104D200071F080931B0BC0931A0B8091E8038D7F69
:104D30008C3119F480E00E945D080E94A008109256
:104D4000B2031092B103CF911F910F91EF9008958C
:104D50008091C60381114CCF8CE491E00E945C14D9
:104D600047CFC1119FC02091B503211177CF20916A
:104D7000E6033091E703232B19F4892B09F492C041
:104D80009091240A80911F0A61E0981305C08091D8
:104D9000140B813009F460E070E085E00E94D26E6F
:104DA0001092E7031092E6031092E5031092E403D9
:104DB0008091B50381110E9468148091B50381111F
:104DC00007C08091B603811103C0809197088111BB
:104DD0000E949D23C091B603C11127C00E94C70F36
:104DE0008250823020F58091140B813009F055C03B
:104DF0008091C603811151C08091B50381114DC0CE
:104E0000C091E903CC2309F448C08BEF90E00E94E5
:104E10005C14EE24E39410E000E020E0409167078A
:104E200060E08BEF90E00E945F15C0E036C080919B
:104E3000C603811117C0C091B503C11131C0809163
:104E4000E4039091E503049769F0EE24E39410E005
:104E500000E020E04091670760E081E990E00E9477
:104E60005F15C1E08091B503811117C080911102D7
:104E7000882319F087EB0E941E6F81E190E00E9469
:104E80005C14EE24E39410E000E020E0409167071A
:104E900060E081E190E00E945F151092B503DECEE4
:104EA000C0E0E0CFC0E0DACE80E390E00ACF85E456
:104EB00090E007CF86E490E004CF1092EE081092C5
:104EC000EF081092BF081092C0080E9479230E9438
:104ED000B20C35CFEF920F931F930E94E02582E032
:104EE00090E09093E7038093E60387E090E090934F
:104EF000E5038093E4038091B503811141C040E450
:104F000056E060E070E08DEA98E00E94E2AC40E993
:104F100051E060E070E083EA98E00E94E2AC40E992
:104F200051E060E070E08DE098E00E94E2AC80919A
:104F30001102882331F08AEB0E941E6F89EB0E94D8
:104F40001E6FE12C10E000E020E04091670760E078
:104F500083E490E00E945F1520E04091670760E0E5
:104F60008FE390E00E945F1520E04091670760E0CA
:104F700084E490E00E945F151F910F91EF900895D7
:104F80001F910F91EF900C946814EF920F931F9361
:104F9000CF931092B3031092B50381E08093030284
:104FA0001092ED071092EE079091140B923079F564
:104FB00081E090E09093E7038093E6031092E5038D
:104FC0001092E40380916A0A811117C08091110246
:104FD000882319F08CEB0E941E6F8CEF90E00E94EA
:104FE0005C14EE24E39410E000E020E040916707B9
:104FF00060E08CEF90E00E945F1584E00E941E6FDD
:1050000080E0CF911F910F91EF900C94911A209115
:10501000DF099091DA0929130BC09091AA03992313
:1050200039F080938D030E946A27C0E08C2FE9CF6E
:1050300081E090E09093E7038093E6031092E5030C
:105040001092E403C091E20384E00E941E6FEECF51
:10505000EF920F931F938091E4039091E5030397E0
:1050600029F48091B00381110E94C22384E090E072
:105070009093E5038093E4038091E903882341F052
:105080004CEA5DE060E070E083E099E00E94E2AC11
:105090000E94E2140E94F81681E00E94AC148091F4
:1050A000AC03882309F460C01092EE081092EF0858
:1050B0000E94530F80911102882331F089EB0E94E6
:1050C0001E6F8AEB0E941E6F40E951E060E070E0C5
:1050D0008DE098E00E94E2ACE12C10E000E020E0DE
:1050E0004091670760E083E490E00E945F1520E054
:1050F0004091670760E08FE390E00E945F1520E039
:105100004091670760E084E490E00E945F1540E909
:1051100051E060E070E089EF97E00E94E2AC40E48B
:1051200056E060E070E08FEE97E00E94E2AC809184
:105130001102882319F087EB0E941E6F81E190E035
:105140000E945C14EE24E39410E000E020E0409123
:10515000670760E081E190E00E945F158BE01F919E
:105160000F91EF900C941E6F0E941E0FE0CFEF92F4
:105170000F931F93CF93DF938091E4039091E50306
:10518000AC01445051093091690A2091640A4330BE
:10519000510508F44FC34091B60341114BC3321778
:1051A00061F081E090E09093E5038093E403DF9168
:1051B000CF911F910F91EF9008958091B3038330A9
:1051C00008F4F6C081E08093B5030E946A278091BD
:1051D000170B813009F4BFC0823009F4B9C00E94B6
:1051E0000610833009F49BC0853009F4AEC08230CC
:1051F00009F0A0C080911A0B853009F485C08AE0BF
:1052000090E00E945C1487E490E00E945C1480E8C7
:1052100091E00E945C1489E490E00E945C148AE4AE
:1052200090E00E945C148FE690E00E945C148EE691
:1052300090E00E945C140E9485070E940610C8EB53
:10524000DBE0853091F40E940E10882361F0EE249B
:10525000E39410E000E020E04091670760E08DEB10
:1052600091E00E945F15C0E7D7E180911A0B823070
:1052700009F47FC008F072C0813011F0C053D84FDC
:10528000AE0170E060E083E098E00E94E2ACBE0115
:1052900088E00E94D26E0E940610853009F06CC032
:1052A000EE24E39404EC19E021E04091670761E00B
:1052B00084E991E00E945F1580910B02882309F434
:1052C00076CF8091140B813009F071CF9091DF0976
:1052D0008091DA09981709F46ACF9091240A809195
:1052E0001F0A981364CF80910602882309F45FCFC8
:1052F0008091B30A882309F491C2DF91CF911F9165
:105300000F91EF900C9401B088E891E00E945C143A
:105310008BE891E00E945C148AE891E07ACF8BE000
:1053200090E00E945C1487E490E00E945C148AE0A4
:1053300090E06FCF81E891E00E945C1482E891E0F8
:105340000E945C1483E891E064CF82E891E061CF31
:1053500085E390E06ECF8BE390E06BCF833031F04C
:10536000843009F08BCFC452DA4F8ACFC851DC4F5A
:1053700087CFCC50DE4F84CF80911102882319F063
:1053800084EC0E941E6FEE24E39410E000E020E025
:105390004091670760E08EE591E00E945F1504ECA4
:1053A00019E021E04091670761E08BE691E082CF50
:1053B00080918C038823B1F085E398E00E946CAC67
:1053C000672B682B692B71F410928C030E94C70F16
:1053D0008250823038F48091E4039091E503039782
:1053E00009F0109880911E0B823079F19091DF09BD
:1053F0008091DA09981329C09091240A80911F0A9C
:10540000981323C084E89AE00E94F8AA811106C08C
:1054100080E799E00E94F8AA8823B9F080911102F0
:10542000882319F084ED0E941E6F8CE290E00E94A8
:105430005C14EE24E39410E000E020E04091670764
:1054400060E08CE290E00E945F159091AE0A80913E
:10545000A90A981346C09091DF098091DA09981340
:1054600040C09091240A80911F0A98133AC08091FD
:105470001E0B8230B1F5C091170BC13009F498C0F2
:10548000C33009F4B6C083E098E00E946CAC672B8F
:10549000682B692B51F41092B30348EE53E060E09F
:1054A00070E083E098E00E94E2AC80919803811163
:1054B00005C08091B3038F5F8093B3038091B303E2
:1054C000833078F48091E4039091E503039731F001
:1054D00083E090E09093E5038093E40381E0809380
:1054E000980320919A099091950980911C0B8D7FCA
:1054F000813009F4A0C08091170B882321F03CEF84
:10550000380F343040F44091E4035091E5034330C8
:10551000510509F40FC12913CEC02091DF099091E4
:10552000DA092913C8C02091240A90911F0A29136F
:10553000C2C090911E0B923009F0BDC0813041F085
:1055400008F424C1823009F43CC1833009F0B3C0AF
:1055500083E098E00E946CAC672B682B692B51F4B8
:105560001092B30348EE53E060E070E083E098E00F
:105570000E94E2AC8091B30390919803911103C013
:105580008F5F8093B3038091B303833008F093C09F
:105590008091E4039091E503039731F083E090E07C
:1055A0009093E5038093E40381E08093980383C0A4
:1055B00080918B03811195CF85E398E00E946CACBC
:1055C000672B682B692B09F08CCF8091E4039091B5
:1055D000E503039709F485CF48E552E060E070E009
:1055E00085E398E00E94E2AC0E947BAFC0938B03FE
:1055F00078CF80918B03811174CF85E398E00E946E
:105600006CAC672B682B692B09F06BCF8091E4039E
:105610009091E503039709F464CF4AEF50E060E00E
:1056200070E085E398E00E94E2AC0E947BAF81E0ED
:1056300080938B0356CF29136CC09091DF09809122
:10564000DA09981338C09091240A80911F0A9813A0
:1056500032C080911E0B823071F583E098E00E9489
:105660006CAC672B682B692B51F41092B30348EE96
:1056700053E060E070E083E098E00E94E2AC80914B
:105680009403811105C08091B3038F5F8093B303AE
:105690008091B303833078F48091E4039091E50323
:1056A000039731F083E090E09093E5038093E40367
:1056B00081E0809394039091AE0A8091A90A981397
:1056C00048C090919A0980919509981709F4F4CDF2
:1056D00080911C0B8111F0CD8091170B813041F02E
:1056E00008F499C0823009F496C0833009F0E4CD03
:1056F0008091B003882309F4DFCD8091980388233B
:1057000009F4DACD1092E5031092E40310929803A5
:10571000D3CD8091980381110AC08091E4039091C8
:10572000E503039721F41092E5031092E40310922D
:105730009403C1CF291709F4BBCF0E940E10882310
:1057400009F4B9CF9091AE0A8091A90A981709F48B
:10575000AFCF8091170B813009F45AC0833009F420
:1057600057C08091B003882309F4ABCF8091980390
:10577000882309F4A6CF80919403811144C010922C
:10578000E5031092E403109298039BCF80918B0362
:10579000811191CF85E398E00E946CAC672B682B58
:1057A000692B09F088CF40ED57E060E070E085E3B9
:1057B00098E00E94E2AC0E947BAF81E080938B0373
:1057C0007ACF80918B03811176CF8091E403909101
:1057D000E503039709F46FCF80918C03811110C00A
:1057E0004EEE52E060E070E085E398E00E94E2ACAB
:1057F0000E947BAF80918C038F5F80938C03DDCF01
:105800008230D8F6F5CF0E948D1D8111B8CFBBCF65
:1058100010928B0356CF10928B034ECD8091B00A1D
:10582000882309F4C4CCDF91CF911F910F91EF90A1
:105830000C9428283213B5CC892B09F0B8CC84E815
:105840009AE00E94F8AA81110DC080911C0B8D7FF7
:10585000813009F0ACCC80E799E00E94F8AA882357
:1058600009F4A5CC809197088111A1CC9091240ACC
:1058700080911F0A98139BCC9091DF098091DA09DF
:10588000981395CC80911102882319F088EB0E941F
:105890001E6F8EE591E00E945C14EE24E39410E00C
:1058A00000E020E04091670760E08EE591E00E9413
:1058B0005F15DF91CF911F910F91EF900C948507A9
:1058C000CF93DF93D09110028EEF8D0F833098F538
:1058D0000E940610853099F40E940E10CEE08111CE
:1058E0001DC08091B50381112EC08091B603811136
:1058F0002AC08091170B823041F5C0E10FC0909112
:10590000B503911120C09091B60391111CC09091E4
:10591000170B9230D1F4C4E0833079F7D230B9F468
:1059200040E06FEF8C2F0E944A2160930E04709329
:105930000F04809310048091170B823009F0129AA3
:10594000DF91CF910895CCE0E9CFC1E0E7CFD3302C
:10595000C1F440E06FEF8C2F0E944A2160935604FF
:1059600070935704809358044FEF609110028C2F6E
:105970000E94F0226093590470935A0480935B0450
:10598000DACF4FEF64E08C2F0E94F0226093560430
:105990007093570480935804CECF8091E8038C31E4
:1059A00009F4EDC18E3109F07FC3E0919303EF302C
:1059B00008F010C4F0E08827EF51F34D8F4F0C949E
:1059C00061BEF02C142D402D5C2D8B2DA72DC32DE9
:1059D000DF2DFB2D172E332E4F2E6B2E872EA32E51
:1059E0008EE00E9448070E94699D8FE00E94480750
:1059F0000E94699D809193038F5F809393038091B0
:105A0000920381110AC08DE00E9448070E944B9DBD
:105A100080E10E9448070E944B9D81E080939203A1
:105A20000E94D5A10C94602C8DE00E9448070E9432
:105A3000699D80E10E9448070E94699D80919203C0
:105A4000882371F08EE00E9448070E944B9D8FE0F2
:105A50000E9448070E944B9D809193038F5F0DC069
:105A60008CE00E9448070E944B9D81E10E944807FC
:105A70000E944B9D80919303815080939303D0CFDC
:105A80008CE00E9448070E94699D81E10E944807BE
:105A90000E94699D80919203882339F08DE00E94D5
:105AA00048070E944B9D80E1D3CF8BE00E944807BE
:105AB0000E944B9D82E1DACF8BE00E9448070E9452
:105AC000699D82E10E9448070E94699D809192032E
:105AD000882371F08CE00E9448070E944B9D81E171
