:100000000C94ED030C941E040C941E040C941E041A
:100010000C941E040C941E040C941E040C941E04D8
:100020000C941E040C941E040C941E040C941E04C8
:100030000C941E040C941E040C941E040C941E04B8
:100040000C941E040C941E040C941E040C941E04A8
:100050000C941E040C941E040C941E040C94733215
:100060000C941E040C9447330C941D330C941E0402
:100070000C941E040C941E040C941E040C941E0478
:100080000C941E040C941E040C941E040C941E0468
:100090000C941E040C941E040C941E040C947D33CA
:1000A0000C941E040C941E040C941E040C941E0448
:1000B0000C941E040C941E040C941E040C941E0438
:1000C0000C941E040C941E040C941E040C941E0428
:1000D0000C941E040C941E040C94E7320C94BD3254
:1000E0000C941E040C9412230C944F320C948F0821
:1000F0000C9425190C94BC220C94B3080C94C718CA
:100100000C9482180C94BD040C94780F0C94A507E1
:100110000C94FF160C9412120C94C2040C947608E2
:100120000C94D2140C9492180C9473090C94EA0851
:100130000C9457190C94C5040C94D6040C94C30960
:100140000C94FE080C9434240C948A070C94C70871
:100150000C948E170C94C0040C94A0090C9476187F
:100160000C949D040C9485080C9437190C94BD08CC
:100170000C9427320C9492070C9465070C9420047D
:100180000C94A9080C94E7040C9421190C9473079F
:100190000C943F0E0C946A140C947C180C94DF049D
:1001A0000C9481050C9499080C9402190C9477070F
:1001B0000C94C1410C9426220C946B070C946E088D
:1001C0000C94600A0C9482050C9402170C94633111
:1001D0000C94D9040C948E070C94D1090C94051935
:1001E0000C94B8310C947B080C9470180C94C704D0
:1001F0000C944D320C94AA070C949C070C94A021EB
:100200000C9410120C94D3180C9498070C940809B1
:100210000C9405170C9449190C94EA040C948C184E
:100220000C94ED040C94982B0C9409170C948407EF
:100230000C947A070C9402050C94D6080C94DF31C8
:100240000C94A9210C94D70E0C9426150C944019EB
:100250000C94960E0C94CA040C9403320C94B63190
:100260000C94E7210C94B80F0C94A6180C94E00899
:100270000C94620E0C9480070C94BC180C94BA0475
:100280000C94CD040C94B2310C946F070C94A1081B
:100290000C94F6040C94F4080C94400E0C94A007F3
:1002A0000C94DF180C94F3040C9403350C94C121C6
:1002B0000C944F0E0C94AF090C94130A0C94690E15
:1002C0000C94B1180C94F0040C94B4310C944B328F
:1002D0000C94D3040C9470090C941D190C94FF21F8
:1002E0000C9450190C94A6070C94DC040C94D004C4
:1002F0000C946C140C9405055761726E696E673A24
:100300002043616C63756C61746564206D757369FD
:100310006320636F756E7420657863656564732010
:100320006D6178696D756D20706F737369626C654E
:100330003B205344206361726420636F7272757056
:1003400074696F6E206C696B656C792100576172FE
:100350006E696E673A20547261636B20636F756ECD
:100360007420646F6573206E6F74206D61746368B0
:10037000206669726D776172652120506C656173CA
:10038000652075706461746520746865206D6963AB
:10039000726F5344206361726420736F756E6420C2
:1003A000656666656374732E00000000000000003F
:1003B000000000000001010101010101010202022F
:1003C00002020203030303040404040505050506F1
:1003D00006060707070808080909090A0A0B0B0B94
:1003E0000C0C0D0D0E0E0F0F101011111212131315
:1003F000141415151617171818191A1A1B1C1C1D7A
:100400001E1E1F20202122232324252626272829BB
:100410002A2A2B2C2D2E2F2F3031323334353637DC
:100420003838393A3B3C3D3E3F40414243444546E3
:1004300047494A4B4C4D4E4F5051525455565758C0
:10044000595B5C5D5E5F61626364666768696B6C83
:100450006D6F70717374757778797B7C7E7F808225
:1004600083858688898B8C8E8F9192949597989AA4
:100470009B9D9EA0A2A3A5A6A8AAABADAFB0B2B407
:10048000B5B7B9BABCBEC0C1C3C5C7C8CACCCECF48
:10049000D1D3D5D7D9DADCDEE0E2E4E6E8E9EBED6A
:1004A000EFF1F3F5F7F9FBFDFF64657669636545E8
:1004B0007869744D656E757C006465766963654521
:1004C0006E7465724D656E757C0044657669636512
:1004D000204F6E2C2053797374656D20566F6C2DF0
:1004E0002000446576696365204F6E2C2053797334
:1004F00074656D20566F6C2B20004572726F722CE4
:100500002053797374656D20566F6C2D20004572F1
:10051000726F722C2053797374656D20566F6C2B3B
:100520002000446576696365204F66662C20537908
:100530007374656D20566F6C2D2000446576696379
:1005400065204F66662C2053797374656D20566F55
:100550006C2B2000446576696365204F66662C200D
:100560004D7573696320566F6C2D20004465766964
:100570006365204F66662C204D7573696320566F46
:100580006C2B20004D656E752C204D7573696320B2
:10059000566F6C2D20004D656E752C204D7573695E
:1005A0006320566F6C2B200053746F70204D757351
:1005B000696300506C6179204D75736963004E6505
:1005C000787420547261636B3A2023005072657610
:1005D00020547261636B3A2023004D656E752C20A8
:1005E0004566666563747320566F6C2D20004D65FB
:1005F0006E752C204566666563747320566F6C2B90
:100600002000546F67676C65204D757369632053D4
:10061000687566666C65004D656E752C2053797340
:1006200074656D20566F6C2D20004D656E752C2005
:1006300053797374656D20566F6C2B2000546F676F
:10064000676C65204D75736963204C6F6F70004E49
:100650006F20417564696F20446576696365005554
:1006600073696E67205741562054726967676572D7
:10067000005761726E696E673A205253505F53594A
:100680005354454D5F494E464F206E6F742072653E
:1006900063656976656421005573696E672047500C
:1006A0005374617220417564696F20566572736975
:1006B0006F6E3A200000002100240027002A002D40
:1006C000003000330001010000040107010A0100AD
:1006D000002200250028002B002E003100340002EB
:1006E000010000050108010B010000200023002685
:1006F0000029002C002F0032000001000003010639
:100700000109010505050507050808080802020298
:10071000020A0A080804040404010101010101019C
:10072000010303030303030303040707070C0C0C73
:100730000C0C0C0C0C02020202060606060606064B
:10074000060B0B0B0B0B0B0B0B01021020200808E8
:100750001020401020408002010201080402010123
:10076000020408102040808040201008040201800C
:100770000402018040201008040201080402010163
:10078000020408102040800102040810204080006C
:10079000000A0B02090C0D0E0807030401000000FB
:1007A0000000000000000000000000000000000049
:1007B0000000000000000000000000121110000006
:1007C0000000000000000000000000000000000029
:1007D0000000000000000335C14111241FBECFEF0F
:1007E000D1E2DEBFCDBF00E00CBF13E0A0E0B2E07D
:1007F000E6E4FBE800E00BBF02C007900D92AE34C8
:10080000B107D9F72AE0AEE4B3E001C01D92A239E6
:10081000B207E1F713E0CCEED3E000E006C0219789
:100820000109802FFE010E945343CB3ED10780E097
:100830000807A9F70E94A8380C9491450C94000071
:1008400083B7817F83BF83B7816083BF83B78160B4
:1008500083BF889583B78E7F83BF83B78E7F83BF27
:1008600008958091D70481110BC08091D804811123
:1008700007C081E09091D904911103C080E00895F0
:1008800081E008950F931F93CF93DF93EC016E8562
:100890007F85E881F9810284F385E02D19958C012B
:1008A0008D85882361F04E855F856A817B81E88133
:1008B000F9810280F381E02D2FEFCE011995E881B7
:1008C000F9810484F585E02DB801CE01DF91CF9147
:1008D0001F910F911994E091D204F091D304892BC8
:1008E00049F0309729F084819581009709F0FC0147
:1008F000CF010895CF01F9CF8731F8F4E82FF0E068
:100900008827EA57FB4F8F4F0C94534305059D04EE
:10091000BA04BD04C004C204C504C704CA04CD049B
:10092000D004D304D604D904DC04E704DF04EA04C9
:10093000ED04F004F304F604020520E034E6432F4E
:10094000440F440F440F85E5942F989F090E90E0C3
:10095000911D1124E32FE074532F507237FDAAC06C
:10096000E11195C0511154C0892F8095792F982F8E
:1009700080E052C027EB34E2E2CF2FEF34EFDFCF3D
:1009800020E8FCCF2FEF30E0DACF20ECFCCF2FEFC8
:1009900035E0D5CF2FEF3AE0D2CF2FEF3FE0CFCFEA
:1009A0002FEF34E1CCCF2FEF30E2C9CF20E83BE28C
:1009B000C6CF2FEF30E4C3CF2FEF30E5C0CF70E0CC
:1009C0008FEF90E00E943F436795662767952FEF72
:1009D00030E6B5CF28E730E7B2CF2FEF30E8AFCF22
:1009E0002FEF31E9ACCF2FEF30EAA9CF70E08FEFD6
:1009F00090E00E943F4380E7689F602D112428EC1F
:100A00003AEA9DCF2FEF34EB9ACF60E020E0BBCFE6
:100A100075E5790F80E09BEA2F3FF1F0222309F47E
:100A200068C0209530E0222329F0229F312D112427
:100A300021113F5F232F2095929F090E90E0911D79
:100A4000729F070E70E0711D829F080E80E0811D6D
:100A50001124930F730F830F6F3FB9F020E06623CB
:100A600021F0669F212D09F02F5F222309F445C054
:100A7000929F090E90E0911D729F070E70E0711D0C
:100A8000829F080E80E0811D1124692F0895511165
:100A90000BC03AEA439F040E40E0411D11248BEA4B
:100AA000841B7AEA790F63CF80E0792F7095892FC4
:100AB00090E0B2CFE11111C051110BC0842F9AEA1E
:100AC000899F080E80E0811D11247BEA781B8B5AD8
:100AD000EFCF892F809570E09FCF511106C035E58B
:100AE000390F8BEA891B932FF6CF3AEA390F40E092
:100AF000F9CF8FEF7FEF9FEFAFCF80E070E090E016
:100B0000C4CF0895089587FF2FC010920A0810924D
:100B1000090880910C08882331F180910B08E0913D
:100B20000908F0910A08E95DF84F662361F188230E
:100B300041F1848D87FD17C0E82FE695E695E6958F
:100B4000F0E0E551F84F282F277081E090E0A0E019
:100B5000B0E004C0880F991FAA1FBB1F2A95D2F7C7
:100B60002081822B808308958C313CF08BE190E0D2
:100B700090930A0880930908CCCF082E000C990B9B
:100B8000F7CF8081D7CF8823D1F0248D27FDEBCFFD
:100B9000E22FE695E695E695F0E0E551F84F2770EF
:100BA00081E090E0A0E0B0E004C0880F991FAA1F88
:100BB000BB1F2A95D2F7809590818923D3CF2081BE
:100BC000E5CF4F925F926F927F928F929F92AF92FA
:100BD000BF92CF92DF92EF92FF920F931F93CF932A
:100BE000DF9300D01F921F92CDB7DEB72091700423
:100BF0002D834B015C0104C0B694A794979487940D
:100C00002A95D2F740907404509075046090760451
:100C1000709077046B017C01C420D520E620F7207A
:100C20008091780490917904A0917A04B0917B042A
:100C300089839A83AB83BC83F0E0E0E029813A8129
:100C40004B815C81282539254A255B2565EB77E7B3
:100C500082E99CE20E942F43DC01CB018B5F944B25
:100C6000A94AB3458C019D014CE13695279517950E
:100C700007954A95D1F70C5F1F4F9C01AD0104C049
:100C800056954795379527950A95D2F728273927FE
:100C90004A275B2769ED72EF8EE890E10E942F43AF
:100CA0008B019C0156E136952795179507955A9526
:100CB000D1F7DC01CB0180279127A227B32784211C
:100CC0009521A621B7218C259D25AE25BF253196DE
:100CD00075016401E430F10521F50D8004C0880F31
:100CE000991FAA1FBB1F0A94D2F7BC01CD01682926
:100CF00079298A299B290F900F900F900F900F90C0
:100D0000DF91CF911F910F91FF90EF90DF90CF90E7
:100D1000BF90AF909F908F907F906F905F904F901B
:100D200008954C015D018ACF4F925F926F927F923E
:100D30008F929F92AF92BF92CF92DF92EF92FF92EB
:100D40000F931F93CF93DF9300D01F921F92CDB7C5
:100D5000DEB7209170042D834B015C0104C0B69472
:100D6000A794979487942A95D2F740907404509052
:100D7000750460907604709077046B017C01C42048
:100D8000D520E620F7208091780490917904A091F5
:100D90007A04B0917B0489839A83AB83BC83F0E0AF
:100DA000E0E029813A814B815C812C253D254E254F
:100DB0005F2565EB77E782E99CE20E942F43DC0127
:100DC000CB018B5F944BA94AB3458C019D014CE14B
:100DD00036952795179507954A95D1F70C5F1F4FC4
:100DE0009C01AD0104C056954795379527950A9506
:100DF000D2F7282739274A275B2769ED72EF8EE85B
:100E000090E10E942F438B019C0156E13695279576
:100E1000179507955A95D1F7DC01CB0180279127CB
:100E2000A227B32784219521A621B721BC01CD019A
:100E3000682579258A259B25319646015701E4309E
:100E4000F10511F50D8004C0CC0CDD1CEE1CFF1C5F
:100E50000A94D2F76C297D298E299F290F900F9033
:100E60000F900F900F90DF91CF911F910F91FF90F6
:100E7000EF90DF90CF90BF90AF909F908F907F903A
:100E80006F905F904F9008956B017C018ACF8150E5
:100E9000823108F05AC0E82FF0E08827ED5AF84F69
:100EA0008F4F0C9453437307770765076B076F07E2
:100EB000A5077A07800784078A078E079207980795
:100EC0009C07A507A007A607AA07809180008F7737
:100ED000809380000895809180008F7DF9CF80916C
:100EE0008000877FF5CF84B58F7784BD089584B562
:100EF0008F7DFBCF8091B0008F778093B0000895F5
:100F00008091B0008F7DF9CF809190008F77809392
:100F100090000895809190008F7DF9CF809190008E
:100F2000877FF5CF8091A0008F778093A0000895F0
:100F30008091A0008F7DF9CF8091A000877FF5CFB1
:100F4000809120018F778093200108958091200166
:100F50008F7DF9CF80912001877FF5CFCF93DF93ED
:100F6000282F30E0F901E157F84F8491F901E75B50
:100F7000F84FD491F901ED5FF84FC491CC23A1F063
:100F800081110E944707EC2FF0E0EE0FFF1FE751A1
:100F9000F94FA591B491EC91ED2381E090E009F433
:100FA00080E0DF91CF91089580E090E0FACF1F9329
:100FB000CF93DF93282F30E0F901E157F84F849168
:100FC000F901E75BF84FD491F901ED5FF84FC49157
:100FD000CC23A9F0162F81110E944707EC2FF0E0D7
:100FE000EE0FFF1FE153F94FA591B4918FB7F8941D
:100FF000EC91111108C0D095DE23DC938FBFDF91F7
:10100000CF911F910895DE2BF8CFCF93DF9390E01F
:10101000FC01E75BF84F24918D5F984FFC018491B0
:101020008823D1F090E0880F991FFC01EB54F94F11
:10103000A591B491FC01E153F94FC591D49162306F
:1010400071F49FB7F8943C91822F809583238C9301
:10105000E8812E2B28839FBFDF91CF9108958FB712
:10106000F894EC912E2B2C938FBFF6CF1F93CF9338
:10107000DF93182FEB0161E00E940508209739F4F7
:1010800060E0812FDF91CF911F910C94D707CF3F64
:10109000D10511F461E0F5CFE12FF0E0E157F84F11
:1010A000E491E150E23108F0B3C0F0E08827E45A5F
:1010B000F74F8F4F0C9453436E0876087B088508D2
:1010C0008F0808099908A108A908B308BD08C7082E
:1010D000D608E0080809EA08F408FE0884B5806824
:1010E00084BDC7BDDF91CF911F91089584B5806203
:1010F00084BDC8BDF7CF8091800080688093800058
:10110000D0938900C0938800EDCF809180008062E9
:1011100080938000D0938B00C0938A00E3CF8091AE
:101120008000886080938000D0938D00C0938C00F5
:10113000D9CF8091B00080688093B000C093B30095
:10114000D1CF8091B00080628093B000C093B40092
:10115000C9CF80919000806880939000D0939900CF
:10116000C0939800BFCF80919000806280939000E0
:10117000D0939B00C0939A00B5CF80919000886077
:1011800080939000D0939D00C0939C00ABCF809142
:10119000A00080688093A0008091A0008F7B809346
:1011A000A000D093A900C093A8009CCF8091A0007C
:1011B00080628093A000D093AB00C093AA0092CF2E
:1011C0008091A00088608093A000D093AD00C09370
:1011D000AC0088CF80912001806880932001D0935B
:1011E0002901C09328017ECF8091200180628093E5
:1011F0002001D0932B01C0932A0174CF809120014C
:10120000886080932001D0932D01C0932C016ACF78
:10121000C038D1050CF03ECF33CF3FB7F894809162
:101220006C0490916D04A0916E04B0916F0426B58A
:10123000A89B05C02F3F19F00196A11DB11D3FBF0E
:10124000BA2FA92F982F8827BC01CD01620F711DDD
:10125000811D911D42E0660F771F881F991F4A95D7
:10126000D1F708958F929F92AF92BF92CF92DF9263
:10127000EF92FF924B015C010E940D096B017C0112
:101280000E940D096C197D098E099F09683E734003
:1012900081059105A8F321E0821A9108A108B108FF
:1012A00088EEC80E83E0D81EE11CF11C8114910465
:1012B000A104B10429F7FF90EF90DF90CF90BF9089
:1012C000AF909F908F9008952FB7F8946091680425
:1012D0007091690480916A0490916B042FBF089506
:1012E00080E991E00895AF92BF92CF92DF92EF92A2
:1012F000FF920F931F93CF93DF936C017B018B01C0
:10130000040F151FEB015E01AE18BF08C017D1070F
:1013100059F06991D601ED91FC910190F081E02D99
:10132000C6011995892B79F7C501DF91CF911F91DE
:101330000F91FF90EF90DF90CF90BF90AF90089506
:10134000FC01538D448D252F30E0842F90E0821BCB
:10135000930B541710F0CF96089501970895FC0150
:10136000918D828D981761F0A28DAE0FBF2FB11DA8
:101370005D968C91928D9F5F9F73928F90E0089500
:101380008FEF9FEF0895FC01918D828D981731F0BA
:10139000828DE80FF11D858D90E008958FEF9FEF0E
:1013A0000895FC01918D228D892F90E0805C9F4FE4
:1013B000821B91098F73992708958AED94E00E940A
:1013C000D10921E0892B09F420E0822F089587E7D5
:1013D00095E00E94D10921E0892B09F420E0822FB9
:1013E0000895FC01A48DA80FB92FB11DA35ABF4FBA
:1013F0002C91848D90E001968F739927848FA68914
:10140000B7892C93A089B1898C91837080648C9367
:10141000938D848D981306C00288F389E02D808116
:101420008F7D80830895EF92FF920F931F93CF9348
:10143000DF93EC0181E0888F9B8D8C8D98131AC00F
:10144000E889F989808185FF15C09FB7F894EE89F6
:10145000FF896083E889F989808183708064808353
:101460009FBF81E090E0DF91CF911F910F91FF909E
:10147000EF900895F62E0B8D10E00F5F1F4F0F7346
:101480001127E02E8C8D8E110CC00FB607FCFACF01
:10149000E889F989808185FFF5CFCE010E94F109A5
:1014A000F1CFEB8DEC0FFD2FF11DE35AFF4FF082D2
:1014B0009FB7F8940B8FEA89FB8980818062CFCF38
:1014C000CF93DF93EC01888D8823B9F0AA89BB897B
:1014D000E889F9898C9185FD03C0808186FD0DC066
:1014E0000FB607FCF7CF8C9185FFF2CF808185FF87
:1014F000EDCFCE010E94F109E9CFDF91CF910895A0
:1015000080E090E0892B29F00E94E70981110E9478
:10151000000080E090E0892B49F080E090E0892B8A
:1015200029F00E94000081110E94000080E090E0FC
:10153000892B49F080E090E0892B29F00E9400007F
:1015400081110E94000080E090E0892B29F00E9428
:10155000DD0981110C9400000895FC0183A5882306
:1015600029F081E022A595A1291380E00895CF926A
:10157000DF92EF92FF920F931F93CF93DF93EC01D3
:101580008CA10E94AE0721E0892B09F420E02EA354
:101590000E94640968A379A38AA39BA3EEA12FA14B
:1015A000E2132DC191E098A798A59923F1F048A1E5
:1015B00059A16AA17BA1088919892A893B89DB0184
:1015C000CA01801B910BA20BB30B8C019D01C8803B
:1015D000D980EA80FB80C016D106E206F30628F423
:1015E000E9A7488B598B6A8B7B8BEFA31BA629A598
:1015F0008AA52817C1F088A199A1AAA1BBA14C89ED
:101600005D896E897F89841B950BA60BB70B4C8176
:101610005D816E817F81481759076A077B0718F43F
:101620002AA781E08BA71FA6CE010E94AD0A8823BE
:10163000B9F088A199A1AAA1BBA1488D598D6A8D45
:101640007B8D841B950BA60BB70B4C855D856E853A
:101650007F8584179507A607B70708F4D6C018AA90
:1016600088A91BA5811131C011112DC09AA58DA18A
:10167000981741F1C88CD98CEA8CFB8C8C8D9D8D90
:10168000AE8DBF8D8C199D09AE09BF09488559855E
:101690006A857B85481759076A077B0708F4B8C035
:1016A00048A159A16AA17BA14C195D096E097F0966
:1016B00081E0CC84DD84EE84FF844C155D056E05ED
:1016C0007F0508F480E08FA788ABCE010E94AD0AA9
:1016D0008823B9F048A159A16AA17BA1888D998D71
:1016E000AA8DBB8D481B590B6A0B7B0B81E0CC8408
:1016F000DD84EE84FF844C155D056E057F0508F0E2
:1017000080E08EA71CA6112321F09AA58DA1981325
:101710001DA68DA581111FC011111BC09AA58DA1F9
:10172000981378C048A159A16AA17BA1888D998D91
:10173000AA8DBB8D481B590B6A0B7B0B81E0C884BB
:10174000D984EA84FB84C416D506E606F70608F0B9
:1017500080E08CA78DA7112391F0C8A0D9A0EAA0A2
:10176000FBA0CC8ADD8AEE8AFF8ACE010E94AD0AF8
:10177000882309F451C0C88ED98EEA8EFB8EE9A861
:10178000FAA8E114F10409F44CC0CE010E94AD0A9C
:10179000882309F446C08BAD9CADF7011995EDA9DE
:1017A000FEA9309741F08CA5882329F0DE01DF9651
:1017B0008D919C911995EFA9F8AD309749F08EA5C0
:1017C000882331F0DE01AF5BBF4F8D919C9119955D
:1017D000E9ADFAAD309749F08FA5882331F0DE01ED
:1017E000AD5BBF4F8D919C9119958BA5DF91CF91EA
:1017F0001F910F91FF90EF90DF90CF90089518A662
:10180000688B798B8A8B9B8BCFCE81E088AB28CF7E
:10181000812F59CF812F9DCFCC8EDD8EEE8EFF8E06
:10182000AECFEBA9FCA9309709F4B9CF112309F485
:10183000B6CF9AA58DA1981709F4B1CF8DAD9EAD05
:10184000ADCF8F929F92AF92BF92CF92DF92EF92E5
:10185000FF920F931F93CF93DF93FC0120852111FB
:1018600010C060E070E0CB01DF91CF911F910F912C
:10187000FF90EF90DF90CF90BF90AF909F908F90B0
:101880000895EC010E94640929852111EACF8C801A
:101890009D80AE80BF80088119812A813B816B01C8
:1018A0007C01C818D908EA08FB08C016D106E20670
:1018B000F306B8F6080D191D2A1D3B1D68017901B4
:1018C000C61AD70AE80AF90AC701B601CDCFCF92E6
:1018D000DF92EF92FF921F93CF93DF93FC0110856D
:1018E00011110AC010E0812FDF91CF911F91FF905D
:1018F000EF90DF90CF900895EC018185882319F057
:1019000018861986F0CF0E946409CC80DD80EE80B5
:10191000FF806C197D098E099F09C880D980EA80F3
:10192000FB806C157D058E059F0550F7DBCFCF93AF
:10193000DF93EC01488359836A837B830E946409A7
:101940006C837D838E839F8381E088871986DF91F6
:10195000CF9108950F931F93CF93DF93EC010E94D3
:1019600064098B019C018C819D81AE81BF8148817E
:1019700059816A817B81081B190B2A0B3B0B0417C9
:1019800015072607370738F4CE01DF91CF911F9155
:101990000F910C94970C840F951FA61FB71F8C8373
:1019A0009D83AE83BF8381E088871986DF91CF91C5
:1019B0001F910F9108952091A803260F3327331FFD
:1019C00021323105ECF42091A804FC0190E080E084
:1019D000243069F082E00895A091A8032191AC0120
:1019E00048575C4FA40FB52FB11D2C930196861755
:1019F00098F38091A803680F6093A80380E008958E
:101A000081E008951092A80481E08093A7041092C9
:101A1000820461E084E10E94D70761E085E10E94D1
:101A2000D707E9EBF0E080818E7F808380818D7F16
:101A3000808388E48093B80085E48093BC00089597
:101A400010928104109280041092AF041092D1047D
:101A50000E94020D81E895E090937F0480937E04BC
:101A600082E895E090937D0480937C040895CF9361
:101A7000DF9391E0909387038823B9F0C091B80079
:101A8000D091BA008091BC008A7B8093BC0060E05A
:101A900084E10E94D70760E085E10E94D7070E9499
:101AA000020DD093BA00C093B800DF91CF91089592
:101AB000CF92DF92EF92FF920F931F93CF93DF931A
:101AC000D091D10481E0D13208F09CC0C091D00403
:101AD0000E940D096B017C018091A80481116CC0EA
:101AE00082E08093A80481E08093A7048FEF809325
:101AF000A6041092A504D093A404A0EBB4E0E4E8FB
:101B0000F4E080E0D8138DC01092830480918304A8
:101B1000CC0FC82BC093830480918204813009F0DC
:101B200084C0109282040E940D096B017C01809197
:101B300083048093BB008091AA049091AB04A09190
:101B4000AC04B091AD04892B8A2B8B2BA1F00E94A1
:101B50000D090091AA041091AB042091AC043091BE
:101B6000AD046C197D098E099F0906171707280710
:101B7000390708F442C08091BC0083FDD8CF85ECC2
:101B80008093BC000E940D096B017C018091A80428
:101B9000823009F44CC08091A6048F3F09F469C0DB
:101BA0008091A604803209F466C08091A604803337
:101BB00009F463C084E026C08091AA049091AB042C
:101BC000A091AC04B091AD04892B8A2B8B2B09F426
:101BD00083CF0E940D090091AA041091AB042091BB
:101BE000AC043091AD046C197D098E099F0906176C
:101BF00017072807390708F06FCF8091A9040E94C2
:101C0000370D85E01092AF041092D1041092AE040B
:101C1000DF91CF911F910F91FF90EF90DF90CF90C8
:101C200008959D9191938F5F6DCF85EEA9CF80919F
:101C3000AA049091AB04A091AC04B091AD04892B9F
:101C40008A2B8B2B09F4A2CF0E940D090091AA04C4
:101C50001091AB042091AC043091AD046C197D0956
:101C60008E099F09061717072807390708F08ECF36
:101C7000C4CF80E0C7CF82E0C5CF83E0C3CF089553
:101C8000E091810480918004E81730F4F0E0E95994
:101C9000FC4F808190E008958FEF9FEF0895909121
:101CA0008104809180042FEF3FEF981748F4E92FCB
:101CB000F0E0E959FC4F208130E09F5F9093810470
:101CC000C90108958091800490918104891B990B2A
:101CD0000895CF92DF92EF92FF920F931F93CF93CD
:101CE000DF937C01CB018A012091AE04222389F08D
:101CF000EB016B01C40ED51ECC15DD0569F06991B1
:101D0000D701ED91FC910190F081E02DC70119956B
:101D1000F3CF642F0E94DB0CC801DF91CF911F919C
:101D20000F91FF90EF90DF90CF900895CF93DF93C6
:101D30001F92CDB7DEB769832091AE042223F9F05C
:101D40002091D104203258F021E030E0FC013383AF
:101D5000228390E080E00F90DF91CF9108958091F1
:101D6000AF04E82FF0E0E055FB4F998190838F5F3F
:101D70008093AF048093D10481E090E0ECCF61E0E8
:101D8000CE0101960E94DB0CF7CF9091010821E073
:101D90002093AE049093D0041092AF041092D1041B
:101DA000682F84E196E00E94960E0C94580D90E006
:101DB00080E00895FC018081869F080E80E0811DEF
:101DC00080838181869F080E80E0811D81838281CE
:101DD000869F080E80E0811D82831124CF01089523
:101DE000AF92BF92CF92DF92EF92FF920F931F9329
:101DF000CF93DF9300D0CDB7DEB75A0119821A8294
:101E00001B82882361F18B01E1E0F0E0E82EF12CE8
:101E1000D8012D918D012223F1F06F01B1E0CB1A91
:101E2000D108D501AC0DBD1D4C914423A1F030E08B
:101E30002F5F3F4FD7010E942043A42FB0E011969F
:101E40009B01AC010E94EB42A1E0B0E0AC0FBD1FD2
:101E5000AC0DBD1D8C933196E430F105C9F6698156
:101E60007A818B810F900F900F90DF91CF911F910E
:101E70000F91FF90EF90DF90CF90BF90AF900895BB
:101E8000FC0185EE92E091838083138212828FEFB2
:101E900086838783808781878287838781E08487A1
:101EA00085871786168680E797E1918B808B83E084
:101EB00090E0938B828B158A148A1582148280910C
:101EC000D2049091D304892B21F4F093D304E093AE
:101ED000D204A0916503B0916603109721F0159686
:101EE000FC93EE931497F0936603E09365030895D3
:101EF00081E090E008950F931F93CF93DF9320919B
:101F000057032F5F322F37703093570320FF2BC0BA
:101F100020E831FD2064347009F02062205FFC016C
:101F2000EC01239600E011E06785662329F070E05C
:101F3000C8010E943F436F5F6187822F869F080E12
:101F400080E0811D1124811110C01682662311F0DA
:101F5000615061873196EC17FD0731F7DF91CF9122
:101F60001F910F91089520E0D4CF81508683EECF4A
:101F70004F925F927F928F929F92AF92BF92CF9239
:101F8000DF92EF92FF920F931F93CF93DF932C0179
:101F9000EB010E940D09F20126893789621B730B40
:101FA0006A307105B0F3F8948A819B81181619067E
:101FB0000CF0CBC1E881F98105B1006175B17F7E7C
:101FC00075B9BA848F812B2D281B822F2F834C85C6
:101FD000042E000C550BAA81BB81E888DF84C988D8
:101FE000E394D394C3949E81388599848B84118122
:101FF00020E0F32E622F322F318111278894311186
:10200000380F08F43FEF81958894E0FC130F179583
:102010008894E1FC130F17958894E2FC130F179531
:102020008894E3FC130F17958894E4FC130F17951D
:102030008894E5FC130F17958894E6FC130F179509
:102040008894E7FC130F17958894232FE110212F14
:102050008B0D122F002C05B900C017FF75B9308108
:102060002227889400C000C0002C75B93111390FA7
:1020700000C0002C05B900C016FF75B908F43FEF89
:102080009195889400C000C0002C75B9D0FC230F36
:1020900000C0002C05B900C015FF75B927958894BC
:1020A000D1FC230F00C000C0002C75B9279588947F
:1020B00000C0002C05B900C014FF75B9D2FC230F75
:1020C0002795889400C000C0002C75B9D3FC230F5D
:1020D00000C0002C05B900C013FF75B9279588947E
:1020E000D4FC230F00C000C0002C75B9279588943C
:1020F00000C0002C05B900C012FF75B9D5FC230F34
:102100002795889400C000C0002C75B9D6FC230F19
:1021100000C0002C05B900C011FF75B9279588943F
:10212000D7FC230F00C000C0002C75B927958894F8
:1021300000C0002C05B900C010FF75B9132FD110D5
:10214000122F990D00C000C0002C75B900C000C04E
:10215000002C05B900C017FF75B932812227889479
:1021600000C000C0002C75B931113F0D00C0002C1B
:1021700005B900C016FF75B908F43FEFE40FF51F6D
:1021800000C000C0002C75B9C0FC230F00C0002C9B
:1021900005B900C015FF75B927958894C1FC230FB8
:1021A00000C000C0002C75B92795889400C0002C91
:1021B00005B900C014FF75B9C2FC230F2795889498
:1021C00000C000C0002C75B9C3FC230F00C0002C58
:1021D00005B900C013FF75B927958894C4FC230F77
:1021E00000C000C0002C75B92795889400C0002C51
:1021F00005B900C012FF75B9C5FC230F2795889457
:1022000000C000C0002C75B9C6FC230F00C0002C14
:1022100005B900C011FF75B927958894C7FC230F35
:1022200000C000C0002C75B92795889400C0002C10
:1022300005B900C010FF75B9132FC110122FF1940A
:1022400000C000C0002C75B9F80C00C000C005B972
:1022500000C017FF75B931812227889400C000C0E3
:10226000002C75B93111380F00C0002C05B900C021
:1022700016FF75B908F43FEF8195889400C000C03F
:10228000002C75B9E0FC230F00C0002C05B900C07C
:1022900015FF75B927958894E1FC230F00C000C095
:1022A000002C75B92795889400C0002C05B900C092
:1022B00014FF75B9E2FC230F2795889400C000C075
:1022C000002C75B9E3FC230F00C0002C05B900C039
:1022D00013FF75B927958894E4FC230F00C000C054
:1022E000002C75B92795889400C0002C05B900C052
:1022F00012FF75B9E5FC230F2795889400C000C034
:10230000002C75B9E6FC230F00C0002C05B900C0F5
:1023100011FF75B927958894E7FC230F00C000C012
:10232000002C75B92795889400C0002C05B900C011
:1023300010FF75B9132FE110122F8B0D00C000C0D4
:10234000002C75B9119709F086CEEA81FB812EE148
:1023500030E0DF010E945B4330E020E0A901AAE900
:10236000EA9F0E0E411DFA9F400D511D11244F0F83
:10237000511DDC01CB01840F951FA11DB11D893EAC
:1023800043E09407A105B10508F434C0885E93408A
:10239000A109B10942E0B695A795979587954A9509
:1023A000D1F747E0849F080E211D949F200D311D19
:1023B0001124290F311D6091560370E0860F971F7D
:1023C000820F931F409168045091690460916A04E0
:1023D00070916B04292F3327420F531F611D711D0C
:1023E000409368045093690460936A0470936B048B
:1023F0008093560378940E940D09F201778B668BC7
:10240000DF91CF911F910F91FF90EF90DF90CF90D0
:10241000BF90AF909F908F907F905F904F90089566
:10242000249A08954F925F927F928F929F92AF92DB
:10243000BF92CF92DF92EF92FF920F931F93CF93B1
:10244000DF932C01EB010E940D09F20126893789E7
:10245000621B730B6A307105B0F3F8948A819B811B
:10246000181619060CF0CBC1E881F98105B100649A
:1024700075B17F7B75B9BA848F812B2D281B822F74
:102480002F834C85042E000C550BAA81BB81E88854
:10249000DF84C988E394D394C3949E81388599845A
:1024A0008B84118120E0F32E622F322F318111278E
:1024B00088943111380F08F43FEF81958894E0FC3F
:1024C000130F17958894E1FC130F17958894E2FC7D
:1024D000130F17958894E3FC130F17958894E4FC69
:1024E000130F17958894E5FC130F17958894E6FC55
:1024F000130F17958894E7FC130F17958894232FD3
:10250000E110212F8B0D122F002C05B900C017FFF1
:1025100075B930812227889400C000C0002C75B99D
:102520003111390F00C0002C05B900C016FF75B974
:1025300008F43FEF9195889400C000C0002C75B955
:10254000D0FC230F00C0002C05B900C015FF75B9E1
:1025500027958894D1FC230F00C000C0002C75B9CA
:102560002795889400C0002C05B900C014FF75B9E8
:10257000D2FC230F2795889400C000C0002C75B9A9
:10258000D3FC230F00C0002C05B900C013FF75B9A0
:1025900027958894D4FC230F00C000C0002C75B987
:1025A0002795889400C0002C05B900C012FF75B9AA
:1025B000D5FC230F2795889400C000C0002C75B966
:1025C000D6FC230F00C0002C05B900C011FF75B95F
:1025D00027958894D7FC230F00C000C0002C75B944
:1025E0002795889400C0002C05B900C010FF75B96C
:1025F000132FD110122F990D00C000C0002C75B9F7
:1026000000C000C0002C05B900C017FF75B93281A9
:102610002227889400C000C0002C75B931113F0DED
:1026200000C0002C05B900C016FF75B908F43FEFD3
:10263000E40FF51F00C000C0002C75B9C0FC230FCB
:1026400000C0002C05B900C015FF75B92795889406
:10265000C1FC230F00C000C0002C75B927958894D9
:1026600000C0002C05B900C014FF75B9C2FC230FCF
:102670002795889400C000C0002C75B9C3FC230FB7
:1026800000C0002C05B900C013FF75B927958894C8
:10269000C4FC230F00C000C0002C75B92795889496
:1026A00000C0002C05B900C012FF75B9C5FC230F8E
:1026B0002795889400C000C0002C75B9C6FC230F74
:1026C00000C0002C05B900C011FF75B9279588948A
:1026D000C7FC230F00C000C0002C75B92795889453
:1026E00000C0002C05B900C010FF75B9132FC11030
:1026F000122FF19400C000C0002C75B9F80C00C076
:1027000000C005B900C017FF75B931812227889430
:1027100000C000C0002C75B93111380F00C0002C6A
:1027200005B900C016FF75B908F43FEF819588948C
:1027300000C000C0002C75B9E0FC230F00C0002CC5
:1027400005B900C015FF75B927958894E1FC230FE2
:1027500000C000C0002C75B92795889400C0002CDB
:1027600005B900C014FF75B9E2FC230F27958894C2
:1027700000C000C0002C75B9E3FC230F00C0002C82
:1027800005B900C013FF75B927958894E4FC230FA1
:1027900000C000C0002C75B92795889400C0002C9B
:1027A00005B900C012FF75B9E5FC230F2795889481
:1027B00000C000C0002C75B9E6FC230F00C0002C3F
:1027C00005B900C011FF75B927958894E7FC230F60
:1027D00000C000C0002C75B92795889400C0002C5B
:1027E00005B900C010FF75B9132FE110122F8B0D22
:1027F00000C000C0002C75B9119709F086CEEA819F
:10280000FB812EE130E0DF010E945B4330E020E0FD
:10281000A901AAE9EA9F0E0E411DFA9F400D511D24
:1028200011244F0F511DDC01CB01840F951FA11DF9
:10283000B11D893E43E09407A105B10508F434C0F9
:10284000885E9340A109B10942E0B695A795979596
:1028500087954A95D1F747E0849F080E211D949FE4
:10286000200D311D1124290F311D6091560370E098
:10287000860F971F820F931F40916804509169043F
:1028800060916A0470916B04292F3327420F531F04
:10289000611D711D409368045093690460936A043C
:1028A00070936B048093560378940E940D09F20193
:1028B000778B668BDF91CF911F910F91FF90EF90F7
:1028C000DF90CF90BF90AF909F908F907F905F9060
:1028D0004F900895269A08956F927F928F92CF928B
:1028E000DF92EF92FF920F931F93CF93DF93CDB7B9
:1028F000DEB762970FB6F894DEBF0FBECDBF8C0176
:102900006B017A01822FA801475F5F4FB8016A5FB0
:102910007F4F0E94F00E3B01882ED8011C962C910F
:10292000C701F7FE04C0882799278E199F09DA820C
:10293000C9829C838B839E838D83688A798A8A8AE5
:10294000213049F5CE0101960E947B0F83E08D87EF
:102950001F861E86F7FE02C08DEF8D87D801ED9190
:10296000FC910088F189E02DBE016F5F7F4FC801A7
:10297000199562960FB6F894DEBF0FBECDBFDF91FA
:10298000CF911F910F91FF90EF90DF90CF908F909C
:102990007F906F9008951C861B861A86198618866C
:1029A0001F82D4CFCF92DF92EF92FF920F931F93AB
:1029B000CF93DF93CDB7DEB762970FB6F894DEBF43
:1029C0000FBECDBF8C016B017A01822FA801475F3A
:1029D0005F4FB8016A5F7F4F0E94F00E9B01482F46
:1029E000D8011C968C91DA82C982FC82EB82FE822D
:1029F000ED82288B398B4A8B813009F5CE01019607
:102A00000E947B0F1D861F861E86D801ED91FC91CA
:102A10000088F189E02DBE016F5F7F4FC8011995D5
:102A200062960FB6F894DEBF0FBECDBFDF91CF9197
:102A30001F910F91FF90EF90DF90CF9008951C862B
:102A40001B861A86198618861F82DCCF809119088A
:102A500090911A08892B31F08091170890911808ED
:102A60000597B1F010920A08109209081092080810
:102A700081E090E090931A0880931908109215084D
:102A80001092160885E090E090931808809317083C
:102A90000895CF93C82F8091110290912D0699230C
:102AA000E9F00E94AE07813031F06091130280910D
:102AB00011020E94D7076FEF80E0C43110F06C2F35
:102AC00082E00E947C046093D4047093D5048093C8
:102AD000D60481E080935003CF910895C11105C0C1
:102AE00060911302CF910C94D707EC2FF0E0E755DB
:102AF000FC4F6491E62FE0956E2F70E0CF910C941F
:102B0000360890912D0681111AC0911106C060916E
:102B10001602809114020E94D7070E943104882374
:102B200069F06FEF80E00E947C046093D70470939B
:102B3000D8048093D90481E08093500308959111C3
:102B400006C060911502809114020E94D7070E946E
:102B500031048111F3CF6FEF81E0E5CFE4E4FAE0D7
:102B6000108611861092520370E060E08BE00C94A6
:102B7000360890915A0A9330C9F02091B7089230E4
:102B8000B9F4222399F0682F70E0660F771F613443
:102B9000710514F060E470E0809152038617170607
:102BA000B9F0609352038BE00C9436080C94AE1588
:102BB00090915203222369F0682F70E0660F771F0F
:102BC0006134710514F060E470E09617170649F758
:102BD00008958917E9F380935203682F70E0E3CFDB
:102BE0000F931F93CF93DF931092CB081092CC08D2
:102BF00010925503D0E0C0E08E01000F111F0C0FA2
:102C00001D1F035C1B4F6FEF80E00E947C04F801E6
:102C10006083718382832196C730D10569F7609103
:102C20000A0280910802DF91CF911F910F910C94BD
:102C3000D7077F928F929F92AF92BF92CF92DF92EF
:102C4000EF92FF920F931F93CF93DF9300D0CDB7F6
:102C5000DEB7B82E8DE197E00E94670C882309F457
:102C60008EC08091610A24E1829FC0011124969553
:102C70008795969587954EE150E0481B590B70E07B
:102C800060E08DE197E00E94970C80914F038E3FAA
:102C900018F4815F80934F0380910102823018F015
:102CA0008F5080930102A0900102E0914E03F0E06A
:102CB000EE0FFF1FE754FD4FC080D12C87E0C80EF8
:102CC000D11C70904F03018110E0095F1F4F80916C
:102CD00000027601EE0CFF1C4801880C991C6FEF76
:102CE000882309F45DC08B2D0E947C0469837A835C
:102CF0008B83672DCE0101960E94DA0EF701EC0D51
:102D0000FD1D9F01235C3B4FFC0180819181A281CD
:102D1000F90180839183A2836FEF8B2D0E947C0445
:102D200069837A838B836A2DCE0101960E94DA0E25
:102D3000080D191D035C1B4FFC0180819181A2814C
:102D4000F80180839183A283FFEF7F1218C08091E6
:102D50000102811114C08091000291E089278093C3
:102D6000000210924F037092010280914E0390E096
:102D700001966CE070E00E943F4380934E030F90F9
:102D80000F900F90DF91CF911F910F91FF90EF90D7
:102D9000DF90CF90BF90AF909F908F907F900895DD
:102DA0008B2D0E947C0469837A838B836A2DCE01EC
:102DB00001960E94DA0EF701EC0DFD1D9F01235CC8
:102DC0003B4FFC0180819181A281F9018083918335
:102DD000A2836FEF8B2D0E947C0469837A838B839F
:102DE000672DA2CFCF93DF93EC0161E088810E9431
:102DF00005086A818881DF91CF910C94D70790E014
:102E000080E00895FC0164870895FC01848590E0CA
:102E10000895FC01868597850895EF92FF921F9390
:102E2000CF93DF93EC011A8111708A818E7F8A83A0
:102E30008A818D7F8A838FA598A90097A1F011239D
:102E400091F0E9A5FAA5309771F0DC011496ED90A8
:102E5000FC9015971596DC93CE9314971995EFA5D2
:102E6000F8A9F582E482812FDF91CF911F91FF9025
:102E7000EF9008950F931F93CF93DF93FC01A7A5C5
:102E8000B0A9109709F448C0EC0111A212A213A234
:102E900014A282818B7F828307A0F0A5E02D30975A
:102EA000B9F18A8181FD34C014960D911C9115975A
:102EB0001596DC93CE9314978A8182608A83199544
:102EC0009A8180FB90F99A838A818D7F8A83EFA50E
:102ED000F8A9158304838B819C81AD81BE818F838A
:102EE0009887A987BA870E9464090F811885298568
:102EF0003A85601B710B820B930B6B877C878D87E8
:102F00009E878A818170DF91CF911F910F910895E3
:102F10008A8181608A83DFCF80E0F5CFCF93DF9312
:102F2000EC0189E493E0998388838A8180FF03C060
:102F3000CE010E940D17EFA5F8A9309721F1118657
:102F400086899789A08DB18D0197A109B109868BDA
:102F5000978BA08FB18F2DA53EA586819781C8172D
:102F6000D90711F43783268318AA1FA68BA59CA521
:102F70000097A1F42115310549F4118210821382C2
:102F8000128281E08187DF91CF910895D9019C96CB
:102F90001C921E929B9731832083F3CFDC01211575
:102FA000310539F49E961C921E929D9793838283DD
:102FB000E8CF9E963C932E939D97ADA5BEA59C967B
:102FC0009C938E939B97DDCF0E940D09CB010895B2
:102FD0000F931F93CF93DF938C018091010891E0B1
:102FE0009093AE048093D0041092AF041092D10459
:102FF00060E084E196E00E94960EE801005F1F4FBA
:10300000699184E196E00E94960E0C171D07C1F7A6
:10301000DF91CF911F910F910C94580D80910C0866
:10302000882321F08BEE97E00C94E8170895CF9257
:10303000DF92EF92FF920F931F93CF93DF93CDB761
:10304000DEB7DC010DB71EB73C91432F50E07A018B
:1030500081E0E81AF108EDB7FEB7E41BF50B0FB6F7
:10306000F894FEBF0FBEEDBF6DB77EB76F5F7F4FA9
:1030700020E08AEAD82E90EFC92E822F90E08E159C
:103080009F050CF01BC1233030F4FB01213021F1EE
:10309000223021F1C08213969C911397992309F451
:1030A0009AC0233008F438C0EDEFE20FEC3008F09E
:1030B00033C0F0E08827E05AF74E8F4F0C9453430B
:1030C0000219701876187C1882189218A618B11870
:1030D000BC18C718D318DF18D182DDCF3283DBCFFD
:1030E00014968C911497FB01848316C011968C91D1
:1030F0001197FB01858310C012968C911297FB01EA
:1031000086830AC051968C915197882339F0529644
:103110008C915297FB0187832F5FAFCF16968C91CE
:103120001697F8CF1A968C911A97882331F01B9630
:103130008C911B97FB018087EFCF51968C91519713
:10314000882351F353968C915397F4CF1A968C9110
:103150001A97882309F31C968C911C97FB01818791
:10316000DBCF1A968C911A978823B1F21D968C9119
:103170001D97FB018287D0CF1E968C911E978823C6
:1031800059F21F968C911F97FB018387C5CF1E961E
:103190008C911E97882309F4BFCF50968C9150973D
:1031A000FB018487B9CF17968C911797882309F470
:1031B000B3CF18968C911897FB018587ADCF1796E2
:1031C0008C911797882309F4A7CF19968C9119979A
:1031D000FB018687A1CFEDEFE20FE83008F09CCF2E
:1031E000F0E014969C9114978827E650F74E8F4F85
:1031F0000C94534302190519251937194019491917
:1032000050195719FB01938387CF95509C3008F0D4
:1032100083CFE92FF0E08827EF5EF64E8F4F0C94B6
:1032200053431D198C188C181D1921191D198C1840
:103230001D198C18211921191D1911968C9111979E
:1032400052CF16968C9116974ECF9A3031F048F4A3
:10325000953019F0983009F05FCF12968C91129743
:1032600048CF9C30D1F3903109F056CFF6CF98304B
:1032700019F09A3009F050CF1B968C911B973FCFD5
:10328000983019F09A3009F047CF1C968C911C9712
:1032900041CF9A3009F040CF18968C9118974ACFB9
:1032A0009A3009F039CF19968C91199757CF9A30E7
:1032B00009F032CF17968C9117975BCF860F971F27
:1032C00025E5DC012C938091BC069091BD06DC01C4
:1032D000ED91FC910280F381E02D19950FB6F894E1
:1032E0001EBF0FBE0DBFDF91CF911F910F91FF90B9
:1032F000EF90DF90CF900895CF93DF93CDB7DEB7F7
:1033000064970FB6F894DEBF0FBECDBFFE013596B1
:1033100020E1DF011D922A95E9F729E029839B83AB
:103320008A838DE08C8386E0611185E08D836F83D5
:10333000CE0101960E94171864960FB6F894DEBF6E
:103340000FBECDBFDF91CF910895CF93DF93CDB75F
:10335000DEB764970FB6F894DEBF0FBECDBFFE0197
:10336000339622E1DF011D922A95E9F729E02983AE
:103370009B838A8388E08D837D876C87CE0101964D
:103380000E94171864960FB6F894DEBF0FBECDBF2B
:10339000DF91CF91089580915F039091600318169B
:1033A000190694F48091370490913804019703979B
:1033B00058F460919406062E000C770B80916203FE
:1033C000909163030C94A51908958091370490910E
:1033D00038040197039748F460919506062E000C77
:1033E000770B83E090E00C94A5190895CF93DF93B9
:1033F000CDB7DEB764970FB6F894DEBF0FBECDBF72
:10340000FE01359620E1DF011D922A95E9F729E0BA
:1034100029839B838A838DE08C8381E08D836F83F6
:10342000CE0101960E94171864960FB6F894DEBF7D
:103430000FBECDBFDF91CF910895CF93DF93CDB76E
:10344000DEB764970FB6F894DEBF0FBECDBF41154F
:10345000510559F40E94F61964960FB6F894DEBF30
:103460000FBECDBFDF91CF910895FE01359620E1CB
:10347000DF011D922A95E9F72BE029839B838A833C
:103480008BE18C8381E08D836F8388875A8749879E
:10349000CE0101960E941718DFCFCF93DF93CDB7EF
:1034A000DEB764970FB6F894DEBF0FBECDBFFE0146
:1034B000359620E1DF011D922A95E9F728E029835E
:1034C0009B838A8383E08C8384E08D83CE01019685
:1034D0000E94171864960FB6F894DEBF0FBECDBFDA
:1034E000DF91CF9108952091370430913804215015
:1034F00031092330310510F40C944D1A089583E0FE
:1035000090E00C94731ACF93DF93CDB7DEB7649736
:103510000FB6F894DEBF0FBECDBFFE01339622E199
:10352000DF011D922A95E9F727E029839B838A838F
:1035300085E08D83CE0101960E94171864960FB620
:10354000F894DEBF0FBECDBFDF91CF910895CF932A
:10355000DF93CDB7DEB764970FB6F894DEBF0FBE2A
:10356000CDBFCE01019624E1FC0111922A95E9F725
:1035700025E0298324E02D830E94171864960FB656
:10358000F894DEBF0FBECDBFDF91CF910895CF93EA
:10359000DF93CDB7DEB764970FB6F894DEBF0FBEEA
:1035A000CDBF2091370430913804215031092230A9
:1035B000310580F4FE01319694E1DF011D929A9568
:1035C000E9F795E0998381110EC083E18D83CF01E6
:1035D0000E94171864960FB6F894DEBF0FBECDBFD9
:1035E000DF91CF91089582E1F1CFAF92BF92CF9258
:1035F000DF92EF92FF920F931F93CF93DF93CDB79C
:10360000DEB764970FB6F894DEBF0FBECDBF5C0186
:10361000F62EC42E14160CF4C12C8AEBC81614F422
:103620008AEBC82E8091370490913804823091053E
:1036300009F449C08330910511F0019799F50C2CDC
:10364000000CDD082223F9F06AEB7FEFC5010E9430
:10365000A5196E2DC5010E94F619FE01339682E16F
:10366000DF011D928A95E9F78CE08983BB82AA82EB
:103670008AE08D83DD86CC861A870987CE01019684
:103680000E94171808C0B601C5010E94A5196E2D29
:10369000C5010E94F61961E0F11001C060E0C501AA
:1036A0000E947C1964960FB6F894DEBF0FBECDBFA2
:1036B000DF91CF911F910F91FF90EF90DF90CF900E
:1036C000BF90AF9008950C2C000CDD08222361F010
:1036D0006AEB7FEFC5010E94A51950E040E06E2D16
:1036E000C5010E941D1AB9CFB601C5010E94A519D6
:1036F00050E040E06E2DC5010E941D1ACCCFEF9224
:103700000F931F93EE24E39408E813E1282F4091D0
:10371000950661E083E090E00E94F51A1F910F91F9
:10372000EF900895EF920F931F93809120028530C0
:1037300020F51092200287E090E00E94731AEE2498
:10374000E39410E000E020E04091970660E087E01D
:1037500090E00E94F51A8091200226E4829FC00129
:10376000112464E670E00E943F436654609394061F
:103770001F910F91EF900C94CB19855080932002EC
:10378000EACFEF920F931F9380912002803628F1A9
:1037900084E68093200287E090E00E94731AEE2472
:1037A000E39410E000E020E04091970660E087E0BD
:1037B00090E00E94F51A8091200226E4829FC001C9
:1037C000112464E670E00E943F43665460939406BF
:1037D0001F910F91EF900C94CB198B5F8093200277
:1037E000EACFEF920F931F93CF93C82F80913704A6
:1037F000909138040197039738F480919706082E2A
:10380000000C990B0E94831AC11116C080913B04D1
:1038100090913C04892B81F487E090E00E94731A18
:10382000EE24E39410E000E020E04091950660E093
:1038300087E090E00E94F51ACF911F910F91EF90D1
:103840000895809197068D3DE1F0809122028530A8
:10385000A0F410922202209122023DED3203C00119
:1038600011246CE97FEF0E943F43635260939706F7
:103870006093960680E00C94F11B855080932202A1
:10388000EACF0895809197068823D9F0809122028B
:103890008036A8F084E680932202209122023DED3A
:1038A0003203C00111246CE97FEF0E943F43635251
:1038B000609397066093960680E00C94F11B8B5FF3
:1038C000EACF08950F931F93CF93DF938091BC06A7
:1038D0009091BD06892B09F4DBC0CFEFDFEF11E03B
:1038E00003E08091BC069091BD06DC01ED91FC9156
:1038F0000084F185E02D1995892B09F4C9C08091C8
:10390000BC069091BD06DC01ED91FC910284F3852B
:10391000E02D19959091DF06911105C0803FA9F522
:103920001093DF06DECF913041F48A3A21F482E031
:103930008093DF06D6CF80E0FBCF923099F4803FB2
:1039400021F08A3A11F0853529F41092DF061092A1
:10395000E006C7CF8132C8F781508093E00600931C
:10396000DF06BFCF2091E006921778F4E92FF0E050
:10397000E554F94F8083803F41F38A3A31F385352E
:1039800021F39F5F9093DF06ACCF2091E006921366
:10399000A8CF8535D1F68091BE06843809F446C09B
:1039A000A0F4813809F466C0823879F68091BF06A8
:1039B0008093DE068091C0069091C1069093FE062A
:1039C0008093FD0610930407C0CF8538E1F0863858
:1039D00009F0BBCF8091BF068093DE062091C00620
:1039E0003091C1063093FE062093FD06993040F0D9
:1039F0008091C2069091C306909300078093FF06C2
:103A000010930507A2CF8091BF069091C0069093B6
:103A100002078093010781E09091C106911101C0D6
:103A200080E080930607109207078FCF8091C10630
:103A30008E3008F08ACF2091BF063091C0062F5FEC
:103A40003F4F90E04091C206880F991F41110CC072
:103A5000FC01E454F94F85A196A12817390709F014
:103A600074CFD6A3C5A371CF8454994FFC0136A35C
:103A700025A36BCF84E1EFEBF6E0A8E0B7E001907F
:103A80000D928A95E1F710921C07109303075DCF02
:103A9000DF91CF911F910F910895809137049091FC
:103AA00038040197039798F480915F039091600325
:103AB0001816190654F48091620390916303843FB1
:103AC00021E0920710F00E944D1A0E94621C109291
:103AD000510310926403089580915F0390916003F5
:103AE000181619060CF05DC0809162039091630373
:103AF000843F21E0920708F454C021E0209364033E
:103B000020913704309138042230310569F1233097
:103B1000310519F021303105F9F42091610361E09C
:103B2000211101C060E00E947C1960919406062E6C
:103B3000000C770B80916203909163030E94A5199A
:103B400061E080916203909163030E94F6190E94E4
:103B5000621C81E08093070740E157E260E070E07B
:103B600088E996E00C94970C2091610361E02111A3
:103B700001C060E00E947C1960919406062E000C42
:103B8000770B80916203909163030E94A51950E026
:103B900040E061E080916203909163030E941D1AEE
:103BA000D6CF0895EBEEF7E080E1DF011D928A9514
:103BB000E9F7CF010C94E81780910C0881110E945D
:103BC000D21D10920A081092090882E090E09093AA
:103BD0001A088093190808950E94DC1D10920A08A3
:103BE00010920908109208081092150810921608F1
:103BF00010921A08109219080895FF920F931F93BC
:103C0000CF93DF93D82F0E94EC1D109218081092CA
:103C1000170885E090E090931A088093190807E24E
:103C200017E0C0E0F12CD33061F1A8F4D130E1F01D
:103C3000D23009F16C2F8F2D0E948305F3940F5F12
:103C40001F4FFCE1FF12EFCFDF91CF911F910F913A
:103C5000FF900C940E18D430C9F0D53059F7C1E05C
:103C6000F801E855FF4F0BC0C1E0F80180AD8111AC
:103C7000E1CFC0E0DFCFC1E0F801EC5AFF4F808117
:103C8000F6CFC1E0F801E059FF4FF9CFC1E0F801EC
:103C9000E457FF4FF4CFEF920F931F939091290AAF
:103CA0008091240A981709F466C1909115098091B2
:103CB0001009981709F45FC18091530A8F3F09F4E6
:103CC00025C1813009F057C1809102029091030211
:103CD0008330910509F431C170F48130910509F404
:103CE00019C2029709F419C2809102021F910F9123
:103CF000EF900C94FD1D8430910509F42FC10597B8
:103D000099F780910402909105028330910509F49E
:103D10008FC050F48130910509F42DC1029709F448
:103D200046C081E090E01CC18430910509F4B5C023
:103D30000597B9F784E090E0909305028093040220
:103D400060911B0280911A020E94D7078FEF0E9498
:103D5000491581E00E948115609119028091170236
:103D60000E94D70785E090E00E94731AEE24E39446
:103D700010E000E020E04091950660E085E090E0F2
:103D80000E94F51A8BE090E00E94731A8CE090E09C
:103D90000E94731A8DE090E00E94731A20E0409117
:103DA000950660E08EE090E00E94F51A3CC081E04C
:103DB00090E0909305028093040260911C02809130
:103DC0001A020E94D70780E00E94491580E00E94F5
:103DD000811560911902809117020E94D70785E032
:103DE00090E00E94731AEE24E39410E000E020E0DB
:103DF0004091950660E085E090E00E94F51A20E091
:103E00004091950660E08BE090E00E94F51A8CE00E
:103E100090E00E94731A8DE090E00E94731A8EE089
:103E200090E00E94731A8FE090E00E94731A79CF9D
:103E300082E090E0909305028093040260911B025F
:103E400080911A020E94D70780E00E94491580E005
:103E50000E94811560911902809117020E94D70774
:103E600085E090E00E94731AEE24E39410E000E0F5
:103E700020E04091950660E085E090E00E94F51A10
:103E80008BE090E00E94731A20E04091950660E07C
:103E90008CE090E00E94F51ABECF83E090E0909312
:103EA00005028093040260911B0280911A020E9415
:103EB000D7078FEF0E94491580E00E94811560911D
:103EC0001902809117020E94D70785E090E00E94B6
:103ED000731AEE24E39410E000E020E04091950690
:103EE00060E085E090E00E94F51A8BE090E00E948F
:103EF000731A8CE090E00E94731A20E040919506BE
:103F000060E08DE090E00E94F51A89CF8091020276
:103F1000909103028330910509F4FCC038F481309C
:103F2000910571F0029709F4FCCEDECE8430910544
:103F300009F4F3C0059709F0D7CE84E090E010C0F3
:103F400080910402909105028330910509F464C0C8
:103F500060F48130910599F0029769F085E090E076
:103F60009093030280930202BFCE8430910509F43E
:103F700090C0059799F71F910F91EF900895809148
:103F80003B0490913C04019731F480913904909165
:103F90003A04059781F382E090E0909305028093C4
:103FA000040260911B0280911A020E94D70780E0F0
:103FB0000E94491580E00E9481156091190280914C
:103FC00017020E94D70785E090E00E94731AEE2442
:103FD000E39410E000E020E04091950660E085E089
:103FE00090E00E94F51A8BE090E00E94731A20E0A6
:103FF0004091950660E08CE090E00E94F51A8DE01B
:1040000090E00E94731A8EE090E00E94731A8FE095
:1040100090E00E94731AA2CF84E090E09093050292
:104020008093040260911B0280911A020E94D707BC
:104030008FEF0E94491581E00E948115609119025D
:10404000809117020E94D70785E090E00E94731AC2
:10405000EE24E39410E000E020E04091950660E05B
:1040600085E090E00E94F51A8BE090E00E94731AC0
:104070008CE090E00E94731A8DE090E00E94731A29
:1040800020E04091950660E08EE090E00E94F51AF5
:10409000BECF85E090E0909305028093040260918A
:1040A0001B0280911A020E94D7078FEF0E944915C8
:1040B00081E00E94811560911802809117020E9490
:1040C000D70785E090E00E94731AEE24E39410E095
:1040D00000E020E04091950660E085E090E00E94DD
:1040E000F51A8BE090E00E94731A8CE090E00E9439
:1040F000731A8DE090E00E94731A8EE090E00E94A7
:10410000731A20E04091950660E08FE090E00E94F5
:10411000F51A24CF82E090E023CF83E090E020CF17
:104120000E94EC1D0E94F01560911F0280911D02FB
:104130000E94D70760911902809117020E94D70749
:104140006091100280910E020E94D70760910D02CB
:1041500080910B020E94D70760911C0280911A0285
:104160000E94D70760910A02809108020E94D70737
:1041700080E00E94491580E00E948115EDE3F4E0A3
:10418000108211821282339684E0E736F807C1F775
:1041900080916403811108C040E65AEE60E070E04F
:1041A0008BE998E00C94970C0895EF920F931F936E
:1041B00080915403882361F086E090E00E94731A96
:1041C00085E090E00E94731A85E090E00E94731AE7
:1041D00081E090E00E94731A84E290E00E94731ADA
:1041E0002091390430913A048091540324303105F0
:1041F00099F5811133C010923C0410923B04109247
:104200003A04109239040E947F1A0E94AE1510924F
:10421000530310922507109226071092AD081092B2
:10422000AE081092C1081092C2081092B7081092FE
:10423000B8081092DF081092E0081092D50810928A
:10424000D60880913B0490913C04892B01F51F9185
:104250000F91EF900C9490208111D5CF10923C04D7
:1042600010923B0410923A041092390482E090E0DC
:104270000E94731AEE24E39410E000E020E04091E5
:10428000950660E082E090E00E94F51ABCCF1F9195
:104290000F91EF900895CF93DF93C82F811101C044
:1042A000C1E02091190830911A0880911708909167
:1042B000180805970397B8F487E090E0223031059D
:1042C00029F02430310531F486E090E0909318080D
:1042D000809317089091610A892F880F880F890FA2
:1042E0008D5F80930608232B89F1D09106088DE01D
:1042F00098E00E94210C672B682B692B39F56C2FF5
:1043000070E088E090E00E943F43623008F462E091
:104310006D1BCCE1C60FE0911708F091180831979A
:10432000E730F10598F48827E756FE4D8F4F0C943F
:104330005343A921E72126222622A021FF21C121C2
:1043400087E090E09093180880931708DF91CF9151
:10435000089561E0809109080E9483050E940E186B
:104360008091090890910A08019690930A08809319
:1043700009084C970CF460C010921A0810921908A2
:10438000E5CF61E0809109080E9483050E940E1824
:104390008091090890910A08019690930A088093E9
:1043A0000908209106082817190611F00CF044C0DE
:1043B00084E090E090931A088093190883E0C89FE6
:1043C000A0011124052E000C660B770B39C060E0AC
:1043D000809109080E9483050E940E1880910908A7
:1043E00090910A08019790930A08809309084C2F2E
:1043F000440F440F97FF21C00E94DC1DBDCF60E039
:10440000809109080E9483050E940E188091170868
:1044100090911808029711F4CC0FCC0F80910908E5
:1044200090910A08019790930A088093090897FFD2
:1044300003C00E94DC1DC2CF4C2F50E070E060E052
:104440008DE098E0DF91CF910C94970C8091190842
:1044500090911A080297029768F00E94DC1D8091E3
:104460001708909118080497E1F58091070881508A
:104470008093080880910808811136C082E090E09E
:1044800090931A088093190861E080E00E948305E8
:1044900061E08BE10E9483058091170890911808D4
:1044A000039751F48091080860E08F5F0E948305B4
:1044B00060E08AE10E9483050E940E18809108083E
:1044C0002091190830911A082330310509F452C09F
:1044D0008F5F80930808409108084C0F5527551F9F
:1044E00071CF10920808C6CFD09107089FEF9D0F9B
:1044F000891316C023E030E030931A08209319087E
:1045000061E00E94830561E08D2F0E94830560E0D9
:104510008EEF8D0F0E94830560E081E08D0FCACF82
:1045200061E00E9483059091080861E08BE1891B9E
:104530000E9483058091080860E081500E948305F5
:104540009091080860E08CE1891B0E9483058091AE
:10455000170890911808039709F0AECF80910808CA
:1045600060E08F5F0E9483059091080860E08AE117
:10457000891BA0CF8150ADCF8091CB08882361F1FA
:104580008091610A81500E944B2180913B0490915F
:104590003C04019761F580912507811114C0809139
:1045A000610A24E1829FC001112496958795969512
:1045B00087954EE150E0481B590B70E060E08DE1BB
:1045C00097E00E94970C8091610A823039F130F4B3
:1045D000813051F08AE009C081E0D5CF833001F10C
:1045E0008430C1F789E001C085E00E94191690E08F
:1045F00080E00E946B040E94420480915003882353
:1046000061F080912D06882331F081E090E00E94D6
:104610006B040E94420410925003089587E0E5CF96
:1046200088E0E3CF0E947C450F931F93CF93DF93E5
:10463000EC0188819981009759F02A813B812617E6
:10464000370730F081E0DF91CF911F910F910895EE
:104650008B016F5F7F4F0E949B44009759F09983B5
:1046600088831B830A832C813D81232B59F7FC010E
:104670001082E8CF80E0E7CFCF93DF93EC01888111
:104680009981009711F00E941244198218821D82AC
:104690001C821B821A82DF91CF910895EF92FF92C4
:1046A0000F931F93CF93DF93EC01FB01E080F18028
:1046B000E114F10411F10481158101151105A9F02E
:1046C0008C819D81080F191FB801CE010E9414230F
:1046D000882399F0288139818C819D81B701820FCF
:1046E000931F0E948A451D830C83CE01DF91CF91D9
:1046F0001F910F91FF90EF900895CE010E943C23EF
:10470000F4CFEF92FF920F931F93CF93DF93EC01BF
:104710007B018A01BA010E94142381110BC0CE01D2
:104720000E943C23CE01DF91CF911F910F91FF900A
:10473000EF9008951D830C83B701888199810E94B1
:104740008A45F0CFEF92FF920F931F93CF93DF93A1
:10475000CDB7DEB762970FB6F894DEBF0FBECDBF00
:104760008C01CB01F8011182108213821282158212
:1047700014824AE09E012F5F3F4F7901B9010E94E8
:104780008142F70101900020E9F73197AF014E19FE
:104790005F09B701C8010E94812362960FB6F894A1
:1047A000DEBF0FBECDBFDF91CF911F910F91FF9064
:1047B000EF900895EF92FF920F931F93CF93DF93A3
:1047C000CDB7DEB761970FB6F894DEBF0FBECDBF91
:1047D0008C01CB01F80111821082138212821582A2
:1047E00014824AE09E012F5F3F4F7901B9010E9478
:1047F0008C42F70101900020E9F73197AF014E1983
:104800005F09B701C8010E94812361960FB6F89431
:10481000DEBF0FBECDBFDF91CF911F910F91FF90F3
:10482000EF900895FB01DC0111961C921E921396E5
:104830001C921E92129715961C921E921497861720
:10484000970749F0608171816115710521F04481FC
:1048500055810C9481230895FC01808191810097FA
:1048600011F00C9412440895CF93DF93EC010E9451
:104870008E17CE01DF91CF910C941244EF92FF92EC
:104880000F931F93CF93DF93EC018B011982188252
:104890001B821A821D821C82CB010E9478427C01FD
:1048A000BC01CE010E941423811109C0CE01DF9109
:1048B000CF911F910F91FF90EF900C943C23FD82BC
:1048C000EC82B80188819981DF91CF911F910F917E
:1048D000FF90EF900C947142EF920F931F93CF9340
:1048E000DF93CDB7DEB762970FB6F894DEBF0FBE89
:1048F000CDBF80910402909105028130910579F03D
:10490000029709F441C262960FB6F894DEBF0FBE5B
:10491000CDBFDF91CF911F910F91EF9008958091BE
:104920000202909103028330910509F4DBC008F084
:1049300050C08130910509F4EAC1029721F78091B6
:104940006403882301F38FEF99E00E94AD0A882366
:1049500009F479C1009162031091630380915E03B1
:10496000882309F463C1045F1140B80190E080E03E
:104970000E94E10520915A0330915B032617370707
:1049800009F037C1809158039091590390935D03CA
:1049900080935C0360915C0370915D0390E080E024
:1049A0000E94940600915F031091600360177107E5
:1049B0000CF426C160915C0370915D036150710934
:1049C00070935D0360935C0390E080E00E94940626
:1049D000EDCF8430910549F1059709F094CF80918E
:1049E0006403882309F48FCF8FEF99E00E94AD0A0A
:1049F000882309F488CF6091610381E06827609380
:104A0000610380915F03909160031816190634F4D6
:104A100080916203909163030E947C196DE376E0BC
:104A2000CE0101960E943E2447C08FEF99E00E947C
:104A3000AD0A882381F0809197068A3B41F48091EA
:104A400096068093970680E00E94F11B5CCF8093CE
:104A500096068AEBF6CF909115098091100998136C
:104A600052CF8091530A813061F50E94421C6091BF
:104A70009706062E000C770BCE0101960E94A2230A
:104A80006AE276E0CE010D960E943E24BE01635F8D
:104A90007F4FCE0107960E941224BE016F5F7F4FA9
:104AA000CE0107960E944E23CE0107960E942C2429
:104AB000CE010D960E942C24CE0101960E942C243A
:104AC00022CF8F3F09F01FCF0E94211C60919706D3
:104AD000062E000C770BCE0101960E94A22367E1FF
:104AE00076E0D0CF8FEF99E00E94AD0A882349F09D
:104AF00080915E0391E0892780935E0362E076E017
:104B00008FCF90911509809110099813FCCE809158
:104B1000530A8130B1F580912102803670F184E62C
:104B20008093210287E090E00E94731AEE24E394C0
:104B300010E000E020E04091950660E087E090E022
:104B40000E94F51A8091210226E4829FC00111245F
:104B500064E670E00E943F436654609395060E94AD
:104B6000E51960919506062E000C770BCE01019693
:104B70000E94A2236EEE75E085CF8B5F80932102A9
:104B8000E1CF8F3F09F0BFCE80912102853068F5DB
:104B90001092210287E090E00E94731AEE24E394C1
:104BA00010E000E020E04091970660E087E090E0B0
:104BB0000E94F51A8091210226E4829FC0011124EF
:104BC00064E670E00E943F436654609395060E943D
:104BD000E51960919506062E000C770BCE01019623
:104BE0000E94A2236AED75E04DCF8550809321028B
:104BF000E1CF6150710970935D0360935C03CACE8D
:104C00008B010C501E4F0E944D1D109363030093A7
:104C100062030E946C1D6091620370916303CE0178
:104C200001960E94DA236CEC75E02CCF015011093B
:104C3000043F81E0180738F700915F03109160038B
:104C40000D501E4FE0CF8BEE98E00E94AD0A8823F6
:104C500009F459CE609162037091630300915F0380
:104C60001091600380915E03882309F444C0645F5F
:104C7000714090E080E00E94E1052091580330915E
:104C8000590326173707D1F410925D0310925C0385
:104C900060915C0370915D0390E080E00E94940657
:104CA0006017710794F060915C0370915D036F5F12
:104CB0007F4F70935D0360935C03EECF6F5F7F4F18
:104CC00070935D0360935C03E3CF8B010C501E4F28
:104CD0000E944D1D10936303009362030E946C1D9C
:104CE0006091620370916303CE0101960E94DA2302
:104CF0006EEB75E0C7CE6F5F7F4F0D501E4F0617EE
:104D0000170710F08B01E4CF04EF11E0E1CF8FEF34
:104D100099E00E94AD0A882371F0809164038111AB
:104D200005C00E946C1D63EB75E07ACE0E944D1D9C
:104D300068EA75E075CE9091150980911009981375
:104D4000E2CD8091530A813071F40E94C11B6091C1
:104D50009406062E000C770BCE0101960E94A2232A
:104D600066E975E08FCE8F3F09F0CDCD0E94921B92
:104D700060919406062E000C770BCE0101960E94DE
:104D8000A22364E875E07ECE809102029091030236
:104D90008430910509F49AC08530910551F103974B
:104DA00009F0B1CD8FEF99E00E94AD0A882309F494
:104DB0000EC18091580A882309F4F3C01092580A52
:104DC0008AE190E00E94731A8BE190E00E94731ACE
:104DD000EE24E39410E000E020E04091950660E0CE
:104DE0008BE190E00E94F51A8091580A0E94C71A40
:104DF0008ACD8FEF99E00E94AD0A882389F18091D6
:104E0000560A8823B9F01092560A83E190E00E9476
:104E1000731A84E190E00E94731AEE24E39410E088
:104E200000E020E04091950660E084E190E00E947F
:104E3000F51A69CD81E08093560A83E190E00E94E3
:104E4000731A84E190E00E94731AEE24E39410E058
:104E500000E020E04091950660E083E190E0E7CF3C
:104E60008BEE98E00E94AD0A882309F44CCD809126
:104E70002D068823A9F010922D0685E190E00E946E
:104E8000731A86E190E00E94731AEE24E39410E016
:104E900000E020E04091950660E086E190E0C7CF19
:104EA00081E080932D0685E190E00E94731A86E1EF
:104EB00090E00E94731AEE24E39410E000E020E0FA
:104EC0004091950660E085E190E0B1CF8FEF99E0E9
:104ED0000E94AD0A882379F18091540A8823A9F0B1
:104EE0001092540A8CE190E00E94731A8DE190E0D8
:104EF0000E94731AEE24E39410E000E020E0409159
:104F0000950660E08DE190E092CF81E08093540AB5
:104F10008CE190E00E94731A8DE190E00E94731A78
:104F2000EE24E39410E000E020E04091950660E07C
:104F30008CE190E07CCF8BEE98E00E94AD0A882354
:104F400009F4E1CC8091550A8823A9F01092550A02
:104F50008EE190E00E94731A8FE190E00E94731A34
:104F6000EE24E39410E000E020E04091950660E03C
:104F70008FE190E05CCF81E08093550A8EE190E074
:104F80000E94731A8FE190E00E94731AEE24E3945A
:104F900010E000E020E04091950660E08EE190E0B6
:104FA00046CF81E08093580A8AE190E00E94731A0C
:104FB0008BE190E00E94731AEE24E39410E000E08D
:104FC00020E04091950660E08AE190E00BCF8BEE07
:104FD00098E00E94AD0A882309F495CC87E090E020
:104FE0000E94731AEE24E39410E000E020E0409168
:104FF000950660E087E090E00E94F51A80915A0AD9
:105000008130E1F08330F1F183E080935A0A82E24B
:1050100090E00E94731A80E290E00E94731A81E28D
:1050200090E00E94731AEE24E39410E000E020E088
:105030004091950660E081E290E0F9CE82E08093B5
:105040005A0A82E290E00E94731A80E290E00E9485
:10505000731A81E290E00E94731AEE24E39410E048
:1050600000E020E04091950660E082E290E00E943E
:10507000F51A4AEF50E060E070E084E49AE00E94A4
:10508000970C41CC81E080935A0A82E290E00E9422
:10509000731A80E290E00E94731A81E290E00E940D
:1050A000731AEE24E39410E000E020E040919506AE
:1050B00060E080E290E0DBCF85ED8093BC008091E2
:1050C000AA049091AB04A091AC04B091AD040796F2
:1050D000A11DB11D23E0B695A795979587952A95B3
:1050E000D1F72091BC0024FD03C01092A8040895BC
:1050F0004091AA045091AB046091AC047091AD044E
:10510000452B462B472B69F30097A105B10541F0CC
:105110002AE22A95F1F700C00197A109B109E1CF70
:105120008091A9040C94370DBF92CF92DF92EF9239
:10513000FF920F931F93CF93DF9300D000D0CDB792
:10514000DEB79C01255231093093600320935F0341
:105150002115310509F433C137FF12C010926003E5
:1051600010925F0381E0809335046DE473E0CE011B
:1051700001960E943E24CE0101960E942C241FC15C
:105180004091060250910702BA0165527109261733
:1051900037070CF024C14817590708F420C184EFE1
:1051A00091E090936303809362030E9464096B0112
:1051B0007C010E94194220E031E040E050E00E9472
:1051C000CC429B01AC012C0D3D1D4E1D5F1D65E9C0
:1051D00079EE81ED9BE50E942F43292F3327442749
:1051E0005527262737274827592765E979EE81ED86
:1051F0009BE50E942F439B01AC01E7EC2E27E1E0E9
:105200003E27E1E14E27E3E55E2769EB70E98AE698
:1052100098E20E942F43DC01CB0127E5822723E798
:1052200092272AE2A2272AEAB2279C01AD016DE06B
:1052300056954795379527956A95D1F728273927A9
:105240004A275B2765E979EE81ED9BE50E942F43B4
:105250008B019C01EFE03695279517950795EA9508
:10526000D1F7AB01BC01402751276227732700917A
:105270005F03109160036801012E000CEE08FF0827
:1052800084E090E0A0E0B0E08C159D05AE05BF0580
:1052900040F432E0880F991FAA1FBB1F3A95D1F73F
:1052A000F3CF0197A109B109C12CD12C7601009748
:1052B000A105B10551F0B695A79597958795EFEFA4
:1052C000CE1ADE0AEE0AFE0AF2CFF694E794D794DD
:1052D000C794C0927004D0927104E0927204F0926C
:1052E000730481E090E002C0880F991FCA94E2F72E
:1052F0000197092E000CAA0BBB0B809374049093AA
:105300007504A0937604B093770440937804509387
:10531000790460937A0470937B0410925B0310927B
:105320005A031092590310925803F12CE12CBB241C
:10533000B394680121E0C21AD108E016F1068CF599
:10534000609158037091590390E080E00E949406A8
:10535000601771075CF060915803709159036F5F9B
:105360007F4F7093590360935803EECFBB2041F0F9
:10537000809158039091590390935B0380935A0353
:10538000EC14FD0449F08091580390915903019663
:1053900090935903809358038FEFE81AF80AB12CC1
:1053A000CCCF60916203709163036552710990E004
:1053B00080E00E94E10570935D0360935C03269694
:1053C0000FB6F894DEBF0FBECDBFDF91CF911F9116
:1053D0000F91FF90EF90DF90CF90BF9008951092C3
:1053E000600310925F0381E08093360468EF72E0FF
:1053F000BECEFF920F931F93CF93DF93EC01F62E57
:1054000008811981C8010E94B642F81621F06F2D5B
:10541000C8010E94BE42CE01DF91CF911F910F9132
:10542000FF9008950F931F93CF93DF931F921F92C6
:10543000CDB7DEB78C011A821982FC016081CE01E2
:1054400001960E94F92981E090E09A838983F8010E
:105450006181CE0101960E94F929C8010F900F9039
:10546000DF91CF911F910F910895EF92FF920F93CB
:105470001F93CF93DF93CDB7DEB762970FB6F89443
:10548000DEBF0FBECDBF0091390410913A04011563
:10549000110519F00530110591F48BEE98E00E948A
:1054A000AD0A882361F090919F0980919A09981321
:1054B00013C090915A0980915509981387C062963C
:1054C0000FB6F894DEBF0FBECDBFDF91CF911F9115
:1054D0000F91FF90EF9008950530110509F47AC0FF
:1054E00090915A0980915509981749F305E010E009
:1054F00010933A040093390440E951E060E070E011
:1055000085EA98E00E94970C65E070E0CE01019674
:105510000E94A22369EB74E0CE010D960E943E2406
:10552000BE01635F7F4FCE0107960E941224BE0129
:105530006F5F7F4FCE0107960E944E23CE010796E4
:105540000E942C24CE010D960E942C24CE0101969F
:105550000E942C2481E090E0909305028093040245
:105560001093030200930202EE24E39410E000E0A3
:1055700020E04091950660E080E190E00E94F51AFD
:1055800080913B0490913C04892BE9F40E94902087
:1055900060911C0280911A020E94D70780E00E944D
:1055A000491580E00E9481156091190280911702CF
:1055B0000E94D7071092A3081092A40880910202BB
:1055C0000E94FD1D7CCF0E94EC1DF8CF0530110517
:1055D00009F075CFE0900402F090050281E0E81632
:1055E000F10409F06CCF0091020210910302053022
:1055F000110509F064CF10923A0410923904109208
:10560000AD081092AE0870E060E0CE0101960E94F5
:10561000A22369EA74E0CE010D960E943E24BE01E9
:10562000635F7F4FCE0107960E941224BE016F5F19
:105630007F4FCE0107960E944E23CE0107960E940F
:105640002C24CE010D960E942C24CE0101960E949E
:105650002C24F0920502E0920402109303020093BE
:10566000020280913B0490913C04892B71F587E004
:1056700090E098878F83CE0107960E94122A84E5D6
:10568000E82E8AE0F82E02E010E01A830983F70181
:1056900061917F01CE0101960E94F9290F5F1F4F92
:1056A0000930110591F78AE090E00E94731AEE2408
:1056B000E39410E000E020E04091950660E08AE08D
:1056C00090E00E94F51A0E94902080E190E00E94F4
:1056D000731AEE24E39410E000E020E04091950678
:1056E00060E080E190E00E94F51A10923A04109276
:1056F000390400913B0410913C040130110509F07C
:10570000DECE0E94EC1D10920A0810920908109239
:10571000080810931A08009319081092150810929F
:10572000160885E090E09093180880931708C7CE7C
:10573000CF92DF92EF92FF920F931F93CF93DF935D
:10574000CDB7DEB7A0970FB6F894DEBF0FBECDBFC2
:1057500080913704909138040197039710F40E94C8
:10576000621C8CEA96E00E94670C882309F45FC0F3
:105770008091AA0681115BC0809137049091380412
:105780000197039708F053C040ED57E060E070E0E8
:105790008CEA96E00E94970C8091620390916303DB
:1057A000FE01339622E1DF011D922A95E9F727E0F9
:1057B00029839B838A8380E18D83CE0101960E9499
:1057C000171880916403882391F1809161038111FE
:1057D0002EC08091510381112AC088E996E00E9471
:1057E000670C882321F18091370490913804019748
:1057F000039708F093C02091620330916303809176
:105800000107909102072817390721F480910607B4
:10581000811105C080910707882309F47FC040E407
:105820005FE160E070E088E996E00E94970C82EA10
:1058300096E00E94670C882371F01092AA061092DD
:10584000AB0640ED57E060E070E08CEA96E00E9425
:10585000970C0E946C1D8FEF99E00E94B70A8AEBAB
:1058600099E00E94B70A80E399E00E94B70A85E7B1
:1058700099E00E94B70A8BEE98E00E94B70A8091E7
:105880004E0A880F880F80934E0A87E00E94AE0769
:10589000892B29F080914E0A826080934E0A86E01F
:1058A0000E94AE07892B29F080914E0A8160809377
:1058B0004E0A20914E0A2F7020934E0A422F50E03C
:1058C000FA01EF52FD4F80818823B9F080914F0A91
:1058D0009091500A64E0880F991F6A95E1F7822B36
:1058E000952B9093500A80934F0A99273FEF8B3264
:1058F000910521F031E0479709F030E01092530A0A
:105900008091510A8317C1F13093510A273059F51C
:105910008091520A882369F18FEF2CC01092B4064F
:105920001092B5061092A0061092A1060E944D1D7D
:105930008091620390916303019620915F033091FF
:1059400060032D503E4F2817390710F484EF91E083
:10595000909363038093620344EF51E060E070E052
:1059600082EA96E062CF2B3039F48091520A882384
:1059700099F281E08093530A8091530A882371F051
:1059800020913B0430913C042130310509F412C1CF
:1059900008F473C02230310509F4EBC084E49AE0C6
:1059A0000E94670C882309F4B3C10E94AE15809150
:1059B0003B0490913C048130910509F466C208F4DF
:1059C000BAC1029709F4F0C10091390410913A0468
:1059D0000230110509F49CC30530110509F495C383
:1059E0000130110521F40E94D5200E94EC1D83ECAA
:1059F00098E00E94670C882309F47CC41091550339
:105A000011111AC00E94DC1D10920A081092090898
:105A10001092080881E090E090931A08809319088A
:105A200010921508109216080E940E1883E090E05C
:105A300090931808809317088091080260910902DA
:105A400010FD60910A020E94D7071C3008F029C59A
:105A5000E12FF0E06FEF8827EF5CF24D8F4F0C9451
:105A600053436331B231B431B631B831DF3103322F
:105A700027324B324D3263314F322091390430910D
:105A80003A042230310580F02530310509F086CF07
:105A90000E944B1E8091390490913A04059709F0B9
:105AA0007DCF0E946C247ACF90916403992309F4EE
:105AB0003FC0813061F50E94C11B60919406062EA3
:105AC000000C770BCE0101960E94A2236CE675E0D4
:105AD000CE014B960E943E24BE01655E7F4FCE01F3
