:100000000C9426040C9457040C9457040C94570435
:100010000C9457040C9457040C9457040C945704F4
:100020000C9457040C9457040C9457040C945704E4
:100030000C9457040C9457040C9457040C945704D4
:100040000C9457040C9457040C9457040C945704C4
:100050000C9457040C9457040C9457040C948E3051
:100060000C9457040C9462310C9438310C9457045E
:100070000C9457040C9457040C9457040C94570494
:100080000C9457040C9457040C9457040C94570484
:100090000C9457040C9457040C9457040C94983106
:1000A0000C9457040C9457040C9457040C94570464
:1000B0000C9457040C9457040C9457040C94570454
:1000C0000C9457040C9457040C9457040C94570444
:1000D0000C9457040C9457040C9402310C94D830AF
:1000E0000C9457040C94D8130C94FD130C94CE3F2D
:1000F0000C94BC130C940D090C94E2050C94A2050D
:100100000C9415090C9408140C94E5070C94ED203C
:100110000C9452300C94E01A0C9451140C9429094C
:100120000C9407080C94B1050C946A300C9471146B
:100130000C94400F0C94991A0C9483140C94C205DF
:100140000C94C7180C94C90A0C9459040C94BC055F
:100150000C94AD180C941D180C94BC2F0C94A90E83
:100160000C94C8130C94F9070C940B300C949C0558
:100170000C94BA050C94A3140C94D20E0C94582130
:100180000C94D4070C94F81A0C944E140C94D807C1
:100190000C941F140C94E3290C948B050C94CC182C
:1001A0000C94A80E0C94DE130C94C6070C949605C0
:1001B0000C949D180C946A090C9495140C94E20804
:1001C0000C9457180C94D0070C9424330C94FF0E05
:1001D0000C9498050C941F090C94DC090C94AE0542
:1001E0000C94FD070C94DB070C9409300C94330934
:1001F0000C94B8050C94B3050C94090A0C94F213F2
:100200000C949C140C942C0A0C94A5050C948E054B
:100210000C9474090C946E300C9494050C94AA05FB
:100220000C94BA1A0C9469140C946A180C94AC05CA
:100230000C943A0A0C94EF070C9492050C94BF05A9
:100240000C94E1070C94FB080C9456090C942B14A5
:100250000C9468300C94E3050C9426300C940B0835
:100260000C94B80E0C944C090C94F3070C94CC0726
:100270000C94CE130C949E050C94F1080C94B012BF
:100280000C94A21A0C94A8050C9411100C948E18BE
:100290000C9413140C9442090C9490050C943C306B
:1002A0000C940D300C9406080C94CB0E0C946D1429
:1002B0000C94DA080C9405090C94E7080C946C3043
:1002C0000C94A0050C948C140C941F1B0C946009C6
:1002D0000C9401080C94C2130C948C050C94180A0D
:1002E0000C947C0A0C94EB07DDDFE9EFF3F6F9FBE5
:1002F000FDFE000102030405060708090A32002D6D
:10030000280023001E0000190000140000000F0048
:10031000000000000A00000000000000000005646A
:100320005F5A55504B46413C3732002D2800230080
:100330001E0000190000140000000F000000000063
:100340000A0000000000000000000532373C414672
:100350004B50555A5F645761726E696E673A20431D
:10036000616C63756C61746564206D75736963207D
:10037000636F756E742065786365656473206D6165
:1003800078696D756D20706F737369626C653B2061
:100390005344206361726420636F72727570746974
:1003A0006F6E206C696B656C7921005761726E69A4
:1003B0006E673A20547261636B20636F756E7420B0
:1003C000646F6573206E6F74206D6174636820665E
:1003D00069726D776172652120506C65617365206B
:1003E00075706461746520746865206D6963726FEF
:1003F0005344206361726420736F756E6420656678
:1004000066656374732E00000000000000000000A9
:1004100000000001010101010101010202020202CA
:100420000203030303040404040505050506060688
:100430000707070808080909090A0A0B0B0B0C0C27
:100440000D0D0E0E0F0F10101111121213131414A4
:1004500015151617171818191A1A1B1C1C1D1E1E05
:100460001F202021222323242526262728292A2A43
:100470002B2C2D2E2F2F3031323334353637383860
:10048000393A3B3C3D3E3F40414243444546474963
:100490004A4B4C4D4E4F5051525455565758595B3C
:1004A0005C5D5E5F61626364666768696B6C6D6FFB
:1004B00070717374757778797B7C7E7F8082838599
:1004C0008688898B8C8E8F9192949597989A9B9D14
:1004D0009EA0A2A3A5A6A8AAABADAFB0B2B4B5B773
:1004E000B9BABCBEC0C1C3C5C7C8CACCCECFD1D3B0
:1004F000D5D7D9DADCDEE0E2E4E6E8E9EBEDEFF1CE
:10050000F3F5F7F9FBFDFF64657669636545786986
:10051000744D656E757C00646576696365456E74BF
:1005200065724D656E757C00446576696365204F24
:100530006E2C2053797374656D20566F6C2D2000DE
:10054000446576696365204F6E2C2053797374651A
:100550006D20566F6C2B20004572726F722C2053E9
:10056000797374656D20566F6C2D20004572726F23
:10057000722C2053797374656D20566F6C2B20009C
:10058000446576696365204F66662C2053797374E1
:10059000656D20566F6C2D2000446576696365207B
:1005A0004F66662C2053797374656D20566F6C2BE3
:1005B0002000446576696365204F66662C204D7582
:1005C00073696320566F6C2D2000446576696365FE
:1005D000204F66662C204D7573696320566F6C2B17
:1005E00020004D656E752C204D7573696320566F24
:1005F0006C2D20004D656E752C204D757369632040
:10060000566F6C2B200053746F70204D75736963A7
:1006100000506C6179204D75736963004E65787484
:1006200020547261636B3A20230050726576205427
:100630007261636B3A2023004D656E752C20456610
:10064000666563747320566F6C2D20004D656E7562
:100650002C204566666563747320566F6C2B2000F2
:10066000546F67676C65204D7573696320536875B7
:1006700066666C65004D656E752C205379737465E4
:100680006D20566F6C2D20004D656E752C205379B2
:100690007374656D20566F6C2B2000546F67676C08
:1006A00065204D75736963204C6F6F70004E6F202D
:1006B000417564696F2044657669636500557369A7
:1006C0006E672057415620547269676765720057FC
:1006D00061726E696E673A205253505F535953549A
:1006E000454D5F494E464F206E6F742072656365BD
:1006F0006976656421005573696E672047505374AD
:10070000617220417564696F2056657273696F6EFE
:100710003A2000CED5DFE5E9ECEFF1F3F4F6F7F897
:10072000F9FAFBFCFDFEFF00000021002400270079
:100730002A002D00300033000101000004010701F0
:100740000A01000020002300260029002C002F00B1
:1007500032000001000003010601090100000A0B3C
:1007600002090C0D0E080703040100000000000040
:100770000000000000000000000000000000000079
:100780000000000000000000121110000000000036
:100790000000000000000000000000000000000059
:1007A0000000010210202008081020401020408086
:1007B0000201020108040201010204081020408025
:1007C00080402010080402018004020180402010B3
:1007D00008040201080402010102040810204080FC
:1007E000010204081020408000002200250028009B
:1007F0002B002E0031003400020100000501080129
:100800000B01050505050705080808080202020294
:100810000A0A08080404040401010101010101019C
:100820000303030303030303040707070C0C0C0C67
:100830000C0C0C0C02020202060606060606060650
:100840000B0B0B0B0B0B0B0B2433CE3F11241FBEDA
:10085000CFEFD1E2DEBFCDBF00E00CBF13E0A0E0E0
:10086000B2E0EEE5F8E800E00BBF02C007900D92A1
:10087000A031B107D9F72AE0A0E1B3E001C01D9291
:10088000A036B207E1F714E0C5E2D4E000E006C00C
:1008900021970109802FFE010E94E441C432D10753
:1008A00080E00807A9F70E942E380C941D440C9490
:1008B000000083B7817F83BF83B7816083BF83B725
:1008C000816083BF889583B78E7F83BF83B78E7F18
:1008D00083BF0895FC01E60FF11D2181628170E064
:1008E00090E080E0CB0177276627722B2081622B76
:1008F0002381922B08954F925F926F927F928F92F5
:100900009F92AF92BF92EF92FF92CF93DF93FC0141
:1009100024A535A52130310509F47696828193818D
:10092000029708F4D0C06685A3858185928580846E
:10093000462F50E0248530E0E585F0E06A135FC083
:100940000396480F591FDA016C91280F391FE901EE
:10095000F880E80FF91FC081882009F445C0912C68
:10096000B12CA12C70E0762F6627072E000C880B87
:10097000990BA50194010E94834139015524442417
:100980006F2D70E0762F6627072E000C880B990BD1
:10099000A50194010E948341542F432F322F222717
:1009A000422A532A642A752A6C2F70E0762F662714
:1009B000072E000C880B990BA50194010E9483411E
:1009C000D301C201822B932BA42B6A2F792FDF91A5
:1009D000CF91FF90EF90BF90AF909F908F907F90BE
:1009E0006F905F904F9008958F2D90E0B0E0A0E061
:1009F000BA2FA92F982F8827A62B8C2BE6CF0496E9
:100A0000480F591FEA016881A80FB92FB11DFC904A
:100A1000280F391FD901CC91E80FF91FE0808820F9
:100A200009F447C0912CB12CA12C70E0762F6627D9
:100A3000072E000C880B990BA50194010E9483419D
:100A4000722E6624552444246F2D70E0762F66277D
:100A5000072E000C880B990BA50194010E9483417D
:100A6000A90133272227422A532A642A6E2D70E0D7
:100A7000762F6627072E000C880B990BA501940191
:100A80000E948341422A532A642A6C2F70E0762FF9
:100A90006627072E000C880B990BA50194010E9474
:100AA0008341B42FA32F922F882784299529A62923
:100AB0008CCF8F2D90E0B0E0A0E0DC019927882753
:100AC0008E299C2B82CF60E070E080E080CF262FC3
:100AD0009FEF980F963108F048C0E92FF0E0882783
:100AE000EB58FA4F8F4F0C94E441C205B805BA0594
:100AF000BC058B05BF058E059005920594059605EE
:100B000098059C059E05A005A205A505A805AA05B2
:100B1000AC05AE05B10560E07FEF0CC065E0FCCF31
:100B20006AE0FACF6FE0F8CF64E1F6CF60E2F4CF8D
:100B300070E86BE2822F089560E4EECF60E5ECCFC1
:100B400060E6EACF7FEF60E6F5CF78E760E7F2CFC7
:100B500060E8E2CF61E9E0CF60EADECF78EC6AEAF4
:100B6000E9CF64EBD9CF70E0E5CF60E020E0D4CFEF
:100B700064E2D2CF64EFD0CF70E864EFDBCF70ECEB
:100B800060E0D8CF64E6953138F6E92FF0E08827A9
:100B9000E353FA4F8F4F0C94E441B3058C058C0559
:100BA000B3058C05B3058C058C058C058C058C056F
:100BB000B3058C058C058C05B305B3058C058C0538
:100BC0008C05B3050895089587FF2FC01092C307C1
:100BD0001092C2078091C507882331F18091C40724
:100BE000E091C207F091C307E052F94F662361F12B
:100BF000882341F1848D87FD17C0E82FE695E6959F
:100C0000E695F0E0EC55F84F282F277081E090E052
:100C1000A0E0B0E004C0880F991FAA1FBB1F2A954F
:100C2000D2F72081822B808308958C313CF08BE1B8
:100C300090E09093C3078093C207CCCF082E000C9E
:100C4000990BF7CF8081D7CF8823D1F0248D27FD52
:100C5000EBCFE22FE695E695E695F0E0EC55F84F00
:100C6000277081E090E0A0E0B0E004C0880F991FF9
:100C7000AA1FBB1F2A95D2F7809590818923D3CFD5
:100C80002081E5CF4F925F926F927F928F929F92D9
:100C9000AF92BF92CF92DF92EF92FF920F931F938A
:100CA000CF93DF9300D01F921F92CDB7DEB7209174
:100CB000A2032D834B015C0104C0B694A7949794C2
:100CC00087942A95D2F74090A6035090A70360908E
:100CD000A8037090A9036B017C01C420D520E620F5
:100CE000F7208091AA039091AB03A091AC03B0913F
:100CF000AD0389839A83AB83BC83F0E0E0E0298174
:100D00003A814B815C81282539254A255B2565EB95
:100D100077E782E99CE20E94B441DC01CB018B5F62
:100D2000944BA94AB3458C019D014CE1369527951A
:100D3000179507954A95D1F70C5F1F4F9C01AD01A0
:100D400004C056954795379527950A95D2F72827D9
:100D500039274A275B2769ED72EF8EE890E10E9400
:100D6000B4418B019C0156E136952795179507955F
:100D70005A95D1F7DC01CB0180279127A227B32711
:100D800084219521A621B7218C259D25AE25BF253F
:100D9000319675016401E430F10521F50D8004C040
:100DA000880F991FAA1FBB1F0A94D2F7BC01CD015F
:100DB000682979298A299B290F900F900F900F900D
:100DC0000F90DF91CF911F910F91FF90EF90DF90E7
:100DD000CF90BF90AF909F908F907F906F905F90DB
:100DE0004F9008954C015D018ACF4F925F926F92B0
:100DF0007F928F929F92AF92BF92CF92DF92EF92AB
:100E0000FF920F931F93CF93DF9300D01F921F92F7
:100E1000CDB7DEB72091A2032D834B015C0104C046
:100E2000B694A794979487942A95D2F74090A603F6
:100E30005090A7036090A8037090A9036B017C01F8
:100E4000C420D520E620F7208091AA039091AB031F
:100E5000A091AC03B091AD0389839A83AB83BC832B
:100E6000F0E0E0E029813A814B815C812C253D2531
:100E70004E255F2565EB77E782E99CE20E94B4414D
:100E8000DC01CB018B5F944BA94AB3458C019D01DA
:100E90004CE136952795179507954A95D1F70C5F44
:100EA0001F4F9C01AD0104C0569547953795279576
:100EB0000A95D2F7282739274A275B2769ED72EF71
:100EC0008EE890E10E94B4418B019C0156E1369579
:100ED0002795179507955A95D1F7DC01CB01802707
:100EE0009127A227B32784219521A621B721BC01F0
:100EF000CD01682579258A259B2531964601570124
:100F0000E430F10511F50D8004C0CC0CDD1CEE1CA5
:100F1000FF1C0A94D2F76C297D298E299F290F90F6
:100F20000F900F900F900F90DF91CF911F910F9125
:100F3000FF90EF90DF90CF90BF90AF909F908F90F9
:100F40007F906F905F904F9008956B017C018ACFE6
:100F50008150823108F05AC0E82FF0E08827EC5425
:100F6000F84F8F4F0C94E441D407D807C607CC073D
:100F7000D0070608DB07E107E507EB07EF07F307F4
:100F8000F907FD070608010807080B088091800093
:100F90008F77809380000895809180008F7DF9CFB6
:100FA00080918000877FF5CF84B58F7784BD0895C9
:100FB00084B58F7DFBCF8091B0008F778093B00098
:100FC00008958091B0008F7DF9CF809190008F7748
:100FD000809390000895809190008F7DF9CF80914B
:100FE0009000877FF5CF8091A0008F778093A0003D
:100FF00008958091A0008F7DF9CF8091A000877F18
:10100000F5CF809120018F77809320010895809102
:1010100020018F7DF9CF80912001877FF5CFCF937D
:10102000DF93282F30E0F901E45AF84F8491F90159
:10103000EE55F84FD491F901EE5FF74FC491CC23F0
:10104000A1F081110E94A807EC2FF0E0EE0FFF1F26
:10105000EE5BF84FA591B491EC91ED2381E090E027
:1010600009F480E0DF91CF91089580E090E0FACF1D
:101070001F93CF93DF93282F30E0F901E45AF84F04
:101080008491F901EE55F84FD491F901EE5FF74FD5
:10109000C491CC23A9F0162F81110E94A807EC2F30
:1010A000F0E0EE0FFF1FE851F84FA591B4918FB714
:1010B000F894EC91111108C0D095DE23DC938FBF1A
:1010C000DF91CF911F910895DE2BF8CFCF93DF935F
:1010D00090E0FC01EE55F84F24918E5F974FFC0194
:1010E00084918823C9F090E0880F991FFC01E85D86
:1010F000F84FA591B491FC01E851F84FC591D491F6
:1011000061110DC09FB7F8948C91209582238C9328
:101110008881282328839FBFDF91CF910895623073
:1011200051F49FB7F8943C91822F809583238C9340
:10113000E8812E2BEFCF8FB7F894EC912E2B2C93C8
:101140008FBFEACF1F93CF93DF93182FEB0161E09E
:101150000E946608209739F460E0812FDF91CF91DB
:101160001F910C943808CF3FD10511F461E0F5CF01
:10117000E12FF0E0E45AF84FE491E150E23108F059
:10118000B3C0F0E08827E853F74F8F4F0C94E44149
:10119000DA08E208E708F108FB08740905090D09F7
:1011A00015091F092909330942094C09740956090F
:1011B00060096A0984B5806884BDC7BDDF91CF919D
:1011C0001F91089584B5806284BDC8BDF7CF80911A
:1011D0008000806880938000D0938900C09388004D
:1011E000EDCF80918000806280938000D0938B004F
:1011F000C0938A00E3CF8091800088608093800054
:10120000D0938D00C0938C00D9CF8091B0008068BE
:101210008093B000C093B300D1CF8091B0008062C2
:101220008093B000C093B400C9CF809190008068D3
:1012300080939000D0939900C0939800BFCF809185
:101240009000806280939000D0939B00C0939A009E
:10125000B5CF80919000886080939000D0939D00DE
:10126000C0939C00ABCF8091A00080688093A000C9
:101270008091A0008F7B8093A000D093A900C093A1
:10128000A8009CCF8091A00080628093A000D093A2
:10129000AB00C093AA0092CF8091A0008860809399
:1012A000A000D093AD00C093AC0088CF8091200106
:1012B000806880932001D0932901C09328017ECFBC
:1012C00080912001806280932001D0932B01C093F4
:1012D0002A0174CF80912001886080932001D093EF
:1012E0002D01C0932C016ACFC038D1050CF03ECF40
:1012F00033CF3FB7F89480919E0390919F03A091C4
:10130000A003B091A10326B5A89B05C02F3F19F0FB
:101310000196A11DB11D3FBFBA2FA92F982F882775
:10132000BC01CD01620F711D811D911D42E0660F50
:10133000771F881F991F4A95D1F708958F929F9222
:10134000AF92BF92CF92DF92EF92FF924B015C017E
:101350000E9479096B017C010E9479096C197D0951
:101360008E099F09683E734081059105A8F321E02D
:10137000821A9108A108B10888EEC80E83E0D81E31
:10138000E11CF11C81149104A104B10429F7FF9020
:10139000EF90DF90CF90BF90AF909F908F90089587
:1013A0002FB7F89460919A0370919B0380919C03EE
:1013B00090919D032FBF0895AF92BF92CF92DF927D
:1013C000EF92FF920F931F93CF93DF936C017B01FA
:1013D0008B01040F151FEB015E01AE18BF08C0178B
:1013E000D10759F06991D601ED91FC910190F081FE
:1013F000E02DC6011995892B79F7C501DF91CF91B1
:101400001F910F91FF90EF90DF90CF90BF90AF9022
:101410000895FC01538D448D252F30E0842F90E0FA
:10142000821B930B541710F0CF96089501970895DF
:10143000FC01918D828D981761F0A28DAE0FBF2FA8
:10144000B11D5D968C91928D9F5F9F73928F90E0FE
:1014500008958FEF9FEF0895FC01918D828D98176D
:1014600031F0828DE80FF11D858D90E008958FEFAA
:101470009FEF0895FC01918D228D892F90E0805C73
:101480009F4F821B91098F739927089584E094E000
:101490000E943A0A21E0892B09F420E0822F089566
:1014A00081EA94E00E943A0A21E0892B09F420E0C5
:1014B000822F0895FC01A48DA80FB92FB11DA35A46
:1014C000BF4F2C91848D90E001968F739927848F64
:1014D000A689B7892C93A089B1898C918370806487
:1014E0008C93938D848D981306C00288F389E02D28
:1014F00080818F7D80830895EF92FF920F931F93D9
:10150000CF93DF93EC0181E0888F9B8D8C8D9813B6
:101510001AC0E889F989808185FF15C09FB7F894C2
:10152000EE89FF896083E889F9898081837080640E
:1015300080839FBF81E090E0DF91CF911F910F9159
:10154000FF90EF900895F62E0B8D10E00F5F1F4F68
:101550000F731127E02E8C8D8E110CC00FB607FC77
:10156000FACFE889F989808185FFF5CFCE010E9405
:101570005A0AF1CFEB8DEC0FFD2FF11DE35AFF4F0F
:10158000F0829FB7F8940B8FEA89FB898081806293
:10159000CFCFCF93DF93EC01888D8823B9F0AA8950
:1015A000BB89E889F9898C9185FD03C0808186FD1E
:1015B0000DC00FB607FCF7CF8C9185FFF2CF80816D
:1015C00085FFEDCFCE010E945A0AE9CFDF91CF917E
:1015D000089580E090E0892B29F00E94500A811143
:1015E0000E94000080E090E0892B49F080E090E0CC
:1015F000892B29F00E94000081110E94000080E0E8
:1016000090E0892B49F080E090E0892B29F00E943E
:10161000000081110E94000080E090E0892B29F0F9
:101620000E94460A81110C9400000895FC0183A5D4
:10163000882329F081E022A595A1291380E008954F
:10164000CF92DF92EF92FF920F931F93CF93DF938E
:10165000EC018CA10E940F0821E0892B09F420E005
:101660002EA30E94D00968A379A38AA39BA3EEA10D
:101670002FA1E2132DC191E098A798A59923F1F02D
:1016800048A159A16AA17BA1088919892A893B89A6
:10169000DB01CA01801B910BA20BB30B8C019D01D6
:1016A000C880D980EA80FB80C016D106E206F30626
:1016B00028F4E9A7488B598B6A8B7B8BEFA31BA679
:1016C00029A58AA52817C1F088A199A1AAA1BBA123
:1016D0004C895D896E897F89841B950BA60BB70B9E
:1016E0004C815D816E817F81481759076A077B07AE
:1016F00018F42AA781E08BA71FA6CE010E94160B23
:101700008823B9F088A199A1AAA1BBA1488D598DC0
:101710006A8D7B8D841B950BA60BB70B4C855D8565
:101720006E857F8584179507A607B70708F4D6C08E
:1017300018AA88A91BA5811131C011112DC09AA525
:101740008DA1981741F1C88CD98CEA8CFB8C8C8DBB
:101750009D8DAE8DBF8D8C199D09AE09BF09488541
:1017600059856A857B85481759076A077B0708F4FE
:10177000B8C048A159A16AA17BA14C195D096E09A5
:101780007F0981E0CC84DD84EE84FF844C155D0507
:101790006E057F0508F480E08FA788ABCE010E941C
:1017A000160B8823B9F048A159A16AA17BA1888DA5
:1017B000998DAA8DBB8D481B590B6A0B7B0B81E061
:1017C000CC84DD84EE84FF844C155D056E057F05B9
:1017D00008F080E08EA71CA6112321F09AA58DA108
:1017E00098131DA68DA581111FC011111BC09AA5AC
:1017F0008DA1981378C048A159A16AA17BA1888DB9
:10180000998DAA8DBB8D481B590B6A0B7B0B81E010
:10181000C884D984EA84FB84C416D506E606F70694
:1018200008F080E08CA78DA7112391F0C8A0D9A063
:10183000EAA0FBA0CC8ADD8AEE8AFF8ACE010E9454
:10184000160B882309F451C0C88ED98EEA8EFB8E00
:10185000E9A8FAA8E114F10409F44CC0CE010E94F1
:10186000160B882309F446C08BAD9CADF701199582
:10187000EDA9FEA9309741F08CA5882329F0DE015F
:10188000DF968D919C911995EFA9F8AD309749F0AD
:101890008EA5882331F0DE01AF5BBF4F8D919C9107
:1018A0001995E9ADFAAD309749F08FA5882331F04D
:1018B000DE01AD5BBF4F8D919C9119958BA5DF919A
:1018C000CF911F910F91FF90EF90DF90CF900895EF
:1018D00018A6688B798B8A8B9B8BCFCE81E088ABE7
:1018E00028CF812F59CF812F9DCFCC8EDD8EEE8ECC
:1018F000FF8EAECFEBA9FCA9309709F4B9CF112325
:1019000009F4B6CF9AA58DA1981709F4B1CF8DAD82
:101910009EADADCF8F929F92AF92BF92CF92DF924A
:10192000EF92FF920F931F93CF93DF93FC012085DB
:10193000211110C060E070E0CB01DF91CF911F91C9
:101940000F91FF90EF90DF90CF90BF90AF909F905E
:101950008F900895EC010E94D00929852111EACFCA
:101960008C809D80AE80BF80088119812A813B8157
:101970006B017C01C818D908EA08FB08C016D1061B
:10198000E206F306B8F6080D191D2A1D3B1D680175
:101990007901C61AD70AE80AF90AC701B601CDCFFC
:1019A000CF92DF92EF92FF921F93CF93DF93FC01D0
:1019B000108511110AC010E0812FDF91CF911F9186
:1019C000FF90EF90DF90CF900895EC018185882300
:1019D00019F018861986F0CF0E94D009CC80DD80DE
:1019E000EE80FF806C197D098E099F09C880D9801F
:1019F000EA80FB806C157D058E059F0550F7DBCFD7
:101A0000CF93DF93EC01488359836A837B830E94E1
:101A1000D0096C837D838E839F8381E088871986BC
:101A2000DF91CF9108950F931F93CF93DF93EC0134
:101A30000E94D0098B019C018C819D81AE81BF8168
:101A4000488159816A817B81081B190B2A0B3B0B4A
:101A5000041715072607370738F4CE01DF91CF9119
:101A60001F910F910C94000D840F951FA61FB71F97
:101A70008C839D83AE83BF8381E088871986DF9145
:101A8000CF911F910F91089520916E03260F332758
:101A9000331F21323105ECF42091DA03FC0190E090
:101AA00080E0243069F082E00895A0916E032191D6
:101AB000AC01425B5C4FA40FB52FB11D2C93019676
:101AC000861798F380916E03680F60936E0380E031
:101AD000089581E008951092DA0381E08093D9039C
:101AE0001092B40361E084E10E94380861E085E16E
:101AF0000E943808E9EBF0E080818E7F808380814E
:101B00008D7F808388E48093B80085E48093BC0057
:101B100008951092B3031092B2031092E103109251
:101B200003040E946B0D82EE95E09093B1038093C5
:101B3000B00383EE95E09093AF038093AE030895D6
:101B4000CF93DF9391E090934D038823B9F0C09138
:101B5000B800D091BA008091BC008A7B8093BC0011
:101B600060E084E10E94380860E085E10E94380866
:101B70000E946B0DD093BA00C093B800DF91CF9153
:101B80000895CF92DF92EF92FF920F931F93CF931E
:101B9000DF93D091030481E0D13208F09CC0C09162
:101BA00002040E9479096B017C018091DA038111A2
:101BB0006CC082E08093DA0381E08093D9038FEFD9
:101BC0008093D8031092D703D093D603A2EEB3E04C
:101BD000E6EBF3E080E0D8138DC01092B50380915E
:101BE000B503CC0FC82BC093B5038091B4038130EB
:101BF00009F084C01092B4030E9479096B017C0142
:101C00008091B5038093BB008091DC039091DD034C
:101C1000A091DE03B091DF03892B8A2B8B2BA1F0DF
:101C20000E9479090091DC031091DD032091DE030D
:101C30003091DF036C197D098E099F09061717077C
:101C40002807390708F442C08091BC0083FDD8CF33
:101C500085EC8093BC000E9479096B017C01809126
:101C6000DA03823009F44CC08091D8038F3F09F425
:101C700069C08091D803803209F466C08091D8038E
:101C8000803309F463C084E026C08091DC03909126
:101C9000DD03A091DE03B091DF03892B8A2B8B2B10
:101CA00009F483CF0E9479090091DC031091DD03D0
:101CB0002091DE033091DF036C197D098E099F09A5
:101CC000061717072807390708F06FCF8091DB0345
:101CD0000E94A00D85E01092E1031092030410927F
:101CE000E003DF91CF911F910F91FF90EF90DF9074
:101CF000CF9008959D9191938F5F6DCF85EEA9CF81
:101D00008091DC039091DD03A091DE03B091DF03AD
:101D1000892B8A2B8B2B09F4A2CF0E947909009181
:101D2000DC031091DD032091DE033091DF036C1999
:101D30007D098E099F09061717072807390708F03C
:101D40008ECFC4CF80E0C7CF82E0C5CF83E0C3CFC2
:101D50000895E091B3038091B203E81730F4F0E006
:101D6000E35DFC4F808190E008958FEF9FEF089531
:101D70009091B3038091B2032FEF3FEF981748F48F
:101D8000E92FF0E0E35DFC4F208130E09F5F90930E
:101D9000B303C90108958091B2039091B303891BE5
:101DA000990B0895CF92DF92EF92FF920F931F93BA
:101DB000CF93DF937C01CB018A012091E0032223A2
:101DC00089F0EB016B01C40ED51ECC15DD0569F061
:101DD0006991D701ED91FC910190F081E02DC7014F
:101DE0001995F3CF642F0E94440DC801DF91CF9164
:101DF0001F910F91FF90EF90DF90CF900895CF93B8
:101E0000DF931F92CDB7DEB769832091E0032223D1
:101E1000F9F020910304203258F021E030E0FC0179
:101E20003383228390E080E00F90DF91CF9108957B
:101E30008091E103E82FF0E0EE51FC4F998190830F
:101E40008F5F8093E1038093030481E090E0ECCF07
:101E500061E0CE0101960E94440DF7CF9091BA0740
:101E600021E02093E003909302041092E10310928A
:101E70000304682F86E995E00E94FF0E0C94C10DC3
:101E800090E080E00895CF92DF92EF92FF920F935F
:101E90001F93CF93DF9300D000D000D0CDB7DEB733
:101EA0008C010E947909D8011F96CD90DD90ED90AC
:101EB000FC9052976C157D058E059F0528F4F8015E
:101EC0006787708B818B928BD8011F96CD90DD90A8
:101ED000ED90FC9052976C197D098E099F096C3228
:101EE000714081059105E8F2F894F80184819581AB
:101EF0009A8389830184F285E02D7F012FEFE21A16
:101F0000F20A80818F83D8019C915396ED91FC91C8
:101F1000549755968C91992309F448C09081982B39
:101F20009887908180958923898789858B8388E02C
:101F30008C83588569854F813C812B8189819A8169
:101F4000D701508347FD252F3A952083262F39F05E
:101F5000441F00C000006083000000C0F2CF38E0E2
:101F60004D9160830000019761F7D8015496FC936E
:101F7000EE9353974F833C832B839A838983789482
:101F80000E947909F8016787708B818B928B299663
:101F90000FB6F894DEBF0FBECDBFDF91CF911F917A
:101FA0000F91FF90EF90DF90CF9008959081982B44
:101FB0009887908180958923898789858D8388E09A
:101FC0008E83588569854F813E812D8189819A81D3
:101FD000D701508347FD252F00C000C0208300C0DB
:101FE00000C000C000C000C060830000262F3A95EA
:101FF00041F0441F000000C000C000C000C000C08D
:10200000E8CF38E04D9100C0608300C0019709F728
:10201000D8015496FC93EE9353974F833E832D83C0
:10202000ACCF8091D2079091D307892B31F080916A
:10203000D0079091D1070597B1F01092C307109285
:10204000C2071092C10781E090E09093D30780937C
:10205000D2071092CE071092CF0785E090E09093C0
:10206000D1078093D0070895EDEFF9E0108611862F
:1020700010921B0370E060E08BE00C94A20890913A
:10208000140A9330C9F0209170089230B9F42223D9
:1020900099F0682F70E0660F771F6134710514F0B6
:1020A00060E470E080911B0386171706B9F0609317
:1020B0001B038BE00C94A2080C94341090911B032A
:1020C000222369F0682F70E0660F771F6134710575
:1020D00014F060E470E09617170649F70895891721
:1020E000E9F380931B03682F70E0E3CF282F853638
:1020F00008F024E6822F65E00E94C441992361F034
:10210000822F90E0029665E070E00E94D041862F19
:10211000880F880F282F260F822F65E00E94C44168
:10212000E82FF0E080912703882321F0E851FD4F4C
:1021300084910895ED5EF84FFBCFCF93DF93EC01D0
:1021400061E088810E9466086A818881DF91CF9171
:102150000C9438087F928F929F92AF92BF92CF9249
:10216000DF92EF92FF920F931F93CF93DF93FC01C7
:1021700084A595A5EF01019709F466968A819B8154
:102180006817790708F0D7C0842F8B017F01622F71
:102190000E946705262FA72F982E782E982F482F5C
:1021A000772309F460C0862F6BE20E94C441382F68
:1021B00045ED4303B0011124620F711D962F990F55
:1021C000690F660FE92DF0E0CA2ED12C2FEF30E019
:1021D0005901AC18BD08AE9EA001AF9E500DBE9E29
:1021E000500D1124952FA69FD0011124AB2FBB0FAA
:1021F000BB0B5901AA1ABB0AAE9ED001AF9EB00D0F
:10220000BE9EB00D11248B2E5901A61AB108AC9CAC
:10221000B001AD9C700DBC9C700D1124672F770F21
:10222000770B261B370B2E9FB0012F9F700D3E9F03
:10223000700D1124823009F48CC040F4882379F0A9
:10224000813079F0892C952E9B2F0BC0833009F4B7
:1022500083C08430B9F7952E972D872E02C0892C24
:10226000972E492D982CD7019C96EC918091150AB8
:10227000E81798F42091220A3091230AE20FF32FF5
:10228000F11D8081833009F478C008F069C0813085
:1022900009F47AC0823009F46BC02A813B810217AD
:1022A000130708F048C050E070E060E0762F652F1B
:1022B000542F442769296A017B01C92AD701C60125
:1022C0004D01AA24BB24492F5A2F6B2F7727E42EC8
:1022D000F82E2885382D222391F0E22EF12CE89C4F
:1022E000F001E99CF00DF89CF00D11243F2F249F84
:1022F000A0011124E52E289FC0011124F92EEE859E
:1023000089859A852B85E21342C0B801660F771F35
:10231000060F171F080F191FEB85E00FF12FF11D96
:102320003083EC85E00FF12FF11DE0826D85060F03
:10233000111DD801FC92DF91CF911F910F91FF9059
:10234000EF90DF90CF90BF90AF909F908F907F9055
:102350000895852E972F85CF852E992D9B2E81CF81
:10236000843069F0853009F098CF892D992E03C00B
:10237000892D942E492F982F90CF842FFBCF892D14
:10238000992E942F482F89CF892D942EFBCF000FA3
:10239000111F000F111F080F191FE00FF12FF11D62
:1023A0001082BACFFC0124A535A52130310509F4EE
:1023B0004696FC0121853285232B11F00C94430FA6
:1023C00008958F929F92AF92BF92DF92EF92FF9209
:1023D0000F931F93CF93DF9300D01F921F92CDB71F
:1023E000DEB7DC011296DC901297D0FADD24D0F82B
:1023F00012968C9112978E7F12968C93129712964A
:102400008C9112978D7F12968C931297FB011082FC
:102410009F96ED90FC90D097E114F104B9F1DD2086
:10242000A9F19996ED91FC919A97309779F15B011A
:102430008D01BA83A9831D828091100390911103AD
:102440009C838B83CE01019690931103809310039C
:10245000D70114968D909C90159715961C930E930A
:10246000149719958B819C8190931103809310038D
:102470008D818823E9F00815190511F4912C812C20
:10248000F7019582848281E0D5018C938D2D0F9088
:102490000F900F900F900F90DF91CF911F910F91A0
:1024A000FF90EF90DF90BF90AF909F908F90089536
:1024B000F70195828482EACF0F931F93CF93DF9326
:1024C000FC01A7A5B0A9109709F448C0EC0111A21E
:1024D00012A213A214A282818B7F828307A0F0A58F
:1024E000E02D3097B9F18A8181FD34C014960D91A9
:1024F0001C9115971596DC93CE9314978A81826070
:102500008A8319959A8180FB90F99A838A818D7FBD
:102510008A83EFA5F8A9158304838B819C81AD8103
:10252000BE818F839887A987BA870E94D0090F81BF
:10253000188529853A85601B710B820B930B6B877D
:102540007C878D879E878A818170DF91CF911F91D3
:102550000F9108958A8181608A83DFCF80E0F5CF73
:102560000F931F93CF93DF931F92CDB7DEB78C01EC
:102570008AE093E0D8018D939C93E0911003F09151
:10258000110381E0309751F020813181201731070C
:1025900009F484830280F381E02DF4CFF801828175
:1025A00080FF06C0BE016F5F7F4FC8010E94E1112E
:1025B000D8019F96ED91FC91309759F1228582E0E8
:1025C00082878789908DA18DB28D0197A109B1096C
:1025D000878B908FA18FB28FD8019D964D915C9182
:1025E000868197810817190711F457834683D8010C
:1025F000D0961C921E929F979B968D919C910097CE
:10260000B1F44115510559F41182108213821282DE
:1026100022870F90DF91CF911F910F910895DA01DA
:102620009C961C921E929B9751834083F1CFDC01B4
:102630004115510539F49E961C921E929D979383E5
:102640008283E6CF9E965C934E939D97D8019D968C
:102650004D915C91DA019C969C938E939B97D8CF79
:102660000E947909CB0108950F931F93CF93DF93B5
:102670008C018091BA0791E09093E003809302046B
:102680001092E1031092030460E086E995E00E9455
:10269000FF0EE801005F1F4F699186E995E00E94F7
:1026A000FF0E0C171D07C1F7DF91CF911F910F91FE
:1026B0000C94C10D8091C507882321F084EA97E02E
:1026C0000C9434130895CF92DF92EF92FF920F9300
:1026D0001F93CF93DF93CDB7DEB7DC010DB71EB7E5
:1026E0003C91432F50E07A0181E0E81AF108EDB700
:1026F000FEB7E41BF50B0FB6F894FEBF0FBEEDBF9F
:102700006DB77EB76F5F7F4F20E08AEAD82E90EFDB
:10271000C92E822F90E08E159F050CF01BC123302F
:1027200030F4FB01213021F1223021F1C0821396D7
:102730009C911397992309F49AC0233008F438C068
:10274000EDEFE20FEC3008F033C0F0E08827E455FD
:10275000FC4E8F4F0C94E4414E14BC13C213C813AB
:10276000CE13DE13F213FD13081413141F142B14CD
:10277000D182DDCF3283DBCF14968C911497FB018D
:10278000848316C011968C911197FB01858310C02C
:1027900012968C911297FB0186830AC051968C91F8
:1027A0005197882339F052968C915297FB01878379
:1027B0002F5FAFCF16968C911697F8CF1A968C9103
:1027C0001A97882331F01B968C911B97FB01808709
:1027D000EFCF51968C915197882351F353968C915A
:1027E0005397F4CF1A968C911A97882309F31C9665
:1027F0008C911C97FB018187DBCF1A968C911A97DD
:102800008823B1F21D968C911D97FB018287D0CF52
:102810001E968C911E97882359F21F968C911F97B4
:10282000FB018387C5CF1E968C911E97882309F4E0
:10283000BFCF50968C915097FB018487B9CF1796E4
:102840008C911797882309F4B3CF18968C91189719
:10285000FB018587ADCF17968C911797882309F4D4
:10286000A7CF19968C911997FB018687A1CFEDEF21
:10287000E20FE83008F09CCFF0E014969C9114979A
:102880008827EA5BFB4E8F4F0C94E4414E145114A1
:10289000711483148C1495149C14A314FB0193835A
:1028A00087CF95509C3008F083CFE92FF0E0882740
:1028B000E35AFB4E8F4F0C94E4416914D813D8139C
:1028C00069146D146914D8136914D8136D146D1438
:1028D000691411968C91119752CF16968C91169778
:1028E0004ECF9A3031F048F4953019F0983009F015
:1028F0005FCF12968C91129748CF9C30D1F39031D4
:1029000009F056CFF6CF983019F09A3009F050CF31
:102910001B968C911B973FCF983019F09A3009F095
:1029200047CF1C968C911C9741CF9A3009F040CF2D
:1029300018968C9118974ACF9A3009F039CF19968A
:102940008C91199757CF9A3009F032CF17968C9106
:1029500017975BCF860F971F25E5DC012C9380919D
:10296000300690913106DC01ED91FC910280F381FB
:10297000E02D19950FB6F8941EBF0FBE0DBFDF9165
:10298000CF911F910F91FF90EF90DF90CF9008951E
:10299000CF93DF93CDB7DEB764970FB6F894DEBF61
:1029A0000FBECDBFFE01359620E1DF011D922A95B5
:1029B000E9F729E029839B838A838DE08C8386E075
:1029C000611185E08D836F83CE0101960E946313B0
:1029D00064960FB6F894DEBF0FBECDBFDF91CF91E6
:1029E0000895CF93DF93CDB7DEB764970FB6F89411
:1029F000DEBF0FBECDBFFE01339622E1DF011D9287
:102A00002A95E9F729E029839B838A8388E08D83CF
:102A10007D876C87CE0101960E94631364960FB682
:102A2000F894DEBF0FBECDBFDF91CF9108958091A6
:102A30002503909126031816190694F480919303A8
:102A4000909194030197039758F460910906062E1C
:102A5000000C770B80912803909129030C94F114BA
:102A6000089580919303909194030197039748F4FC
:102A700060910A06062E000C770B83E090E00C9420
:102A8000F1140895CF93DF93CDB7DEB764970FB6F7
:102A9000F894DEBF0FBECDBFFE01359620E1DF0109
:102AA0001D922A95E9F729E029839B838A838DE08B
:102AB0008C8381E08D836F83CE0101960E94631326
:102AC00064960FB6F894DEBF0FBECDBFDF91CF91F5
:102AD0000895CF93DF93CDB7DEB764970FB6F89420
:102AE000DEBF0FBECDBF4115510559F40E944215FE
:102AF00064960FB6F894DEBF0FBECDBFDF91CF91C5
:102B00000895FE01359620E1DF011D922A95E9F72F
:102B10002BE029839B838A838BE18C8381E08D83E7
:102B20006F8388875A874987CE0101960E94631375
:102B3000DFCFCF93DF93CDB7DEB764970FB6F894AE
:102B4000DEBF0FBECDBFFE01359620E1DF011D9235
:102B50002A95E9F728E029839B838A8383E08C8385
:102B600084E08D83CE0101960E94631364960FB6B4
:102B7000F894DEBF0FBECDBFDF91CF9108952091B5
:102B8000930330919403215031092330310510F41F
:102B90000C949915089583E090E00C94BF15CF93A1
:102BA000DF93CDB7DEB764970FB6F894DEBF0FBEE4
:102BB000CDBFFE01339622E1DF011D922A95E9F790
:102BC00027E029839B838A8385E08D83CE0101964C
:102BD0000E94631364960FB6F894DEBF0FBECDBF9C
:102BE000DF91CF910895CF93DF93CDB7DEB7649790
:102BF0000FB6F894DEBF0FBECDBFCE01019624E123
:102C0000FC0111922A95E9F725E0298324E02D8320
:102C10000E94631364960FB6F894DEBF0FBECDBF5B
:102C2000DF91CF910895CF93DF93CDB7DEB764974F
:102C30000FB6F894DEBF0FBECDBF20919303309145
:102C40009403215031092230310580F4FE01319680
:102C500094E1DF011D929A95E9F795E0998381113E
:102C60000EC083E18D83CF010E94631364960FB67B
:102C7000F894DEBF0FBECDBFDF91CF91089582E102
:102C8000F1CFAF92BF92CF92DF92EF92FF920F936C
:102C90001F93CF93DF93CDB7DEB764970FB6F89449
:102CA000DEBF0FBECDBF5C01F62EC42E14160CF491
:102CB000C12C8AEBC81614F48AEBC82E80919303BA
:102CC000909194038230910509F449C083309105B5
:102CD00011F0019799F50C2C000CDD082223F9F076
:102CE0006AEB7FEFC5010E94F1146E2DC5010E94B1
:102CF0004215FE01339682E1DF011D928A95E9F7C4
:102D00008CE08983BB82AA828AE08D83DD86CC86B3
:102D10001A870987CE0101960E94631308C0B60185
:102D2000C5010E94F1146E2DC5010E94421561E09B
:102D3000F11001C060E0C5010E94C81464960FB68E
:102D4000F894DEBF0FBECDBFDF91CF911F910F91E1
:102D5000FF90EF90DF90CF90BF90AF9008950C2C34
:102D6000000CDD08222361F06AEB7FEFC5010E94B1
:102D7000F11450E040E06E2DC5010E946915B9CFF5
:102D8000B601C5010E94F11450E040E06E2DC5016E
:102D90000E946915CCCFEF920F931F93EE24E3941A
:102DA0000CEA1DE0282F40910A0661E083E090E0E4
:102DB0000E9441161F910F91EF900895EF920F938B
:102DC0001F9380912102853010F51092210287E037
:102DD00090E00E94BF15E12C10E000E020E040E010
:102DE00060E087E090E00E9441168091210223E29A
:102DF000829FC001112464E670E00E94D0416352BA
:102E0000609309061F910F91EF900C941715855050
:102E100080932102EACFEF920F931F9380912102BA
:102E2000803618F184E68093210287E090E00E94CA
:102E3000BF15E12C10E000E020E040E060E087E01A
:102E400090E00E9441168091210223E2829FC001FE
:102E5000112464E670E00E94D04163526093090639
:102E60001F910F91EF900C9417158B5F80932102A7
:102E7000EACFEF920F931F93CF93C82F80919303C4
:102E8000909194030197039738F480912302082EC0
:102E9000000C990B0E94CF15C1112CC0E0912302A8
:102EA000809127038823A1F11E164CF50E2E000CED
:102EB000FF0BE55BFC4FE491E093080280919703E0
:102EC00090919803892BB1F480912C03882321F0F1
:102ED00080911A03882371F087E090E00E94BF156B
:102EE000E12C10E000E020E040E060E087E090E0CE
:102EF0000E944116CF911F910F91EF900895EF3DE1
:102F000094F0FF27E1950CF4F095E350FD4FD3CFFB
:102F1000E53D4CF01E164CF0FF27E1950CF4F095C2
:102F2000E15EFC4FC8CFE0E0C7CFE4E6C5CF8093B9
:102F3000270381118AE080931803809108020E9480
:102F400076108093230280930B0681E00C9439174E
:102F5000809123028D3DA9F080910802853068F4AC
:102F600010920802809108020E947610809323023A
:102F700080930B0680E00C943917855080930802EB
:102F8000F1CF089590912302809118039817A1F032
:102F900080910802803670F084E680930802809168
:102FA00008020E9476108093230280930B0680E033
:102FB0000C9439178B5FF1CF08951F93CF93DF9354
:102FC0008091300690913106892B09F45BC1CFEFD7
:102FD000DFEF13E08091300690913106DC01ED9136
:102FE000FC910084F185E02D1995892B09F44AC1E3
:102FF0008091300690913106DC01ED91FC910284C4
:10300000F385E02D199590917306911106C0803FCC
:10301000A1F581E080937306DDCF913031F48A3AD7
:1030200011F482E0F7CF80E0F5CF923099F4803F41
:1030300021F08A3A11F0853529F410927306109226
:103040007406C8CF8134C8F78150809374061093FA
:103050007306C0CF20917406921778F4E92FF0E040
:10306000E15DF94F8083803F41F38A3A31F3853542
:1030700021F39F5F90937306ADCF20917406921356
:10308000A9CF8535D1F6E0913206E158E830A8F6AF
:10309000F0E08827E15BF74E8F4F0C94E4418E18E7
:1030A0009D181D186A185718AD18C718CC188091AC
:1030B000330690913406909396068093950681E0AE
:1030C00090913506911101C080E08093BF06109267
:1030D000C006B3CF809135068E3008F0AECF209178
:1030E0003306309134062F5F3F4F90E04091360613
:1030F000880F991F41110CC0FC01EB58F94F8081DA
:1031000091812817390709F098CFD183C08395CFD3
:103110008B58994FFC01318320838FCF84E1E3E307
:10312000F6E0A1ECB6E001900D928A95E1F71092DD
:10313000D50681E08093BC0680CF809133068093D2
:103140007206809134069091350690939206809392
:10315000910681E08093BD0670CF80913306809305
:1031600072062091340630913506309392062093F2
:103170009106993040F080913606909137069093F1
:1031800094068093930681E08093BE0656CF80918B
:1031900033068093970651CF61E082E396E00E9468
:1031A0006A04609398067093990680939A069093A8
:1031B0009B0665E082E396E00E946A0460939C06A9
:1031C00070939D0680939E0690939F0669E082E32C
:1031D00096E00E946A046093A0067093A106809313
:1031E000A2069093A3066DE082E396E00E946A0433
:1031F0006093A4067093A5068093A6069093A706F5
:1032000061E182E396E00E946A046093A8067093ED
:10321000A9068093AA069093AB0665E182E396E047
:103220000E946A046093AC067093AD068093AE066C
:103230009093AF0669E182E396E00E946A0460938E
:10324000B0067093B1068093B2069093B3066DE119
:1032500082E396E00E946A046093B4067093B50618
:103260008093B6069093B70661E282E396E00E94EF
:103270006A046093B8067093B9068093BA06909377
:10328000BB06DBCEDF91CF911F9108958091930310
:10329000909194030197039798F48091250390915E
:1032A00026031816190654F48091280390912903D7
:1032B000843F21E0920710F00E9499150E94DD17CB
:1032C00010921A0310922C03089580912503909177
:1032D0002603181619060CF05DC080912803909102
:1032E0002903843F21E0920708F454C021E0209391
:1032F0002C0320919303309194032230310569F11E
:103300002330310519F021303105F9F420912B03D8
:1033100061E0211101C060E00E94C81460910906BB
:10332000062E000C770B80912803909129030E94B0
:10333000F11461E080912803909129030E944215C5
:103340000E94DD1781E08093C00640E157E260E013
:1033500070E08CE096E00C94000D20912B0361E06E
:10336000211101C060E00E94C81460910906062E78
:10337000000C770B80912803909129030E94F1148F
:1033800050E040E061E080912803909129030E9481
:103390006915D6CF0895E4EAF7E080E1DF011D92D8
:1033A0008A95E9F7CF010C9434138091C5078111F8
:1033B0000E94CB191092C3071092C20782E090E0DE
:1033C0009093D3078093D20708950E94D519109245
:1033D000C3071092C2071092C1071092CE07109235
:1033E000CF071092D3071092D2070895FF920F9340
:1033F0001F93CF93DF93D82F0E94E5191092D10726
:103400001092D00785E090E09093D3078093D20785
:1034100000EE16E0C0E0F12CD33061F1A8F4D13019
:10342000E1F0D23009F16C2F8F2D0E94E405F39466
:103430000F5F1F4FFCE1FF12EFCFDF91CF911F9184
:103440000F91FF900C945A13D430C9F0D53059F72E
:10345000C1E0F801E855FF4F0BC0C1E0F80180ADB5
:103460008111E1CFC0E0DFCFC1E0F801EC5AFF4F9E
:103470008081F6CFC1E0F801E059FF4FF9CFC1E0FC
:10348000F801E457FF4FF4CFCF93DF93C82F81119A
:1034900001C0C1E02091D2073091D3078091D007BD
:1034A0009091D10705970397B8F487E090E0223018
:1034B000310529F02430310531F486E090E0909315
:1034C000D1078093D00790912E0A892F880F880FFB
:1034D000890F8D5F8093BF07232B89F1D091BF07A0
:1034E00086EC97E00E948A0C672B682B692B39F5D4
:1034F0006C2F70E088E090E00E94D041623008F4C8
:1035000062E06D1BCCE1C60FE091D007F091D107CE
:103510003197E730F10598F48827EE56F54E8F4F36
:103520000C94E441A21AE01A1F1B1F1B991AF81AE7
:10353000BA1A87E090E09093D1078093D007DF918B
:10354000CF91089561E08091C2070E94E4050E9436
:103550005A138091C2079091C30701969093C307B5
:103560008093C2074C970CF460C01092D30710925E
:10357000D207E5CF61E08091C2070E94E4050E9476
:103580005A138091C2079091C30701969093C30785
:103590008093C2072091BF072817190611F00CF07D
:1035A00044C084E090E09093D3078093D20783E0F7
:1035B000C89FA0011124052E000C660B770B39C0A3
:1035C00060E08091C2070E94E4050E945A13809136
:1035D000C2079091C30701979093C3078093C207D6
:1035E0004C2F440F440F97FF21C00E94D519BDCF27
:1035F00060E08091C2070E94E4050E945A13809106
:10360000D0079091D107029711F4CC0FCC0F809185
:10361000C2079091C30701979093C3078093C20795
:1036200097FF03C00E94D519C2CF4C2F50E070E025
:1036300060E086EC97E0DF91CF910C94000D8091D3
:10364000D2079091D3070297029768F00E94D5198C
:103650008091D0079091D1070497E1F58091C00740
:1036600081508093C1078091C107811136C082E0EB
:1036700090E09093D3078093D20761E080E00E94AE
:10368000E40561E08BE10E94E4058091D007909110
:10369000D107039751F48091C10760E08F5F0E94CA
:1036A000E40560E08AE10E94E4050E945A138091DB
:1036B000C1072091D2073091D3072330310509F497
:1036C00052C08F5F8093C1074091C1074C0F5527AF
:1036D000551F71CF1092C107C6CFD091C0079FEF81
:1036E0009D0F891316C023E030E03093D307209359
:1036F000D20761E00E94E40561E08D2F0E94E4059D
:1037000060E08EEF8D0F0E94E40560E081E08D0F98
:10371000CACF61E00E94E4059091C10761E08BE1AE
:10372000891B0E94E4058091C10760E081500E94DE
:10373000E4059091C10760E08CE1891B0E94E405DB
:103740008091D0079091D107039709F0AECF809177
:10375000C10760E08F5F0E94E4059091C10760E0BF
:103760008AE1891BA0CF8150ADCFCF93DF93EC01CD
:103770002CA53DA52130310509F466968E819F81E7
:1037800097FD2BC061E00E94660860E08E810E9478
:10379000380881E089832885222329F12150F9F016
:1037A00030E050E040E06FEF7FEF80E090E00E947B
:1037B000514149855A85FA016C817D81CF01841B75
:1037C000950B8617970770F46081629FC001639F15
:1037D000900D112490833196EFCF1982DCCF30E029
:1037E00020E0E7CF18864C815D8170E060E089853C
:1037F0009A850E940F4489859A85892B29F0CE01EC
:10380000DF91CF910C94430FDF91CF910895CF9228
:10381000DF92EF92FF920F931F93CF93DF93EC0110
:103820006B01F42EE52E198218861F86188A198AD4
:103830001A8A81E08E878B871C8692E09D87888319
:103840008B01000F111F060F171F1D830C83C8016A
:103850000E9400429A878987009789F1A80170E049
:1038600060E00E940F44DB82CA82FE82EF8289817F
:10387000882341F061E08F2D0E94660860E08F2D63
:103880000E9438088F2D9E2DFC01EE5FF74FE491CA
:10389000F0E0EE0FFF1FE851F84F259134913C8B7B
:1038A0002B8BFC01EE55F84FE491ED8BDF91CF911E
:1038B0001F910F91FF90EF90DF90CF9008951D82A0
:1038C0001C821B821A82D1CFEF92FF920F931F931B
:1038D000CF93DF938C01000F111FF801EE5EFC4FB8
:1038E00020813181232B39F5EC018EE290E00E949A
:1038F00000427C014AE050E06EE070E00E94071C4C
:103900004CE050E062E070E0C70146960E94071C60
:10391000F701D5A7C4A78091150AC81738F480917C
:10392000220A9091230AC80FD91F1882F801EE5E6F
:10393000FC4FF182E082F801EE5EFC4F80819181C4
:10394000DF91CF911F910F91FF90EF9008950F930A
:103950001F93CF93C82F81E090E00E94641C8C01DC
:103960008091A2058823F1F0809112020E940F0835
:10397000813031F060911402809112020E94380867
:103980002FEF40E0C43110F02C2F42E070E060E0F7
:10399000C8010E94AA1081E080931903CF911F9162
:1039A0000F91089580911202C11107C06091140215
:1039B000CF911F910F910C943808EC2FF0E0E95F44
:1039C000FB4F6491E62FE0956E2F70E0CF911F9131
:1039D0000F910C94A2081F93CF93DF93182F81E0CF
:1039E00090E00E94641CEC018091A20511111FC09F
:1039F000811106C060911702809115020E9438085B
:103A0000CE010E947B04611104C0711102C08823A1
:103A100051F02FEF40E061E070E0CE010E94AA106B
:103A200081E080931903DF91CF911F910895811157
:103A300006C060911602809115020E943808CE01DE
:103A40000E947B046111EFCF7111EDCF8111EBCF9B
:103A50002FEF41E0E0CFEF920F931F939091E20997
:103A60008091DD09981709F466C19091CE08809184
:103A7000C908981709F45FC180910C0A8F3F09F4B7
:103A800025C1813009F057C1809102029091030253
:103A90008330910509F431C170F48130910509F446
:103AA00019C2029709F419C2809102021F910F9165
:103AB000EF900C94F6198430910509F42FC1059705
:103AC00099F780910402909105028330910509F4E1
:103AD0008FC050F48130910509F42DC1029709F48B
:103AE00046C081E090E01CC18430910509F4B5C066
:103AF0000597B9F784E090E0909305028093040263
:103B000060911C0280911B020E9438088FEF0E9476
:103B1000A71C81E00E94EB1C60911A0280911802A0
:103B20000E94380885E090E00E94BF15EE24E394DF
:103B300010E000E020E040910A0660E085E090E0BF
:103B40000E9441168BE090E00E94BF158CE090E04F
:103B50000E94BF158DE090E00E94BF1520E04091CB
:103B60000A0660E08EE090E00E9441163CC081E0D1
:103B700090E0909305028093040260911D02809171
:103B80001B020E94380880E00E94A71C80E00E946F
:103B9000EB1C60911A02809118020E94380885E09F
:103BA00090E00E94BF15EE24E39410E000E020E0D6
:103BB00040910A0660E085E090E00E94411620E016
:103BC00040910A0660E08BE090E00E9441168CE094
:103BD00090E00E94BF158DE090E00E94BF158EE03E
:103BE00090E00E94BF158FE090E00E94BF1579CF52
:103BF00082E090E0909305028093040260911C02A1
:103C000080911B020E94380880E00E94A71C80E07F
:103C10000E94EB1C60911A02809118020E943808E1
:103C200085E090E00E94BF15EE24E39410E000E0F0
:103C300020E040910A0660E085E090E00E94411695
:103C40008BE090E00E94BF1520E040910A0660E002
:103C50008CE090E00E944116BECF83E090E090930C
:103C600005028093040260911C0280911B020E9455
:103C700038088FEF0E94A71C80E00E94EB1C609127
:103C80001A02809118020E94380885E090E00E9494
:103C9000BF15EE24E39410E000E020E040910A0616
:103CA00060E085E090E00E9441168BE090E00E9489
:103CB000BF158CE090E00E94BF1520E040910A06FD
:103CC00060E08DE090E00E94411689CF8091020271
:103CD000909103028330910509F4FCC038F48130DF
:103CE000910571F0029709F4FCCEDECE8430910587
:103CF00009F4F3C0059709F0D7CE84E090E010C036
:103D000080910402909105028330910509F464C00A
:103D100060F48130910599F0029769F085E090E0B8
:103D20009093030280930202BFCE8430910509F480
:103D300090C0059799F71F910F91EF90089580918A
:103D4000970390919803019731F480919503909196
:103D50009603059781F382E090E0909305028093AB
:103D6000040260911C0280911B020E94380880E0CE
:103D70000E94A71C80E00E94EB1C60911A028091B7
:103D800018020E94380885E090E00E94BF15EE24DA
:103D9000E39410E000E020E040910A0660E085E056
:103DA00090E00E9441168BE090E00E94BF1520E059
:103DB00040910A0660E08CE090E00E9441168DE0A0
:103DC00090E00E94BF158EE090E00E94BF158FE04A
:103DD00090E00E94BF15A2CF84E090E0909305028E
:103DE0008093040260911C0280911B020E9438089B
:103DF0008FEF0E94A71C81E00E94EB1C60911A02C9
:103E0000809118020E94380885E090E00E94BF155A
:103E1000EE24E39410E000E020E040910A0660E028
:103E200085E090E00E9441168BE090E00E94BF1573
:103E30008CE090E00E94BF158DE090E00E94BF15DD
:103E400020E040910A0660E08EE090E00E9441167A
:103E5000BECF85E090E090930502809304026091CC
:103E60001C0280911B020E9438088FEF0E94A71C41
:103E700081E00E94EB1C60911902809118020E945F
:103E8000380885E090E00E94BF15EE24E39410E02E
:103E900000E020E040910A0660E085E090E00E94AA
:103EA00041168BE090E00E94BF158CE090E00E94EC
:103EB000BF158DE090E00E94BF158EE090E00E945B
:103EC000BF1520E040910A0660E08FE090E00E947C
:103ED000411624CF82E090E023CF83E090E020CF12
:103EE0000F931F93CF93DF9310928408109285084D
:103EF00010921E0390E080E00E94641C8C01D0E0D0
:103F0000C0E02FEF40E0BE01C8010E94AA10219638
:103F1000C730D105B1F760910B0280910902DF91A2
:103F2000CF911F910F910C9438080E94E5190E94BF
:103F3000701F6091200280911E020E9438086091DB
:103F40001A02809118020E94380860911102809133
:103F50000F020E94380860910E0280910C020E94AC
:103F6000380860911D0280911B020E943808609100
:103F70000B02809109020E94380880E00E94A71C71
:103F800080E00E94EB1C90E080E00E94641CFC0139
:103F900024A535A52130310509F476964481558153
:103FA00070E060E0818592850E940F4481E090E09E
:103FB0000E94641CFC0124A535A52130310509F4BB
:103FC00076964481558170E060E0818592850E94FB
:103FD0000F4480912C03811108C040E65AEE60E046
:103FE00070E084E598E00C94000D0895EF920F9333
:103FF0001F9380911D03882361F086E090E00E946A
:10400000BF1585E090E00E94BF1585E090E00E941A
:10401000BF1581E090E00E94BF1584E290E00E940D
:10402000BF15209195033091960380911D03243094
:10403000310599F5811133C01092980310929703BE
:1040400010929603109295030E94CB150E94341093
:1040500010921C031092DE061092DF061092660882
:104060001092670810927A0810927B0810927008DC
:1040700010927108109298081092990810928E0868
:1040800010928F088091970390919803892B01F5E6
:104090001F910F91EF900C94951F8111D5CF109225
:1040A000980310929703109296031092950382E062
:1040B00090E00E94BF15EE24E39410E000E020E0C1
:1040C00040910A0660E082E090E00E944116BCCF79
:1040D0001F910F91EF900895DF92EF92FF920F934F
:1040E0001F93CF93DF93F82E86ED96E00E94D00CBD
:1040F000882309F463C080912E0A24E1829FC001C5
:10410000112496958795969587954EE150E0481B2A
:10411000590B70E060E086ED96E00E94000D809102
:1041200017038E3F18F4815F80931703809101027B
:10413000823018F08F508093010290E080E00E945E
:10414000641C8C01E0911603F0E0EE0FFF1FE654B3
:10415000FD4F608170E0695F7F4FC181D0E027969D
:10416000D0900102E090170380910002882371F142
:104170002E2D4F2DC8010E94AA102D2D4F2DBE01AE
:10418000C8010E94AA108FEFE81218C080910102A6
:10419000811114C08091000291E089278093000270
:1041A00010921703E09201028091160390E00196AD
:1041B0006CE070E00E94D04180931603DF91CF91B4
:1041C0001F910F91FF90EF90DF9008952D2D4F2DAF
:1041D000C8010E94AA102E2DD1CF80918408882377
:1041E00061F180912E0A81500E94441A80919703B8
:1041F00090919803019761F58091DE06811114C0BA
:1042000080912E0A24E1829FC00111249695879502
:10421000969587954EE150E0481B590B70E060E0A1
:1042200086ED96E00E94000D80912E0A823011F1F9
:1042300030F4813051F08AE009C081E0D5CF83307D
:10424000D9F08430C1F789E001C085E00E946C207C
:1042500090E080E00E94641C0E94D21181E090E016
:104260000E94641C0E94D211809119038111109246
:104270001903089587E0EACF88E0E8CFCF93DF9372
:10428000EC0188819981009711F00E949C4219826B
:1042900018821D821C821B821A82DF91CF910895A1
:1042A000FC0180819181009711F00C949C4208954B
:1042B000CF93DF93EC010E94B012CE01DF91CF913A
:1042C0000C949C420F931F93CF93DF93EC01888152
:1042D0009981009759F02A813B812617370730F0E2
:1042E00081E0DF91CF911F910F9108958B016F5F56
:1042F0007F4F0E942543009759F0998388831B8341
:104300000A832C813D81232B59F7FC011082E8CFD1
:1043100080E0E7CFEF92FF920F931F93CF93DF934D
:10432000EC01FB01E080F180E114F10411F1048162
:10433000158101151105A9F08C819D81080F191FA8
:10434000B801CE010E946221882399F02881398129
:104350008C819D81B701820F931F0E9416441D839B
:104360000C83CE01DF91CF911F910F91FF90EF90C1
:104370000895CE010E943E21F4CFEF92FF920F9359
:104380001F93CF93DF93EC017B018A01BA010E9456
:10439000622181110BC0CE010E943E21CE01DF912E
:1043A000CF911F910F91FF90EF9008951D830C8383
:1043B000B701888199810E941644F0CFEF92FF9255
:1043C0000F931F93CF93DF93CDB7DEB761970FB6EF
:1043D000F894DEBF0FBECDBF8C01CB01F801118276
:1043E000108213821282158214824AE09E012F5F8E
:1043F0003F4F7901B9010E941141F701019000205E
:10440000E9F73197AF014E195F09B701C8010E9462
:10441000BD2161960FB6F894DEBF0FBECDBFDF9110
:10442000CF911F910F91FF90EF900895EF92FF921F
:104430000F931F93CF93DF93CDB7DEB762970FB67D
:10444000F894DEBF0FBECDBF8C01CB01F801118205
:10445000108213821282158214824AE09E012F5F1D
:104460003F4F7901B9010E940641F70101900020F8
:10447000E9F73197AF014E195F09B701C8010E94F2
:10448000BD2162960FB6F894DEBF0FBECDBFDF919F
:10449000CF911F910F91FF90EF900895FB01DC01E8
:1044A00011961C921E9213961C921E9212971596AC
:1044B0001C921E9214978617970749F060817181AC
:1044C0006115710521F0448155810C94BD21089539
:1044D000EF92FF920F931F93CF93DF93EC018B0129
:1044E000198218821B821A821D821C82CB010E94B3
:1044F000FD407C01BC01CE010E946221811109C0F6
:10450000CE01DF91CF911F910F91FF90EF900C940E
:104510003E21FD82EC82B80188819981DF91CF91A3
:104520001F910F91FF90EF900C94F640EF920F9334
:104530001F93CF93DF93CDB7DEB762970FB6F89492
:10454000DEBF0FBECDBF8091040290910502813085
:10455000910579F0029709F43DC262960FB6F8947E
:10456000DEBF0FBECDBFDF91CF911F910F91EF90B6
:10457000089580910202909103028330910509F41D
:10458000DBC008F050C08130910509F4E6C1029704
:1045900021F780912C03882301F388EB99E00E9496
:1045A000160B882309F475C1009128031091290383
:1045B00080912A03882309F45FC1045F1140B80188
:1045C00090E080E00E944206209121033091220376
:1045D0002617370709F033C180911F0390912003FC
:1045E0009093240380932303609123037091240309
:1045F00090E080E00E94F5060091250310912603CB
:10460000601771070CF422C1609123037091240399
:1046100061507109709324036093230390E080E05C
:104620000E94F506EDCF8430910549F1059709F018
:1046300094CF80912C03882309F48FCF88EB99E0E5
:104640000E94160B882309F488CF60912B0381E028
:10465000682760932B0380912503909126031816F9
:10466000190634F480912803909129030E94C814FC
:104670006BE976E0CE0101960E94682247C088EB84
:1046800099E00E94160B882381F0809123028A3BD7
:1046900041F480910B068093230280E00E94391739
:1046A0005CCF80930B068AEBF6CF9091CE08809179
:1046B000C908981352CF80910C0A813061F50E948D
:1046C000C21760912302062E000C770BCE010196D3
:1046D0000E94162268E876E0CE010D960E946822BC
:1046E000BE01635F7F4FCE0107960E944E22BE013E
:1046F0006F5F7F4FCE0107960E948A21CE010796F9
:104700000E945021CE010D960E945021CE010196AB
:104710000E94502122CF8F3F09F01FCF0E94A8177F
:1047200060912302062E000C770BCE0101960E94A9
:10473000162265E776E0D0CF88EB99E00E94160B51
:10474000882349F080912A0391E0892780932A03E6
:1047500060E676E08FCF9091CE088091C9089813DB
:10476000FCCE80910C0A8130A1F580912202803626
:1047700060F184E68093220287E090E00E94BF15FA
:10478000E12C10E000E020E040E060E087E090E015
:104790000E9441168091220223E2829FC0011124CF
:1047A00064E670E00E94D041635260930A060E9462
:1047B000311560910A06062E000C770BCE0101968A
:1047C0000E9416226CE476E087CF8B5F80932202F2
:1047D000E1CF8F3F09F0C1CE80912202853058F59C
:1047E0001092220287E090E00E94BF15E12C10E0B9
:1047F00000E020E040E060E087E090E00E944116A9
:104800008091220223E2829FC001112464E670E0BD
:104810000E94D041635260930A060E943115609154
:104820000A06062E000C770BCE0101960E94162276
:1048300068E376E051CF855080932202E1CF61504A
:1048400071097093240360932303CECE8B010C5027
:104850001E4F0E94461910932903009328030E94BB
:1048600065196091280370912903CE0101960E9479
:10487000DE216AE276E030CF01501109043F81E089
:10488000180738F700912503109126030D501E4F8D
:10489000E0CF84EA98E00E94160B882309F45DCEED
:1048A000609128037091290300912503109126033C
:1048B00080912A03882309F444C0645F714090E02A
:1048C00080E00E94420620911F03309120032617AA
:1048D0003707D1F41092240310922303609123032D
:1048E0007091240390E080E00E94F5066017710744
:1048F00094F060912303709124036F5F7F4F709356
:10490000240360932303EECF6F5F7F4F70932403E4
:1049100060932303E3CF8B010C501E4F0E94461976
:1049200010932903009328030E94651960912803BE
:1049300070912903CE0101960E94DE216CE176E0A0
:10494000CBCE6F5F7F4F0D501E4F0617170710F02D
:104950008B01E4CF04EF11E0E1CF88EB99E00E94F6
:10496000160B882371F080912C03811105C00E94E1
:10497000651961E176E07ECE0E94461966E076E038
:1049800079CE9091CE088091C9089813E6CD809198
:104990000C0A813071F40E940B1760910906062EF3
:1049A000000C770BCE0101960E94162264EF75E091
:1049B00093CE8F3F09F0D1CD0E94DE16609109069B
:1049C000062E000C770BCE0101960E94162262EE95
:1049D00075E082CE809102029091030283309105AE
:1049E00009F408C140F5029709F0B7CD88EB99E0CA
:1049F0000E94160B882309F4B0CD86E290E00E9455
:104A0000BF1587E290E00E94BF159091270381E0D7
:104A100089270E94971780912703EE24E39410E0E2
:104A200000E020E040910A0660E0882309F492C18A
:104A300086E290E025C08430910509F470C00597A6
:104A400009F08BCD88EB99E00E94160B882389F141
:104A500080910F0A8823B9F010920F0A83E190E049
:104A60000E94BF1584E190E00E94BF15EE24E394FC
:104A700010E000E020E040910A0660E084E190E070
:104A80000E9441166ACD81E080930F0A83E190E095
:104A90000E94BF1584E190E00E94BF15EE24E394CC
:104AA00010E000E020E040910A0660E083E190E041
:104AB000E7CF84EA98E00E94160B882309F44DCDD5
:104AC0008091A2058823A9F01092A20585E190E0CB
:104AD0000E94BF1586E190E00E94BF15EE24E3948A
:104AE00010E000E020E040910A0660E086E190E0FE
:104AF000C7CF81E08093A20585E190E00E94BF15B9
:104B000086E190E00E94BF15EE24E39410E000E0FF
:104B100020E040910A0660E085E190E0B1CF88EBAB
:104B200099E00E94160B882379F180910D0A882361
:104B3000A9F010920D0A8CE190E00E94BF158DE162
:104B400090E00E94BF15EE24E39410E000E020E026
:104B500040910A0660E08DE190E092CF81E0809381
:104B60000D0A8CE190E00E94BF158DE190E00E945B
:104B7000BF15EE24E39410E000E020E040910A0627
:104B800060E08CE190E07CCF84EA98E00E94160B14
:104B9000882309F4E2CC80910E0A8823A9F01092B0
:104BA0000E0A8EE190E00E94BF158FE190E00E9416
:104BB000BF15EE24E39410E000E020E040910A06E7
:104BC00060E08FE190E05CCF81E080930E0A8EE19F
:104BD00090E00E94BF158FE190E00E94BF15EE2487
:104BE000E39410E000E020E040910A0660E08EE1EE
:104BF00090E046CF88EB99E00E94160B8823A9F13C
:104C00008091110A8823D9F01092110A8AE190E06C
:104C10000E94BF158BE190E00E94BF15EE24E39443
:104C200010E000E020E040910A0660E08BE190E0B7
:104C30000E9441168091110A0E9413168ECC81E0C9
:104C40008093110A8AE190E00E94BF158BE190E009
:104C50000E94BF15EE24E39410E000E020E04091B4
:104C60000A0660E08AE190E0E3CF84EA98E00E94DF
:104C7000160B882309F471CC87E090E00E94BF15E1
:104C8000EE24E39410E000E020E040910A0660E0AA
:104C900087E090E00E9441168091140A8130E1F093
:104CA0008330F1F183E08093140A82E290E00E9465
:104CB000BF1580E290E00E94BF1581E290E00E9463
:104CC000BF15EE24E39410E000E020E040910A06D6
:104CD00060E081E290E0D4CE82E08093140A82E228
:104CE00090E00E94BF1580E290E00E94BF1581E233
:104CF00090E00E94BF15EE24E39410E000E020E075
:104D000040910A0660E082E290E00E9441164AEF7C
:104D100050E060E070E08DEF99E00E94000D1DCC46
:104D200081E08093140A82E290E00E94BF1580E245
:104D300090E00E94BF1581E290E00E94BF15EE2432
:104D4000E39410E000E020E040910A0660E080E299
:104D500090E0DBCF87E290E093CE85ED8093BC00BE
:104D60008091DC039091DD03A091DE03B091DF031D
:104D70000796A11DB11D23E0B695A7959795879538
:104D80002A95D1F72091BC0024FD03C01092DA03CC
:104D900008954091DC035091DD036091DE03709132
:104DA000DF03452B462B472B69F30097A105B1057F
:104DB00041F02AE22A95F1F700C00197A109B10953
:104DC000E1CF8091DB030C94A00DBF92CF92DF92D4
:104DD000EF92FF920F931F93CF93DF9300D000D0F9
:104DE000CDB7DEB79C0127523109309326032093BB
:104DF00025032115310509F433C137FF12C0109284
:104E000026031092250381E0809391036BEA73E0FF
:104E1000CE0101960E946822CE0101960E94502187
:104E20001FC14091060250910702BA0167527109F1
:104E3000261737070CF024C14817590708F420C17A
:104E400084EF91E090932903809328030E94D00976
:104E50006B017C010E949E4020E031E040E050E088
:104E60000E9451419B01AC012C0D3D1D4E1D5F1D4B
:104E700065E979EE81ED9BE50E94B441292F332746
:104E800044275527262737274827592765E979EEEC
:104E900081ED9BE50E94B4419B01AC01E7EC2E271C
:104EA000E1E03E27E1E14E27E3E55E2769EB70E9AB
:104EB0008AE698E20E94B441DC01CB0127E5822713
:104EC00023E792272AE2A2272AEAB2279C01AD0112
:104ED0006DE056954795379527956A95D1F7282720
:104EE00039274A275B2765E979EE81ED9BE50E942A
:104EF000B4418B019C01EFE03695279517950795F6
:104F0000EA95D1F7AB01BC014027512762277327EF
:104F100000912503109126036801012E000CEE0874
:104F2000FF0884E090E0A0E0B0E08C159D05AE05A0
:104F3000BF0540F432E0880F991FAA1FBB1F3A95A6
:104F4000D1F7F3CF0197A109B109C12CD12C76017A
:104F50000097A105B10551F0B695A795979587954E
:104F6000EFEFCE1ADE0AEE0AFE0AF2CFF694E794CD
:104F7000D794C794C092A203D092A303E092A40353
:104F8000F092A50381E090E002C0880F991FCA94B7
:104F9000E2F70197092E000CAA0BBB0B8093A60326
:104FA0009093A703A093A803B093A9034093AA03E7
:104FB0005093AB036093AC037093AD031092220344
:104FC000109221031092200310921F03F12CE12C68
:104FD000BB24B394680121E0C21AD108E016F1069F
:104FE0008CF560911F037091200390E080E00E9497
:104FF000F506601771075CF060911F037091200344
:105000006F5F7F4F7093200360931F03EECFBB2031
:1050100041F080911F03909120039093220380938D
:105020002103EC14FD0449F080911F0390912003AB
:1050300001969093200380931F038FEFE81AF80ADC
:10504000B12CCCCF6091280370912903675271096C
:1050500090E080E00E944206709324036093230353
:1050600026960FB6F894DEBF0FBECDBFDF91CF916D
:105070001F910F91FF90EF90DF90CF90BF90089518
:10508000109226031092250381E08093920366E537
:1050900073E0BECEFF920F931F93CF93DF93EC018B
:1050A000F62E08811981C8010E943B41F81621F0B3
:1050B0006F2DC8010E944341CE01DF91CF911F9116
:1050C0000F91FF900895EF92FF920F931F93CF934C
:1050D000DF931F921F92CDB7DEB71A82198268E064
:1050E000CE0101960E944A2881E090E09A8389834C
:1050F00060E0CE0101960E944A288DE0E82E8AE009
:10510000F82E02E010E01A830983F70161917F0114
:10511000CE0101960E944A280F5F1F4F0A301105E9
:1051200091F70F900F90DF91CF911F910F91FF900A
:10513000EF900895EF92FF920F931F93CF93DF9319
:10514000CDB7DEB762970FB6F894DEBF0FBECDBF06
:1051500000919503109196030115110519F0053082
:10516000110591F484EA98E00E94160B882361F0FF
:105170009091580980915309981313C09091130985
:1051800080910E09981387C062960FB6F894DEBF1F
:105190000FBECDBFDF91CF911F910F91FF90EF9088
:1051A00008950530110509F47AC090911309809192
:1051B0000E09981749F305E010E010939603009349
:1051C000950340E951E060E070E08EE598E00E94D0
:1051D000000D65E070E0CE0101960E94162267E1A5
:1051E00075E0CE010D960E946822BE01635F7F4F7D
:1051F000CE0107960E944E22BE016F5F7F4FCE0107
:1052000007960E948A21CE0107960E945021CE0166
:105210000D960E945021CE0101960E94502181E0FE
:1052200090E0909305028093040210930302009390
:105230000202EE24E39410E000E020E040910A0630
:1052400060E080E190E00E94411680919703909188
:105250009803892BE9F40E94951F60911D028091AB
:105260001B020E94380880E00E94A71C80E00E9478
:10527000EB1C60911A02809118020E94380810926B
:105280005C0810925D08809102020E94F6197CCFA2
:105290000E94E519F8CF0530110509F075CFE090AF
:1052A0000402F090050281E0E816F10409F06CCFE9
:1052B00000910202109103020530110509F064CF3C
:1052C0001092960310929503109266081092670848
:1052D00070E060E0CE0101960E94162267E075E062
:1052E000CE010D960E946822BE01635F7F4FCE0102
:1052F00007960E944E22BE016F5F7F4FCE01079638
:105300000E948A21CE0107960E945021CE010D965F
:105310000E945021CE0101960E945021F092050278
:10532000E09204021093030200930202809197031B
:1053300090919803892BA1F40E9463288AE090E061
:105340000E94BF15EE24E39410E000E020E04091BD
:105350000A0660E08AE090E00E9441160E94951FD4
:1053600080E190E00E94BF15EE24E39410E000E09D
:1053700020E040910A0660E080E190E00E94411642
:105380001092960310929503009197031091980341
:105390000130110509F0F8CE0E94E5191092C307FB
:1053A0001092C2071092C1071093D3070093D2073F
:1053B0001092CE071092CF0785E090E09093D1072E
:1053C0008093D007E1CECF92DF92EF92FF920F93BE
:1053D0001F93CF93DF93CDB7DEB7A0970FB6F894A6
:1053E000DEBF0FBECDBF80919303909194030197D0
:1053F000039710F40E94DD1780E296E00E94D00C23
:10540000882309F45FC080911E0681115BC08091E2
:105410009303909194030197039708F053C040EDD4
:1054200057E060E070E080E296E00E94000D80911D
:10543000280390912903FE01339622E1DF011D929A
:105440002A95E9F727E029839B838A8380E18D836E
:10545000CE0101960E94631380912C03882391F161
:1054600080912B0381112EC080911A0381112AC0D3
:105470008CE096E00E94D00C882321F18091930368
:10548000909194030197039708F093C0209128030B
:105490003091290380919506909196062817390737
:1054A00021F48091BF06811105C08091C006882338
:1054B00009F47FC040E45FE160E070E08CE096E0DA
:1054C0000E94000D86E196E00E94D00C882371F0C6
:1054D00010921E0610921F0640ED57E060E070E04B
:1054E00080E296E00E94000D0E94651988EB99E029
:1054F0000E94200B83E799E00E94200B89EE98E040
:105500000E94200B8EE299E00E94200B84EA98E032
:105510000E94200B8091070A880F880F8093070A4A
:1055200087E00E940F08892B29F08091070A82608A
:105530008093070A86E00E940F08892B29F080914A
:10554000070A81608093070A2091070A2F70209331
:10555000070A422F50E0FA01EE52FD4F8081882366
:10556000B9F08091080A9091090A34E0880F991FD8
:105570003A95E1F7822B952B9093090A8093080ABC
:1055800099273FEF8B32910521F031E0479709F0E1
:1055900030E010920C0A80910A0A8317C1F130930F
:1055A0000A0A273059F580910B0A882369F18FEF99
:1055B0002CC0109228061092290610921406109200
:1055C00015060E944619809128039091290301969F
:1055D00020912503309126032D503E4F281739077F
:1055E00010F484EF91E0909329038093280344EF13
:1055F00051E060E070E086E196E062CF2B3039F454
:1056000080910B0A882399F281E080930C0A8091A3
:105610000C0A882371F02091970330919803213070
:10562000310509F418C108F479C02230310509F4B4
:10563000F1C08DEF99E00E94D00C882309F4B9C124
:105640000E943410809197039091980381309105C6
:1056500009F46CC208F4C0C1029709F4F6C10091C4
:105660009503109196030230110509F4AAC3053081
:10567000110509F4A3C30130110521F40E94F61F9E
:105680000E94E5198CE798E00E94D00C882309F469
:1056900088C4F0901E03F1101AC00E94D519109210
:1056A000C3071092C2071092C10781E090E0909367
:1056B000D3078093D2071092CE071092CF070E9493
:1056C0005A1383E090E09093D1078093D0078091A4
:1056D000090260910A02F0FC60910B020E943808F6
:1056E00090E080E00E94641C8C01BBE0BF1508F4D0
:1056F000F7C4EF2DF0E02FEF8827EE57F44D8F4FD2
:105700000C94E4416C30BC2F09300B300D30263046
:105710003C30523068306A306C306E3020919503E6
:10572000309196032230310580F02530310509F0A3
:1057300080CF0E942B1D8091950390919603059731
:1057400009F077CF0E94962274CF90912C03992371
:1057500009F43FC0813061F50E940B176091090682
:10576000062E000C770BCE0101960E9416226AECE1
:1057700075E0CE014B960E946822BE01655E7F4FA8
:10578000CE0145960E944E22BE016F5F7F4FCE0133
:1057900045960E948A21CE0145960E945021CE0155
:1057A0004B960E945021CE0101960E94502141CF7C
:1057B0008F3F09F03ECF0E94DE1660910906062E4B
:1057C000000C770BCE0101960E94162262EB75E069
:1057D000D0CF813071F40E94C21760912302062E4F
:1057E000000C770BCE0101960E94162269E975E044
:1057F000C0CF8F3F09F01DCF0E94A81760912302F0
:10580000062E000C770BCE0101960E94162260E84E
:1058100075E0AFCF813071F40E94C217609123020E
:10582000062E000C770BCE0101960E9416226CE624
:1058300075E09FCF8F3F09F0FCCE0E94A8176091C2
:105840002302062E000C770BCE0101960E94162231
:1058500068E575E08ECF809195039091960305974A
:1058600099F49091E2098091DD09981769F090917F
:10587000130980910E09981739F090915809809179
:10588000530998130E942B1D8091950390919603C4
:10589000892B09F0CECE90919D098091980998139B
:1058A000C8CE9091580980915309981306C0309141
:1058B000130920910E09321719F13091E209209154
:1058C000DD093213B6CE3091130920910E0932173B
:1058D00009F4AFCE981709F4ACCE80910C0A813050
:1058E00009F056C00E94C21760912302062E000CD8
:1058F000770BCE0101960E94162260E475E039CF45
:1059000080910C0A813041F580912E0A8230C1F1DC
:1059100038F4813009F08DCE80932F0A82E008C0E0
:10592000833029F1843009F084CE80932F0A85E0FA
:1059300080932E0AEE24E39410E000E020E04091F2
:105940000A0660E085E090E00E9441160E94CB15B7
:1059500080E00E94CB166DCE8F3F09F06ACE809119
:105960002E0A823089F038F4813009F462CE8093B7
:105970002F0A84E0DDCF833079F28430C1F784E0F0
:1059800080932F0A83E0D4CF80932F0A81E0D0CF79
:105990008F3F09F04ECE0E94A81760912302062E79
:1059A000000C770BCE0101960E94162268E275E08A
:1059B000E0CE8091050A882309F444CE80911B0330
:1059C0008E3109F43FCE8EE180931B036EE170E0CF
:1059D0008BE00E94A20836CE0E949A2890919D09E1
:1059E0008091980998130CC080919503909196032B
:1059F000892B31F482E090E0909396038093950395
:105A00008091950390919603892B09F028CE84E527
:105A100098E00E94D00C882309F434CE80911802BB
:105A20000E940F0860911A02681302C06091190267
:105A3000809118020E94380844EF51E060E070E065
:105A400084E598E00E94000D0ACE86E898E00E9466
:105A50008A0C683C71058105910508F055C060917C
:105A60001A02809118020E94380860911D028091EC
:105A70001B020E94380880E00E94EB1C60910E021D
:105A800080910C020E94380886E898E00E94D00CB1
:105A90008823C1F086E898E00E94130DEE24E39479
:105AA00010E000E020E040910A0660E086E090E02F
:105AB0000E94411620E040910A0660E085E090E0F7
:105AC0000E94411680E998E00E94D00C882381F062
:105AD000EE24E39410E000E020E040910A0660E04C
