:100000000C9404040C9435040C9435040C943504BD
:100010000C9435040C9435040C9435040C9435047C
:100020000C9435040C9435040C9435040C9435046C
:100030000C9435040C9435040C9435040C9435045C
:100040000C9435040C9435040C9435040C9435044C
:100050000C9435040C9435040C9435040C94FB3347
:100060000C9435040C94CF340C94A5340C943504C2
:100070000C9435040C9435040C9435040C9435041C
:100080000C9435040C9435040C9435040C9435040C
:100090000C9435040C9435040C9435040C940535FB
:1000A0000C9435040C9435040C9435040C943504EC
:1000B0000C9435040C9435040C9435040C943504DC
:1000C0000C9435040C9435040C9435040C943504CC
:1000D0000C9435040C9435040C946F340C94453412
:1000E0000C9435040C9475040C94A7060C94C20669
:1000F0000C94DE060C947D040C94AC180C94A104B2
:100100000C94C6060C94AD1E0C9439180C94571E12
:100110000C9487330C94E3070C949A040C94B9065E
:100120000C9440080C9429180C94C8180C94810461
:100130000C949E330C944A080C94D2330C94650AA8
:100140000C946A120C94D0060C94BC060C941D18E6
:100150000C94B1060C9486180C94DA060C94C41412
:100160000C94BB0E0C944E1E0C94D4060C949D164D
:100170000C94CC330C947F040C94290F0C94EB0753
:100180000C94C4180C94CC180C94E8060C944D18DC
:100190000C9423180C947A180C9463180C94B807D8
:1001A0000C94B40E0C942E2D0C94F7180C947B0424
:1001B0000C94F5070C9473040C94F2090C94220827
:1001C0000C9477040C9490040C942C080C94351720
:1001D0000C94920E0C946F040C9466330C94B0073C
:1001E0000C94D5330C94DE180C94C6140C949E0415
:1001F0000C94C3040C94CC060C948D040C94C50987
:100200000C943F240C9417180C94E7060C94B50634
:100210000C9458180C94A1160C946A040C9468124F
:100220000C94FF070C9480150C94C4040C94840463
:100230000C94D6420C94230A0C949A160C949804AD
:100240000C9497160C946F1E0C94D1070C947104A7
:100250000C94AD060C9433180C940E100C946E187C
:100260000C948B360C949C040C9488240C943704C6
:100270000C94010A0C94A10E0C9463330C94AA25DF
:100280000C94B6330C94E80E0C9492040C94DB0797
:100290000C946D040C94CF330C94F0180C94910EC4
:1002A0000C9489040C94FE180C940D330C94D41EF9
:1002B0000C94C7070C94C2090C94CA0F0C94A404A4
:1002C0000C94EC060C948B040C94B20A0C94951EBE
:1002D0000C9436080C94E7180C942C150C94E20638
:1002E0000C94BD070C9401330C9487040C941808EB
:1002F0000C9409080C94150A0C94A918DDDFE9EF99
:10030000F3F6F9FBFDFE00010203040506070809E8
:100310000A5761726E696E673A2043616C63756C4F
:1003200061746564206D7573696320636F756E74A5
:100330002065786365656473206D6178696D756D9E
:1003400020706F737369626C653B20534420636156
:10035000726420636F7272757074696F6E206C695D
:100360006B656C7921005761726E696E673A205433
:100370007261636B20636F756E7420646F657320A8
:100380006E6F74206D61746368206669726D776149
:1003900072652120506C65617365207570646174AD
:1003A0006520746865206D6963726F5344206361D2
:1003B000726420736F756E6420656666656374731E
:1003C0002E000000000000000000000000000101FD
:1003D00001010101010102020202020203030303FF
:1003E00004040404050505050606060707070808B2
:1003F000080909090A0A0B0B0B0C0C0D0D0E0E0F48
:100400000F101011111212131314141515161717BB
:100410001818191A1A1B1C1C1D1E1E1F2020212211
:100420002323242526262728292A2A2B2C2D2E2F44
:100430002F30313233343536373838393A3B3C3D5A
:100440003E3F4041424344454647494A4B4C4D4E4E
:100450004F5051525455565758595B5C5D5E5F6121
:10046000626364666768696B6C6D6F7071737475D5
:100470007778797B7C7E7F808283858688898B8C68
:100480008E8F9192949597989A9B9D9EA0A2A3A5DA
:10049000A6A8AAABADAFB0B2B4B5B7B9BABCBEC02E
:1004A000C1C3C5C7C8CACCCECFD1D3D5D7D9DADC62
:1004B000DEE0E2E4E6E8E9EBEDEFF1F3F5F7F9FB76
:1004C000FDFF646576696365457869744D656E7591
:1004D0007C00646576696365456E7465724D656E12
:1004E000757C00446576696365204F6E2C205379D6
:1004F0007374656D20566F6C2D20004465766963BA
:1005000065204F6E2C2053797374656D20566F6C87
:100510002B20004572726F722C2053797374656DB5
:1005200020566F6C2D20004572726F722C2053790B
:100530007374656D20566F6C2B200044657669637B
:1005400065204F66662C2053797374656D20566F55
:100550006C2D2000446576696365204F66662C200B
:1005600053797374656D20566F6C2B20004465764B
:10057000696365204F66662C204D7573696320564C
:100580006F6C2D2000446576696365204F66662C8C
:10059000204D7573696320566F6C2B20004D656E7E
:1005A000752C204D7573696320566F6C2D20004D9E
:1005B000656E752C204D7573696320566F6C2B200A
:1005C0000053746F70204D7573696300506C6179CE
:1005D000204D75736963004E6578742054726163B1
:1005E0006B3A2023005072657620547261636B3A37
:1005F0002023004D656E752C204566666563747317
:1006000020566F6C2D20004D656E752C204566665A
:100610006563747320566F6C2B2000546F67676C92
:1006200065204D757369632053687566666C650057
:100630004D656E752C2053797374656D20566F6C03
:100640002D20004D656E752C2053797374656D20D7
:10065000566F6C2B2000546F67676C65204D757367
:100660006963204C6F6F70004E6F20417564696F35
:1006700020446576696365005573696E672057414C
:10068000562054726967676572005761726E696EB1
:10069000673A205253505F53595354454D5F494E6A
:1006A000464F206E6F7420726563656976656421BC
:1006B000005573696E67204750537461722041750D
:1006C00064696F2056657273696F6E3A2000CED5EB
:1006D000DFE5E9ECEFF1F3F4F6F7F8F9FAFBFCFDEE
:1006E000FEFF0000002100240027002A002D00301A
:1006F00000330001010000040107010A010000228B
:1007000000250028002B002E0031003400020100DB
:1007100000050108010B010000200023002600292C
:10072000002C002F00320000010000030106010927
:100730000105050505070508080808020202020A66
:100740000A08080404040401010101010101010374
:1007500003030303030303040707070C0C0C0C0C2F
:100760000C0C0C0202020206060606060606060B22
:100770000B0B0B0B0B0B0B01021020200808102099
:10078000401020408002010201080402010102041D
:1007900008102040808040201008040201800402DC
:1007A0000180402010080402010804020101020433
:1007B0000810204080010204081020408000000A38
:1007C0000B02090C0D0E08070304010000000000D5
:1007D0000000000000000000000000000000000019
:1007E00000000000000000000012111000000000D6
:1007F00000000000000000000000000000000000F9
:10080000000000008B36D64211241FBECFEFD1E28C
:10081000DEBFCDBF00E00CBF13E0A0E0B2E0E8E82F
:10082000FDE800E00BBF02C007900D92A035B107B4
:10083000D9F72AE0A0E5B3E001C01D92A93CB207B8
:10084000E1F714E0C3E0D4E000E006C0219701091D
:10085000802FFE010E947444C230D10780E0080757
:10086000A9F70E94C93A0C94B2460C94000083B7D1
:10087000817F83BF83B7816083BF83B7816083BF7C
:10088000889583B78E7F83BF83B78E7F83BF08959C
:100890006150663108F049C0E62FF0E08827EC5A35
:1008A000FB4F8F4F0C947444A4049A049C049E0440
:1008B0006A04A1046D046F04710473047504770461
:1008C0007B047D047F0481048404870489048B04F1
:1008D0008D04900460E07FEF0CC065E0FCCF6AE01F
:1008E000FACF6FE0F8CF64E1F6CF60E2F4CF70E8C2
:1008F0006BE2842F089560E4EECF60E5ECCF60E614
:10090000EACF7FEF60E6F5CF78E760E7F2CF60E807
:10091000E2CF61E9E0CF60EADECF78EC6AEAE9CFC6
:1009200064EBD9CF64E670E0E4CF60E040E0D3CF81
:1009300064E6D1CF64E2CFCF64EFCDCF70E864EF4F
:10094000D8CF70EC60E0D5CF653190F7E62FF0E0BE
:100950008827E255FB4F8F4F0C94744492049804FF
:1009600098049204980492049804980498049804B3
:1009700098049204980498049804920492049804A9
:100980009804980492040895089587FF2FC0109248
:1009900036081092350880913808882331F180910B
:1009A0003708E0913508F0913608ED5AF84F662384
:1009B00061F1882341F1848D87FD17C0E82FE6950A
:1009C000E695E695F0E0E95EF74F282F277081E085
:1009D00090E0A0E0B0E004C0880F991FAA1FBB1FE1
:1009E0002A95D2F72081822B808308958C313CF0A8
:1009F0008BE190E09093360880933508CCCF082E99
:100A0000000C990BF7CF8081D7CF8823D1F0248DAC
:100A100027FDEBCFE22FE695E695E695F0E0E95E5F
:100A2000F74F277081E090E0A0E0B0E004C0880FAD
:100A3000991FAA1FBB1F2A95D2F780959081892301
:100A4000D3CF2081E5CF4F925F926F927F928F92AA
:100A50009F92AF92BF92CF92DF92EF92FF920F934D
:100A60001F93CF93DF9300D01F921F92CDB7DEB7B5
:100A7000209122042D834B015C0104C0B694A794FD
:100A8000979487942A95D2F7409026045090270493
:100A900060902804709029046B017C01C420D5204B
:100AA000E620F72080912A0490912B04A0912C0439
:100AB000B0912D0489839A83AB83BC83F0E0E0E09E
:100AC00029813A814B815C81282539254A255B257E
:100AD00065EB77E782E99CE20E944444DC01CB01AC
:100AE0008B5F944BA94AB3458C019D014CE136952F
:100AF0002795179507954A95D1F70C5F1F4F9C01D5
:100B0000AD0104C056954795379527950A95D2F7BC
:100B1000282739274A275B2769ED72EF8EE890E195
:100B20000E9444448B019C0156E136952795179508
:100B300007955A95D1F7DC01CB0180279127A22791
:100B4000B32784219521A621B7218C259D25AE258B
:100B5000BF25319675016401E430F10521F50D8062
:100B600004C0880F991FAA1FBB1F0A94D2F7BC01AB
:100B7000CD01682979298A299B290F900F900F9020
:100B80000F900F90DF91CF911F910F91FF90EF90F9
:100B9000DF90CF90BF90AF909F908F907F906F909D
:100BA0005F904F9008954C015D018ACF4F925F9204
:100BB0006F927F928F929F92AF92BF92CF92DF926D
:100BC000EF92FF920F931F93CF93DF9300D01F926A
:100BD0001F92CDB7DEB7209122042D834B015C011B
:100BE00004C0B694A794979487942A95D2F740901E
:100BF00026045090270460902804709029046B010B
:100C00007C01C420D520E620F72080912A04909111
:100C10002B04A0912C04B0912D0489839A83AB837B
:100C2000BC83F0E0E0E029813A814B815C812C2596
:100C30003D254E255F2565EB77E782E99CE20E9422
:100C40004444DC01CB018B5F944BA94AB3458C0132
:100C50009D014CE136952795179507954A95D1F753
:100C60000C5F1F4F9C01AD0104C056954795379509
:100C700027950A95D2F7282739274A275B2769ED58
:100C800072EF8EE890E10E9444448B019C0156E192
:100C900036952795179507955A95D1F7DC01CB0125
:100CA00080279127A227B32784219521A621B72148
:100CB000BC01CD01682579258A259B253196460101
:100CC0005701E430F10511F50D8004C0CC0CDD1C9A
:100CD000EE1CFF1C0A94D2F76C297D298E299F29CE
:100CE0000F900F900F900F900F90DF91CF911F9169
:100CF0000F91FF90EF90DF90CF90BF90AF909F90BB
:100D00008F907F906F905F904F9008956B017C0162
:100D10008ACF8150823108F05AC0E82FF0E088274E
:100D2000EB56F94F8F4F0C947444B506B906A706DD
:100D3000AD06B106E706BC06C206C606CC06D0065E
:100D4000D406DA06DE06E706E206E806EC0680913F
:100D500080008F77809380000895809180008F7D40
:100D6000F9CF80918000877FF5CF84B58F7784BDE0
:100D7000089584B58F7DFBCF8091B0008F778093ED
:100D8000B00008958091B0008F7DF9CF80919000E0
:100D90008F77809390000895809190008F7DF9CF98
:100DA00080919000877FF5CF8091A0008F7780930E
:100DB000A00008958091A0008F7DF9CF8091A000C0
:100DC000877FF5CF809120018F7780932001089550
:100DD000809120018F7DF9CF80912001877FF5CF11
:100DE000CF93DF93282F30E0F901E354F84F84913B
:100DF000F901E958F84FD491F901EF5CF84FC4912B
:100E0000CC23A1F081110E948906EC2FF0E0EE0FB7
:100E1000FF1FE95EF84FA591B491EC91ED2381E0BD
:100E200090E009F480E0DF91CF91089580E090E0B8
:100E3000FACF1F93CF93DF93282F30E0F901E354CB
:100E4000F84F8491F901E958F84FD491F901EF5C1A
:100E5000F84FC491CC23A9F0162F81110E94890666
:100E6000EC2FF0E0EE0FFF1FE350F94FA591B49186
:100E70008FB7F894EC91111108C0D095DE23DC9364
:100E80008FBFDF91CF911F910895DE2BF8CFCF93C5
:100E9000DF9390E0FC01E958F84F24918F5C984F64
:100EA000FC0184918823D1F090E0880F991FFC0108
:100EB000ED51F94FA591B491FC01E350F94FC59163
:100EC000D491623071F49FB7F8943C91822F809551
:100ED00083238C93E8812E2B28839FBFDF91CF91B2
:100EE00008958FB7F894EC912E2B2C938FBFF6CFEB
:100EF0001F93CF93DF93182FEB0161E00E94470708
:100F0000209739F460E0812FDF91CF911F910C94ED
:100F10001907CF3FD10511F461E0F5CFE12FF0E0E3
:100F2000E354F84FE491E150E23108F0B3C0F0E04F
:100F30008827E256F84F8F4F0C947444B007B807D7
:100F4000BD07C707D1074A08DB07E307EB07F5072B
:100F5000FF070908180822084A082C083608400824
:100F600084B5806884BDC7BDDF91CF911F9108957E
:100F700084B5806284BDC8BDF7CF80918000806851
:100F800080938000D0938900C0938800EDCF80913A
:100F90008000806280938000D0938B00C0938A0091
:100FA000E3CF80918000886080938000D0938D0093
:100FB000C0938C00D9CF8091B00080688093B0003E
:100FC000C093B300D1CF8091B00080628093B00015
:100FD000C093B400C9CF8091900080688093900046
:100FE000D0939900C0939800BFCF80919000806209
:100FF00080939000D0939B00C0939A00B5CF8091CE
:101000009000886080939000D0939D00C0939C00D6
:10101000ABCF8091A00080688093A0008091A00059
:101020008F7B8093A000D093A900C093A8009CCF91
:101030008091A00080628093A000D093AB00C09309
:10104000AA0092CF8091A00088608093A000D093E6
:10105000AD00C093AC0088CF809120018068809360
:101060002001D0932901C09328017ECF80912001D7
:10107000806280932001D0932B01C0932A0174CF0A
:1010800080912001886080932001D0932D01C0932E
:101090002C016ACFC038D1050CF03ECF33CF3FB71B
:1010A000F89480911D0490911E04A0911F04B091AA
:1010B000200426B5A89B05C02F3F19F00196A11D5D
:1010C000B11D3FBFBA2FA92F982F8827BC01CD0192
:1010D000620F711D811D911D42E0660F771F881FF1
:1010E000991F4A95D1F708958F929F92AF92BF9220
:1010F000CF92DF92EF92FF924B015C010E944F086A
:101100006B017C010E944F086C197D098E099F09B3
:10111000683E734081059105A8F321E0821A910889
:10112000A108B10888EEC80E83E0D81EE11CF11CAE
:1011300081149104A104B10429F7FF90EF90DF908E
:10114000CF90BF90AF909F908F9008952FB7F89455
:101150006091190470911A0480911B0490911C04F1
:101160002FBF0895AF92BF92CF92DF92EF92FF927E
:101170000F931F93CF93DF93D82E809150069091B9
:101180005106A0915206B0915306892B8A2B8B2BC6
:10119000D9F00E944F080091AC041091AD04209149
:1011A000AE043091AF04601B710B820B930B009166
:1011B0005006109151062091520630915306601747
:1011C000710782079307C8F20E944F086093AC042E
:1011D0007093AD048093AE049093AF04E0915806F1
:1011E000F0915906309759F04091540650915506A8
:1011F00060915606709157068D2D1995D82EC09185
:10120000AA04D091AB048AE8E82E84E0F82E870186
:10121000209749F184E00A3A180729F18D8588233F
:10122000F1F0E881F981A284B3840680F781E02D92
:10123000CE011995BC01CE01F5011995F8019183F4
:10124000808380914E0690914F068436910508F474
:101250001C860C80DD81C02D0E5F1F4FD9CFF80199
:1012600011821082EECFC091AA04D091AB0400E1AC
:1012700010E02097A9F08D85882361F04E855F8569
:101280006A817B81E881F9810280F381E02D2D2D37
:10129000CE0119950C80DD81C02D0150110949F74F
:1012A000C091AA04D091AB042097C9F0FAEAEF16D6
:1012B000F4E0FF06A1F08D85882351F0F7016081ED
:1012C0007181E881F9810484F585E02DCE011995BD
:1012D0000C80DD81C02DF2E0EF0EF11CE5CF809196
:1012E000880490918904EC012196D0938904C093DD
:1012F00088044997E4F10E94A608009184041091A3
:10130000850420918604309187046B017C01C01A0A
:10131000D10AE20AF30AA701960121153105410518
:10132000510521F421E030E040E050E088EE93E008
:10133000C89FB001C99F700DD89F700D1124072E52
:10134000000C880B990B0E94134430934F06209396
:101350004E0610928904109288040E94A608609399
:101360008404709385048093860490938704DF91AE
:10137000CF911F910F91FF90EF90DF90CF90BF9092
:10138000AF90089580E991E00895AF92BF92CF9217
:10139000DF92EF92FF920F931F93CF93DF936C0135
:1013A0007B018B01040F151FEB015E01AE18BF0816
:1013B000C017D10759F06991D601ED91FC910190C8
:1013C000F081E02DC6011995892B79F7C501DF91D0
:1013D000CF911F910F91FF90EF90DF90CF90BF9032
:1013E000AF900895FC01538D448D252F30E0842F5C
:1013F00090E0821B930B541710F0CF96089501973D
:101400000895FC01918D828D981761F0A28DAE0F29
:10141000BF2FB11D5D968C91928D9F5F9F73928FB0
:1014200090E008958FEF9FEF0895FC01918D828DDC
:10143000981731F0828DE80FF11D858D90E00895A9
:101440008FEF9FEF0895FC01918D228D892F90E001
:10145000805C9F4F821B91098F739927089580EBC1
:1014600094E00E94230A21E0892B09F420E0822FD6
:1014700008958DE495E00E94230A21E0892B09F468
:1014800020E0822F0895FC01A48DA80FB92FB11D73
:10149000A35ABF4F2C91848D90E001968F739927AA
:1014A000848FA689B7892C93A089B1898C91837088
:1014B00080648C93938D848D981306C00288F38981
:1014C000E02D80818F7D80830895EF92FF920F93AE
:1014D0001F93CF93DF93EC0181E0888F9B8D8C8DE0
:1014E00098131AC0E889F989808185FF15C09FB7D4
:1014F000F894EE89FF896083E889F9898081837097
:10150000806480839FBF81E090E0DF91CF911F9145
:101510000F91FF90EF900895F62E0B8D10E00F5F66
:101520001F4F0F731127E02E8C8D8E110CC00FB63C
:1015300007FCFACFE889F989808185FFF5CFCE01D4
:101540000E94430AF1CFEB8DEC0FFD2FF11DE35A02
:10155000FF4FF0829FB7F8940B8FEA89FB89808157
:101560008062CFCFCF93DF93EC01888D8823B9F0D1
:10157000AA89BB89E889F9898C9185FD03C080819E
:1015800086FD0DC00FB607FCF7CF8C9185FFF2CF1B
:10159000808185FFEDCFCE010E94430AE9CFDF9124
:1015A000CF91089580E090E0892B29F00E94390ABC
:1015B00081110E94000080E090E0892B49F080E0DA
:1015C00090E0892B29F00E94000081110E94000008
:1015D00080E090E0892B49F080E090E0892B29F0B1
:1015E0000E94000081110E94000080E090E0892BA1
:1015F00029F00E942F0A81110C9400000895FC012B
:1016000083A5882329F081E022A595A1291380E0F4
:101610000895CF92DF92EF92FF920F931F93CF9393
:10162000DF93EC018CA10E94F00621E0892B09F4E4
:1016300020E02EA30E94A60868A379A38AA39BA3F7
:10164000EEA12FA1E2132DC191E098A798A59923AF
:10165000F1F048A159A16AA17BA1088919892A89B9
:101660003B89DB01CA01801B910BA20BB30B8C01E0
:101670009D01C880D980EA80FB80C016D106E206B1
:10168000F30628F4E9A7488B598B6A8B7B8BEFA371
:101690001BA629A58AA52817C1F088A199A1AAA1EE
:1016A000BBA14C895D896E897F89841B950BA60B34
:1016B000B70B4C815D816E817F81481759076A079E
:1016C0007B0718F42AA781E08BA71FA6CE010E94F2
:1016D000FF0A8823B9F088A199A1AAA1BBA1488DCE
:1016E000598D6A8D7B8D841B950BA60BB70B4C8592
:1016F0005D856E857F8584179507A607B70708F473
:10170000D6C018AA88A91BA5811131C011112DC0FE
:101710009AA58DA1981741F1C88CD98CEA8CFB8CC5
:101720008C8D9D8DAE8DBF8D8C199D09AE09BF0925
:10173000488559856A857B85481759076A077B075D
:1017400008F4B8C048A159A16AA17BA14C195D0950
:101750006E097F0981E0CC84DD84EE84FF844C1522
:101760005D056E057F0508F480E08FA788ABCE018C
:101770000E94FF0A8823B9F048A159A16AA17BA160
:10178000888D998DAA8DBB8D481B590B6A0B7B0BDD
:1017900081E0CC84DD84EE84FF844C155D056E050C
:1017A0007F0508F080E08EA71CA6112321F09AA5E2
:1017B0008DA198131DA68DA581111FC011111BC0ED
:1017C0009AA58DA1981378C048A159A16AA17BA1BF
:1017D000888D998DAA8DBB8D481B590B6A0B7B0B8D
:1017E00081E0C884D984EA84FB84C416D506E60661
:1017F000F70608F080E08CA78DA7112391F0C8A010
:10180000D9A0EAA0FBA0CC8ADD8AEE8AFF8ACE01AD
:101810000E94FF0A882309F451C0C88ED98EEA8E2F
:10182000FB8EE9A8FAA8E114F10409F44CC0CE013A
:101830000E94FF0A882309F446C08BAD9CADF701D6
:101840001995EDA9FEA9309741F08CA5882329F0C0
:10185000DE01DF968D919C911995EFA9F8AD309737
:1018600049F08EA5882331F0DE01AF5BBF4F8D912B
:101870009C911995E9ADFAAD309749F08FA5882371
:1018800031F0DE01AD5BBF4F8D919C9119958BA519
:10189000DF91CF911F910F91FF90EF90DF90CF904C
:1018A000089518A6688B798B8A8B9B8BCFCE81E0AD
:1018B00088AB28CF812F59CF812F9DCFCC8EDD8E45
:1018C000EE8EFF8EAECFEBA9FCA9309709F4B9CF0D
:1018D000112309F4B6CF9AA58DA1981709F4B1CFB9
:1018E0008DAD9EADADCF8F929F92AF92BF92CF92B2
:1018F000DF92EF92FF920F931F93CF93DF93FC0140
:101900002085211110C060E070E0CB01DF91CF9104
:101910001F910F91FF90EF90DF90CF90BF90AF900D
:101920009F908F900895EC010E94A60829852111AF
:10193000EACF8C809D80AE80BF80088119812A818A
:101940003B816B017C01C818D908EA08FB08C01666
:10195000D106E206F306B8F6080D191D2A1D3B1D37
:1019600068017901C61AD70AE80AF90AC701B6015F
:10197000CDCFCF92DF92EF92FF921F93CF93DF9361
:10198000FC01108511110AC010E0812FDF91CF9169
:101990001F91FF90EF90DF90CF900895EC0181852B
:1019A000882319F018861986F0CF0E94A608CC80EB
:1019B000DD80EE80FF806C197D098E099F09C8804B
:1019C000D980EA80FB806C157D058E059F0550F758
:1019D000DBCFCF93DF93EC01488359836A837B830A
:1019E0000E94A6086C837D838E839F8381E0888715
:1019F0001986DF91CF9108950F931F93CF93DF93B3
:101A0000EC010E94A6088B019C018C819D81AE8116
:101A1000BF81488159816A817B81081B190B2A0B80
:101A20003B0B041715072607370738F4CE01DF9163
:101A3000CF911F910F910C94E90C840F951FA61F55
:101A4000B71F8C839D83AE83BF8381E0888719860F
:101A5000DF91CF911F910F9108952091AD03260F33
:101A60003327331F21323105ECF420915A04FC0155
:101A700090E080E0243069F082E00895A091AD0309
:101A80002191AC0143575C4FA40FB52FB11D2C938E
:101A90000196861798F38091AD03680F6093AD03AC
:101AA00080E0089581E0089510925A0481E08093C7
:101AB00059041092340461E084E10E94190761E046
:101AC00085E10E941907E9EBF0E080818E7F808339
:101AD00080818D7F808388E48093B80085E4809343
:101AE000BC000895109233041092320410926104E5
:101AF000109283040E94540D83EC94E0909331047F
:101B00008093300484EC94E090932F0480932E040F
:101B10000895CF93DF9391E090938C038823B9F0DD
:101B2000C091B800D091BA008091BC008A7B8093AC
:101B3000BC0060E084E10E94190760E085E10E943A
:101B400019070E94540DD093BA00C093B800DF91DA
:101B5000CF910895CF92DF92EF92FF920F931F9350
:101B6000CF93DF93D091830481E0D13208F09CC001
:101B7000C09182040E944F086B017C0180915A043D
:101B800081116CC082E080935A0481E080935904F3
:101B90008FEF8093580410925704D0935604A2E616
:101BA000B4E0E6E3F4E080E0D8138DC01092350491
:101BB00080913504CC0FC82BC09335048091340438
:101BC000813009F084C0109234040E944F086B01E8
:101BD0007C01809135048093BB0080915C049091DE
:101BE0005D04A0915E04B0915F04892B8A2B8B2B3E
:101BF000A1F00E944F0800915C0410915D042091B7
:101C00005E0430915F046C197D098E099F090617E7
:101C100017072807390708F442C08091BC0083FDEC
:101C2000D8CF85EC8093BC000E944F086B017C01EB
:101C300080915A04823009F44CC0809158048F3F3F
:101C400009F469C080915804803209F466C080911B
:101C50005804803309F463C084E026C080915C049A
:101C600090915D04A0915E04B0915F04892B8A2B52
:101C70008B2B09F483CF0E944F0800915C041091D4
:101C80005D0420915E0430915F046C197D098E091A
:101C90009F09061717072807390708F06FCF8091AB
:101CA0005B040E94890D85E0109261041092830408
:101CB00010926004DF91CF911F910F91FF90EF90F0
:101CC000DF90CF9008959D9191938F5F6DCF85EEBA
:101CD000A9CF80915C0490915D04A0915E04B091C5
:101CE0005F04892B8A2B8B2B09F4A2CF0E944F080B
:101CF00000915C0410915D0420915E0430915F04BA
:101D00006C197D098E099F090617170728073907DF
:101D100008F08ECFC4CF80E0C7CF82E0C5CF83E08C
:101D2000C3CF0895E091330480913204E81730F472
:101D3000F0E0E459FC4F808190E008958FEF9FEF31
:101D4000089590913304809132042FEF3FEF98175C
:101D500048F4E92FF0E0E459FC4F208130E09F5F28
:101D600090933304C9010895809132049091330413
:101D7000891B990B0895CF92DF92EF92FF920F93F8
:101D80001F93CF93DF937C01CB018A0120916004E4
:101D9000222389F0EB016B01C40ED51ECC15DD05A5
:101DA00069F06991D701ED91FC910190F081E02DEE
:101DB000C7011995F3CF642F0E942D0DC801DF9143
:101DC000CF911F910F91FF90EF90DF90CF900895EA
:101DD000CF93DF931F92CDB7DEB769832091600464
:101DE0002223F9F020918304203258F021E030E0E2
:101DF000FC013383228390E080E00F90DF91CF914C
:101E0000089580916104E82FF0E0EE59FB4F99812D
:101E100090838F5F809361048093830481E090E0DE
:101E2000ECCF61E0CE0101960E942D0DF7CF90918D
:101E30002D0821E0209360049093820410926104A5
:101E400010928304682F81E496E00E94E80E0C94BF
:101E5000AA0D90E080E00895FC018081869F080E25
:101E600080E0811D80838181869F080E80E0811D36
:101E700081838281869F080E80E0811D82831124E8
:101E8000CF010895AF92BF92CF92DF92EF92FF926F
:101E90000F931F93CF93DF9300D0CDB7DEB75A01D6
:101EA00019821A821B82882361F18B01E1E0F0E044
:101EB000E82EF12CD8012D918D012223F1F06F0134
:101EC000B1E0CB1AD108D501AC0DBD1D4C91442316
:101ED000A1F030E02F5F3F4FD7010E943544A42F7F
:101EE000B0E011969B01AC010E940044A1E0B0E07B
:101EF000AC0FBD1FAC0DBD1D8C933196E430F105C8
:101F0000C9F669817A818B810F900F900F90DF91D4
:101F1000CF911F910F91FF90EF90DF90CF90BF90E6
:101F2000AF900895FC0186EE92E091838083138246
:101F300012828FEF8683878380878187828783875A
:101F400081E0848785871786168680E797E1918BE5
:101F5000808B83E090E0938B828B158A148A1582A4
:101F600014828091AA049091AB04892B21F4F09300
:101F7000AB04E093AA04A0916A03B0916B0310979D
:101F800021F01596FC93EE931497F0936B03E09376
:101F90006A03089581E090E0089580914D060C94C5
:101FA000B2080F931F93CF93DF9320915B032F5FB2
:101FB000322F377030935B0320FF2BC020E831FDB8
:101FC0002064347009F02062205FFC01EC0123964C
:101FD00000E011E06785662329F070E0C8010E94E7
:101FE00060446F5F6187822F869F080E80E0811DAD
:101FF0001124811110C01682662311F0615061878F
:102000003196EC17FD0731F7DF91CF911F910F91BA
:10201000089520E0D4CF81508683EECF4F925F9217
:102020007F928F929F92AF92BF92CF92DF92EF9268
:10203000FF920F931F93CF93DF932C01EB010E942C
:102040004F08F20126893789621B730B6A307105CC
:10205000B0F3F8948A819B81181619060CF0CDC153
:10206000E881F98165B1862E689484F835B13F7EA8
:1020700035B9DA848F812D2D281B822F2F834C8533
:10208000042E000C550BAA81BB817889FF84E98856
:102090007F5FF394E3949E819884B984AB8411812B
:1020A000C12C6C2D0C2D2C2D2181112788942111F0
:1020B000280F08F42FEF8195889470FD120F179563
:1020C000889471FD120F1795889472FD120F179561
:1020D000889473FD120F1795889474FD120F17954D
:1020E000889475FD120F1795889476FD120F179539
:1020F000889477FD120F17958894622F7111612FC4
:102100008D0D162F002C85B800C017FF35B9208122
:102110006627889400C000C0002C35B92111290F12
:1021200000C0002C85B800C016FF35B908F42FEFA9
:102130009195889400C000C0002C35B9F0FC620F66
:1021400000C0002C85B800C015FF35B9679588948C
:10215000F1FC620F00C000C0002C35B9679588946F
:1021600000C0002C85B800C014FF35B9F2FC620F26
:102170006795889400C000C0002C35B9F3FC620F4D
:1021800000C0002C85B800C013FF35B9679588944E
:10219000F4FC620F00C000C0002C35B9679588942C
:1021A00000C0002C85B800C012FF35B9F5FC620FE5
:1021B0006795889400C000C0002C35B9F6FC620F0A
:1021C00000C0002C85B800C011FF35B96795889410
:1021D000F7FC620F00C000C0002C35B967958894E9
:1021E00000C0002C85B800C010FF35B9122FF110C7
:1021F000162F9B0D00C000C0002C35B900C000C0D8
:10220000002C85B800C017FF35B922816627889455
:1022100000C000C0002C35B92111290D00C0002CD0
:1022200085B800C016FF35B908F42FEFE40FF51F8D
:1022300000C000C0002C35B9E0FC620F00C0002CCB
:1022400085B800C015FF35B967958894E1FC620F29
:1022500000C000C0002C35B96795889400C0002CE0
:1022600085B800C014FF35B9E2FC620F6795889409
:1022700000C000C0002C35B9E3FC620F00C0002C88
:1022800085B800C013FF35B967958894E4FC620FE8
:1022900000C000C0002C35B96795889400C0002CA0
:1022A00085B800C012FF35B9E5FC620F67958894C8
:1022B00000C000C0002C35B9E6FC620F00C0002C45
:1022C00085B800C011FF35B967958894E7FC620FA7
:1022D00000C000C0002C35B96795889400C0002C60
:1022E00085B800C010FF35B9122FE110162F919458
:1022F00000C000C0002C35B99A0C00C000C085B8E1
:1023000000C017FF35B921816627889400C000C03E
:10231000002C35B92111280F00C0002C85B800C051
:1023200016FF35B908F42FEF8195889400C000C0DE
:10233000002C35B970FD620F00C0002C85B800C0BC
:1023400015FF35B96795889471FD620F00C000C014
:10235000002C35B96795889400C0002C85B800C062
:1023600014FF35B972FD620F6795889400C000C0F4
:10237000002C35B973FD620F00C0002C85B800C079
:1023800013FF35B96795889474FD620F00C000C0D3
:10239000002C35B96795889400C0002C85B800C022
:1023A00012FF35B975FD620F6795889400C000C0B3
:1023B000002C35B976FD620F00C0002C85B800C036
:1023C00011FF35B96795889477FD620F00C000C092
:1023D000002C35B96795889400C0002C85B800C0E2
:1023E00010FF35B9122F7111162F8D0D00C000C0CE
:1023F000002C35B9119709F086CEEA81FB812EE1D8
:1024000030E0DF010E947C4430E020E0A901AAE92D
:10241000EA9F0E0E411DFA9F400D511D11244F0FD2
:10242000511DDC01CB01840F951FA11DB11D893EFB
:1024300043E09407A105B10508F434C0885E9340D9
:10244000A109B10942E0B695A795979587954A9558
:10245000D1F747E0849F080E211D949F200D311D68
:102460001124290F311D60915A0370E0860F971FC8
:10247000820F931F4091190450911A0460911B041C
:1024800070911C04292F3327420F531F611D711DAA
:102490004093190450931A0460931B0470931C0416
:1024A00080935A0378940E944F08F201778B668BD1
:1024B000DF91CF911F910F91FF90EF90DF90CF9020
:1024C000BF90AF909F908F907F905F904F900895B6
:1024D000249A08954F925F927F928F929F92AF922B
:1024E000BF92CF92DF92EF92FF920F931F93CF9301
:1024F000DF932C01EB010E944F08F20126893789F6
:10250000621B730B6A307105B0F3F8948A819B816A
:10251000181619060CF0CDC1E881F98165B1862E37
:10252000689486F835B13F7B35B9DA848F812D2DDB
:10253000281B822F2F834C85042E000C550BAA815B
:10254000BB817889FF84E9887F5FF394E3949E815F
:102550009884B984AB841181C12C6C2D0C2D2C2D49
:102560002181112788942111280F08F42FEF8195DC
:10257000889470FD120F1795889471FD120F1795AE
:10258000889472FD120F1795889473FD120F17959A
:10259000889474FD120F1795889475FD120F179586
:1025A000889476FD120F1795889477FD120F179572
:1025B0008894622F7111612F8D0D162F002C85B814
:1025C00000C017FF35B920816627889400C000C07D
:1025D000002C35B92111290F00C0002C85B800C08E
:1025E00016FF35B908F42FEF9195889400C000C00C
:1025F000002C35B9F0FC620F00C0002C85B800C07B
:1026000015FF35B967958894F1FC620F00C000C0D2
:10261000002C35B96795889400C0002C85B800C09F
:1026200014FF35B9F2FC620F6795889400C000C0B2
:10263000002C35B9F3FC620F00C0002C85B800C037
:1026400013FF35B967958894F4FC620F00C000C091
:10265000002C35B96795889400C0002C85B800C05F
:1026600012FF35B9F5FC620F6795889400C000C071
:10267000002C35B9F6FC620F00C0002C85B800C0F4
:1026800011FF35B967958894F7FC620F00C000C050
:10269000002C35B96795889400C0002C85B800C01F
:1026A00010FF35B9122FF110162F9B0D00C000C07E
:1026B000002C35B900C000C0002C85B800C017FF41
:1026C00035B922816627889400C000C0002C35B936
:1026D0002111290D00C0002C85B800C016FF35B9A6
:1026E00008F42FEFE40FF51F00C000C0002C35B92F
:1026F000E0FC620F00C0002C85B800C015FF35B9A2
:1027000067958894E1FC620F00C000C0002C35B9C9
:102710006795889400C0002C85B800C014FF35B9B7
:10272000E2FC620F6795889400C000C0002C35B9A8
:10273000E3FC620F00C0002C85B800C013FF35B960
:1027400067958894E4FC620F00C000C0002C35B986
:102750006795889400C0002C85B800C012FF35B979
:10276000E5FC620F6795889400C000C0002C35B965
:10277000E6FC620F00C0002C85B800C011FF35B91F
:1027800067958894E7FC620F00C000C0002C35B943
:102790006795889400C0002C85B800C010FF35B93B
:1027A000122FE110162F919400C000C0002C35B9F3
:1027B0009A0C00C000C085B800C017FF35B9218150
:1027C0006627889400C000C0002C35B92111280F5D
:1027D00000C0002C85B800C016FF35B908F42FEFF3
:1027E0008195889400C000C0002C35B970FD620F3F
:1027F00000C0002C85B800C015FF35B967958894D6
:1028000071FD620F00C000C0002C35B96795889437
:1028100000C0002C85B800C014FF35B972FD620FEE
:102820006795889400C000C0002C35B973FD620F15
:1028300000C0002C85B800C013FF35B96795889497
:1028400074FD620F00C000C0002C35B967958894F4
:1028500000C0002C85B800C012FF35B975FD620FAD
:102860006795889400C000C0002C35B976FD620FD2
:1028700000C0002C85B800C011FF35B96795889459
:1028800077FD620F00C000C0002C35B967958894B1
:1028900000C0002C85B800C010FF35B9122F71118F
:1028A000162F8D0D00C000C0002C35B9119709F00E
:1028B00086CEEA81FB812EE130E0DF010E947C447C
:1028C00030E020E0A901AAE9EA9F0E0E411DFA9F1F
:1028D000400D511D11244F0F511DDC01CB01840F00
:1028E000951FA11DB11D893E43E09407A105B105C7
:1028F00008F434C0885E9340A109B10942E0B6955E
:10290000A795979587954A95D1F747E0849F080E3C
:10291000211D949F200D311D1124290F311D60911F
:102920005A0370E0860F971F820F931F409119047E
:1029300050911A0460911B0470911C04292F3327B5
:10294000420F531F611D711D4093190450931A04C7
:1029500060931B0470931C0480935A0378940E9424
:102960004F08F201778B668BDF91CF911F910F910A
:10297000FF90EF90DF90CF90BF90AF909F908F909F
:102980007F905F904F900895269A08956F927F925E
:102990008F92CF92DF92EF92FF920F931F93CF937C
:1029A000DF93CDB7DEB762970FB6F894DEBF0FBEE8
:1029B000CDBF8C016B017A01822FA801475F5F4F69
:1029C000B8016A5F7F4F0E94420F3B01882ED801F9
:1029D0001C962C91C701F7FE04C0882799278E19F1
:1029E0009F09DA82C9829C838B839E838D83688A48
:1029F000798A8A8A213049F5CE0101960E94D10F49
:102A000083E08D871F861E86F7FE02C08DEF8D87BF
:102A1000D801ED91FC910088F189E02DBE016F5F36
:102A20007F4FC801199562960FB6F894DEBF0FBEAE
:102A3000CDBFDF91CF911F910F91FF90EF90DF906D
:102A4000CF908F907F906F9008951C861B861A867A
:102A5000198618861F82D4CFCF92DF92EF92FF9211
:102A60000F931F93CF93DF93CDB7DEB762970FB667
:102A7000F894DEBF0FBECDBF8C016B017A01822FAF
:102A8000A801475F5F4FB8016A5F7F4F0E94420F06
:102A90009B01482FD8011C968C91DA82C982FC8256
:102AA000EB82FE82ED82288B398B4A8B813009F5CF
:102AB000CE0101960E94D10F1D861F861E86D80169
:102AC000ED91FC910088F189E02DBE016F5F7F4F91
:102AD000C801199562960FB6F894DEBF0FBECDBF40
:102AE000DF91CF911F910F91FF90EF90DF90CF90EA
:102AF00008951C861B861A86198618861F82DCCFCD
:102B00008091450890914608892B31F080914308C7
:102B1000909144080597B1F010923608109235084C
:102B20001092340881E090E0909346088093450825
:102B3000109241081092420885E090E0909344087A
:102B4000809343080895E0E7FAE01086118610921A
:102B5000560370E060E08BE00C9478079091870A50
:102B60009330C9F02091E3089230B9F4222399F010
:102B7000682F70E0660F771F6134710514F060E410
:102B800070E08091560386171706B9F060935603DC
:102B90008BE00C9478070C94A31590915603222394
:102BA00069F0682F70E0660F771F6134710514F0CB
:102BB00060E470E09617170649F708958917E9F35E
:102BC00080935603682F70E0E3CF282F853608F0F6
:102BD00024E6822F65E00E945444992361F0822FFD
:102BE00090E0029665E070E00E946044862F880FB6
:102BF000880F282F260F822F65E00E945444E82F6B
:102C0000F0E080916403882321F0E450FD4F84912B
:102C10000895E253F94FFBCFCF93DF93EC0161E0CE
:102C200088810E9447076A818881DF91CF910C9447
:102C30001907CF92DF92EF92FF921F93CF93DF930A
:102C4000642F422F0E944804562F472F282F182FF9
:102C5000782F442309F45AC0852F6BE20E94544414
:102C6000382F65ED6303C0011124850F911D682F76
:102C7000660F680F660FC22FD0E0E42EF12CEFEF45
:102C8000F0E0CF018E199F098C9FD0018D9FB00D70
:102C90009C9FB00D11248B2F469FA0011124452F1E
:102CA000550F550B6F01C41AD50ACC9EA001CD9EBD
:102CB000500DDC9E500D11246F01C61AD108CE9C18
:102CC000B001CF9C700DDE9C700D1124672F770F23
:102CD000770BE61BF70BEC9F7001ED9FF00CFC9F50
:102CE000F00C11247F2D3230D1F038F4332371F001
:102CF000313051F07B2F852F09C03330A1F03430B3
:102D0000C9F72F2D7B2F11C0722F252F622FDF9136
:102D1000CF911F91FF90EF90DF90CF9008952B2FD0
:102D20008F2D712FF3CF752F2B2F812FEFCF90E0A9
:102D300080E00895FC0164870895FC01848590E09B
:102D40000895FC01868597850895FC018081811195
:102D500009C08181811106C081E09281911103C077
:102D600080E0089581E00895EF92FF921F93CF9342
:102D7000DF93EC011A8111708A818E7F8A838A81A8
:102D80008D7F8A838FA598A90097A1F0112391F0D8
:102D9000E9A5FAA5309771F0DC011496ED90FC904E
:102DA00015971596DC93CE9314971995EFA5F8A96E
:102DB000F582E482812FDF91CF911F91FF90EF90F8
:102DC00008950F931F93CF93DF93FC01A7A5B0A99C
:102DD000109709F448C0EC0111A212A213A214A288
:102DE00082818B7F828307A0F0A5E02D3097B9F117
:102DF0008A8181FD34C014960D911C91159715960A
:102E0000DC93CE9314978A8182608A8319959A8184
:102E100080FB90F99A838A818D7F8A83EFA5F8A938
:102E2000158304838B819C81AD81BE818F839887BC
:102E3000A987BA870E94A6080F81188529853A8537
:102E4000601B710B820B930B6B877C878D879E8732
:102E50008A818170DF91CF911F910F9108958A81AE
:102E600081608A83DFCF80E0F5CFCF93DF93EC01E1
:102E70008AE493E0998388838A8180FF03C0CE012E
:102E80000E94B416EFA5F8A9309721F11186868922
:102E90009789A08DB18D0197A109B109868B978B78
:102EA000A08FB18F2DA53EA586819781C817D90720
:102EB00011F43783268318AA1FA68BA59CA500971B
:102EC000A1F42115310549F4118210821382128276
:102ED00081E08187DF91CF910895D9019C961C9262
:102EE0001E929B9731832083F3CFDC01211531059E
:102EF00039F49E961C921E929D9793838283E8CF0D
:102F00009E963C932E939D97ADA5BEA59C969C93B3
:102F10008E939B97DDCF0E944F08CB0108950F93AE
:102F20001F93CF93DF938C0180912D0891E09093B4
:102F3000600480938204109261041092830460E024
:102F400081E496E00E94E80EE801005F1F4F69915E
:102F500081E496E00E94E80E0C171D07C1F7DF918F
:102F6000CF911F910F910C94AA0D8091380888235E
:102F700021F087E198E00C948F170895CF92DF92AB
:102F8000EF92FF920F931F93CF93DF93CDB7DEB7EE
:102F9000DC010DB71EB73C91432F50E07A0181E070
:102FA000E81AF108EDB7FEB7E41BF50B0FB6F8947D
:102FB000FEBF0FBEEDBF6DB77EB76F5F7F4F20E0E6
:102FC0008AEAD82E90EFC92E822F90E08E159F05A9
:102FD0000CF01BC1233030F4FB01213021F12230F1
:102FE00021F1C08213969C911397992309F49AC0FA
:102FF000233008F438C0EDEFE20FEC3008F033C0B6
:10300000F0E08827E95FF74E8F4F0C947444A918BD
:1030100017181D182318291839184D18581863182F
:103020006E187A188618D182DDCF3283DBCF1496E2
:103030008C911497FB01848316C011968C91119783
:10304000FB01858310C012968C911297FB01868339
:103050000AC051968C915197882339F052968C91E1
:103060005297FB0187832F5FAFCF16968C911697EF
:10307000F8CF1A968C911A97882331F01B968C9171
:103080001B97FB018087EFCF51968C915197882336
:1030900051F353968C915397F4CF1A968C911A97BB
:1030A000882309F31C968C911C97FB018187DBCF49
:1030B0001A968C911A978823B1F21D968C911D97C0
:1030C000FB018287D0CF1E968C911E97882359F2E0
:1030D0001F968C911F97FB018387C5CF1E968C91FD
:1030E0001E97882309F4BFCF50968C915097FB010F
:1030F0008487B9CF17968C911797882309F4B3CF9B
:1031000018968C911897FB018587ADCF17968C91F7
:103110001797882309F4A7CF19968C911997FB016B
:103120008687A1CFEDEFE20FE83008F09CCFF0E00A
:1031300014969C9114978827EF55F74E8F4F0C9457
:103140007444A918AC18CC18DE18E718F018F71852
:10315000FE18FB01938387CF95509C3008F083CFF6
:10316000E92FF0E08827E854F74E8F4F0C94744411
:10317000C41833183318C418C818C4183318C4181E
:103180003318C818C818C41811968C91119752CFCB
:1031900016968C9116974ECF9A3031F048F49530B0
:1031A00019F0983009F05FCF12968C91129748CFA2
:1031B0009C30D1F3903109F056CFF6CF983019F00A
:1031C0009A3009F050CF1B968C911B973FCF9830C7
:1031D00019F09A3009F047CF1C968C911C9741CF7B
:1031E0009A3009F040CF18968C9118974ACF9A30B0
:1031F00009F039CF19968C91199757CF9A3009F069
:1032000032CF17968C9117975BCF860F971F25E5C6
:10321000DC012C938091E8069091E906DC01ED91A8
:10322000FC910280F381E02D19950FB6F8941EBF32
:103230000FBE0DBFDF91CF911F910F91FF90EF90C7
:10324000DF90CF900895CF93DF93CDB7DEB764972B
:103250000FB6F894DEBF0FBECDBFFE01359620E15C
:10326000DF011D922A95E9F729E029839B838A8350
:103270008DE08C8386E0611185E08D836F83CE01C4
:1032800001960E94BE1764960FB6F894DEBF0FBE7B
:10329000CDBFDF91CF910895CF93DF93CDB7DEB748
:1032A00064970FB6F894DEBF0FBECDBFFE01339614
:1032B00022E1DF011D922A95E9F729E029839B830A
:1032C0008A8388E08D837D876C87CE0101960E947A
:1032D000BE1764960FB6F894DEBF0FBECDBFDF9168
:1032E000CF91089580916203909163031816190697
:1032F00094F480911204909113040197039758F469
:103300006091C106062E000C770B809165039091A9
:1033100066030C944C190895809112049091130443
:103320000197039748F46091C206062E000C770BB4
:1033300083E090E00C944C190895CF93DF93CDB7C0
:10334000DEB764970FB6F894DEBF0FBECDBFFE01A7
:10335000359620E1DF011D922A95E9F729E02983BE
:103360009B838A838DE08C8381E08D836F83CE0184
:1033700001960E94BE1764960FB6F894DEBF0FBE8A
:10338000CDBFDF91CF910895CF93DF93CDB7DEB757
:1033900064970FB6F894DEBF0FBECDBF411551053F
:1033A00059F40E949D1964960FB6F894DEBF0FBEC3
:1033B000CDBFDF91CF910895FE01359620E1DF0169
:1033C0001D922A95E9F72BE029839B838A838BE161
:1033D0008C8381E08D836F8388875A874987CE01EC
:1033E00001960E94BE17DFCFCF93DF93CDB7DEB734
:1033F00064970FB6F894DEBF0FBECDBFFE013596C1
:1034000020E1DF011D922A95E9F728E029839B83BB
:103410008A8383E08C8384E08D83CE0101960E94B1
:10342000BE1764960FB6F894DEBF0FBECDBFDF9116
:10343000CF91089520911204309113042150310945
:103440002330310510F40C94F419089583E090E0D2
:103450000C941A1ACF93DF93CDB7DEB764970FB6EB
:10346000F894DEBF0FBECDBFFE01339622E1DF012F
:103470001D922A95E9F727E029839B838A8385E0BB
:103480008D83CE0101960E94BE1764960FB6F89404
:10349000DEBF0FBECDBFDF91CF910895CF93DF93F5
:1034A000CDB7DEB764970FB6F894DEBF0FBECDBFC1
:1034B000CE01019624E1FC0111922A95E9F725E05D
:1034C000298324E02D830E94BE1764960FB6F894DA
:1034D000DEBF0FBECDBFDF91CF910895CF93DF93B5
:1034E000CDB7DEB764970FB6F894DEBF0FBECDBF81
:1034F00020911204309113042150310922303105FA
:1035000080F4FE01319694E1DF011D929A95E9F76E
:1035100095E0998381110EC083E18D83CF010E94D4
:10352000BE1764960FB6F894DEBF0FBECDBFDF9115
:10353000CF91089582E1F1CFAF92BF92CF92DF9207
:10354000EF92FF920F931F93CF93DF93CDB7DEB728
:1035500064970FB6F894DEBF0FBECDBF5C01F62EA8
:10356000C42E14160CF4C12C8AEBC81614F48AEB82
:10357000C82E80911204909113048230910509F4B1
:1035800049C08330910511F0019799F50C2C000C7E
:10359000DD082223F9F06AEB7FEFC5010E944C1988
:1035A0006E2DC5010E949D19FE01339682E1DF0157
:1035B0001D928A95E9F78CE08983BB82AA828AE012
:1035C0008D83DD86CC861A870987CE0101960E94FD
:1035D000BE1708C0B601C5010E944C196E2DC50169
:1035E0000E949D1961E0F11001C060E0C5010E94D8
:1035F000231964960FB6F894DEBF0FBECDBFDF91DE
:10360000CF911F910F91FF90EF90DF90CF90BF90DF
:10361000AF9008950C2C000CDD08222361F06AEBBA
:103620007FEFC5010E944C1950E040E06E2DC501AE
:103630000E94C419B9CFB601C5010E944C1950E0CF
:1036400040E06E2DC5010E94C419CCCFEF920F93BC
:103650001F93EE24E3940CEA1DE0282F4091C2064C
:1036600061E083E090E00E949C1A1F910F91EF901F
:103670000895EF920F931F9380912102853010F5EA
:103680001092210287E090E00E941A1AE12C10E0CB
:1036900000E020E040E060E087E090E00E949C1ABB
:1036A0008091210223E2829FC001112464E670E030
:1036B0000E94604463526093C1061F910F91EF9086
:1036C0000C947219855080932102EACFEF920F93E8
:1036D0001F9380912102803618F184E680932102A5
:1036E00087E090E00E941A1AE12C10E000E020E050
:1036F00040E060E087E090E00E949C1A8091210207
:1037000023E2829FC001112464E670E00E946044BD
:1037100063526093C1061F910F91EF900C94721940
:103720008B5F80932102EACFEF920F931F93CF9389
:10373000C82F80911204909113040197039738F4D5
:1037400080912302082E000C990B0E942A1AC111A5
:103750001CC08091160490911704892BB1F48091BC
:103760006903882321F080915503882371F087E055
:1037700090E00E941A1AE12C10E000E020E040E006
:1037800060E087E090E00E949C1ACF911F910F911A
:10379000EF9008958093640381118AE0809354032D
:1037A000809108020E94E515809323028093C3064E
:1037B00081E00C94941B809123028D3DA9F08091AF
:1037C0000802853068F410920802809108020E9475
:1037D000E515809323028093C30680E00C94941B2C
:1037E000855080930802F1CF089590912302809133
:1037F00054039817A1F080910802803670F084E697
:1038000080930802809108020E94E51580932302AC
:103810008093C30680E00C94941B8B5FF1CF0895D6
:103820000F931F93CF93DF938091E8069091E90661
:10383000892B09F4DBC0CFEFDFEF11E003E08091CB
:10384000E8069091E906DC01ED91FC910084F18598
:10385000E02D1995892B09F4C9C08091E806909153
:10386000E906DC01ED91FC910284F385E02D1995C8
:1038700090910B07911105C0803FA9F510930B079C
:10388000DECF913041F48A3A21F482E080930B0735
:10389000D6CF80E0FBCF923099F4803F21F08A3A76
:1038A00011F0853529F410920B0710920C07C7CF41
:1038B0008132C8F7815080930C0700930B07BFCF6C
:1038C00020910C07921778F4E92FF0E0E951F94FB5
:1038D0008083803F41F38A3A31F3853521F39F5F3E
:1038E00090930B07ACCF20910C079213A8CF85358E
:1038F000D1F68091EA06843809F446C0A0F48138F4
:1039000009F466C0823879F68091EB0680930A0745
:103910008091EC069091ED0690932A0780932907F9
:1039200010933007C0CF8538E1F0863809F0BBCF5F
:103930008091EB0680930A072091EC063091ED060A
:1039400030932A0720932907993040F08091EE06A2
:103950009091EF0690932C0780932B0710933107DB
:10396000A2CF8091EB069091EC0690932E07809366
:103970002D0781E09091ED06911101C080E08093C8
:103980003207109233078FCF8091ED068E3008F00A
:103990008ACF2091EB063091EC062F5F3F4F90E0ED
:1039A0004091EE06880F991F41110CC0FC01E851AF
:1039B000F94F85A196A12817390709F074CFD6A32E
:1039C000C5A371CF8851994FFC0136A325A36BCFB6
:1039D00084E1EBEEF6E0A4E3B7E001900D928A9566
:1039E000E1F71092480710932F075DCFDF91CF9139
:1039F0001F910F91089580911204909113040197E3
:103A0000039798F480916203909163031816190646
:103A100054F48091650390916603843F21E09207FE
:103A200010F00E94F4190E94101C1092550310927D
:103A30006903089580916203909163031816190633
:103A40000CF05DC08091650390916603843F21E096
:103A5000920708F454C021E02093690320911204D6
:103A6000309113042230310569F12330310519F00A
:103A700021303105F9F42091680361E0211101C082
:103A800060E00E9423196091C106062E000C770B9E
:103A900080916503909166030E944C1961E08091CA
:103AA0006503909166030E949D190E94101C81E09D
:103AB0008093330740E157E260E070E084EC96E0E9
:103AC0000C94E90C2091680361E0211101C060E0D1
:103AD0000E9423196091C106062E000C770B80917D
:103AE0006503909166030E944C1950E040E061E04C
:103AF00080916503909166030E94C419D6CF089502
:103B0000E7E1F8E080E1DF011D928A95E9F7CF0156
:103B10000C948F178091380881110E94801D10929B
:103B200036081092350882E090E090934608809322
:103B3000450808950E948A1D109236081092350893
:103B400010923408109241081092420810924608D0
:103B5000109245080895FF920F931F93CF93DF9320
:103B6000D82F0E949A1D109244081092430885E0B5
:103B700090E0909346088093450803E517E0C0E085
:103B8000F12CD33061F1A8F4D130E1F0D23009F159
:103B90006C2F8F2D0E94C504F3940F5F1F4FFCE123
:103BA000FF12EFCFDF91CF911F910F91FF900C94F7
:103BB000B517D430C9F0D53059F7C1E0F801E85550
:103BC000FF4F0BC0C1E0F80180AD8111E1CFC0E033
:103BD000DFCFC1E0F801EC5AFF4F8081F6CFC1E0A2
:103BE000F801E059FF4FF9CFC1E0F801E457FF4F6A
:103BF000F4CFCF93DF93C82F811101C0C1E0209192
:103C000045083091460880914308909144080597F3
:103C10000397B8F487E090E02230310529F0243092
:103C2000310531F486E090E0909344088093430896
:103C30009091980A892F880F880F890F8D5F809344
:103C40003208232B89F1D091320889E398E00E9451
:103C5000730C672B682B692B39F56C2F70E088E0AB
:103C600090E00E946044623008F462E06D1BCCE199
:103C7000C60FE0914308F09144083197E730F10511
:103C800098F48827E95BF14E8F4F0C947444571ECB
:103C9000951ED41ED41E4E1EAD1E6F1E87E090E0F2
:103CA0009093440880934308DF91CF91089561E099
:103CB000809135080E94C5040E94B517809135088F
:103CC00090913608019690933608809335084C976A
:103CD0000CF460C01092460810924508E5CF61E0F0
:103CE000809135080E94C5040E94B517809135085F
:103CF000909136080196909336088093350820916C
:103D000032082817190611F00CF044C084E090E046
:103D1000909346088093450883E0C89FA001112432
:103D2000052E000C660B770B39C060E080913508DA
:103D30000E94C5040E94B5178091350890913608FD
:103D4000019790933608809335084C2F440F440F09
:103D500097FF21C00E948A1DBDCF60E08091350889
:103D60000E94C5040E94B5178091430890914408B1
:103D7000029711F4CC0FCC0F809135089091360842
:103D80000197909336088093350897FF03C00E94EF
:103D90008A1DC2CF4C2F50E070E060E089E398E0CC
:103DA000DF91CF910C94E90C8091450890914608E1
:103DB0000297029768F00E948A1D809143089091B3
:103DC00044080497E1F580913308815080933408CA
:103DD00080913408811136C082E090E090934608CB
:103DE0008093450861E080E00E94C50461E08BE1BA
:103DF0000E94C5048091430890914408039751F4B0
:103E00008091340860E08F5F0E94C50460E08AE121
:103E10000E94C5040E94B51780913408209145087E
:103E2000309146082330310509F452C08F5F8093EA
:103E30003408409134084C0F5527551F71CF10920C
:103E40003408C6CFD09133089FEF9D0F891316C059
:103E500023E030E0309346082093450861E00E945B
:103E6000C50461E08D2F0E94C50460E08EEF8D0FC8
:103E70000E94C50460E081E08D0FCACF61E00E941E
:103E8000C5049091340861E08BE1891B0E94C50450
:103E90008091340860E081500E94C50490913408FC
:103EA00060E08CE1891B0E94C504809143089091D9
:103EB0004408039709F0AECF8091340860E08F5F2B
:103EC0000E94C5049091340860E08AE1891BA0CF6C
:103ED0008150ADCF009711F481E090E00C949744AD
:103EE000CF93DF938091500390915103892B09F078
:103EF0005BC08BE390E00E949744EC0181E08883F3
:103F000081E090E00E946A1F9A838983888190E013
:103F10000E946A1F9C838B83888190E00E946A1FA5
:103F20009E838D83888190E0880F991F0E946A1F6D
:103F300098878F83888123E0829FC00111240E948B
:103F40006A1F9A87898720E0A1E06FEF7FEF33E057
:103F50008881281728F5822F90E0E981FA81E80FFF
:103F6000F91FA083EB81FC81E80FF91F1082ED811E
:103F7000FE81E80FF91F1082880F991F4F81588525
:103F8000840F951FFC0171836083E985FA85239F67
:103F9000E00DF11D11241082118212822F5FD8CF03
:103FA000D0935103C09350038091500390915103DB
:103FB000DF91CF910895CF93DF9380915A068111BD
:103FC00006C06091200280911E020E9419070E9483
:103FD000701FEC01C8960E94A516882331F018AE18
:103FE00019AE1AAE81E080932104DF91CF9108953C
:103FF000CF93DF9380915A06811106C060911F0212
:1040000080911E020E9419070E94701FEC01C89641
:104010000E94A51681110EC00E94701F2FEF41E073
:1040200061E070E00E94191668AF79AF8AAF81E055
:1040300080932104DF91CF9108950F931F93CF9325
:10404000C82F8091120290915A06992339F10E944B
:10405000F006813031F060911402809112020E94CA
:1040600019070E94701F8C01C43198F40E94701FC0
:104070002FEF40E061E070E00E941916F80165AB97
:1040800076AB87AB81E080932104CF911F910F9194
:1040900008950E94701F2C2F42E0ECCFC11107C081
:1040A00060911402CF911F910F910C941907EC2F7E
:1040B000F0E0EE53FC4F6491E62FE0956E2F70E038
:1040C000CF911F910F910C947807EF920F931F934C
:1040D0009091550A8091500A981709F462C1909105
:1040E000410980913C09981709F45BC180917F0ACE
:1040F0008F3F09F421C1813009F053C18091020240
:10410000909103028330910509F42DC170F4813040
:10411000910509F412C2029709F412C280910202B9
:104120001F910F91EF900C94AB1D8430910509F411
:104130002BC1059799F78091040290910502833075
:10414000910509F48DC050F48130910509F429C11D
:10415000029709F445C081E090E018C184309105D0
:1041600009F4B2C00597B9F784E090E09093050296
:104170008093040260911902809118020E9419072D
:104180008FEF0E941D200E94F81F609117028091FE
:1041900015020E94190785E090E00E941A1AEE2489
:1041A000E39410E000E020E04091C20660E085E08A
:1041B00090E00E949C1A8BE090E00E941A1A8CE01A
:1041C00090E00E941A1A8DE090E00E941A1A20E0F6
:1041D0004091C20660E08EE090E00E949C1A3BC0D5
:1041E00081E090E0909305028093040260911A02AE
:1041F000809118020E94190780E00E941D200E94F1
:10420000DB1F60911702809115020E94190785E05B
:1042100090E00E941A1AEE24E39410E000E020E0FF
:104220004091C20660E085E090E00E949C1A20E088
:104230004091C20660E08BE090E00E949C1A8CE006
:1042400090E00E941A1A8DE090E00E941A1A8EE007
:1042500090E00E941A1A8FE090E00E941A1A7BCF19
:1042600082E090E09093050280930402609119022D
:10427000809118020E94190780E00E941D200E9470
:10428000DB1F60911702809115020E94190785E0DB
:1042900090E00E941A1AEE24E39410E000E020E07F
:1042A0004091C20660E085E090E00E949C1A8BE09D
:1042B00090E00E941A1A20E04091C20660E08CE073
:1042C00090E00E949C1ABFCF83E090E0909305029B
:1042D0008093040260911902809118020E941907CC
:1042E0008FEF0E941D200E94DB1F609117028091BA
:1042F00015020E94190785E090E00E941A1AEE2428
:10430000E39410E000E020E04091C20660E085E028
:1043100090E00E949C1A8BE090E00E941A1A8CE0B8
:1043200090E00E941A1A20E04091C20660E08DE001
:1043300090E00E949C1A8BCF809102029091030220
:104340008330910509F4F9C038F48130910571F09A
:10435000029709F400CFE2CE8430910509F4F0C051
:10436000059709F0DBCE84E090E010C08091040254
:10437000909105028330910509F463C060F48130A7
:10438000910599F0029769F085E090E0909303021F
:1043900080930202C3CE8430910509F48EC0059744
:1043A00099F71F910F91EF900895809116049091C5
:1043B0001704019731F48091140490911504059726
:1043C00081F382E090E09093050280930402609173
:1043D0001902809118020E94190780E00E941D2096
:1043E0000E94DB1F60911702809115020E9419073D
:1043F00085E090E00E941A1AEE24E39410E000E0B9
:1044000020E04091C20660E085E090E00E949C1AA6
:104410008BE090E00E941A1A20E04091C20660E012
:104420008CE090E00E949C1A8DE090E00E941A1AA5
:104430008EE090E00E941A1A8FE090E00E941A1A13
:10444000A3CF84E090E090930502809304026091F2
:104450001902809118020E9419078FEF0E941D20F7
:104460000E94F81F60911702809115020E9419079F
:1044700085E090E00E941A1AEE24E39410E000E038
:1044800020E04091C20660E085E090E00E949C1A26
:104490008BE090E00E941A1A8CE090E00E941A1AB9
:1044A0008DE090E00E941A1A20E04091C20660E080
:1044B0008EE090E00E949C1ABFCF85E090E0909340
:1044C00005028093040260911902809118020E94F3
:1044D00019078FEF0E941D200E94F81F609116029D
:1044E000809115020E94190785E090E00E941A1A37
:1044F000EE24E39410E000E020E04091C20660E08A
:1045000085E090E00E949C1A8BE090E00E941A1ACD
:104510008CE090E00E941A1A8DE090E00E941A1A36
:104520008EE090E00E941A1A20E04091C20660E0FE
:104530008FE090E00E949C1A27CF82E090E026CF87
:1045400083E090E023CF1092F7081092F8081092C1
:1045500059030E94701FFC013B96809610821182C5
:1045600012823396E817F907C9F760910B02809120
:1045700009020C9419070E949A1D0E94A3226091BF
:104580001D0280911B020E94190760911702809101
:1045900015020E9419076091110280910F020E947A
:1045A000190760910E0280910C020E941907609118
:1045B0001A02809118020E94190760910B028091E3
:1045C00009020E94190780E00E941D200E94DB1F43
:1045D0000E94701FFC013B96C596108211821282C8
:1045E0003396E817F907C9F70E94701FFC0115AA56
:1045F00016AA17AA10AE11AE12AE809169038111EE
:1046000008C040E65AEE60E070E087EC98E00C9459
:10461000E90C0895EF920F931F938091580388231C
:1046200061F086E090E00E941A1A85E090E00E9416
:104630001A1A85E090E00E941A1A81E090E00E9428
:104640001A1A84E290E00E941A1A20911404309100
:104650001504809158032430310599F5811133C038
:10466000109217041092160410921504109214045C
:104670000E94261A0E94A315109257031092510708
:10468000109252071092D9081092DA081092ED0891
:104690001092EE081092E3081092E40810920B09B1
:1046A00010920C09109201091092020980911604CF
:1046B00090911704892B01F51F910F91EF900C94A5
:1046C000BB228111D5CF10921704109216041092BC
:1046D00015041092140482E090E00E941A1AEE244D
:1046E000E39410E000E020E04091C20660E082E048
:1046F00090E00E949C1ABCCF1F910F91EF900895FB
:10470000AF92BF92CF92DF92EF92FF920F931F93DF
:10471000CF93DF9300D0CDB7DEB7182F89E497E0B1
:104720000E94B90C882309F48DC08091980A24E175
:10473000829FC001112496958795969587954EE1A5
:1047400050E0481B590B70E060E089E497E00E945C
:10475000E90C809153038E3F18F4815F80935303DB
:1047600080910102823018F08F50809301020E94E4
:10477000701F6C01EBE0CE0ED11C2FEF412F70E0CB
:1047800060E00E94191669837A838B83B0900102DE
:10479000E0915203F0E0EE0FFF1FE654FD4FE08082
:1047A000F12C27E0E20EF11CC701880F991FE80EDB
:1047B000F91EA0905303018110E0095F1F4FC8014B
:1047C000880F991F080F191F80910002EC0CFD1C27
:1047D0000C0D1D1D882309F443C06A2DCE010196DE
:1047E0000E942C0FFC0180819181A281F7018083BE
:1047F0009183A2836B2DCE0101960E942C0FFC01A8
:1048000080819181A281F80180839183A283FFEF4F
:10481000AF1218C080910102811114C08091000272
:1048200091E089278093000210925303A092010225
:104830008091520390E001966CE070E00E94604429
:10484000809352030F900F900F90DF91CF911F91A3
:104850000F91FF90EF90DF90CF90BF90AF900895B1
:104860006B2DCE0101960E942C0FFC01808191815D
:10487000A281F70180839183A2836A2DBCCF8091AE
:10488000F708882361F18091980A81500E94F91DF0
:104890008091160490911704019761F5809151075A
:1048A000811114C08091980A24E1829FC0011124D3
:1048B00096958795969587954EE150E0481B590B44
:1048C00070E060E089E497E00E94E90C8091980A2A
:1048D0008230D1F030F4813051F08AE009C081E0BB
:1048E000D5CF833099F08430C1F789E001C085E0ED
:1048F0000E9480230E94701F0E94CD0F809121048E
:10490000811110922104089587E0F2CF88E0F0CF62
:104910000E949D460F931F93CF93DF93EC018881F4
:104920009981009759F02A813B812617370730F08B
:1049300081E0DF91CF911F910F9108958B016F5FFF
:104940007F4F0E94BC45009759F0998388831B8351
:104950000A832C813D81232B59F7FC011082E8CF7B
:1049600080E0E7CFCF93DF93EC01888199810097B6
:1049700011F00E943345198218821D821C821B820D
:104980001A82DF91CF910895EF92FF920F931F93B8
:10499000CF93DF93EC01FB01E080F180E114F1049F
:1049A00011F10481158101151105A9F08C819D81FA
:1049B000080F191FB801CE010E948A24882399F09C
:1049C000288139818C819D81B701820F931F0E94BC
:1049D000AB461D830C83CE01DF91CF911F910F91C8
:1049E000FF90EF900895CE010E94B224F4CFEF9291
:1049F000FF920F931F93CF93DF93EC017B018A010A
:104A0000BA010E948A2481110BC0CE010E94B224F7
:104A1000CE01DF91CF911F910F91FF90EF900895FC
:104A20001D830C83B701888199810E94AB46F0CF2A
:104A3000EF92FF920F931F93CF93DF93CDB7DEB723
:104A400062970FB6F894DEBF0FBECDBF8C01CB01CD
:104A5000F8011182108213821282158214824AE0B8
:104A60009E012F5F3F4F7901B9010E949643F701E4
:104A700001900020E9F73197AF014E195F09B701A6
:104A8000C8010E94F72462960FB6F894DEBF0FBEED
:104A9000CDBFDF91CF911F910F91FF90EF900895BF
:104AA000EF92FF920F931F93CF93DF93CDB7DEB7B3
:104AB00061970FB6F894DEBF0FBECDBF8C01CB015E
:104AC000F8011182108213821282158214824AE048
:104AD0009E012F5F3F4F7901B9010E94A143F70169
:104AE00001900020E9F73197AF014E195F09B70136
:104AF000C8010E94F72461960FB6F894DEBF0FBE7E
:104B0000CDBFDF91CF911F910F91FF90EF9008954E
:104B1000FB01DC0111961C921E9213961C921E92B0
:104B2000129715961C921E9214978617970749F0B4
:104B3000608171816115710521F0448155810C946A
:104B4000F7240895FC0180819181009711F00C9465
:104B500033450895CF93DF93EC010E943517CE01C2
:104B6000DF91CF910C943345EF92FF920F931F93F7
:104B7000CF93DF93EC018B01198218821B821A827A
:104B80001D821C82CB010E948D437C01BC01CE01A1
:104B90000E948A24811109C0CE01DF91CF911F911B
:104BA0000F91FF90EF900C94B224FD82EC82B8013B
:104BB00088819981DF91CF911F910F91FF90EF90A4
:104BC0000C948643EF920F931F93CF93DF93CDB74F
:104BD000DEB762970FB6F894DEBF0FBECDBF8091EF
:104BE0000402909105028130910579F0029709F451
:104BF0003DC262960FB6F894DEBF0FBECDBFDF9107
:104C0000CF911F910F91EF900895809102029091A2
:104C100003028330910509F4DBC008F050C08130F5
:104C2000910509F4E6C1029721F780916903882371
:104C300001F38BE29AE00E94FF0A882309F475C110
:104C4000009165031091660380916703882309F43E
:104C50005FC1045F1140B80190E080E00E9423052D
:104C600020915E0330915F032617370709F033C1A7
:104C700080915C0390915D03909361038093600346
:104C8000609160037091610390E080E00E94D6051E
:104C90000091620310916303601771070CF422C145
:104CA00060916003709161036150710970936103B9
:104CB0006093600390E080E00E94D605EDCF8430E1
:104CC000910549F1059709F094CF809169038823F4
:104CD00009F48FCF8BE29AE00E94FF0A882309F43F
:104CE00088CF6091680381E06827609368038091B2
:104CF0006203909163031816190634F480916503DA
:104D0000909166030E94231966E576E0CE01019634
:104D10000E94B42547C08BE29AE00E94FF0A8823D4
:104D200081F0809123028A3B41F48091C3068093F5
:104D3000230280E00E94941B5CCF8093C3068AEB21
:104D4000F6CF9091410980913C09981352CF809100
:104D50007F0A813061F50E94F51B60912302062EC7
:104D6000000C770BCE0101960E94182563E476E0D3
:104D7000CE010D960E94B425BE01635F7F4FCE0128
:104D800007960E948825BE016F5F7F4FCE01079670
:104D90000E94C424CE0107960E94A225CE010D9642
:104DA0000E94A225CE0101960E94A22522CF8F3F0C
:104DB00009F01FCF0E94DB1B60912302062E000C1E
:104DC000770BCE0101960E94182560E376E0D0CFE4
:104DD0008BE29AE00E94FF0A882349F080916703E2
:104DE00091E08927809367036BE176E08FCF909104
:104DF000410980913C099813FCCE80917F0A813053
:104E0000A1F580912202803660F184E6809322022F
:104E100087E090E00E941A1AE12C10E000E020E008
:104E200040E060E087E090E00E949C1A80912202BE
:104E300023E2829FC001112464E670E00E94604476
:104E400063526093C2060E948C196091C206062EBE
:104E5000000C770BCE0101960E94182567E076E0E2
:104E600087CF8B5F80932202E1CF8F3F09F0C1CEC5
:104E700080912202853058F51092220287E090E05E
:104E80000E941A1AE12C10E000E020E040E060E00F
:104E900087E090E00E949C1A8091220223E2829F88
:104EA000C001112464E670E00E9460446352609384
:104EB000C2060E948C196091C206062E000C770B68
:104EC000CE0101960E94182563EF75E051CF855001
:104ED00080932202E1CF6150710970936103609366
:104EE0006003CECE8B010C501E4F0E94FB1C109312
:104EF0006603009365030E941A1D6091650370911B
:104F00006603CE0101960E94502565EE75E030CF14
:104F100001501109043F81E0180738F7009162033E
:104F2000109163030D501E4FE0CF87E199E00E947E
:104F3000FF0A882309F45DCE6091650370916603D2
:104F4000009162031091630380916703882309F441
:104F500044C0645F714090E080E00E94230520918E
:104F60005C0330915D0326173707D1F4109261037B
:104F700010926003609160037091610390E080E0A3
:104F80000E94D6056017710794F0609160037091DC
:104F900061036F5F7F4F7093610360936003EECF97
:104FA0006F5F7F4F7093610360936003E3CF8B016A
:104FB0000C501E4F0E94FB1C109366030093650368
:104FC0000E941A1D6091650370916603CE010196DF
:104FD0000E94502567ED75E0CBCE6F5F7F4F0D507F
:104FE0001E4F0617170710F08B01E4CF04EF11E0F6
:104FF000E1CF8BE29AE00E94FF0A882371F0809152
:105000006903811105C00E941A1D6CEC75E07ECE0B
:105010000E94FB1C61EC75E079CE90914109809172
:105020003C099813E6CD80917F0A813071F40E948B
:10503000661B6091C106062E000C770BCE0101960F
:105040000E9418256FEA75E093CE8F3F09F0D1CD0D
:105050000E94391B6091C106062E000C770BCE0111
:1050600001960E9418256DE975E082CE80910202BA
:10507000909103028330910509F408C140F502972D
:1050800009F0B7CD8BE29AE00E94FF0A882309F469
:10509000B0CD86E290E00E941A1A87E290E00E946A
:1050A0001A1A9091640381E089270E94CA1B80919B
:1050B0006403EE24E39410E000E020E04091C20697
:1050C00060E0882309F492C186E290E025C0843034
:1050D000910509F470C0059709F08BCD8BE29AE039
:1050E0000E94FF0A882389F18091820A8823B9F0FF
:1050F0001092820A83E190E00E941A1A84E190E003
:105100000E941A1AEE24E39410E000E020E040919F
:10511000C20660E084E190E00E949C1A6ACD81E0C2
:105120008093820A83E190E00E941A1A84E190E061
:105130000E941A1AEE24E39410E000E020E040916F
:10514000C20660E083E190E0E7CF87E199E00E944A
:10515000FF0A882309F44DCD80915A068823A9F0CF
:1051600010925A0685E190E00E941A1A86E190E0BA
:105170000E941A1AEE24E39410E000E020E040912F
:10518000C20660E086E190E0C7CF81E080935A06D6
:1051900085E190E00E941A1A86E190E00E941A1AB6
:1051A000EE24E39410E000E020E04091C20660E0CD
:1051B00085E190E0B1CF8BE29AE00E94FF0A88235C
:1051C00079F18091800A8823A9F01092800A8CE1FD
:1051D00090E00E941A1A8DE190E00E941A1AEE24C3
:1051E000E39410E000E020E04091C20660E08DE131
:1051F00090E092CF81E08093800A8CE190E00E9461
:105200001A1A8DE190E00E941A1AEE24E39410E03D
:1052100000E020E04091C20660E08CE190E07CCFAD
:1052200087E199E00E94FF0A882309F4E2CC80918B
:10523000810A8823A9F01092810A8EE190E00E94F1
:105240001A1A8FE190E00E941A1AEE24E39410E0FB
:1052500000E020E04091C20660E08FE190E05CCF8A
:1052600081E08093810A8EE190E00E941A1A8FE11A
:1052700090E00E941A1AEE24E39410E000E020E08F
:105280004091C20660E08EE190E046CF8BE29AE06A
:105290000E94FF0A8823A9F18091840A8823D9F00B
:1052A0001092840A8AE190E00E941A1A8BE190E041
:1052B0000E941A1AEE24E39410E000E020E04091EE
:1052C000C20660E08BE190E00E949C1A8091840A03
:1052D0000E946E1A8ECC81E08093840A8AE190E06D
:1052E0000E941A1A8BE190E00E941A1AEE24E394AD
:1052F00010E000E020E04091C20660E08AE190E02A
:10530000E3CF87E199E00E94FF0A882309F471CC7A
:1053100087E090E00E941A1AEE24E39410E000E087
:1053200020E04091C20660E087E090E00E949C1A75
:105330008091870A8130E1F08330F1F183E080933E
:10534000870A82E290E00E941A1A80E290E00E94AE
:105350001A1A81E290E00E941A1AEE24E39410E0F7
:1053600000E020E04091C20660E081E290E0D4CE0F
:1053700082E08093870A82E290E00E941A1A80E21B
:1053800090E00E941A1A81E290E00E941A1AEE241C
:10539000E39410E000E020E04091C20660E082E289
:1053A00090E00E949C1A4AEF50E060E070E080E7D5
:1053B0009AE00E94E90C1DCC81E08093870A82E28A
:1053C00090E00E941A1A80E290E00E941A1A81E28C
:1053D00090E00E941A1AEE24E39410E000E020E02E
:1053E0004091C20660E080E290E0DBCF87E290E08F
:1053F00093CE85ED8093BC0080915C0490915D0418
:10540000A0915E04B0915F040796A11DB11D23E039
:10541000B695A795979587952A95D1F72091BC00C9
:1054200024FD03C010925A04089540915C045091E9
:105430005D0460915E0470915F04452B462B472B01
:1054400069F30097A105B10541F02AE22A95F1F729
:1054500000C00197A109B109E1CF80915B040C94D0
:10546000890DBF92CF92DF92EF92FF920F931F931D
:10547000CF93DF9300D000D0CDB7DEB79C01275289
:10548000310930936303209362032115310509F438
:1054900033C137FF12C0109263031092620381E0A0
:1054A0008093100466E673E0CE0101960E94B42555
:1054B000CE0101960E94A2251FC140910602509183
:1054C0000702BA0167527109261737070CF024C189
:1054D0004817590708F420C184EF91E090936603C0
:1054E000809365030E94A6086B017C010E942E43F5
:1054F00020E031E040E050E00E94E1439B01AC013C
:105500002C0D3D1D4E1D5F1D65E979EE81ED9BE57E
:105510000E944444292F332744275527262737271D
:105520004827592765E979EE81ED9BE50E944444BF
:105530009B01AC01E7EC2E27E1E03E27E1E14E279D
:10554000E3E55E2769EB70E98AE698E20E9444444D
:10555000DC01CB0127E5822723E792272AE2A22755
:105560002AEAB2279C01AD016DE056954795379523
:1055700027956A95D1F7282739274A275B2765E9B8
:1055800079EE81ED9BE50E9444448B019C01EFE0A4
:105590003695279517950795EA95D1F7AB01BC018C
:1055A00040275127622773270091620310916303FC
:1055B0006801012E000CEE08FF0884E090E0A0E0F6
:1055C000B0E08C159D05AE05BF0540F432E0880FB4
:1055D000991FAA1FBB1F3A95D1F7F3CF0197A109D5
:1055E000B109C12CD12C76010097A105B10551F06C
:1055F000B695A79597958795EFEFCE1ADE0AEE0A36
:10560000FE0AF2CFF694E794D794C794C09222048E
:10561000D0922304E0922404F092250481E090E0EB
:1056200002C0880F991FCA94E2F70197092E000C57
:10563000AA0BBB0B8093260490932704A093280405
:10564000B093290440932A0450932B0460932C04B4
:1056500070932D0410925F0310925E0310925D030D
:1056600010925C03F12CE12CBB24B394680121E07F
:10567000C21AD108E016F1068CF560915C037091B6
:105680005D0390E080E00E94D605601771075CF032
:1056900060915C0370915D036F5F7F4F70935D035A
:1056A00060935C03EECFBB2041F080915C0390914E
:1056B0005D0390935F0380935E03EC14FD0449F057
:1056C00080915C0390915D03019690935D038093BC
:1056D0005C038FEFE81AF80AB12CCCCF6091650318
:1056E000709166036752710990E080E00E94230583
:1056F000709361036093600326960FB6F894DEBF43
:105700000FBECDBFDF91CF911F910F91FF90EF9012
:10571000DF90CF90BF9008951092630310926203C0
:1057200081E08093110461E173E0BECEFF920F939C
:105730001F93CF93DF93EC01F62E08811981C801E6
:105740000E94CB43F81621F06F2DC8010E94D3436D
:10575000CE01DF91CF911F910F91FF900895EF92AD
:10576000FF920F931F93CF93DF931F921F92CDB79A
:10577000DEB71A82198268E0CE0101960E94962B4C
:1057800081E090E09A83898360E0CE0101960E94D7
:10579000962B80E8E82E8AE0F82E02E010E01A83CB
:1057A0000983F70161917F01CE0101960E94962B3A
:1057B0000F5F1F4F0A30110591F70F900F90DF9187
:1057C000CF911F910F91FF90EF900895EF92FF926C
:1057D0000F931F93CF93DF93CDB7DEB762970FB6CA
:1057E000F894DEBF0FBECDBF0091140410911504D4
:1057F0000115110519F00530110591F487E199E0C3
:105800000E94FF0A882361F09091CB098091C6091C
:10581000981313C09091860980918109981386C0CE
:1058200062960FB6F894DEBF0FBECDBFDF91CF9169
:105830001F910F91FF90EF9008950530110509F425
:1058400079C09091860980918109981749F305E004
:1058500010E0109315040093140440E951E060E057
:1058600070E081ED98E00E94E90C65E070E0CE0107
:1058700001960E94182562ED74E0CE010D960E94FB
:10588000B425BE01635F7F4FCE0107960E94882535
:10589000BE016F5F7F4FCE0107960E94C424CE01E8
:1058A00007960E94A225CE010D960E94A225CE0148
:1058B00001960E94A22581E090E0909305028093DA
:1058C00004021093030200930202EE24E39410E01A
:1058D00000E020E04091C20660E080E190E00E949C
:1058E0009C1A8091160490911704892BE1F40E9470
:1058F000BB2260911A02809118020E94190780E071
:105900000E941D200E94DB1F6091170280911502EA
:105910000E9419071092CF081092D00880910202BD
:105920000E94AB1D7DCF0E949A1DF8CF0530110556
:1059300009F076CFE0900402F090050281E0E816CD
:10594000F10409F06DCF00910202109103020530BD
:10595000110509F065CF10921504109214041092ED
:10596000D9081092DA0870E060E0CE0101960E943A
:10597000182562EC74E0CE010D960E94B425BE019C
:10598000635F7F4FCE0107960E948825BE016F5F3F
:105990007F4FCE0107960E94C424CE0107960E9435
:1059A000A225CE010D960E94A225CE0101960E944D
:1059B000A225F0920502E0920402109303020093E4
:1059C00002028091160490911704892BA1F40E9481
:1059D000AF2B8AE090E00E941A1AEE24E39410E0C4
:1059E00000E020E04091C20660E08AE090E00E9482
:1059F0009C1A0E94BB2280E190E00E941A1AEE24B9
:105A0000E39410E000E020E04091C20660E080E115
:105A100090E00E949C1A10921504109214040091B8
:105A20001604109117040130110509F0F9CE0E94F7
:105A30009A1D10923608109235081092340810936F
:105A4000460800934508109241081092420885E0EC
:105A500090E09093440880934308E2CEAF92BF92C7
:105A6000DF92EF92FF920F931F93CF93DF93CDB707
:105A7000DEB7A0970FB6F894DEBF0FBECDBF809102
:105A80001204909113040197039710F40E94101CC4
:105A900088ED96E00E94B90C882309F45FC08091DC
:105AA000D60681115BC08091120490911304019776
:105AB000039708F053C040ED57E060E070E088EDD8
:105AC00096E00E94E90C8091650390916603FE01C7
:105AD000339622E1DF011D922A95E9F727E0298319
